{
  "contractName": "LibCommitUpgradeTransition",
  "abi": [
    {
      "constant": false,
      "inputs": [
        {
          "name": "self",
          "type": "address"
        },
        {
          "name": "sender",
          "type": "address"
        },
        {
          "name": "data",
          "type": "MatryxPlatform.Data storage"
        },
        {
          "name": "commitHash",
          "type": "bytes32"
        }
      ],
      "name": "upgradeCommitAndAncestry",
      "outputs": [],
      "payable": false,
      "stateMutability": "nonpayable",
      "type": "function"
    }
  ],
  "bytecode": "0x610251610030600b82828239805160001a6073146000811461002057610022565bfe5b5030600052607381538281f3fe73000000000000000000000000000000000000000030146080604052600436106100575763ffffffff7c0100000000000000000000000000000000000000000000000000000000600035041663fe0fbca3811461005c575b600080fd5b81801561006857600080fd5b5061007c610077366004610149565b61007e565b005b60008181526006830160205260409020805473ffffffffffffffffffffffffffffffffffffffff8581169116146100ea576040517f08c379a00000000000000000000000000000000000000000000000000000000081526004016100e1906101da565b60405180910390fd5b600881015482905b60008111156101215760009182526006850160205260409091206001600b8201556009015490600019016100f2565b50505050505050565b60006101368235610209565b9392505050565b60006101368235610214565b6000806000806080858703121561015f57600080fd5b600061016b878761012a565b945050602061017c8782880161012a565b935050604061018d8782880161013d565b925050606061019e8782880161013d565b91505092959194509250565b601a81527f4d757374206f776e20636f6d6d697420746f2075706772616465000000000000602082015260400190565b602080825281016101ea816101aa565b92915050565b73ffffffffffffffffffffffffffffffffffffffff1690565b60006101ea826101f0565b9056fea265627a7a72305820e855936d540bc67c7cce81ae43ed0107af4bf2a7591d606a2ce6135aca9a6f686c6578706572696d656e74616cf50037",
  "source": "pragma solidity ^0.5.0;\npragma experimental ABIEncoderV2;\n\nimport \"../MatryxSystem.sol\";\nimport \"../MatryxPlatform.sol\";\n\nlibrary LibCommitUpgradeTransition {\n\n    struct NewCommit\n    {\n        address owner;\n        uint256 timestamp;\n        bytes32 groupHash;\n        bytes32 commitHash;\n        string content;\n        uint256 value;\n        uint256 ownerTotalValue;\n        uint256 totalValue;\n        uint256 height;\n        bytes32 parentHash;\n        bytes32[] children;\n        uint256 upgradeVersion;\n    }\n\n    function upgradeCommitAndAncestry(address self, address sender, MatryxPlatform.Data storage data, bytes32 commitHash) public {\n        LibCommit.Commit storage commit = data.commits[commitHash];\n        require(sender == commit.owner, \"Must own commit to upgrade\");\n\n        bytes32 loopHash = commitHash;\n        for (uint256 i = commit.height; i > 0; i--) {\n            \n            LibCommit.Commit storage commit = data.commits[loopHash];\n            // set upgradeVersion to 1\n            assembly { sstore(add(commit_slot, 11), 1) }\n\n            loopHash = data.commits[loopHash].parentHash;\n        }\n    }\n}",
  "sourcePath": "/Users/maxhoward/Desktop/Ethereum/MatryxPlatform/contracts/test-contracts/LibCommitUpgradeTransition.sol",
  "compiler": {
    "name": "solc",
    "version": "0.5.0+commit.1d4f565a.Emscripten.clang"
  },
  "schemaVersion": "3.0.2",
  "updatedAt": "2019-03-21T17:41:06.812Z",
  "devdoc": {
    "methods": {}
  },
  "userdoc": {
    "methods": {}
  }
}