{
  "contractName": "LibCommit",
  "abi": [
    {
      "anonymous": false,
      "inputs": [
        {
          "indexed": false,
          "name": "group",
          "type": "string"
        },
        {
          "indexed": false,
          "name": "user",
          "type": "address"
        }
      ],
      "name": "JoinGroupRequest",
      "type": "event",
      "signature": "0xaac4ad1c4ac225c4c8af77de36164450e9ad5087c1e0186eda5a20b97659c2e6"
    },
    {
      "anonymous": false,
      "inputs": [
        {
          "indexed": false,
          "name": "group",
          "type": "string"
        },
        {
          "indexed": false,
          "name": "user",
          "type": "address"
        }
      ],
      "name": "NewGroupMember",
      "type": "event",
      "signature": "0x2ea4617fb5fe9d65cbc519fb08be2e9702191108eae5ab26668e3c25cdfbe3a8"
    },
    {
      "anonymous": false,
      "inputs": [
        {
          "indexed": false,
          "name": "commitHash",
          "type": "bytes32"
        },
        {
          "indexed": false,
          "name": "contentHash",
          "type": "bytes32[2]"
        }
      ],
      "name": "Committed",
      "type": "event",
      "signature": "0x05ab259c5fea8b12015541fc0b0d20b1fd993da95bfee453e7ac3c0781e978cc"
    },
    {
      "anonymous": false,
      "inputs": [
        {
          "indexed": false,
          "name": "parentHash",
          "type": "bytes32"
        },
        {
          "indexed": false,
          "name": "commitHash",
          "type": "bytes32"
        },
        {
          "indexed": false,
          "name": "creator",
          "type": "address"
        }
      ],
      "name": "Fork",
      "type": "event",
      "signature": "0xba800f2866757acfb8adacdfd820e21e5c23cd81af77ca1c91311904715d694f"
    },
    {
      "constant": true,
      "inputs": [
        {
          "name": "self",
          "type": "address"
        },
        {
          "name": "sender",
          "type": "address"
        },
        {
          "name": "data",
          "type": "MatryxPlatform.Data storage"
        },
        {
          "name": "commitHash",
          "type": "bytes32"
        }
      ],
      "name": "getCommit",
      "outputs": [
        {
          "components": [
            {
              "name": "owner",
              "type": "address"
            },
            {
              "name": "groupHash",
              "type": "bytes32"
            },
            {
              "name": "commitHash",
              "type": "bytes32"
            },
            {
              "name": "contentHash",
              "type": "bytes32[2]"
            },
            {
              "name": "value",
              "type": "uint256"
            },
            {
              "name": "totalValue",
              "type": "uint256"
            },
            {
              "name": "height",
              "type": "uint256"
            },
            {
              "name": "parentHash",
              "type": "bytes32"
            },
            {
              "name": "children",
              "type": "bytes32[]"
            }
          ],
          "name": "commit",
          "type": "tuple"
        }
      ],
      "payable": false,
      "stateMutability": "view",
      "type": "function",
      "signature": "0x2d548a40"
    },
    {
      "constant": true,
      "inputs": [
        {
          "name": "self",
          "type": "address"
        },
        {
          "name": "sender",
          "type": "address"
        },
        {
          "name": "data",
          "type": "MatryxPlatform.Data storage"
        },
        {
          "name": "contentHash",
          "type": "bytes32[2]"
        }
      ],
      "name": "getCommitByContentHash",
      "outputs": [
        {
          "components": [
            {
              "name": "owner",
              "type": "address"
            },
            {
              "name": "groupHash",
              "type": "bytes32"
            },
            {
              "name": "commitHash",
              "type": "bytes32"
            },
            {
              "name": "contentHash",
              "type": "bytes32[2]"
            },
            {
              "name": "value",
              "type": "uint256"
            },
            {
              "name": "totalValue",
              "type": "uint256"
            },
            {
              "name": "height",
              "type": "uint256"
            },
            {
              "name": "parentHash",
              "type": "bytes32"
            },
            {
              "name": "children",
              "type": "bytes32[]"
            }
          ],
          "name": "commit",
          "type": "tuple"
        }
      ],
      "payable": false,
      "stateMutability": "view",
      "type": "function",
      "signature": "0x4948cc67"
    },
    {
      "constant": true,
      "inputs": [
        {
          "name": "self",
          "type": "address"
        },
        {
          "name": "sender",
          "type": "address"
        },
        {
          "name": "data",
          "type": "MatryxPlatform.Data storage"
        }
      ],
      "name": "getInitialCommits",
      "outputs": [
        {
          "name": "",
          "type": "bytes32[]"
        }
      ],
      "payable": false,
      "stateMutability": "view",
      "type": "function",
      "signature": "0x178a1915"
    },
    {
      "constant": true,
      "inputs": [
        {
          "name": "self",
          "type": "address"
        },
        {
          "name": "sender",
          "type": "address"
        },
        {
          "name": "data",
          "type": "MatryxPlatform.Data storage"
        }
      ],
      "name": "getAllGroups",
      "outputs": [
        {
          "name": "",
          "type": "bytes32[]"
        }
      ],
      "payable": false,
      "stateMutability": "view",
      "type": "function",
      "signature": "0x19107167"
    },
    {
      "constant": true,
      "inputs": [
        {
          "name": "self",
          "type": "address"
        },
        {
          "name": "sender",
          "type": "address"
        },
        {
          "name": "data",
          "type": "MatryxPlatform.Data storage"
        },
        {
          "name": "groupHash",
          "type": "bytes32"
        }
      ],
      "name": "getGroupName",
      "outputs": [
        {
          "name": "",
          "type": "string"
        }
      ],
      "payable": false,
      "stateMutability": "view",
      "type": "function",
      "signature": "0x9a1d5544"
    },
    {
      "constant": true,
      "inputs": [
        {
          "name": "self",
          "type": "address"
        },
        {
          "name": "sender",
          "type": "address"
        },
        {
          "name": "data",
          "type": "MatryxPlatform.Data storage"
        },
        {
          "name": "group",
          "type": "string"
        }
      ],
      "name": "getGroupMembers",
      "outputs": [
        {
          "name": "",
          "type": "address[]"
        }
      ],
      "payable": false,
      "stateMutability": "view",
      "type": "function",
      "signature": "0xad737b54"
    },
    {
      "constant": true,
      "inputs": [
        {
          "name": "self",
          "type": "address"
        },
        {
          "name": "sender",
          "type": "address"
        },
        {
          "name": "data",
          "type": "MatryxPlatform.Data storage"
        },
        {
          "name": "commitHash",
          "type": "bytes32"
        }
      ],
      "name": "getRoundsSubmittedTo",
      "outputs": [
        {
          "name": "",
          "type": "address[]"
        }
      ],
      "payable": false,
      "stateMutability": "view",
      "type": "function",
      "signature": "0x02546e6a"
    },
    {
      "constant": false,
      "inputs": [
        {
          "name": "self",
          "type": "address"
        },
        {
          "name": "sender",
          "type": "address"
        },
        {
          "name": "data",
          "type": "MatryxPlatform.Data storage"
        },
        {
          "name": "group",
          "type": "string"
        }
      ],
      "name": "createGroup",
      "outputs": [],
      "payable": false,
      "stateMutability": "nonpayable",
      "type": "function",
      "signature": "0x6ed34c7e"
    },
    {
      "constant": false,
      "inputs": [
        {
          "name": "self",
          "type": "address"
        },
        {
          "name": "sender",
          "type": "address"
        },
        {
          "name": "data",
          "type": "MatryxPlatform.Data storage"
        },
        {
          "name": "group",
          "type": "string"
        }
      ],
      "name": "requestToJoinGroup",
      "outputs": [],
      "payable": false,
      "stateMutability": "nonpayable",
      "type": "function",
      "signature": "0xc1291fff"
    },
    {
      "constant": false,
      "inputs": [
        {
          "name": "self",
          "type": "address"
        },
        {
          "name": "sender",
          "type": "address"
        },
        {
          "name": "data",
          "type": "MatryxPlatform.Data storage"
        },
        {
          "name": "group",
          "type": "string"
        },
        {
          "name": "member",
          "type": "address"
        }
      ],
      "name": "addGroupMember",
      "outputs": [],
      "payable": false,
      "stateMutability": "nonpayable",
      "type": "function",
      "signature": "0xb009f19d"
    },
    {
      "constant": false,
      "inputs": [
        {
          "name": "self",
          "type": "address"
        },
        {
          "name": "sender",
          "type": "address"
        },
        {
          "name": "data",
          "type": "MatryxPlatform.Data storage"
        },
        {
          "name": "contentHash",
          "type": "bytes32[2]"
        },
        {
          "name": "value",
          "type": "uint256"
        },
        {
          "name": "group",
          "type": "string"
        }
      ],
      "name": "initialCommit",
      "outputs": [],
      "payable": false,
      "stateMutability": "nonpayable",
      "type": "function",
      "signature": "0x7125f211"
    },
    {
      "constant": false,
      "inputs": [
        {
          "name": "self",
          "type": "address"
        },
        {
          "name": "sender",
          "type": "address"
        },
        {
          "name": "data",
          "type": "MatryxPlatform.Data storage"
        },
        {
          "name": "contentHash",
          "type": "bytes32[2]"
        },
        {
          "name": "value",
          "type": "uint256"
        },
        {
          "name": "parentHash",
          "type": "bytes32"
        }
      ],
      "name": "commit",
      "outputs": [],
      "payable": false,
      "stateMutability": "nonpayable",
      "type": "function",
      "signature": "0x6ffec9c2"
    },
    {
      "constant": false,
      "inputs": [
        {
          "name": "self",
          "type": "address"
        },
        {
          "name": "sender",
          "type": "address"
        },
        {
          "name": "info",
          "type": "MatryxPlatform.Info storage"
        },
        {
          "name": "data",
          "type": "MatryxPlatform.Data storage"
        },
        {
          "name": "contentHash",
          "type": "bytes32[2]"
        },
        {
          "name": "value",
          "type": "uint256"
        },
        {
          "name": "parentHash",
          "type": "bytes32"
        },
        {
          "name": "group",
          "type": "string"
        }
      ],
      "name": "fork",
      "outputs": [],
      "payable": false,
      "stateMutability": "nonpayable",
      "type": "function",
      "signature": "0xb5215f33"
    },
    {
      "constant": false,
      "inputs": [
        {
          "name": "self",
          "type": "address"
        },
        {
          "name": "sender",
          "type": "address"
        },
        {
          "name": "data",
          "type": "MatryxPlatform.Data storage"
        },
        {
          "name": "tAddress",
          "type": "address"
        },
        {
          "name": "title",
          "type": "bytes32[3]"
        },
        {
          "name": "descHash",
          "type": "bytes32[2]"
        },
        {
          "name": "contentHash",
          "type": "bytes32[2]"
        },
        {
          "name": "value",
          "type": "uint256"
        },
        {
          "name": "parentHash",
          "type": "bytes32"
        },
        {
          "name": "group",
          "type": "string"
        }
      ],
      "name": "submitToTournament",
      "outputs": [],
      "payable": false,
      "stateMutability": "nonpayable",
      "type": "function",
      "signature": "0x24e5114d"
    },
    {
      "constant": false,
      "inputs": [
        {
          "name": "self",
          "type": "address"
        },
        {
          "name": "sender",
          "type": "address"
        },
        {
          "name": "info",
          "type": "MatryxPlatform.Info storage"
        },
        {
          "name": "data",
          "type": "MatryxPlatform.Data storage"
        },
        {
          "name": "commitHash",
          "type": "bytes32"
        }
      ],
      "name": "distributeReward",
      "outputs": [],
      "payable": false,
      "stateMutability": "nonpayable",
      "type": "function",
      "signature": "0xe45fdba0"
    }
  ],
  "bytecode": "0x6127a8610030600b82828239805160001a6073146000811461002057610022565bfe5b5030600052607381538281f3fe73000000000000000000000000000000000000000030146080604052600436106100f15763ffffffff7c010000000000000000000000000000000000000000000000000000000060003504166302546e6a81146100f6578063178a19151461011f578063191071671461013f57806324e5114d146101525780632d548a40146101745780634948cc67146101945780636ed34c7e146101a75780636ffec9c2146101c75780637125f211146101e75780639a1d554414610207578063ad737b5414610227578063b009f19d1461023a578063b5215f331461025a578063c1291fff1461027a578063e45fdba01461029a575b600080fd5b610109610104366004611d72565b6102ba565b6040516101169190612565565b60405180910390f35b61013261012d366004611ab8565b610339565b6040516101169190612576565b61013261014d366004611ab8565b610398565b81801561015e57600080fd5b5061017261016d366004611b05565b6103f4565b005b610187610182366004611d72565b610563565b6040516101169190612671565b6101876101a2366004611bf8565b61067a565b8180156101b357600080fd5b506101726101c2366004611dc7565b6107ef565b8180156101d357600080fd5b506101726101e2366004611c59565b6109ee565b8180156101f357600080fd5b50610172610202366004611ce0565b610aee565b61021a610215366004611d72565b610bf8565b60405161011691906125ca565b610109610235366004611dc7565b610cab565b81801561024657600080fd5b50610172610255366004611e34565b610dbe565b81801561026657600080fd5b50610172610275366004611ec1565b610ffc565b81801561028657600080fd5b50610172610295366004611dc7565b61117a565b8180156102a657600080fd5b506101726102b5366004611f8a565b61121c565b6000818152600c8301602090815260409182902080548351818402810184019094528084526060939283018282801561032957602002820191906000526020600020905b815473ffffffffffffffffffffffffffffffffffffffff1681526001909101906020018083116102fe575b505050505090505b949350505050565b606081600e0180548060200260200160405190810160405280929190818152602001828054801561038957602002820191906000526020600020905b815481526020019060010190808311610375575b505050505090505b9392505050565b606081600d01805480602002602001604051908101604052809291908181526020018280548015610389576020028201919060005260206000209081548152602001906001019080831161037557505050505090509392505050565b6000816040516020018082805190602001908083835b602083106104295780518252601f19909201916020918201910161040a565b6001836020036101000a03801982511681845116808217855250505050505090500191505060405160208183030381529060405280519060200120905060006001028314151561049257600083815260098a016020526040902060010154811461049257600080fd5b6000818152600a8a01602052604090205460ff1615156104b8576104b88b8b8b856107ef565b60006104c88b8b888888876112a7565b6040517fa6b7ee0e00000000000000000000000000000000000000000000000000000000815290915073__LibTournament_________________________9063a6b7ee0e90610525908c908f908f908e908e9089906004016124e1565b60006040518083038186803b15801561053d57600080fd5b505af4158015610551573d6000803e3d6000fd5b50505050505050505050505050505050565b61056b61183b565b6000828152600984016020908152604091829020825161012081018452815473ffffffffffffffffffffffffffffffffffffffff168152600182015492810192909252600280820154838501528351808501948590529293919260608501929091600385019182845b8154815260200190600101908083116105d45750505050508152602001600582015481526020016006820154815260200160078201548152602001600882015481526020016009820180548060200260200160405190810160405280929190818152602001828054801561066757602002820191906000526020600020905b815481526020019060010190808311610653575b5050505050815250509050949350505050565b61068261183b565b6000826040516020018082600260200280838360005b838110156106b0578181015183820152602001610698565b50506040805193909501838103601f1901845280865283516020948501206000818152600b8e0186528781205480825260098f0187529088902061012084018952805473ffffffffffffffffffffffffffffffffffffffff168452600181015496840196909652600280870154848a01528851808a01998a9052929b50909950919750939560608801955060038701935090915082845b815481526020019060010190808311610747575050505050815260200160058201548152602001600682015481526020016007820154815260200160088201548152602001600982018054806020026020016040519081016040528092919081815260200182805480156107da57602002820191906000526020600020905b8154815260200190600101908083116107c6575b50505050508152505092505050949350505050565b6000816040516020018082805190602001908083835b602083106108245780518252601f199092019160209182019101610805565b51815160209384036101000a60001901801990921691161790526040805192909401828103601f1901835284528151918101919091206000818152600a8a01909252929020549194505060ff161591506108b59050576040517f08c379a00000000000000000000000000000000000000000000000000000000081526004016108ac90612631565b60405180910390fd5b73ffffffffffffffffffffffffffffffffffffffff8416600090815260058401602052604090205460ff161515610918576040517f08c379a00000000000000000000000000000000000000000000000000000000081526004016108ac90612651565b6000818152600a840160209081526040909120805460ff191660019081178255845161094b939290910191850190611891565b506000818152600a84016020818152604080842073ffffffffffffffffffffffffffffffffffffffff909816808552600289018352908420805460ff191660019081179091559282526003909701805480840182559084528184200180547fffffffffffffffffffffffff000000000000000000000000000000000000000016909717909655600d90940180549485018155815293909320909101919091555050565b73ffffffffffffffffffffffffffffffffffffffff8516600090815260058501602052604090205460ff161515610a51576040517f08c379a00000000000000000000000000000000000000000000000000000000081526004016108ac90612651565b6000818152600985016020908152604080832060018101548452600a8801835281842073ffffffffffffffffffffffffffffffffffffffff8a1685526002019092529091205460ff161515610ad2576040517f08c379a00000000000000000000000000000000000000000000000000000000081526004016108ac906125fb565b610ae4868686868686600101546112a7565b5050505050505050565b73ffffffffffffffffffffffffffffffffffffffff8516600090815260058501602052604090205460ff161515610b51576040517f08c379a00000000000000000000000000000000000000000000000000000000081526004016108ac90612651565b6000816040516020018082805190602001908083835b60208310610b865780518252601f199092019160209182019101610b67565b51815160209384036101000a60001901801990921691161790526040805192909401828103601f1901835284528151918101919091206000818152600a8c01909252929020549194505060ff1615159150610be9905057610be9878787856107ef565b610ae4868686866000866112a7565b606082600a0160008381526020019081526020016000206001018054600181600116156101000203166002900480601f0160208091040260200160405190810160405280929190818152602001828054600181600116156101000203166002900480156103295780601f10610c7b57610100808354040283529160200191610329565b820191906000526020600020905b815481529060010190602001808311610c895750939998505050505050505050565b60606000826040516020018082805190602001908083835b60208310610ce25780518252601f199092019160209182019101610cc3565b51815160209384036101000a60001901801990921691161790526040805192909401828103601f1901835284528151918101919091206000818152600a8b01909252929020549194505060ff1615159150610d3e905057600080fd5b6000818152600a8501602090815260409182902060030180548351818402810184019094528084529091830182828015610dae57602002820191906000526020600020905b815473ffffffffffffffffffffffffffffffffffffffff168152600190910190602001808311610d83575b5050505050915050949350505050565b73ffffffffffffffffffffffffffffffffffffffff8416600090815260058401602052604090205460ff161515610e21576040517f08c379a00000000000000000000000000000000000000000000000000000000081526004016108ac90612651565b6000826040516020018082805190602001908083835b60208310610e565780518252601f199092019160209182019101610e37565b51815160209384036101000a60001901801990921691161790526040805192909401828103601f1901835284528151918101919091206000818152600a8b01909252929020549194505060ff1615159150610eb2905057600080fd5b6000818152600a85016020908152604080832073ffffffffffffffffffffffffffffffffffffffff8916845260020190915290205460ff161515610ef557600080fd5b6000818152600a85016020908152604080832073ffffffffffffffffffffffffffffffffffffffff8616845260020190915290205460ff1615610f3757600080fd5b6000818152600a85016020818152604080842073ffffffffffffffffffffffffffffffffffffffff8716808652600282018452828620805460ff1916600190811790915594845260039091018054948501815585529190932090910180547fffffffffffffffffffffffff0000000000000000000000000000000000000000169091179055517f2ea4617fb5fe9d65cbc519fb08be2e9702191108eae5ab26668e3c25cdfbe3a890610fec90859085906125db565b60405180910390a1505050505050565b73ffffffffffffffffffffffffffffffffffffffff8716600090815260058601602052604090205460ff16151561105f576040517f08c379a00000000000000000000000000000000000000000000000000000000081526004016108ac90612651565b6000816040516020018082805190602001908083835b602083106110945780518252601f199092019160209182019101611075565b51815160209384036101000a60001901801990921691161790526040805192909401828103601f1901835284528151918101919091206000818152600a8d01909252929020549194505060ff16151591506110f79050576110f7898988856107ef565b600187015461112190899073ffffffffffffffffffffffffffffffffffffffff16888660006115c6565b60006111318988888888876112a7565b90507fba800f2866757acfb8adacdfd820e21e5c23cd81af77ca1c91311904715d694f84828b604051611166939291906125a2565b60405180910390a150505050505050505050565b73ffffffffffffffffffffffffffffffffffffffff8316600090815260058301602052604090205460ff1615156111dd576040517f08c379a00000000000000000000000000000000000000000000000000000000081526004016108ac90612651565b7faac4ad1c4ac225c4c8af77de36164450e9ad5087c1e0186eda5a20b97659c2e6818460405161120e9291906125db565b60405180910390a150505050565b6000818152600283016020526040902054801515611266576040517f08c379a00000000000000000000000000000000000000000000000000000000081526004016108ac90612611565b600184015461128f90869073ffffffffffffffffffffffffffffffffffffffff168585856115c6565b50600090815260029091016020526040812055505050565b6000818152600a86016020908152604080832073ffffffffffffffffffffffffffffffffffffffff8a16845260020190915281205460ff161515611317576040517f08c379a00000000000000000000000000000000000000000000000000000000081526004016108ac90612641565b600083866040516020018083815260200182600260200280838360005b8381101561134c578181015183820152602001611334565b50505050905001925050506040516020818303038152906040528051906020012090506000866040516020018082600260200280838360005b8381101561139d578181015183820152602001611385565b50505050905001915050604051602081830303815290604052805190602001209050600060010288600b01600083815260200190815260200160002054141515611413576040517f08c379a00000000000000000000000000000000000000000000000000000000081526004016108ac90612621565b6000861161144d576040517f08c379a00000000000000000000000000000000000000000000000000000000081526004016108ac90612661565b6000818152600b89016020908152604080832085905584835260098b01909152902080547fffffffffffffffffffffffff00000000000000000000000000000000000000001673ffffffffffffffffffffffffffffffffffffffff8b161781556001810185905560028082018490556114cb9160030190899061190f565b5060008281526009890160205260408082206005018890558682529020600601546114fc908763ffffffff6117df16565b600083815260098a016020526040808220600681019390935587825281206007908101549185905260019091019082015560080185905584151561155957600e880180546001810182556000918252602090912001829055611581565b60008581526009808a0160209081526040832090910180546001810182559083529120018290555b7f05ab259c5fea8b12015541fc0b0d20b1fd993da95bfee453e7ac3c0781e978cc82886040516115b2929190612587565b60405180910390a150979650505050505050565b600082815260098401602052604090206007810154600f85015460068301548183106116445760008681526009880160205260408120905b838110156116255760089091015460009081526009890160205260409020906001016115fe565b508293506116408160060154836117ee90919063ffffffff16565b9150505b84801515611716575086548190611661908263ffffffff6117df16565b88556040517f23b872dd00000000000000000000000000000000000000000000000000000000815273ffffffffffffffffffffffffffffffffffffffff8a16906323b872dd906116b9908d903090869060040161253d565b602060405180830381600087803b1580156116d357600080fd5b505af11580156116e7573d6000803e3d6000fd5b505050506040513d601f19601f8201168201806040525061170b9190810190611ff2565b151561171657600080fd5b60005b848110156117d257600061174a8461173e89600501548661180090919063ffffffff16565b9063ffffffff61182416565b875473ffffffffffffffffffffffffffffffffffffffff16600090815260018c016020526040902054909150611786908263ffffffff6117df16565b875473ffffffffffffffffffffffffffffffffffffffff1660009081526001808d0160209081526040808420949094556008909a0154825260098d019099522096919091019050611719565b5050505050505050505050565b60008282018381101561039157fe5b6000828211156117fa57fe5b50900390565b600082820283158061181c575082848281151561181957fe5b04145b151561039157fe5b600080828481151561183257fe5b04949350505050565b6040805161014081018252600080825260208201819052918101919091526060810161186561193c565b815260200160008152602001600081526020016000815260200160008019168152602001606081525090565b828054600181600116156101000203166002900490600052602060002090601f016020900481019282601f106118d257805160ff19168380011785556118ff565b828001600101855582156118ff579182015b828111156118ff5782518255916020019190600101906118e4565b5061190b929150611957565b5090565b82600281019282156118ff57916020028201828111156118ff5782518255916020019190600101906118e4565b60408051808201825290600290829080388339509192915050565b61197191905b8082111561190b576000815560010161195d565b90565b60006103918235612705565b6000601f8201831361199157600080fd5b60026119a461199f826126a9565b612682565b915081838560208402820111156119ba57600080fd5b60005b838110156119e657816119d08882611a5d565b84525060209283019291909101906001016119bd565b5050505092915050565b6000601f82018313611a0157600080fd5b6003611a0f61199f826126a9565b91508183856020840282011115611a2557600080fd5b60005b838110156119e65781611a3b8882611a5d565b8452506020928301929190910190600101611a28565b60006103918251612723565b60006103918235611971565b6000601f82018313611a7a57600080fd5b8135611a8861199f826126c7565b91508082526020830160208301858383011115611aa457600080fd5b611aaf838284612728565b50505092915050565b600080600060608486031215611acd57600080fd5b6000611ad98686611974565b9350506020611aea86828701611974565b9250506040611afb86828701611a5d565b9150509250925092565b6000806000806000806000806000806101c08b8d031215611b2557600080fd5b6000611b318d8d611974565b9a50506020611b428d828e01611974565b9950506040611b538d828e01611a5d565b9850506060611b648d828e01611974565b9750506080611b758d828e016119f0565b96505060e0611b868d828e01611980565b955050610120611b988d828e01611980565b945050610160611baa8d828e01611a5d565b935050610180611bbc8d828e01611a5d565b9250506101a08b013567ffffffffffffffff811115611bda57600080fd5b611be68d828e01611a69565b9150509295989b9194979a5092959850565b60008060008060a08587031215611c0e57600080fd5b6000611c1a8787611974565b9450506020611c2b87828801611974565b9350506040611c3c87828801611a5d565b9250506060611c4d87828801611980565b91505092959194509250565b60008060008060008060e08789031215611c7257600080fd5b6000611c7e8989611974565b9650506020611c8f89828a01611974565b9550506040611ca089828a01611a5d565b9450506060611cb189828a01611980565b93505060a0611cc289828a01611a5d565b92505060c0611cd389828a01611a5d565b9150509295509295509295565b60008060008060008060e08789031215611cf957600080fd5b6000611d058989611974565b9650506020611d1689828a01611974565b9550506040611d2789828a01611a5d565b9450506060611d3889828a01611980565b93505060a0611d4989828a01611a5d565b92505060c087013567ffffffffffffffff811115611d6657600080fd5b611cd389828a01611a69565b60008060008060808587031215611d8857600080fd5b6000611d948787611974565b9450506020611da587828801611974565b9350506040611db687828801611a5d565b9250506060611c4d87828801611a5d565b60008060008060808587031215611ddd57600080fd5b6000611de98787611974565b9450506020611dfa87828801611974565b9350506040611e0b87828801611a5d565b925050606085013567ffffffffffffffff811115611e2857600080fd5b611c4d87828801611a69565b600080600080600060a08688031215611e4c57600080fd5b6000611e588888611974565b9550506020611e6988828901611974565b9450506040611e7a88828901611a5d565b935050606086013567ffffffffffffffff811115611e9757600080fd5b611ea388828901611a69565b9250506080611eb488828901611974565b9150509295509295909350565b600080600080600080600080610120898b031215611ede57600080fd5b6000611eea8b8b611974565b9850506020611efb8b828c01611974565b9750506040611f0c8b828c01611a5d565b9650506060611f1d8b828c01611a5d565b9550506080611f2e8b828c01611980565b94505060c0611f3f8b828c01611a5d565b93505060e0611f508b828c01611a5d565b92505061010089013567ffffffffffffffff811115611f6e57600080fd5b611f7a8b828c01611a69565b9150509295985092959890939650565b600080600080600060a08688031215611fa257600080fd5b6000611fae8888611974565b9550506020611fbf88828901611974565b9450506040611fd088828901611a5d565b9350506060611fe188828901611a5d565b9250506080611eb488828901611a5d565b60006020828403121561200457600080fd5b60006103318484611a51565b61201981612705565b82525050565b600061202a826126f5565b80845260208401935061203c836126ef565b60005b8281101561206c57612052868351612010565b61205b826126ef565b60209690960195915060010161203f565b5093949350505050565b61207f816126f9565b61208882611971565b60005b828110156120b85761209e85835161221f565b6120a7826126ef565b60209590950194915060010161208b565b5050505050565b6120c8816126f9565b6120d182611971565b60005b828110156120b8576120e785835161221f565b6120f0826126ef565b6020959095019491506001016120d4565b61210a816126f9565b61211382611971565b60005b828110156120b85761212985835161221f565b612132826126ef565b602095909501949150600101612116565b61214c816126ff565b61215582611971565b60005b828110156120b85761216b85835161221f565b612174826126ef565b602095909501949150600101612158565b6000612190826126f5565b8084526020840193506121a2836126ef565b60005b8281101561206c576121b886835161221f565b6121c1826126ef565b6020969096019591506001016121a5565b60006121dd826126f5565b8084526020840193506121ef836126ef565b60005b8281101561206c5761220586835161221f565b61220e826126ef565b6020969096019591506001016121f2565b61201981611971565b6000612233826126f5565b808452612247816020860160208601612734565b61225081612764565b9093016020019392505050565b602e81527f4d75737420626520696e2074686520706172656e7420636f6d6d69742773206760208201527f726f757020746f20636f6d6d6974000000000000000000000000000000000000604082015260600190565b601781527f4e6f2072657761726420746f2064697374726962757465000000000000000000602082015260400190565b603481527f4120636f6d6d69742068617320616c7265616479206265656e2063726561746560208201527f64207573696e67207468697320636f6e74656e74000000000000000000000000604082015260600190565b601481527f47726f757020616c726561647920657869737473000000000000000000000000602082015260400190565b601b81527f4d75737420626520612070617274206f66207468652067726f75700000000000602082015260400190565b601881527f4d757374206861766520656e7465726564204d61747279780000000000000000602082015260400190565b602281527f43616e6e6f74206372656174652061207a65726f2d76616c756520636f6d6d6960208201527f742e000000000000000000000000000000000000000000000000000000000000604082015260600190565b80516000906101408401906124348582612010565b506020830151612447602086018261221f565b50604083015161245a604086018261221f565b50606083015161246d6060860182612101565b50608083015161248060a086018261221f565b5060a083015161249360c086018261221f565b5060c08301516124a660e086018261221f565b5060e08301516124ba61010086018261221f565b506101008301518482036101208601526124d482826121d2565b95945050505050565b9052565b61012081016124f08289612010565b6124fd6020830188612010565b61250a60408301876124dd565b6125176060830186612143565b61252460c08301856120bf565b61253261010083018461221f565b979650505050505050565b6060810161254b8286612010565b6125586020830185612010565b610331604083018461221f565b60208082528101610391818461201f565b602080825281016103918184612185565b60608101612595828561221f565b6103916020830184612076565b606081016125b0828661221f565b6125bd602083018561221f565b6103316040830184612010565b602080825281016103918184612228565b604080825281016125ec8185612228565b90506103916020830184612010565b6020808252810161260b8161225d565b92915050565b6020808252810161260b816122b3565b6020808252810161260b816122e3565b6020808252810161260b81612339565b6020808252810161260b81612369565b6020808252810161260b81612399565b6020808252810161260b816123c9565b60208082528101610391818461241f565b60405181810167ffffffffffffffff811182821017156126a157600080fd5b604052919050565b600067ffffffffffffffff8211156126c057600080fd5b5060200290565b600067ffffffffffffffff8211156126de57600080fd5b506020601f91909101601f19160190565b60200190565b5190565b50600290565b50600390565b600073ffffffffffffffffffffffffffffffffffffffff821661260b565b151590565b82818337506000910152565b60005b8381101561274f578181015183820152602001612737565b8381111561275e576000848401525b50505050565b601f01601f19169056fea265627a7a72305820d3086252de1ee594e4461d39511517d0273d1428cae65a5cb8759c79cf255fe26c6578706572696d656e74616cf50037",
  "source": "pragma solidity ^0.5.0;\npragma experimental ABIEncoderV2;\n\nimport \"./SafeMath.sol\";\nimport \"./MatryxPlatform.sol\";\nimport \"./MatryxForwarder.sol\";\nimport \"./MatryxTournament.sol\";\n\ncontract MatryxCommit is MatryxForwarder {\n    constructor (uint256 _version, address _system) MatryxForwarder(_version, _system) public {}\n}\n\ninterface IMatryxCommit {\n    function getCommit(bytes32 commitHash) external view returns (LibCommit.Commit memory commit);\n    function getCommitByContentHash(bytes32[2] calldata contentHash) external view returns (LibCommit.Commit memory commit);\n    function getInitialCommits() external view returns (bytes32[] memory);\n    function getAllGroups() external view returns (bytes32[] memory);\n    function getGroupName(bytes32 groupHash) external view returns (string memory);\n    function getGroupMembers(string calldata group) external view returns (address[] memory);\n    function getRoundsSubmittedTo(bytes32 commitHash) external view returns (address[] memory);\n\n    function createGroup(string calldata group) external returns (address);\n    function requestToJoinGroup(string calldata group) external;\n    function addGroupMember(string calldata group, address newUser) external;\n    function initialCommit(bytes32[2] calldata contentHash, uint256 value, string calldata group) external;\n    function commit(bytes32[2] calldata contentHash, uint256 value, bytes32 parentHash) external;\n    function fork(bytes32[2] calldata contentHash, uint256 value, bytes32 parentHash, string calldata group) external;\n    function submitToTournament(address tAddress, bytes32[3] calldata title, bytes32[2] calldata descHash, bytes32[2] calldata contentHash, uint256 value, bytes32 parentHash, string calldata group) external;\n    function distributeReward(bytes32 commitHash) external;\n}\n\nlibrary LibCommit {\n    using SafeMath for uint256;\n\n    event JoinGroupRequest(string group, address user);                         // Fired when someone requests to join a group\n    event NewGroupMember(string group, address user);                           // Fired when someone is added to a group\n    event Committed(bytes32 commitHash, bytes32[2] contentHash);                // Fired when a new commit is created\n    event Fork(bytes32 parentHash, bytes32 commitHash, address creator);        // Fired when a commit is forked off of parentHash\n\n    struct Commit {\n        address owner;\n        bytes32 groupHash;\n        bytes32 commitHash;\n        bytes32[2] contentHash;\n        uint256 value;\n        uint256 totalValue;\n        uint256 height;\n        bytes32 parentHash;\n        bytes32[] children;\n    }\n\n    struct Group {\n        bool exists;\n        string name;\n        mapping(address=>bool) hasMember;\n        address[] members;\n    }\n\n    /// @dev Returns commit data for the given hash\n    /// @param self        MatryxCommit address\n    /// @param sender      msg.sender to the Platform\n    /// @param data        Platform data struct\n    /// @param commitHash  Hash of the commit to return\n    function getCommit(address self, address sender, MatryxPlatform.Data storage data, bytes32 commitHash) public view returns (Commit memory commit) {\n        return data.commits[commitHash];\n    }\n\n    /// @dev Returns commit data for the given content hash\n    /// @param self         MatryxCommit address\n    /// @param sender       msg.sender to the Platform\n    /// @param data         Platform data struct\n    /// @param contentHash  Content hash commit was created from\n    function getCommitByContentHash(address self, address sender, MatryxPlatform.Data storage data, bytes32[2] memory contentHash) public view returns (Commit memory commit) {\n        bytes32 lookupHash = keccak256(abi.encodePacked(contentHash));\n        bytes32 commitHash = data.commitHashes[lookupHash];\n        return data.commits[commitHash];\n    }\n\n    /// @dev Returns all initial commits\n    /// @param self    MatryxCommit address\n    /// @param sender  msg.sender to the Platform\n    /// @param data    Platform data struct\n    function getInitialCommits(address self, address sender, MatryxPlatform.Data storage data) public view returns (bytes32[] memory) {\n        return data.initialCommits;\n    }\n\n    /// @dev Returns all group hashes\n    /// @param self    MatryxCommit address\n    /// @param sender  msg.sender to the Platform\n    /// @param data    Platform data struct\n    function getAllGroups(address self, address sender, MatryxPlatform.Data storage data) public view returns (bytes32[] memory) {\n        return data.allGroups;\n    }\n\n    /// @dev Returns group name for given hash\n    /// @param self       MatryxCommit address\n    /// @param sender     msg.sender to the Platform\n    /// @param data       Platform data struct\n    /// @param groupHash  Hash of group name\n    function getGroupName(address self, address sender, MatryxPlatform.Data storage data, bytes32 groupHash) public view returns (string memory) {\n        return data.groups[groupHash].name;\n    }\n\n    /// @dev Returns all group members\n    /// @param self    MatryxCommit address\n    /// @param sender  msg.sender to the Platform\n    /// @param data    Platform data struct\n    /// @param group   Group name\n    function getGroupMembers(address self, address sender, MatryxPlatform.Data storage data, string memory group) public view returns (address[] memory) {\n        bytes32 groupHash = keccak256(abi.encodePacked(group));\n        require(data.groups[groupHash].exists);\n        return data.groups[groupHash].members;\n    }\n\n    /// @dev Returns Round addresses the commit has been submitted to\n    /// @param self        MatryxCommit address\n    /// @param sender      msg.sender to the Platform\n    /// @param data        Platform data struct\n    /// @param commitHash  Hash of the commit to return the rounds of\n    function getRoundsSubmittedTo(address self, address sender, MatryxPlatform.Data storage data, bytes32 commitHash) public view returns (address[] memory) {\n        return data.commitToRounds[commitHash];\n    }\n\n    /// @dev Creates a new group\n    /// @param self    MatryxCommit address\n    /// @param sender  msg.sender to the Platform\n    /// @param data    Platform data struct\n    /// @param group   Name of the group to create\n    function createGroup(address self, address sender, MatryxPlatform.Data storage data, string memory group) public {\n        bytes32 groupHash = keccak256(abi.encodePacked(group));\n        require(!data.groups[groupHash].exists, \"Group already exists\");\n        require(data.users[sender].exists, \"Must have entered Matryx\");\n\n        data.groups[groupHash].exists = true;\n        data.groups[groupHash].name = group;\n        data.groups[groupHash].hasMember[sender] = true;\n        data.groups[groupHash].members.push(sender);\n        data.allGroups.push(groupHash);\n    }\n\n    /// @dev Request to join a group\n    /// @param self    MatryxCommit address\n    /// @param sender  msg.sender to the Platform\n    /// @param data    Platform data struct\n    /// @param group   Name of the group to request access to\n    function requestToJoinGroup(address self, address sender, MatryxPlatform.Data storage data, string memory group) public {\n        require(data.users[sender].exists, \"Must have entered Matryx\");\n        emit JoinGroupRequest(group, sender);\n    }\n\n    /// @dev Adds a user to a group\n    /// @param self    MatryxCommit address\n    /// @param sender  msg.sender to the Platform\n    /// @param data    Platform data struct\n    /// @param group   Name of the group\n    /// @param member  Member to add to the group\n    function addGroupMember(address self, address sender, MatryxPlatform.Data storage data, string memory group, address member) public {\n        require(data.users[sender].exists, \"Must have entered Matryx\");\n        bytes32 groupHash = keccak256(abi.encodePacked(group));\n        require(data.groups[groupHash].exists);\n        require(data.groups[groupHash].hasMember[sender]);\n        require(!data.groups[groupHash].hasMember[member]);\n\n        data.groups[groupHash].hasMember[member] = true;\n        data.groups[groupHash].members.push(member);\n\n        emit NewGroupMember(group, member);\n    }\n\n    /// @dev Creates a new root commit\n    /// @param self         MatryxCommit address\n    /// @param sender       msg.sender to the Platform\n    /// @param data         Platform data struct\n    /// @param contentHash  Hash of the commits content\n    /// @param value        Author-determined value of the commit\n    /// @param group        Name of the group working on this branch\n    function initialCommit(address self, address sender, MatryxPlatform.Data storage data, bytes32[2] memory contentHash, uint256 value, string memory group) public {\n        require(data.users[sender].exists, \"Must have entered Matryx\");\n\n        bytes32 groupHash = keccak256(abi.encodePacked(group));\n        if (!data.groups[groupHash].exists) {\n            createGroup(self, sender, data, group);\n        }\n\n        // Create the commit!\n        createCommit(sender, data, contentHash, value, bytes32(0), groupHash);\n    }\n\n    /// @dev Creates a new commit off of a parent\n    /// @param self         MatryxCommit address\n    /// @param sender       msg.sender to the Platform\n    /// @param data         Platform data struct\n    /// @param contentHash  Hash of the commits content\n    /// @param value        Author-determined value of the commit\n    /// @param parentHash   Parent commit hash\n    function commit(address self, address sender, MatryxPlatform.Data storage data, bytes32[2] memory contentHash, uint256 value, bytes32 parentHash) public {\n        require(data.users[sender].exists, \"Must have entered Matryx\");\n        Commit storage parent = data.commits[parentHash];\n        require(data.groups[parent.groupHash].hasMember[sender], \"Must be in the parent commit's group to commit\");\n\n        // Create the commit!\n        createCommit(sender, data, contentHash, value, parentHash, parent.groupHash);\n    }\n\n    /// @dev Forks off of an existing commit and creates a new commit, sends MTX to all previous commit owners\n    /// @param self         MatryxCommit address\n    /// @param sender       msg.sender to the Platform\n    /// @param info         Platform info struct\n    /// @param data         Platform data struct\n    /// @param contentHash  Hash of the commits content\n    /// @param value        Author-determined value of the commit\n    /// @param parentHash   Parent commit hash\n    /// @param group        Name of the group working on this branch\n    function fork(address self, address sender, MatryxPlatform.Info storage info, MatryxPlatform.Data storage data, bytes32[2] memory contentHash, uint256 value, bytes32 parentHash, string memory group) public {\n        require(data.users[sender].exists, \"Must have entered Matryx\");\n\n        bytes32 groupHash = keccak256(abi.encodePacked(group));\n        if (!data.groups[groupHash].exists) {\n            createGroup(self, sender, data, group);\n        }\n\n        // Buy the subtree of the forked commit and distribute to ancestors\n        distributeFunds(sender, info.token, data, parentHash, 0);\n\n        // Create the commit!\n        bytes32 commitHash = createCommit(sender, data, contentHash, value, parentHash, groupHash);\n\n        emit Fork(parentHash, commitHash, sender);\n    }\n\n    /// @dev Creates a commit and submits it to a Tournament\n    /// @param self         MatryxCommit address\n    /// @param sender       msg.sender to the Platform\n    /// @param data         Platform data struct\n    /// @param tAddress     Tournament address to submit to\n    /// @param title        Submission title\n    /// @param descHash     Submission description IPFS hash\n    /// @param contentHash  Commit content IPFS hash\n    /// @param value        Author-determined commit value\n    /// @param parentHash   Parent commit hash\n    /// @param group        Group name for the commit\n    function submitToTournament(address self, address sender, MatryxPlatform.Data storage data, address tAddress, bytes32[3] memory title, bytes32[2] memory descHash, bytes32[2] memory contentHash, uint256 value, bytes32 parentHash, string memory group) public {\n        bytes32 groupHash = keccak256(abi.encodePacked(group));\n\n        if (parentHash != bytes32(0)) {\n            require(data.commits[parentHash].groupHash == groupHash);\n        }\n\n        if (!data.groups[groupHash].exists) {\n            createGroup(self, sender, data, group);\n        }\n\n        bytes32 commitHash = createCommit(sender, data, contentHash, value, parentHash, groupHash);\n        LibTournament.createSubmission(tAddress, sender, data, title, descHash, commitHash);\n    }\n\n    /// @dev Initializes a new commit\n    /// @param owner        Owner of the commit\n    /// @param data         Platform data struct\n    /// @param contentHash  Commit content IPFS hash\n    /// @param value        Author-determined commit value\n    /// @param parentHash   Parent commit hash\n    /// @param groupHash    Group name hash\n    function createCommit(address owner, MatryxPlatform.Data storage data, bytes32[2] memory contentHash, uint256 value, bytes32 parentHash, bytes32 groupHash) internal returns (bytes32) {\n        require(data.groups[groupHash].hasMember[owner], \"Must be a part of the group\");\n\n        bytes32 commitHash = keccak256(abi.encodePacked(parentHash, contentHash));\n        bytes32 lookupHash = keccak256(abi.encodePacked(contentHash));\n\n        require(data.commitHashes[lookupHash] == bytes32(0), \"A commit has already been created using this content\");\n        require(value > 0, \"Cannot create a zero-value commit.\");\n        data.commitHashes[lookupHash] = commitHash;\n\n        data.commits[commitHash].owner = owner;\n        data.commits[commitHash].groupHash = groupHash;\n        data.commits[commitHash].commitHash = commitHash;\n        data.commits[commitHash].contentHash = contentHash;\n        data.commits[commitHash].value = value;\n        data.commits[commitHash].totalValue = data.commits[parentHash].totalValue.add(value);\n        data.commits[commitHash].height = data.commits[parentHash].height + 1;\n        data.commits[commitHash].parentHash = parentHash;\n\n        if (parentHash == bytes32(0)) {\n            data.initialCommits.push(commitHash);\n        } else {\n            data.commits[parentHash].children.push(commitHash);\n        }\n\n        emit Committed(commitHash, contentHash);\n        return commitHash;\n    }\n\n    /// @dev Distributes any pending MTX to all commit owners in the chain\n    /// @param self        MatryxCommit address\n    /// @param sender      msg.sender to the Platform\n    /// @param info        Platform info struct\n    /// @param data        Platform data struct\n    /// @param commitHash  Commit hash to begin distributing funds back from\n    function distributeReward(address self, address sender, MatryxPlatform.Info storage info, MatryxPlatform.Data storage data, bytes32 commitHash) public {\n        uint256 reward = data.commitBalance[commitHash];\n        require(reward != 0, \"No reward to distribute\");\n\n        distributeFunds(sender, info.token, data, commitHash, reward);\n        data.commitBalance[commitHash] = 0;\n    }\n\n    /// @dev Distributes MTX (up to maxDepth) to all commit owners in the chain\n    /// @param sender        Address to withdraw funds from if fork\n    /// @param token         Token address\n    /// @param data          Platform data struct\n    /// @param commitHash    Commit hash to begin distributing funds back from\n    /// @param bounty        Tournament bounty; 0 if fork\n    function distributeFunds(address sender, address token, MatryxPlatform.Data storage data, bytes32 commitHash, uint256 bounty) internal {\n        Commit storage theCommit = data.commits[commitHash];\n\n        uint256 depth = theCommit.height;\n        uint256 maxDepth = data.commitDistributionDepth;\n        uint256 totalValue = theCommit.totalValue;\n\n        // if commit chain longer than maxDepth, only pay last maxDepth\n        if (depth >= maxDepth) {\n            Commit storage tempCommit = data.commits[commitHash];\n            \n            for (uint256 i = 0; i < maxDepth; i++) { // at least 200k gas\n                tempCommit = data.commits[tempCommit.parentHash];\n            }\n            depth = maxDepth;\n            totalValue = totalValue.sub(tempCommit.totalValue);\n        }\n\n        // funds is totalValue if fork, otherwise provided bounty amount\n        uint256 funds = bounty;\n\n        if (bounty == 0) { // if fork\n            funds = totalValue;\n            data.totalBalance = data.totalBalance.add(funds);\n            require(IToken(token).transferFrom(sender, address(this), funds));\n        }\n\n        for (uint256 i = 0; i < depth; i++) {\n            uint256 amount = funds.mul(theCommit.value).div(totalValue);\n            data.balanceOf[theCommit.owner] = data.balanceOf[theCommit.owner].add(amount);\n            theCommit = data.commits[theCommit.parentHash];\n        }\n    }\n}\n",
  "sourcePath": "/Users/maxhoward/Desktop/Ethereum/MatryxPlatform/contracts/MatryxCommit.sol",
  "compiler": {
    "name": "solc",
    "version": "0.5.0+commit.1d4f565a.Emscripten.clang"
  },
  "schemaVersion": "3.0.1",
  "updatedAt": "2019-02-02T23:20:23.576Z",
  "devdoc": {
    "methods": {
      "addGroupMember(address,address,MatryxPlatform.Data storage,string,address)": {
        "details": "Adds a user to a group",
        "params": {
          "data": "Platform data struct",
          "group": "Name of the group",
          "member": "Member to add to the group",
          "self": "MatryxCommit address",
          "sender": "msg.sender to the Platform"
        }
      },
      "commit(address,address,MatryxPlatform.Data storage,bytes32[2],uint256,bytes32)": {
        "details": "Creates a new commit off of a parent",
        "params": {
          "contentHash": "Hash of the commits content",
          "data": "Platform data struct",
          "parentHash": "Parent commit hash",
          "self": "MatryxCommit address",
          "sender": "msg.sender to the Platform",
          "value": "Author-determined value of the commit"
        }
      },
      "createGroup(address,address,MatryxPlatform.Data storage,string)": {
        "details": "Creates a new group",
        "params": {
          "data": "Platform data struct",
          "group": "Name of the group to create",
          "self": "MatryxCommit address",
          "sender": "msg.sender to the Platform"
        }
      },
      "distributeReward(address,address,MatryxPlatform.Info storage,MatryxPlatform.Data storage,bytes32)": {
        "details": "Distributes any pending MTX to all commit owners in the chain",
        "params": {
          "commitHash": "Commit hash to begin distributing funds back from",
          "data": "Platform data struct",
          "info": "Platform info struct",
          "self": "MatryxCommit address",
          "sender": "msg.sender to the Platform"
        }
      },
      "fork(address,address,MatryxPlatform.Info storage,MatryxPlatform.Data storage,bytes32[2],uint256,bytes32,string)": {
        "details": "Forks off of an existing commit and creates a new commit, sends MTX to all previous commit owners",
        "params": {
          "contentHash": "Hash of the commits content",
          "data": "Platform data struct",
          "group": "Name of the group working on this branch",
          "info": "Platform info struct",
          "parentHash": "Parent commit hash",
          "self": "MatryxCommit address",
          "sender": "msg.sender to the Platform",
          "value": "Author-determined value of the commit"
        }
      },
      "getAllGroups(address,address,MatryxPlatform.Data storage)": {
        "details": "Returns all group hashes",
        "params": {
          "data": "Platform data struct",
          "self": "MatryxCommit address",
          "sender": "msg.sender to the Platform"
        }
      },
      "getCommit(address,address,MatryxPlatform.Data storage,bytes32)": {
        "details": "Returns commit data for the given hash",
        "params": {
          "commitHash": "Hash of the commit to return",
          "data": "Platform data struct",
          "self": "MatryxCommit address",
          "sender": "msg.sender to the Platform"
        }
      },
      "getCommitByContentHash(address,address,MatryxPlatform.Data storage,bytes32[2])": {
        "details": "Returns commit data for the given content hash",
        "params": {
          "contentHash": "Content hash commit was created from",
          "data": "Platform data struct",
          "self": "MatryxCommit address",
          "sender": "msg.sender to the Platform"
        }
      },
      "getGroupMembers(address,address,MatryxPlatform.Data storage,string)": {
        "details": "Returns all group members",
        "params": {
          "data": "Platform data struct",
          "group": "Group name",
          "self": "MatryxCommit address",
          "sender": "msg.sender to the Platform"
        }
      },
      "getGroupName(address,address,MatryxPlatform.Data storage,bytes32)": {
        "details": "Returns group name for given hash",
        "params": {
          "data": "Platform data struct",
          "groupHash": "Hash of group name",
          "self": "MatryxCommit address",
          "sender": "msg.sender to the Platform"
        }
      },
      "getInitialCommits(address,address,MatryxPlatform.Data storage)": {
        "details": "Returns all initial commits",
        "params": {
          "data": "Platform data struct",
          "self": "MatryxCommit address",
          "sender": "msg.sender to the Platform"
        }
      },
      "getRoundsSubmittedTo(address,address,MatryxPlatform.Data storage,bytes32)": {
        "details": "Returns Round addresses the commit has been submitted to",
        "params": {
          "commitHash": "Hash of the commit to return the rounds of",
          "data": "Platform data struct",
          "self": "MatryxCommit address",
          "sender": "msg.sender to the Platform"
        }
      },
      "initialCommit(address,address,MatryxPlatform.Data storage,bytes32[2],uint256,string)": {
        "details": "Creates a new root commit",
        "params": {
          "contentHash": "Hash of the commits content",
          "data": "Platform data struct",
          "group": "Name of the group working on this branch",
          "self": "MatryxCommit address",
          "sender": "msg.sender to the Platform",
          "value": "Author-determined value of the commit"
        }
      },
      "requestToJoinGroup(address,address,MatryxPlatform.Data storage,string)": {
        "details": "Request to join a group",
        "params": {
          "data": "Platform data struct",
          "group": "Name of the group to request access to",
          "self": "MatryxCommit address",
          "sender": "msg.sender to the Platform"
        }
      },
      "submitToTournament(address,address,MatryxPlatform.Data storage,address,bytes32[3],bytes32[2],bytes32[2],uint256,bytes32,string)": {
        "details": "Creates a commit and submits it to a Tournament",
        "params": {
          "contentHash": "Commit content IPFS hash",
          "data": "Platform data struct",
          "descHash": "Submission description IPFS hash",
          "group": "Group name for the commit",
          "parentHash": "Parent commit hash",
          "self": "MatryxCommit address",
          "sender": "msg.sender to the Platform",
          "tAddress": "Tournament address to submit to",
          "title": "Submission title",
          "value": "Author-determined commit value"
        }
      }
    }
  },
  "userdoc": {
    "methods": {}
  }
}