{
  "contractName": "LibCommit2",
  "abi": [
    {
      "constant": true,
      "inputs": [
        {
          "name": "self",
          "type": "address"
        },
        {
          "name": "",
          "type": "address"
        },
        {
          "name": "",
          "type": "MatryxPlatform.Data storage"
        },
        {
          "name": "commitHash",
          "type": "bytes32"
        },
        {
          "name": "user",
          "type": "address"
        }
      ],
      "name": "getAvailableRewardForUser",
      "outputs": [
        {
          "name": "",
          "type": "uint256"
        }
      ],
      "payable": false,
      "stateMutability": "pure",
      "type": "function"
    }
  ],
  "bytecode": "0x6101a8610030600b82828239805160001a6073146000811461002057610022565bfe5b5030600052607381538281f3fe73000000000000000000000000000000000000000030146080604052600436106100575763ffffffff7c01000000000000000000000000000000000000000000000000000000006000350416634f4abca8811461005c575b600080fd5b61006f61006a3660046100af565b610085565b60405161007c9190610133565b60405180910390f35b602a95945050505050565b600061009c8235610163565b9392505050565b600061009c8235610160565b600080600080600060a086880312156100c757600080fd5b60006100d38888610090565b95505060206100e488828901610090565b94505060406100f5888289016100a3565b9350506060610106888289016100a3565b925050608061011788828901610090565b9150509295509295909350565b61012d81610160565b82525050565b602081016101418284610124565b92915050565b73ffffffffffffffffffffffffffffffffffffffff1690565b90565b60006101418261014756fea265627a7a7230582003a74250d3cb4adfb71835656608ddd6ec02b843f11cf7ebb99e286fd34d86b66c6578706572696d656e74616cf50037",
  "source": "pragma solidity ^0.5.0;\npragma experimental ABIEncoderV2;\n\nimport \"../MatryxPlatform.sol\";\n\ninterface ICommit2 {\n    function getAvailableRewardForUser(bytes32, address) external pure returns (uint256);\n}\n\nlibrary LibCommit2 {\n    function getAvailableRewardForUser(address self, address, MatryxPlatform.Data storage, bytes32 commitHash, address user) public pure returns (uint256) {\n        return 42;\n    }\n}\n",
  "sourcePath": "/Users/maxhoward/Desktop/Ethereum/MatryxPlatform/contracts/test-contracts/LibCommit2.sol",
  "compiler": {
    "name": "solc",
    "version": "0.5.0+commit.1d4f565a.Emscripten.clang"
  },
  "schemaVersion": "3.0.2",
  "updatedAt": "2019-03-15T16:49:03.059Z",
  "devdoc": {
    "methods": {}
  },
  "userdoc": {
    "methods": {}
  }
}