{
  "contractName": "LibCommit",
  "abi": [
    {
      "anonymous": false,
      "inputs": [
        {
          "indexed": false,
          "name": "commitHash",
          "type": "bytes32"
        },
        {
          "indexed": false,
          "name": "user",
          "type": "address"
        }
      ],
      "name": "GroupMemberAdded",
      "type": "event",
      "signature": "0x9a35df3f1a00bfe3649cd7585eecae921996eaa0fef4ec8b7e8bc1fdc8c82989"
    },
    {
      "anonymous": false,
      "inputs": [
        {
          "indexed": false,
          "name": "commitHash",
          "type": "bytes32"
        }
      ],
      "name": "CommitClaimed",
      "type": "event",
      "signature": "0x61a032e9561c89139233f9a7c5e2c0def149d676886259ddc011b01c9618267d"
    },
    {
      "anonymous": false,
      "inputs": [
        {
          "indexed": false,
          "name": "parentHash",
          "type": "bytes32"
        },
        {
          "indexed": false,
          "name": "commitHash",
          "type": "bytes32"
        },
        {
          "indexed": false,
          "name": "creator",
          "type": "address"
        },
        {
          "indexed": false,
          "name": "isFork",
          "type": "bool"
        }
      ],
      "name": "CommitCreated",
      "type": "event",
      "signature": "0xd6d29b3450ab42521894d8a5ad0ef380ee5bc6b87334a811025a1813b7f73b53"
    },
    {
      "constant": true,
      "inputs": [
        {
          "name": "",
          "type": "address"
        },
        {
          "name": "",
          "type": "address"
        },
        {
          "name": "data",
          "type": "MatryxPlatform.Data storage"
        },
        {
          "name": "commitHash",
          "type": "bytes32"
        }
      ],
      "name": "getCommit",
      "outputs": [
        {
          "components": [
            {
              "name": "owner",
              "type": "address"
            },
            {
              "name": "timestamp",
              "type": "uint256"
            },
            {
              "name": "groupHash",
              "type": "bytes32"
            },
            {
              "name": "commitHash",
              "type": "bytes32"
            },
            {
              "name": "content",
              "type": "string"
            },
            {
              "name": "value",
              "type": "uint256"
            },
            {
              "name": "ownerTotalValue",
              "type": "uint256"
            },
            {
              "name": "totalValue",
              "type": "uint256"
            },
            {
              "name": "height",
              "type": "uint256"
            },
            {
              "name": "parentHash",
              "type": "bytes32"
            },
            {
              "name": "children",
              "type": "bytes32[]"
            }
          ],
          "name": "commit",
          "type": "tuple"
        }
      ],
      "payable": false,
      "stateMutability": "view",
      "type": "function",
      "signature": "0x2d548a40"
    },
    {
      "constant": true,
      "inputs": [
        {
          "name": "",
          "type": "address"
        },
        {
          "name": "",
          "type": "address"
        },
        {
          "name": "data",
          "type": "MatryxPlatform.Data storage"
        },
        {
          "name": "commitHash",
          "type": "bytes32"
        }
      ],
      "name": "getBalance",
      "outputs": [
        {
          "name": "",
          "type": "uint256"
        }
      ],
      "payable": false,
      "stateMutability": "view",
      "type": "function",
      "signature": "0xcbfd9f70"
    },
    {
      "constant": true,
      "inputs": [
        {
          "name": "",
          "type": "address"
        },
        {
          "name": "",
          "type": "address"
        },
        {
          "name": "data",
          "type": "MatryxPlatform.Data storage"
        },
        {
          "name": "content",
          "type": "string"
        }
      ],
      "name": "getCommitByContent",
      "outputs": [
        {
          "components": [
            {
              "name": "owner",
              "type": "address"
            },
            {
              "name": "timestamp",
              "type": "uint256"
            },
            {
              "name": "groupHash",
              "type": "bytes32"
            },
            {
              "name": "commitHash",
              "type": "bytes32"
            },
            {
              "name": "content",
              "type": "string"
            },
            {
              "name": "value",
              "type": "uint256"
            },
            {
              "name": "ownerTotalValue",
              "type": "uint256"
            },
            {
              "name": "totalValue",
              "type": "uint256"
            },
            {
              "name": "height",
              "type": "uint256"
            },
            {
              "name": "parentHash",
              "type": "bytes32"
            },
            {
              "name": "children",
              "type": "bytes32[]"
            }
          ],
          "name": "commit",
          "type": "tuple"
        }
      ],
      "payable": false,
      "stateMutability": "view",
      "type": "function",
      "signature": "0x1c7997d7"
    },
    {
      "constant": true,
      "inputs": [
        {
          "name": "",
          "type": "address"
        },
        {
          "name": "",
          "type": "address"
        },
        {
          "name": "data",
          "type": "MatryxPlatform.Data storage"
        }
      ],
      "name": "getInitialCommits",
      "outputs": [
        {
          "name": "",
          "type": "bytes32[]"
        }
      ],
      "payable": false,
      "stateMutability": "view",
      "type": "function",
      "signature": "0x178a1915"
    },
    {
      "constant": true,
      "inputs": [
        {
          "name": "",
          "type": "address"
        },
        {
          "name": "",
          "type": "address"
        },
        {
          "name": "data",
          "type": "MatryxPlatform.Data storage"
        },
        {
          "name": "commitHash",
          "type": "bytes32"
        }
      ],
      "name": "getGroupMembers",
      "outputs": [
        {
          "name": "",
          "type": "address[]"
        }
      ],
      "payable": false,
      "stateMutability": "view",
      "type": "function",
      "signature": "0x2e44a1db"
    },
    {
      "constant": true,
      "inputs": [
        {
          "name": "",
          "type": "address"
        },
        {
          "name": "",
          "type": "address"
        },
        {
          "name": "data",
          "type": "MatryxPlatform.Data storage"
        },
        {
          "name": "commitHash",
          "type": "bytes32"
        }
      ],
      "name": "getSubmissionsForCommit",
      "outputs": [
        {
          "name": "",
          "type": "bytes32[]"
        }
      ],
      "payable": false,
      "stateMutability": "view",
      "type": "function",
      "signature": "0xa0c41de2"
    },
    {
      "constant": false,
      "inputs": [
        {
          "name": "",
          "type": "address"
        },
        {
          "name": "sender",
          "type": "address"
        },
        {
          "name": "info",
          "type": "MatryxPlatform.Info storage"
        },
        {
          "name": "data",
          "type": "MatryxPlatform.Data storage"
        },
        {
          "name": "commitHash",
          "type": "bytes32"
        },
        {
          "name": "user",
          "type": "address"
        }
      ],
      "name": "addGroupMember",
      "outputs": [],
      "payable": false,
      "stateMutability": "nonpayable",
      "type": "function",
      "signature": "0x19b0cda0"
    },
    {
      "constant": false,
      "inputs": [
        {
          "name": "",
          "type": "address"
        },
        {
          "name": "sender",
          "type": "address"
        },
        {
          "name": "info",
          "type": "MatryxPlatform.Info storage"
        },
        {
          "name": "data",
          "type": "MatryxPlatform.Data storage"
        },
        {
          "name": "commitHash",
          "type": "bytes32"
        },
        {
          "name": "users",
          "type": "address[]"
        }
      ],
      "name": "addGroupMembers",
      "outputs": [],
      "payable": false,
      "stateMutability": "nonpayable",
      "type": "function",
      "signature": "0x4a1482dc"
    },
    {
      "constant": false,
      "inputs": [
        {
          "name": "",
          "type": "address"
        },
        {
          "name": "sender",
          "type": "address"
        },
        {
          "name": "info",
          "type": "MatryxPlatform.Info storage"
        },
        {
          "name": "data",
          "type": "MatryxPlatform.Data storage"
        },
        {
          "name": "commitHash",
          "type": "bytes32"
        }
      ],
      "name": "claimCommit",
      "outputs": [],
      "payable": false,
      "stateMutability": "nonpayable",
      "type": "function",
      "signature": "0x9f596981"
    },
    {
      "constant": false,
      "inputs": [
        {
          "name": "",
          "type": "address"
        },
        {
          "name": "sender",
          "type": "address"
        },
        {
          "name": "info",
          "type": "MatryxPlatform.Info storage"
        },
        {
          "name": "data",
          "type": "MatryxPlatform.Data storage"
        },
        {
          "name": "parentHash",
          "type": "bytes32"
        },
        {
          "name": "isFork",
          "type": "bool"
        },
        {
          "name": "salt",
          "type": "bytes32"
        },
        {
          "name": "content",
          "type": "string"
        },
        {
          "name": "value",
          "type": "uint256"
        }
      ],
      "name": "createCommit",
      "outputs": [],
      "payable": false,
      "stateMutability": "nonpayable",
      "type": "function",
      "signature": "0x0b1ddb95"
    },
    {
      "constant": false,
      "inputs": [
        {
          "name": "",
          "type": "address"
        },
        {
          "name": "sender",
          "type": "address"
        },
        {
          "name": "info",
          "type": "MatryxPlatform.Info storage"
        },
        {
          "name": "data",
          "type": "MatryxPlatform.Data storage"
        },
        {
          "name": "tAddress",
          "type": "address"
        },
        {
          "name": "content",
          "type": "string"
        },
        {
          "name": "parentHash",
          "type": "bytes32"
        },
        {
          "name": "isFork",
          "type": "bool"
        },
        {
          "name": "salt",
          "type": "bytes32"
        },
        {
          "name": "commitContent",
          "type": "string"
        },
        {
          "name": "value",
          "type": "uint256"
        }
      ],
      "name": "createSubmission",
      "outputs": [],
      "payable": false,
      "stateMutability": "nonpayable",
      "type": "function",
      "signature": "0x1c4f0048"
    },
    {
      "constant": true,
      "inputs": [
        {
          "name": "",
          "type": "address"
        },
        {
          "name": "sender",
          "type": "address"
        },
        {
          "name": "data",
          "type": "MatryxPlatform.Data storage"
        },
        {
          "name": "commitHash",
          "type": "bytes32"
        },
        {
          "name": "user",
          "type": "address"
        }
      ],
      "name": "getAvailableRewardForUser",
      "outputs": [
        {
          "name": "",
          "type": "uint256"
        }
      ],
      "payable": false,
      "stateMutability": "view",
      "type": "function",
      "signature": "0x4f4abca8"
    },
    {
      "constant": false,
      "inputs": [
        {
          "name": "",
          "type": "address"
        },
        {
          "name": "sender",
          "type": "address"
        },
        {
          "name": "info",
          "type": "MatryxPlatform.Info storage"
        },
        {
          "name": "data",
          "type": "MatryxPlatform.Data storage"
        },
        {
          "name": "commitHash",
          "type": "bytes32"
        }
      ],
      "name": "withdrawAvailableReward",
      "outputs": [],
      "payable": false,
      "stateMutability": "nonpayable",
      "type": "function",
      "signature": "0xa9a983a3"
    }
  ],
  "bytecode": "0x6128b3610030600b82828239805160001a6073146000811461002057610022565bfe5b5030600052607381538281f3fe73000000000000000000000000000000000000000030146080604052600436106100db5763ffffffff7c01000000000000000000000000000000000000000000000000000000006000350416630b1ddb9581146100e0578063178a19151461010257806319b0cda01461012b5780631c4f00481461014b5780631c7997d71461016b5780632d548a401461018b5780632e44a1db1461019e5780634a1482dc146101be5780634f4abca8146101de5780639f596981146101fe578063a0c41de21461021e578063a9a983a314610231578063cbfd9f7014610251575b600080fd5b8180156100ec57600080fd5b506101006100fb366004611eba565b610264565b005b610115610110366004611a8b565b610399565b604051610122919061262d565b60405180910390f35b81801561013757600080fd5b50610100610146366004611da1565b6103f8565b81801561015757600080fd5b50610100610166366004611c1b565b6105ae565b61017e610179366004611bae565b610769565b604051610122919061278c565b61017e610199366004611ad8565b610963565b6101b16101ac366004611ad8565b610add565b604051610122919061261c565b8180156101ca57600080fd5b506101006101d9366004611e28565b610b5f565b6101f16101ec366004611b39565b610d34565b604051610122919061263e565b81801561020a57600080fd5b50610100610219366004611d39565b610e08565b61011561022c366004611ad8565b610eb7565b81801561023d57600080fd5b5061010061024c366004611d39565b610f1e565b6101f161025f366004611ad8565b61112e565b61026f87878a611147565b15156102995760405160e560020a62461bcd028152600401610290906126dc565b60405180910390fd5b60008884846040516020018084600160a060020a0316600160a060020a03166c0100000000000000000000000002815260140183815260200182805190602001908083835b602083106102fd5780518252601f1990920191602091820191016102de565b6001836020036101000a0380198251168184511680821785525050505050509050019350505050604051602081830303815290604052805190602001209050600087600c0160008381526020019081526020016000205490506000811415151561037c5760405160e560020a62461bcd0281526004016102909061270c565b61038c8a8a8a8a868b8a8a611277565b5050505050505050505050565b606081600b018054806020026020016040519081016040528092919081815260200182805480156103e957602002820191906000526020600020905b8154815260200190600101908083116103d5575b505050505090505b9392505050565b610403848487611147565b15156104245760405160e560020a62461bcd028152600401610290906126dc565b6000828152600684016020526040902054600160a060020a0316151561045f5760405160e560020a62461bcd028152600401610290906126bc565b6000828152600684016020908152604080832060020154808452600787018352818420600160a060020a038a1685526001019092529091205460ff1615156104bc5760405160e560020a62461bcd0281526004016102909061269c565b60008181526007850160209081526040808320600160a060020a038616845260010190915290205460ff16156105075760405160e560020a62461bcd0281526004016102909061276c565b60008181526007850160208181526040808420600160a060020a03871680865260018281018552838720805460ff1916821790559484528154948501825590855291909320909101805473ffffffffffffffffffffffffffffffffffffffff19169091179055517f9a35df3f1a00bfe3649cd7585eecae921996eaa0fef4ec8b7e8bc1fdc8c829899061059d908590859061264c565b60405180910390a150505050505050565b6105b989898c611147565b15156105da5760405160e560020a62461bcd028152600401610290906126dc565b60008a84846040516020018084600160a060020a0316600160a060020a03166c0100000000000000000000000002815260140183815260200182805190602001908083835b6020831061063e5780518252601f19909201916020918201910161061f565b6001836020036101000a0380198251168184511680821785525050505050509050019350505050604051602081830303815290604052805190602001209050600089600c016000838152602001908152602001600020549050600081141515156106bd5760405160e560020a62461bcd0281526004016102909061270c565b6106cd8c8c8c8a868b8a8a611277565b73__LibTournament_________________________639a0a9b668a8e8e8e8d886040518763ffffffff167c010000000000000000000000000000000000000000000000000000000002815260040161072a96959493929190612578565b60006040518083038186803b15801561074257600080fd5b505af4158015610756573d6000803e3d6000fd5b5050505050505050505050505050505050565b610771611879565b6000826040516020018082805190602001908083835b602083106107a65780518252601f199092019160209182019101610787565b518151600019602094850361010090810a82019283169219939093169190911790925260408051601f1997909501858103979097018552868152845194840194909420600081815260088e0185528581205480825260068f01865290869020610160890187528054600160a060020a031689526001818101548a880152600280830154898c0152600383015460608c01526004830180548a51601f9482161590980290980190971604908101879004870285018701909752868452919a5098509596506080870194509290918301828280156108c35780601f10610898576101008083540402835291602001916108c3565b820191906000526020600020905b8154815290600101906020018083116108a657829003601f168201915b505050505081526020016005820154815260200160068201548152602001600782015481526020016008820154815260200160098201548152602001600a820180548060200260200160405190810160405280929190818152602001828054801561094d57602002820191906000526020600020905b815481526020019060010190808311610939575b505050505081525050925050505b949350505050565b61096b611879565b60008281526006840160209081526040918290208251610160810184528154600160a060020a0316815260018083015482850152600280840154838701526003840154606084015260048401805487516101009482161594909402600019011691909104601f810186900486028301860190965285825291949293608086019391929190830182828015610a405780601f10610a1557610100808354040283529160200191610a40565b820191906000526020600020905b815481529060010190602001808311610a2357829003601f168201915b505050505081526020016005820154815260200160068201548152602001600782015481526020016008820154815260200160098201548152602001600a8201805480602002602001604051908101604052809291908181526020018280548015610aca57602002820191906000526020600020905b815481526020019060010190808311610ab6575b5050505050815250509050949350505050565b600081815260068301602090815260408083206002015480845260078601835292819020805482518185028101850190935280835260609493830182828015610b4f57602002820191906000526020600020905b8154600160a060020a03168152600190910190602001808311610b31575b5050505050915050949350505050565b610b6a848487611147565b1515610b8b5760405160e560020a62461bcd028152600401610290906126dc565b6000828152600684016020526040902054600160a060020a03161515610bc65760405160e560020a62461bcd028152600401610290906126bc565b6000828152600684016020908152604080832060020154808452600787018352818420600160a060020a038a1685526001019092529091205460ff161515610c235760405160e560020a62461bcd0281526004016102909061269c565b60005b8251811015610d2a5760008382815181101515610c3f57fe5b602090810290910181015160008581526007890183526040808220600160a060020a0384168352600101909352919091205490915060ff1615610c825750610d22565b60008381526007870160208181526040808420600160a060020a03861680865260018281018552838720805460ff1916821790559484528154948501825590855291909320909101805473ffffffffffffffffffffffffffffffffffffffff19169091179055517f9a35df3f1a00bfe3649cd7585eecae921996eaa0fef4ec8b7e8bc1fdc8c8298990610d18908790849061264c565b60405180910390a1505b600101610c26565b5050505050505050565b600080610d4285858561172b565b9050801515610d55576000915050610dff565b6000848152600a8601602090815260408083208484526006808a01845282852001548885528285206007015460028b0190945291842054815491949293929091610da690839063ffffffff61178a16565b600160a060020a038916600090815260018701602052604081205491925090610df590610de986610ddd868a63ffffffff6117a216565b9063ffffffff6117c616565b9063ffffffff6117dd16565b9750505050505050505b95945050505050565b610e13838386611147565b1515610e345760405160e560020a62461bcd028152600401610290906126dc565b6000818152600c8301602052604090205415610e655760405160e560020a62461bcd0281526004016102909061271c565b6000818152600c8301602052604090819020429055517f61a032e9561c89139233f9a7c5e2c0def149d676886259ddc011b01c9618267d90610ea890839061263e565b60405180910390a15050505050565b6000818152600983016020908152604091829020805483518184028101840190945280845260609392830182828015610f0f57602002820191906000526020600020905b815481526020019060010190808311610efb575b50505050509050949350505050565b610f29838386611147565b1515610f4a5760405160e560020a62461bcd028152600401610290906126dc565b6000818152600683016020526040902054600160a060020a03161515610f855760405160e560020a62461bcd028152600401610290906126ec565b6000610f948586858589610d34565b905060008111610fb95760405160e560020a62461bcd0281526004016102909061274c565b6000828152600a8401602052604090208354610fdb908363ffffffff6117dd16565b84556000838152600285016020526040902054610ffe908363ffffffff6117dd16565b60008481526002860160205260409020558054611021908363ffffffff61178a16565b8155600160a060020a038616600090815260018201602052604090205461104e908363ffffffff61178a16565b600160a060020a0380881660009081526001808501602052604091829020939093559187015491517fa9059cbb00000000000000000000000000000000000000000000000000000000815291169063a9059cbb906110b29089908690600401612601565b602060405180830381600087803b1580156110cc57600080fd5b505af11580156110e0573d6000803e3d6000fd5b505050506040513d601f19601f820116820180604052506111049190810190611f96565b15156111255760405160e560020a62461bcd028152600401610290906126cc565b50505050505050565b6000818152600283016020526040902054949350505050565b600160a060020a0381166000908152600e8301602052604081205460ff1615611172575060006103f1565b600160a060020a0382166000908152600d8401602052604090205460ff161561119d575060016103f1565b60018401546040517f70a08231000000000000000000000000000000000000000000000000000000008152600091600160a060020a0316906370a08231906111e990869060040161256a565b60206040518083038186803b15801561120157600080fd5b505afa158015611215573d6000803e3d6000fd5b505050506040513d601f19601f820116820180604052506112399190810190611fb4565b111561126d5750600160a060020a0381166000908152600d830160205260409020805460ff191660019081179091556103f1565b5060009392505050565b6000811161129a5760405160e560020a62461bcd028152600401610290906126ac565b6000848152600687016020526040902054600160a060020a0316156112d45760405160e560020a62461bcd0281526004016102909061277c565b8415806112f957506000858152600687016020526040902054600160a060020a031615155b151561131a5760405160e560020a62461bcd0281526004016102909061275c565b6000826040516020018082805190602001908083835b6020831061134f5780518252601f199092019160209182019101611330565b51815160209384036101000a60001901801990921691161790526040805192909401828103601f190183528452815191810191909120600081815260088e0190925292902054919450501591506113bd90505760405160e560020a62461bcd028152600401610290906126fc565b83156114f1578515156113e55760405160e560020a62461bcd0281526004016102909061272c565b6000868152600688016020526040902060070154875461140b908263ffffffff61178a16565b8855600087815260028901602052604090205461142e908263ffffffff61178a16565b600088815260028a016020526040908190209190915560018a015490517f23b872dd000000000000000000000000000000000000000000000000000000008152600160a060020a03909116906323b872dd90611492908d90309086906004016125d9565b602060405180830381600087803b1580156114ac57600080fd5b505af11580156114c0573d6000803e3d6000fd5b505050506040513d601f19601f820116820180604052506114e49190810190611f96565b15156114ef57600080fd5b505b600084806114fd575086155b156115145761150d88878c6117ef565b9050611572565b50600086815260068801602090815260408083206002015480845260078b018352818420600160a060020a038e1685526001019092529091205460ff1615156115725760405160e560020a62461bcd0281526004016102909061273c565b8287156115b85760006115868a8a8e61172b565b905080156115b65760008181526006808c01602052604090912001546115b390839063ffffffff61178a16565b91505b505b600087815260068a0160209081526040909120805473ffffffffffffffffffffffffffffffffffffffff1916600160a060020a038e1617815542600182015560028101849055600381018990558651611619926004909201918801906118e6565b5060008781526006808b01602052604080832060058101889055909101839055898252902060070154611652908563ffffffff61178a16565b600088815260068b016020908152604080832060078101949094558b83528083206008908101546001018186015560099094018c9055868352928c019052208790558715156116ba57600b8901805460018101825560009182526020909120018790556116e1565b600088815260068a01602090815260408220600a0180546001810182559083529120018790555b7fd6d29b3450ab42521894d8a5ad0ef380ee5bc6b87334a811025a1813b7f73b5388888d896040516117169493929190612667565b60405180910390a15050505050505050505050565b600082815260068401602052604081205b8054600160a060020a038481169116141561175c576003015490506103f1565b600981015415156117715750600090506103f1565b600901546000908152600685016020526040902061173c565b60008282018381101561179957fe5b90505b92915050565b60008282028315806117be57508284828115156117bb57fe5b04145b151561179957fe5b60008082848115156117d457fe5b04949350505050565b6000828211156117e957fe5b50900390565b6040805160208082018590528251808303820181529183018352815191810191909120600081815260078701808452848220600160a060020a03871680845260018281018752968420805460ff191688179055918552805495860181558252929020909201805473ffffffffffffffffffffffffffffffffffffffff191690911790559392505050565b610160604051908101604052806000600160a060020a03168152602001600081526020016000801916815260200160008019168152602001606081526020016000815260200160008152602001600081526020016000815260200160008019168152602001606081525090565b828054600181600116156101000203166002900490600052602060002090601f016020900481019282601f1061192757805160ff1916838001178555611954565b82800160010185558215611954579182015b82811115611954578251825591602001919060010190611939565b50611960929150611964565b5090565b61197e91905b80821115611960576000815560010161196a565b90565b60006103f18235612817565b6000601f8201831361199e57600080fd5b81356119b16119ac826127c4565b61279d565b915081818352602084019350602081019050838560208402820111156119d657600080fd5b60005b83811015611a0257816119ec8882611981565b84525060209283019291909101906001016119d9565b5050505092915050565b60006103f18235612822565b60006103f18251612822565b60006103f1823561197e565b6000601f82018313611a4157600080fd5b8135611a4f6119ac826127e5565b91508082526020830160208301858383011115611a6b57600080fd5b611a76838284612833565b50505092915050565b60006103f1825161197e565b600080600060608486031215611aa057600080fd5b6000611aac8686611981565b9350506020611abd86828701611981565b9250506040611ace86828701611a24565b9150509250925092565b60008060008060808587031215611aee57600080fd5b6000611afa8787611981565b9450506020611b0b87828801611981565b9350506040611b1c87828801611a24565b9250506060611b2d87828801611a24565b91505092959194509250565b600080600080600060a08688031215611b5157600080fd5b6000611b5d8888611981565b9550506020611b6e88828901611981565b9450506040611b7f88828901611a24565b9350506060611b9088828901611a24565b9250506080611ba188828901611981565b9150509295509295909350565b60008060008060808587031215611bc457600080fd5b6000611bd08787611981565b9450506020611be187828801611981565b9350506040611bf287828801611a24565b925050606085013567ffffffffffffffff811115611c0f57600080fd5b611b2d87828801611a30565b60008060008060008060008060008060006101608c8e031215611c3d57600080fd5b6000611c498e8e611981565b9b50506020611c5a8e828f01611981565b9a50506040611c6b8e828f01611a24565b9950506060611c7c8e828f01611a24565b9850506080611c8d8e828f01611981565b97505060a08c013567ffffffffffffffff811115611caa57600080fd5b611cb68e828f01611a30565b96505060c0611cc78e828f01611a24565b95505060e0611cd88e828f01611a0c565b945050610100611cea8e828f01611a24565b9350506101208c013567ffffffffffffffff811115611d0857600080fd5b611d148e828f01611a30565b925050610140611d268e828f01611a24565b9150509295989b509295989b9093969950565b600080600080600060a08688031215611d5157600080fd5b6000611d5d8888611981565b9550506020611d6e88828901611981565b9450506040611d7f88828901611a24565b9350506060611d9088828901611a24565b9250506080611ba188828901611a24565b60008060008060008060c08789031215611dba57600080fd5b6000611dc68989611981565b9650506020611dd789828a01611981565b9550506040611de889828a01611a24565b9450506060611df989828a01611a24565b9350506080611e0a89828a01611a24565b92505060a0611e1b89828a01611981565b9150509295509295509295565b60008060008060008060c08789031215611e4157600080fd5b6000611e4d8989611981565b9650506020611e5e89828a01611981565b9550506040611e6f89828a01611a24565b9450506060611e8089828a01611a24565b9350506080611e9189828a01611a24565b92505060a087013567ffffffffffffffff811115611eae57600080fd5b611e1b89828a0161198d565b60008060008060008060008060006101208a8c031215611ed957600080fd5b6000611ee58c8c611981565b9950506020611ef68c828d01611981565b9850506040611f078c828d01611a24565b9750506060611f188c828d01611a24565b9650506080611f298c828d01611a24565b95505060a0611f3a8c828d01611a0c565b94505060c0611f4b8c828d01611a24565b93505060e08a013567ffffffffffffffff811115611f6857600080fd5b611f748c828d01611a30565b925050610100611f868c828d01611a24565b9150509295985092959850929598565b600060208284031215611fa857600080fd5b600061095b8484611a18565b600060208284031215611fc657600080fd5b600061095b8484611a7f565b611fdb81612817565b82525050565b6000611fec82612813565b808452602084019350611ffe8361280d565b60005b8281101561202e57612014868351611fd2565b61201d8261280d565b602096909601959150600101612001565b5093949350505050565b600061204382612813565b8084526020840193506120558361280d565b60005b8281101561202e5761206b8683516120db565b6120748261280d565b602096909601959150600101612058565b600061209082612813565b8084526020840193506120a28361280d565b60005b8281101561202e576120b88683516120db565b6120c18261280d565b6020969096019591506001016120a5565b611fdb81612822565b611fdb8161197e565b60006120ef82612813565b80845261210381602086016020860161283f565b61210c8161286f565b9093016020019392505050565b602781527f4f6e6c792067726f7570206d656d626572732063616e206164642061206e657760208201527f206d656d62657200000000000000000000000000000000000000000000000000604082015260600190565b602181527f43616e6e6f74206372656174652061207a65726f2d76616c756520636f6d6d6960208201527f7400000000000000000000000000000000000000000000000000000000000000604082015260600190565b600e81527f496e76616c696420636f6d6d6974000000000000000000000000000000000000602082015260400190565b600f81527f5472616e73666572206661696c65640000000000000000000000000000000000602082015260400190565b601d81527f4d75737420626520616c6c6f77656420746f20757365204d6174727978000000602082015260400190565b601581527f436f6d6d697420646f6573206e6f742065786973740000000000000000000000602082015260400190565b602381527f436f6d6d697420616c726561647920637265617465642066726f6d20636f6e7460208201527f656e740000000000000000000000000000000000000000000000000000000000604082015260600190565b601c81527f436f6d6d6974206d75737420626520636c61696d656420666972737400000000602082015260400190565b601b81527f436f6d6d6974206861736820616c726561647920636c61696d65640000000000602082015260400190565b601581527f466f726b206d757374206861766520706172656e740000000000000000000000602082015260400190565b601b81527f4d75737420626520612070617274206f66207468652067726f75700000000000602082015260400190565b601381527f4e6f2072657761726420617661696c61626c6500000000000000000000000000602082015260400190565b602281527f506172656e74206d757374206265206e756c6c206f72207265616c20636f6d6d60208201527f6974000000000000000000000000000000000000000000000000000000000000604082015260600190565b601e81527f5573657220697320616c726561647920612067726f7570206d656d6265720000602082015260400190565b601581527f436f6d6d697420616c7265616479206578697374730000000000000000000000602082015260400190565b80516000906101608401906124968582611fd2565b5060208301516124a960208601826120db565b5060408301516124bc60408601826120db565b5060608301516124cf60608601826120db565b50608083015184820360808601526124e782826120e4565b91505060a08301516124fc60a08601826120db565b5060c083015161250f60c08601826120db565b5060e083015161252260e08601826120db565b506101008301516125376101008601826120db565b5061012083015161254c6101208601826120db565b50610140830151848203610140860152610dff8282612085565b9052565b6020810161179c8284611fd2565b60c081016125868289611fd2565b6125936020830188611fd2565b6125a06040830187612566565b6125ad6060830186612566565b81810360808301526125bf81856120e4565b90506125ce60a08301846120db565b979650505050505050565b606081016125e78286611fd2565b6125f46020830185611fd2565b61095b60408301846120db565b6040810161260f8285611fd2565b6103f160208301846120db565b602080825281016103f18184611fe1565b602080825281016103f18184612038565b6020810161179c82846120db565b6040810161265a82856120db565b6103f16020830184611fd2565b6080810161267582876120db565b61268260208301866120db565b61268f6040830185611fd2565b610dff60608301846120d2565b6020808252810161179c81612119565b6020808252810161179c8161216f565b6020808252810161179c816121c5565b6020808252810161179c816121f5565b6020808252810161179c81612225565b6020808252810161179c81612255565b6020808252810161179c81612285565b6020808252810161179c816122db565b6020808252810161179c8161230b565b6020808252810161179c8161233b565b6020808252810161179c8161236b565b6020808252810161179c8161239b565b6020808252810161179c816123cb565b6020808252810161179c81612421565b6020808252810161179c81612451565b602080825281016103f18184612481565b60405181810167ffffffffffffffff811182821017156127bc57600080fd5b604052919050565b600067ffffffffffffffff8211156127db57600080fd5b5060209081020190565b600067ffffffffffffffff8211156127fc57600080fd5b506020601f91909101601f19160190565b60200190565b5190565b600061179c82612827565b151590565b600160a060020a031690565b82818337506000910152565b60005b8381101561285a578181015183820152602001612842565b83811115612869576000848401525b50505050565b601f01601f19169056fea265627a7a72305820ab73a0602b8b1ebc3908c39d9259d1b36c3566087153853e1ea1c3c868d093fd6c6578706572696d656e74616cf50037",
  "source": "pragma solidity ^0.5.0;\npragma experimental ABIEncoderV2;\n\nimport \"./SafeMath.sol\";\nimport \"./MatryxPlatform.sol\";\nimport \"./MatryxForwarder.sol\";\nimport \"./MatryxTournament.sol\";\n\nlibrary LibCommit {\n    using SafeMath for uint256;\n\n    event GroupMemberAdded(bytes32 commitHash, address user);\n    event CommitClaimed(bytes32 commitHash);\n    event CommitCreated(bytes32 parentHash, bytes32 commitHash, address creator, bool isFork);\n\n    struct Commit {\n        address owner;\n        uint256 timestamp;\n        bytes32 groupHash;\n        bytes32 commitHash;\n        string content;\n        uint256 value;\n        uint256 ownerTotalValue;\n        uint256 totalValue;\n        uint256 height;\n        bytes32 parentHash;\n        bytes32[] children;\n    }\n\n    struct CommitWithdrawalStats {\n        uint256 totalWithdrawn;\n        mapping(address=>uint256) amountWithdrawn;\n    }\n\n    struct Group {\n        address[] members;\n        mapping(address=>bool) hasMember;\n    }\n\n    /// @dev Returns commit data for the given hash\n    /// @param data        Platform data struct\n    /// @param commitHash  Hash of the commit to return\n    function getCommit(address, address, MatryxPlatform.Data storage data, bytes32 commitHash) public view returns (Commit memory commit) {\n        return data.commits[commitHash];\n    }\n\n    /// @dev Returns commit data for the given hash\n    /// @param data        Platform data struct\n    /// @param commitHash  Commit hash\n    function getBalance(address, address, MatryxPlatform.Data storage data, bytes32 commitHash) public view returns (uint256) {\n        return data.commitBalance[commitHash];\n    }\n\n    /// @dev Returns commit data for the given content hash\n    /// @param data         Platform data struct\n    /// @param content  Content hash commit was created from\n    function getCommitByContent(address, address, MatryxPlatform.Data storage data, string memory content) public view returns (Commit memory commit) {\n        bytes32 lookupHash = keccak256(abi.encodePacked(content));\n        bytes32 commitHash = data.commitHashes[lookupHash];\n        return data.commits[commitHash];\n    }\n\n    /// @dev Returns all initial commits\n    /// @param data    Platform data struct\n    function getInitialCommits(address, address, MatryxPlatform.Data storage data) public view returns (bytes32[] memory) {\n        return data.initialCommits;\n    }\n\n    /// @dev Returns all group members\n    /// @param data        Platform data struct\n    /// @param commitHash  Commit from line of work\n    function getGroupMembers(address, address, MatryxPlatform.Data storage data, bytes32 commitHash) public view returns (address[] memory) {\n        bytes32 groupHash = data.commits[commitHash].groupHash;\n        return data.groups[groupHash].members;\n    }\n\n    /// @dev Returns hashes of all Submissions that were made from this commit\n    /// @param data        Platform data struct\n    /// @param commitHash  Commit hash used for the submissions\n    function getSubmissionsForCommit(address, address, MatryxPlatform.Data storage data, bytes32 commitHash) public view returns (bytes32[] memory) {\n        return data.commitToSubmissions[commitHash];\n    }\n\n    /// @dev Returns true if the user is allowed to use Matryx\n    function _canUseMatryx(MatryxPlatform.Info storage info, MatryxPlatform.Data storage data, address user) internal returns (bool) {\n        if (data.blacklist[user]) return false;\n        if (data.whitelist[user]) return true;\n\n        if (IToken(info.token).balanceOf(user) > 0) {\n            data.whitelist[user] = true;\n            return true;\n        }\n\n        return false;\n    }\n\n    /// @dev Creates a new group\n    /// @param data        Platform data struct\n    /// @param commitHash  Commit that group is made for\n    /// @param user        First user in the group\n    function _createGroup(MatryxPlatform.Data storage data, bytes32 commitHash, address user) internal returns (bytes32) {\n        bytes32 groupHash = keccak256(abi.encodePacked(commitHash));\n        data.groups[groupHash].hasMember[user] = true;\n        data.groups[groupHash].members.push(user);\n        return groupHash;\n    }\n\n    /// @dev Adds a user to a group\n    /// @param sender      msg.sender to the Platform\n    /// @param data        Platform data struct\n    /// @param commitHash  Commit from line of work\n    /// @param user        Member to add to the group\n    function addGroupMember(address, address sender, MatryxPlatform.Info storage info, MatryxPlatform.Data storage data, bytes32 commitHash, address user) public {\n        require(_canUseMatryx(info, data, sender), \"Must be allowed to use Matryx\");\n        require(data.commits[commitHash].owner != address(0), \"Invalid commit\");\n\n        bytes32 groupHash = data.commits[commitHash].groupHash;\n        require(data.groups[groupHash].hasMember[sender], \"Only group members can add a new member\");\n        require(!data.groups[groupHash].hasMember[user], \"User is already a group member\");\n\n        data.groups[groupHash].hasMember[user] = true;\n        data.groups[groupHash].members.push(user);\n\n        emit GroupMemberAdded(commitHash, user);\n    }\n\n    /// @dev Adds multiple users to a group\n    /// @param sender      msg.sender to the Platform\n    /// @param data        Platform data struct\n    /// @param commitHash  Commit from line of work\n    /// @param users       Members to add to the group\n    function addGroupMembers(address, address sender, MatryxPlatform.Info storage info, MatryxPlatform.Data storage data, bytes32 commitHash, address[] memory users) public {\n        require(_canUseMatryx(info, data, sender), \"Must be allowed to use Matryx\");\n        require(data.commits[commitHash].owner != address(0), \"Invalid commit\");\n\n        bytes32 groupHash = data.commits[commitHash].groupHash;\n        require(data.groups[groupHash].hasMember[sender], \"Only group members can add a new member\");\n\n        for(uint256 i = 0; i < users.length; i++) {\n            address user = users[i];\n            if (data.groups[groupHash].hasMember[user]) continue;\n\n            data.groups[groupHash].hasMember[user] = true;\n            data.groups[groupHash].members.push(user);\n\n            emit GroupMemberAdded(commitHash, user);\n        }\n    }\n\n    // commit.claimCommit(web3.utils.keccak(sender, salt, ipfsHash))\n    /// @dev Claims a hash for future use as a commit\n    /// @param sender      msg.sender to the Platform\n    /// @param data        Platform data struct\n    /// @param commitHash  Hash of (sender + salt + content)\n    function claimCommit(address, address sender, MatryxPlatform.Info storage info, MatryxPlatform.Data storage data, bytes32 commitHash) public {\n        require(_canUseMatryx(info, data, sender), \"Must be allowed to use Matryx\");\n        require(data.commitClaims[commitHash] == uint256(0), \"Commit hash already claimed\");\n\n        data.commitClaims[commitHash] = now;\n        emit CommitClaimed(commitHash);\n    }\n\n    /// @dev Reveals the content hash and salt used in the claiming hash and creates the commit\n    /// @param sender       msg.sender to the Platform\n    /// @param info         Platform info struct\n    /// @param data         Platform data struct\n    /// @param parentHash   Parent commit hash\n    /// @param isFork       If parent commit is being forked\n    /// @param salt         Salt that was used in claiming hash\n    /// @param content      Content hash\n    /// @param value        Commit value\n    function createCommit(address, address sender, MatryxPlatform.Info storage info, MatryxPlatform.Data storage data, bytes32 parentHash, bool isFork, bytes32 salt, string memory content, uint256 value) public {\n        require(_canUseMatryx(info, data, sender), \"Must be allowed to use Matryx\");\n        bytes32 commitHash = keccak256(abi.encodePacked(sender, salt, content));\n\n        uint256 claimTime = data.commitClaims[commitHash];\n        require(claimTime != uint256(0), \"Commit must be claimed first\");\n\n        _createCommit(sender, info, data, parentHash, commitHash, isFork, content, value);\n    }\n\n    /// @dev Creates a commit and submits it to a Tournament\n    /// @param sender       msg.sender to the Platform\n    /// @param info         Platform info struct\n    /// @param data         Platform data struct\n    /// @param tAddress     Tournament address to submit to\n    /// @param content      Submission title and description IPFS hash\n    /// @param parentHash   Parent commit hash\n    /// @param isFork       If fork\n    /// @param salt         Salt that was used in claiming hash\n    /// @param commitContent  Commit content IPFS hash\n    /// @param value        Author-determined commit value\n    function createSubmission(address, address sender, MatryxPlatform.Info storage info, MatryxPlatform.Data storage data, address tAddress, string memory content, bytes32 parentHash, bool isFork, bytes32 salt, string memory commitContent, uint256 value) public {\n        require(_canUseMatryx(info, data, sender), \"Must be allowed to use Matryx\");\n        bytes32 commitHash = keccak256(abi.encodePacked(sender, salt, commitContent));\n\n        uint256 claimTime = data.commitClaims[commitHash];\n        require(claimTime != uint256(0), \"Commit must be claimed first\");\n\n        _createCommit(sender, info, data, parentHash, commitHash, isFork, commitContent, value);\n        LibTournament.createSubmission(tAddress, sender, info, data, content, commitHash);\n    }\n\n    /// @dev Initializes a new commit\n    /// @param owner        Commit owner\n    /// @param data         Platform data struct\n    /// @param parentHash   Parent commit hash\n    /// @param commitHash   Commit hash\n    /// @param isFork       If commit is fork of parent\n    /// @param content      Commit content IPFS hash\n    /// @param value        Author-determined commit value\n    function _createCommit(address owner, MatryxPlatform.Info storage info, MatryxPlatform.Data storage data, bytes32 parentHash, bytes32 commitHash, bool isFork, string memory content, uint256 value) internal {\n        require(value > 0, \"Cannot create a zero-value commit\");\n        require(data.commits[commitHash].owner == address(0), \"Commit already exists\");\n        require(parentHash == bytes32(0) || data.commits[parentHash].owner != address(0), \"Parent must be null or real commit\");\n\n        bytes32 lookupHash = keccak256(abi.encodePacked(content));\n        require(data.commitHashes[lookupHash] == bytes32(0), \"Commit already created from content\");\n\n        // if fork, increase balance of parent\n        if (isFork) {\n            require(parentHash != bytes32(0), \"Fork must have parent\");\n            uint256 totalValue = data.commits[parentHash].totalValue;\n            data.totalBalance = data.totalBalance.add(totalValue);\n            data.commitBalance[parentHash] = data.commitBalance[parentHash].add(totalValue);\n            require(IToken(info.token).transferFrom(owner, address(this), totalValue));\n        }\n\n        bytes32 groupHash;\n        if (isFork || parentHash == bytes32(0)) {\n            // if fork or new commit, create a new group\n            groupHash = _createGroup(data, commitHash, owner);\n        } else {\n            // otherwise use parent's group\n            groupHash = data.commits[parentHash].groupHash;\n            require(data.groups[groupHash].hasMember[owner], \"Must be a part of the group\");\n        }\n\n        // calculate owner total value\n        uint256 ownerTotalValue = value;\n        if (parentHash != bytes32(0)) {\n            bytes32 latest = _getLatestCommitForUser(data, parentHash, owner);\n\n            if (latest != bytes32(0)) {\n                ownerTotalValue = ownerTotalValue.add(data.commits[latest].ownerTotalValue);\n            }\n        }\n\n        // create commit\n        data.commits[commitHash].owner = owner;\n        data.commits[commitHash].timestamp = now;\n        data.commits[commitHash].groupHash = groupHash;\n        data.commits[commitHash].commitHash = commitHash;\n        data.commits[commitHash].content = content;\n        data.commits[commitHash].value = value;\n        data.commits[commitHash].ownerTotalValue = ownerTotalValue;\n        data.commits[commitHash].totalValue = data.commits[parentHash].totalValue.add(value);\n        data.commits[commitHash].height = data.commits[parentHash].height + 1;\n        data.commits[commitHash].parentHash = parentHash;\n\n        data.commitHashes[lookupHash] = commitHash;\n\n        if (parentHash == bytes32(0)) {\n            data.initialCommits.push(commitHash);\n        } else {\n            data.commits[parentHash].children.push(commitHash);\n        }\n\n        emit CommitCreated(parentHash, commitHash, owner, isFork);\n    }\n\n    /// @dev Returns the available reward for a user for a given commit\n    /// @param data        Platform data struct\n    /// @param commitHash  Commit hash to look up the available reward\n    /// @param user        User address\n    /// @return            Amount of MTX the user can withdraw from the given commit\n    function getAvailableRewardForUser(address, address sender, MatryxPlatform.Data storage data, bytes32 commitHash, address user) public view returns (uint256) {\n        bytes32 latestUserCommit = _getLatestCommitForUser(data, commitHash, user);\n        if (latestUserCommit == bytes32(0)) return 0;\n\n        CommitWithdrawalStats storage stats = data.commitWithdrawalStats[commitHash];\n\n        uint256 userValue = data.commits[latestUserCommit].ownerTotalValue;\n        uint256 totalValue = data.commits[commitHash].totalValue;\n        uint256 balance = data.commitBalance[commitHash];\n        uint256 totalBalance = balance.add(stats.totalWithdrawn);\n\n        uint256 userShare = totalBalance.mul(userValue).div(totalValue).sub(stats.amountWithdrawn[user]);\n\n        return userShare;\n    }\n\n    /// @dev Withdraws the caller's available reward for a given commit\n    /// @param sender      msg.sender to the Platform\n    /// @param info        Platform info struct\n    /// @param data        Platform data struct\n    /// @param commitHash  Commit hash to look up the available reward\n    function withdrawAvailableReward(address, address sender, MatryxPlatform.Info storage info, MatryxPlatform.Data storage data, bytes32 commitHash) public {\n        require(_canUseMatryx(info, data, sender), \"Must be allowed to use Matryx\");\n        require(data.commits[commitHash].owner != address(0), \"Commit does not exist\");\n        uint256 userShare = getAvailableRewardForUser(sender, sender, data, commitHash, sender);\n        require(userShare > 0, \"No reward available\");\n\n        CommitWithdrawalStats storage stats = data.commitWithdrawalStats[commitHash];\n\n        data.totalBalance = data.totalBalance.sub(userShare);\n        data.commitBalance[commitHash] = data.commitBalance[commitHash].sub(userShare);\n        stats.totalWithdrawn = stats.totalWithdrawn.add(userShare);\n        stats.amountWithdrawn[sender] = stats.amountWithdrawn[sender].add(userShare);\n\n        require(IToken(info.token).transfer(sender, userShare), \"Transfer failed\");\n    }\n\n    /// @dev Returns the hash of the user's latest commit in the chain of ancestors of commitHash\n    /// @param data        Platform data struct\n    /// @param commitHash  Commit hash to look up the available reward\n    /// @param user        User address\n    /// @return            User's latest commit hash\n    function _getLatestCommitForUser(MatryxPlatform.Data storage data, bytes32 commitHash, address user) internal view returns (bytes32) {\n        Commit storage c = data.commits[commitHash];\n\n        // traverse up until root commit\n        while (true) {\n            if (c.owner == user) return c.commitHash;\n            if (c.parentHash == bytes32(0)) return bytes32(0);\n            c = data.commits[c.parentHash];\n        }\n    }\n}\n",
  "sourcePath": "/Users/maxhoward/Desktop/Ethereum/MatryxPlatform/contracts/LibCommit.sol",
  "compiler": {
    "name": "solc",
    "version": "0.5.0+commit.1d4f565a.Emscripten.clang"
  },
  "schemaVersion": "3.0.2",
  "updatedAt": "2019-02-26T19:57:50.886Z",
  "devdoc": {
    "methods": {
      "addGroupMember(address,address,MatryxPlatform.Info storage,MatryxPlatform.Data storage,bytes32,address)": {
        "details": "Adds a user to a group",
        "params": {
          "commitHash": "Commit from line of work",
          "data": "Platform data struct",
          "sender": "msg.sender to the Platform",
          "user": "Member to add to the group"
        }
      },
      "addGroupMembers(address,address,MatryxPlatform.Info storage,MatryxPlatform.Data storage,bytes32,address[])": {
        "details": "Adds multiple users to a group",
        "params": {
          "commitHash": "Commit from line of work",
          "data": "Platform data struct",
          "sender": "msg.sender to the Platform",
          "users": "Members to add to the group"
        }
      },
      "claimCommit(address,address,MatryxPlatform.Info storage,MatryxPlatform.Data storage,bytes32)": {
        "details": "Claims a hash for future use as a commit",
        "params": {
          "commitHash": "Hash of (sender + salt + content)",
          "data": "Platform data struct",
          "sender": "msg.sender to the Platform"
        }
      },
      "createCommit(address,address,MatryxPlatform.Info storage,MatryxPlatform.Data storage,bytes32,bool,bytes32,string,uint256)": {
        "details": "Reveals the content hash and salt used in the claiming hash and creates the commit",
        "params": {
          "content": "Content hash",
          "data": "Platform data struct",
          "info": "Platform info struct",
          "isFork": "If parent commit is being forked",
          "parentHash": "Parent commit hash",
          "salt": "Salt that was used in claiming hash",
          "sender": "msg.sender to the Platform",
          "value": "Commit value"
        }
      },
      "createSubmission(address,address,MatryxPlatform.Info storage,MatryxPlatform.Data storage,address,string,bytes32,bool,bytes32,string,uint256)": {
        "details": "Creates a commit and submits it to a Tournament",
        "params": {
          "commitContent": "Commit content IPFS hash",
          "content": "Submission title and description IPFS hash",
          "data": "Platform data struct",
          "info": "Platform info struct",
          "isFork": "If fork",
          "parentHash": "Parent commit hash",
          "salt": "Salt that was used in claiming hash",
          "sender": "msg.sender to the Platform",
          "tAddress": "Tournament address to submit to",
          "value": "Author-determined commit value"
        }
      },
      "getAvailableRewardForUser(address,address,MatryxPlatform.Data storage,bytes32,address)": {
        "details": "Returns the available reward for a user for a given commit",
        "params": {
          "commitHash": "Commit hash to look up the available reward",
          "data": "Platform data struct",
          "user": "User address"
        },
        "return": "Amount of MTX the user can withdraw from the given commit"
      },
      "getBalance(address,address,MatryxPlatform.Data storage,bytes32)": {
        "details": "Returns commit data for the given hash",
        "params": {
          "commitHash": "Commit hash",
          "data": "Platform data struct"
        }
      },
      "getCommit(address,address,MatryxPlatform.Data storage,bytes32)": {
        "details": "Returns commit data for the given hash",
        "params": {
          "commitHash": "Hash of the commit to return",
          "data": "Platform data struct"
        }
      },
      "getCommitByContent(address,address,MatryxPlatform.Data storage,string)": {
        "details": "Returns commit data for the given content hash",
        "params": {
          "content": "Content hash commit was created from",
          "data": "Platform data struct"
        }
      },
      "getGroupMembers(address,address,MatryxPlatform.Data storage,bytes32)": {
        "details": "Returns all group members",
        "params": {
          "commitHash": "Commit from line of work",
          "data": "Platform data struct"
        }
      },
      "getInitialCommits(address,address,MatryxPlatform.Data storage)": {
        "details": "Returns all initial commits",
        "params": {
          "data": "Platform data struct"
        }
      },
      "getSubmissionsForCommit(address,address,MatryxPlatform.Data storage,bytes32)": {
        "details": "Returns hashes of all Submissions that were made from this commit",
        "params": {
          "commitHash": "Commit hash used for the submissions",
          "data": "Platform data struct"
        }
      },
      "withdrawAvailableReward(address,address,MatryxPlatform.Info storage,MatryxPlatform.Data storage,bytes32)": {
        "details": "Withdraws the caller's available reward for a given commit",
        "params": {
          "commitHash": "Commit hash to look up the available reward",
          "data": "Platform data struct",
          "info": "Platform info struct",
          "sender": "msg.sender to the Platform"
        }
      }
    }
  },
  "userdoc": {
    "methods": {}
  }
}