{
  "contractName": "LibCommit",
  "abi": [
    {
      "anonymous": false,
      "inputs": [
        {
          "indexed": false,
          "name": "commitHash",
          "type": "bytes32"
        },
        {
          "indexed": false,
          "name": "user",
          "type": "address"
        }
      ],
      "name": "GroupMemberAdded",
      "type": "event",
      "signature": "0x9a35df3f1a00bfe3649cd7585eecae921996eaa0fef4ec8b7e8bc1fdc8c82989"
    },
    {
      "anonymous": false,
      "inputs": [
        {
          "indexed": false,
          "name": "commitHash",
          "type": "bytes32"
        }
      ],
      "name": "CommitClaimed",
      "type": "event",
      "signature": "0x61a032e9561c89139233f9a7c5e2c0def149d676886259ddc011b01c9618267d"
    },
    {
      "anonymous": false,
      "inputs": [
        {
          "indexed": false,
          "name": "parentHash",
          "type": "bytes32"
        },
        {
          "indexed": false,
          "name": "commitHash",
          "type": "bytes32"
        },
        {
          "indexed": false,
          "name": "creator",
          "type": "address"
        },
        {
          "indexed": false,
          "name": "isFork",
          "type": "bool"
        }
      ],
      "name": "CommitCreated",
      "type": "event",
      "signature": "0xd6d29b3450ab42521894d8a5ad0ef380ee5bc6b87334a811025a1813b7f73b53"
    },
    {
      "constant": true,
      "inputs": [
        {
          "name": "",
          "type": "address"
        },
        {
          "name": "",
          "type": "address"
        },
        {
          "name": "data",
          "type": "MatryxPlatform.Data storage"
        },
        {
          "name": "commitHash",
          "type": "bytes32"
        }
      ],
      "name": "getCommit",
      "outputs": [
        {
          "components": [
            {
              "name": "owner",
              "type": "address"
            },
            {
              "name": "timestamp",
              "type": "uint256"
            },
            {
              "name": "groupHash",
              "type": "bytes32"
            },
            {
              "name": "commitHash",
              "type": "bytes32"
            },
            {
              "name": "content",
              "type": "string"
            },
            {
              "name": "value",
              "type": "uint256"
            },
            {
              "name": "ownerTotalValue",
              "type": "uint256"
            },
            {
              "name": "totalValue",
              "type": "uint256"
            },
            {
              "name": "height",
              "type": "uint256"
            },
            {
              "name": "parentHash",
              "type": "bytes32"
            },
            {
              "name": "children",
              "type": "bytes32[]"
            }
          ],
          "name": "commit",
          "type": "tuple"
        }
      ],
      "payable": false,
      "stateMutability": "view",
      "type": "function",
      "signature": "0x2d548a40"
    },
    {
      "constant": true,
      "inputs": [
        {
          "name": "",
          "type": "address"
        },
        {
          "name": "",
          "type": "address"
        },
        {
          "name": "data",
          "type": "MatryxPlatform.Data storage"
        },
        {
          "name": "commitHash",
          "type": "bytes32"
        }
      ],
      "name": "getBalance",
      "outputs": [
        {
          "name": "",
          "type": "uint256"
        }
      ],
      "payable": false,
      "stateMutability": "view",
      "type": "function",
      "signature": "0xcbfd9f70"
    },
    {
      "constant": true,
      "inputs": [
        {
          "name": "",
          "type": "address"
        },
        {
          "name": "",
          "type": "address"
        },
        {
          "name": "data",
          "type": "MatryxPlatform.Data storage"
        },
        {
          "name": "content",
          "type": "string"
        }
      ],
      "name": "getCommitByContent",
      "outputs": [
        {
          "components": [
            {
              "name": "owner",
              "type": "address"
            },
            {
              "name": "timestamp",
              "type": "uint256"
            },
            {
              "name": "groupHash",
              "type": "bytes32"
            },
            {
              "name": "commitHash",
              "type": "bytes32"
            },
            {
              "name": "content",
              "type": "string"
            },
            {
              "name": "value",
              "type": "uint256"
            },
            {
              "name": "ownerTotalValue",
              "type": "uint256"
            },
            {
              "name": "totalValue",
              "type": "uint256"
            },
            {
              "name": "height",
              "type": "uint256"
            },
            {
              "name": "parentHash",
              "type": "bytes32"
            },
            {
              "name": "children",
              "type": "bytes32[]"
            }
          ],
          "name": "commit",
          "type": "tuple"
        }
      ],
      "payable": false,
      "stateMutability": "view",
      "type": "function",
      "signature": "0x1c7997d7"
    },
    {
      "constant": true,
      "inputs": [
        {
          "name": "",
          "type": "address"
        },
        {
          "name": "",
          "type": "address"
        },
        {
          "name": "data",
          "type": "MatryxPlatform.Data storage"
        }
      ],
      "name": "getInitialCommits",
      "outputs": [
        {
          "name": "",
          "type": "bytes32[]"
        }
      ],
      "payable": false,
      "stateMutability": "view",
      "type": "function",
      "signature": "0x178a1915"
    },
    {
      "constant": true,
      "inputs": [
        {
          "name": "",
          "type": "address"
        },
        {
          "name": "",
          "type": "address"
        },
        {
          "name": "data",
          "type": "MatryxPlatform.Data storage"
        },
        {
          "name": "commitHash",
          "type": "bytes32"
        }
      ],
      "name": "getGroupMembers",
      "outputs": [
        {
          "name": "",
          "type": "address[]"
        }
      ],
      "payable": false,
      "stateMutability": "view",
      "type": "function",
      "signature": "0x2e44a1db"
    },
    {
      "constant": true,
      "inputs": [
        {
          "name": "",
          "type": "address"
        },
        {
          "name": "",
          "type": "address"
        },
        {
          "name": "data",
          "type": "MatryxPlatform.Data storage"
        },
        {
          "name": "commitHash",
          "type": "bytes32"
        }
      ],
      "name": "getSubmissionsForCommit",
      "outputs": [
        {
          "name": "",
          "type": "bytes32[]"
        }
      ],
      "payable": false,
      "stateMutability": "view",
      "type": "function",
      "signature": "0xa0c41de2"
    },
    {
      "constant": false,
      "inputs": [
        {
          "name": "",
          "type": "address"
        },
        {
          "name": "sender",
          "type": "address"
        },
        {
          "name": "info",
          "type": "MatryxPlatform.Info storage"
        },
        {
          "name": "data",
          "type": "MatryxPlatform.Data storage"
        },
        {
          "name": "commitHash",
          "type": "bytes32"
        },
        {
          "name": "user",
          "type": "address"
        }
      ],
      "name": "addGroupMember",
      "outputs": [],
      "payable": false,
      "stateMutability": "nonpayable",
      "type": "function",
      "signature": "0x19b0cda0"
    },
    {
      "constant": false,
      "inputs": [
        {
          "name": "",
          "type": "address"
        },
        {
          "name": "sender",
          "type": "address"
        },
        {
          "name": "info",
          "type": "MatryxPlatform.Info storage"
        },
        {
          "name": "data",
          "type": "MatryxPlatform.Data storage"
        },
        {
          "name": "commitHash",
          "type": "bytes32"
        },
        {
          "name": "users",
          "type": "address[]"
        }
      ],
      "name": "addGroupMembers",
      "outputs": [],
      "payable": false,
      "stateMutability": "nonpayable",
      "type": "function",
      "signature": "0x4a1482dc"
    },
    {
      "constant": false,
      "inputs": [
        {
          "name": "",
          "type": "address"
        },
        {
          "name": "sender",
          "type": "address"
        },
        {
          "name": "info",
          "type": "MatryxPlatform.Info storage"
        },
        {
          "name": "data",
          "type": "MatryxPlatform.Data storage"
        },
        {
          "name": "commitHash",
          "type": "bytes32"
        }
      ],
      "name": "claimCommit",
      "outputs": [],
      "payable": false,
      "stateMutability": "nonpayable",
      "type": "function",
      "signature": "0x9f596981"
    },
    {
      "constant": false,
      "inputs": [
        {
          "name": "",
          "type": "address"
        },
        {
          "name": "sender",
          "type": "address"
        },
        {
          "name": "info",
          "type": "MatryxPlatform.Info storage"
        },
        {
          "name": "data",
          "type": "MatryxPlatform.Data storage"
        },
        {
          "name": "parentHash",
          "type": "bytes32"
        },
        {
          "name": "isFork",
          "type": "bool"
        },
        {
          "name": "salt",
          "type": "bytes32"
        },
        {
          "name": "content",
          "type": "string"
        },
        {
          "name": "value",
          "type": "uint256"
        }
      ],
      "name": "createCommit",
      "outputs": [],
      "payable": false,
      "stateMutability": "nonpayable",
      "type": "function",
      "signature": "0x0b1ddb95"
    },
    {
      "constant": false,
      "inputs": [
        {
          "name": "",
          "type": "address"
        },
        {
          "name": "sender",
          "type": "address"
        },
        {
          "name": "info",
          "type": "MatryxPlatform.Info storage"
        },
        {
          "name": "data",
          "type": "MatryxPlatform.Data storage"
        },
        {
          "name": "tAddress",
          "type": "address"
        },
        {
          "name": "content",
          "type": "string"
        },
        {
          "name": "parentHash",
          "type": "bytes32"
        },
        {
          "name": "isFork",
          "type": "bool"
        },
        {
          "name": "salt",
          "type": "bytes32"
        },
        {
          "name": "commitContent",
          "type": "string"
        },
        {
          "name": "value",
          "type": "uint256"
        }
      ],
      "name": "createSubmission",
      "outputs": [],
      "payable": false,
      "stateMutability": "nonpayable",
      "type": "function",
      "signature": "0x1c4f0048"
    },
    {
      "constant": true,
      "inputs": [
        {
          "name": "",
          "type": "address"
        },
        {
          "name": "sender",
          "type": "address"
        },
        {
          "name": "data",
          "type": "MatryxPlatform.Data storage"
        },
        {
          "name": "commitHash",
          "type": "bytes32"
        },
        {
          "name": "user",
          "type": "address"
        }
      ],
      "name": "getAvailableRewardForUser",
      "outputs": [
        {
          "name": "",
          "type": "uint256"
        }
      ],
      "payable": false,
      "stateMutability": "view",
      "type": "function",
      "signature": "0x4f4abca8"
    },
    {
      "constant": false,
      "inputs": [
        {
          "name": "",
          "type": "address"
        },
        {
          "name": "sender",
          "type": "address"
        },
        {
          "name": "info",
          "type": "MatryxPlatform.Info storage"
        },
        {
          "name": "data",
          "type": "MatryxPlatform.Data storage"
        },
        {
          "name": "commitHash",
          "type": "bytes32"
        }
      ],
      "name": "withdrawAvailableReward",
      "outputs": [],
      "payable": false,
      "stateMutability": "nonpayable",
      "type": "function",
      "signature": "0xa9a983a3"
    }
  ],
  "bytecode": "0x612889610030600b82828239805160001a6073146000811461002057610022565bfe5b5030600052607381538281f3fe73000000000000000000000000000000000000000030146080604052600436106100db5763ffffffff7c01000000000000000000000000000000000000000000000000000000006000350416630b1ddb9581146100e0578063178a19151461010257806319b0cda01461012b5780631c4f00481461014b5780631c7997d71461016b5780632d548a401461018b5780632e44a1db1461019e5780634a1482dc146101be5780634f4abca8146101de5780639f596981146101fe578063a0c41de21461021e578063a9a983a314610231578063cbfd9f7014610251575b600080fd5b8180156100ec57600080fd5b506101006100fb366004611e6a565b610264565b005b610115610110366004611a3b565b610358565b6040516101229190612603565b60405180910390f35b81801561013757600080fd5b50610100610146366004611d51565b6103b7565b81801561015757600080fd5b50610100610166366004611bcb565b61056d565b61017e610179366004611b5e565b6106e4565b6040516101229190612762565b61017e610199366004611a88565b6108de565b6101b16101ac366004611a88565b610a58565b60405161012291906125f2565b8180156101ca57600080fd5b506101006101d9366004611dd8565b610ada565b6101f16101ec366004611ae9565b610caf565b6040516101229190612614565b81801561020a57600080fd5b50610100610219366004611ce9565b610d83565b61011561022c366004611a88565b610e32565b81801561023d57600080fd5b5061010061024c366004611ce9565b610e99565b6101f161025f366004611a88565b6110a9565b61026f87878a6110c2565b15156102995760405160e560020a62461bcd028152600401610290906126b2565b60405180910390fd5b60008884846040516020018084600160a060020a0316600160a060020a03166c0100000000000000000000000002815260140183815260200182805190602001908083835b602083106102fd5780518252601f1990920191602091820191016102de565b6001836020036101000a038019825116818451168082178552505050505050905001935050505060405160208183030381529060405280519060200120905061034c89898989858a89896111f2565b50505050505050505050565b606081600b018054806020026020016040519081016040528092919081815260200182805480156103a857602002820191906000526020600020905b815481526020019060010190808311610394575b505050505090505b9392505050565b6103c28484876110c2565b15156103e35760405160e560020a62461bcd028152600401610290906126b2565b6000828152600684016020526040902054600160a060020a0316151561041e5760405160e560020a62461bcd02815260040161029090612692565b6000828152600684016020908152604080832060020154808452600787018352818420600160a060020a038a1685526001019092529091205460ff16151561047b5760405160e560020a62461bcd02815260040161029090612672565b60008181526007850160209081526040808320600160a060020a038616845260010190915290205460ff16156104c65760405160e560020a62461bcd02815260040161029090612742565b60008181526007850160208181526040808420600160a060020a03871680865260018281018552838720805460ff1916821790559484528154948501825590855291909320909101805473ffffffffffffffffffffffffffffffffffffffff19169091179055517f9a35df3f1a00bfe3649cd7585eecae921996eaa0fef4ec8b7e8bc1fdc8c829899061055c9085908590612622565b60405180910390a150505050505050565b61057889898c6110c2565b15156105995760405160e560020a62461bcd028152600401610290906126b2565b60008a84846040516020018084600160a060020a0316600160a060020a03166c0100000000000000000000000002815260140183815260200182805190602001908083835b602083106105fd5780518252601f1990920191602091820191016105de565b6001836020036101000a038019825116818451168082178552505050505050905001935050505060405160208183030381529060405280519060200120905061064c8b8b8b89858a89896111f2565b6040517f9a0a9b6600000000000000000000000000000000000000000000000000000000815273__LibTournament_________________________90639a0a9b66906106a6908b908f908f908f908e90899060040161254e565b60006040518083038186803b1580156106be57600080fd5b505af41580156106d2573d6000803e3d6000fd5b50505050505050505050505050505050565b6106ec611829565b6000826040516020018082805190602001908083835b602083106107215780518252601f199092019160209182019101610702565b518151600019602094850361010090810a82019283169219939093169190911790925260408051601f1997909501858103979097018552868152845194840194909420600081815260088e0185528581205480825260068f01865290869020610160890187528054600160a060020a031689526001818101548a880152600280830154898c0152600383015460608c01526004830180548a51601f9482161590980290980190971604908101879004870285018701909752868452919a50985095965060808701945092909183018282801561083e5780601f106108135761010080835404028352916020019161083e565b820191906000526020600020905b81548152906001019060200180831161082157829003601f168201915b505050505081526020016005820154815260200160068201548152602001600782015481526020016008820154815260200160098201548152602001600a82018054806020026020016040519081016040528092919081815260200182805480156108c857602002820191906000526020600020905b8154815260200190600101908083116108b4575b505050505081525050925050505b949350505050565b6108e6611829565b60008281526006840160209081526040918290208251610160810184528154600160a060020a0316815260018083015482850152600280840154838701526003840154606084015260048401805487516101009482161594909402600019011691909104601f8101869004860283018601909652858252919492936080860193919291908301828280156109bb5780601f10610990576101008083540402835291602001916109bb565b820191906000526020600020905b81548152906001019060200180831161099e57829003601f168201915b505050505081526020016005820154815260200160068201548152602001600782015481526020016008820154815260200160098201548152602001600a8201805480602002602001604051908101604052809291908181526020018280548015610a4557602002820191906000526020600020905b815481526020019060010190808311610a31575b5050505050815250509050949350505050565b600081815260068301602090815260408083206002015480845260078601835292819020805482518185028101850190935280835260609493830182828015610aca57602002820191906000526020600020905b8154600160a060020a03168152600190910190602001808311610aac575b5050505050915050949350505050565b610ae58484876110c2565b1515610b065760405160e560020a62461bcd028152600401610290906126b2565b6000828152600684016020526040902054600160a060020a03161515610b415760405160e560020a62461bcd02815260040161029090612692565b6000828152600684016020908152604080832060020154808452600787018352818420600160a060020a038a1685526001019092529091205460ff161515610b9e5760405160e560020a62461bcd02815260040161029090612672565b60005b8251811015610ca55760008382815181101515610bba57fe5b602090810290910181015160008581526007890183526040808220600160a060020a0384168352600101909352919091205490915060ff1615610bfd5750610c9d565b60008381526007870160208181526040808420600160a060020a03861680865260018281018552838720805460ff1916821790559484528154948501825590855291909320909101805473ffffffffffffffffffffffffffffffffffffffff19169091179055517f9a35df3f1a00bfe3649cd7585eecae921996eaa0fef4ec8b7e8bc1fdc8c8298990610c939087908490612622565b60405180910390a1505b600101610ba1565b5050505050505050565b600080610cbd8585856116db565b9050801515610cd0576000915050610d7a565b6000848152600a8601602090815260408083208484526006808a01845282852001548885528285206007015460028b0190945291842054815491949293929091610d2190839063ffffffff61173a16565b600160a060020a038916600090815260018701602052604081205491925090610d7090610d6486610d58868a63ffffffff61175216565b9063ffffffff61177616565b9063ffffffff61178d16565b9750505050505050505b95945050505050565b610d8e8383866110c2565b1515610daf5760405160e560020a62461bcd028152600401610290906126b2565b6000818152600c8301602052604090205415610de05760405160e560020a62461bcd028152600401610290906126e2565b6000818152600c8301602052604090819020429055517f61a032e9561c89139233f9a7c5e2c0def149d676886259ddc011b01c9618267d90610e23908390612614565b60405180910390a15050505050565b6000818152600983016020908152604091829020805483518184028101840190945280845260609392830182828015610e8a57602002820191906000526020600020905b815481526020019060010190808311610e76575b50505050509050949350505050565b610ea48383866110c2565b1515610ec55760405160e560020a62461bcd028152600401610290906126b2565b6000818152600683016020526040902054600160a060020a03161515610f005760405160e560020a62461bcd028152600401610290906126c2565b6000610f0f8586858589610caf565b905060008111610f345760405160e560020a62461bcd02815260040161029090612712565b6000828152600a8401602052604090208354610f56908363ffffffff61178d16565b84556000838152600285016020526040902054610f79908363ffffffff61178d16565b60008481526002860160205260409020558054610f9c908363ffffffff61173a16565b8155600160a060020a0386166000908152600182016020526040902054610fc9908363ffffffff61173a16565b600160a060020a0380881660009081526001808501602052604091829020939093559187015491517fa9059cbb00000000000000000000000000000000000000000000000000000000815291169063a9059cbb9061102d90899086906004016125d7565b602060405180830381600087803b15801561104757600080fd5b505af115801561105b573d6000803e3d6000fd5b505050506040513d601f19601f8201168201806040525061107f9190810190611f46565b15156110a05760405160e560020a62461bcd028152600401610290906126a2565b50505050505050565b6000818152600283016020526040902054949350505050565b600160a060020a0381166000908152600e8301602052604081205460ff16156110ed575060006103b0565b600160a060020a0382166000908152600d8401602052604090205460ff1615611118575060016103b0565b60018401546040517f70a08231000000000000000000000000000000000000000000000000000000008152600091600160a060020a0316906370a0823190611164908690600401612540565b60206040518083038186803b15801561117c57600080fd5b505afa158015611190573d6000803e3d6000fd5b505050506040513d601f19601f820116820180604052506111b49190810190611f64565b11156111e85750600160a060020a0381166000908152600d830160205260409020805460ff191660019081179091556103b0565b5060009392505050565b600081116112155760405160e560020a62461bcd02815260040161029090612682565b6000848152600687016020526040902054600160a060020a03161561124f5760405160e560020a62461bcd02815260040161029090612752565b84158061127457506000858152600687016020526040902054600160a060020a031615155b15156112955760405160e560020a62461bcd02815260040161029090612722565b6000848152600c870160205260409020544281106112c85760405160e560020a62461bcd02815260040161029090612732565b6000836040516020018082805190602001908083835b602083106112fd5780518252601f1990920191602091820191016112de565b51815160209384036101000a60001901801990921691161790526040805192909401828103601f190183528452815191810191909120600081815260088f01909252929020549194505015915061136b90505760405160e560020a62461bcd028152600401610290906126d2565b841561149f578615156113935760405160e560020a62461bcd028152600401610290906126f2565b600087815260068901602052604090206007015488546113b9908263ffffffff61173a16565b8955600088815260028a0160205260409020546113dc908263ffffffff61173a16565b600089815260028b016020526040908190209190915560018b015490517f23b872dd000000000000000000000000000000000000000000000000000000008152600160a060020a03909116906323b872dd90611440908e90309086906004016125af565b602060405180830381600087803b15801561145a57600080fd5b505af115801561146e573d6000803e3d6000fd5b505050506040513d601f19601f820116820180604052506114929190810190611f46565b151561149d57600080fd5b505b600085806114ab575087155b156114c2576114bb89888d61179f565b9050611520565b50600087815260068901602090815260408083206002015480845260078c018352818420600160a060020a038f1685526001019092529091205460ff1615156115205760405160e560020a62461bcd02815260040161029090612702565b8388156115665760006115348b8b8f6116db565b905080156115645760008181526006808d016020526040909120015461156190839063ffffffff61173a16565b91505b505b600088815260068b0160209081526040909120805473ffffffffffffffffffffffffffffffffffffffff1916600160a060020a038f161781556001810186905560028101849055600381018a905587516115c892600490920191890190611896565b5060008881526006808c016020526040808320600581018990559091018390558a8252902060070154611601908663ffffffff61173a16565b600089815260068c016020908152604080832060078101949094558c83528083206008908101546001018186015560099094018d9055868352928d0190522088905588151561166957600b8a0180546001810182556000918252602090912001889055611690565b600089815260068b01602090815260408220600a0180546001810182559083529120018890555b7fd6d29b3450ab42521894d8a5ad0ef380ee5bc6b87334a811025a1813b7f73b5389898e8a6040516116c5949392919061263d565b60405180910390a1505050505050505050505050565b600082815260068401602052604081205b8054600160a060020a038481169116141561170c576003015490506103b0565b600981015415156117215750600090506103b0565b60090154600090815260068501602052604090206116ec565b60008282018381101561174957fe5b90505b92915050565b600082820283158061176e575082848281151561176b57fe5b04145b151561174957fe5b600080828481151561178457fe5b04949350505050565b60008282111561179957fe5b50900390565b6040805160208082018590528251808303820181529183018352815191810191909120600081815260078701808452848220600160a060020a03871680845260018281018752968420805460ff191688179055918552805495860181558252929020909201805473ffffffffffffffffffffffffffffffffffffffff191690911790559392505050565b610160604051908101604052806000600160a060020a03168152602001600081526020016000801916815260200160008019168152602001606081526020016000815260200160008152602001600081526020016000815260200160008019168152602001606081525090565b828054600181600116156101000203166002900490600052602060002090601f016020900481019282601f106118d757805160ff1916838001178555611904565b82800160010185558215611904579182015b828111156119045782518255916020019190600101906118e9565b50611910929150611914565b5090565b61192e91905b80821115611910576000815560010161191a565b90565b60006103b082356127ed565b6000601f8201831361194e57600080fd5b813561196161195c8261279a565b612773565b9150818183526020840193506020810190508385602084028201111561198657600080fd5b60005b838110156119b2578161199c8882611931565b8452506020928301929190910190600101611989565b5050505092915050565b60006103b082356127f8565b60006103b082516127f8565b60006103b0823561192e565b6000601f820183136119f157600080fd5b81356119ff61195c826127bb565b91508082526020830160208301858383011115611a1b57600080fd5b611a26838284612809565b50505092915050565b60006103b0825161192e565b600080600060608486031215611a5057600080fd5b6000611a5c8686611931565b9350506020611a6d86828701611931565b9250506040611a7e868287016119d4565b9150509250925092565b60008060008060808587031215611a9e57600080fd5b6000611aaa8787611931565b9450506020611abb87828801611931565b9350506040611acc878288016119d4565b9250506060611add878288016119d4565b91505092959194509250565b600080600080600060a08688031215611b0157600080fd5b6000611b0d8888611931565b9550506020611b1e88828901611931565b9450506040611b2f888289016119d4565b9350506060611b40888289016119d4565b9250506080611b5188828901611931565b9150509295509295909350565b60008060008060808587031215611b7457600080fd5b6000611b808787611931565b9450506020611b9187828801611931565b9350506040611ba2878288016119d4565b925050606085013567ffffffffffffffff811115611bbf57600080fd5b611add878288016119e0565b60008060008060008060008060008060006101608c8e031215611bed57600080fd5b6000611bf98e8e611931565b9b50506020611c0a8e828f01611931565b9a50506040611c1b8e828f016119d4565b9950506060611c2c8e828f016119d4565b9850506080611c3d8e828f01611931565b97505060a08c013567ffffffffffffffff811115611c5a57600080fd5b611c668e828f016119e0565b96505060c0611c778e828f016119d4565b95505060e0611c888e828f016119bc565b945050610100611c9a8e828f016119d4565b9350506101208c013567ffffffffffffffff811115611cb857600080fd5b611cc48e828f016119e0565b925050610140611cd68e828f016119d4565b9150509295989b509295989b9093969950565b600080600080600060a08688031215611d0157600080fd5b6000611d0d8888611931565b9550506020611d1e88828901611931565b9450506040611d2f888289016119d4565b9350506060611d40888289016119d4565b9250506080611b51888289016119d4565b60008060008060008060c08789031215611d6a57600080fd5b6000611d768989611931565b9650506020611d8789828a01611931565b9550506040611d9889828a016119d4565b9450506060611da989828a016119d4565b9350506080611dba89828a016119d4565b92505060a0611dcb89828a01611931565b9150509295509295509295565b60008060008060008060c08789031215611df157600080fd5b6000611dfd8989611931565b9650506020611e0e89828a01611931565b9550506040611e1f89828a016119d4565b9450506060611e3089828a016119d4565b9350506080611e4189828a016119d4565b92505060a087013567ffffffffffffffff811115611e5e57600080fd5b611dcb89828a0161193d565b60008060008060008060008060006101208a8c031215611e8957600080fd5b6000611e958c8c611931565b9950506020611ea68c828d01611931565b9850506040611eb78c828d016119d4565b9750506060611ec88c828d016119d4565b9650506080611ed98c828d016119d4565b95505060a0611eea8c828d016119bc565b94505060c0611efb8c828d016119d4565b93505060e08a013567ffffffffffffffff811115611f1857600080fd5b611f248c828d016119e0565b925050610100611f368c828d016119d4565b9150509295985092959850929598565b600060208284031215611f5857600080fd5b60006108d684846119c8565b600060208284031215611f7657600080fd5b60006108d68484611a2f565b611f8b816127ed565b82525050565b6000611f9c826127e9565b808452602084019350611fae836127e3565b60005b82811015611fde57611fc4868351611f82565b611fcd826127e3565b602096909601959150600101611fb1565b5093949350505050565b6000611ff3826127e9565b808452602084019350612005836127e3565b60005b82811015611fde5761201b86835161208b565b612024826127e3565b602096909601959150600101612008565b6000612040826127e9565b808452602084019350612052836127e3565b60005b82811015611fde5761206886835161208b565b612071826127e3565b602096909601959150600101612055565b611f8b816127f8565b611f8b8161192e565b600061209f826127e9565b8084526120b3816020860160208601612815565b6120bc81612845565b9093016020019392505050565b602781527f4f6e6c792067726f7570206d656d626572732063616e206164642061206e657760208201527f206d656d62657200000000000000000000000000000000000000000000000000604082015260600190565b602181527f43616e6e6f74206372656174652061207a65726f2d76616c756520636f6d6d6960208201527f7400000000000000000000000000000000000000000000000000000000000000604082015260600190565b600e81527f496e76616c696420636f6d6d6974000000000000000000000000000000000000602082015260400190565b600f81527f5472616e73666572206661696c65640000000000000000000000000000000000602082015260400190565b601d81527f4d75737420626520616c6c6f77656420746f20757365204d6174727978000000602082015260400190565b601581527f436f6d6d697420646f6573206e6f742065786973740000000000000000000000602082015260400190565b602381527f436f6d6d697420616c726561647920637265617465642066726f6d20636f6e7460208201527f656e740000000000000000000000000000000000000000000000000000000000604082015260600190565b601b81527f436f6d6d6974206861736820616c726561647920636c61696d65640000000000602082015260400190565b601581527f466f726b206d757374206861766520706172656e740000000000000000000000602082015260400190565b601b81527f4d75737420626520612070617274206f66207468652067726f75700000000000602082015260400190565b601381527f4e6f2072657761726420617661696c61626c6500000000000000000000000000602082015260400190565b602281527f506172656e74206d757374206265206e756c6c206f72207265616c20636f6d6d60208201527f6974000000000000000000000000000000000000000000000000000000000000604082015260600190565b602a81527f436f6d6d6974206d75737420626520636c61696d656420696e2061207072657660208201527f696f757320626c6f636b00000000000000000000000000000000000000000000604082015260600190565b601e81527f5573657220697320616c726561647920612067726f7570206d656d6265720000602082015260400190565b601581527f436f6d6d697420616c7265616479206578697374730000000000000000000000602082015260400190565b805160009061016084019061246c8582611f82565b50602083015161247f602086018261208b565b506040830151612492604086018261208b565b5060608301516124a5606086018261208b565b50608083015184820360808601526124bd8282612094565b91505060a08301516124d260a086018261208b565b5060c08301516124e560c086018261208b565b5060e08301516124f860e086018261208b565b5061010083015161250d61010086018261208b565b5061012083015161252261012086018261208b565b50610140830151848203610140860152610d7a8282612035565b9052565b6020810161174c8284611f82565b60c0810161255c8289611f82565b6125696020830188611f82565b612576604083018761253c565b612583606083018661253c565b81810360808301526125958185612094565b90506125a460a083018461208b565b979650505050505050565b606081016125bd8286611f82565b6125ca6020830185611f82565b6108d6604083018461208b565b604081016125e58285611f82565b6103b0602083018461208b565b602080825281016103b08184611f91565b602080825281016103b08184611fe8565b6020810161174c828461208b565b60408101612630828561208b565b6103b06020830184611f82565b6080810161264b828761208b565b612658602083018661208b565b6126656040830185611f82565b610d7a6060830184612082565b6020808252810161174c816120c9565b6020808252810161174c8161211f565b6020808252810161174c81612175565b6020808252810161174c816121a5565b6020808252810161174c816121d5565b6020808252810161174c81612205565b6020808252810161174c81612235565b6020808252810161174c8161228b565b6020808252810161174c816122bb565b6020808252810161174c816122eb565b6020808252810161174c8161231b565b6020808252810161174c8161234b565b6020808252810161174c816123a1565b6020808252810161174c816123f7565b6020808252810161174c81612427565b602080825281016103b08184612457565b60405181810167ffffffffffffffff8111828210171561279257600080fd5b604052919050565b600067ffffffffffffffff8211156127b157600080fd5b5060209081020190565b600067ffffffffffffffff8211156127d257600080fd5b506020601f91909101601f19160190565b60200190565b5190565b600061174c826127fd565b151590565b600160a060020a031690565b82818337506000910152565b60005b83811015612830578181015183820152602001612818565b8381111561283f576000848401525b50505050565b601f01601f19169056fea265627a7a723058208d40ab32412148d3a7da512c6a294b73195aa829bcf18c06031a0617fb1b0a146c6578706572696d656e74616cf50037",
  "source": "pragma solidity ^0.5.0;\npragma experimental ABIEncoderV2;\n\nimport \"./SafeMath.sol\";\nimport \"./MatryxPlatform.sol\";\nimport \"./MatryxForwarder.sol\";\nimport \"./MatryxTournament.sol\";\n\nlibrary LibCommit {\n    using SafeMath for uint256;\n\n    event GroupMemberAdded(bytes32 commitHash, address user);\n    event CommitClaimed(bytes32 commitHash);\n    event CommitCreated(bytes32 parentHash, bytes32 commitHash, address creator, bool isFork);\n\n    struct Commit {\n        address owner;\n        uint256 timestamp;\n        bytes32 groupHash;\n        bytes32 commitHash;\n        string content;\n        uint256 value;\n        uint256 ownerTotalValue;\n        uint256 totalValue;\n        uint256 height;\n        bytes32 parentHash;\n        bytes32[] children;\n    }\n\n    struct CommitWithdrawalStats {\n        uint256 totalWithdrawn;\n        mapping(address=>uint256) amountWithdrawn;\n    }\n\n    struct Group {\n        address[] members;\n        mapping(address=>bool) hasMember;\n    }\n\n    /// @dev Returns commit data for the given hash\n    /// @param data        Platform data struct\n    /// @param commitHash  Hash of the commit to return\n    function getCommit(address, address, MatryxPlatform.Data storage data, bytes32 commitHash) public view returns (Commit memory commit) {\n        return data.commits[commitHash];\n    }\n\n    /// @dev Returns commit data for the given hash\n    /// @param data        Platform data struct\n    /// @param commitHash  Commit hash\n    function getBalance(address, address, MatryxPlatform.Data storage data, bytes32 commitHash) public view returns (uint256) {\n        return data.commitBalance[commitHash];\n    }\n\n    /// @dev Returns commit data for the given content hash\n    /// @param data         Platform data struct\n    /// @param content  Content hash commit was created from\n    function getCommitByContent(address, address, MatryxPlatform.Data storage data, string memory content) public view returns (Commit memory commit) {\n        bytes32 lookupHash = keccak256(abi.encodePacked(content));\n        bytes32 commitHash = data.commitHashes[lookupHash];\n        return data.commits[commitHash];\n    }\n\n    /// @dev Returns all initial commits\n    /// @param data    Platform data struct\n    function getInitialCommits(address, address, MatryxPlatform.Data storage data) public view returns (bytes32[] memory) {\n        return data.initialCommits;\n    }\n\n    /// @dev Returns all group members\n    /// @param data        Platform data struct\n    /// @param commitHash  Commit from line of work\n    function getGroupMembers(address, address, MatryxPlatform.Data storage data, bytes32 commitHash) public view returns (address[] memory) {\n        bytes32 groupHash = data.commits[commitHash].groupHash;\n        return data.groups[groupHash].members;\n    }\n\n    /// @dev Returns hashes of all Submissions that were made from this commit\n    /// @param data        Platform data struct\n    /// @param commitHash  Commit hash used for the submissions\n    function getSubmissionsForCommit(address, address, MatryxPlatform.Data storage data, bytes32 commitHash) public view returns (bytes32[] memory) {\n        return data.commitToSubmissions[commitHash];\n    }\n\n    /// @dev Returns true if the user is allowed to use Matryx\n    function _canUseMatryx(MatryxPlatform.Info storage info, MatryxPlatform.Data storage data, address user) internal returns (bool) {\n        if (data.blacklist[user]) return false;\n        if (data.whitelist[user]) return true;\n\n        if (IToken(info.token).balanceOf(user) > 0) {\n            data.whitelist[user] = true;\n            return true;\n        }\n\n        return false;\n    }\n\n    /// @dev Creates a new group\n    /// @param data        Platform data struct\n    /// @param commitHash  Commit that group is made for\n    /// @param user        First user in the group\n    function _createGroup(MatryxPlatform.Data storage data, bytes32 commitHash, address user) internal returns (bytes32) {\n        bytes32 groupHash = keccak256(abi.encodePacked(commitHash));\n        data.groups[groupHash].hasMember[user] = true;\n        data.groups[groupHash].members.push(user);\n        return groupHash;\n    }\n\n    /// @dev Adds a user to a group\n    /// @param sender      msg.sender to the Platform\n    /// @param data        Platform data struct\n    /// @param commitHash  Commit from line of work\n    /// @param user        Member to add to the group\n    function addGroupMember(address, address sender, MatryxPlatform.Info storage info, MatryxPlatform.Data storage data, bytes32 commitHash, address user) public {\n        require(_canUseMatryx(info, data, sender), \"Must be allowed to use Matryx\");\n        require(data.commits[commitHash].owner != address(0), \"Invalid commit\");\n\n        bytes32 groupHash = data.commits[commitHash].groupHash;\n        require(data.groups[groupHash].hasMember[sender], \"Only group members can add a new member\");\n        require(!data.groups[groupHash].hasMember[user], \"User is already a group member\");\n\n        data.groups[groupHash].hasMember[user] = true;\n        data.groups[groupHash].members.push(user);\n\n        emit GroupMemberAdded(commitHash, user);\n    }\n\n    /// @dev Adds multiple users to a group\n    /// @param sender      msg.sender to the Platform\n    /// @param data        Platform data struct\n    /// @param commitHash  Commit from line of work\n    /// @param users       Members to add to the group\n    function addGroupMembers(address, address sender, MatryxPlatform.Info storage info, MatryxPlatform.Data storage data, bytes32 commitHash, address[] memory users) public {\n        require(_canUseMatryx(info, data, sender), \"Must be allowed to use Matryx\");\n        require(data.commits[commitHash].owner != address(0), \"Invalid commit\");\n\n        bytes32 groupHash = data.commits[commitHash].groupHash;\n        require(data.groups[groupHash].hasMember[sender], \"Only group members can add a new member\");\n\n        for(uint256 i = 0; i < users.length; i++) {\n            address user = users[i];\n            if (data.groups[groupHash].hasMember[user]) continue;\n\n            data.groups[groupHash].hasMember[user] = true;\n            data.groups[groupHash].members.push(user);\n\n            emit GroupMemberAdded(commitHash, user);\n        }\n    }\n\n    // commit.claimCommit(web3.utils.keccak(sender, salt, ipfsHash))\n    /// @dev Claims a hash for future use as a commit\n    /// @param sender      msg.sender to the Platform\n    /// @param data        Platform data struct\n    /// @param commitHash  Hash of (sender + salt + content)\n    function claimCommit(address, address sender, MatryxPlatform.Info storage info, MatryxPlatform.Data storage data, bytes32 commitHash) public {\n        require(_canUseMatryx(info, data, sender), \"Must be allowed to use Matryx\");\n        require(data.commitClaims[commitHash] == uint256(0), \"Commit hash already claimed\");\n\n        data.commitClaims[commitHash] = now;\n        emit CommitClaimed(commitHash);\n    }\n\n    /// @dev Reveals the content hash and salt used in the claiming hash and creates the commit\n    /// @param sender       msg.sender to the Platform\n    /// @param info         Platform info struct\n    /// @param data         Platform data struct\n    /// @param parentHash   Parent commit hash\n    /// @param isFork       If parent commit is being forked\n    /// @param salt         Salt that was used in claiming hash\n    /// @param content      Content hash\n    /// @param value        Commit value\n    function createCommit(address, address sender, MatryxPlatform.Info storage info, MatryxPlatform.Data storage data, bytes32 parentHash, bool isFork, bytes32 salt, string memory content, uint256 value) public {\n        require(_canUseMatryx(info, data, sender), \"Must be allowed to use Matryx\");\n        bytes32 commitHash = keccak256(abi.encodePacked(sender, salt, content));\n\n        _createCommit(sender, info, data, parentHash, commitHash, isFork, content, value);\n    }\n\n    /// @dev Creates a commit and submits it to a Tournament\n    /// @param sender       msg.sender to the Platform\n    /// @param info         Platform info struct\n    /// @param data         Platform data struct\n    /// @param tAddress     Tournament address to submit to\n    /// @param content      Submission title and description IPFS hash\n    /// @param parentHash   Parent commit hash\n    /// @param isFork       If fork\n    /// @param salt         Salt that was used in claiming hash\n    /// @param commitContent  Commit content IPFS hash\n    /// @param value        Author-determined commit value\n    function createSubmission(address, address sender, MatryxPlatform.Info storage info, MatryxPlatform.Data storage data, address tAddress, string memory content, bytes32 parentHash, bool isFork, bytes32 salt, string memory commitContent, uint256 value) public {\n        require(_canUseMatryx(info, data, sender), \"Must be allowed to use Matryx\");\n        bytes32 commitHash = keccak256(abi.encodePacked(sender, salt, commitContent));\n\n        _createCommit(sender, info, data, parentHash, commitHash, isFork, commitContent, value);\n        LibTournament.createSubmission(tAddress, sender, info, data, content, commitHash);\n    }\n\n    /// @dev Initializes a new commit\n    /// @param owner        Commit owner\n    /// @param data         Platform data struct\n    /// @param parentHash   Parent commit hash\n    /// @param commitHash   Commit hash\n    /// @param isFork       If commit is fork of parent\n    /// @param content      Commit content IPFS hash\n    /// @param value        Author-determined commit value\n    function _createCommit(address owner, MatryxPlatform.Info storage info, MatryxPlatform.Data storage data, bytes32 parentHash, bytes32 commitHash, bool isFork, string memory content, uint256 value) internal {\n        require(value > 0, \"Cannot create a zero-value commit\");\n        require(data.commits[commitHash].owner == address(0), \"Commit already exists\");\n        require(parentHash == bytes32(0) || data.commits[parentHash].owner != address(0), \"Parent must be null or real commit\");\n\n        uint256 claimTime = data.commitClaims[commitHash];\n        require(claimTime < now, \"Commit must be claimed in a previous block\");\n\n        bytes32 lookupHash = keccak256(abi.encodePacked(content));\n        require(data.commitHashes[lookupHash] == bytes32(0), \"Commit already created from content\");\n\n        // if fork, increase balance of parent\n        if (isFork) {\n            require(parentHash != bytes32(0), \"Fork must have parent\");\n            uint256 totalValue = data.commits[parentHash].totalValue;\n            data.totalBalance = data.totalBalance.add(totalValue);\n            data.commitBalance[parentHash] = data.commitBalance[parentHash].add(totalValue);\n            require(IToken(info.token).transferFrom(owner, address(this), totalValue));\n        }\n\n        bytes32 groupHash;\n        if (isFork || parentHash == bytes32(0)) {\n            // if fork or new commit, create a new group\n            groupHash = _createGroup(data, commitHash, owner);\n        } else {\n            // otherwise use parent's group\n            groupHash = data.commits[parentHash].groupHash;\n            require(data.groups[groupHash].hasMember[owner], \"Must be a part of the group\");\n        }\n\n        // calculate owner total value\n        uint256 ownerTotalValue = value;\n        if (parentHash != bytes32(0)) {\n            bytes32 latest = _getLatestCommitForUser(data, parentHash, owner);\n\n            if (latest != bytes32(0)) {\n                ownerTotalValue = ownerTotalValue.add(data.commits[latest].ownerTotalValue);\n            }\n        }\n\n        // create commit\n        data.commits[commitHash].owner = owner;\n        data.commits[commitHash].timestamp = claimTime;\n        data.commits[commitHash].groupHash = groupHash;\n        data.commits[commitHash].commitHash = commitHash;\n        data.commits[commitHash].content = content;\n        data.commits[commitHash].value = value;\n        data.commits[commitHash].ownerTotalValue = ownerTotalValue;\n        data.commits[commitHash].totalValue = data.commits[parentHash].totalValue.add(value);\n        data.commits[commitHash].height = data.commits[parentHash].height + 1;\n        data.commits[commitHash].parentHash = parentHash;\n\n        data.commitHashes[lookupHash] = commitHash;\n\n        if (parentHash == bytes32(0)) {\n            data.initialCommits.push(commitHash);\n        } else {\n            data.commits[parentHash].children.push(commitHash);\n        }\n\n        emit CommitCreated(parentHash, commitHash, owner, isFork);\n    }\n\n    /// @dev Returns the available reward for a user for a given commit\n    /// @param data        Platform data struct\n    /// @param commitHash  Commit hash to look up the available reward\n    /// @param user        User address\n    /// @return            Amount of MTX the user can withdraw from the given commit\n    function getAvailableRewardForUser(address, address sender, MatryxPlatform.Data storage data, bytes32 commitHash, address user) public view returns (uint256) {\n        bytes32 latestUserCommit = _getLatestCommitForUser(data, commitHash, user);\n        if (latestUserCommit == bytes32(0)) return 0;\n\n        CommitWithdrawalStats storage stats = data.commitWithdrawalStats[commitHash];\n\n        uint256 userValue = data.commits[latestUserCommit].ownerTotalValue;\n        uint256 totalValue = data.commits[commitHash].totalValue;\n        uint256 balance = data.commitBalance[commitHash];\n        uint256 totalBalance = balance.add(stats.totalWithdrawn);\n\n        uint256 userShare = totalBalance.mul(userValue).div(totalValue).sub(stats.amountWithdrawn[user]);\n\n        return userShare;\n    }\n\n    /// @dev Withdraws the caller's available reward for a given commit\n    /// @param sender      msg.sender to the Platform\n    /// @param info        Platform info struct\n    /// @param data        Platform data struct\n    /// @param commitHash  Commit hash to look up the available reward\n    function withdrawAvailableReward(address, address sender, MatryxPlatform.Info storage info, MatryxPlatform.Data storage data, bytes32 commitHash) public {\n        require(_canUseMatryx(info, data, sender), \"Must be allowed to use Matryx\");\n        require(data.commits[commitHash].owner != address(0), \"Commit does not exist\");\n        uint256 userShare = getAvailableRewardForUser(sender, sender, data, commitHash, sender);\n        require(userShare > 0, \"No reward available\");\n\n        CommitWithdrawalStats storage stats = data.commitWithdrawalStats[commitHash];\n\n        data.totalBalance = data.totalBalance.sub(userShare);\n        data.commitBalance[commitHash] = data.commitBalance[commitHash].sub(userShare);\n        stats.totalWithdrawn = stats.totalWithdrawn.add(userShare);\n        stats.amountWithdrawn[sender] = stats.amountWithdrawn[sender].add(userShare);\n\n        require(IToken(info.token).transfer(sender, userShare), \"Transfer failed\");\n    }\n\n    /// @dev Returns the hash of the user's latest commit in the chain of ancestors of commitHash\n    /// @param data        Platform data struct\n    /// @param commitHash  Commit hash to look up the available reward\n    /// @param user        User address\n    /// @return            User's latest commit hash\n    function _getLatestCommitForUser(MatryxPlatform.Data storage data, bytes32 commitHash, address user) internal view returns (bytes32) {\n        Commit storage c = data.commits[commitHash];\n\n        // traverse up until root commit\n        while (true) {\n            if (c.owner == user) return c.commitHash;\n            if (c.parentHash == bytes32(0)) return bytes32(0);\n            c = data.commits[c.parentHash];\n        }\n    }\n}\n",
  "sourcePath": "/Users/maxhoward/Desktop/Ethereum/MatryxPlatform/contracts/LibCommit.sol",
  "compiler": {
    "name": "solc",
    "version": "0.5.0+commit.1d4f565a.Emscripten.clang"
  },
  "schemaVersion": "3.0.2",
  "updatedAt": "2019-03-21T17:57:45.696Z",
  "devdoc": {
    "methods": {
      "addGroupMember(address,address,MatryxPlatform.Info storage,MatryxPlatform.Data storage,bytes32,address)": {
        "details": "Adds a user to a group",
        "params": {
          "commitHash": "Commit from line of work",
          "data": "Platform data struct",
          "sender": "msg.sender to the Platform",
          "user": "Member to add to the group"
        }
      },
      "addGroupMembers(address,address,MatryxPlatform.Info storage,MatryxPlatform.Data storage,bytes32,address[])": {
        "details": "Adds multiple users to a group",
        "params": {
          "commitHash": "Commit from line of work",
          "data": "Platform data struct",
          "sender": "msg.sender to the Platform",
          "users": "Members to add to the group"
        }
      },
      "claimCommit(address,address,MatryxPlatform.Info storage,MatryxPlatform.Data storage,bytes32)": {
        "details": "Claims a hash for future use as a commit",
        "params": {
          "commitHash": "Hash of (sender + salt + content)",
          "data": "Platform data struct",
          "sender": "msg.sender to the Platform"
        }
      },
      "createCommit(address,address,MatryxPlatform.Info storage,MatryxPlatform.Data storage,bytes32,bool,bytes32,string,uint256)": {
        "details": "Reveals the content hash and salt used in the claiming hash and creates the commit",
        "params": {
          "content": "Content hash",
          "data": "Platform data struct",
          "info": "Platform info struct",
          "isFork": "If parent commit is being forked",
          "parentHash": "Parent commit hash",
          "salt": "Salt that was used in claiming hash",
          "sender": "msg.sender to the Platform",
          "value": "Commit value"
        }
      },
      "createSubmission(address,address,MatryxPlatform.Info storage,MatryxPlatform.Data storage,address,string,bytes32,bool,bytes32,string,uint256)": {
        "details": "Creates a commit and submits it to a Tournament",
        "params": {
          "commitContent": "Commit content IPFS hash",
          "content": "Submission title and description IPFS hash",
          "data": "Platform data struct",
          "info": "Platform info struct",
          "isFork": "If fork",
          "parentHash": "Parent commit hash",
          "salt": "Salt that was used in claiming hash",
          "sender": "msg.sender to the Platform",
          "tAddress": "Tournament address to submit to",
          "value": "Author-determined commit value"
        }
      },
      "getAvailableRewardForUser(address,address,MatryxPlatform.Data storage,bytes32,address)": {
        "details": "Returns the available reward for a user for a given commit",
        "params": {
          "commitHash": "Commit hash to look up the available reward",
          "data": "Platform data struct",
          "user": "User address"
        },
        "return": "Amount of MTX the user can withdraw from the given commit"
      },
      "getBalance(address,address,MatryxPlatform.Data storage,bytes32)": {
        "details": "Returns commit data for the given hash",
        "params": {
          "commitHash": "Commit hash",
          "data": "Platform data struct"
        }
      },
      "getCommit(address,address,MatryxPlatform.Data storage,bytes32)": {
        "details": "Returns commit data for the given hash",
        "params": {
          "commitHash": "Hash of the commit to return",
          "data": "Platform data struct"
        }
      },
      "getCommitByContent(address,address,MatryxPlatform.Data storage,string)": {
        "details": "Returns commit data for the given content hash",
        "params": {
          "content": "Content hash commit was created from",
          "data": "Platform data struct"
        }
      },
      "getGroupMembers(address,address,MatryxPlatform.Data storage,bytes32)": {
        "details": "Returns all group members",
        "params": {
          "commitHash": "Commit from line of work",
          "data": "Platform data struct"
        }
      },
      "getInitialCommits(address,address,MatryxPlatform.Data storage)": {
        "details": "Returns all initial commits",
        "params": {
          "data": "Platform data struct"
        }
      },
      "getSubmissionsForCommit(address,address,MatryxPlatform.Data storage,bytes32)": {
        "details": "Returns hashes of all Submissions that were made from this commit",
        "params": {
          "commitHash": "Commit hash used for the submissions",
          "data": "Platform data struct"
        }
      },
      "withdrawAvailableReward(address,address,MatryxPlatform.Info storage,MatryxPlatform.Data storage,bytes32)": {
        "details": "Withdraws the caller's available reward for a given commit",
        "params": {
          "commitHash": "Commit hash to look up the available reward",
          "data": "Platform data struct",
          "info": "Platform info struct",
          "sender": "msg.sender to the Platform"
        }
      }
    }
  },
  "userdoc": {
    "methods": {}
  }
}