{
  "contractName": "LibPlatform",
  "abi": [
    {
      "anonymous": false,
      "inputs": [
        {
          "indexed": false,
          "name": "tournament",
          "type": "address"
        },
        {
          "indexed": false,
          "name": "creator",
          "type": "address"
        }
      ],
      "name": "TournamentCreated",
      "type": "event",
      "signature": "0xf56acdced4755840dcfd0a6bde3ec57cd0868177647107fefb8a2bce07c3e618"
    },
    {
      "constant": true,
      "inputs": [
        {
          "name": "",
          "type": "address"
        },
        {
          "name": "",
          "type": "address"
        },
        {
          "name": "info",
          "type": "MatryxPlatform.Info storage"
        }
      ],
      "name": "getInfo",
      "outputs": [
        {
          "components": [
            {
              "name": "system",
              "type": "address"
            },
            {
              "name": "token",
              "type": "address"
            },
            {
              "name": "owner",
              "type": "address"
            }
          ],
          "name": "",
          "type": "tuple"
        }
      ],
      "payable": false,
      "stateMutability": "view",
      "type": "function",
      "signature": "0x2c27d013"
    },
    {
      "constant": true,
      "inputs": [
        {
          "name": "",
          "type": "address"
        },
        {
          "name": "",
          "type": "address"
        },
        {
          "name": "data",
          "type": "MatryxPlatform.Data storage"
        },
        {
          "name": "tAddress",
          "type": "address"
        }
      ],
      "name": "isTournament",
      "outputs": [
        {
          "name": "",
          "type": "bool"
        }
      ],
      "payable": false,
      "stateMutability": "view",
      "type": "function",
      "signature": "0xcda2084d"
    },
    {
      "constant": true,
      "inputs": [
        {
          "name": "",
          "type": "address"
        },
        {
          "name": "",
          "type": "address"
        },
        {
          "name": "data",
          "type": "MatryxPlatform.Data storage"
        },
        {
          "name": "cHash",
          "type": "bytes32"
        }
      ],
      "name": "isCommit",
      "outputs": [
        {
          "name": "",
          "type": "bool"
        }
      ],
      "payable": false,
      "stateMutability": "view",
      "type": "function",
      "signature": "0xf76c668e"
    },
    {
      "constant": true,
      "inputs": [
        {
          "name": "",
          "type": "address"
        },
        {
          "name": "",
          "type": "address"
        },
        {
          "name": "data",
          "type": "MatryxPlatform.Data storage"
        },
        {
          "name": "sHash",
          "type": "bytes32"
        }
      ],
      "name": "isSubmission",
      "outputs": [
        {
          "name": "",
          "type": "bool"
        }
      ],
      "payable": false,
      "stateMutability": "view",
      "type": "function",
      "signature": "0xc71db8ba"
    },
    {
      "constant": true,
      "inputs": [
        {
          "name": "",
          "type": "address"
        },
        {
          "name": "",
          "type": "address"
        },
        {
          "name": "data",
          "type": "MatryxPlatform.Data storage"
        }
      ],
      "name": "getTotalBalance",
      "outputs": [
        {
          "name": "",
          "type": "uint256"
        }
      ],
      "payable": false,
      "stateMutability": "view",
      "type": "function",
      "signature": "0x7f279bd0"
    },
    {
      "constant": true,
      "inputs": [
        {
          "name": "",
          "type": "address"
        },
        {
          "name": "",
          "type": "address"
        },
        {
          "name": "data",
          "type": "MatryxPlatform.Data storage"
        }
      ],
      "name": "getTournamentCount",
      "outputs": [
        {
          "name": "",
          "type": "uint256"
        }
      ],
      "payable": false,
      "stateMutability": "view",
      "type": "function",
      "signature": "0x54b73af5"
    },
    {
      "constant": true,
      "inputs": [
        {
          "name": "",
          "type": "address"
        },
        {
          "name": "",
          "type": "address"
        },
        {
          "name": "data",
          "type": "MatryxPlatform.Data storage"
        }
      ],
      "name": "getTournaments",
      "outputs": [
        {
          "name": "",
          "type": "address[]"
        }
      ],
      "payable": false,
      "stateMutability": "view",
      "type": "function",
      "signature": "0x275111eb"
    },
    {
      "constant": true,
      "inputs": [
        {
          "name": "",
          "type": "address"
        },
        {
          "name": "",
          "type": "address"
        },
        {
          "name": "data",
          "type": "MatryxPlatform.Data storage"
        },
        {
          "name": "submissionHash",
          "type": "bytes32"
        }
      ],
      "name": "getSubmission",
      "outputs": [
        {
          "components": [
            {
              "name": "tournament",
              "type": "address"
            },
            {
              "name": "roundIndex",
              "type": "uint256"
            },
            {
              "name": "commitHash",
              "type": "bytes32"
            },
            {
              "name": "content",
              "type": "string"
            },
            {
              "name": "reward",
              "type": "uint256"
            },
            {
              "name": "timestamp",
              "type": "uint256"
            }
          ],
          "name": "",
          "type": "tuple"
        }
      ],
      "payable": false,
      "stateMutability": "view",
      "type": "function",
      "signature": "0x348785e9"
    },
    {
      "constant": false,
      "inputs": [
        {
          "name": "",
          "type": "address"
        },
        {
          "name": "sender",
          "type": "address"
        },
        {
          "name": "info",
          "type": "MatryxPlatform.Info storage"
        },
        {
          "name": "data",
          "type": "MatryxPlatform.Data storage"
        },
        {
          "name": "user",
          "type": "address"
        }
      ],
      "name": "blacklist",
      "outputs": [],
      "payable": false,
      "stateMutability": "nonpayable",
      "type": "function",
      "signature": "0x550dcc3a"
    },
    {
      "constant": false,
      "inputs": [
        {
          "name": "",
          "type": "address"
        },
        {
          "name": "sender",
          "type": "address"
        },
        {
          "name": "info",
          "type": "MatryxPlatform.Info storage"
        },
        {
          "name": "data",
          "type": "MatryxPlatform.Data storage"
        },
        {
          "components": [
            {
              "name": "content",
              "type": "string"
            },
            {
              "name": "bounty",
              "type": "uint256"
            },
            {
              "name": "entryFee",
              "type": "uint256"
            }
          ],
          "name": "tDetails",
          "type": "tuple"
        },
        {
          "components": [
            {
              "name": "start",
              "type": "uint256"
            },
            {
              "name": "duration",
              "type": "uint256"
            },
            {
              "name": "review",
              "type": "uint256"
            },
            {
              "name": "bounty",
              "type": "uint256"
            }
          ],
          "name": "rDetails",
          "type": "tuple"
        }
      ],
      "name": "createTournament",
      "outputs": [
        {
          "name": "",
          "type": "address"
        }
      ],
      "payable": false,
      "stateMutability": "nonpayable",
      "type": "function",
      "signature": "0xa70e8fe3"
    }
  ],
  "bytecode": "0x61194b610030600b82828239805160001a6073146000811461002057610022565bfe5b5030600052607381538281f3fe7300000000000000000000000000000000000000003014608060405260043610620000c55763ffffffff7c0100000000000000000000000000000000000000000000000000000000600035041663275111eb8114620000ca5780632ba215d814620000f95780632c27d013146200012d578063348785e9146200015357806354b73af51462000179578063550dcc3a146200019f5780637f279bd014620001c6578063c71db8ba14620001dd578063cda2084d1462000203578063f76c668e146200021a575b600080fd5b620000e1620000db36600462000e04565b62000231565b604051620000f09190620014af565b60405180910390f35b8180156200010657600080fd5b506200011e6200011836600462000fa0565b6200029c565b604051620000f09190620013e6565b620001446200013e36600462000e04565b620007f6565b604051620000f091906200153e565b6200016a6200016436600462000ec2565b62000839565b604051620000f091906200154e565b620001906200018a36600462000e04565b62000939565b604051620000f0919062001561565b818015620001ac57600080fd5b50620001c4620001be36600462000f20565b62000943565b005b62000190620001d736600462000e04565b620009a2565b620001f4620001ee36600462000ec2565b620009a9565b604051620000f09190620014c2565b620001f46200021436600462000e58565b620009cd565b620001f46200022b36600462000ec2565b620009f7565b6060816005018054806020026020016040519081016040528092919081815260200182805480156200028d57602002820191906000526020600020905b8154600160a060020a031681526001909101906020018083116200026e575b505050505090505b9392505050565b6000620002ab85858862000a1b565b1515620002d85760405160e560020a62461bcd028152600401620002cf90620014e4565b60405180910390fd5b6020830151600010620003025760405160e560020a62461bcd028152600401620002cf9062001508565b602083015160608301511115620003305760405160e560020a62461bcd028152600401620002cf906200151a565b602083015160018601546040517fdd62ed3e000000000000000000000000000000000000000000000000000000008152600160a060020a039091169063dd62ed3e9062000384908a903090600401620013f6565b60206040518083038186803b1580156200039d57600080fd5b505afa158015620003b2573d6000803e3d6000fd5b505050506040513d601f19601f82011682018060405250620003d891908101906200106f565b1015620003fc5760405160e560020a62461bcd028152600401620002cf906200152c565b8454604080517f0d8e6e2c0000000000000000000000000000000000000000000000000000000081529051600092600160a060020a031691630d8e6e2c916004808301926020929190829003018186803b1580156200045a57600080fd5b505afa1580156200046f573d6000803e3d6000fd5b505050506040513d601f19601f820116820180604052506200049591908101906200106f565b86549091506000908290600160a060020a0316620004b262000b70565b620004bf92919062001571565b604051809103906000f080158015620004dc573d6000803e3d6000fd5b5087546040517f6226d738000000000000000000000000000000000000000000000000000000008152919250600160a060020a031690636226d738906200052b90849060039060040162001490565b600060405180830381600087803b1580156200054657600080fd5b505af11580156200055b573d6000803e3d6000fd5b505050506005860180546001808201835560009283526020808420909201805473ffffffffffffffffffffffffffffffffffffffff19908116600160a060020a03878116918217909355855260038b01845260409094208681559182018054909416908c16179092558651805188926002850192620005e1928492919091019062000b81565b50602082810151600183015560409092015160029091015586015187546200060f9163ffffffff62000b5716565b875560208087018051600160a060020a0380861660009081526001808d0190955260409081902092909255928b0154915190517f23b872dd00000000000000000000000000000000000000000000000000000000815291909216916323b872dd9162000683918d9130919060040162001462565b602060405180830381600087803b1580156200069e57600080fd5b505af1158015620006b3573d6000803e3d6000fd5b505050506040513d601f19601f82011682018060405250620006d991908101906200104e565b1515620006fd5760405160e560020a62461bcd028152600401620002cf90620014d2565b6040517f13f957a000000000000000000000000000000000000000000000000000000000815273__LibTournament_________________________906313f957a0906200075790859030908d908d908c9060040162001415565b60206040518083038186803b1580156200077057600080fd5b505af415801562000785573d6000803e3d6000fd5b505050506040513d601f19601f82011682018060405250620007ab91908101906200106f565b507ff56acdced4755840dcfd0a6bde3ec57cd0868177647107fefb8a2bce07c3e618828a604051620007df929190620013f6565b60405180910390a1509150505b9695505050505050565b6200080062000c06565b50604080516060810182528254600160a060020a0390811682526001840154811660208301526002909301549092169082015292915050565b6200084362000c26565b6000828152600484016020908152604091829020825160c0810184528154600160a060020a03168152600180830154828501526002808401548387015260038401805487516101009482161594909402600019011691909104601f810186900486028301860190965285825291949293606086019391929190830182828015620009115780601f10620008e55761010080835404028352916020019162000911565b820191906000526020600020905b815481529060010190602001808311620008f357829003601f168201915b505050505081526020016004820154815260200160058201548152505090505b949350505050565b6005015492915050565b6002830154600160a060020a03858116911614620009785760405160e560020a62461bcd028152600401620002cf90620014f6565b600160a060020a03166000908152600e90910160205260409020805460ff19166001179055505050565b5492915050565b6000818152600483016020526040902054600160a060020a03161515949350505050565b600160a060020a038181166000908152600384016020526040902060010154161515949350505050565b6000818152600683016020526040902054600160a060020a03161515949350505050565b600160a060020a0381166000908152600e8301602052604081205460ff161562000a485750600062000295565b600160a060020a0382166000908152600d8401602052604090205460ff161562000a755750600162000295565b60018401546040517f70a08231000000000000000000000000000000000000000000000000000000008152600091600160a060020a0316906370a082319062000ac3908690600401620013e6565b60206040518083038186803b15801562000adc57600080fd5b505afa15801562000af1573d6000803e3d6000fd5b505050506040513d601f19601f8201168201806040525062000b1791908101906200106f565b111562000b4d5750600160a060020a0381166000908152600d830160205260409020805460ff1916600190811790915562000295565b5060009392505050565b60008282018381101562000b6757fe5b90505b92915050565b6040516102d2806200164083390190565b828054600181600116156101000203166002900490600052602060002090601f016020900481019282601f1062000bc457805160ff191683800117855562000bf4565b8280016001018555821562000bf4579182015b8281111562000bf457825182559160200191906001019062000bd7565b5062000c0292915062000c5a565b5090565b604080516060810182526000808252602082018190529181019190915290565b6040805160c0810182526000808252602082018190529181018290526060808201526080810182905260a081019190915290565b62000c7791905b8082111562000c02576000815560010162000c61565b90565b6000620002958235620015dc565b6000620002958251620015e9565b600062000295823562000c77565b6000601f8201831362000cb657600080fd5b813562000ccd62000cc782620015a9565b62001581565b9150808252602083016020830185838301111562000cea57600080fd5b62000cf7838284620015fa565b50505092915050565b60006080828403121562000d1357600080fd5b62000d1f608062001581565b9050600062000d2f848462000c96565b825250602062000d428484830162000c96565b602083015250604062000d588482850162000c96565b604083015250606062000d6e8482850162000c96565b60608301525092915050565b60006060828403121562000d8d57600080fd5b62000d99606062001581565b9050813567ffffffffffffffff81111562000db357600080fd5b62000dc18482850162000ca4565b825250602062000dd48484830162000c96565b602083015250604062000dea8482850162000c96565b60408301525092915050565b600062000295825162000c77565b60008060006060848603121562000e1a57600080fd5b600062000e28868662000c7a565b935050602062000e3b8682870162000c7a565b925050604062000e4e8682870162000c96565b9150509250925092565b6000806000806080858703121562000e6f57600080fd5b600062000e7d878762000c7a565b945050602062000e908782880162000c7a565b935050604062000ea38782880162000c96565b925050606062000eb68782880162000c7a565b91505092959194509250565b6000806000806080858703121562000ed957600080fd5b600062000ee7878762000c7a565b945050602062000efa8782880162000c7a565b935050604062000f0d8782880162000c96565b925050606062000eb68782880162000c96565b600080600080600060a0868803121562000f3957600080fd5b600062000f47888862000c7a565b955050602062000f5a8882890162000c7a565b945050604062000f6d8882890162000c96565b935050606062000f808882890162000c96565b925050608062000f938882890162000c7a565b9150509295509295909350565b600080600080600080610120878903121562000fbb57600080fd5b600062000fc9898962000c7a565b965050602062000fdc89828a0162000c7a565b955050604062000fef89828a0162000c96565b94505060606200100289828a0162000c96565b935050608087013567ffffffffffffffff8111156200102057600080fd5b6200102e89828a0162000d7a565b92505060a06200104189828a0162000d00565b9150509295509295509295565b6000602082840312156200106157600080fd5b600062000931848462000c88565b6000602082840312156200108257600080fd5b600062000931848462000df6565b6200109b81620015dc565b82525050565b6000620010ae82620015d8565b808452602084019350620010c283620015d2565b60005b82811015620010f857620010db86835162001090565b620010e682620015d2565b602096909601959150600101620010c5565b5093949350505050565b6200109b81620015e9565b6200109b8162000c77565b60006200112582620015d8565b8084526200113b81602086016020860162001606565b620011468162001635565b9093016020019392505050565b600f81527f5472616e73666572206661696c65640000000000000000000000000000000000602082015260400190565b601d81527f4d75737420626520616c6c6f77656420746f20757365204d6174727978000000602082015260400190565b601681527f4d75737420626520506c6174666f726d206f776e657200000000000000000000602082015260400190565b602881527f546f75726e616d656e7420626f756e7479206d7573742062652067726561746560208201527f72207468616e2030000000000000000000000000000000000000000000000000604082015260600190565b602c81527f526f756e6420626f756e74792063616e6e6f742065786365656420546f75726e60208201527f616d656e7420626f756e74790000000000000000000000000000000000000000604082015260600190565b601081527f496e73756666696369656e74204d545800000000000000000000000000000000602082015260400190565b9052565b80516060830190620012d6848262001090565b506020820151620012eb602085018262001090565b50604082015162001300604085018262001090565b50505050565b805160808301906200131984826200110d565b5060208201516200132e60208501826200110d565b5060408201516200134360408501826200110d565b5060608201516200130060608501826200110d565b805160009060c08401906200136e858262001090565b5060208301516200138360208601826200110d565b5060408301516200139860408601826200110d565b5060608301518482036060860152620013b2828262001118565b9150506080830151620013c960808601826200110d565b5060a0830151620013de60a08601826200110d565b509392505050565b6020810162000b6a828462001090565b6040810162001406828562001090565b62000295602083018462001090565b610100810162001426828862001090565b62001435602083018762001090565b620014446040830186620012bf565b620014536060830185620012bf565b620007ec608083018462001306565b6060810162001472828662001090565b62001481602083018562001090565b6200093160408301846200110d565b60408101620014a0828562001090565b6200029560208301846200110d565b60208082528101620002958184620010a1565b6020810162000b6a828462001102565b6020808252810162000b6a8162001153565b6020808252810162000b6a8162001183565b6020808252810162000b6a81620011b3565b6020808252810162000b6a81620011e3565b6020808252810162000b6a8162001239565b6020808252810162000b6a816200128f565b6060810162000b6a8284620012c3565b6020808252810162000295818462001358565b6020810162000b6a82846200110d565b604081016200140682856200110d565b60405181810167ffffffffffffffff81118282101715620015a157600080fd5b604052919050565b600067ffffffffffffffff821115620015c157600080fd5b506020601f91909101601f19160190565b60200190565b5190565b600062000b6a82620015ee565b151590565b600160a060020a031690565b82818337506000910152565b60005b838110156200162357818101518382015260200162001609565b83811115620013005750506000910152565b601f01601f19169056fe608060405234801561001057600080fd5b506040516040806102d2833981018060405261002f9190810190610078565b60009190915560018054600160a060020a031916600160a060020a039092169190911790556100d2565b600061006582516100be565b9392505050565b600061006582516100cf565b6000806040838503121561008b57600080fd5b6000610097858561006c565b92505060206100a885828601610059565b9150509250929050565b600160a060020a031690565b60006100c9826100b2565b92915050565b90565b6101f1806100e16000396000f3fe608060405234801561001057600080fd5b50600080546001546040517fc53cfd9a00000000000000000000000000000000000000000000000000000000815291929173ffffffffffffffffffffffffffffffffffffffff9091169063c53cfd9a906100909085907f4d6174727978506c6174666f726d0000000000000000000000000000000000009060040161016f565b60206040518083038186803b1580156100a857600080fd5b505afa1580156100bc573d6000803e3d6000fd5b505050506040513d601f19601f820116820180604052506100e0919081019061013a565b90506040516000600460008337336004830152836024830152600436036004604484013760008060403601846000875af190503d6000833e801515610123573d82fd5b3d82f35b600061013382516101a6565b9392505050565b60006020828403121561014c57600080fd5b60006101588484610127565b949350505050565b6101698161018a565b82525050565b6040810161017d8285610160565b6101336020830184610160565b90565b73ffffffffffffffffffffffffffffffffffffffff1690565b60006101b18261018d565b9291505056fea265627a7a72305820d55bd606c1ec6afe2bf1e016109e4ed1453ffc76772f255fb38c916c6edf46606c6578706572696d656e74616cf50037a265627a7a72305820428ecceefffdcb68f373c81c8ce5d8fbfbde08519bcb281e0e70544644271a636c6578706572696d656e74616cf50037",
  "source": "pragma solidity ^0.5.0;\npragma experimental ABIEncoderV2;\n\nimport \"./SafeMath.sol\";\nimport \"./LibGlobals.sol\";\nimport \"./IToken.sol\";\n\nimport \"./MatryxSystem.sol\";\nimport \"./MatryxCommit.sol\";\nimport \"./MatryxTournament.sol\";\n\nlibrary LibPlatform {\n    using SafeMath for uint256;\n\n    event TournamentCreated(address tournament, address creator);\n\n    function _canUseMatryx(MatryxPlatform.Info storage info, MatryxPlatform.Data storage data, address user) internal returns (bool) {\n        if (data.blacklist[user]) return false;\n        if (data.whitelist[user]) return true;\n\n        if (IToken(info.token).balanceOf(user) > 0) {\n            data.whitelist[user] = true;\n            return true;\n        }\n\n        return false;\n    }\n\n    /// @dev Gets information about the Platform\n    /// @param info    Platform info struct\n    /// @return  Info Struct that contains system, token, and owner\n    function getInfo(address, address, MatryxPlatform.Info storage info) public view returns (MatryxPlatform.Info memory) {\n        return info;\n    }\n\n    /// @dev Return if a Tournament exists\n    /// @param data      Platform data struct\n    /// @param tAddress  Tournament address\n    /// @return          true if Tournament exists\n    function isTournament(address, address, MatryxPlatform.Data storage data, address tAddress) public view returns (bool) {\n        return data.tournaments[tAddress].info.owner != address(0);\n    }\n\n    /// @dev Return if a Commit exists\n    /// @param data      Platform data struct\n    /// @param cHash     Commit hash\n    /// @return          true if Commit exists\n    function isCommit(address, address, MatryxPlatform.Data storage data, bytes32 cHash) public view returns (bool){\n        return data.commits[cHash].owner != address(0);\n    }\n\n    /// @dev Return if a Submission exists\n    /// @param data      Platform data struct\n    /// @param sHash     Submission hash\n    /// @return          true if Submission exists\n    function isSubmission(address, address, MatryxPlatform.Data storage data, bytes32 sHash) public view returns (bool){\n        return data.submissions[sHash].tournament != address(0);\n    }\n\n    /// @dev Return total allocated MTX in Platform\n    /// @param data  Platform data struct\n    /// @return      Total allocated MTX in Platform\n    function getTotalBalance(address, address, MatryxPlatform.Data storage data) public view returns (uint256) {\n        return data.totalBalance;\n    }\n\n    /// @dev Return total number of Tournaments\n    /// @param data  Platform data struct\n    /// @return      Number of Tournaments on Platform\n    function getTournamentCount(address, address, MatryxPlatform.Data storage data) public view returns (uint256) {\n        return data.allTournaments.length;\n    }\n\n    /// @dev Return all Tournaments addresses\n    /// @param data  Platform data struct\n    /// @return      Array of Tournament addresses\n    function getTournaments(address, address, MatryxPlatform.Data storage data) public view returns (address[] memory) {\n        return data.allTournaments;\n    }\n\n    /// @dev Returns a Submission by its hash\n    /// @param data            Platform data struct\n    /// @param submissionHash  Submission hash\n    /// @return                The submission details\n    function getSubmission(address, address, MatryxPlatform.Data storage data, bytes32 submissionHash) external view returns (LibTournament.SubmissionData memory) {\n        return data.submissions[submissionHash];\n    }\n\n    /// @dev Blacklists a user address\n    /// @param info  Platform info struct\n    /// @param data  Platform data struct\n    /// @param user  User address\n    function blacklist(address, address sender, MatryxPlatform.Info storage info, MatryxPlatform.Data storage data, address user) public {\n        require(sender == info.owner, \"Must be Platform owner\");\n        data.blacklist[user] = true;\n    }\n\n    /// @dev Creates a Tournament\n    /// @param sender    msg.sender to Platform\n    /// @param info      Platform info struct\n    /// @param data      Platform data struct\n    /// @param tDetails  Tournament details (content, bounty, entryFee)\n    /// @param rDetails  Round details (start, end, review, bounty)\n    /// @return          Address of the created Tournament\n    function createTournament(address, address sender, MatryxPlatform.Info storage info, MatryxPlatform.Data storage data, LibTournament.TournamentDetails memory tDetails, LibTournament.RoundDetails memory rDetails) public returns (address) {\n        require(_canUseMatryx(info, data, sender), \"Must be allowed to use Matryx\");\n\n        require(tDetails.bounty > 0, \"Tournament bounty must be greater than 0\");\n        require(rDetails.bounty <= tDetails.bounty, \"Round bounty cannot exceed Tournament bounty\");\n        require(IToken(info.token).allowance(sender, address(this)) >= tDetails.bounty, \"Insufficient MTX\");\n\n        uint256 version = IMatryxSystem(info.system).getVersion();\n        address tAddress = address(new MatryxTournament(version, info.system));\n\n        IMatryxSystem(info.system).setContractType(tAddress, uint256(LibSystem.ContractType.Tournament));\n        data.allTournaments.push(tAddress);\n\n        LibTournament.TournamentData storage tournament = data.tournaments[tAddress];\n        tournament.info.version = version;\n        tournament.info.owner = sender;\n        tournament.details = tDetails;\n\n        data.totalBalance = data.totalBalance.add(tDetails.bounty);\n        data.tournamentBalance[tAddress] = tDetails.bounty;\n        require(IToken(info.token).transferFrom(sender, address(this), tDetails.bounty), \"Transfer failed\");\n\n        LibTournament.createRound(tAddress, address(this), info, data, rDetails);\n\n        emit TournamentCreated(tAddress, sender);\n        return tAddress;\n    }\n}",
  "sourcePath": "/Users/maxhoward/Desktop/Ethereum/MatryxPlatform/contracts/LibPlatform.sol",
  "compiler": {
    "name": "solc",
    "version": "0.5.0+commit.1d4f565a.Emscripten.clang"
  },
  "schemaVersion": "3.0.2",
  "updatedAt": "2019-03-15T16:48:15.603Z",
  "devdoc": {
    "methods": {
      "blacklist(address,address,MatryxPlatform.Info storage,MatryxPlatform.Data storage,address)": {
        "details": "Blacklists a user address",
        "params": {
          "data": "Platform data struct",
          "info": "Platform info struct",
          "user": "User address"
        }
      },
      "createTournament(address,address,MatryxPlatform.Info storage,MatryxPlatform.Data storage,LibTournament.TournamentDetails,LibTournament.RoundDetails)": {
        "details": "Creates a Tournament",
        "params": {
          "data": "Platform data struct",
          "info": "Platform info struct",
          "rDetails": "Round details (start, end, review, bounty)",
          "sender": "msg.sender to Platform",
          "tDetails": "Tournament details (content, bounty, entryFee)"
        },
        "return": "Address of the created Tournament"
      },
      "getInfo(address,address,MatryxPlatform.Info storage)": {
        "details": "Gets information about the Platform",
        "params": {
          "info": "Platform info struct"
        },
        "return": "Info Struct that contains system, token, and owner"
      },
      "getSubmission(address,address,MatryxPlatform.Data storage,bytes32)": {
        "details": "Returns a Submission by its hash",
        "params": {
          "data": "Platform data struct",
          "submissionHash": "Submission hash"
        },
        "return": "The submission details"
      },
      "getTotalBalance(address,address,MatryxPlatform.Data storage)": {
        "details": "Return total allocated MTX in Platform",
        "params": {
          "data": "Platform data struct"
        },
        "return": "Total allocated MTX in Platform"
      },
      "getTournamentCount(address,address,MatryxPlatform.Data storage)": {
        "details": "Return total number of Tournaments",
        "params": {
          "data": "Platform data struct"
        },
        "return": "Number of Tournaments on Platform"
      },
      "getTournaments(address,address,MatryxPlatform.Data storage)": {
        "details": "Return all Tournaments addresses",
        "params": {
          "data": "Platform data struct"
        },
        "return": "Array of Tournament addresses"
      },
      "isCommit(address,address,MatryxPlatform.Data storage,bytes32)": {
        "details": "Return if a Commit exists",
        "params": {
          "cHash": "Commit hash",
          "data": "Platform data struct"
        },
        "return": "true if Commit exists"
      },
      "isSubmission(address,address,MatryxPlatform.Data storage,bytes32)": {
        "details": "Return if a Submission exists",
        "params": {
          "data": "Platform data struct",
          "sHash": "Submission hash"
        },
        "return": "true if Submission exists"
      },
      "isTournament(address,address,MatryxPlatform.Data storage,address)": {
        "details": "Return if a Tournament exists",
        "params": {
          "data": "Platform data struct",
          "tAddress": "Tournament address"
        },
        "return": "true if Tournament exists"
      }
    }
  },
  "userdoc": {
    "methods": {}
  }
}