{
  "contractName": "LibPlatform2",
  "abi": [
    {
      "constant": true,
      "inputs": [
        {
          "name": "",
          "type": "address"
        },
        {
          "name": "",
          "type": "address"
        },
        {
          "name": "info",
          "type": "MatryxPlatform.Info storage"
        }
      ],
      "name": "getInfo",
      "outputs": [
        {
          "components": [
            {
              "name": "system",
              "type": "address"
            },
            {
              "name": "token",
              "type": "address"
            },
            {
              "name": "owner",
              "type": "address"
            }
          ],
          "name": "",
          "type": "tuple"
        }
      ],
      "payable": false,
      "stateMutability": "view",
      "type": "function"
    },
    {
      "constant": false,
      "inputs": [
        {
          "name": "",
          "type": "address"
        },
        {
          "name": "",
          "type": "address"
        },
        {
          "name": "info",
          "type": "MatryxPlatform.Info storage"
        },
        {
          "name": "token",
          "type": "address"
        }
      ],
      "name": "setToken",
      "outputs": [],
      "payable": false,
      "stateMutability": "nonpayable",
      "type": "function"
    },
    {
      "constant": true,
      "inputs": [
        {
          "name": "",
          "type": "address"
        },
        {
          "name": "",
          "type": "address"
        },
        {
          "name": "",
          "type": "MatryxPlatform.Info storage"
        }
      ],
      "name": "getTwo",
      "outputs": [
        {
          "name": "number",
          "type": "uint256"
        }
      ],
      "payable": false,
      "stateMutability": "pure",
      "type": "function"
    },
    {
      "constant": true,
      "inputs": [
        {
          "name": "",
          "type": "address"
        },
        {
          "name": "",
          "type": "address"
        },
        {
          "name": "",
          "type": "MatryxPlatform.Data storage"
        }
      ],
      "name": "getTournamentCount",
      "outputs": [
        {
          "name": "count",
          "type": "uint256"
        }
      ],
      "payable": false,
      "stateMutability": "pure",
      "type": "function"
    },
    {
      "constant": true,
      "inputs": [
        {
          "name": "",
          "type": "address"
        },
        {
          "name": "",
          "type": "address"
        },
        {
          "name": "data",
          "type": "MatryxPlatform.Data storage"
        },
        {
          "name": "tAddress",
          "type": "address"
        }
      ],
      "name": "isTournament",
      "outputs": [
        {
          "name": "",
          "type": "bool"
        }
      ],
      "payable": false,
      "stateMutability": "view",
      "type": "function"
    },
    {
      "constant": true,
      "inputs": [
        {
          "name": "",
          "type": "address"
        },
        {
          "name": "",
          "type": "address"
        },
        {
          "name": "data",
          "type": "MatryxPlatform.Data storage"
        }
      ],
      "name": "getTournaments",
      "outputs": [
        {
          "name": "",
          "type": "address[]"
        }
      ],
      "payable": false,
      "stateMutability": "view",
      "type": "function"
    },
    {
      "constant": false,
      "inputs": [
        {
          "name": "",
          "type": "address"
        },
        {
          "name": "sender",
          "type": "address"
        },
        {
          "name": "info",
          "type": "MatryxPlatform.Info storage"
        },
        {
          "name": "data",
          "type": "MatryxPlatform.Data storage"
        }
      ],
      "name": "createTournament",
      "outputs": [
        {
          "name": "",
          "type": "address"
        }
      ],
      "payable": false,
      "stateMutability": "nonpayable",
      "type": "function"
    }
  ],
  "bytecode": "0x610b67610030600b82828239805160001a6073146000811461002057610022565bfe5b5030600052607381538281f3fe73000000000000000000000000000000000000000030146080604052600436106100995763ffffffff7c0100000000000000000000000000000000000000000000000000000000600035041663275111eb811461009e5780632c27d013146100c757806354b73af5146100e757806379df4fdc146101075780637bc4453914610129578063c44cf07c14610156578063cda2084d14610169575b600080fd5b6100b16100ac36600461058d565b610189565b6040516100be91906107dc565b60405180910390f35b6100da6100d536600461058d565b6101f2565b6040516100be91906107fb565b6100fa6100f536600461058d565b610233565b6040516100be9190610809565b81801561011357600080fd5b506101276101223660046105da565b61023c565b005b81801561013557600080fd5b5061014961014436600461063b565b610270565b6040516100be919061076f565b6100fa61016436600461058d565b610506565b61017c6101773660046105da565b61050f565b6040516100be91906107ed565b6060816005018054806020026020016040519081016040528092919081815260200182805480156101e357602002820191906000526020600020905b8154600160a060020a031681526001909101906020018083116101c5575b505050505090505b9392505050565b6101fa610539565b50604080516060810182528254600160a060020a0390811682526001840154811660208301526002909301549092169082015292915050565b60639392505050565b600191909101805473ffffffffffffffffffffffffffffffffffffffff1916600160a060020a039092169190911790555050565b6000808360000160009054906101000a9004600160a060020a0316600160a060020a0316630d8e6e2c6040518163ffffffff167c010000000000000000000000000000000000000000000000000000000002815260040160206040518083038186803b1580156102df57600080fd5b505afa1580156102f3573d6000803e3d6000fd5b505050506040513d601f19601f820116820180604052506103179190810190610690565b84549091506000908290600160a060020a0316610332610559565b61033d929190610817565b604051809103906000f080158015610359573d6000803e3d6000fd5b5085546040517f6226d738000000000000000000000000000000000000000000000000000000008152919250600160a060020a031690636226d738906103a69084906003906004016107c1565b600060405180830381600087803b1580156103c057600080fd5b505af11580156103d4573d6000803e3d6000fd5b505050506005840180546001808201835560009283526020808420909201805473ffffffffffffffffffffffffffffffffffffffff19908116600160a060020a03878116918217909355855260038901845260408086208881558085018054909316938d169390931790915588546130399081018a559289019093529282902055517f36359f2e00000000000000000000000000000000000000000000000000000000815273__LibTournament2________________________906336359f2e906104a990859030908b908b90600401610783565b60206040518083038186803b1580156104c157600080fd5b505af41580156104d5573d6000803e3d6000fd5b505050506040513d601f19601f820116820180604052506104f99190810190610690565b5090979650505050505050565b60029392505050565b600160a060020a038181166000908152600384016020526040902060010154161515949350505050565b604080516060810182526000808252602082018190529181019190915290565b6040516102d28061085c83390190565b60006101eb823561083c565b60006101eb8235610858565b60006101eb8251610858565b6000806000606084860312156105a257600080fd5b60006105ae8686610569565b93505060206105bf86828701610569565b92505060406105d086828701610575565b9150509250925092565b600080600080608085870312156105f057600080fd5b60006105fc8787610569565b945050602061060d87828801610569565b935050604061061e87828801610575565b925050606061062f87828801610569565b91505092959194509250565b6000806000806080858703121561065157600080fd5b600061065d8787610569565b945050602061066e87828801610569565b935050604061067f87828801610575565b925050606061062f87828801610575565b6000602082840312156106a257600080fd5b60006106ae8484610581565b949350505050565b6106bf8161083c565b82525050565b60006106d082610838565b8084526020840193506106e283610832565b60005b82811015610712576106f88683516106b6565b61070182610832565b6020969096019591506001016106e5565b5093949350505050565b6106bf81610847565b9052565b8051606083019061073a84826106b6565b50602082015161074d60208501826106b6565b50604082015161076060408501826106b6565b50505050565b6106bf81610858565b6020810161077d82846106b6565b92915050565b6080810161079182876106b6565b61079e60208301866106b6565b6107ab6040830185610725565b6107b86060830184610725565b95945050505050565b604081016107cf82856106b6565b6101eb6020830184610766565b602080825281016101eb81846106c5565b6020810161077d828461071c565b6060810161077d8284610729565b6020810161077d8284610766565b604081016108258285610766565b6101eb60208301846106b6565b60200190565b5190565b600061077d8261084c565b151590565b600160a060020a031690565b9056fe608060405234801561001057600080fd5b506040516040806102d2833981018060405261002f9190810190610078565b60009190915560018054600160a060020a031916600160a060020a039092169190911790556100d2565b600061006582516100be565b9392505050565b600061006582516100cf565b6000806040838503121561008b57600080fd5b6000610097858561006c565b92505060206100a885828601610059565b9150509250929050565b600160a060020a031690565b60006100c9826100b2565b92915050565b90565b6101f1806100e16000396000f3fe608060405234801561001057600080fd5b50600080546001546040517fc53cfd9a00000000000000000000000000000000000000000000000000000000815291929173ffffffffffffffffffffffffffffffffffffffff9091169063c53cfd9a906100909085907f4d6174727978506c6174666f726d0000000000000000000000000000000000009060040161016f565b60206040518083038186803b1580156100a857600080fd5b505afa1580156100bc573d6000803e3d6000fd5b505050506040513d601f19601f820116820180604052506100e0919081019061013a565b90506040516000600460008337336004830152836024830152600436036004604484013760008060403601846000875af190503d6000833e801515610123573d82fd5b3d82f35b600061013382516101a6565b9392505050565b60006020828403121561014c57600080fd5b60006101588484610127565b949350505050565b6101698161018a565b82525050565b6040810161017d8285610160565b6101336020830184610160565b90565b73ffffffffffffffffffffffffffffffffffffffff1690565b60006101b18261018d565b9291505056fea265627a7a7230582081152b910309ba881dcd82a5db6f278e49e8f16c11ef6149728f0d887ce7cda46c6578706572696d656e74616cf50037a265627a7a72305820b83c1efe4a130357478526f2545ddf8b7c5b3891ee3824e509a7e79f09ec027e6c6578706572696d656e74616cf50037",
  "source": "pragma solidity ^0.5.0;\npragma experimental ABIEncoderV2;\n\nimport \"../MatryxSystem.sol\";\nimport \"../MatryxPlatform.sol\";\nimport \"../MatryxTournament.sol\";\nimport \"./LibTournament2.sol\";\n\ninterface IPlatform2 {\n    function getInfo() external view returns (MatryxPlatform.Info memory);\n    function setToken(address token) external;\n    function getTwo() external pure returns (uint256);\n    function isTournament(address) external view returns (bool);\n    function getTournamentCount() external pure returns (uint256);\n    function createTournament() external returns (address);\n    function getTournaments() external pure returns (address[] memory);\n}\n\nlibrary LibPlatform2 {\n    function getInfo(address, address, MatryxPlatform.Info storage info) public view returns (MatryxPlatform.Info memory) {\n        return info;\n    }\n\n    function setToken(address, address, MatryxPlatform.Info storage info, address token) public\n    {\n        info.token = token;\n    }\n\n    function getTwo(address, address, MatryxPlatform.Info storage) public pure returns (uint256 number) {\n        return 2;\n    }\n\n    function getTournamentCount(address, address, MatryxPlatform.Data storage) public pure returns (uint256 count) {\n        return 99;\n    }\n\n    function isTournament(address, address, MatryxPlatform.Data storage data, address tAddress) public view returns (bool) {\n        return data.tournaments[tAddress].info.owner != address(0);\n    }\n\n    function getTournaments(address, address, MatryxPlatform.Data storage data) public view returns (address[] memory) {\n        return data.allTournaments;\n    }\n\n    function createTournament(address, address sender, MatryxPlatform.Info storage info, MatryxPlatform.Data storage data) public returns (address) {\n        uint256 version = IMatryxSystem(info.system).getVersion();\n        address tAddress = address(new MatryxTournament(version, info.system));\n\n        IMatryxSystem(info.system).setContractType(tAddress, uint256(LibSystem.ContractType.Tournament));\n        data.allTournaments.push(tAddress);\n\n        LibTournament.TournamentData storage tournament = data.tournaments[tAddress];\n        tournament.info.version = version;\n        tournament.info.owner = sender;\n\n        data.totalBalance = data.totalBalance + 12345;\n        data.tournamentBalance[tAddress] = 12345;\n\n        LibTournament2.createRound(tAddress, address(this), info, data);\n\n        return tAddress;\n    }\n\n}",
  "sourcePath": "/Users/maxhoward/Desktop/Ethereum/MatryxPlatform/contracts/test-contracts/LibPlatform2.sol",
  "compiler": {
    "name": "solc",
    "version": "0.5.0+commit.1d4f565a.Emscripten.clang"
  },
  "schemaVersion": "3.0.2",
  "updatedAt": "2019-03-21T18:00:09.526Z",
  "devdoc": {
    "methods": {}
  },
  "userdoc": {
    "methods": {}
  }
}