{
  "contractName": "LibPlatform",
  "abi": [
    {
      "anonymous": false,
      "inputs": [
        {
          "indexed": false,
          "name": "_tournamentAddress",
          "type": "address"
        }
      ],
      "name": "TournamentCreated",
      "type": "event"
    },
    {
      "constant": true,
      "inputs": [
        {
          "name": "",
          "type": "address"
        },
        {
          "name": "",
          "type": "address"
        },
        {
          "name": "data",
          "type": "MatryxPlatform.Data storage"
        },
        {
          "name": "tAddress",
          "type": "address"
        }
      ],
      "name": "isTournament",
      "outputs": [
        {
          "name": "",
          "type": "bool"
        }
      ],
      "payable": false,
      "stateMutability": "view",
      "type": "function"
    },
    {
      "constant": true,
      "inputs": [
        {
          "name": "",
          "type": "address"
        },
        {
          "name": "",
          "type": "address"
        },
        {
          "name": "data",
          "type": "MatryxPlatform.Data storage"
        },
        {
          "name": "rAddress",
          "type": "address"
        }
      ],
      "name": "isRound",
      "outputs": [
        {
          "name": "",
          "type": "bool"
        }
      ],
      "payable": false,
      "stateMutability": "view",
      "type": "function"
    },
    {
      "constant": true,
      "inputs": [
        {
          "name": "",
          "type": "address"
        },
        {
          "name": "",
          "type": "address"
        },
        {
          "name": "data",
          "type": "MatryxPlatform.Data storage"
        },
        {
          "name": "sAddress",
          "type": "address"
        }
      ],
      "name": "isSubmission",
      "outputs": [
        {
          "name": "",
          "type": "bool"
        }
      ],
      "payable": false,
      "stateMutability": "view",
      "type": "function"
    },
    {
      "constant": true,
      "inputs": [
        {
          "name": "",
          "type": "address"
        },
        {
          "name": "",
          "type": "address"
        },
        {
          "name": "data",
          "type": "MatryxPlatform.Data storage"
        },
        {
          "name": "uAddress",
          "type": "address"
        }
      ],
      "name": "hasEnteredMatryx",
      "outputs": [
        {
          "name": "",
          "type": "bool"
        }
      ],
      "payable": false,
      "stateMutability": "view",
      "type": "function"
    },
    {
      "constant": true,
      "inputs": [
        {
          "name": "",
          "type": "address"
        },
        {
          "name": "",
          "type": "address"
        },
        {
          "name": "data",
          "type": "MatryxPlatform.Data storage"
        }
      ],
      "name": "getTournamentCount",
      "outputs": [
        {
          "name": "",
          "type": "uint256"
        }
      ],
      "payable": false,
      "stateMutability": "view",
      "type": "function"
    },
    {
      "constant": true,
      "inputs": [
        {
          "name": "",
          "type": "address"
        },
        {
          "name": "",
          "type": "address"
        },
        {
          "name": "data",
          "type": "MatryxPlatform.Data storage"
        }
      ],
      "name": "getUserCount",
      "outputs": [
        {
          "name": "",
          "type": "uint256"
        }
      ],
      "payable": false,
      "stateMutability": "view",
      "type": "function"
    },
    {
      "constant": true,
      "inputs": [
        {
          "name": "",
          "type": "address"
        },
        {
          "name": "",
          "type": "address"
        },
        {
          "name": "info",
          "type": "MatryxPlatform.Info storage"
        },
        {
          "name": "data",
          "type": "MatryxPlatform.Data storage"
        },
        {
          "name": "startIndex",
          "type": "uint256"
        },
        {
          "name": "count",
          "type": "uint256"
        }
      ],
      "name": "getTournaments",
      "outputs": [
        {
          "name": "",
          "type": "address[]"
        }
      ],
      "payable": false,
      "stateMutability": "view",
      "type": "function"
    },
    {
      "constant": true,
      "inputs": [
        {
          "name": "",
          "type": "address"
        },
        {
          "name": "",
          "type": "address"
        },
        {
          "name": "info",
          "type": "MatryxPlatform.Info storage"
        },
        {
          "name": "data",
          "type": "MatryxPlatform.Data storage"
        },
        {
          "name": "category",
          "type": "bytes32"
        },
        {
          "name": "startIndex",
          "type": "uint256"
        },
        {
          "name": "count",
          "type": "uint256"
        }
      ],
      "name": "getTournamentsByCategory",
      "outputs": [
        {
          "name": "",
          "type": "address[]"
        }
      ],
      "payable": false,
      "stateMutability": "view",
      "type": "function"
    },
    {
      "constant": true,
      "inputs": [
        {
          "name": "",
          "type": "address"
        },
        {
          "name": "",
          "type": "address"
        },
        {
          "name": "info",
          "type": "MatryxPlatform.Info storage"
        },
        {
          "name": "data",
          "type": "MatryxPlatform.Data storage"
        },
        {
          "name": "startIndex",
          "type": "uint256"
        },
        {
          "name": "count",
          "type": "uint256"
        }
      ],
      "name": "getUsers",
      "outputs": [
        {
          "name": "",
          "type": "address[]"
        }
      ],
      "payable": false,
      "stateMutability": "view",
      "type": "function"
    },
    {
      "constant": true,
      "inputs": [
        {
          "name": "",
          "type": "address"
        },
        {
          "name": "",
          "type": "address"
        },
        {
          "name": "info",
          "type": "MatryxPlatform.Info storage"
        },
        {
          "name": "data",
          "type": "MatryxPlatform.Data storage"
        },
        {
          "name": "startIndex",
          "type": "uint256"
        },
        {
          "name": "count",
          "type": "uint256"
        }
      ],
      "name": "getCategories",
      "outputs": [
        {
          "name": "",
          "type": "bytes32[]"
        }
      ],
      "payable": false,
      "stateMutability": "view",
      "type": "function"
    },
    {
      "constant": false,
      "inputs": [
        {
          "name": "sender",
          "type": "address"
        },
        {
          "name": "",
          "type": "address"
        },
        {
          "name": "info",
          "type": "MatryxPlatform.Info storage"
        },
        {
          "name": "data",
          "type": "MatryxPlatform.Data storage"
        },
        {
          "name": "category",
          "type": "bytes32"
        }
      ],
      "name": "createCategory",
      "outputs": [],
      "payable": false,
      "stateMutability": "nonpayable",
      "type": "function"
    },
    {
      "constant": false,
      "inputs": [
        {
          "name": "sender",
          "type": "address"
        },
        {
          "name": "",
          "type": "address"
        },
        {
          "name": "info",
          "type": "MatryxPlatform.Info storage"
        },
        {
          "name": "data",
          "type": "MatryxPlatform.Data storage"
        }
      ],
      "name": "enterMatryx",
      "outputs": [],
      "payable": false,
      "stateMutability": "nonpayable",
      "type": "function"
    },
    {
      "constant": false,
      "inputs": [
        {
          "name": "sender",
          "type": "address"
        },
        {
          "name": "platform",
          "type": "address"
        },
        {
          "name": "info",
          "type": "MatryxPlatform.Info storage"
        },
        {
          "name": "data",
          "type": "MatryxPlatform.Data storage"
        },
        {
          "name": "tAddress",
          "type": "address"
        },
        {
          "name": "category",
          "type": "bytes32"
        }
      ],
      "name": "addTournamentToCategory",
      "outputs": [],
      "payable": false,
      "stateMutability": "nonpayable",
      "type": "function"
    },
    {
      "constant": false,
      "inputs": [
        {
          "name": "sender",
          "type": "address"
        },
        {
          "name": "platform",
          "type": "address"
        },
        {
          "name": "info",
          "type": "MatryxPlatform.Info storage"
        },
        {
          "name": "data",
          "type": "MatryxPlatform.Data storage"
        },
        {
          "name": "tAddress",
          "type": "address"
        }
      ],
      "name": "removeTournamentFromCategory",
      "outputs": [],
      "payable": false,
      "stateMutability": "nonpayable",
      "type": "function"
    },
    {
      "constant": false,
      "inputs": [
        {
          "name": "sender",
          "type": "address"
        },
        {
          "name": "platform",
          "type": "address"
        },
        {
          "name": "info",
          "type": "MatryxPlatform.Info storage"
        },
        {
          "name": "data",
          "type": "MatryxPlatform.Data storage"
        },
        {
          "components": [
            {
              "name": "title",
              "type": "bytes32[3]"
            },
            {
              "name": "category",
              "type": "bytes32"
            },
            {
              "name": "descHash",
              "type": "bytes32[2]"
            },
            {
              "name": "fileHash",
              "type": "bytes32[2]"
            },
            {
              "name": "bounty",
              "type": "uint256"
            },
            {
              "name": "entryFee",
              "type": "uint256"
            }
          ],
          "name": "tDetails",
          "type": "tuple"
        },
        {
          "components": [
            {
              "name": "start",
              "type": "uint256"
            },
            {
              "name": "end",
              "type": "uint256"
            },
            {
              "name": "review",
              "type": "uint256"
            },
            {
              "name": "bounty",
              "type": "uint256"
            }
          ],
          "name": "rDetails",
          "type": "tuple"
        }
      ],
      "name": "createTournament",
      "outputs": [
        {
          "name": "",
          "type": "address"
        }
      ],
      "payable": false,
      "stateMutability": "nonpayable",
      "type": "function"
    }
  ],
  "bytecode": "0x6127dc610030600b82828239805160001a6073146000811461002057610022565bfe5b5030600052607381538281f3007300000000000000000000000000000000000000003014608060405260043610620001015763ffffffff7c01000000000000000000000000000000000000000000000000000000006000350416631886dbb48114620001065780632ace6c7014620001355780633a1f7ffd146200014c5780633fc78f6f146200018057806354b73af514620001a65780635a88223c14620001cc578063728fc45214620001f35780638c756d0e14620002195780639e05b11f146200023e578063a39e145a1462000263578063a624531d1462000288578063c0445db0146200029f578063caa6f75a14620002b6578063cda2084d14620002cd578063ef2b125914620002e4575b600080fd5b6200011d6200011736600462001b53565b620002fb565b6040516200012c9190620023c5565b60405180910390f35b6200011d6200014636600462001b53565b62000333565b8180156200015957600080fd5b50620001716200016b36600462001e4d565b62000365565b6040516200012c91906200231d565b620001976200019136600462001ed6565b62000b44565b6040516200012c9190620023b2565b620001bd620001b736600462001aff565b62000c5f565b6040516200012c91906200249b565b818015620001d957600080fd5b50620001f1620001eb36600462001bbd565b62000c6c565b005b6200020a6200020436600462001da2565b62000e5a565b6040516200012c91906200239f565b8180156200022657600080fd5b50620001f16200023836600462001d2f565b62000f7d565b8180156200024b57600080fd5b50620001f16200025d36600462001c1b565b6200107f565b8180156200027057600080fd5b50620001f16200028236600462001c9b565b62001359565b6200011d6200029936600462001b53565b6200153f565b6200020a620002b036600462001ed6565b62001576565b620001bd620002c736600462001aff565b62001688565b6200011d620002de36600462001b53565b62001692565b6200020a620002f536600462001ed6565b620016c7565b73ffffffffffffffffffffffffffffffffffffffff80821660009081526001808501602052604090912001541615155b949350505050565b73ffffffffffffffffffffffffffffffffffffffff166000908152600391909101602052604090205460ff1692915050565b73ffffffffffffffffffffffffffffffffffffffff861660009081526003840160205260408120548190819081908190819060ff161515620003de576040517f08c379a0000000000000000000000000000000000000000000000000000000008152600401620003d59062002441565b60405180910390fd5b60808801516000106200041f576040517f08c379a0000000000000000000000000000000000000000000000000000000008152600401620003d59062002465565b60808801516060880151111562000464576040517f08c379a0000000000000000000000000000000000000000000000000000000008152600401620003d59062002477565b87608001518a60020160009054906101000a900473ffffffffffffffffffffffffffffffffffffffff1673ffffffffffffffffffffffffffffffffffffffff1663dd62ed3e8e306040518363ffffffff167c0100000000000000000000000000000000000000000000000000000000028152600401620004e692919062002361565b602060405180830381600087803b1580156200050157600080fd5b505af115801562000516573d6000803e3d6000fd5b505050506040513d601f19601f820116820180604052506200053c919081019062001f6b565b101562000577576040517f08c379a0000000000000000000000000000000000000000000000000000000008152600401620003d59062002489565b60018a01548a5473ffffffffffffffffffffffffffffffffffffffff166200059e620017e9565b620005ab929190620024ab565b604051809103906000f080158015620005c8573d6000803e3d6000fd5b508a546040517f6226d73800000000000000000000000000000000000000000000000000000000815291965073ffffffffffffffffffffffffffffffffffffffff1690636226d738906200062490889060039060040162002380565b600060405180830381600087803b1580156200063f57600080fd5b505af115801562000654573d6000803e3d6000fd5b5050505060068901805460018101825560009182526020918290200180547fffffffffffffffffffffffff00000000000000000000000000000000000000001673ffffffffffffffffffffffffffffffffffffffff8816179055880151620006c69030908d908d908d908a9062001359565b73ffffffffffffffffffffffffffffffffffffffff8c8116600090815260038b01602090815260408220600681018054600181018255908452919092200180547fffffffffffffffffffffffff00000000000000000000000000000000000000001692881692909217909155608089015160048201549195506200074b9190620017d9565b600485015573ffffffffffffffffffffffffffffffffffffffff858116600090815260208b90526040902060018c8101548255810180547fffffffffffffffffffffffff000000000000000000000000000000000000000016928f1692909217909155885190935088906006850190620007c99082906003620017fa565b50602082015160038201556040820151620007eb90600483019060026200183f565b5060608201516200080390600683019060026200183f565b506080820151816008015560a082015181600901559050508960020160009054906101000a900473ffffffffffffffffffffffffffffffffffffffff1673ffffffffffffffffffffffffffffffffffffffff166323b872dd8d878b608001516040518463ffffffff167c01000000000000000000000000000000000000000000000000000000000281526004016200089e9392919062002333565b602060405180830381600087803b158015620008b957600080fd5b505af1158015620008ce573d6000803e3d6000fd5b505050506040513d601f19601f82011682018060405250620008f4919081019062001f4a565b15156200092f576040517f08c379a0000000000000000000000000000000000000000000000000000000008152600401620003d590620023e7565b895473ffffffffffffffffffffffffffffffffffffffff1663e468220460036040518263ffffffff167c01000000000000000000000000000000000000000000000000000000000281526004016200098891906200249b565b602060405180830381600087803b158015620009a357600080fd5b505af1158015620009b8573d6000803e3d6000fd5b505050506040513d601f19601f82011682018060405250620009de919081019062001f6b565b8a5460018c01546040517fc53cfd9a00000000000000000000000000000000000000000000000000000000815292945073ffffffffffffffffffffffffffffffffffffffff9091169163c53cfd9a9162000a3d918690600401620024ca565b602060405180830381600087803b15801562000a5857600080fd5b505af115801562000a6d573d6000803e3d6000fd5b505050506040513d601f19601f8201168201806040525062000a93919081019062001ade565b90507c01000000000000000000000000000000000000000000000000000000006040518163ca0ba8b40281528660048201528d60248201528b60448201528a60648201526080803603608483013760008061010483865af480151562000af857600080fd5b5050507f66b8e5c50b708b71a6f155375a4613dd12971db692c5931e7cb0701ee7add6ac8560405162000b2c91906200231d565b60405180910390a150929a9950505050505050505050565b835460018501546040517fc53cfd9a000000000000000000000000000000000000000000000000000000008152606092600092839273ffffffffffffffffffffffffffffffffffffffff9092169163c53cfd9a9162000ba691600401620024da565b602060405180830381600087803b15801562000bc157600080fd5b505af115801562000bd6573d6000803e3d6000fd5b505050506040513d601f19601f8201168201806040525062000bfc919081019062001ade565b915085600a0190507c01000000000000000000000000000000000000000000000000000000006040518163e79eda2c028152826004820152866024820152856044820152600080606483875af480151562000c5657600080fd5b3d6000833e3d82f35b60068101545b9392505050565b73ffffffffffffffffffffffffffffffffffffffff8416600090815260038201602052604090205460ff161562000cd1576040517f08c379a0000000000000000000000000000000000000000000000000000000008152600401620003d590620023d5565b60028201546040517f70a0823100000000000000000000000000000000000000000000000000000000815260009173ffffffffffffffffffffffffffffffffffffffff16906370a082319062000d2c9088906004016200231d565b602060405180830381600087803b15801562000d4757600080fd5b505af115801562000d5c573d6000803e3d6000fd5b505050506040513d601f19601f8201168201806040525062000d82919081019062001f6b565b1162000dbc576040517f08c379a0000000000000000000000000000000000000000000000000000000008152600401620003d5906200242f565b73ffffffffffffffffffffffffffffffffffffffff90931660008181526003850160209081526040822080547fffffffffffffffffffffffffffffffffffffffffffffffffffffffffffffff00166001908117825542918101919091556009909601805496870181558252902090930180547fffffffffffffffffffffffff0000000000000000000000000000000000000000169093179092555050565b845460018601546040517fc53cfd9a00000000000000000000000000000000000000000000000000000000815260609260009273ffffffffffffffffffffffffffffffffffffffff9091169163c53cfd9a9162000eba91600401620024da565b602060405180830381600087803b15801562000ed557600080fd5b505af115801562000eea573d6000803e3d6000fd5b505050506040513d601f19601f8201168201806040525062000f10919081019062001ade565b90507c0100000000000000000000000000000000000000000000000000000000604051866000526004880160205260406000208263e79eda2c028252806004830152866024830152856044830152600080606484875af480151562000f7457600080fd5b3d6000843e3d83f35b600383015473ffffffffffffffffffffffffffffffffffffffff86811691161462000fd6576040517f08c379a0000000000000000000000000000000000000000000000000000000008152600401620003d590620023f9565b600081815260058301602052604090205460ff161562001024576040517f08c379a0000000000000000000000000000000000000000000000000000000008152600401620003d59062002453565b600a8201805460018181018355600092835260208084209092018490559282526005909301909252604090912080547fffffffffffffffffffffffffffffffffffffffffffffffffffffffffffffff00169091179055505050565b6000806000808773ffffffffffffffffffffffffffffffffffffffff168973ffffffffffffffffffffffffffffffffffffffff1614806200116b575086546040517fe11aa6a200000000000000000000000000000000000000000000000000000000815260039173ffffffffffffffffffffffffffffffffffffffff169063e11aa6a29062001113908d906004016200231d565b602060405180830381600087803b1580156200112e57600080fd5b505af115801562001143573d6000803e3d6000fd5b505050506040513d601f19601f8201168201806040525062001169919081019062001f6b565b145b1515620011a6576040517f08c379a0000000000000000000000000000000000000000000000000000000008152600401620003d5906200240b565b865460018801546040517fc53cfd9a00000000000000000000000000000000000000000000000000000000815273ffffffffffffffffffffffffffffffffffffffff9092169163c53cfd9a916200120091600401620024da565b602060405180830381600087803b1580156200121b57600080fd5b505af115801562001230573d6000803e3d6000fd5b505050506040513d601f19601f8201168201806040525062001256919081019062001ade565b73ffffffffffffffffffffffffffffffffffffffff86166000908152602088815260408083206009015480845260048b019092528220929650945090925090505b8154811015620012ff578473ffffffffffffffffffffffffffffffffffffffff168282815481101515620012c757fe5b60009182526020909120015473ffffffffffffffffffffffffffffffffffffffff161415620012f657620012ff565b60010162001297565b7c010000000000000000000000000000000000000000000000000000000060405181634a71ede8028152836004820152826024820152600080604483895af48015156200134b57600080fd5b505050505050505050505050565b8473ffffffffffffffffffffffffffffffffffffffff168673ffffffffffffffffffffffffffffffffffffffff1614806200143f575083546040517fe11aa6a200000000000000000000000000000000000000000000000000000000815260039173ffffffffffffffffffffffffffffffffffffffff169063e11aa6a290620013e7908a906004016200231d565b602060405180830381600087803b1580156200140257600080fd5b505af115801562001417573d6000803e3d6000fd5b505050506040513d601f19601f820116820180604052506200143d919081019062001f6b565b145b15156200147a576040517f08c379a0000000000000000000000000000000000000000000000000000000008152600401620003d5906200240b565b600081815260058401602052604090205460ff161515620014c9576040517f08c379a0000000000000000000000000000000000000000000000000000000008152600401620003d5906200241d565b60008181526004840160209081526040808320805460018101825590845282842001805473ffffffffffffffffffffffffffffffffffffffff9096167fffffffffffffffffffffffff00000000000000000000000000000000000000009096168617905593825293909352912060090155505050565b73ffffffffffffffffffffffffffffffffffffffff8082166000908152600284016020526040902060010154161515949350505050565b835460018501546040517fc53cfd9a000000000000000000000000000000000000000000000000000000008152606092600092839273ffffffffffffffffffffffffffffffffffffffff9092169163c53cfd9a91620015d891600401620024da565b602060405180830381600087803b158015620015f357600080fd5b505af115801562001608573d6000803e3d6000fd5b505050506040513d601f19601f820116820180604052506200162e919081019062001ade565b91508560060190507c01000000000000000000000000000000000000000000000000000000006040518163e79eda2c028152826004820152866024820152856044820152600080606483875af480151562000c5657600080fd5b6009015492915050565b73ffffffffffffffffffffffffffffffffffffffff808216600090815260208490526040902060010154161515949350505050565b835460018501546040517fc53cfd9a000000000000000000000000000000000000000000000000000000008152606092600092839273ffffffffffffffffffffffffffffffffffffffff9092169163c53cfd9a916200172991600401620024da565b602060405180830381600087803b1580156200174457600080fd5b505af115801562001759573d6000803e3d6000fd5b505050506040513d601f19601f820116820180604052506200177f919081019062001ade565b91508560090190507c01000000000000000000000000000000000000000000000000000000006040518163e79eda2c028152826004820152866024820152856044820152600080606483875af480151562000c5657600080fd5b60008282018381101562000c6557fe5b60405161022e806200257583390190565b82600381019282156200182d579160200282015b828111156200182d57825182556020909201916001909101906200180e565b506200183b92915062001871565b5090565b82600281019282156200182d57916020028201828111156200182d57825182556020909201916001909101906200180e565b6200188e91905b808211156200183b576000815560010162001878565b90565b600062000c65823562002549565b600062000c65825162002549565b6000601f82018313620018bf57600080fd5b6002620018d6620018d08262002520565b620024f8565b91508183856020840282011115620018ed57600080fd5b60005b838110156200191d57816200190688826200199f565b8452506020928301929190910190600101620018f0565b5050505092915050565b6000601f820183136200193957600080fd5b60036200194a620018d08262002520565b915081838560208402820111156200196157600080fd5b60005b838110156200191d57816200197a88826200199f565b845250602092830192919091019060010162001964565b600062000c65825162002562565b600062000c6582356200188e565b600062000c6582516200188e565b600060808284031215620019ce57600080fd5b620019da6080620024f8565b90506000620019ea84846200199f565b8252506020620019fd848483016200199f565b602083015250604062001a13848285016200199f565b604083015250606062001a29848285016200199f565b60608301525092915050565b6000610140828403121562001a4957600080fd5b62001a5560c0620024f8565b9050600062001a65848462001927565b825250606062001a78848483016200199f565b602083015250608062001a8e84828501620018ad565b60408301525060c062001aa484828501620018ad565b60608301525061010062001abb848285016200199f565b60808301525061012062001ad2848285016200199f565b60a08301525092915050565b60006020828403121562001af157600080fd5b60006200032b84846200189f565b60008060006060848603121562001b1557600080fd5b600062001b23868662001891565b935050602062001b368682870162001891565b925050604062001b49868287016200199f565b9150509250925092565b6000806000806080858703121562001b6a57600080fd5b600062001b78878762001891565b945050602062001b8b8782880162001891565b935050604062001b9e878288016200199f565b925050606062001bb18782880162001891565b91505092959194509250565b6000806000806080858703121562001bd457600080fd5b600062001be2878762001891565b945050602062001bf58782880162001891565b935050604062001c08878288016200199f565b925050606062001bb1878288016200199f565b600080600080600060a0868803121562001c3457600080fd5b600062001c42888862001891565b955050602062001c558882890162001891565b945050604062001c68888289016200199f565b935050606062001c7b888289016200199f565b925050608062001c8e8882890162001891565b9150509295509295909350565b60008060008060008060c0878903121562001cb557600080fd5b600062001cc3898962001891565b965050602062001cd689828a0162001891565b955050604062001ce989828a016200199f565b945050606062001cfc89828a016200199f565b935050608062001d0f89828a0162001891565b92505060a062001d2289828a016200199f565b9150509295509295509295565b600080600080600060a0868803121562001d4857600080fd5b600062001d56888862001891565b955050602062001d698882890162001891565b945050604062001d7c888289016200199f565b935050606062001d8f888289016200199f565b925050608062001c8e888289016200199f565b600080600080600080600060e0888a03121562001dbe57600080fd5b600062001dcc8a8a62001891565b975050602062001ddf8a828b0162001891565b965050604062001df28a828b016200199f565b955050606062001e058a828b016200199f565b945050608062001e188a828b016200199f565b93505060a062001e2b8a828b016200199f565b92505060c062001e3e8a828b016200199f565b91505092959891949750929550565b600080600080600080610240878903121562001e6857600080fd5b600062001e76898962001891565b965050602062001e8989828a0162001891565b955050604062001e9c89828a016200199f565b945050606062001eaf89828a016200199f565b935050608062001ec289828a0162001a35565b9250506101c062001d2289828a01620019bb565b60008060008060008060c0878903121562001ef057600080fd5b600062001efe898962001891565b965050602062001f1189828a0162001891565b955050604062001f2489828a016200199f565b945050606062001f3789828a016200199f565b935050608062001d0f89828a016200199f565b60006020828403121562001f5d57600080fd5b60006200032b848462001991565b60006020828403121562001f7e57600080fd5b60006200032b8484620019ad565b62001f978162002549565b82525050565b600062001faa8262002545565b80845260208401935062001fbe836200253f565b60005b8281101562001ff45762001fd786835162001f8c565b62001fe2826200253f565b60209690960195915060010162001fc1565b5093949350505050565b60006200200b8262002545565b8084526020840193506200201f836200253f565b60005b8281101562001ff4576200203886835162002060565b62002043826200253f565b60209690960195915060010162002022565b62001f978162002562565b62001f97816200188e565b62001f978162002567565b7f4c69625574696c730000000000000000000000000000000000000000000000009052565b601681527f416c726561647920656e7465726564204d617472797800000000000000000000602082015260400190565b600f81527f5472616e73666572206661696c65640000000000000000000000000000000000602082015260400190565b601681527f4d75737420626520506c6174666f726d206f776e657200000000000000000000602082015260400190565b602581527f4d75737420636f6d652066726f6d20506c6174666f726d206f7220546f75726e60208201527f616d656e74000000000000000000000000000000000000000000000000000000604082015260600190565b601781527f43617465676f727920646f6573206e6f74206578697374000000000000000000602082015260400190565b600d81527f4d7573742068617665204d545800000000000000000000000000000000000000602082015260400190565b601881527f4d757374206861766520656e7465726564204d61747279780000000000000000602082015260400190565b601781527f43617465676f727920616c726561647920657869737473000000000000000000602082015260400190565b602881527f546f75726e616d656e7420626f756e7479206d7573742062652067726561746560208201527f72207468616e2030000000000000000000000000000000000000000000000000604082015260600190565b602c81527f526f756e6420626f756e74792063616e6e6f742065786365656420546f75726e60208201527f616d656e7420626f756e74790000000000000000000000000000000000000000604082015260600190565b601081527f496e73756666696369656e74204d545800000000000000000000000000000000602082015260400190565b602081016200232d828462001f8c565b92915050565b6060810162002343828662001f8c565b62002352602083018562001f8c565b6200032b604083018462002060565b6040810162002371828562001f8c565b62000c6560208301846200206b565b6040810162002390828562001f8c565b62000c65602083018462002060565b6020808252810162000c65818462001f9d565b6020808252810162000c65818462001ffe565b602081016200232d828462002055565b602080825281016200232d816200209b565b602080825281016200232d81620020cb565b602080825281016200232d81620020fb565b602080825281016200232d816200212b565b602080825281016200232d8162002181565b602080825281016200232d81620021b1565b602080825281016200232d81620021e1565b602080825281016200232d8162002211565b602080825281016200232d8162002241565b602080825281016200232d8162002297565b602080825281016200232d81620022ed565b602081016200232d828462002060565b60408101620024bb828562002060565b62000c65602083018462001f8c565b6040810162002390828562002060565b60408101620024ea828462002060565b6200232d6020830162002076565b60405181810167ffffffffffffffff811182821017156200251857600080fd5b604052919050565b600067ffffffffffffffff8211156200253857600080fd5b5060200290565b60200190565b5190565b73ffffffffffffffffffffffffffffffffffffffff1690565b151590565b60006200232d82620025495600608060405234801561001057600080fd5b5060405160408061022e833981018060405261002f9190810190610078565b60009190915560018054600160a060020a031916600160a060020a039092169190911790556100c1565b600061006582516100b2565b9392505050565b600061006582516100be565b6000806040838503121561008b57600080fd5b6000610097858561006c565b92505060206100a885828601610059565b9150509250929050565b600160a060020a031690565b90565b61015e806100d06000396000f300608060405234801561001057600080fd5b506040517c01000000000000000000000000000000000000000000000000000000007f4d6174727978506c6174666f726d0000000000000000000000000000000000006000546001600001548363c53cfd9a028552816004860152826024860152602060006044876000855af180151561008957600080fd5b60005193506004600087378486510463a5f2a15281146323b872dd821417156100e9573385146100b857600080fd5b3660008837600080368973__LibTrinity____________________________5af491508115156100e757600080fd5b005b336004880152836024880152600436036004604489013760008060403601896000895af1915081151561011b57600080fd5b3d6000883e3d87f300a265627a7a7230582036638231188e3d0cfbbfa49f961f0181a5deb397c934bb4c2d6d2954945401866c6578706572696d656e74616cf50037a265627a7a7230582050934ccddf561d4df695591796eaed537ce4c6f0ad80c876cc3d5db3d4945f146c6578706572696d656e74616cf50037",
  "source": "pragma solidity ^0.4.24;\npragma experimental ABIEncoderV2;\n\nimport \"./SafeMath.sol\";\nimport \"./IMatryxToken.sol\";\nimport \"./LibGlobals.sol\";\n\nimport \"./MatryxSystem.sol\";\nimport \"./MatryxUser.sol\";\nimport \"./MatryxTournament.sol\";\nimport \"./MatryxRound.sol\";\nimport \"./MatryxSubmission.sol\";\n\ncontract MatryxPlatform {\n    struct Info {\n        address system;\n        uint256 version;\n        address token;\n        // mapping(uint256=>address) tokens;\n        address owner;\n    }\n\n    struct Data {\n        mapping(address=>LibTournament.TournamentData) tournaments;\n        mapping(address=>LibRound.RoundData) rounds;\n        mapping(address=>LibSubmission.SubmissionData) submissions;\n        mapping(address=>LibUser.UserData) users;\n        mapping(bytes32=>address[]) categories;\n        mapping(bytes32=>bool) categoryExists;\n\n        address[] allTournaments;\n        address[] allRounds;\n        address[] allSubmissions;\n        address[] allUsers;\n        bytes32[] allCategories;\n    }\n\n    Info info; // slot 0\n    Data data; // slot 4\n\n    constructor(address system, uint256 version, address token) public {\n        info.system = system;\n        info.version = version;\n        info.token = token;\n        info.owner = msg.sender;\n    }\n\n    /// @dev\n    /// 1) Uses msg.sender to ask MatryxSystem for the type of library this call should be forwarded to\n    /// 2) Uses this library type to lookup (in its own storage) the name of the library\n    /// 3) Uses this name to ask MatryxSystem for the address of the contract (under this platform's version)\n    /// 4) Uses name and signature to ask MatryxSystem for the data necessary to modify the incoming calldata\n    ///    so as to be appropriate for the associated library call\n    /// 5) Makes a delegatecall to the library address given by MatryxSystem with the library-appropriate calldata\n    function () public {\n        assembly {\n            // constants\n            let offset := 0x100000000000000000000000000000000000000000000000000000000\n            let libPlatform := 0x4c6962506c6174666f726d000000000000000000000000000000000000000000\n\n            let ptr := mload(0x40)                                              // scratch space for calldata\n            let system := sload(info_slot)                                      // load info.system address\n            let version := sload(add(info_slot, 1))                             // load info.version number\n\n            mstore(0, mul(0xe11aa6a2, offset))                                  // getContractType(address)\n            mstore(0x04, caller)                                                // arg 0 - contract\n            let res := call(gas, system, 0, 0, 0x24, 0x04, 0x20)                // call system.getContractType\n            if iszero(res) { revert(0, 0) }                                     // safety check\n\n            mstore(0, mul(0xe4682204, offset))                                  // getLibraryName(uint256)\n            res := call(gas, system, 0, 0, 0x24, 0, 0x20)                       // call system getLibraryName (arg 0 already in 0x04)\n            if iszero(res) { revert(0, 0) }                                     // safety check\n            let libName := mload(0)                                             // store libName from response\n\n            if iszero(eq(libName, libPlatform)) {                               // if coming from MatryxTrinity or MatryxUser\n                calldatacopy(0, 0x24, 0x20)                                     // get injected version from calldata\n                version := mload(0)                                             // overwrite version var\n            }\n\n            // call system and get library address\n            mstore(ptr, mul(0xc53cfd9a, offset))                                // getContract(uint256,bytes32)\n            mstore(add(ptr, 0x04), version)                                     // arg 0 - version\n            mstore(add(ptr, 0x24), libName)                                     // arg 1 - library name\n            res := call(gas, system, 0, ptr, 0x44, 0, 0x20)                     // call system.getContract\n            if iszero(res) { revert(0, 0) }                                     // safety check\n            let libAddress := mload(0)                                          // store libAddress from response\n\n            // get fnData from system\n            mstore(ptr, mul(0x3b15aabf, offset))                                // getContractMethod(uint256,bytes32,bytes32)\n            mstore(add(ptr, 0x04), version)                                     // arg 0 - version\n            mstore(add(ptr, 0x24), libName)                                     // arg 1 - library name\n            calldatacopy(add(ptr, 0x44), 0, 0x04)                               // arg 2 - fn selector\n            res := call(gas, system, 0, ptr, 0x64, 0, 0)                        // call system.getContractMethod\n            if iszero(res) { revert(0, 0) }                                     // safety check\n\n            returndatacopy(ptr, 0, returndatasize)                              // copy fnData into ptr\n            let ptr2 := add(ptr, mload(ptr))                                    // ptr2 is pointer to start of fnData\n\n            let m_injParams := add(ptr2, mload(add(ptr2, 0x20)))                // mem loc injected params\n            let injParams_len := mload(m_injParams)                             // num injected params\n            m_injParams := add(m_injParams, 0x20)                               // first injected param\n\n            let m_dynParams := add(ptr2, mload(add(ptr2, 0x40)))                // memory location of start of dynamic params\n            let dynParams_len := mload(m_dynParams)                             // num dynamic params\n            m_dynParams := add(m_dynParams, 0x20)                               // first dynamic param\n\n            // forward calldata to library\n            ptr := add(ptr, returndatasize)                                     // shift ptr to new scratch space\n            mstore(ptr, mload(ptr2))                                            // forward call with modified selector\n\n            ptr2 := add(ptr, 0x04)                                              // copy of ptr for keeping track of injected params\n\n            mstore(ptr2, caller)                                                // inject msg.sender\n            mstore(add(ptr2, 0x20), address)                                    // inject platform\n\n            let cdOffset := 0x04                                                // calldata offset, after signature\n\n            if iszero(eq(libName, libPlatform)) {                               // if coming from MatryxTrinity or MatryxUser\n                calldatacopy(add(ptr2, 0x20), 0x04, 0x20)                       // overwrite injected platform with address from forwarder\n                cdOffset := add(cdOffset, 0x40)                                 // shift calldata offset for injected address and version\n            }\n            ptr2 := add(ptr2, 0x40)                                             // shift ptr2 to account for injected addresses\n\n            for { let i := 0 } lt(i, injParams_len) { i := add(i, 1) } {        // loop through injected params and insert\n                let injParam := mload(add(m_injParams, mul(i, 0x20)))           // get injected param slot\n                mstore(ptr2, injParam)                                          // store injected params into next slot\n                ptr2 := add(ptr2, 0x20)                                         // shift ptr2 by a word for each injected\n            }\n\n            calldatacopy(ptr2, cdOffset, sub(calldatasize, cdOffset))           // copy calldata after injected data storage\n\n            // update dynamic params location\n            for { let i := 0 } lt(i, dynParams_len) { i := add(i, 1) } {\n                let idx := mload(add(m_dynParams, mul(i, 0x20)))                // get dynParam index in parameters\n                let loc := add(ptr2, mul(idx, 0x20))                            // get location in memory of dynParam\n                mstore(loc, add(mload(loc), mul(add(injParams_len, 2), 0x20)))  // shift dynParam location by num injected\n            }\n\n            // calculate size of forwarded call\n            let size := add(0x04, sub(calldatasize, cdOffset))                  // calldatasize minus injected\n            size := add(size, mul(add(injParams_len, 2), 0x20))                 // add size of injected\n\n            res := delegatecall(gas, libAddress, ptr, size, 0, 0)               // delegatecall to library\n            if iszero(res) { revert(0, 0) }                                     // safety check\n\n            returndatacopy(ptr, 0, returndatasize)                              // copy return data into ptr for returning\n            return(ptr, returndatasize)                                         // return forwarded call returndata\n        }\n    }\n\n    /// @dev Gets Information about the Platform\n    /// @return  Info Struct that contains directory, version, token, and owner\n    function getInfo() public view returns (MatryxPlatform.Info) {\n        return info;\n    }\n\n    /// @dev Sets the Version\n    /// @param version  New version\n    function setVersion(uint256 version) external {\n        require(msg.sender == info.owner, \"Must be Platform owner\");\n        info.version = version;\n    }\n\n    /// @dev Sets the Token address\n    /// @param token  Address of MatryxToken\n    function setTokenAddress(address token) external {\n        require(msg.sender == info.owner, \"Must be Platform owner\");\n        info.token = token;\n    }\n}\n\ninterface IMatryxPlatform {\n    function getInfo() external view returns (MatryxPlatform.Info);\n    function setVersion(uint256) external;\n    function setTokenAddress(address) external;\n\n    function isTournament(address) external view returns (bool);\n    function isRound(address) external view returns (bool);\n    function isSubmission(address) external view returns (bool);\n    function hasEnteredMatryx(address) external view returns (bool);\n\n    function getTournamentCount() external view returns (uint256);\n    function getUserCount() external view returns (uint256);\n    function getTournaments(uint256, uint256) external view returns (address[]);\n    function getTournamentsByCategory(bytes32, uint256, uint256) external view returns (address[]);\n    function getUsers(uint256, uint256) external view returns (address[]);\n    function getCategories(uint256, uint256) external view returns (bytes32[]);\n\n    function createCategory(bytes32) external;\n\n    function enterMatryx() external;\n    function addTournamentToCategory(address, bytes32) external;\n    function removeTournamentFromCategory(address) external;\n    function createTournament(LibTournament.TournamentDetails, LibRound.RoundDetails) external returns (address);\n}\n\nlibrary LibPlatform {\n    using SafeMath for uint256;\n\n    event TournamentCreated(address _tournamentAddress);\n\n    /// @dev Return if a Tournament exists\n    /// @param tAddress  Tournament address\n    /// @return          true if Tournament exists\n    function isTournament(address, address, MatryxPlatform.Data storage data, address tAddress) public view returns (bool) {\n        return data.tournaments[tAddress].info.owner != 0x0;\n    }\n\n    /// @dev Return if a Round exists\n    /// @param rAddress  Round address\n    /// @return          true if Round exists\n    function isRound(address, address, MatryxPlatform.Data storage data, address rAddress) public view returns (bool) {\n        return data.rounds[rAddress].info.tournament != 0x0;\n    }\n\n    /// @dev Return if a Submission exists\n    /// @param sAddress  Submission address\n    /// @return          true if Submission exists\n    function isSubmission(address, address, MatryxPlatform.Data storage data, address sAddress) public view returns (bool) {\n        return data.submissions[sAddress].info.owner != 0x0;\n    }\n\n    /// @dev Return if user has entered Matryx\n    /// @param data  Platform storage containing all contract data\n    /// @return      If user has entered Matryx\n    function hasEnteredMatryx(address, address, MatryxPlatform.Data storage data, address uAddress) public view returns (bool) {\n        return data.users[uAddress].exists;\n    }\n\n    /// @dev Return total number of Tournaments\n    /// @param data  Platform storage containing all contract data\n    /// @return      Number of Tournaments on Platform\n    function getTournamentCount(address, address, MatryxPlatform.Data storage data) public view returns (uint256) {\n        return data.allTournaments.length;\n    }\n\n    /// @dev Return total number of Users\n    /// @param data  Platform storage containing all contract data\n    /// @return      Number of Users on Platform\n    function getUserCount(address, address, MatryxPlatform.Data storage data) public view returns (uint256) {\n        return data.allUsers.length;\n    }\n\n    /// @dev Return count Tournaments starting at startIndex\n    /// @param info        Platform storage containing version number and system address\n    /// @param data        Platform storage containing all contract data\n    /// @param startIndex  Index of first Tournament to return\n    /// @param count       Number of Tournaments to return. If 0, all\n    /// @return            Array of Tournament addresses\n    function getTournaments(address, address, MatryxPlatform.Info storage info, MatryxPlatform.Data storage data, uint256 startIndex, uint256 count) public view returns (address[]) {\n        address libUtils = IMatryxSystem(info.system).getContract(info.version, \"LibUtils\");\n        address[] storage tournaments = data.allTournaments;\n\n        assembly {\n            let offset := 0x100000000000000000000000000000000000000000000000000000000\n            let ptr := mload(0x40)\n\n            mstore(ptr, mul(0xe79eda2c, offset))                                // getSubArray(bytes32[] storage,uint256,uint256)\n            mstore(add(ptr, 0x04), tournaments_slot)                            // data.allTournaments\n            mstore(add(ptr, 0x24), startIndex)                                  // arg 0 - startIndex\n            mstore(add(ptr, 0x44), count)                                       // arg 1 - count\n\n            let res := delegatecall(gas, libUtils, ptr, 0x64, 0, 0)             // call LibUtils.getSubArray\n            if iszero(res) { revert(0, 0) }                                     // safety check\n\n            returndatacopy(ptr, 0, returndatasize)                              // copy result into mem\n            return(ptr, returndatasize)                                         // return result\n        }\n    }\n\n    /// @dev Return all Tournaments for a category\n    /// @param info      Platform storage containing version number and system address\n    /// @param data      Platform storage containing all contract data\n    /// @param category  Category name to get\n    /// @param startIndex  Index of first User to return\n    /// @param count       Number of User to return. If 0, all\n    /// @return          Array of Tournament addresses for given category\n    function getTournamentsByCategory(address, address, MatryxPlatform.Info storage info, MatryxPlatform.Data storage data, bytes32 category, uint256 startIndex, uint256 count) public view returns (address[]) {\n        address libUtils = IMatryxSystem(info.system).getContract(info.version, \"LibUtils\");\n\n        assembly {\n            let offset := 0x100000000000000000000000000000000000000000000000000000000\n            let ptr := mload(0x40)\n\n            mstore(0, category)\n            mstore(0x20, add(data_slot, 4))                                     // data.categories\n            let s_category := keccak256(0, 0x40)                                // data.categories[category] slot\n\n            mstore(ptr, mul(0xe79eda2c, offset))                                // getSubArray(bytes32[] storage,uint256,uint256)\n            mstore(add(ptr, 0x04), s_category)                                  // data.categories[category]\n            mstore(add(ptr, 0x24), startIndex)                                  // arg 0 - startIndex\n            mstore(add(ptr, 0x44), count)                                       // arg 1 - count\n\n            let res := delegatecall(gas, libUtils, ptr, 0x64, 0, 0)             // call LibUtils.getSubArray\n            if iszero(res) { revert(0, 0) }                                     // safety check\n\n            returndatacopy(ptr, 0, returndatasize)                              // copy result into mem\n            return(ptr, returndatasize)                                         // return result\n        }\n    }\n\n    /// @dev Return count Users starting at startIndex\n    /// @param info        Platform storage containing version number and system address\n    /// @param data        Platform storage containing all contract data\n    /// @param startIndex  Index of first User to return\n    /// @param count       Number of User to return. If 0, all\n    /// @return            Array of User addresses\n    function getUsers(address, address, MatryxPlatform.Info storage info, MatryxPlatform.Data storage data, uint256 startIndex, uint256 count) public view returns (address[]) {\n        address libUtils = IMatryxSystem(info.system).getContract(info.version, \"LibUtils\");\n        address[] storage users = data.allUsers;\n\n        assembly {\n            let offset := 0x100000000000000000000000000000000000000000000000000000000\n            let ptr := mload(0x40)\n\n            mstore(ptr, mul(0xe79eda2c, offset))                                // getSubArray(bytes32[] storage,uint256,uint256)\n            mstore(add(ptr, 0x04), users_slot)                                  // data.allUsers\n            mstore(add(ptr, 0x24), startIndex)                                  // arg 0 - startIndex\n            mstore(add(ptr, 0x44), count)                                       // arg 1 - count\n\n            let res := delegatecall(gas, libUtils, ptr, 0x64, 0, 0)             // call LibUtils.getSubArray\n            if iszero(res) { revert(0, 0) }                                     // safety check\n\n            returndatacopy(ptr, 0, returndatasize)                              // copy result into mem\n            return(ptr, returndatasize)                                         // return result\n        }\n    }\n\n    /// @dev Return Categories in platform by index\n    /// @param info        Platform storage containing version number and system address\n    /// @param data        Platform storage containing all contract data\n    /// @param startIndex  Index of first Category to return\n    /// @param count       Number of Category to return. If 0, all\n    /// @return            Array of Categories\n    function getCategories(address, address, MatryxPlatform.Info storage info, MatryxPlatform.Data storage data, uint256 startIndex, uint256 count) public view returns (bytes32[]) {\n        address libUtils = IMatryxSystem(info.system).getContract(info.version, \"LibUtils\");\n        bytes32[] storage allCategories = data.allCategories;\n\n        assembly {\n            let offset := 0x100000000000000000000000000000000000000000000000000000000\n            let ptr := mload(0x40)\n\n            mstore(ptr, mul(0xe79eda2c, offset))                                // getSubArray(bytes32[] storage,uint256,uint256)\n            mstore(add(ptr, 0x04), allCategories_slot)                          // data.allCategories\n            mstore(add(ptr, 0x24), startIndex)                                  // arg 0 - startIndex\n            mstore(add(ptr, 0x44), count)                                       // arg 1 - count\n\n            let res := delegatecall(gas, libUtils, ptr, 0x64, 0, 0)             // call LibUtils.getSubArray\n            if iszero(res) { revert(0, 0) }                                     // safety check\n\n            returndatacopy(ptr, 0, returndatasize)                              // copy result into mem\n            return(ptr, returndatasize)                                         // return result\n        }\n    }\n\n    /// @dev Creates a category\n    /// @param sender    msg.sender to Platform\n    /// @param info      Platform storage containing version number and system address\n    /// @param data      Platform storage containing all contract data and users\n    /// @param category  Category to create\n    function createCategory(address sender, address, MatryxPlatform.Info storage info, MatryxPlatform.Data storage data, bytes32 category) public {\n        require(sender == info.owner, \"Must be Platform owner\");\n        require(!data.categoryExists[category], \"Category already exists\");\n\n        data.allCategories.push(category);\n        data.categoryExists[category] = true;\n    }\n\n    /// @dev Enter Matryx\n    /// @param sender  msg.sender to Platform\n    /// @param info    Platform storage containing version number and system address\n    /// @param data    Platform storage containing all contract data and users\n    function enterMatryx(address sender, address, MatryxPlatform.Info storage info, MatryxPlatform.Data storage data) public {\n        require(!data.users[sender].exists, \"Already entered Matryx\");\n        require(IMatryxToken(info.token).balanceOf(sender) > 0, \"Must have MTX\");\n\n        data.users[sender].exists = true;\n        data.users[sender].timeEntered = now;\n        data.allUsers.push(sender);\n    }\n\n    /// @dev Adds a Tournament to a category\n    /// @param data      Platform storage containing all contract data\n    /// @param tAddress  Tournament address\n    /// @param category  Category name\n    function addTournamentToCategory(address sender, address platform, MatryxPlatform.Info storage info, MatryxPlatform.Data storage data, address tAddress, bytes32 category) public {\n        require(sender == platform || IMatryxSystem(info.system).getContractType(sender) == uint256(LibSystem.ContractType.Tournament), \"Must come from Platform or Tournament\");\n        require(data.categoryExists[category], \"Category does not exist\");\n\n        data.categories[category].push(tAddress);\n        data.tournaments[tAddress].details.category = category;\n    }\n\n    /// @dev Removes a Tournament from its current category\n    /// @param data      Platform storage containing all contract data\n    /// @param tAddress  Tournament address\n    function removeTournamentFromCategory(address sender, address platform, MatryxPlatform.Info storage info, MatryxPlatform.Data storage data, address tAddress) public {\n        require(sender == platform || IMatryxSystem(info.system).getContractType(sender) == uint256(LibSystem.ContractType.Tournament), \"Must come from Platform or Tournament\");\n\n        address libUtils = IMatryxSystem(info.system).getContract(info.version, \"LibUtils\");\n        bytes32 category = data.tournaments[tAddress].details.category;\n        address[] storage categoryList = data.categories[category];\n        uint256 index;\n\n        for (index = 0; index < categoryList.length; index++) {\n            if (categoryList[index] == tAddress) break;\n        }\n\n        assembly {\n            let offset := 0x100000000000000000000000000000000000000000000000000000000\n            let ptr := mload(0x40)\n\n            mstore(ptr, mul(0x4a71ede8, offset))                        // removeArrayElement(bytes32[] storage,uint256)\n            mstore(add(ptr, 0x04), categoryList_slot)                   // arg 0 - data.categories[tournament.category]\n            mstore(add(ptr, 0x24), index)                               // arg 1 - index\n\n            let res := delegatecall(gas, libUtils, ptr, 0x44, 0, 0)     // call LibUtils.removeArrayElement\n            if iszero(res) { revert(0, 0) }                             // safety check\n        }\n    }\n\n    /// @dev Creates a Tournament\n    /// @param sender    msg.sender to Platform\n    /// @param info      Platform storage containing version number and system address\n    /// @param data      Platform storage containing all contract data and users\n    /// @param tDetails  Tournament details (title, category, descHash, fileHash, bounty, entryFee)\n    /// @param rDetails  Round details (start, end, review, bounty)\n    /// @return          Address of the created Tournament\n    function createTournament(address sender, address platform, MatryxPlatform.Info storage info, MatryxPlatform.Data storage data, LibTournament.TournamentDetails tDetails, LibRound.RoundDetails rDetails) public returns (address) {\n        require(data.users[sender].exists, \"Must have entered Matryx\");\n        require(tDetails.bounty > 0, \"Tournament bounty must be greater than 0\");\n        require(rDetails.bounty <= tDetails.bounty, \"Round bounty cannot exceed Tournament bounty\");\n        require(IMatryxToken(info.token).allowance(sender, this) >= tDetails.bounty, \"Insufficient MTX\");\n\n        address tAddress = new MatryxTournament(info.version, info.system);\n\n        IMatryxSystem(info.system).setContractType(tAddress, uint256(LibSystem.ContractType.Tournament));\n        data.allTournaments.push(tAddress);\n        addTournamentToCategory(address(this), platform, info, data, tAddress, tDetails.category);\n\n        LibUser.UserData storage user = data.users[sender];\n        user.tournaments.push(tAddress);\n        user.totalSpent = user.totalSpent.add(tDetails.bounty);\n\n        LibTournament.TournamentData storage tournament = data.tournaments[tAddress];\n        tournament.info.version = info.version;\n        tournament.info.owner = sender;\n        tournament.details = tDetails;\n\n        require(IMatryxToken(info.token).transferFrom(sender, tAddress, tDetails.bounty), \"Transfer failed\");\n\n        bytes32 libName = IMatryxSystem(info.system).getLibraryName(uint256(LibSystem.ContractType.Tournament));\n        address libTournament = IMatryxSystem(info.system).getContract(info.version, libName);\n        assembly {\n            let offset := 0x100000000000000000000000000000000000000000000000000000000\n            let ptr := mload(0x40)\n\n            mstore(ptr, mul(0xca0ba8b4, offset))                            // createRound(address,address,MatryxPlatform.Info storage,MatryxPlatform.Data storage,LibRound.RoundDetails)\n            mstore(add(ptr, 0x04), tAddress)                                // arg 0 - self\n            mstore(add(ptr, 0x24), sender)                                  // arg 1 - sender\n            mstore(add(ptr, 0x44), info_slot)                               // arg 2 - info\n            mstore(add(ptr, 0x64), data_slot)                               // arg 3 - data\n            calldatacopy(add(ptr, 0x84), sub(calldatasize, 0x80), 0x80)     // arg 4 - rDetails\n\n            let res := delegatecall(gas, libTournament, ptr, 0x104, 0, 0)   // call LibTournament.createRound\n            if iszero(res) { revert(0, 0) }                                 // safety check\n        }\n        // LibTournament.createRound(tAddress, this, info, data, rDetails);\n\n        emit TournamentCreated(tAddress);\n        return tAddress;\n    }\n}\n",
  "sourcePath": "/Users/ajm13/Desktop/matryx/MatryxPlatform/contracts/MatryxPlatform.sol",
  "compiler": {
    "name": "solc",
    "version": "0.4.24+commit.e67f0147.Emscripten.clang"
  },
  "schemaVersion": "2.0.1",
  "updatedAt": "2018-11-07T00:18:14.895Z"
}