{
  "contractName": "LibPlatform",
  "abi": [
    {
      "anonymous": false,
      "inputs": [
        {
          "indexed": false,
          "name": "tournament",
          "type": "address"
        },
        {
          "indexed": false,
          "name": "creator",
          "type": "address"
        }
      ],
      "name": "TournamentCreated",
      "type": "event",
      "signature": "0xf56acdced4755840dcfd0a6bde3ec57cd0868177647107fefb8a2bce07c3e618"
    },
    {
      "anonymous": false,
      "inputs": [
        {
          "indexed": false,
          "name": "tournament",
          "type": "address"
        },
        {
          "indexed": false,
          "name": "donor",
          "type": "address"
        },
        {
          "indexed": false,
          "name": "amount",
          "type": "uint256"
        }
      ],
      "name": "TournamentBountyAdded",
      "type": "event",
      "signature": "0x0905fbfc309b9c5448ff0529c791d83591ad457d5b85ce1cad0e301bacaf575b"
    },
    {
      "constant": true,
      "inputs": [
        {
          "name": "",
          "type": "address"
        },
        {
          "name": "",
          "type": "address"
        },
        {
          "name": "info",
          "type": "MatryxPlatform.Info storage"
        }
      ],
      "name": "getInfo",
      "outputs": [
        {
          "components": [
            {
              "name": "system",
              "type": "address"
            },
            {
              "name": "token",
              "type": "address"
            },
            {
              "name": "owner",
              "type": "address"
            }
          ],
          "name": "",
          "type": "tuple"
        }
      ],
      "payable": false,
      "stateMutability": "view",
      "type": "function",
      "signature": "0x2c27d013"
    },
    {
      "constant": true,
      "inputs": [
        {
          "name": "",
          "type": "address"
        },
        {
          "name": "",
          "type": "address"
        },
        {
          "name": "data",
          "type": "MatryxPlatform.Data storage"
        },
        {
          "name": "tAddress",
          "type": "address"
        }
      ],
      "name": "isTournament",
      "outputs": [
        {
          "name": "",
          "type": "bool"
        }
      ],
      "payable": false,
      "stateMutability": "view",
      "type": "function",
      "signature": "0xcda2084d"
    },
    {
      "constant": true,
      "inputs": [
        {
          "name": "",
          "type": "address"
        },
        {
          "name": "",
          "type": "address"
        },
        {
          "name": "data",
          "type": "MatryxPlatform.Data storage"
        },
        {
          "name": "cHash",
          "type": "bytes32"
        }
      ],
      "name": "isCommit",
      "outputs": [
        {
          "name": "",
          "type": "bool"
        }
      ],
      "payable": false,
      "stateMutability": "view",
      "type": "function",
      "signature": "0xf76c668e"
    },
    {
      "constant": true,
      "inputs": [
        {
          "name": "",
          "type": "address"
        },
        {
          "name": "",
          "type": "address"
        },
        {
          "name": "data",
          "type": "MatryxPlatform.Data storage"
        },
        {
          "name": "sHash",
          "type": "bytes32"
        }
      ],
      "name": "isSubmission",
      "outputs": [
        {
          "name": "",
          "type": "bool"
        }
      ],
      "payable": false,
      "stateMutability": "view",
      "type": "function",
      "signature": "0xc71db8ba"
    },
    {
      "constant": true,
      "inputs": [
        {
          "name": "",
          "type": "address"
        },
        {
          "name": "",
          "type": "address"
        },
        {
          "name": "data",
          "type": "MatryxPlatform.Data storage"
        }
      ],
      "name": "getTotalBalance",
      "outputs": [
        {
          "name": "",
          "type": "uint256"
        }
      ],
      "payable": false,
      "stateMutability": "view",
      "type": "function",
      "signature": "0x7f279bd0"
    },
    {
      "constant": true,
      "inputs": [
        {
          "name": "",
          "type": "address"
        },
        {
          "name": "",
          "type": "address"
        },
        {
          "name": "data",
          "type": "MatryxPlatform.Data storage"
        }
      ],
      "name": "getTournamentCount",
      "outputs": [
        {
          "name": "",
          "type": "uint256"
        }
      ],
      "payable": false,
      "stateMutability": "view",
      "type": "function",
      "signature": "0x54b73af5"
    },
    {
      "constant": true,
      "inputs": [
        {
          "name": "",
          "type": "address"
        },
        {
          "name": "",
          "type": "address"
        },
        {
          "name": "data",
          "type": "MatryxPlatform.Data storage"
        }
      ],
      "name": "getTournaments",
      "outputs": [
        {
          "name": "",
          "type": "address[]"
        }
      ],
      "payable": false,
      "stateMutability": "view",
      "type": "function",
      "signature": "0x275111eb"
    },
    {
      "constant": true,
      "inputs": [
        {
          "name": "",
          "type": "address"
        },
        {
          "name": "",
          "type": "address"
        },
        {
          "name": "data",
          "type": "MatryxPlatform.Data storage"
        },
        {
          "name": "submissionHash",
          "type": "bytes32"
        }
      ],
      "name": "getSubmission",
      "outputs": [
        {
          "components": [
            {
              "name": "tournament",
              "type": "address"
            },
            {
              "name": "roundIndex",
              "type": "uint256"
            },
            {
              "name": "commitHash",
              "type": "bytes32"
            },
            {
              "name": "content",
              "type": "string"
            },
            {
              "name": "reward",
              "type": "uint256"
            },
            {
              "name": "timestamp",
              "type": "uint256"
            }
          ],
          "name": "",
          "type": "tuple"
        }
      ],
      "payable": false,
      "stateMutability": "view",
      "type": "function",
      "signature": "0x348785e9"
    },
    {
      "constant": false,
      "inputs": [
        {
          "name": "",
          "type": "address"
        },
        {
          "name": "sender",
          "type": "address"
        },
        {
          "name": "info",
          "type": "MatryxPlatform.Info storage"
        },
        {
          "name": "data",
          "type": "MatryxPlatform.Data storage"
        },
        {
          "name": "user",
          "type": "address"
        }
      ],
      "name": "blacklist",
      "outputs": [],
      "payable": false,
      "stateMutability": "nonpayable",
      "type": "function",
      "signature": "0x550dcc3a"
    },
    {
      "constant": false,
      "inputs": [
        {
          "name": "",
          "type": "address"
        },
        {
          "name": "sender",
          "type": "address"
        },
        {
          "name": "info",
          "type": "MatryxPlatform.Info storage"
        },
        {
          "name": "data",
          "type": "MatryxPlatform.Data storage"
        },
        {
          "components": [
            {
              "name": "content",
              "type": "string"
            },
            {
              "name": "bounty",
              "type": "uint256"
            },
            {
              "name": "entryFee",
              "type": "uint256"
            }
          ],
          "name": "tDetails",
          "type": "tuple"
        },
        {
          "components": [
            {
              "name": "start",
              "type": "uint256"
            },
            {
              "name": "duration",
              "type": "uint256"
            },
            {
              "name": "review",
              "type": "uint256"
            },
            {
              "name": "bounty",
              "type": "uint256"
            }
          ],
          "name": "rDetails",
          "type": "tuple"
        }
      ],
      "name": "createTournament",
      "outputs": [
        {
          "name": "",
          "type": "address"
        }
      ],
      "payable": false,
      "stateMutability": "nonpayable",
      "type": "function",
      "signature": "0xa70e8fe3"
    }
  ],
  "bytecode": "0x61198c610030600b82828239805160001a6073146000811461002057610022565bfe5b5030600052607381538281f3fe7300000000000000000000000000000000000000003014608060405260043610620000c55763ffffffff7c0100000000000000000000000000000000000000000000000000000000600035041663275111eb8114620000ca5780632ba215d814620000f95780632c27d013146200012d578063348785e9146200015357806354b73af51462000179578063550dcc3a146200019f5780637f279bd014620001c6578063c71db8ba14620001dd578063cda2084d1462000203578063f76c668e146200021a575b600080fd5b620000e1620000db36600462000e45565b62000231565b604051620000f09190620014f0565b60405180910390f35b8180156200010657600080fd5b506200011e6200011836600462000fe1565b6200029c565b604051620000f0919062001427565b620001446200013e36600462000e45565b62000837565b604051620000f091906200157f565b6200016a6200016436600462000f03565b6200087a565b604051620000f091906200158f565b620001906200018a36600462000e45565b6200097a565b604051620000f09190620015a2565b818015620001ac57600080fd5b50620001c4620001be36600462000f61565b62000984565b005b62000190620001d736600462000e45565b620009e3565b620001f4620001ee36600462000f03565b620009ea565b604051620000f0919062001503565b620001f46200021436600462000e99565b62000a0e565b620001f46200022b36600462000f03565b62000a38565b6060816005018054806020026020016040519081016040528092919081815260200182805480156200028d57602002820191906000526020600020905b8154600160a060020a031681526001909101906020018083116200026e575b505050505090505b9392505050565b6000620002ab85858862000a5c565b1515620002d85760405160e560020a62461bcd028152600401620002cf9062001525565b60405180910390fd5b6020830151600010620003025760405160e560020a62461bcd028152600401620002cf9062001549565b602083015160608301511115620003305760405160e560020a62461bcd028152600401620002cf906200155b565b602083015160018601546040517fdd62ed3e000000000000000000000000000000000000000000000000000000008152600160a060020a039091169063dd62ed3e9062000384908a90309060040162001437565b60206040518083038186803b1580156200039d57600080fd5b505afa158015620003b2573d6000803e3d6000fd5b505050506040513d601f19601f82011682018060405250620003d89190810190620010b0565b1015620003fc5760405160e560020a62461bcd028152600401620002cf906200156d565b8454604080517f0d8e6e2c0000000000000000000000000000000000000000000000000000000081529051600092600160a060020a031691630d8e6e2c916004808301926020929190829003018186803b1580156200045a57600080fd5b505afa1580156200046f573d6000803e3d6000fd5b505050506040513d601f19601f82011682018060405250620004959190810190620010b0565b86549091506000908290600160a060020a0316620004b262000bb1565b620004bf929190620015b2565b604051809103906000f080158015620004dc573d6000803e3d6000fd5b5087546040517f6226d738000000000000000000000000000000000000000000000000000000008152919250600160a060020a031690636226d738906200052b908490600390600401620014d1565b600060405180830381600087803b1580156200054657600080fd5b505af11580156200055b573d6000803e3d6000fd5b505050506005860180546001808201835560009283526020808420909201805473ffffffffffffffffffffffffffffffffffffffff19908116600160a060020a03878116918217909355855260038b01845260409094208681559182018054909416908c16179092558651805188926002850192620005e1928492919091019062000bc2565b50602082810151600183015560409092015160029091015586015187546200060f9163ffffffff62000b9816565b875560208087018051600160a060020a0380861660009081526001808d0190955260409081902092909255928b0154915190517f23b872dd00000000000000000000000000000000000000000000000000000000815291909216916323b872dd9162000683918d91309190600401620014a3565b602060405180830381600087803b1580156200069e57600080fd5b505af1158015620006b3573d6000803e3d6000fd5b505050506040513d601f19601f82011682018060405250620006d991908101906200108f565b1515620006fd5760405160e560020a62461bcd028152600401620002cf9062001513565b6040517f13f957a000000000000000000000000000000000000000000000000000000000815273__LibTournament_________________________906313f957a0906200075790859030908d908d908c9060040162001456565b60206040518083038186803b1580156200077057600080fd5b505af415801562000785573d6000803e3d6000fd5b505050506040513d601f19601f82011682018060405250620007ab9190810190620010b0565b507ff56acdced4755840dcfd0a6bde3ec57cd0868177647107fefb8a2bce07c3e618828a604051620007df92919062001437565b60405180910390a17f0905fbfc309b9c5448ff0529c791d83591ad457d5b85ce1cad0e301bacaf575b828a88602001516040516200082093929190620014a3565b60405180910390a1509150505b9695505050505050565b6200084162000c47565b50604080516060810182528254600160a060020a0390811682526001840154811660208301526002909301549092169082015292915050565b6200088462000c67565b6000828152600484016020908152604091829020825160c0810184528154600160a060020a03168152600180830154828501526002808401548387015260038401805487516101009482161594909402600019011691909104601f810186900486028301860190965285825291949293606086019391929190830182828015620009525780601f10620009265761010080835404028352916020019162000952565b820191906000526020600020905b8154815290600101906020018083116200093457829003601f168201915b505050505081526020016004820154815260200160058201548152505090505b949350505050565b6005015492915050565b6002830154600160a060020a03858116911614620009b95760405160e560020a62461bcd028152600401620002cf9062001537565b600160a060020a03166000908152600e90910160205260409020805460ff19166001179055505050565b5492915050565b6000818152600483016020526040902054600160a060020a03161515949350505050565b600160a060020a038181166000908152600384016020526040902060010154161515949350505050565b6000818152600683016020526040902054600160a060020a03161515949350505050565b600160a060020a0381166000908152600e8301602052604081205460ff161562000a895750600062000295565b600160a060020a0382166000908152600d8401602052604090205460ff161562000ab65750600162000295565b60018401546040517f70a08231000000000000000000000000000000000000000000000000000000008152600091600160a060020a0316906370a082319062000b0490869060040162001427565b60206040518083038186803b15801562000b1d57600080fd5b505afa15801562000b32573d6000803e3d6000fd5b505050506040513d601f19601f8201168201806040525062000b589190810190620010b0565b111562000b8e5750600160a060020a0381166000908152600d830160205260409020805460ff1916600190811790915562000295565b5060009392505050565b60008282018381101562000ba857fe5b90505b92915050565b6040516102d2806200168183390190565b828054600181600116156101000203166002900490600052602060002090601f016020900481019282601f1062000c0557805160ff191683800117855562000c35565b8280016001018555821562000c35579182015b8281111562000c3557825182559160200191906001019062000c18565b5062000c4392915062000c9b565b5090565b604080516060810182526000808252602082018190529181019190915290565b6040805160c0810182526000808252602082018190529181018290526060808201526080810182905260a081019190915290565b62000cb891905b8082111562000c43576000815560010162000ca2565b90565b60006200029582356200161d565b60006200029582516200162a565b600062000295823562000cb8565b6000601f8201831362000cf757600080fd5b813562000d0e62000d0882620015ea565b620015c2565b9150808252602083016020830185838301111562000d2b57600080fd5b62000d388382846200163b565b50505092915050565b60006080828403121562000d5457600080fd5b62000d606080620015c2565b9050600062000d70848462000cd7565b825250602062000d838484830162000cd7565b602083015250604062000d998482850162000cd7565b604083015250606062000daf8482850162000cd7565b60608301525092915050565b60006060828403121562000dce57600080fd5b62000dda6060620015c2565b9050813567ffffffffffffffff81111562000df457600080fd5b62000e028482850162000ce5565b825250602062000e158484830162000cd7565b602083015250604062000e2b8482850162000cd7565b60408301525092915050565b600062000295825162000cb8565b60008060006060848603121562000e5b57600080fd5b600062000e69868662000cbb565b935050602062000e7c8682870162000cbb565b925050604062000e8f8682870162000cd7565b9150509250925092565b6000806000806080858703121562000eb057600080fd5b600062000ebe878762000cbb565b945050602062000ed18782880162000cbb565b935050604062000ee48782880162000cd7565b925050606062000ef78782880162000cbb565b91505092959194509250565b6000806000806080858703121562000f1a57600080fd5b600062000f28878762000cbb565b945050602062000f3b8782880162000cbb565b935050604062000f4e8782880162000cd7565b925050606062000ef78782880162000cd7565b600080600080600060a0868803121562000f7a57600080fd5b600062000f88888862000cbb565b955050602062000f9b8882890162000cbb565b945050604062000fae8882890162000cd7565b935050606062000fc18882890162000cd7565b925050608062000fd48882890162000cbb565b9150509295509295909350565b600080600080600080610120878903121562000ffc57600080fd5b60006200100a898962000cbb565b96505060206200101d89828a0162000cbb565b95505060406200103089828a0162000cd7565b94505060606200104389828a0162000cd7565b935050608087013567ffffffffffffffff8111156200106157600080fd5b6200106f89828a0162000dbb565b92505060a06200108289828a0162000d41565b9150509295509295509295565b600060208284031215620010a257600080fd5b600062000972848462000cc9565b600060208284031215620010c357600080fd5b600062000972848462000e37565b620010dc816200161d565b82525050565b6000620010ef8262001619565b808452602084019350620011038362001613565b60005b8281101562001139576200111c868351620010d1565b620011278262001613565b60209690960195915060010162001106565b5093949350505050565b620010dc816200162a565b620010dc8162000cb8565b6000620011668262001619565b8084526200117c81602086016020860162001647565b620011878162001676565b9093016020019392505050565b600f81527f5472616e73666572206661696c65640000000000000000000000000000000000602082015260400190565b601d81527f4d75737420626520616c6c6f77656420746f20757365204d6174727978000000602082015260400190565b601681527f4d75737420626520506c6174666f726d206f776e657200000000000000000000602082015260400190565b602881527f546f75726e616d656e7420626f756e7479206d7573742062652067726561746560208201527f72207468616e2030000000000000000000000000000000000000000000000000604082015260600190565b602c81527f526f756e6420626f756e74792063616e6e6f742065786365656420546f75726e60208201527f616d656e7420626f756e74790000000000000000000000000000000000000000604082015260600190565b601081527f496e73756666696369656e74204d545800000000000000000000000000000000602082015260400190565b9052565b80516060830190620013178482620010d1565b5060208201516200132c6020850182620010d1565b506040820151620013416040850182620010d1565b50505050565b805160808301906200135a84826200114e565b5060208201516200136f60208501826200114e565b5060408201516200138460408501826200114e565b5060608201516200134160608501826200114e565b805160009060c0840190620013af8582620010d1565b506020830151620013c460208601826200114e565b506040830151620013d960408601826200114e565b5060608301518482036060860152620013f3828262001159565b91505060808301516200140a60808601826200114e565b5060a08301516200141f60a08601826200114e565b509392505050565b6020810162000bab8284620010d1565b60408101620014478285620010d1565b620002956020830184620010d1565b6101008101620014678288620010d1565b620014766020830187620010d1565b62001485604083018662001300565b62001494606083018562001300565b6200082d608083018462001347565b60608101620014b38286620010d1565b620014c26020830185620010d1565b6200097260408301846200114e565b60408101620014e18285620010d1565b6200029560208301846200114e565b60208082528101620002958184620010e2565b6020810162000bab828462001143565b6020808252810162000bab8162001194565b6020808252810162000bab81620011c4565b6020808252810162000bab81620011f4565b6020808252810162000bab8162001224565b6020808252810162000bab816200127a565b6020808252810162000bab81620012d0565b6060810162000bab828462001304565b6020808252810162000295818462001399565b6020810162000bab82846200114e565b604081016200144782856200114e565b60405181810167ffffffffffffffff81118282101715620015e257600080fd5b604052919050565b600067ffffffffffffffff8211156200160257600080fd5b506020601f91909101601f19160190565b60200190565b5190565b600062000bab826200162f565b151590565b600160a060020a031690565b82818337506000910152565b60005b83811015620016645781810151838201526020016200164a565b83811115620013415750506000910152565b601f01601f19169056fe608060405234801561001057600080fd5b506040516040806102d2833981018060405261002f9190810190610078565b60009190915560018054600160a060020a031916600160a060020a039092169190911790556100d2565b600061006582516100be565b9392505050565b600061006582516100cf565b6000806040838503121561008b57600080fd5b6000610097858561006c565b92505060206100a885828601610059565b9150509250929050565b600160a060020a031690565b60006100c9826100b2565b92915050565b90565b6101f1806100e16000396000f3fe608060405234801561001057600080fd5b50600080546001546040517fc53cfd9a00000000000000000000000000000000000000000000000000000000815291929173ffffffffffffffffffffffffffffffffffffffff9091169063c53cfd9a906100909085907f4d6174727978506c6174666f726d0000000000000000000000000000000000009060040161016f565b60206040518083038186803b1580156100a857600080fd5b505afa1580156100bc573d6000803e3d6000fd5b505050506040513d601f19601f820116820180604052506100e0919081019061013a565b90506040516000600460008337336004830152836024830152600436036004604484013760008060403601846000875af190503d6000833e801515610123573d82fd5b3d82f35b600061013382516101a6565b9392505050565b60006020828403121561014c57600080fd5b60006101588484610127565b949350505050565b6101698161018a565b82525050565b6040810161017d8285610160565b6101336020830184610160565b90565b73ffffffffffffffffffffffffffffffffffffffff1690565b60006101b18261018d565b9291505056fea265627a7a7230582081152b910309ba881dcd82a5db6f278e49e8f16c11ef6149728f0d887ce7cda46c6578706572696d656e74616cf50037a265627a7a72305820f3abea7f3fb1b2065fb914579cb6fb9bd17a4c2c695e9caa4d67eae9f55e5eff6c6578706572696d656e74616cf50037",
  "source": "pragma solidity ^0.5.0;\npragma experimental ABIEncoderV2;\n\nimport \"./SafeMath.sol\";\nimport \"./LibGlobals.sol\";\nimport \"./IToken.sol\";\n\nimport \"./MatryxSystem.sol\";\nimport \"./MatryxCommit.sol\";\nimport \"./MatryxTournament.sol\";\n\nlibrary LibPlatform {\n    using SafeMath for uint256;\n\n    event TournamentCreated(address tournament, address creator);\n    event TournamentBountyAdded(address tournament, address donor, uint256 amount);\n\n    function _canUseMatryx(MatryxPlatform.Info storage info, MatryxPlatform.Data storage data, address user) internal returns (bool) {\n        if (data.blacklist[user]) return false;\n        if (data.whitelist[user]) return true;\n\n        if (IToken(info.token).balanceOf(user) > 0) {\n            data.whitelist[user] = true;\n            return true;\n        }\n\n        return false;\n    }\n\n    /// @dev Gets information about the Platform\n    /// @param info    Platform info struct\n    /// @return  Info Struct that contains system, token, and owner\n    function getInfo(address, address, MatryxPlatform.Info storage info) public view returns (MatryxPlatform.Info memory) {\n        return info;\n    }\n\n    /// @dev Return if a Tournament exists\n    /// @param data      Platform data struct\n    /// @param tAddress  Tournament address\n    /// @return          true if Tournament exists\n    function isTournament(address, address, MatryxPlatform.Data storage data, address tAddress) public view returns (bool) {\n        return data.tournaments[tAddress].info.owner != address(0);\n    }\n\n    /// @dev Return if a Commit exists\n    /// @param data      Platform data struct\n    /// @param cHash     Commit hash\n    /// @return          true if Commit exists\n    function isCommit(address, address, MatryxPlatform.Data storage data, bytes32 cHash) public view returns (bool){\n        return data.commits[cHash].owner != address(0);\n    }\n\n    /// @dev Return if a Submission exists\n    /// @param data      Platform data struct\n    /// @param sHash     Submission hash\n    /// @return          true if Submission exists\n    function isSubmission(address, address, MatryxPlatform.Data storage data, bytes32 sHash) public view returns (bool){\n        return data.submissions[sHash].tournament != address(0);\n    }\n\n    /// @dev Return total allocated MTX in Platform\n    /// @param data  Platform data struct\n    /// @return      Total allocated MTX in Platform\n    function getTotalBalance(address, address, MatryxPlatform.Data storage data) public view returns (uint256) {\n        return data.totalBalance;\n    }\n\n    /// @dev Return total number of Tournaments\n    /// @param data  Platform data struct\n    /// @return      Number of Tournaments on Platform\n    function getTournamentCount(address, address, MatryxPlatform.Data storage data) public view returns (uint256) {\n        return data.allTournaments.length;\n    }\n\n    /// @dev Return all Tournaments addresses\n    /// @param data  Platform data struct\n    /// @return      Array of Tournament addresses\n    function getTournaments(address, address, MatryxPlatform.Data storage data) public view returns (address[] memory) {\n        return data.allTournaments;\n    }\n\n    /// @dev Returns a Submission by its hash\n    /// @param data            Platform data struct\n    /// @param submissionHash  Submission hash\n    /// @return                The submission details\n    function getSubmission(address, address, MatryxPlatform.Data storage data, bytes32 submissionHash) external view returns (LibTournament.SubmissionData memory) {\n        return data.submissions[submissionHash];\n    }\n\n    /// @dev Blacklists a user address\n    /// @param info  Platform info struct\n    /// @param data  Platform data struct\n    /// @param user  User address\n    function blacklist(address, address sender, MatryxPlatform.Info storage info, MatryxPlatform.Data storage data, address user) public {\n        require(sender == info.owner, \"Must be Platform owner\");\n        data.blacklist[user] = true;\n    }\n\n    /// @dev Creates a Tournament\n    /// @param sender    msg.sender to Platform\n    /// @param info      Platform info struct\n    /// @param data      Platform data struct\n    /// @param tDetails  Tournament details (content, bounty, entryFee)\n    /// @param rDetails  Round details (start, end, review, bounty)\n    /// @return          Address of the created Tournament\n    function createTournament(address, address sender, MatryxPlatform.Info storage info, MatryxPlatform.Data storage data, LibTournament.TournamentDetails memory tDetails, LibTournament.RoundDetails memory rDetails) public returns (address) {\n        require(_canUseMatryx(info, data, sender), \"Must be allowed to use Matryx\");\n\n        require(tDetails.bounty > 0, \"Tournament bounty must be greater than 0\");\n        require(rDetails.bounty <= tDetails.bounty, \"Round bounty cannot exceed Tournament bounty\");\n        require(IToken(info.token).allowance(sender, address(this)) >= tDetails.bounty, \"Insufficient MTX\");\n\n        uint256 version = IMatryxSystem(info.system).getVersion();\n        address tAddress = address(new MatryxTournament(version, info.system));\n\n        IMatryxSystem(info.system).setContractType(tAddress, uint256(LibSystem.ContractType.Tournament));\n        data.allTournaments.push(tAddress);\n\n        LibTournament.TournamentData storage tournament = data.tournaments[tAddress];\n        tournament.info.version = version;\n        tournament.info.owner = sender;\n        tournament.details = tDetails;\n\n        data.totalBalance = data.totalBalance.add(tDetails.bounty);\n        data.tournamentBalance[tAddress] = tDetails.bounty;\n        require(IToken(info.token).transferFrom(sender, address(this), tDetails.bounty), \"Transfer failed\");\n\n        LibTournament.createRound(tAddress, address(this), info, data, rDetails);\n\n        emit TournamentCreated(tAddress, sender);\n        emit TournamentBountyAdded(tAddress, sender, tDetails.bounty);\n\n        return tAddress;\n    }\n}\n",
  "sourcePath": "/Users/maxhoward/Desktop/Ethereum/MatryxPlatform/contracts/LibPlatform.sol",
  "compiler": {
    "name": "solc",
    "version": "0.5.0+commit.1d4f565a.Emscripten.clang"
  },
  "schemaVersion": "3.0.2",
  "updatedAt": "2019-03-21T17:57:45.676Z",
  "devdoc": {
    "methods": {
      "blacklist(address,address,MatryxPlatform.Info storage,MatryxPlatform.Data storage,address)": {
        "details": "Blacklists a user address",
        "params": {
          "data": "Platform data struct",
          "info": "Platform info struct",
          "user": "User address"
        }
      },
      "createTournament(address,address,MatryxPlatform.Info storage,MatryxPlatform.Data storage,LibTournament.TournamentDetails,LibTournament.RoundDetails)": {
        "details": "Creates a Tournament",
        "params": {
          "data": "Platform data struct",
          "info": "Platform info struct",
          "rDetails": "Round details (start, end, review, bounty)",
          "sender": "msg.sender to Platform",
          "tDetails": "Tournament details (content, bounty, entryFee)"
        },
        "return": "Address of the created Tournament"
      },
      "getInfo(address,address,MatryxPlatform.Info storage)": {
        "details": "Gets information about the Platform",
        "params": {
          "info": "Platform info struct"
        },
        "return": "Info Struct that contains system, token, and owner"
      },
      "getSubmission(address,address,MatryxPlatform.Data storage,bytes32)": {
        "details": "Returns a Submission by its hash",
        "params": {
          "data": "Platform data struct",
          "submissionHash": "Submission hash"
        },
        "return": "The submission details"
      },
      "getTotalBalance(address,address,MatryxPlatform.Data storage)": {
        "details": "Return total allocated MTX in Platform",
        "params": {
          "data": "Platform data struct"
        },
        "return": "Total allocated MTX in Platform"
      },
      "getTournamentCount(address,address,MatryxPlatform.Data storage)": {
        "details": "Return total number of Tournaments",
        "params": {
          "data": "Platform data struct"
        },
        "return": "Number of Tournaments on Platform"
      },
      "getTournaments(address,address,MatryxPlatform.Data storage)": {
        "details": "Return all Tournaments addresses",
        "params": {
          "data": "Platform data struct"
        },
        "return": "Array of Tournament addresses"
      },
      "isCommit(address,address,MatryxPlatform.Data storage,bytes32)": {
        "details": "Return if a Commit exists",
        "params": {
          "cHash": "Commit hash",
          "data": "Platform data struct"
        },
        "return": "true if Commit exists"
      },
      "isSubmission(address,address,MatryxPlatform.Data storage,bytes32)": {
        "details": "Return if a Submission exists",
        "params": {
          "data": "Platform data struct",
          "sHash": "Submission hash"
        },
        "return": "true if Submission exists"
      },
      "isTournament(address,address,MatryxPlatform.Data storage,address)": {
        "details": "Return if a Tournament exists",
        "params": {
          "data": "Platform data struct",
          "tAddress": "Tournament address"
        },
        "return": "true if Tournament exists"
      }
    }
  },
  "userdoc": {
    "methods": {}
  }
}