{
  "contractName": "LibPlatform",
  "abi": [
    {
      "anonymous": false,
      "inputs": [
        {
          "indexed": false,
          "name": "_tournamentAddress",
          "type": "address"
        }
      ],
      "name": "TournamentCreated",
      "type": "event"
    },
    {
      "constant": true,
      "inputs": [
        {
          "name": "",
          "type": "address"
        },
        {
          "name": "",
          "type": "address"
        },
        {
          "name": "data",
          "type": "MatryxPlatform.Data storage"
        },
        {
          "name": "tAddress",
          "type": "address"
        }
      ],
      "name": "isTournament",
      "outputs": [
        {
          "name": "",
          "type": "bool"
        }
      ],
      "payable": false,
      "stateMutability": "view",
      "type": "function"
    },
    {
      "constant": true,
      "inputs": [
        {
          "name": "",
          "type": "address"
        },
        {
          "name": "",
          "type": "address"
        },
        {
          "name": "data",
          "type": "MatryxPlatform.Data storage"
        },
        {
          "name": "rAddress",
          "type": "address"
        }
      ],
      "name": "isRound",
      "outputs": [
        {
          "name": "",
          "type": "bool"
        }
      ],
      "payable": false,
      "stateMutability": "view",
      "type": "function"
    },
    {
      "constant": true,
      "inputs": [
        {
          "name": "",
          "type": "address"
        },
        {
          "name": "",
          "type": "address"
        },
        {
          "name": "data",
          "type": "MatryxPlatform.Data storage"
        },
        {
          "name": "sAddress",
          "type": "address"
        }
      ],
      "name": "isSubmission",
      "outputs": [
        {
          "name": "",
          "type": "bool"
        }
      ],
      "payable": false,
      "stateMutability": "view",
      "type": "function"
    },
    {
      "constant": true,
      "inputs": [
        {
          "name": "",
          "type": "address"
        },
        {
          "name": "",
          "type": "address"
        },
        {
          "name": "data",
          "type": "MatryxPlatform.Data storage"
        },
        {
          "name": "uAddress",
          "type": "address"
        }
      ],
      "name": "hasEnteredMatryx",
      "outputs": [
        {
          "name": "",
          "type": "bool"
        }
      ],
      "payable": false,
      "stateMutability": "view",
      "type": "function"
    },
    {
      "constant": true,
      "inputs": [
        {
          "name": "",
          "type": "address"
        },
        {
          "name": "",
          "type": "address"
        },
        {
          "name": "data",
          "type": "MatryxPlatform.Data storage"
        }
      ],
      "name": "getTotalBalance",
      "outputs": [
        {
          "name": "",
          "type": "uint256"
        }
      ],
      "payable": false,
      "stateMutability": "view",
      "type": "function"
    },
    {
      "constant": true,
      "inputs": [
        {
          "name": "",
          "type": "address"
        },
        {
          "name": "",
          "type": "address"
        },
        {
          "name": "data",
          "type": "MatryxPlatform.Data storage"
        },
        {
          "name": "cAddress",
          "type": "address"
        }
      ],
      "name": "getBalanceOf",
      "outputs": [
        {
          "name": "",
          "type": "uint256"
        }
      ],
      "payable": false,
      "stateMutability": "view",
      "type": "function"
    },
    {
      "constant": true,
      "inputs": [
        {
          "name": "",
          "type": "address"
        },
        {
          "name": "",
          "type": "address"
        },
        {
          "name": "data",
          "type": "MatryxPlatform.Data storage"
        }
      ],
      "name": "getTournamentCount",
      "outputs": [
        {
          "name": "",
          "type": "uint256"
        }
      ],
      "payable": false,
      "stateMutability": "view",
      "type": "function"
    },
    {
      "constant": true,
      "inputs": [
        {
          "name": "",
          "type": "address"
        },
        {
          "name": "",
          "type": "address"
        },
        {
          "name": "data",
          "type": "MatryxPlatform.Data storage"
        }
      ],
      "name": "getUserCount",
      "outputs": [
        {
          "name": "",
          "type": "uint256"
        }
      ],
      "payable": false,
      "stateMutability": "view",
      "type": "function"
    },
    {
      "constant": true,
      "inputs": [
        {
          "name": "",
          "type": "address"
        },
        {
          "name": "",
          "type": "address"
        },
        {
          "name": "info",
          "type": "MatryxPlatform.Info storage"
        },
        {
          "name": "data",
          "type": "MatryxPlatform.Data storage"
        },
        {
          "name": "startIndex",
          "type": "uint256"
        },
        {
          "name": "count",
          "type": "uint256"
        }
      ],
      "name": "getTournaments",
      "outputs": [
        {
          "name": "",
          "type": "address[]"
        }
      ],
      "payable": false,
      "stateMutability": "view",
      "type": "function"
    },
    {
      "constant": true,
      "inputs": [
        {
          "name": "",
          "type": "address"
        },
        {
          "name": "",
          "type": "address"
        },
        {
          "name": "info",
          "type": "MatryxPlatform.Info storage"
        },
        {
          "name": "data",
          "type": "MatryxPlatform.Data storage"
        },
        {
          "name": "category",
          "type": "bytes32"
        },
        {
          "name": "startIndex",
          "type": "uint256"
        },
        {
          "name": "count",
          "type": "uint256"
        }
      ],
      "name": "getTournamentsByCategory",
      "outputs": [
        {
          "name": "",
          "type": "address[]"
        }
      ],
      "payable": false,
      "stateMutability": "view",
      "type": "function"
    },
    {
      "constant": true,
      "inputs": [
        {
          "name": "",
          "type": "address"
        },
        {
          "name": "",
          "type": "address"
        },
        {
          "name": "info",
          "type": "MatryxPlatform.Info storage"
        },
        {
          "name": "data",
          "type": "MatryxPlatform.Data storage"
        },
        {
          "name": "startIndex",
          "type": "uint256"
        },
        {
          "name": "count",
          "type": "uint256"
        }
      ],
      "name": "getUsers",
      "outputs": [
        {
          "name": "",
          "type": "address[]"
        }
      ],
      "payable": false,
      "stateMutability": "view",
      "type": "function"
    },
    {
      "constant": true,
      "inputs": [
        {
          "name": "",
          "type": "address"
        },
        {
          "name": "",
          "type": "address"
        },
        {
          "name": "info",
          "type": "MatryxPlatform.Info storage"
        },
        {
          "name": "data",
          "type": "MatryxPlatform.Data storage"
        },
        {
          "name": "startIndex",
          "type": "uint256"
        },
        {
          "name": "count",
          "type": "uint256"
        }
      ],
      "name": "getCategories",
      "outputs": [
        {
          "name": "",
          "type": "bytes32[]"
        }
      ],
      "payable": false,
      "stateMutability": "view",
      "type": "function"
    },
    {
      "constant": false,
      "inputs": [
        {
          "name": "sender",
          "type": "address"
        },
        {
          "name": "",
          "type": "address"
        },
        {
          "name": "info",
          "type": "MatryxPlatform.Info storage"
        },
        {
          "name": "data",
          "type": "MatryxPlatform.Data storage"
        },
        {
          "name": "category",
          "type": "bytes32"
        }
      ],
      "name": "createCategory",
      "outputs": [],
      "payable": false,
      "stateMutability": "nonpayable",
      "type": "function"
    },
    {
      "constant": false,
      "inputs": [
        {
          "name": "sender",
          "type": "address"
        },
        {
          "name": "",
          "type": "address"
        },
        {
          "name": "info",
          "type": "MatryxPlatform.Info storage"
        },
        {
          "name": "data",
          "type": "MatryxPlatform.Data storage"
        }
      ],
      "name": "enterMatryx",
      "outputs": [],
      "payable": false,
      "stateMutability": "nonpayable",
      "type": "function"
    },
    {
      "constant": false,
      "inputs": [
        {
          "name": "sender",
          "type": "address"
        },
        {
          "name": "platform",
          "type": "address"
        },
        {
          "name": "info",
          "type": "MatryxPlatform.Info storage"
        },
        {
          "name": "data",
          "type": "MatryxPlatform.Data storage"
        },
        {
          "name": "tAddress",
          "type": "address"
        },
        {
          "name": "category",
          "type": "bytes32"
        }
      ],
      "name": "addTournamentToCategory",
      "outputs": [],
      "payable": false,
      "stateMutability": "nonpayable",
      "type": "function"
    },
    {
      "constant": false,
      "inputs": [
        {
          "name": "sender",
          "type": "address"
        },
        {
          "name": "platform",
          "type": "address"
        },
        {
          "name": "info",
          "type": "MatryxPlatform.Info storage"
        },
        {
          "name": "data",
          "type": "MatryxPlatform.Data storage"
        },
        {
          "name": "tAddress",
          "type": "address"
        }
      ],
      "name": "removeTournamentFromCategory",
      "outputs": [],
      "payable": false,
      "stateMutability": "nonpayable",
      "type": "function"
    },
    {
      "constant": false,
      "inputs": [
        {
          "name": "sender",
          "type": "address"
        },
        {
          "name": "platform",
          "type": "address"
        },
        {
          "name": "info",
          "type": "MatryxPlatform.Info storage"
        },
        {
          "name": "data",
          "type": "MatryxPlatform.Data storage"
        },
        {
          "components": [
            {
              "name": "title",
              "type": "bytes32[3]"
            },
            {
              "name": "category",
              "type": "bytes32"
            },
            {
              "name": "descHash",
              "type": "bytes32[2]"
            },
            {
              "name": "fileHash",
              "type": "bytes32[2]"
            },
            {
              "name": "bounty",
              "type": "uint256"
            },
            {
              "name": "entryFee",
              "type": "uint256"
            }
          ],
          "name": "tDetails",
          "type": "tuple"
        },
        {
          "components": [
            {
              "name": "start",
              "type": "uint256"
            },
            {
              "name": "end",
              "type": "uint256"
            },
            {
              "name": "review",
              "type": "uint256"
            },
            {
              "name": "bounty",
              "type": "uint256"
            }
          ],
          "name": "rDetails",
          "type": "tuple"
        }
      ],
      "name": "createTournament",
      "outputs": [
        {
          "name": "",
          "type": "address"
        }
      ],
      "payable": false,
      "stateMutability": "nonpayable",
      "type": "function"
    }
  ],
  "bytecode": "0x612bc0610030600b82828239805160001a6073146000811461002057610022565bfe5b5030600052607381538281f3007300000000000000000000000000000000000000003014608060405260043610620001195763ffffffff7c01000000000000000000000000000000000000000000000000000000006000350416631886dbb481146200011e5780632ace6c70146200014d5780633a1f7ffd14620001645780633fc78f6f146200019857806354b73af514620001be5780635a88223c14620001e4578063728fc452146200020b5780637f279bd014620002315780638c756d0e14620002485780639e05b11f146200026d578063a39e145a1462000292578063a624531d14620002b7578063c0445db014620002ce578063caa6f75a14620002e5578063cd32526d14620002fc578063cda2084d1462000313578063ef2b1259146200032a575b600080fd5b620001356200012f36600462001f83565b62000341565b6040516200014491906200280f565b60405180910390f35b620001356200015e36600462001f83565b62000379565b8180156200017157600080fd5b5062000189620001833660046200227d565b620003ab565b60405162000144919062002767565b620001af620001a936600462002306565b62000be2565b604051620001449190620027fc565b620001d5620001cf36600462001f2f565b62000da1565b604051620001449190620028e5565b818015620001f157600080fd5b50620002096200020336600462001fed565b62000dae565b005b620002226200021c366004620021d2565b62000f9c565b604051620001449190620027e9565b620001d56200024236600462001f2f565b6200117c565b8180156200025557600080fd5b5062000209620002673660046200215f565b62001183565b8180156200027a57600080fd5b50620002096200028c3660046200204b565b62001285565b8180156200029f57600080fd5b5062000209620002b1366004620020cb565b6200160c565b62000135620002c836600462001f83565b620017f6565b62000222620002df36600462002306565b6200182d565b620001d5620002f636600462001f2f565b620019e3565b620001d56200030d36600462001f83565b620019ed565b620001356200032436600462001f83565b62001a1c565b620002226200033b36600462002306565b62001a53565b73ffffffffffffffffffffffffffffffffffffffff80821660009081526003840160205260409020600101541615155b949350505050565b73ffffffffffffffffffffffffffffffffffffffff166000908152600591909101602052604090205460ff1692915050565b73ffffffffffffffffffffffffffffffffffffffff861660009081526005840160205260408120548190819081908190819060ff16151562000424576040517f08c379a00000000000000000000000000000000000000000000000000000000081526004016200041b906200288b565b60405180910390fd5b608088015160001062000465576040517f08c379a00000000000000000000000000000000000000000000000000000000081526004016200041b90620028af565b608088015160608801511115620004aa576040517f08c379a00000000000000000000000000000000000000000000000000000000081526004016200041b90620028c1565b87608001518a60010160009054906101000a900473ffffffffffffffffffffffffffffffffffffffff1673ffffffffffffffffffffffffffffffffffffffff1663dd62ed3e8e8e6040518363ffffffff167c01000000000000000000000000000000000000000000000000000000000281526004016200052c9291906200277d565b602060405180830381600087803b1580156200054757600080fd5b505af11580156200055c573d6000803e3d6000fd5b505050506040513d601f19601f820116820180604052506200058291908101906200239b565b1015620005bd576040517f08c379a00000000000000000000000000000000000000000000000000000000081526004016200041b90620028d3565b8954604080517f0d8e6e2c000000000000000000000000000000000000000000000000000000008152905173ffffffffffffffffffffffffffffffffffffffff90921691630d8e6e2c916004808201926020929091908290030181600087803b1580156200062a57600080fd5b505af11580156200063f573d6000803e3d6000fd5b505050506040513d601f19601f820116820180604052506200066591908101906200239b565b8a54909550859073ffffffffffffffffffffffffffffffffffffffff166200068c62001c19565b62000699929190620028f5565b604051809103906000f080158015620006b6573d6000803e3d6000fd5b508a546040517f6226d73800000000000000000000000000000000000000000000000000000000815291955073ffffffffffffffffffffffffffffffffffffffff1690636226d7389062000712908790600390600401620027ca565b600060405180830381600087803b1580156200072d57600080fd5b505af115801562000742573d6000803e3d6000fd5b5050505060088901805460018101825560009182526020918290200180547fffffffffffffffffffffffff00000000000000000000000000000000000000001673ffffffffffffffffffffffffffffffffffffffff8716179055880151620007b4908c9081908d908d9089906200160c565b73ffffffffffffffffffffffffffffffffffffffff8c8116600090815260058b01602090815260408220600681018054600181018255908452919092200180547fffffffffffffffffffffffff000000000000000000000000000000000000000016928716929092179091556080890151600482015491945062000839919062001c09565b600484015573ffffffffffffffffffffffffffffffffffffffff848116600090815260028b01602052604090208681556001810180547fffffffffffffffffffffffff000000000000000000000000000000000000000016928f1692909217909155885190925088906006840190620008b6908290600362001c2a565b50602082015160038201556040820151620008d8906004830190600262001c6f565b506060820151620008f0906006830190600262001c6f565b50608082810151600883015560a09092015160099091015588015189546200091e9163ffffffff62001c0916565b896000018190555087608001518960010160008673ffffffffffffffffffffffffffffffffffffffff1673ffffffffffffffffffffffffffffffffffffffff168152602001908152602001600020819055508960010160009054906101000a900473ffffffffffffffffffffffffffffffffffffffff1673ffffffffffffffffffffffffffffffffffffffff166323b872dd8d8d8b608001516040518463ffffffff167c0100000000000000000000000000000000000000000000000000000000028152600401620009f3939291906200279c565b602060405180830381600087803b15801562000a0e57600080fd5b505af115801562000a23573d6000803e3d6000fd5b505050506040513d601f19601f8201168201806040525062000a4991908101906200237a565b151562000a84576040517f08c379a00000000000000000000000000000000000000000000000000000000081526004016200041b9062002831565b89546040517fc53cfd9a00000000000000000000000000000000000000000000000000000000815273ffffffffffffffffffffffffffffffffffffffff9091169063c53cfd9a9062000adb90889060040162002923565b602060405180830381600087803b15801562000af657600080fd5b505af115801562000b0b573d6000803e3d6000fd5b505050506040513d601f19601f8201168201806040525062000b31919081019062001f0e565b90507c01000000000000000000000000000000000000000000000000000000006040518163ca0ba8b40281528560048201528d60248201528b60448201528a60648201526080803603608483013760008061010483865af480151562000b9657600080fd5b5050507f66b8e5c50b708b71a6f155375a4613dd12971db692c5931e7cb0701ee7add6ac8460405162000bca919062002767565b60405180910390a150919a9950505050505050505050565b8354604080517f0d8e6e2c00000000000000000000000000000000000000000000000000000000815290516060926000928392839273ffffffffffffffffffffffffffffffffffffffff1691630d8e6e2c91600480830192602092919082900301818787803b15801562000c5557600080fd5b505af115801562000c6a573d6000803e3d6000fd5b505050506040513d601f19601f8201168201806040525062000c9091908101906200239b565b88546040517fc53cfd9a00000000000000000000000000000000000000000000000000000000815291945073ffffffffffffffffffffffffffffffffffffffff169063c53cfd9a9062000ce890869060040162002905565b602060405180830381600087803b15801562000d0357600080fd5b505af115801562000d18573d6000803e3d6000fd5b505050506040513d601f19601f8201168201806040525062000d3e919081019062001f0e565b915086600c0190507c01000000000000000000000000000000000000000000000000000000006040518163e79eda2c028152826004820152876024820152866044820152600080606483875af480151562000d9857600080fd5b3d6000833e3d82f35b60088101545b9392505050565b73ffffffffffffffffffffffffffffffffffffffff8416600090815260058201602052604090205460ff161562000e13576040517f08c379a00000000000000000000000000000000000000000000000000000000081526004016200041b906200281f565b60018201546040517f70a0823100000000000000000000000000000000000000000000000000000000815260009173ffffffffffffffffffffffffffffffffffffffff16906370a082319062000e6e90889060040162002767565b602060405180830381600087803b15801562000e8957600080fd5b505af115801562000e9e573d6000803e3d6000fd5b505050506040513d601f19601f8201168201806040525062000ec491908101906200239b565b1162000efe576040517f08c379a00000000000000000000000000000000000000000000000000000000081526004016200041b9062002879565b73ffffffffffffffffffffffffffffffffffffffff90931660008181526005850160209081526040822080547fffffffffffffffffffffffffffffffffffffffffffffffffffffffffffffff0016600190811782554291810191909155600b909601805496870181558252902090930180547fffffffffffffffffffffffff0000000000000000000000000000000000000000169093179092555050565b8454604080517f0d8e6e2c00000000000000000000000000000000000000000000000000000000815290516060926000928392839273ffffffffffffffffffffffffffffffffffffffff1691630d8e6e2c91600480830192602092919082900301818787803b1580156200100f57600080fd5b505af115801562001024573d6000803e3d6000fd5b505050506040513d601f19601f820116820180604052506200104a91908101906200239b565b89546040517fc53cfd9a00000000000000000000000000000000000000000000000000000000815291945073ffffffffffffffffffffffffffffffffffffffff169063c53cfd9a90620010a290869060040162002905565b602060405180830381600087803b158015620010bd57600080fd5b505af1158015620010d2573d6000803e3d6000fd5b505050506040513d601f19601f82011682018060405250620010f8919081019062001f0e565b600088815260068a01602052604080822090517fe79eda2c00000000000000000000000000000000000000000000000000000000815260048101829052602481018a90526044810189905292945092507c0100000000000000000000000000000000000000000000000000000000919080606483875af480151562000d9857600080fd5b5492915050565b600283015473ffffffffffffffffffffffffffffffffffffffff868116911614620011dc576040517f08c379a00000000000000000000000000000000000000000000000000000000081526004016200041b9062002843565b600081815260078301602052604090205460ff16156200122a576040517f08c379a00000000000000000000000000000000000000000000000000000000081526004016200041b906200289d565b600c8201805460018181018355600092835260208084209092018490559282526007909301909252604090912080547fffffffffffffffffffffffffffffffffffffffffffffffffffffffffffffff00169091179055505050565b60008060008060008873ffffffffffffffffffffffffffffffffffffffff168a73ffffffffffffffffffffffffffffffffffffffff16148062001373575087546040517fe11aa6a200000000000000000000000000000000000000000000000000000000815260039173ffffffffffffffffffffffffffffffffffffffff169063e11aa6a2906200131b908e9060040162002767565b602060405180830381600087803b1580156200133657600080fd5b505af11580156200134b573d6000803e3d6000fd5b505050506040513d601f19601f820116820180604052506200137191908101906200239b565b145b1515620013ae576040517f08c379a00000000000000000000000000000000000000000000000000000000081526004016200041b9062002855565b8754604080517f0d8e6e2c000000000000000000000000000000000000000000000000000000008152905173ffffffffffffffffffffffffffffffffffffffff90921691630d8e6e2c916004808201926020929091908290030181600087803b1580156200141b57600080fd5b505af115801562001430573d6000803e3d6000fd5b505050506040513d601f19601f820116820180604052506200145691908101906200239b565b88546040517fc53cfd9a00000000000000000000000000000000000000000000000000000000815291965073ffffffffffffffffffffffffffffffffffffffff169063c53cfd9a90620014ae90889060040162002905565b602060405180830381600087803b158015620014c957600080fd5b505af1158015620014de573d6000803e3d6000fd5b505050506040513d601f19601f8201168201806040525062001504919081019062001f0e565b73ffffffffffffffffffffffffffffffffffffffff8716600090815260028901602090815260408083206009015480845260068c019092528220929650945090925090505b8154811015620015b1578573ffffffffffffffffffffffffffffffffffffffff1682828154811015156200157957fe5b60009182526020909120015473ffffffffffffffffffffffffffffffffffffffff161415620015a857620015b1565b60010162001549565b7c010000000000000000000000000000000000000000000000000000000060405181634a71ede8028152836004820152826024820152600080604483895af4801515620015fd57600080fd5b50505050505050505050505050565b8473ffffffffffffffffffffffffffffffffffffffff168673ffffffffffffffffffffffffffffffffffffffff161480620016f2575083546040517fe11aa6a200000000000000000000000000000000000000000000000000000000815260039173ffffffffffffffffffffffffffffffffffffffff169063e11aa6a2906200169a908a9060040162002767565b602060405180830381600087803b158015620016b557600080fd5b505af1158015620016ca573d6000803e3d6000fd5b505050506040513d601f19601f82011682018060405250620016f091908101906200239b565b145b15156200172d576040517f08c379a00000000000000000000000000000000000000000000000000000000081526004016200041b9062002855565b600081815260078401602052604090205460ff1615156200177c576040517f08c379a00000000000000000000000000000000000000000000000000000000081526004016200041b9062002867565b60008181526006840160209081526040808320805460018101825590845282842001805473ffffffffffffffffffffffffffffffffffffffff9096167fffffffffffffffffffffffff0000000000000000000000000000000000000000909616861790559382526002909401909352912060090155505050565b73ffffffffffffffffffffffffffffffffffffffff8082166000908152600484016020526040902060010154161515949350505050565b8354604080517f0d8e6e2c00000000000000000000000000000000000000000000000000000000815290516060926000928392839273ffffffffffffffffffffffffffffffffffffffff1691630d8e6e2c91600480830192602092919082900301818787803b158015620018a057600080fd5b505af1158015620018b5573d6000803e3d6000fd5b505050506040513d601f19601f82011682018060405250620018db91908101906200239b565b88546040517fc53cfd9a00000000000000000000000000000000000000000000000000000000815291945073ffffffffffffffffffffffffffffffffffffffff169063c53cfd9a906200193390869060040162002905565b602060405180830381600087803b1580156200194e57600080fd5b505af115801562001963573d6000803e3d6000fd5b505050506040513d601f19601f8201168201806040525062001989919081019062001f0e565b91508660080190507c01000000000000000000000000000000000000000000000000000000006040518163e79eda2c028152826004820152876024820152866044820152600080606483875af480151562000d9857600080fd5b600b015492915050565b73ffffffffffffffffffffffffffffffffffffffff166000908152600191909101602052604090205492915050565b73ffffffffffffffffffffffffffffffffffffffff8082166000908152600284016020526040902060010154161515949350505050565b8354604080517f0d8e6e2c00000000000000000000000000000000000000000000000000000000815290516060926000928392839273ffffffffffffffffffffffffffffffffffffffff1691630d8e6e2c91600480830192602092919082900301818787803b15801562001ac657600080fd5b505af115801562001adb573d6000803e3d6000fd5b505050506040513d601f19601f8201168201806040525062001b0191908101906200239b565b88546040517fc53cfd9a00000000000000000000000000000000000000000000000000000000815291945073ffffffffffffffffffffffffffffffffffffffff169063c53cfd9a9062001b5990869060040162002905565b602060405180830381600087803b15801562001b7457600080fd5b505af115801562001b89573d6000803e3d6000fd5b505050506040513d601f19601f8201168201806040525062001baf919081019062001f0e565b915086600b0190507c01000000000000000000000000000000000000000000000000000000006040518163e79eda2c028152826004820152876024820152866044820152600080606483875af480151562000d9857600080fd5b60008282018381101562000da757fe5b6040516101d680620029b183390190565b826003810192821562001c5d579160200282015b8281111562001c5d578251825560209092019160019091019062001c3e565b5062001c6b92915062001ca1565b5090565b826002810192821562001c5d579160200282018281111562001c5d578251825560209092019160019091019062001c3e565b62001cbe91905b8082111562001c6b576000815560010162001ca8565b90565b600062000da7823562002992565b600062000da7825162002992565b6000601f8201831362001cef57600080fd5b600262001d0662001d008262002969565b62002941565b9150818385602084028201111562001d1d57600080fd5b60005b8381101562001d4d578162001d36888262001dcf565b845250602092830192919091019060010162001d20565b5050505092915050565b6000601f8201831362001d6957600080fd5b600362001d7a62001d008262002969565b9150818385602084028201111562001d9157600080fd5b60005b8381101562001d4d578162001daa888262001dcf565b845250602092830192919091019060010162001d94565b600062000da78251620029ab565b600062000da7823562001cbe565b60006080828403121562001df057600080fd5b62001dfc608062002941565b9050600062001e0c848462001dcf565b825250602062001e1f8484830162001dcf565b602083015250604062001e358482850162001dcf565b604083015250606062001e4b8482850162001dcf565b60608301525092915050565b6000610140828403121562001e6b57600080fd5b62001e7760c062002941565b9050600062001e87848462001d57565b825250606062001e9a8484830162001dcf565b602083015250608062001eb08482850162001cdd565b60408301525060c062001ec68482850162001cdd565b60608301525061010062001edd8482850162001dcf565b60808301525061012062001ef48482850162001dcf565b60a08301525092915050565b600062000da7825162001cbe565b60006020828403121562001f2157600080fd5b600062000371848462001ccf565b60008060006060848603121562001f4557600080fd5b600062001f53868662001cc1565b935050602062001f668682870162001cc1565b925050604062001f798682870162001dcf565b9150509250925092565b6000806000806080858703121562001f9a57600080fd5b600062001fa8878762001cc1565b945050602062001fbb8782880162001cc1565b935050604062001fce8782880162001dcf565b925050606062001fe18782880162001cc1565b91505092959194509250565b600080600080608085870312156200200457600080fd5b600062002012878762001cc1565b9450506020620020258782880162001cc1565b9350506040620020388782880162001dcf565b925050606062001fe18782880162001dcf565b600080600080600060a086880312156200206457600080fd5b600062002072888862001cc1565b9550506020620020858882890162001cc1565b9450506040620020988882890162001dcf565b9350506060620020ab8882890162001dcf565b9250506080620020be8882890162001cc1565b9150509295509295909350565b60008060008060008060c08789031215620020e557600080fd5b6000620020f3898962001cc1565b96505060206200210689828a0162001cc1565b95505060406200211989828a0162001dcf565b94505060606200212c89828a0162001dcf565b93505060806200213f89828a0162001cc1565b92505060a06200215289828a0162001dcf565b9150509295509295509295565b600080600080600060a086880312156200217857600080fd5b600062002186888862001cc1565b9550506020620021998882890162001cc1565b9450506040620021ac8882890162001dcf565b9350506060620021bf8882890162001dcf565b9250506080620020be8882890162001dcf565b600080600080600080600060e0888a031215620021ee57600080fd5b6000620021fc8a8a62001cc1565b97505060206200220f8a828b0162001cc1565b9650506040620022228a828b0162001dcf565b9550506060620022358a828b0162001dcf565b9450506080620022488a828b0162001dcf565b93505060a06200225b8a828b0162001dcf565b92505060c06200226e8a828b0162001dcf565b91505092959891949750929550565b60008060008060008061024087890312156200229857600080fd5b6000620022a6898962001cc1565b9650506020620022b989828a0162001cc1565b9550506040620022cc89828a0162001dcf565b9450506060620022df89828a0162001dcf565b9350506080620022f289828a0162001e57565b9250506101c06200215289828a0162001ddd565b60008060008060008060c087890312156200232057600080fd5b60006200232e898962001cc1565b96505060206200234189828a0162001cc1565b95505060406200235489828a0162001dcf565b94505060606200236789828a0162001dcf565b93505060806200213f89828a0162001dcf565b6000602082840312156200238d57600080fd5b600062000371848462001dc1565b600060208284031215620023ae57600080fd5b600062000371848462001f00565b620023c78162002992565b82525050565b6000620023da826200298e565b808452602084019350620023ee8362002988565b60005b82811015620024245762002407868351620023bc565b620024128262002988565b602096909601959150600101620023f1565b5093949350505050565b60006200243b826200298e565b8084526020840193506200244f8362002988565b60005b8281101562002424576200246886835162002490565b620024738262002988565b60209690960195915060010162002452565b620023c781620029ab565b620023c78162001cbe565b7f4c69625574696c730000000000000000000000000000000000000000000000009052565b601681527f416c726561647920656e7465726564204d617472797800000000000000000000602082015260400190565b600f81527f5472616e73666572206661696c65640000000000000000000000000000000000602082015260400190565b601681527f4d75737420626520506c6174666f726d206f776e657200000000000000000000602082015260400190565b602581527f4d75737420636f6d652066726f6d20506c6174666f726d206f7220546f75726e60208201527f616d656e74000000000000000000000000000000000000000000000000000000604082015260600190565b601781527f43617465676f727920646f6573206e6f74206578697374000000000000000000602082015260400190565b600d81527f4d7573742068617665204d545800000000000000000000000000000000000000602082015260400190565b601881527f4d757374206861766520656e7465726564204d61747279780000000000000000602082015260400190565b601781527f43617465676f727920616c726561647920657869737473000000000000000000602082015260400190565b602881527f546f75726e616d656e7420626f756e7479206d7573742062652067726561746560208201527f72207468616e2030000000000000000000000000000000000000000000000000604082015260600190565b7f4c6962546f75726e616d656e74000000000000000000000000000000000000009052565b602c81527f526f756e6420626f756e74792063616e6e6f742065786365656420546f75726e60208201527f616d656e7420626f756e74790000000000000000000000000000000000000000604082015260600190565b601081527f496e73756666696369656e74204d545800000000000000000000000000000000602082015260400190565b60208101620027778284620023bc565b92915050565b604081016200278d8285620023bc565b62000da76020830184620023bc565b60608101620027ac8286620023bc565b620027bb6020830185620023bc565b62000371604083018462002490565b60408101620027da8285620023bc565b62000da7602083018462002490565b6020808252810162000da78184620023cd565b6020808252810162000da781846200242e565b6020810162002777828462002485565b602080825281016200277781620024c0565b602080825281016200277781620024f0565b60208082528101620027778162002520565b60208082528101620027778162002550565b602080825281016200277781620025a6565b602080825281016200277781620025d6565b60208082528101620027778162002606565b60208082528101620027778162002636565b60208082528101620027778162002666565b602080825281016200277781620026e1565b60208082528101620027778162002737565b6020810162002777828462002490565b604081016200278d828562002490565b6040810162002915828462002490565b62002777602083016200249b565b6040810162002933828462002490565b6200277760208301620026bc565b60405181810167ffffffffffffffff811182821017156200296157600080fd5b604052919050565b600067ffffffffffffffff8211156200298157600080fd5b5060200290565b60200190565b5190565b73ffffffffffffffffffffffffffffffffffffffff1690565b1515905600608060405234801561001057600080fd5b506040516040806101d6833981018060405261002f9190810190610078565b60009190915560018054600160a060020a031916600160a060020a039092169190911790556100c1565b600061006582516100b2565b9392505050565b600061006582516100be565b6000806040838503121561008b57600080fd5b6000610097858561006c565b92505060206100a885828601610059565b9150509250929050565b600160a060020a031690565b90565b610106806100d06000396000f3006080604052348015600f57600080fd5b506040517c01000000000000000000000000000000000000000000000000000000007f4d6174727978506c6174666f726d0000000000000000000000000000000000006000546001600001548363c53cfd9a028552816004860152826024860152602060006044876000855af1801515608757600080fd5b6000519350600460008737336004870152826024870152600436036004604488013760008060403601886000885af1905080151560c357600080fd5b3d6000873e3d86f300a265627a7a723058204ae1d465c7d98a5f21f66bda773ce2b7c1ec297ff0538601cac5c0017ba9892b6c6578706572696d656e74616cf50037a265627a7a72305820b92a40c677d3910464c3e86fbb0655344404e4d686014878fd18d880ad070e236c6578706572696d656e74616cf50037",
  "source": "pragma solidity ^0.4.24;\npragma experimental ABIEncoderV2;\n\nimport \"./SafeMath.sol\";\nimport \"./LibGlobals.sol\";\nimport \"./IToken.sol\";\n\nimport \"./MatryxSystem.sol\";\nimport \"./MatryxUser.sol\";\nimport \"./MatryxTournament.sol\";\nimport \"./MatryxRound.sol\";\nimport \"./MatryxSubmission.sol\";\n\ncontract MatryxPlatform {\n    using SafeMath for uint256;\n\n    struct Info {\n        address system;\n        address token;\n        address owner;\n    }\n\n    struct Data {\n        uint256 totalBalance;\n        mapping(address=>uint256) balanceOf;\n\n        mapping(address=>LibTournament.TournamentData) tournaments;\n        mapping(address=>LibRound.RoundData) rounds;\n        mapping(address=>LibSubmission.SubmissionData) submissions;\n        mapping(address=>LibUser.UserData) users;\n        mapping(bytes32=>address[]) categories;\n        mapping(bytes32=>bool) categoryExists;\n\n        address[] allTournaments;\n        address[] allRounds;\n        address[] allSubmissions;\n        address[] allUsers;\n        bytes32[] allCategories;\n    }\n\n    Info info; // slot 0\n    Data data; // slot 3\n\n    constructor(address system, address token) public {\n        info.system = system;\n        info.token = token;\n        info.owner = msg.sender;\n    }\n\n    /// @dev\n    /// 1) Uses msg.sender to ask MatryxSystem for the type of library this call should be forwarded to\n    /// 2) Uses this library type to lookup (in its own storage) the name of the library\n    /// 3) Uses this name to ask MatryxSystem for the address of the contract (under this platform's version)\n    /// 4) Uses name and signature to ask MatryxSystem for the data necessary to modify the incoming calldata\n    ///    so as to be appropriate for the associated library call\n    /// 5) Makes a delegatecall to the library address given by MatryxSystem with the library-appropriate calldata\n    function () public {\n        assembly {\n            // constants\n            let offset := 0x100000000000000000000000000000000000000000000000000000000\n            let libPlatform := 0x4c6962506c6174666f726d000000000000000000000000000000000000000000\n\n            let ptr := mload(0x40)                                              // scratch space for calldata\n            let system := sload(info_slot)                                      // load info.system address\n\n            mstore(0, mul(0x0d8e6e2c, offset))                                  // getVersion()\n            let res := call(gas, system, 0, 0, 0x04, 0, 0x20)                   // call system getVersion\n            if iszero(res) { revert(0, 0) }                                     // safety check\n            let version := mload(0)                                             // store version from response\n\n            mstore(0, mul(0xa8bc3927, offset))                                  // getLibraryName(address)\n            mstore(0x04, caller)                                                // arg 0 - contract\n            res := call(gas, system, 0, 0, 0x24, 0, 0x20)                       // call system getLibraryName\n            if iszero(res) { revert(0, 0) }                                     // safety check\n            let libName := mload(0)                                             // store libName from response\n\n            if iszero(eq(libName, libPlatform)) {                               // if coming from MatryxTrinity or MatryxUser\n                calldatacopy(0, 0x24, 0x20)                                     // get injected version from calldata\n                version := mload(0)                                             // overwrite version var\n            }\n\n            // call system and get library address\n            mstore(ptr, mul(0xc53cfd9a, offset))                                // getContract(uint256,bytes32)\n            mstore(add(ptr, 0x04), version)                                     // arg 0 - version\n            mstore(add(ptr, 0x24), libName)                                     // arg 1 - library name\n            res := call(gas, system, 0, ptr, 0x44, 0, 0x20)                     // call system.getContract\n            if iszero(res) { revert(0, 0) }                                     // safety check\n            let libAddress := mload(0)                                          // store libAddress from response\n\n            // get fnData from system\n            mstore(ptr, mul(0x3b15aabf, offset))                                // getContractMethod(uint256,bytes32,bytes32)\n            mstore(add(ptr, 0x04), version)                                     // arg 0 - version\n            mstore(add(ptr, 0x24), libName)                                     // arg 1 - library name\n            calldatacopy(add(ptr, 0x44), 0, 0x04)                               // arg 2 - fn selector\n            res := call(gas, system, 0, ptr, 0x64, 0, 0)                        // call system.getContractMethod\n            if iszero(res) { revert(0, 0) }                                     // safety check\n\n            returndatacopy(ptr, 0, returndatasize)                              // copy fnData into ptr\n            let ptr2 := add(ptr, mload(ptr))                                    // ptr2 is pointer to start of fnData\n\n            let m_injParams := add(ptr2, mload(add(ptr2, 0x20)))                // mem loc injected params\n            let injParams_len := mload(m_injParams)                             // num injected params\n            m_injParams := add(m_injParams, 0x20)                               // first injected param\n\n            let m_dynParams := add(ptr2, mload(add(ptr2, 0x40)))                // memory location of start of dynamic params\n            let dynParams_len := mload(m_dynParams)                             // num dynamic params\n            m_dynParams := add(m_dynParams, 0x20)                               // first dynamic param\n\n            // forward calldata to library\n            ptr := add(ptr, returndatasize)                                     // shift ptr to new scratch space\n            mstore(ptr, mload(ptr2))                                            // forward call with modified selector\n\n            ptr2 := add(ptr, 0x04)                                              // copy of ptr for keeping track of injected params\n\n            mstore(ptr2, caller)                                                // inject msg.sender\n            mstore(add(ptr2, 0x20), address)                                    // inject platform\n\n            let cdOffset := 0x04                                                // calldata offset, after signature\n\n            if iszero(eq(libName, libPlatform)) {                               // if coming from MatryxTrinity or MatryxUser\n                calldatacopy(add(ptr2, 0x20), 0x04, 0x20)                       // overwrite injected platform with address from forwarder\n                cdOffset := add(cdOffset, 0x40)                                 // shift calldata offset for injected address and version\n            }\n            ptr2 := add(ptr2, 0x40)                                             // shift ptr2 to account for injected addresses\n\n            for { let i := 0 } lt(i, injParams_len) { i := add(i, 1) } {        // loop through injected params and insert\n                let injParam := mload(add(m_injParams, mul(i, 0x20)))           // get injected param slot\n                mstore(ptr2, injParam)                                          // store injected params into next slot\n                ptr2 := add(ptr2, 0x20)                                         // shift ptr2 by a word for each injected\n            }\n\n            calldatacopy(ptr2, cdOffset, sub(calldatasize, cdOffset))           // copy calldata after injected data storage\n\n            for { let i := 0 } lt(i, dynParams_len) { i := add(i, 1) } {        // loop through params and update dynamic param locations\n                let idx := mload(add(m_dynParams, mul(i, 0x20)))                // get dynParam index in parameters\n                let loc := add(ptr2, mul(idx, 0x20))                            // get location in memory of dynParam\n                mstore(loc, add(mload(loc), mul(add(injParams_len, 2), 0x20)))  // shift dynParam location by num injected\n            }\n\n            // calculate size of forwarded call\n            let size := add(0x04, sub(calldatasize, cdOffset))                  // calldatasize minus injected\n            size := add(size, mul(add(injParams_len, 2), 0x20))                 // add size of injected\n\n            res := delegatecall(gas, libAddress, ptr, size, 0, 0)               // delegatecall to library\n            if iszero(res) { revert(0, 0) }                                     // safety check\n\n            returndatacopy(ptr, 0, returndatasize)                              // copy return data into ptr for returning\n            return(ptr, returndatasize)                                         // return forwarded call returndata\n        }\n    }\n\n    /// @dev Gets Information about the Platform\n    /// @return  Info Struct that contains system, version, token, and owner\n    function getInfo() public view returns (MatryxPlatform.Info) {\n        return info;\n    }\n\n    /// @dev Sets the owner of the platform\n    /// @param newOwner  New owner address\n    function setOwner(address newOwner) external {\n        require(msg.sender == info.owner, \"Must be Platform owner\");\n        require(newOwner != address(0));\n\n        info.owner = newOwner;\n    }\n\n    /// @dev Sets the Token address\n    /// @param token  New token address\n    function upgradeToken(address token) external {\n        require(msg.sender == info.owner, \"Must be Platform owner\");\n        IToken(info.token).upgrade(data.totalBalance);\n\n        require(IToken(token).balanceOf(this) == data.totalBalance, \"Token address must match upgraded token\");\n        info.token = token;\n    }\n\n    /// @dev Withdraws any Ether from Platform\n    function withdrawEther() external {\n        require(msg.sender == info.owner, \"Must be Platform owner\");\n        msg.sender.transfer(address(this).balance);\n    }\n\n    /// @dev Withdraws any ERC20 tokens from Platform\n    /// @param token  ERC20 token address to use\n    function withdrawTokens(address token) external {\n        require(msg.sender == info.owner, \"Must be Platform owner\");\n\n        uint256 balance = IToken(token).balanceOf(this);\n\n        // if current token, check if any extraneous tokens\n        if (token == info.token) {\n            balance = balance.sub(data.totalBalance);\n        }\n\n        IToken(token).transfer(msg.sender, balance);\n    }\n}\n\ninterface IMatryxPlatform {\n    function getInfo() external view returns (MatryxPlatform.Info);\n    function setOwner(address) external;\n    function upgradeToken(address) external;\n    function withdrawEther() external;\n    function withdrawTokens(address) external;\n\n    function isTournament(address) external view returns (bool);\n    function isRound(address) external view returns (bool);\n    function isSubmission(address) external view returns (bool);\n    function hasEnteredMatryx(address) external view returns (bool);\n\n    function getTotalBalance() external view returns (uint256);\n    function getBalanceOf(address) external view returns (uint256);\n\n    function getTournamentCount() external view returns (uint256);\n    function getUserCount() external view returns (uint256);\n    function getTournaments(uint256, uint256) external view returns (address[]);\n    function getTournamentsByCategory(bytes32, uint256, uint256) external view returns (address[]);\n    function getUsers(uint256, uint256) external view returns (address[]);\n    function getCategories(uint256, uint256) external view returns (bytes32[]);\n\n    function createCategory(bytes32) external;\n\n    function enterMatryx() external;\n    function addTournamentToCategory(address, bytes32) external;\n    function removeTournamentFromCategory(address) external;\n    function createTournament(LibTournament.TournamentDetails, LibRound.RoundDetails) external returns (address);\n}\n\nlibrary LibPlatform {\n    using SafeMath for uint256;\n\n    event TournamentCreated(address _tournamentAddress);\n\n    /// @dev Return if a Tournament exists\n    /// @param tAddress  Tournament address\n    /// @return          true if Tournament exists\n    function isTournament(address, address, MatryxPlatform.Data storage data, address tAddress) public view returns (bool) {\n        return data.tournaments[tAddress].info.owner != 0x0;\n    }\n\n    /// @dev Return if a Round exists\n    /// @param rAddress  Round address\n    /// @return          true if Round exists\n    function isRound(address, address, MatryxPlatform.Data storage data, address rAddress) public view returns (bool) {\n        return data.rounds[rAddress].info.tournament != 0x0;\n    }\n\n    /// @dev Return if a Submission exists\n    /// @param sAddress  Submission address\n    /// @return          true if Submission exists\n    function isSubmission(address, address, MatryxPlatform.Data storage data, address sAddress) public view returns (bool) {\n        return data.submissions[sAddress].info.owner != 0x0;\n    }\n\n    /// @dev Return if user has entered Matryx\n    /// @param data  Platform storage containing all contract data\n    /// @return      If user has entered Matryx\n    function hasEnteredMatryx(address, address, MatryxPlatform.Data storage data, address uAddress) public view returns (bool) {\n        return data.users[uAddress].exists;\n    }\n\n    /// @dev Return total MTX in Platform\n    /// @param data  Platform storage containing all contract data\n    /// @return      Total MTX in Platform\n    function getTotalBalance(address, address, MatryxPlatform.Data storage data) public view returns (uint256) {\n        return data.totalBalance;\n    }\n\n    /// @dev Return balance of a Tournament, Round, or Submission contract\n    /// @param data      Platform storage containing all contract data\n    /// @param cAddress  Address of the contract we get the balance of\n    /// @return          Balance of the Trinity contract\n    function getBalanceOf(address, address, MatryxPlatform.Data storage data, address cAddress) public view returns (uint256) {\n        return data.balanceOf[cAddress];\n    }\n\n    /// @dev Return total number of Tournaments\n    /// @param data  Platform storage containing all contract data\n    /// @return      Number of Tournaments on Platform\n    function getTournamentCount(address, address, MatryxPlatform.Data storage data) public view returns (uint256) {\n        return data.allTournaments.length;\n    }\n\n    /// @dev Return total number of Users\n    /// @param data  Platform storage containing all contract data\n    /// @return      Number of Users on Platform\n    function getUserCount(address, address, MatryxPlatform.Data storage data) public view returns (uint256) {\n        return data.allUsers.length;\n    }\n\n    /// @dev Return count Tournaments starting at startIndex\n    /// @param info        Platform storage containing version number and system address\n    /// @param data        Platform storage containing all contract data\n    /// @param startIndex  Index of first Tournament to return\n    /// @param count       Number of Tournaments to return. If 0, all\n    /// @return            Array of Tournament addresses\n    function getTournaments(address, address, MatryxPlatform.Info storage info, MatryxPlatform.Data storage data, uint256 startIndex, uint256 count) public view returns (address[]) {\n        uint256 version = IMatryxSystem(info.system).getVersion();\n        address libUtils = IMatryxSystem(info.system).getContract(version, \"LibUtils\");\n        address[] storage tournaments = data.allTournaments;\n\n        assembly {\n            let offset := 0x100000000000000000000000000000000000000000000000000000000\n            let ptr := mload(0x40)\n\n            mstore(ptr, mul(0xe79eda2c, offset))                                // getSubArray(bytes32[] storage,uint256,uint256)\n            mstore(add(ptr, 0x04), tournaments_slot)                            // data.allTournaments\n            mstore(add(ptr, 0x24), startIndex)                                  // arg 0 - startIndex\n            mstore(add(ptr, 0x44), count)                                       // arg 1 - count\n\n            let res := delegatecall(gas, libUtils, ptr, 0x64, 0, 0)             // call LibUtils.getSubArray\n            if iszero(res) { revert(0, 0) }                                     // safety check\n\n            returndatacopy(ptr, 0, returndatasize)                              // copy result into mem\n            return(ptr, returndatasize)                                         // return result\n        }\n    }\n\n    /// @dev Return all Tournaments for a category\n    /// @param info      Platform storage containing version number and system address\n    /// @param data      Platform storage containing all contract data\n    /// @param category  Category name to get\n    /// @param startIndex  Index of first User to return\n    /// @param count       Number of User to return. If 0, all\n    /// @return          Array of Tournament addresses for given category\n    function getTournamentsByCategory(address, address, MatryxPlatform.Info storage info, MatryxPlatform.Data storage data, bytes32 category, uint256 startIndex, uint256 count) public view returns (address[]) {\n        uint256 version = IMatryxSystem(info.system).getVersion();\n        address libUtils = IMatryxSystem(info.system).getContract(version, \"LibUtils\");\n        address[] storage cat = data.categories[category];\n\n        assembly {\n            let offset := 0x100000000000000000000000000000000000000000000000000000000\n            let ptr := mload(0x40)\n\n            mstore(ptr, mul(0xe79eda2c, offset))                                // getSubArray(bytes32[] storage,uint256,uint256)\n            mstore(add(ptr, 0x04), cat_slot)                                    // data.categories[category]\n            mstore(add(ptr, 0x24), startIndex)                                  // arg 0 - startIndex\n            mstore(add(ptr, 0x44), count)                                       // arg 1 - count\n\n            let res := delegatecall(gas, libUtils, ptr, 0x64, 0, 0)             // call LibUtils.getSubArray\n            if iszero(res) { revert(0, 0) }                                     // safety check\n\n            returndatacopy(ptr, 0, returndatasize)                              // copy result into mem\n            return(ptr, returndatasize)                                         // return result\n        }\n    }\n\n    /// @dev Return count Users starting at startIndex\n    /// @param info        Platform storage containing version number and system address\n    /// @param data        Platform storage containing all contract data\n    /// @param startIndex  Index of first User to return\n    /// @param count       Number of User to return. If 0, all\n    /// @return            Array of User addresses\n    function getUsers(address, address, MatryxPlatform.Info storage info, MatryxPlatform.Data storage data, uint256 startIndex, uint256 count) public view returns (address[]) {\n        uint256 version = IMatryxSystem(info.system).getVersion();\n        address libUtils = IMatryxSystem(info.system).getContract(version, \"LibUtils\");\n        address[] storage users = data.allUsers;\n\n        assembly {\n            let offset := 0x100000000000000000000000000000000000000000000000000000000\n            let ptr := mload(0x40)\n\n            mstore(ptr, mul(0xe79eda2c, offset))                                // getSubArray(bytes32[] storage,uint256,uint256)\n            mstore(add(ptr, 0x04), users_slot)                                  // data.allUsers\n            mstore(add(ptr, 0x24), startIndex)                                  // arg 0 - startIndex\n            mstore(add(ptr, 0x44), count)                                       // arg 1 - count\n\n            let res := delegatecall(gas, libUtils, ptr, 0x64, 0, 0)             // call LibUtils.getSubArray\n            if iszero(res) { revert(0, 0) }                                     // safety check\n\n            returndatacopy(ptr, 0, returndatasize)                              // copy result into mem\n            return(ptr, returndatasize)                                         // return result\n        }\n    }\n\n    /// @dev Return Categories in platform by index\n    /// @param info        Platform storage containing version number and system address\n    /// @param data        Platform storage containing all contract data\n    /// @param startIndex  Index of first Category to return\n    /// @param count       Number of Category to return. If 0, all\n    /// @return            Array of Categories\n    function getCategories(address, address, MatryxPlatform.Info storage info, MatryxPlatform.Data storage data, uint256 startIndex, uint256 count) public view returns (bytes32[]) {\n        uint256 version = IMatryxSystem(info.system).getVersion();\n        address libUtils = IMatryxSystem(info.system).getContract(version, \"LibUtils\");\n        bytes32[] storage allCategories = data.allCategories;\n\n        assembly {\n            let offset := 0x100000000000000000000000000000000000000000000000000000000\n            let ptr := mload(0x40)\n\n            mstore(ptr, mul(0xe79eda2c, offset))                                // getSubArray(bytes32[] storage,uint256,uint256)\n            mstore(add(ptr, 0x04), allCategories_slot)                          // data.allCategories\n            mstore(add(ptr, 0x24), startIndex)                                  // arg 0 - startIndex\n            mstore(add(ptr, 0x44), count)                                       // arg 1 - count\n\n            let res := delegatecall(gas, libUtils, ptr, 0x64, 0, 0)             // call LibUtils.getSubArray\n            if iszero(res) { revert(0, 0) }                                     // safety check\n\n            returndatacopy(ptr, 0, returndatasize)                              // copy result into mem\n            return(ptr, returndatasize)                                         // return result\n        }\n    }\n\n    /// @dev Creates a category\n    /// @param sender    msg.sender to Platform\n    /// @param info      Platform storage containing version number and system address\n    /// @param data      Platform storage containing all contract data and users\n    /// @param category  Category to create\n    function createCategory(address sender, address, MatryxPlatform.Info storage info, MatryxPlatform.Data storage data, bytes32 category) public {\n        require(sender == info.owner, \"Must be Platform owner\");\n        require(!data.categoryExists[category], \"Category already exists\");\n\n        data.allCategories.push(category);\n        data.categoryExists[category] = true;\n    }\n\n    /// @dev Enter Matryx\n    /// @param sender  msg.sender to Platform\n    /// @param info    Platform storage containing version number and system address\n    /// @param data    Platform storage containing all contract data and users\n    function enterMatryx(address sender, address, MatryxPlatform.Info storage info, MatryxPlatform.Data storage data) public {\n        require(!data.users[sender].exists, \"Already entered Matryx\");\n        require(IToken(info.token).balanceOf(sender) > 0, \"Must have MTX\");\n\n        data.users[sender].exists = true;\n        data.users[sender].timeEntered = now;\n        data.allUsers.push(sender);\n    }\n\n    /// @dev Adds a Tournament to a category\n    /// @param data      Platform storage containing all contract data\n    /// @param tAddress  Tournament address\n    /// @param category  Category name\n    function addTournamentToCategory(address sender, address platform, MatryxPlatform.Info storage info, MatryxPlatform.Data storage data, address tAddress, bytes32 category) public {\n        require(sender == platform || IMatryxSystem(info.system).getContractType(sender) == uint256(LibSystem.ContractType.Tournament), \"Must come from Platform or Tournament\");\n        require(data.categoryExists[category], \"Category does not exist\");\n\n        data.categories[category].push(tAddress);\n        data.tournaments[tAddress].details.category = category;\n    }\n\n    /// @dev Removes a Tournament from its current category\n    /// @param data      Platform storage containing all contract data\n    /// @param tAddress  Tournament address\n    function removeTournamentFromCategory(address sender, address platform, MatryxPlatform.Info storage info, MatryxPlatform.Data storage data, address tAddress) public {\n        require(sender == platform || IMatryxSystem(info.system).getContractType(sender) == uint256(LibSystem.ContractType.Tournament), \"Must come from Platform or Tournament\");\n\n        uint256 version = IMatryxSystem(info.system).getVersion();\n        address libUtils = IMatryxSystem(info.system).getContract(version, \"LibUtils\");\n\n        bytes32 category = data.tournaments[tAddress].details.category;\n        address[] storage categoryList = data.categories[category];\n        uint256 index;\n\n        for (index = 0; index < categoryList.length; index++) {\n            if (categoryList[index] == tAddress) break;\n        }\n\n        assembly {\n            let offset := 0x100000000000000000000000000000000000000000000000000000000\n            let ptr := mload(0x40)\n\n            mstore(ptr, mul(0x4a71ede8, offset))                        // removeArrayElement(bytes32[] storage,uint256)\n            mstore(add(ptr, 0x04), categoryList_slot)                   // arg 0 - data.categories[tournament.category]\n            mstore(add(ptr, 0x24), index)                               // arg 1 - index\n\n            let res := delegatecall(gas, libUtils, ptr, 0x44, 0, 0)     // call LibUtils.removeArrayElement\n            if iszero(res) { revert(0, 0) }                             // safety check\n        }\n    }\n\n    /// @dev Creates a Tournament\n    /// @param sender    msg.sender to Platform\n    /// @param info      Platform storage containing version number and system address\n    /// @param data      Platform storage containing all contract data and users\n    /// @param tDetails  Tournament details (title, category, descHash, fileHash, bounty, entryFee)\n    /// @param rDetails  Round details (start, end, review, bounty)\n    /// @return          Address of the created Tournament\n    function createTournament(address sender, address platform, MatryxPlatform.Info storage info, MatryxPlatform.Data storage data, LibTournament.TournamentDetails tDetails, LibRound.RoundDetails rDetails) public returns (address) {\n        require(data.users[sender].exists, \"Must have entered Matryx\");\n        require(tDetails.bounty > 0, \"Tournament bounty must be greater than 0\");\n        require(rDetails.bounty <= tDetails.bounty, \"Round bounty cannot exceed Tournament bounty\");\n        require(IToken(info.token).allowance(sender, platform) >= tDetails.bounty, \"Insufficient MTX\");\n\n        uint256 version = IMatryxSystem(info.system).getVersion();\n        address tAddress = new MatryxTournament(version, info.system);\n\n        IMatryxSystem(info.system).setContractType(tAddress, uint256(LibSystem.ContractType.Tournament));\n        data.allTournaments.push(tAddress);\n        addTournamentToCategory(platform, platform, info, data, tAddress, tDetails.category);\n\n        LibUser.UserData storage user = data.users[sender];\n        user.tournaments.push(tAddress);\n        user.totalSpent = user.totalSpent.add(tDetails.bounty);\n\n        LibTournament.TournamentData storage tournament = data.tournaments[tAddress];\n        tournament.info.version = version;\n        tournament.info.owner = sender;\n        tournament.details = tDetails;\n\n        data.totalBalance = data.totalBalance.add(tDetails.bounty);\n        data.balanceOf[tAddress] = tDetails.bounty;\n        require(IToken(info.token).transferFrom(sender, platform, tDetails.bounty), \"Transfer failed\");\n\n        address libTournament = IMatryxSystem(info.system).getContract(version, \"LibTournament\");\n        assembly {\n            let offset := 0x100000000000000000000000000000000000000000000000000000000\n            let ptr := mload(0x40)\n\n            mstore(ptr, mul(0xca0ba8b4, offset))                            // createRound(address,address,MatryxPlatform.Info storage,MatryxPlatform.Data storage,LibRound.RoundDetails)\n            mstore(add(ptr, 0x04), tAddress)                                // arg 0 - self\n            mstore(add(ptr, 0x24), sender)                                  // arg 1 - sender\n            mstore(add(ptr, 0x44), info_slot)                               // arg 2 - info\n            mstore(add(ptr, 0x64), data_slot)                               // arg 3 - data\n            calldatacopy(add(ptr, 0x84), sub(calldatasize, 0x80), 0x80)     // arg 4 - rDetails\n\n            let res := delegatecall(gas, libTournament, ptr, 0x104, 0, 0)   // call LibTournament.createRound\n            if iszero(res) { revert(0, 0) }                                 // safety check\n        }\n        // LibTournament.createRound(tAddress, this, info, data, rDetails);\n\n        emit TournamentCreated(tAddress);\n        return tAddress;\n    }\n}\n",
  "sourcePath": "/Users/ajm13/Desktop/matryx/MatryxPlatform/contracts/MatryxPlatform.sol",
  "compiler": {
    "name": "solc",
    "version": "0.4.24+commit.e67f0147.Emscripten.clang"
  },
  "schemaVersion": "2.0.1",
  "updatedAt": "2018-12-08T00:27:11.132Z"
}