{
  "contractName": "LibPlatform",
  "abi": [
    {
      "anonymous": false,
      "inputs": [
        {
          "indexed": false,
          "name": "_tournamentAddress",
          "type": "address"
        }
      ],
      "name": "TournamentCreated",
      "type": "event"
    },
    {
      "constant": true,
      "inputs": [
        {
          "name": "",
          "type": "address"
        },
        {
          "name": "",
          "type": "address"
        },
        {
          "name": "data",
          "type": "MatryxPlatform.Data storage"
        },
        {
          "name": "tAddress",
          "type": "address"
        }
      ],
      "name": "isTournament",
      "outputs": [
        {
          "name": "",
          "type": "bool"
        }
      ],
      "payable": false,
      "stateMutability": "view",
      "type": "function"
    },
    {
      "constant": true,
      "inputs": [
        {
          "name": "",
          "type": "address"
        },
        {
          "name": "",
          "type": "address"
        },
        {
          "name": "data",
          "type": "MatryxPlatform.Data storage"
        },
        {
          "name": "rAddress",
          "type": "address"
        }
      ],
      "name": "isRound",
      "outputs": [
        {
          "name": "",
          "type": "bool"
        }
      ],
      "payable": false,
      "stateMutability": "view",
      "type": "function"
    },
    {
      "constant": true,
      "inputs": [
        {
          "name": "",
          "type": "address"
        },
        {
          "name": "",
          "type": "address"
        },
        {
          "name": "data",
          "type": "MatryxPlatform.Data storage"
        },
        {
          "name": "sAddress",
          "type": "address"
        }
      ],
      "name": "isSubmission",
      "outputs": [
        {
          "name": "",
          "type": "bool"
        }
      ],
      "payable": false,
      "stateMutability": "view",
      "type": "function"
    },
    {
      "constant": true,
      "inputs": [
        {
          "name": "",
          "type": "address"
        },
        {
          "name": "",
          "type": "address"
        },
        {
          "name": "data",
          "type": "MatryxPlatform.Data storage"
        },
        {
          "name": "uAddress",
          "type": "address"
        }
      ],
      "name": "hasEnteredMatryx",
      "outputs": [
        {
          "name": "",
          "type": "bool"
        }
      ],
      "payable": false,
      "stateMutability": "view",
      "type": "function"
    },
    {
      "constant": true,
      "inputs": [
        {
          "name": "",
          "type": "address"
        },
        {
          "name": "",
          "type": "address"
        },
        {
          "name": "data",
          "type": "MatryxPlatform.Data storage"
        }
      ],
      "name": "getTotalBalance",
      "outputs": [
        {
          "name": "",
          "type": "uint256"
        }
      ],
      "payable": false,
      "stateMutability": "view",
      "type": "function"
    },
    {
      "constant": true,
      "inputs": [
        {
          "name": "",
          "type": "address"
        },
        {
          "name": "",
          "type": "address"
        },
        {
          "name": "data",
          "type": "MatryxPlatform.Data storage"
        },
        {
          "name": "cAddress",
          "type": "address"
        }
      ],
      "name": "getBalanceOf",
      "outputs": [
        {
          "name": "",
          "type": "uint256"
        }
      ],
      "payable": false,
      "stateMutability": "view",
      "type": "function"
    },
    {
      "constant": true,
      "inputs": [
        {
          "name": "",
          "type": "address"
        },
        {
          "name": "",
          "type": "address"
        },
        {
          "name": "data",
          "type": "MatryxPlatform.Data storage"
        }
      ],
      "name": "getTournamentCount",
      "outputs": [
        {
          "name": "",
          "type": "uint256"
        }
      ],
      "payable": false,
      "stateMutability": "view",
      "type": "function"
    },
    {
      "constant": true,
      "inputs": [
        {
          "name": "",
          "type": "address"
        },
        {
          "name": "",
          "type": "address"
        },
        {
          "name": "data",
          "type": "MatryxPlatform.Data storage"
        }
      ],
      "name": "getUserCount",
      "outputs": [
        {
          "name": "",
          "type": "uint256"
        }
      ],
      "payable": false,
      "stateMutability": "view",
      "type": "function"
    },
    {
      "constant": true,
      "inputs": [
        {
          "name": "",
          "type": "address"
        },
        {
          "name": "",
          "type": "address"
        },
        {
          "name": "info",
          "type": "MatryxPlatform.Info storage"
        },
        {
          "name": "data",
          "type": "MatryxPlatform.Data storage"
        },
        {
          "name": "startIndex",
          "type": "uint256"
        },
        {
          "name": "count",
          "type": "uint256"
        }
      ],
      "name": "getTournaments",
      "outputs": [
        {
          "name": "",
          "type": "address[]"
        }
      ],
      "payable": false,
      "stateMutability": "view",
      "type": "function"
    },
    {
      "constant": true,
      "inputs": [
        {
          "name": "",
          "type": "address"
        },
        {
          "name": "",
          "type": "address"
        },
        {
          "name": "info",
          "type": "MatryxPlatform.Info storage"
        },
        {
          "name": "data",
          "type": "MatryxPlatform.Data storage"
        },
        {
          "name": "category",
          "type": "bytes32"
        },
        {
          "name": "startIndex",
          "type": "uint256"
        },
        {
          "name": "count",
          "type": "uint256"
        }
      ],
      "name": "getTournamentsByCategory",
      "outputs": [
        {
          "name": "",
          "type": "address[]"
        }
      ],
      "payable": false,
      "stateMutability": "view",
      "type": "function"
    },
    {
      "constant": true,
      "inputs": [
        {
          "name": "",
          "type": "address"
        },
        {
          "name": "",
          "type": "address"
        },
        {
          "name": "info",
          "type": "MatryxPlatform.Info storage"
        },
        {
          "name": "data",
          "type": "MatryxPlatform.Data storage"
        },
        {
          "name": "startIndex",
          "type": "uint256"
        },
        {
          "name": "count",
          "type": "uint256"
        }
      ],
      "name": "getUsers",
      "outputs": [
        {
          "name": "",
          "type": "address[]"
        }
      ],
      "payable": false,
      "stateMutability": "view",
      "type": "function"
    },
    {
      "constant": true,
      "inputs": [
        {
          "name": "",
          "type": "address"
        },
        {
          "name": "",
          "type": "address"
        },
        {
          "name": "info",
          "type": "MatryxPlatform.Info storage"
        },
        {
          "name": "data",
          "type": "MatryxPlatform.Data storage"
        },
        {
          "name": "startIndex",
          "type": "uint256"
        },
        {
          "name": "count",
          "type": "uint256"
        }
      ],
      "name": "getCategories",
      "outputs": [
        {
          "name": "",
          "type": "bytes32[]"
        }
      ],
      "payable": false,
      "stateMutability": "view",
      "type": "function"
    },
    {
      "constant": false,
      "inputs": [
        {
          "name": "sender",
          "type": "address"
        },
        {
          "name": "",
          "type": "address"
        },
        {
          "name": "info",
          "type": "MatryxPlatform.Info storage"
        },
        {
          "name": "data",
          "type": "MatryxPlatform.Data storage"
        },
        {
          "name": "category",
          "type": "bytes32"
        }
      ],
      "name": "createCategory",
      "outputs": [],
      "payable": false,
      "stateMutability": "nonpayable",
      "type": "function"
    },
    {
      "constant": false,
      "inputs": [
        {
          "name": "sender",
          "type": "address"
        },
        {
          "name": "",
          "type": "address"
        },
        {
          "name": "info",
          "type": "MatryxPlatform.Info storage"
        },
        {
          "name": "data",
          "type": "MatryxPlatform.Data storage"
        }
      ],
      "name": "enterMatryx",
      "outputs": [],
      "payable": false,
      "stateMutability": "nonpayable",
      "type": "function"
    },
    {
      "constant": false,
      "inputs": [
        {
          "name": "sender",
          "type": "address"
        },
        {
          "name": "platform",
          "type": "address"
        },
        {
          "name": "info",
          "type": "MatryxPlatform.Info storage"
        },
        {
          "name": "data",
          "type": "MatryxPlatform.Data storage"
        },
        {
          "name": "tAddress",
          "type": "address"
        },
        {
          "name": "category",
          "type": "bytes32"
        }
      ],
      "name": "addTournamentToCategory",
      "outputs": [],
      "payable": false,
      "stateMutability": "nonpayable",
      "type": "function"
    },
    {
      "constant": false,
      "inputs": [
        {
          "name": "sender",
          "type": "address"
        },
        {
          "name": "platform",
          "type": "address"
        },
        {
          "name": "info",
          "type": "MatryxPlatform.Info storage"
        },
        {
          "name": "data",
          "type": "MatryxPlatform.Data storage"
        },
        {
          "name": "tAddress",
          "type": "address"
        }
      ],
      "name": "removeTournamentFromCategory",
      "outputs": [],
      "payable": false,
      "stateMutability": "nonpayable",
      "type": "function"
    },
    {
      "constant": false,
      "inputs": [
        {
          "name": "sender",
          "type": "address"
        },
        {
          "name": "platform",
          "type": "address"
        },
        {
          "name": "info",
          "type": "MatryxPlatform.Info storage"
        },
        {
          "name": "data",
          "type": "MatryxPlatform.Data storage"
        },
        {
          "components": [
            {
              "name": "title",
              "type": "bytes32[3]"
            },
            {
              "name": "category",
              "type": "bytes32"
            },
            {
              "name": "descHash",
              "type": "bytes32[2]"
            },
            {
              "name": "fileHash",
              "type": "bytes32[2]"
            },
            {
              "name": "bounty",
              "type": "uint256"
            },
            {
              "name": "entryFee",
              "type": "uint256"
            }
          ],
          "name": "tDetails",
          "type": "tuple"
        },
        {
          "components": [
            {
              "name": "start",
              "type": "uint256"
            },
            {
              "name": "end",
              "type": "uint256"
            },
            {
              "name": "review",
              "type": "uint256"
            },
            {
              "name": "bounty",
              "type": "uint256"
            }
          ],
          "name": "rDetails",
          "type": "tuple"
        }
      ],
      "name": "createTournament",
      "outputs": [
        {
          "name": "",
          "type": "address"
        }
      ],
      "payable": false,
      "stateMutability": "nonpayable",
      "type": "function"
    }
  ],
  "bytecode": "0x61288d610030600b82828239805160001a6073146000811461002057610022565bfe5b5030600052607381538281f3007300000000000000000000000000000000000000003014608060405260043610620001195763ffffffff7c01000000000000000000000000000000000000000000000000000000006000350416631886dbb481146200011e5780632ace6c70146200014d5780633a1f7ffd14620001645780633fc78f6f146200019857806354b73af514620001be5780635a88223c14620001e4578063728fc452146200020b5780637f279bd014620002315780638c756d0e14620002485780639e05b11f146200026d578063a39e145a1462000292578063a624531d14620002b7578063c0445db014620002ce578063caa6f75a14620002e5578063cd32526d14620002fc578063cda2084d1462000313578063ef2b1259146200032a575b600080fd5b620001356200012f36600462001c5c565b62000341565b604051620001449190620024ce565b60405180910390f35b620001356200015e36600462001c5c565b62000379565b8180156200017157600080fd5b50620001896200018336600462001f56565b620003ab565b60405162000144919062002426565b620001af620001a936600462001fdf565b62000bf4565b604051620001449190620024bb565b620001d5620001cf36600462001c08565b62000d0f565b604051620001449190620025a4565b818015620001f157600080fd5b50620002096200020336600462001cc6565b62000d1c565b005b620002226200021c36600462001eab565b62000f0a565b604051620001449190620024a8565b620001d56200024236600462001c08565b62001046565b8180156200025557600080fd5b50620002096200026736600462001e38565b6200104d565b8180156200027a57600080fd5b50620002096200028c36600462001d24565b6200114f565b8180156200029f57600080fd5b5062000209620002b136600462001da4565b6200142d565b62000135620002c836600462001c5c565b62001617565b62000222620002df36600462001fdf565b6200164e565b620001d5620002f636600462001c08565b62001760565b620001d56200030d36600462001c5c565b6200176a565b620001356200032436600462001c5c565b62001799565b620002226200033b36600462001fdf565b620017d0565b73ffffffffffffffffffffffffffffffffffffffff80821660009081526003840160205260409020600101541615155b949350505050565b73ffffffffffffffffffffffffffffffffffffffff166000908152600591909101602052604090205460ff1692915050565b73ffffffffffffffffffffffffffffffffffffffff861660009081526005840160205260408120548190819081908190819060ff16151562000424576040517f08c379a00000000000000000000000000000000000000000000000000000000081526004016200041b906200254a565b60405180910390fd5b608088015160001062000465576040517f08c379a00000000000000000000000000000000000000000000000000000000081526004016200041b906200256e565b608088015160608801511115620004aa576040517f08c379a00000000000000000000000000000000000000000000000000000000081526004016200041b9062002580565b87608001518a60020160009054906101000a900473ffffffffffffffffffffffffffffffffffffffff1673ffffffffffffffffffffffffffffffffffffffff1663dd62ed3e8e306040518363ffffffff167c01000000000000000000000000000000000000000000000000000000000281526004016200052c9291906200243c565b602060405180830381600087803b1580156200054757600080fd5b505af11580156200055c573d6000803e3d6000fd5b505050506040513d601f19601f8201168201806040525062000582919081019062002074565b1015620005bd576040517f08c379a00000000000000000000000000000000000000000000000000000000081526004016200041b9062002592565b60018a01548a5473ffffffffffffffffffffffffffffffffffffffff16620005e4620018f2565b620005f1929190620025b4565b604051809103906000f0801580156200060e573d6000803e3d6000fd5b508a546040517f6226d73800000000000000000000000000000000000000000000000000000000815291965073ffffffffffffffffffffffffffffffffffffffff1690636226d738906200066a90889060039060040162002489565b600060405180830381600087803b1580156200068557600080fd5b505af11580156200069a573d6000803e3d6000fd5b5050505060088901805460018101825560009182526020918290200180547fffffffffffffffffffffffff00000000000000000000000000000000000000001673ffffffffffffffffffffffffffffffffffffffff88161790558801516200070c9030908d908d908d908a906200142d565b73ffffffffffffffffffffffffffffffffffffffff8c8116600090815260058b01602090815260408220600681018054600181018255908452919092200180547fffffffffffffffffffffffff0000000000000000000000000000000000000000169288169290921790915560808901516004820154919550620007919190620018e2565b600485015573ffffffffffffffffffffffffffffffffffffffff858116600090815260028b016020526040902060018c8101548255810180547fffffffffffffffffffffffff000000000000000000000000000000000000000016928f169290921790915588519093508890600685019062000811908290600362001903565b5060208201516003820155604082015162000833906004830190600262001948565b5060608201516200084b906006830190600262001948565b50608082810151600883015560a0909201516009909101558801518954620008799163ffffffff620018e216565b896000018190555087608001518960010160008773ffffffffffffffffffffffffffffffffffffffff1673ffffffffffffffffffffffffffffffffffffffff168152602001908152602001600020819055508960020160009054906101000a900473ffffffffffffffffffffffffffffffffffffffff1673ffffffffffffffffffffffffffffffffffffffff166323b872dd8d308b608001516040518463ffffffff167c01000000000000000000000000000000000000000000000000000000000281526004016200094e939291906200245b565b602060405180830381600087803b1580156200096957600080fd5b505af11580156200097e573d6000803e3d6000fd5b505050506040513d601f19601f82011682018060405250620009a4919081019062002053565b1515620009df576040517f08c379a00000000000000000000000000000000000000000000000000000000081526004016200041b90620024f0565b895473ffffffffffffffffffffffffffffffffffffffff1663e468220460036040518263ffffffff167c010000000000000000000000000000000000000000000000000000000002815260040162000a389190620025a4565b602060405180830381600087803b15801562000a5357600080fd5b505af115801562000a68573d6000803e3d6000fd5b505050506040513d601f19601f8201168201806040525062000a8e919081019062002074565b8a5460018c01546040517fc53cfd9a00000000000000000000000000000000000000000000000000000000815292945073ffffffffffffffffffffffffffffffffffffffff9091169163c53cfd9a9162000aed918690600401620025d3565b602060405180830381600087803b15801562000b0857600080fd5b505af115801562000b1d573d6000803e3d6000fd5b505050506040513d601f19601f8201168201806040525062000b43919081019062001be7565b90507c01000000000000000000000000000000000000000000000000000000006040518163ca0ba8b40281528660048201528d60248201528b60448201528a60648201526080803603608483013760008061010483865af480151562000ba857600080fd5b5050507f66b8e5c50b708b71a6f155375a4613dd12971db692c5931e7cb0701ee7add6ac8560405162000bdc919062002426565b60405180910390a150929a9950505050505050505050565b835460018501546040517fc53cfd9a000000000000000000000000000000000000000000000000000000008152606092600092839273ffffffffffffffffffffffffffffffffffffffff9092169163c53cfd9a9162000c5691600401620025e3565b602060405180830381600087803b15801562000c7157600080fd5b505af115801562000c86573d6000803e3d6000fd5b505050506040513d601f19601f8201168201806040525062000cac919081019062001be7565b915085600c0190507c01000000000000000000000000000000000000000000000000000000006040518163e79eda2c028152826004820152866024820152856044820152600080606483875af480151562000d0657600080fd5b3d6000833e3d82f35b60088101545b9392505050565b73ffffffffffffffffffffffffffffffffffffffff8416600090815260058201602052604090205460ff161562000d81576040517f08c379a00000000000000000000000000000000000000000000000000000000081526004016200041b90620024de565b60028201546040517f70a0823100000000000000000000000000000000000000000000000000000000815260009173ffffffffffffffffffffffffffffffffffffffff16906370a082319062000ddc90889060040162002426565b602060405180830381600087803b15801562000df757600080fd5b505af115801562000e0c573d6000803e3d6000fd5b505050506040513d601f19601f8201168201806040525062000e32919081019062002074565b1162000e6c576040517f08c379a00000000000000000000000000000000000000000000000000000000081526004016200041b9062002538565b73ffffffffffffffffffffffffffffffffffffffff90931660008181526005850160209081526040822080547fffffffffffffffffffffffffffffffffffffffffffffffffffffffffffffff0016600190811782554291810191909155600b909601805496870181558252902090930180547fffffffffffffffffffffffff0000000000000000000000000000000000000000169093179092555050565b845460018601546040517fc53cfd9a000000000000000000000000000000000000000000000000000000008152606092600092839273ffffffffffffffffffffffffffffffffffffffff9092169163c53cfd9a9162000f6c91600401620025e3565b602060405180830381600087803b15801562000f8757600080fd5b505af115801562000f9c573d6000803e3d6000fd5b505050506040513d601f19601f8201168201806040525062000fc2919081019062001be7565b600087815260068901602052604080822090517fe79eda2c00000000000000000000000000000000000000000000000000000000815260048101829052602481018990526044810188905292945092507c0100000000000000000000000000000000000000000000000000000000919080606483875af480151562000d0657600080fd5b5492915050565b600383015473ffffffffffffffffffffffffffffffffffffffff868116911614620010a6576040517f08c379a00000000000000000000000000000000000000000000000000000000081526004016200041b9062002502565b600081815260078301602052604090205460ff1615620010f4576040517f08c379a00000000000000000000000000000000000000000000000000000000081526004016200041b906200255c565b600c8201805460018181018355600092835260208084209092018490559282526007909301909252604090912080547fffffffffffffffffffffffffffffffffffffffffffffffffffffffffffffff00169091179055505050565b6000806000808773ffffffffffffffffffffffffffffffffffffffff168973ffffffffffffffffffffffffffffffffffffffff1614806200123b575086546040517fe11aa6a200000000000000000000000000000000000000000000000000000000815260039173ffffffffffffffffffffffffffffffffffffffff169063e11aa6a290620011e3908d9060040162002426565b602060405180830381600087803b158015620011fe57600080fd5b505af115801562001213573d6000803e3d6000fd5b505050506040513d601f19601f8201168201806040525062001239919081019062002074565b145b151562001276576040517f08c379a00000000000000000000000000000000000000000000000000000000081526004016200041b9062002514565b865460018801546040517fc53cfd9a00000000000000000000000000000000000000000000000000000000815273ffffffffffffffffffffffffffffffffffffffff9092169163c53cfd9a91620012d091600401620025e3565b602060405180830381600087803b158015620012eb57600080fd5b505af115801562001300573d6000803e3d6000fd5b505050506040513d601f19601f8201168201806040525062001326919081019062001be7565b73ffffffffffffffffffffffffffffffffffffffff8616600090815260028801602090815260408083206009015480845260068b019092528220929650945090925090505b8154811015620013d3578473ffffffffffffffffffffffffffffffffffffffff1682828154811015156200139b57fe5b60009182526020909120015473ffffffffffffffffffffffffffffffffffffffff161415620013ca57620013d3565b6001016200136b565b7c010000000000000000000000000000000000000000000000000000000060405181634a71ede8028152836004820152826024820152600080604483895af48015156200141f57600080fd5b505050505050505050505050565b8473ffffffffffffffffffffffffffffffffffffffff168673ffffffffffffffffffffffffffffffffffffffff16148062001513575083546040517fe11aa6a200000000000000000000000000000000000000000000000000000000815260039173ffffffffffffffffffffffffffffffffffffffff169063e11aa6a290620014bb908a9060040162002426565b602060405180830381600087803b158015620014d657600080fd5b505af1158015620014eb573d6000803e3d6000fd5b505050506040513d601f19601f8201168201806040525062001511919081019062002074565b145b15156200154e576040517f08c379a00000000000000000000000000000000000000000000000000000000081526004016200041b9062002514565b600081815260078401602052604090205460ff1615156200159d576040517f08c379a00000000000000000000000000000000000000000000000000000000081526004016200041b9062002526565b60008181526006840160209081526040808320805460018101825590845282842001805473ffffffffffffffffffffffffffffffffffffffff9096167fffffffffffffffffffffffff0000000000000000000000000000000000000000909616861790559382526002909401909352912060090155505050565b73ffffffffffffffffffffffffffffffffffffffff8082166000908152600484016020526040902060010154161515949350505050565b835460018501546040517fc53cfd9a000000000000000000000000000000000000000000000000000000008152606092600092839273ffffffffffffffffffffffffffffffffffffffff9092169163c53cfd9a91620016b091600401620025e3565b602060405180830381600087803b158015620016cb57600080fd5b505af1158015620016e0573d6000803e3d6000fd5b505050506040513d601f19601f8201168201806040525062001706919081019062001be7565b91508560080190507c01000000000000000000000000000000000000000000000000000000006040518163e79eda2c028152826004820152866024820152856044820152600080606483875af480151562000d0657600080fd5b600b015492915050565b73ffffffffffffffffffffffffffffffffffffffff166000908152600191909101602052604090205492915050565b73ffffffffffffffffffffffffffffffffffffffff8082166000908152600284016020526040902060010154161515949350505050565b835460018501546040517fc53cfd9a000000000000000000000000000000000000000000000000000000008152606092600092839273ffffffffffffffffffffffffffffffffffffffff9092169163c53cfd9a916200183291600401620025e3565b602060405180830381600087803b1580156200184d57600080fd5b505af115801562001862573d6000803e3d6000fd5b505050506040513d601f19601f8201168201806040525062001888919081019062001be7565b915085600b0190507c01000000000000000000000000000000000000000000000000000000006040518163e79eda2c028152826004820152866024820152856044820152600080606483875af480151562000d0657600080fd5b60008282018381101562000d1557fe5b6040516101d6806200267e83390190565b826003810192821562001936579160200282015b8281111562001936578251825560209092019160019091019062001917565b50620019449291506200197a565b5090565b826002810192821562001936579160200282018281111562001936578251825560209092019160019091019062001917565b6200199791905b8082111562001944576000815560010162001981565b90565b600062000d15823562002652565b600062000d15825162002652565b6000601f82018313620019c857600080fd5b6002620019df620019d98262002629565b62002601565b91508183856020840282011115620019f657600080fd5b60005b8381101562001a26578162001a0f888262001aa8565b8452506020928301929190910190600101620019f9565b5050505092915050565b6000601f8201831362001a4257600080fd5b600362001a53620019d98262002629565b9150818385602084028201111562001a6a57600080fd5b60005b8381101562001a26578162001a83888262001aa8565b845250602092830192919091019060010162001a6d565b600062000d1582516200266b565b600062000d15823562001997565b600062000d15825162001997565b60006080828403121562001ad757600080fd5b62001ae3608062002601565b9050600062001af3848462001aa8565b825250602062001b068484830162001aa8565b602083015250604062001b1c8482850162001aa8565b604083015250606062001b328482850162001aa8565b60608301525092915050565b6000610140828403121562001b5257600080fd5b62001b5e60c062002601565b9050600062001b6e848462001a30565b825250606062001b818484830162001aa8565b602083015250608062001b9784828501620019b6565b60408301525060c062001bad84828501620019b6565b60608301525061010062001bc48482850162001aa8565b60808301525061012062001bdb8482850162001aa8565b60a08301525092915050565b60006020828403121562001bfa57600080fd5b6000620003718484620019a8565b60008060006060848603121562001c1e57600080fd5b600062001c2c86866200199a565b935050602062001c3f868287016200199a565b925050604062001c528682870162001aa8565b9150509250925092565b6000806000806080858703121562001c7357600080fd5b600062001c8187876200199a565b945050602062001c94878288016200199a565b935050604062001ca78782880162001aa8565b925050606062001cba878288016200199a565b91505092959194509250565b6000806000806080858703121562001cdd57600080fd5b600062001ceb87876200199a565b945050602062001cfe878288016200199a565b935050604062001d118782880162001aa8565b925050606062001cba8782880162001aa8565b600080600080600060a0868803121562001d3d57600080fd5b600062001d4b88886200199a565b955050602062001d5e888289016200199a565b945050604062001d718882890162001aa8565b935050606062001d848882890162001aa8565b925050608062001d97888289016200199a565b9150509295509295909350565b60008060008060008060c0878903121562001dbe57600080fd5b600062001dcc89896200199a565b965050602062001ddf89828a016200199a565b955050604062001df289828a0162001aa8565b945050606062001e0589828a0162001aa8565b935050608062001e1889828a016200199a565b92505060a062001e2b89828a0162001aa8565b9150509295509295509295565b600080600080600060a0868803121562001e5157600080fd5b600062001e5f88886200199a565b955050602062001e72888289016200199a565b945050604062001e858882890162001aa8565b935050606062001e988882890162001aa8565b925050608062001d978882890162001aa8565b600080600080600080600060e0888a03121562001ec757600080fd5b600062001ed58a8a6200199a565b975050602062001ee88a828b016200199a565b965050604062001efb8a828b0162001aa8565b955050606062001f0e8a828b0162001aa8565b945050608062001f218a828b0162001aa8565b93505060a062001f348a828b0162001aa8565b92505060c062001f478a828b0162001aa8565b91505092959891949750929550565b600080600080600080610240878903121562001f7157600080fd5b600062001f7f89896200199a565b965050602062001f9289828a016200199a565b955050604062001fa589828a0162001aa8565b945050606062001fb889828a0162001aa8565b935050608062001fcb89828a0162001b3e565b9250506101c062001e2b89828a0162001ac4565b60008060008060008060c0878903121562001ff957600080fd5b60006200200789896200199a565b96505060206200201a89828a016200199a565b95505060406200202d89828a0162001aa8565b94505060606200204089828a0162001aa8565b935050608062001e1889828a0162001aa8565b6000602082840312156200206657600080fd5b600062000371848462001a9a565b6000602082840312156200208757600080fd5b600062000371848462001ab6565b620020a08162002652565b82525050565b6000620020b3826200264e565b808452602084019350620020c78362002648565b60005b82811015620020fd57620020e086835162002095565b620020eb8262002648565b602096909601959150600101620020ca565b5093949350505050565b600062002114826200264e565b808452602084019350620021288362002648565b60005b82811015620020fd576200214186835162002169565b6200214c8262002648565b6020969096019591506001016200212b565b620020a0816200266b565b620020a08162001997565b620020a08162002670565b7f4c69625574696c730000000000000000000000000000000000000000000000009052565b601681527f416c726561647920656e7465726564204d617472797800000000000000000000602082015260400190565b600f81527f5472616e73666572206661696c65640000000000000000000000000000000000602082015260400190565b601681527f4d75737420626520506c6174666f726d206f776e657200000000000000000000602082015260400190565b602581527f4d75737420636f6d652066726f6d20506c6174666f726d206f7220546f75726e60208201527f616d656e74000000000000000000000000000000000000000000000000000000604082015260600190565b601781527f43617465676f727920646f6573206e6f74206578697374000000000000000000602082015260400190565b600d81527f4d7573742068617665204d545800000000000000000000000000000000000000602082015260400190565b601881527f4d757374206861766520656e7465726564204d61747279780000000000000000602082015260400190565b601781527f43617465676f727920616c726561647920657869737473000000000000000000602082015260400190565b602881527f546f75726e616d656e7420626f756e7479206d7573742062652067726561746560208201527f72207468616e2030000000000000000000000000000000000000000000000000604082015260600190565b602c81527f526f756e6420626f756e74792063616e6e6f742065786365656420546f75726e60208201527f616d656e7420626f756e74790000000000000000000000000000000000000000604082015260600190565b601081527f496e73756666696369656e74204d545800000000000000000000000000000000602082015260400190565b6020810162002436828462002095565b92915050565b604081016200244c828562002095565b62000d15602083018462002174565b606081016200246b828662002095565b6200247a602083018562002174565b62000371604083018462002169565b6040810162002499828562002095565b62000d15602083018462002169565b6020808252810162000d158184620020a6565b6020808252810162000d15818462002107565b602081016200243682846200215e565b602080825281016200243681620021a4565b602080825281016200243681620021d4565b60208082528101620024368162002204565b60208082528101620024368162002234565b6020808252810162002436816200228a565b602080825281016200243681620022ba565b602080825281016200243681620022ea565b6020808252810162002436816200231a565b6020808252810162002436816200234a565b602080825281016200243681620023a0565b602080825281016200243681620023f6565b6020810162002436828462002169565b60408101620025c4828562002169565b62000d15602083018462002095565b6040810162002499828562002169565b60408101620025f3828462002169565b62002436602083016200217f565b60405181810167ffffffffffffffff811182821017156200262157600080fd5b604052919050565b600067ffffffffffffffff8211156200264157600080fd5b5060200290565b60200190565b5190565b73ffffffffffffffffffffffffffffffffffffffff1690565b151590565b60006200243682620026525600608060405234801561001057600080fd5b506040516040806101d6833981018060405261002f9190810190610078565b60009190915560018054600160a060020a031916600160a060020a039092169190911790556100c1565b600061006582516100b2565b9392505050565b600061006582516100be565b6000806040838503121561008b57600080fd5b6000610097858561006c565b92505060206100a885828601610059565b9150509250929050565b600160a060020a031690565b90565b610106806100d06000396000f3006080604052348015600f57600080fd5b506040517c01000000000000000000000000000000000000000000000000000000007f4d6174727978506c6174666f726d0000000000000000000000000000000000006000546001600001548363c53cfd9a028552816004860152826024860152602060006044876000855af1801515608757600080fd5b6000519350600460008737336004870152826024870152600436036004604488013760008060403601886000885af1905080151560c357600080fd5b3d6000873e3d86f300a265627a7a723058201ad58d20f2afa137988eceb745eeb4b0a7a46eaf01120657d4b4f31f121e32ef6c6578706572696d656e74616cf50037a265627a7a723058204c73960486d61159b7a1a6ecc35fb7b5aa12ea5a55fb2038f54e272367a43bac6c6578706572696d656e74616cf50037",
  "source": "pragma solidity ^0.4.24;\npragma experimental ABIEncoderV2;\n\nimport \"./SafeMath.sol\";\nimport \"./LibGlobals.sol\";\nimport \"./IToken.sol\";\n\nimport \"./MatryxSystem.sol\";\nimport \"./MatryxUser.sol\";\nimport \"./MatryxTournament.sol\";\nimport \"./MatryxRound.sol\";\nimport \"./MatryxSubmission.sol\";\n\ncontract MatryxPlatform {\n    using SafeMath for uint256;\n\n    struct Info {\n        address system;\n        uint256 version;\n        address token;\n        address owner;\n    }\n\n    struct Data {\n        uint256 totalBalance;\n        mapping(address=>uint256) balanceOf;\n\n        mapping(address=>LibTournament.TournamentData) tournaments;\n        mapping(address=>LibRound.RoundData) rounds;\n        mapping(address=>LibSubmission.SubmissionData) submissions;\n        mapping(address=>LibUser.UserData) users;\n        mapping(bytes32=>address[]) categories;\n        mapping(bytes32=>bool) categoryExists;\n\n        address[] allTournaments;\n        address[] allRounds;\n        address[] allSubmissions;\n        address[] allUsers;\n        bytes32[] allCategories;\n    }\n\n    Info info; // slot 0\n    Data data; // slot 4\n\n    constructor(address system, address token) public {\n        info.system = system;\n        info.version = 1;\n        info.token = token;\n        info.owner = msg.sender;\n    }\n\n    /// @dev\n    /// 1) Uses msg.sender to ask MatryxSystem for the type of library this call should be forwarded to\n    /// 2) Uses this library type to lookup (in its own storage) the name of the library\n    /// 3) Uses this name to ask MatryxSystem for the address of the contract (under this platform's version)\n    /// 4) Uses name and signature to ask MatryxSystem for the data necessary to modify the incoming calldata\n    ///    so as to be appropriate for the associated library call\n    /// 5) Makes a delegatecall to the library address given by MatryxSystem with the library-appropriate calldata\n    function () public {\n        assembly {\n            // constants\n            let offset := 0x100000000000000000000000000000000000000000000000000000000\n            let libPlatform := 0x4c6962506c6174666f726d000000000000000000000000000000000000000000\n\n            let ptr := mload(0x40)                                              // scratch space for calldata\n            let system := sload(info_slot)                                      // load info.system address\n            let version := sload(add(info_slot, 1))                             // load info.version number\n\n            mstore(0, mul(0xe11aa6a2, offset))                                  // getContractType(address)\n            mstore(0x04, caller)                                                // arg 0 - contract\n            let res := call(gas, system, 0, 0, 0x24, 0x04, 0x20)                // call system.getContractType\n            if iszero(res) { revert(0, 0) }                                     // safety check\n\n            mstore(0, mul(0xe4682204, offset))                                  // getLibraryName(uint256)\n            res := call(gas, system, 0, 0, 0x24, 0, 0x20)                       // call system getLibraryName (arg 0 already in 0x04)\n            if iszero(res) { revert(0, 0) }                                     // safety check\n            let libName := mload(0)                                             // store libName from response\n\n            if iszero(eq(libName, libPlatform)) {                               // if coming from MatryxTrinity or MatryxUser\n                calldatacopy(0, 0x24, 0x20)                                     // get injected version from calldata\n                version := mload(0)                                             // overwrite version var\n            }\n\n            // call system and get library address\n            mstore(ptr, mul(0xc53cfd9a, offset))                                // getContract(uint256,bytes32)\n            mstore(add(ptr, 0x04), version)                                     // arg 0 - version\n            mstore(add(ptr, 0x24), libName)                                     // arg 1 - library name\n            res := call(gas, system, 0, ptr, 0x44, 0, 0x20)                     // call system.getContract\n            if iszero(res) { revert(0, 0) }                                     // safety check\n            let libAddress := mload(0)                                          // store libAddress from response\n\n            // get fnData from system\n            mstore(ptr, mul(0x3b15aabf, offset))                                // getContractMethod(uint256,bytes32,bytes32)\n            mstore(add(ptr, 0x04), version)                                     // arg 0 - version\n            mstore(add(ptr, 0x24), libName)                                     // arg 1 - library name\n            calldatacopy(add(ptr, 0x44), 0, 0x04)                               // arg 2 - fn selector\n            res := call(gas, system, 0, ptr, 0x64, 0, 0)                        // call system.getContractMethod\n            if iszero(res) { revert(0, 0) }                                     // safety check\n\n            returndatacopy(ptr, 0, returndatasize)                              // copy fnData into ptr\n            let ptr2 := add(ptr, mload(ptr))                                    // ptr2 is pointer to start of fnData\n\n            let m_injParams := add(ptr2, mload(add(ptr2, 0x20)))                // mem loc injected params\n            let injParams_len := mload(m_injParams)                             // num injected params\n            m_injParams := add(m_injParams, 0x20)                               // first injected param\n\n            let m_dynParams := add(ptr2, mload(add(ptr2, 0x40)))                // memory location of start of dynamic params\n            let dynParams_len := mload(m_dynParams)                             // num dynamic params\n            m_dynParams := add(m_dynParams, 0x20)                               // first dynamic param\n\n            // forward calldata to library\n            ptr := add(ptr, returndatasize)                                     // shift ptr to new scratch space\n            mstore(ptr, mload(ptr2))                                            // forward call with modified selector\n\n            ptr2 := add(ptr, 0x04)                                              // copy of ptr for keeping track of injected params\n\n            mstore(ptr2, caller)                                                // inject msg.sender\n            mstore(add(ptr2, 0x20), address)                                    // inject platform\n\n            let cdOffset := 0x04                                                // calldata offset, after signature\n\n            if iszero(eq(libName, libPlatform)) {                               // if coming from MatryxTrinity or MatryxUser\n                calldatacopy(add(ptr2, 0x20), 0x04, 0x20)                       // overwrite injected platform with address from forwarder\n                cdOffset := add(cdOffset, 0x40)                                 // shift calldata offset for injected address and version\n            }\n            ptr2 := add(ptr2, 0x40)                                             // shift ptr2 to account for injected addresses\n\n            for { let i := 0 } lt(i, injParams_len) { i := add(i, 1) } {        // loop through injected params and insert\n                let injParam := mload(add(m_injParams, mul(i, 0x20)))           // get injected param slot\n                mstore(ptr2, injParam)                                          // store injected params into next slot\n                ptr2 := add(ptr2, 0x20)                                         // shift ptr2 by a word for each injected\n            }\n\n            calldatacopy(ptr2, cdOffset, sub(calldatasize, cdOffset))           // copy calldata after injected data storage\n\n            // update dynamic params location\n            for { let i := 0 } lt(i, dynParams_len) { i := add(i, 1) } {\n                let idx := mload(add(m_dynParams, mul(i, 0x20)))                // get dynParam index in parameters\n                let loc := add(ptr2, mul(idx, 0x20))                            // get location in memory of dynParam\n                mstore(loc, add(mload(loc), mul(add(injParams_len, 2), 0x20)))  // shift dynParam location by num injected\n            }\n\n            // calculate size of forwarded call\n            let size := add(0x04, sub(calldatasize, cdOffset))                  // calldatasize minus injected\n            size := add(size, mul(add(injParams_len, 2), 0x20))                 // add size of injected\n\n            res := delegatecall(gas, libAddress, ptr, size, 0, 0)               // delegatecall to library\n            if iszero(res) { revert(0, 0) }                                     // safety check\n\n            returndatacopy(ptr, 0, returndatasize)                              // copy return data into ptr for returning\n            return(ptr, returndatasize)                                         // return forwarded call returndata\n        }\n    }\n\n    /// @dev Gets Information about the Platform\n    /// @return  Info Struct that contains system, version, token, and owner\n    function getInfo() public view returns (MatryxPlatform.Info) {\n        return info;\n    }\n\n    /// @dev Sets the Version\n    /// @param version  New version\n    function setVersion(uint256 version) external {\n        require(msg.sender == info.owner, \"Must be Platform owner\");\n        info.version = version;\n    }\n\n    /// @dev Sets the Token address\n    /// @param token  New token address\n    function upgradeToken(address token) external {\n        require(msg.sender == info.owner, \"Must be Platform owner\");\n        IToken(info.token).upgrade(data.totalBalance);\n\n        require(IToken(token).balanceOf(this) == data.totalBalance, \"Token address must match upgraded token\");\n        info.token = token;\n    }\n\n    /// @dev Withdraws any Ether from Platform\n    function withdrawEther() external {\n        require(msg.sender == info.owner, \"Must be Platform owner\");\n        msg.sender.transfer(address(this).balance);\n    }\n\n    /// @dev Withdraws any ERC20 tokens from Platform\n    /// @param token  ERC20 token address to use\n    function withdrawTokens(address token) external {\n        require(msg.sender == info.owner, \"Must be Platform owner\");\n\n        uint256 balance = IToken(token).balanceOf(this);\n\n        // if current token, check if any extraneous tokens\n        if (token == info.token) {\n            balance = balance.sub(data.totalBalance);\n        }\n\n        IToken(token).transfer(msg.sender, balance);\n    }\n}\n\ninterface IMatryxPlatform {\n    function getInfo() external view returns (MatryxPlatform.Info);\n    function setVersion(uint256) external;\n    function upgradeToken(uint256, address) external;\n    function withdrawEther() external;\n    function withdrawTokens(address) external;\n\n    function isTournament(address) external view returns (bool);\n    function isRound(address) external view returns (bool);\n    function isSubmission(address) external view returns (bool);\n    function hasEnteredMatryx(address) external view returns (bool);\n\n    function getTotalBalance() external view returns (uint256);\n    function getBalanceOf(address) external view returns (uint256);\n\n    function getTournamentCount() external view returns (uint256);\n    function getUserCount() external view returns (uint256);\n    function getTournaments(uint256, uint256) external view returns (address[]);\n    function getTournamentsByCategory(bytes32, uint256, uint256) external view returns (address[]);\n    function getUsers(uint256, uint256) external view returns (address[]);\n    function getCategories(uint256, uint256) external view returns (bytes32[]);\n\n    function createCategory(bytes32) external;\n\n    function enterMatryx() external;\n    function addTournamentToCategory(address, bytes32) external;\n    function removeTournamentFromCategory(address) external;\n    function createTournament(LibTournament.TournamentDetails, LibRound.RoundDetails) external returns (address);\n}\n\nlibrary LibPlatform {\n    using SafeMath for uint256;\n\n    event TournamentCreated(address _tournamentAddress);\n\n    /// @dev Return if a Tournament exists\n    /// @param tAddress  Tournament address\n    /// @return          true if Tournament exists\n    function isTournament(address, address, MatryxPlatform.Data storage data, address tAddress) public view returns (bool) {\n        return data.tournaments[tAddress].info.owner != 0x0;\n    }\n\n    /// @dev Return if a Round exists\n    /// @param rAddress  Round address\n    /// @return          true if Round exists\n    function isRound(address, address, MatryxPlatform.Data storage data, address rAddress) public view returns (bool) {\n        return data.rounds[rAddress].info.tournament != 0x0;\n    }\n\n    /// @dev Return if a Submission exists\n    /// @param sAddress  Submission address\n    /// @return          true if Submission exists\n    function isSubmission(address, address, MatryxPlatform.Data storage data, address sAddress) public view returns (bool) {\n        return data.submissions[sAddress].info.owner != 0x0;\n    }\n\n    /// @dev Return if user has entered Matryx\n    /// @param data  Platform storage containing all contract data\n    /// @return      If user has entered Matryx\n    function hasEnteredMatryx(address, address, MatryxPlatform.Data storage data, address uAddress) public view returns (bool) {\n        return data.users[uAddress].exists;\n    }\n\n    /// @dev Return total MTX in Platform\n    /// @param data  Platform storage containing all contract data\n    /// @return      Total MTX in Platform\n    function getTotalBalance(address, address, MatryxPlatform.Data storage data) public view returns (uint256) {\n        return data.totalBalance;\n    }\n\n    /// @dev Return balance of a Tournament, Round, or Submission contract\n    /// @param data      Platform storage containing all contract data\n    /// @param cAddress  Address of the contract we get the balance of\n    /// @return          Balance of the Trinity contract\n    function getBalanceOf(address, address, MatryxPlatform.Data storage data, address cAddress) public view returns (uint256) {\n        return data.balanceOf[cAddress];\n    }\n\n    /// @dev Return total number of Tournaments\n    /// @param data  Platform storage containing all contract data\n    /// @return      Number of Tournaments on Platform\n    function getTournamentCount(address, address, MatryxPlatform.Data storage data) public view returns (uint256) {\n        return data.allTournaments.length;\n    }\n\n    /// @dev Return total number of Users\n    /// @param data  Platform storage containing all contract data\n    /// @return      Number of Users on Platform\n    function getUserCount(address, address, MatryxPlatform.Data storage data) public view returns (uint256) {\n        return data.allUsers.length;\n    }\n\n    /// @dev Return count Tournaments starting at startIndex\n    /// @param info        Platform storage containing version number and system address\n    /// @param data        Platform storage containing all contract data\n    /// @param startIndex  Index of first Tournament to return\n    /// @param count       Number of Tournaments to return. If 0, all\n    /// @return            Array of Tournament addresses\n    function getTournaments(address, address, MatryxPlatform.Info storage info, MatryxPlatform.Data storage data, uint256 startIndex, uint256 count) public view returns (address[]) {\n        address libUtils = IMatryxSystem(info.system).getContract(info.version, \"LibUtils\");\n        address[] storage tournaments = data.allTournaments;\n\n        assembly {\n            let offset := 0x100000000000000000000000000000000000000000000000000000000\n            let ptr := mload(0x40)\n\n            mstore(ptr, mul(0xe79eda2c, offset))                                // getSubArray(bytes32[] storage,uint256,uint256)\n            mstore(add(ptr, 0x04), tournaments_slot)                            // data.allTournaments\n            mstore(add(ptr, 0x24), startIndex)                                  // arg 0 - startIndex\n            mstore(add(ptr, 0x44), count)                                       // arg 1 - count\n\n            let res := delegatecall(gas, libUtils, ptr, 0x64, 0, 0)             // call LibUtils.getSubArray\n            if iszero(res) { revert(0, 0) }                                     // safety check\n\n            returndatacopy(ptr, 0, returndatasize)                              // copy result into mem\n            return(ptr, returndatasize)                                         // return result\n        }\n    }\n\n    /// @dev Return all Tournaments for a category\n    /// @param info      Platform storage containing version number and system address\n    /// @param data      Platform storage containing all contract data\n    /// @param category  Category name to get\n    /// @param startIndex  Index of first User to return\n    /// @param count       Number of User to return. If 0, all\n    /// @return          Array of Tournament addresses for given category\n    function getTournamentsByCategory(address, address, MatryxPlatform.Info storage info, MatryxPlatform.Data storage data, bytes32 category, uint256 startIndex, uint256 count) public view returns (address[]) {\n        address libUtils = IMatryxSystem(info.system).getContract(info.version, \"LibUtils\");\n        address[] storage cat = data.categories[category];\n\n        assembly {\n            let offset := 0x100000000000000000000000000000000000000000000000000000000\n            let ptr := mload(0x40)\n\n            mstore(ptr, mul(0xe79eda2c, offset))                                // getSubArray(bytes32[] storage,uint256,uint256)\n            mstore(add(ptr, 0x04), cat_slot)                                    // data.categories[category]\n            mstore(add(ptr, 0x24), startIndex)                                  // arg 0 - startIndex\n            mstore(add(ptr, 0x44), count)                                       // arg 1 - count\n\n            let res := delegatecall(gas, libUtils, ptr, 0x64, 0, 0)             // call LibUtils.getSubArray\n            if iszero(res) { revert(0, 0) }                                     // safety check\n\n            returndatacopy(ptr, 0, returndatasize)                              // copy result into mem\n            return(ptr, returndatasize)                                         // return result\n        }\n    }\n\n    /// @dev Return count Users starting at startIndex\n    /// @param info        Platform storage containing version number and system address\n    /// @param data        Platform storage containing all contract data\n    /// @param startIndex  Index of first User to return\n    /// @param count       Number of User to return. If 0, all\n    /// @return            Array of User addresses\n    function getUsers(address, address, MatryxPlatform.Info storage info, MatryxPlatform.Data storage data, uint256 startIndex, uint256 count) public view returns (address[]) {\n        address libUtils = IMatryxSystem(info.system).getContract(info.version, \"LibUtils\");\n        address[] storage users = data.allUsers;\n\n        assembly {\n            let offset := 0x100000000000000000000000000000000000000000000000000000000\n            let ptr := mload(0x40)\n\n            mstore(ptr, mul(0xe79eda2c, offset))                                // getSubArray(bytes32[] storage,uint256,uint256)\n            mstore(add(ptr, 0x04), users_slot)                                  // data.allUsers\n            mstore(add(ptr, 0x24), startIndex)                                  // arg 0 - startIndex\n            mstore(add(ptr, 0x44), count)                                       // arg 1 - count\n\n            let res := delegatecall(gas, libUtils, ptr, 0x64, 0, 0)             // call LibUtils.getSubArray\n            if iszero(res) { revert(0, 0) }                                     // safety check\n\n            returndatacopy(ptr, 0, returndatasize)                              // copy result into mem\n            return(ptr, returndatasize)                                         // return result\n        }\n    }\n\n    /// @dev Return Categories in platform by index\n    /// @param info        Platform storage containing version number and system address\n    /// @param data        Platform storage containing all contract data\n    /// @param startIndex  Index of first Category to return\n    /// @param count       Number of Category to return. If 0, all\n    /// @return            Array of Categories\n    function getCategories(address, address, MatryxPlatform.Info storage info, MatryxPlatform.Data storage data, uint256 startIndex, uint256 count) public view returns (bytes32[]) {\n        address libUtils = IMatryxSystem(info.system).getContract(info.version, \"LibUtils\");\n        bytes32[] storage allCategories = data.allCategories;\n\n        assembly {\n            let offset := 0x100000000000000000000000000000000000000000000000000000000\n            let ptr := mload(0x40)\n\n            mstore(ptr, mul(0xe79eda2c, offset))                                // getSubArray(bytes32[] storage,uint256,uint256)\n            mstore(add(ptr, 0x04), allCategories_slot)                          // data.allCategories\n            mstore(add(ptr, 0x24), startIndex)                                  // arg 0 - startIndex\n            mstore(add(ptr, 0x44), count)                                       // arg 1 - count\n\n            let res := delegatecall(gas, libUtils, ptr, 0x64, 0, 0)             // call LibUtils.getSubArray\n            if iszero(res) { revert(0, 0) }                                     // safety check\n\n            returndatacopy(ptr, 0, returndatasize)                              // copy result into mem\n            return(ptr, returndatasize)                                         // return result\n        }\n    }\n\n    /// @dev Creates a category\n    /// @param sender    msg.sender to Platform\n    /// @param info      Platform storage containing version number and system address\n    /// @param data      Platform storage containing all contract data and users\n    /// @param category  Category to create\n    function createCategory(address sender, address, MatryxPlatform.Info storage info, MatryxPlatform.Data storage data, bytes32 category) public {\n        require(sender == info.owner, \"Must be Platform owner\");\n        require(!data.categoryExists[category], \"Category already exists\");\n\n        data.allCategories.push(category);\n        data.categoryExists[category] = true;\n    }\n\n    /// @dev Enter Matryx\n    /// @param sender  msg.sender to Platform\n    /// @param info    Platform storage containing version number and system address\n    /// @param data    Platform storage containing all contract data and users\n    function enterMatryx(address sender, address, MatryxPlatform.Info storage info, MatryxPlatform.Data storage data) public {\n        require(!data.users[sender].exists, \"Already entered Matryx\");\n        require(IToken(info.token).balanceOf(sender) > 0, \"Must have MTX\");\n\n        data.users[sender].exists = true;\n        data.users[sender].timeEntered = now;\n        data.allUsers.push(sender);\n    }\n\n    /// @dev Adds a Tournament to a category\n    /// @param data      Platform storage containing all contract data\n    /// @param tAddress  Tournament address\n    /// @param category  Category name\n    function addTournamentToCategory(address sender, address platform, MatryxPlatform.Info storage info, MatryxPlatform.Data storage data, address tAddress, bytes32 category) public {\n        require(sender == platform || IMatryxSystem(info.system).getContractType(sender) == uint256(LibSystem.ContractType.Tournament), \"Must come from Platform or Tournament\");\n        require(data.categoryExists[category], \"Category does not exist\");\n\n        data.categories[category].push(tAddress);\n        data.tournaments[tAddress].details.category = category;\n    }\n\n    /// @dev Removes a Tournament from its current category\n    /// @param data      Platform storage containing all contract data\n    /// @param tAddress  Tournament address\n    function removeTournamentFromCategory(address sender, address platform, MatryxPlatform.Info storage info, MatryxPlatform.Data storage data, address tAddress) public {\n        require(sender == platform || IMatryxSystem(info.system).getContractType(sender) == uint256(LibSystem.ContractType.Tournament), \"Must come from Platform or Tournament\");\n\n        address libUtils = IMatryxSystem(info.system).getContract(info.version, \"LibUtils\");\n        bytes32 category = data.tournaments[tAddress].details.category;\n        address[] storage categoryList = data.categories[category];\n        uint256 index;\n\n        for (index = 0; index < categoryList.length; index++) {\n            if (categoryList[index] == tAddress) break;\n        }\n\n        assembly {\n            let offset := 0x100000000000000000000000000000000000000000000000000000000\n            let ptr := mload(0x40)\n\n            mstore(ptr, mul(0x4a71ede8, offset))                        // removeArrayElement(bytes32[] storage,uint256)\n            mstore(add(ptr, 0x04), categoryList_slot)                   // arg 0 - data.categories[tournament.category]\n            mstore(add(ptr, 0x24), index)                               // arg 1 - index\n\n            let res := delegatecall(gas, libUtils, ptr, 0x44, 0, 0)     // call LibUtils.removeArrayElement\n            if iszero(res) { revert(0, 0) }                             // safety check\n        }\n    }\n\n    /// @dev Creates a Tournament\n    /// @param sender    msg.sender to Platform\n    /// @param info      Platform storage containing version number and system address\n    /// @param data      Platform storage containing all contract data and users\n    /// @param tDetails  Tournament details (title, category, descHash, fileHash, bounty, entryFee)\n    /// @param rDetails  Round details (start, end, review, bounty)\n    /// @return          Address of the created Tournament\n    function createTournament(address sender, address platform, MatryxPlatform.Info storage info, MatryxPlatform.Data storage data, LibTournament.TournamentDetails tDetails, LibRound.RoundDetails rDetails) public returns (address) {\n        require(data.users[sender].exists, \"Must have entered Matryx\");\n        require(tDetails.bounty > 0, \"Tournament bounty must be greater than 0\");\n        require(rDetails.bounty <= tDetails.bounty, \"Round bounty cannot exceed Tournament bounty\");\n        require(IToken(info.token).allowance(sender, this) >= tDetails.bounty, \"Insufficient MTX\");\n\n        address tAddress = new MatryxTournament(info.version, info.system);\n\n        IMatryxSystem(info.system).setContractType(tAddress, uint256(LibSystem.ContractType.Tournament));\n        data.allTournaments.push(tAddress);\n        addTournamentToCategory(address(this), platform, info, data, tAddress, tDetails.category);\n\n        LibUser.UserData storage user = data.users[sender];\n        user.tournaments.push(tAddress);\n        user.totalSpent = user.totalSpent.add(tDetails.bounty);\n\n        LibTournament.TournamentData storage tournament = data.tournaments[tAddress];\n        tournament.info.version = info.version;\n        tournament.info.owner = sender;\n        tournament.details = tDetails;\n\n        data.totalBalance = data.totalBalance.add(tDetails.bounty);\n        data.balanceOf[tAddress] = tDetails.bounty;\n        require(IToken(info.token).transferFrom(sender, this, tDetails.bounty), \"Transfer failed\");\n\n        bytes32 libName = IMatryxSystem(info.system).getLibraryName(uint256(LibSystem.ContractType.Tournament));\n        address libTournament = IMatryxSystem(info.system).getContract(info.version, libName);\n        assembly {\n            let offset := 0x100000000000000000000000000000000000000000000000000000000\n            let ptr := mload(0x40)\n\n            mstore(ptr, mul(0xca0ba8b4, offset))                            // createRound(address,address,MatryxPlatform.Info storage,MatryxPlatform.Data storage,LibRound.RoundDetails)\n            mstore(add(ptr, 0x04), tAddress)                                // arg 0 - self\n            mstore(add(ptr, 0x24), sender)                                  // arg 1 - sender\n            mstore(add(ptr, 0x44), info_slot)                               // arg 2 - info\n            mstore(add(ptr, 0x64), data_slot)                               // arg 3 - data\n            calldatacopy(add(ptr, 0x84), sub(calldatasize, 0x80), 0x80)     // arg 4 - rDetails\n\n            let res := delegatecall(gas, libTournament, ptr, 0x104, 0, 0)   // call LibTournament.createRound\n            if iszero(res) { revert(0, 0) }                                 // safety check\n        }\n        // LibTournament.createRound(tAddress, this, info, data, rDetails);\n\n        emit TournamentCreated(tAddress);\n        return tAddress;\n    }\n}\n",
  "sourcePath": "/Users/ajm13/Desktop/matryx/MatryxPlatform/contracts/MatryxPlatform.sol",
  "compiler": {
    "name": "solc",
    "version": "0.4.24+commit.e67f0147.Emscripten.clang"
  },
  "schemaVersion": "2.0.1",
  "updatedAt": "2018-11-27T20:07:18.366Z"
}