{
  "contractName": "LibRound",
  "abi": [
    {
      "constant": true,
      "inputs": [
        {
          "name": "self",
          "type": "address"
        },
        {
          "name": "",
          "type": "address"
        },
        {
          "name": "data",
          "type": "MatryxPlatform.Data storage"
        }
      ],
      "name": "getVersion",
      "outputs": [
        {
          "name": "",
          "type": "uint256"
        }
      ],
      "payable": false,
      "stateMutability": "view",
      "type": "function"
    },
    {
      "constant": true,
      "inputs": [
        {
          "name": "self",
          "type": "address"
        },
        {
          "name": "",
          "type": "address"
        },
        {
          "name": "data",
          "type": "MatryxPlatform.Data storage"
        }
      ],
      "name": "getTournament",
      "outputs": [
        {
          "name": "",
          "type": "address"
        }
      ],
      "payable": false,
      "stateMutability": "view",
      "type": "function"
    },
    {
      "constant": true,
      "inputs": [
        {
          "name": "self",
          "type": "address"
        },
        {
          "name": "",
          "type": "address"
        },
        {
          "name": "data",
          "type": "MatryxPlatform.Data storage"
        }
      ],
      "name": "getStart",
      "outputs": [
        {
          "name": "",
          "type": "uint256"
        }
      ],
      "payable": false,
      "stateMutability": "view",
      "type": "function"
    },
    {
      "constant": true,
      "inputs": [
        {
          "name": "self",
          "type": "address"
        },
        {
          "name": "",
          "type": "address"
        },
        {
          "name": "data",
          "type": "MatryxPlatform.Data storage"
        }
      ],
      "name": "getEnd",
      "outputs": [
        {
          "name": "",
          "type": "uint256"
        }
      ],
      "payable": false,
      "stateMutability": "view",
      "type": "function"
    },
    {
      "constant": true,
      "inputs": [
        {
          "name": "self",
          "type": "address"
        },
        {
          "name": "",
          "type": "address"
        },
        {
          "name": "data",
          "type": "MatryxPlatform.Data storage"
        }
      ],
      "name": "getReview",
      "outputs": [
        {
          "name": "",
          "type": "uint256"
        }
      ],
      "payable": false,
      "stateMutability": "view",
      "type": "function"
    },
    {
      "constant": true,
      "inputs": [
        {
          "name": "self",
          "type": "address"
        },
        {
          "name": "",
          "type": "address"
        },
        {
          "name": "data",
          "type": "MatryxPlatform.Data storage"
        }
      ],
      "name": "getBounty",
      "outputs": [
        {
          "name": "",
          "type": "uint256"
        }
      ],
      "payable": false,
      "stateMutability": "view",
      "type": "function"
    },
    {
      "constant": true,
      "inputs": [
        {
          "name": "self",
          "type": "address"
        },
        {
          "name": "",
          "type": "address"
        },
        {
          "name": "info",
          "type": "MatryxPlatform.Info storage"
        }
      ],
      "name": "getBalance",
      "outputs": [
        {
          "name": "",
          "type": "uint256"
        }
      ],
      "payable": false,
      "stateMutability": "view",
      "type": "function"
    },
    {
      "constant": true,
      "inputs": [
        {
          "name": "self",
          "type": "address"
        },
        {
          "name": "",
          "type": "address"
        },
        {
          "name": "info",
          "type": "MatryxPlatform.Info storage"
        },
        {
          "name": "data",
          "type": "MatryxPlatform.Data storage"
        },
        {
          "name": "startIndex",
          "type": "uint256"
        },
        {
          "name": "count",
          "type": "uint256"
        }
      ],
      "name": "getSubmissions",
      "outputs": [
        {
          "name": "",
          "type": "address[]"
        }
      ],
      "payable": false,
      "stateMutability": "view",
      "type": "function"
    },
    {
      "constant": true,
      "inputs": [
        {
          "name": "self",
          "type": "address"
        },
        {
          "name": "",
          "type": "address"
        },
        {
          "name": "data",
          "type": "MatryxPlatform.Data storage"
        }
      ],
      "name": "getData",
      "outputs": [
        {
          "components": [
            {
              "components": [
                {
                  "name": "version",
                  "type": "uint256"
                },
                {
                  "name": "tournament",
                  "type": "address"
                },
                {
                  "name": "submissions",
                  "type": "address[]"
                },
                {
                  "components": [
                    {
                      "name": "submissions",
                      "type": "address[]"
                    },
                    {
                      "name": "distribution",
                      "type": "uint256[]"
                    },
                    {
                      "name": "action",
                      "type": "uint256"
                    }
                  ],
                  "name": "winners",
                  "type": "tuple"
                },
                {
                  "name": "closed",
                  "type": "bool"
                }
              ],
              "name": "info",
              "type": "tuple"
            },
            {
              "components": [
                {
                  "name": "start",
                  "type": "uint256"
                },
                {
                  "name": "end",
                  "type": "uint256"
                },
                {
                  "name": "review",
                  "type": "uint256"
                },
                {
                  "name": "bounty",
                  "type": "uint256"
                }
              ],
              "name": "details",
              "type": "tuple"
            }
          ],
          "name": "",
          "type": "tuple"
        }
      ],
      "payable": false,
      "stateMutability": "view",
      "type": "function"
    },
    {
      "constant": true,
      "inputs": [
        {
          "name": "self",
          "type": "address"
        },
        {
          "name": "",
          "type": "address"
        },
        {
          "name": "data",
          "type": "MatryxPlatform.Data storage"
        }
      ],
      "name": "getSubmissionCount",
      "outputs": [
        {
          "name": "",
          "type": "uint256"
        }
      ],
      "payable": false,
      "stateMutability": "view",
      "type": "function"
    },
    {
      "constant": true,
      "inputs": [
        {
          "name": "self",
          "type": "address"
        },
        {
          "name": "",
          "type": "address"
        },
        {
          "name": "data",
          "type": "MatryxPlatform.Data storage"
        }
      ],
      "name": "getWinningSubmissions",
      "outputs": [
        {
          "name": "",
          "type": "address[]"
        }
      ],
      "payable": false,
      "stateMutability": "view",
      "type": "function"
    },
    {
      "constant": false,
      "inputs": [
        {
          "name": "self",
          "type": "address"
        },
        {
          "name": "",
          "type": "address"
        },
        {
          "name": "info",
          "type": "MatryxPlatform.Info storage"
        },
        {
          "name": "data",
          "type": "MatryxPlatform.Data storage"
        }
      ],
      "name": "getState",
      "outputs": [
        {
          "name": "",
          "type": "uint256"
        }
      ],
      "payable": false,
      "stateMutability": "nonpayable",
      "type": "function"
    }
  ],
  "bytecode": "0x610f49610030600b82828239805160001a6073146000811461002057610022565bfe5b5030600052607381538281f30073000000000000000000000000000000000000000030146080604052600436106100d05763ffffffff7c010000000000000000000000000000000000000000000000000000000060003504166315bd7b0181146100d557806315c8e3bc146100fe57806319820bce1461011e57806340fd56a81461013e578063412559e11461015e57806356b3e2ff1461017e5780636ff732f9146101915780637cc0c3b9146101a4578063af8c54e5146101b7578063c73d4968146101ca578063e2f390c2146101dd578063ed7c9de9146101f0575b600080fd5b6100e86100e3366004610ac6565b610203565b6040516100f59190610ebc565b60405180910390f35b61011161010c366004610ac6565b610232565b6040516100f59190610e9a565b61013161012c366004610ac6565b6102c9565b6040516100f59190610e86565b81801561014a57600080fd5b506100e8610159366004610b13565b6102fc565b61017161016c366004610ac6565b610486565b6040516100f59190610eab565b61011161018c366004610b74565b6106a0565b6100e861019f366004610ac6565b6107f7565b6100e86101b2366004610ac6565b610829565b6100e86101c5366004610ac6565b61085b565b6100e86101d8366004610ac6565b61088d565b6100e86101eb366004610ac6565b6108bf565b6100e86101fe366004610ac6565b610972565b73ffffffffffffffffffffffffffffffffffffffff831660009081526001820160205260409020549392505050565b73ffffffffffffffffffffffffffffffffffffffff831660009081526001820160209081526040918290206003018054835181840281018401909452808452606093928301828280156102bb57602002820191906000526020600020905b815473ffffffffffffffffffffffffffffffffffffffff168152600190910190602001808311610290575b505050505090509392505050565b73ffffffffffffffffffffffffffffffffffffffff92831660009081526001918201602052604090200154909116919050565b73ffffffffffffffffffffffffffffffffffffffff84166000908152600182016020526040812060078101544210156103395760005b915061047d565b60088101544210156104035760028401546040517f70a0823100000000000000000000000000000000000000000000000000000000815273ffffffffffffffffffffffffffffffffffffffff909116906370a082319061039d908990600401610e86565b602060405180830381600087803b1580156103b757600080fd5b505af11580156103cb573d6000803e3d6000fd5b505050506040513d601f19601f820116820180604052506103ef9190810190610bfb565b15156103fc576001610332565b6002610332565b6009810154600882015461041c9163ffffffff6109a416565b42101561046457600681015460ff1615610437576005610332565b60028101541515610449576006610332565b60038101546000101561045d576004610332565b6003610332565b600381015460001015610478576005610332565b600691505b50949350505050565b61048e6109ba565b6104966109ba565b73ffffffffffffffffffffffffffffffffffffffff808616600090815260018086016020908152604092839020835160a08101855281548152928101549094168282015260028401805484518184028101840186528181529395948601939283018282801561053b57602002820191906000526020600020905b815473ffffffffffffffffffffffffffffffffffffffff168152600190910190602001808311610510575b505050505081526020016003820160606040519081016040529081600082018054806020026020016040519081016040528092919081815260200182805480156105bb57602002820191906000526020600020905b815473ffffffffffffffffffffffffffffffffffffffff168152600190910190602001808311610590575b505050505081526020016001820180548060200260200160405190810160405280929190818152602001828054801561061357602002820191906000526020600020905b8154815260200190600101908083116105ff575b5050509183525050600291909101546020918201529082526006929092015460ff1615159082015290825273ffffffffffffffffffffffffffffffffffffffff86166000908152600185018252604090819020815160808101835260078201548152600882015481850152600982015492810192909252600a015460608201529082015290509392505050565b835460018501546040517fc53cfd9a000000000000000000000000000000000000000000000000000000008152606092600092839273ffffffffffffffffffffffffffffffffffffffff9092169163c53cfd9a9161070091600401610eca565b602060405180830381600087803b15801561071a57600080fd5b505af115801561072e573d6000803e3d6000fd5b505050506040513d601f19601f820116820180604052506107529190810190610aa8565b91508560010160008a73ffffffffffffffffffffffffffffffffffffffff1673ffffffffffffffffffffffffffffffffffffffff16815260200190815260200160002060000160020190507c01000000000000000000000000000000000000000000000000000000006040518163e79eda2c028152826004820152866024820152856044820152600080606483875af48015156107ee57600080fd5b3d6000833e3d82f35b73ffffffffffffffffffffffffffffffffffffffff831660009081526001820160205260409020600801549392505050565b73ffffffffffffffffffffffffffffffffffffffff831660009081526001820160205260409020600a01549392505050565b73ffffffffffffffffffffffffffffffffffffffff831660009081526001820160205260409020600701549392505050565b73ffffffffffffffffffffffffffffffffffffffff831660009081526001820160205260409020600901549392505050565b60028101546040517f70a0823100000000000000000000000000000000000000000000000000000000815260009173ffffffffffffffffffffffffffffffffffffffff16906370a0823190610918908790600401610e86565b602060405180830381600087803b15801561093257600080fd5b505af1158015610946573d6000803e3d6000fd5b505050506040513d601f19601f8201168201806040525061096a9190810190610bfb565b949350505050565b73ffffffffffffffffffffffffffffffffffffffff831660009081526001820160205260409020600201549392505050565b6000828201838110156109b357fe5b9392505050565b610160604051908101604052806109cf6109e1565b81526020016109dc610a2d565b905290565b60e06040519081016040528060008152602001600073ffffffffffffffffffffffffffffffffffffffff16815260200160608152602001610a20610a56565b8152600060209091015290565b608060405190810160405280600081526020016000815260200160008152602001600081525090565b6060604051908101604052806060815260200160608152602001600081525090565b60006109b38235610eee565b60006109b38251610eee565b60006109b38235610f0c565b60006109b38251610f0c565b600060208284031215610aba57600080fd5b600061096a8484610a84565b600080600060608486031215610adb57600080fd5b6000610ae78686610a78565b9350506020610af886828701610a78565b9250506040610b0986828701610a90565b9150509250925092565b60008060008060808587031215610b2957600080fd5b6000610b358787610a78565b9450506020610b4687828801610a78565b9350506040610b5787828801610a90565b9250506060610b6887828801610a90565b91505092959194509250565b60008060008060008060c08789031215610b8d57600080fd5b6000610b998989610a78565b9650506020610baa89828a01610a78565b9550506040610bbb89828a01610a90565b9450506060610bcc89828a01610a90565b9350506080610bdd89828a01610a90565b92505060a0610bee89828a01610a90565b9150509295509295509295565b600060208284031215610c0d57600080fd5b600061096a8484610a9c565b610c2281610eee565b82525050565b6000610c3382610eea565b808452602084019350610c4583610ee4565b60005b82811015610c7557610c5b868351610c19565b610c6482610ee4565b602096909601959150600101610c48565b5093949350505050565b6000610c8a82610eea565b808452602084019350610c9c83610ee4565b60005b82811015610c7557610cb2868351610c19565b610cbb82610ee4565b602096909601959150600101610c9f565b6000610cd782610eea565b808452602084019350610ce983610ee4565b60005b82811015610c7557610cff868351610e7d565b610d0882610ee4565b602096909601959150600101610cec565b610c2281610f07565b7f4c69625574696c730000000000000000000000000000000000000000000000009052565b80516080830190610d588482610e7d565b506020820151610d6b6020850182610e7d565b506040820151610d7e6040850182610e7d565b506060820151610d916060850182610e7d565b50505050565b805160009060a0840190610dab8582610e7d565b506020830151610dbe6020860182610c19565b5060408301518482036040860152610dd68282610c7f565b91505060608301518482036060860152610df08282610e3a565b9150506080830151610e056080860182610d19565b509392505050565b805160a080845260009190840190610e258282610d97565b9150506020830151610e056020860182610d47565b8051606080845260009190840190610e528282610c7f565b91505060208301518482036020860152610e6c8282610ccc565b9150506040830151610e0560408601825b610c2281610f0c565b60208101610e948284610c19565b92915050565b602080825281016109b38184610c28565b602080825281016109b38184610e0d565b60208101610e948284610e7d565b60408101610ed88284610e7d565b610e9460208301610d22565b60200190565b5190565b73ffffffffffffffffffffffffffffffffffffffff1690565b151590565b905600a265627a7a723058202cd9215a1d7fc7794347fc276f111b3bde5c33d8569888cf78d6a776e4bb2eb46c6578706572696d656e74616cf50037",
  "source": "pragma solidity ^0.4.24;\npragma experimental ABIEncoderV2;\n\nimport \"./SafeMath.sol\";\nimport \"./LibGlobals.sol\";\n\nimport \"./MatryxSystem.sol\";\nimport \"./MatryxPlatform.sol\";\nimport \"./MatryxTrinity.sol\";\nimport \"./MatryxTournament.sol\";\n\ncontract MatryxRound is MatryxTrinity {\n    constructor (uint256 _version, address _system) MatryxTrinity(_version, _system) public {}\n}\n\ninterface IMatryxRound {\n    function transferFrom(address, address, uint256) external;\n    function transferTo(address, address, uint256) external;\n\n    function getVersion() external view returns (uint256);\n    function getTournament() external view returns (address);\n    function getStart() external view returns (uint256);\n    function getEnd() external view returns (uint256);\n    function getReview() external view returns (uint256);\n    function getBounty() external view returns (uint256);\n    function getBalance() external view returns (uint256);\n    function getSubmissions(uint256, uint256) external view returns (address[]);\n    function getData() external view returns (LibRound.RoundReturnData);\n\n    function getSubmissionCount() external view returns (uint256);\n    function getWinningSubmissions() external view returns (address[]);\n\n    function getState() external view returns (uint256);\n}\n\nlibrary LibRound {\n    using SafeMath for uint256;\n\n    struct RoundInfo {\n        uint256 version;\n        address tournament;\n        address[] submissions;\n        WinnersData winners;\n        bool closed;\n    }\n\n    // All information needed for creation of Round\n    struct RoundDetails {\n        // bytes32[2] pKHash;\n        uint256 start;\n        uint256 end;\n        uint256 review;\n        uint256 bounty;\n    }\n\n    // All information needed to choose winning submissions\n    struct WinnersData {\n        // bytes32[2] sKHash;\n        address[] submissions;\n        uint256[] distribution;\n        uint256 action;\n    }\n\n    struct RoundData {\n        RoundInfo info;\n        RoundDetails details;\n\n        mapping(address=>bool) isSubmission;\n        address[] judgedSubmissions;\n        mapping(address=>bool) judgedSubmission;\n        mapping(address=>bool) judgedRound;\n    }\n\n    // All state data and details of Round\n    struct RoundReturnData {\n        RoundInfo info;\n        RoundDetails details;\n    }\n\n    /// @dev Returns the version of this Round\n    function getVersion(address self, address, MatryxPlatform.Data storage data) public view returns (uint256) {\n        return data.rounds[self].info.version;\n    }\n\n    /// @dev Returns the Tournament address of this Round\n    function getTournament(address self, address, MatryxPlatform.Data storage data) public view returns (address) {\n        return data.rounds[self].info.tournament;\n    }\n\n    /// @dev Returns the start time of this Round (unix epoch time in seconds)\n    function getStart(address self, address, MatryxPlatform.Data storage data) public view returns (uint256) {\n        return data.rounds[self].details.start;\n    }\n\n    /// @dev Returns the end time of this Round (unix epoch time in seconds)\n    function getEnd(address self, address, MatryxPlatform.Data storage data) public view returns (uint256) {\n        return data.rounds[self].details.end;\n    }\n\n    /// @dev Returns the duration of the review period of this Round\n    function getReview(address self, address, MatryxPlatform.Data storage data) public view returns (uint256) {\n        return data.rounds[self].details.review;\n    }\n\n    /// @dev Returns the bounty of this Round\n    function getBounty(address self, address, MatryxPlatform.Data storage data) public view returns (uint256) {\n        return data.rounds[self].details.bounty;\n    }\n\n    /// @dev Returns the MTX balance of this Round\n    function getBalance(address self, address, MatryxPlatform.Info storage info) public view returns (uint256) {\n        return IMatryxToken(info.token).balanceOf(self);\n    }\n\n    /// @dev Returns all Submissions of this Round\n    function getSubmissions(address self, address, MatryxPlatform.Info storage info, MatryxPlatform.Data storage data, uint256 startIndex, uint256 count) public view returns (address[]) {\n        address LibUtils = IMatryxSystem(info.system).getContract(info.version, \"LibUtils\");\n        address[] storage submissions = data.rounds[self].info.submissions;\n\n        assembly {\n            let offset := 0x100000000000000000000000000000000000000000000000000000000\n            let ptr := mload(0x40)\n\n            mstore(ptr, mul(0xe79eda2c, offset))                                // getSubArray(bytes32[] storage,uint256,uint256)\n            mstore(add(ptr, 0x04), submissions_slot)                            // data.rounds[self].info.submissions\n            mstore(add(ptr, 0x24), startIndex)                                  // arg 0 - startIndex\n            mstore(add(ptr, 0x44), count)                                       // arg 1 - count\n\n            let res := delegatecall(gas, LibUtils, ptr, 0x64, 0, 0)             // call LibUtils.getSubArray\n            if iszero(res) { revert(0, 0) }                                     // safety check\n\n            returndatacopy(ptr, 0, returndatasize)                              // copy result into mem\n            return(ptr, returndatasize)                                         // return result\n        }\n    }\n\n    /// @dev Returns the data struct of this Round\n    function getData(address self, address, MatryxPlatform.Data storage data) public view returns (LibRound.RoundReturnData) {\n        RoundReturnData memory round;\n        round.info = data.rounds[self].info;\n        round.details = data.rounds[self].details;\n        return round;\n    }\n\n    function getSubmissionCount(address self, address, MatryxPlatform.Data storage data) public view returns (uint256) {\n        return data.rounds[self].info.submissions.length;\n    }\n\n    function getWinningSubmissions(address self, address, MatryxPlatform.Data storage data) public view returns (address[]) {\n        return data.rounds[self].info.winners.submissions;\n    }\n\n    /// @dev Returns the state of this Round\n    function getState(address self, address, MatryxPlatform.Info storage info, MatryxPlatform.Data storage data) public returns (uint256) {\n        LibRound.RoundData storage round = data.rounds[self];\n\n        if (now < round.details.start) {\n            return uint256(LibGlobals.RoundState.NotYetOpen);\n        }\n        else if (now < round.details.end) {\n            if (IMatryxToken(info.token).balanceOf(self) == 0) {\n                return uint256(LibGlobals.RoundState.Unfunded);\n            }\n            return uint256(LibGlobals.RoundState.Open);\n        }\n        else if (now < round.details.end.add(round.details.review)) {\n            if (round.info.closed) {\n                return uint256(LibGlobals.RoundState.Closed);\n            }\n            else if (round.info.submissions.length == 0) {\n                return uint256(LibGlobals.RoundState.Abandoned);\n            }\n            else if (round.info.winners.submissions.length > 0) {\n                return uint256(LibGlobals.RoundState.HasWinners);\n            }\n            return uint256(LibGlobals.RoundState.InReview);\n        }\n        else if (round.info.winners.submissions.length > 0) {\n            return uint256(LibGlobals.RoundState.Closed);\n        }\n        return uint256(LibGlobals.RoundState.Abandoned);\n    }\n}\n",
  "sourcePath": "/Users/ajm13/Desktop/matryx/MatryxPlatform/contracts/MatryxRound.sol",
  "compiler": {
    "name": "solc",
    "version": "0.4.24+commit.e67f0147.Emscripten.clang"
  },
  "schemaVersion": "2.0.1",
  "updatedAt": "2018-11-07T00:18:14.881Z"
}