{
  "contractName": "LibRound",
  "abi": [
    {
      "constant": true,
      "inputs": [
        {
          "name": "self",
          "type": "address"
        },
        {
          "name": "",
          "type": "address"
        },
        {
          "name": "data",
          "type": "MatryxPlatform.Data storage"
        }
      ],
      "name": "getVersion",
      "outputs": [
        {
          "name": "",
          "type": "uint256"
        }
      ],
      "payable": false,
      "stateMutability": "view",
      "type": "function",
      "signature": "0x15bd7b01"
    },
    {
      "constant": true,
      "inputs": [
        {
          "name": "self",
          "type": "address"
        },
        {
          "name": "",
          "type": "address"
        },
        {
          "name": "data",
          "type": "MatryxPlatform.Data storage"
        }
      ],
      "name": "getTournament",
      "outputs": [
        {
          "name": "",
          "type": "address"
        }
      ],
      "payable": false,
      "stateMutability": "view",
      "type": "function",
      "signature": "0x19820bce"
    },
    {
      "constant": true,
      "inputs": [
        {
          "name": "self",
          "type": "address"
        },
        {
          "name": "",
          "type": "address"
        },
        {
          "name": "data",
          "type": "MatryxPlatform.Data storage"
        }
      ],
      "name": "getStart",
      "outputs": [
        {
          "name": "",
          "type": "uint256"
        }
      ],
      "payable": false,
      "stateMutability": "view",
      "type": "function",
      "signature": "0xaf8c54e5"
    },
    {
      "constant": true,
      "inputs": [
        {
          "name": "self",
          "type": "address"
        },
        {
          "name": "",
          "type": "address"
        },
        {
          "name": "data",
          "type": "MatryxPlatform.Data storage"
        }
      ],
      "name": "getEnd",
      "outputs": [
        {
          "name": "",
          "type": "uint256"
        }
      ],
      "payable": false,
      "stateMutability": "view",
      "type": "function",
      "signature": "0x6ff732f9"
    },
    {
      "constant": true,
      "inputs": [
        {
          "name": "self",
          "type": "address"
        },
        {
          "name": "",
          "type": "address"
        },
        {
          "name": "data",
          "type": "MatryxPlatform.Data storage"
        }
      ],
      "name": "getReview",
      "outputs": [
        {
          "name": "",
          "type": "uint256"
        }
      ],
      "payable": false,
      "stateMutability": "view",
      "type": "function",
      "signature": "0xc73d4968"
    },
    {
      "constant": true,
      "inputs": [
        {
          "name": "self",
          "type": "address"
        },
        {
          "name": "",
          "type": "address"
        },
        {
          "name": "data",
          "type": "MatryxPlatform.Data storage"
        }
      ],
      "name": "getBounty",
      "outputs": [
        {
          "name": "",
          "type": "uint256"
        }
      ],
      "payable": false,
      "stateMutability": "view",
      "type": "function",
      "signature": "0x7cc0c3b9"
    },
    {
      "constant": true,
      "inputs": [
        {
          "name": "self",
          "type": "address"
        },
        {
          "name": "",
          "type": "address"
        },
        {
          "name": "data",
          "type": "MatryxPlatform.Data storage"
        }
      ],
      "name": "getBalance",
      "outputs": [
        {
          "name": "",
          "type": "uint256"
        }
      ],
      "payable": false,
      "stateMutability": "view",
      "type": "function",
      "signature": "0x8a1250dd"
    },
    {
      "constant": true,
      "inputs": [
        {
          "name": "self",
          "type": "address"
        },
        {
          "name": "",
          "type": "address"
        },
        {
          "name": "data",
          "type": "MatryxPlatform.Data storage"
        },
        {
          "name": "submissionHash",
          "type": "bytes32"
        }
      ],
      "name": "getSubmission",
      "outputs": [
        {
          "components": [
            {
              "name": "title",
              "type": "bytes32[3]"
            },
            {
              "name": "descHash",
              "type": "bytes32[2]"
            },
            {
              "name": "reward",
              "type": "uint256"
            },
            {
              "name": "timeSubmitted",
              "type": "uint256"
            }
          ],
          "name": "submissionData",
          "type": "tuple"
        }
      ],
      "payable": false,
      "stateMutability": "view",
      "type": "function",
      "signature": "0x348785e9"
    },
    {
      "constant": true,
      "inputs": [
        {
          "name": "self",
          "type": "address"
        },
        {
          "name": "",
          "type": "address"
        },
        {
          "name": "data",
          "type": "MatryxPlatform.Data storage"
        }
      ],
      "name": "getSubmissions",
      "outputs": [
        {
          "name": "",
          "type": "bytes32[]"
        }
      ],
      "payable": false,
      "stateMutability": "view",
      "type": "function",
      "signature": "0x40721539"
    },
    {
      "constant": true,
      "inputs": [
        {
          "name": "self",
          "type": "address"
        },
        {
          "name": "",
          "type": "address"
        },
        {
          "name": "data",
          "type": "MatryxPlatform.Data storage"
        }
      ],
      "name": "getData",
      "outputs": [
        {
          "components": [
            {
              "components": [
                {
                  "name": "version",
                  "type": "uint256"
                },
                {
                  "name": "tournament",
                  "type": "address"
                },
                {
                  "name": "allSubmissions",
                  "type": "bytes32[]"
                },
                {
                  "components": [
                    {
                      "name": "submissions",
                      "type": "bytes32[]"
                    },
                    {
                      "name": "distribution",
                      "type": "uint256[]"
                    },
                    {
                      "name": "action",
                      "type": "uint256"
                    }
                  ],
                  "name": "winners",
                  "type": "tuple"
                },
                {
                  "name": "closed",
                  "type": "bool"
                }
              ],
              "name": "info",
              "type": "tuple"
            },
            {
              "components": [
                {
                  "name": "start",
                  "type": "uint256"
                },
                {
                  "name": "end",
                  "type": "uint256"
                },
                {
                  "name": "review",
                  "type": "uint256"
                },
                {
                  "name": "bounty",
                  "type": "uint256"
                }
              ],
              "name": "details",
              "type": "tuple"
            }
          ],
          "name": "",
          "type": "tuple"
        }
      ],
      "payable": false,
      "stateMutability": "view",
      "type": "function",
      "signature": "0x412559e1"
    },
    {
      "constant": true,
      "inputs": [
        {
          "name": "self",
          "type": "address"
        },
        {
          "name": "",
          "type": "address"
        },
        {
          "name": "data",
          "type": "MatryxPlatform.Data storage"
        }
      ],
      "name": "getSubmissionCount",
      "outputs": [
        {
          "name": "",
          "type": "uint256"
        }
      ],
      "payable": false,
      "stateMutability": "view",
      "type": "function",
      "signature": "0xed7c9de9"
    },
    {
      "constant": true,
      "inputs": [
        {
          "name": "self",
          "type": "address"
        },
        {
          "name": "",
          "type": "address"
        },
        {
          "name": "data",
          "type": "MatryxPlatform.Data storage"
        }
      ],
      "name": "getWinningSubmissions",
      "outputs": [
        {
          "name": "",
          "type": "bytes32[]"
        }
      ],
      "payable": false,
      "stateMutability": "view",
      "type": "function",
      "signature": "0x15c8e3bc"
    },
    {
      "constant": true,
      "inputs": [
        {
          "name": "self",
          "type": "address"
        },
        {
          "name": "",
          "type": "address"
        },
        {
          "name": "data",
          "type": "MatryxPlatform.Data storage"
        }
      ],
      "name": "getState",
      "outputs": [
        {
          "name": "",
          "type": "uint256"
        }
      ],
      "payable": false,
      "stateMutability": "view",
      "type": "function",
      "signature": "0xb5413d67"
    }
  ],
  "bytecode": "0x610e5c610030600b82828239805160001a6073146000811461002057610022565bfe5b5030600052607381538281f3fe73000000000000000000000000000000000000000030146080604052600436106100db5763ffffffff7c010000000000000000000000000000000000000000000000000000000060003504166315bd7b0181146100e057806315c8e3bc1461010957806319820bce14610129578063348785e9146101495780634072153914610169578063412559e11461017c5780636ff732f91461019c5780637cc0c3b9146101af5780638a1250dd146101c2578063af8c54e5146101d5578063b5413d67146101e8578063c73d4968146101fb578063ed7c9de91461020e575b600080fd5b6100f36100ee3660046109c5565b610221565b6040516101009190610dd2565b60405180910390f35b61011c6101173660046109c5565b610251565b6040516101009190610da2565b61013c6101373660046109c5565b6102d1565b6040516101009190610d94565b61015c610157366004610a12565b610305565b6040516101009190610dc4565b61011c6101773660046109c5565b6103d1565b61018f61018a3660046109c5565b61044f565b6040516101009190610db3565b6100f36101aa3660046109c5565b610639565b6100f36101bd3660046109c5565b61066b565b6100f36101d03660046109c5565b61069d565b6100f36101e33660046109c5565b6106cc565b6100f36101f63660046109c5565b6106fe565b6100f36102093660046109c5565b610804565b6100f361021c3660046109c5565b610836565b73ffffffffffffffffffffffffffffffffffffffff831660009081526004820160205260409020545b9392505050565b73ffffffffffffffffffffffffffffffffffffffff831660009081526004820160209081526040918290206003018054835181840281018401909452808452606093928301828280156102c357602002820191906000526020600020905b8154815260200190600101908083116102af575b505050505090509392505050565b73ffffffffffffffffffffffffffffffffffffffff8084166000908152600483016020526040902060010154169392505050565b61030d610880565b73ffffffffffffffffffffffffffffffffffffffff851660009081526004840160209081526040808320858452600c0190915290819020815160e0810190925281608081018260038282826020028201915b81548152602001906001019080831161035f575050509183525050604080518082019182905260209092019190600384019060029082845b8154815260200190600101908083116103975750505050508152602001600582015481526020016006820154815250509050949350505050565b73ffffffffffffffffffffffffffffffffffffffff831660009081526004820160209081526040918290206002018054835181840281018401909452808452606093928301828280156102c357602002820191906000526020600020908154815260200190600101908083116102af57505050505090509392505050565b6104576108b5565b61045f6108b5565b73ffffffffffffffffffffffffffffffffffffffff8086166000908152600485016020908152604091829020825160a08101845281548152600182015490941684830152600281018054845181850281018501865281815292948601938301828280156104eb57602002820191906000526020600020905b8154815260200190600101908083116104d7575b5050505050815260200160038201606060405190810160405290816000820180548060200260200160405190810160405280929190818152602001828054801561055457602002820191906000526020600020905b815481526020019060010190808311610540575b50505050508152602001600182018054806020026020016040519081016040528092919081815260200182805480156105ac57602002820191906000526020600020905b815481526020019060010190808311610598575b5050509183525050600291909101546020918201529082526006929092015460ff1615159082015290825273ffffffffffffffffffffffffffffffffffffffff86166000908152600485018252604090819020815160808101835260078201548152600882015481850152600982015492810192909252600a015460608201529082015290509392505050565b73ffffffffffffffffffffffffffffffffffffffff831660009081526004820160205260409020600801549392505050565b73ffffffffffffffffffffffffffffffffffffffff831660009081526004820160205260409020600a01549392505050565b73ffffffffffffffffffffffffffffffffffffffff831660009081526001820160205260409020549392505050565b73ffffffffffffffffffffffffffffffffffffffff831660009081526004820160205260409020600701549392505050565b73ffffffffffffffffffffffffffffffffffffffff831660009081526004820160205260408120600781015442101561073c5760005b91505061024a565b60088101544210156107845773ffffffffffffffffffffffffffffffffffffffff85166000908152600184016020526040902054151561077d576001610734565b6002610734565b6009810154600882015461079d9163ffffffff61086816565b4210156107e557600681015460ff16156107b8576005610734565b600281015415156107ca576006610734565b6003810154600010156107de576004610734565b6003610734565b6003810154600010156107f9576005610734565b600695945050505050565b73ffffffffffffffffffffffffffffffffffffffff831660009081526004820160205260409020600901549392505050565b73ffffffffffffffffffffffffffffffffffffffff831660009081526004820160205260409020600201549392505050565b60008282018381101561087757fe5b90505b92915050565b60e0604051908101604052806108946108dc565b81526020016108a16108fb565b815260200160008152602001600081525090565b610160604051908101604052806108ca610916565b81526020016108d7610962565b905290565b6060604051908101604052806003906020820280388339509192915050565b60408051808201825290600290829080388339509192915050565b60e06040519081016040528060008152602001600073ffffffffffffffffffffffffffffffffffffffff1681526020016060815260200161095561098b565b8152600060209091015290565b608060405190810160405280600081526020016000815260200160008152602001600081525090565b6060604051908101604052806060815260200160608152602001600081525090565b600061024a8235610df9565b600061024a8235610de0565b6000806000606084860312156109da57600080fd5b60006109e686866109ad565b93505060206109f7868287016109ad565b9250506040610a08868287016109b9565b9150509250925092565b60008060008060808587031215610a2857600080fd5b6000610a3487876109ad565b9450506020610a45878288016109ad565b9350506040610a56878288016109b9565b9250506060610a67878288016109b9565b91505092959194509250565b610a7c81610df9565b82525050565b610a8b81610de9565b610a9482610de0565b60005b82811015610ac457610aaa858351610c07565b610ab382610de3565b602095909501949150600101610a97565b5050505050565b610ad481610def565b610add82610de0565b60005b82811015610ac457610af3858351610c07565b610afc82610de3565b602095909501949150600101610ae0565b6000610b1882610df5565b808452602084019350610b2a83610de3565b60005b82811015610b5a57610b40868351610c07565b610b4982610de3565b602096909601959150600101610b2d565b5093949350505050565b6000610b6f82610df5565b808452602084019350610b8183610de3565b60005b82811015610b5a57610b97868351610c07565b610ba082610de3565b602096909601959150600101610b84565b6000610bbc82610df5565b808452602084019350610bce83610de3565b60005b82811015610b5a57610be4868351610c07565b610bed82610de3565b602096909601959150600101610bd1565b610a7c81610e04565b610a7c81610de0565b80516080830190610c218482610c07565b506020820151610c346020850182610c07565b506040820151610c476040850182610c07565b506060820151610c5a6060850182610c07565b50505050565b805160009060a0840190610c748582610c07565b506020830151610c876020860182610a73565b5060408301518482036040860152610c9f8282610b64565b91505060608301518482036060860152610cb98282610d4d565b9150506080830151610cce6080860182610bfe565b509392505050565b805160a080845260009190840190610cee8282610c60565b9150506020830151610cce6020860182610c10565b805160e0830190610d148482610acb565b506020820151610d276060850182610a82565b506040820151610d3a60a0850182610c07565b506060820151610c5a60c0850182610c07565b8051606080845260009190840190610d658282610b64565b91505060208301518482036020860152610d7f8282610bb1565b9150506040830151610cce6040860182610c07565b6020810161087a8284610a73565b6020808252810161024a8184610b0d565b6020808252810161024a8184610cd6565b60e0810161087a8284610d03565b6020810161087a8284610c07565b90565b60200190565b50600290565b50600390565b5190565b600061087a82610e09565b151590565b73ffffffffffffffffffffffffffffffffffffffff169056fea265627a7a72305820b9882eb5e5e6efb095ba75fca75728a16f4b807c354ab610d749b280f33de29b6c6578706572696d656e74616cf50037",
  "source": "pragma solidity ^0.5.0;\npragma experimental ABIEncoderV2;\n\nimport \"./SafeMath.sol\";\nimport \"./LibGlobals.sol\";\n\nimport \"./MatryxSystem.sol\";\nimport \"./MatryxPlatform.sol\";\nimport \"./MatryxForwarder.sol\";\nimport \"./MatryxTournament.sol\";\n\ncontract MatryxRound is MatryxForwarder {\n    constructor (uint256 _version, address _system) MatryxForwarder(_version, _system) public {}\n}\n\ninterface IMatryxRound {\n    function getVersion() external view returns (uint256);\n    function getTournament() external view returns (address);\n    function getStart() external view returns (uint256);\n    function getEnd() external view returns (uint256);\n    function getReview() external view returns (uint256);\n    function getBounty() external view returns (uint256);\n    function getBalance() external view returns (uint256);\n    function getSubmission(bytes32 submissionHash) external view returns (LibTournament.SubmissionData memory submissionData);\n    function getSubmissions() external view returns (bytes32[] memory);\n    function getData() external view returns (LibRound.RoundReturnData memory);\n\n    function getSubmissionCount() external view returns (uint256);\n    function getWinningSubmissions() external view returns (bytes32[] memory);\n\n    function getState() external view returns (uint256);\n}\n\nlibrary LibRound {\n\n    using SafeMath for uint256;\n\n    struct RoundInfo {\n        uint256 version;\n        address tournament;\n        bytes32[] allSubmissions;\n        LibRound.WinnersData winners;\n        bool closed;\n    }\n\n    // All information needed for creation of Round\n    struct RoundDetails {\n        uint256 start;\n        uint256 end;\n        uint256 review;\n        uint256 bounty;\n    }\n\n    // All information needed to choose winning submissions\n    struct WinnersData {\n        bytes32[] submissions;\n        uint256[] distribution;\n        uint256 action;\n    }\n\n    struct RoundData {\n        LibRound.RoundInfo info;\n        LibRound.RoundDetails details;\n\n        mapping(bytes32=>bool) isSubmission;\n        mapping(bytes32=>LibTournament.SubmissionData) submissions;\n    }\n\n    // All state data and details of Round\n    struct RoundReturnData {\n        LibRound.RoundInfo info;\n        LibRound.RoundDetails details;\n    }\n\n    /// @dev Returns the version of this Round\n    function getVersion(address self, address, MatryxPlatform.Data storage data) public view returns (uint256) {\n        return data.rounds[self].info.version;\n    }\n\n    /// @dev Returns the Tournament address of this Round\n    function getTournament(address self, address, MatryxPlatform.Data storage data) public view returns (address) {\n        return data.rounds[self].info.tournament;\n    }\n\n    /// @dev Returns the start time of this Round (unix epoch time in seconds)\n    function getStart(address self, address, MatryxPlatform.Data storage data) public view returns (uint256) {\n        return data.rounds[self].details.start;\n    }\n\n    /// @dev Returns the end time of this Round (unix epoch time in seconds)\n    function getEnd(address self, address, MatryxPlatform.Data storage data) public view returns (uint256) {\n        return data.rounds[self].details.end;\n    }\n\n    /// @dev Returns the duration of the review period of this Round\n    function getReview(address self, address, MatryxPlatform.Data storage data) public view returns (uint256) {\n        return data.rounds[self].details.review;\n    }\n\n    /// @dev Returns the bounty of this Round\n    function getBounty(address self, address, MatryxPlatform.Data storage data) public view returns (uint256) {\n        return data.rounds[self].details.bounty;\n    }\n\n    /// @dev Returns the MTX balance allocated to this Round\n    function getBalance(address self, address, MatryxPlatform.Data storage data) public view returns (uint256) {\n        return data.balanceOf[self];\n    }\n\n    /// @dev Returns a Submission of this Round\n    /// @param submissionHash The hash of the Submission to return\n    function getSubmission(address self, address, MatryxPlatform.Data storage data, bytes32 submissionHash) public view returns (LibTournament.SubmissionData memory submissionData) {\n        return data.rounds[self].submissions[submissionHash];\n    }\n\n    /// @dev Returns all Submissions of this Round\n    function getSubmissions(address self, address, MatryxPlatform.Data storage data) public view returns (bytes32[] memory) {\n        return data.rounds[self].info.allSubmissions;\n    }\n\n    /// @dev Returns the data struct of this Round\n    function getData(address self, address, MatryxPlatform.Data storage data) public view returns (LibRound.RoundReturnData memory) {\n        LibRound.RoundReturnData memory round;\n        round.info = data.rounds[self].info;\n        round.details = data.rounds[self].details;\n        return round;\n    }\n\n    /// @dev Returns the total number of Submissions in this Round\n    function getSubmissionCount(address self, address, MatryxPlatform.Data storage data) public view returns (uint256) {\n        return data.rounds[self].info.allSubmissions.length;\n    }\n\n    /// @dev Returns the addresses of all winning Submissions of this Round\n    function getWinningSubmissions(address self, address, MatryxPlatform.Data storage data) public view returns (bytes32[] memory) {\n        return data.rounds[self].info.winners.submissions;\n    }\n\n    /// @dev Returns the current state of this Round\n    function getState(address self, address, MatryxPlatform.Data storage data) public view returns (uint256) {\n        LibRound.RoundData storage round = data.rounds[self];\n\n        if (now < round.details.start) {\n            return uint256(LibGlobals.RoundState.NotYetOpen);\n        }\n        else if (now < round.details.end) {\n            if (data.balanceOf[self] == 0) {\n                return uint256(LibGlobals.RoundState.Unfunded);\n            }\n            return uint256(LibGlobals.RoundState.Open);\n        }\n        else if (now < round.details.end.add(round.details.review)) {\n            if (round.info.closed) {\n                return uint256(LibGlobals.RoundState.Closed);\n            }\n            else if (round.info.allSubmissions.length == 0) {\n                return uint256(LibGlobals.RoundState.Abandoned);\n            }\n            else if (round.info.winners.submissions.length > 0) {\n                return uint256(LibGlobals.RoundState.HasWinners);\n            }\n            return uint256(LibGlobals.RoundState.InReview);\n        }\n        else if (round.info.winners.submissions.length > 0) {\n            return uint256(LibGlobals.RoundState.Closed);\n        }\n        return uint256(LibGlobals.RoundState.Abandoned);\n    }\n}\n",
  "sourcePath": "/Users/maxhoward/Desktop/Ethereum/MatryxPlatform/contracts/MatryxRound.sol",
  "compiler": {
    "name": "solc",
    "version": "0.5.0+commit.1d4f565a.Emscripten.clang"
  },
  "schemaVersion": "3.0.1",
  "updatedAt": "2019-02-02T23:20:23.533Z",
  "devdoc": {
    "methods": {
      "getBalance(address,address,MatryxPlatform.Data storage)": {
        "details": "Returns the MTX balance allocated to this Round"
      },
      "getBounty(address,address,MatryxPlatform.Data storage)": {
        "details": "Returns the bounty of this Round"
      },
      "getData(address,address,MatryxPlatform.Data storage)": {
        "details": "Returns the data struct of this Round"
      },
      "getEnd(address,address,MatryxPlatform.Data storage)": {
        "details": "Returns the end time of this Round (unix epoch time in seconds)"
      },
      "getReview(address,address,MatryxPlatform.Data storage)": {
        "details": "Returns the duration of the review period of this Round"
      },
      "getStart(address,address,MatryxPlatform.Data storage)": {
        "details": "Returns the start time of this Round (unix epoch time in seconds)"
      },
      "getState(address,address,MatryxPlatform.Data storage)": {
        "details": "Returns the current state of this Round"
      },
      "getSubmission(address,address,MatryxPlatform.Data storage,bytes32)": {
        "details": "Returns a Submission of this Round",
        "params": {
          "submissionHash": "The hash of the Submission to return"
        }
      },
      "getSubmissionCount(address,address,MatryxPlatform.Data storage)": {
        "details": "Returns the total number of Submissions in this Round"
      },
      "getSubmissions(address,address,MatryxPlatform.Data storage)": {
        "details": "Returns all Submissions of this Round"
      },
      "getTournament(address,address,MatryxPlatform.Data storage)": {
        "details": "Returns the Tournament address of this Round"
      },
      "getVersion(address,address,MatryxPlatform.Data storage)": {
        "details": "Returns the version of this Round"
      },
      "getWinningSubmissions(address,address,MatryxPlatform.Data storage)": {
        "details": "Returns the addresses of all winning Submissions of this Round"
      }
    }
  },
  "userdoc": {
    "methods": {}
  }
}