{
  "contractName": "LibRound",
  "abi": [
    {
      "constant": true,
      "inputs": [
        {
          "name": "self",
          "type": "address"
        },
        {
          "name": "",
          "type": "address"
        },
        {
          "name": "data",
          "type": "MatryxPlatform.Data storage"
        }
      ],
      "name": "getVersion",
      "outputs": [
        {
          "name": "",
          "type": "uint256"
        }
      ],
      "payable": false,
      "stateMutability": "view",
      "type": "function"
    },
    {
      "constant": true,
      "inputs": [
        {
          "name": "self",
          "type": "address"
        },
        {
          "name": "",
          "type": "address"
        },
        {
          "name": "data",
          "type": "MatryxPlatform.Data storage"
        }
      ],
      "name": "getTournament",
      "outputs": [
        {
          "name": "",
          "type": "address"
        }
      ],
      "payable": false,
      "stateMutability": "view",
      "type": "function"
    },
    {
      "constant": true,
      "inputs": [
        {
          "name": "self",
          "type": "address"
        },
        {
          "name": "",
          "type": "address"
        },
        {
          "name": "data",
          "type": "MatryxPlatform.Data storage"
        }
      ],
      "name": "getStart",
      "outputs": [
        {
          "name": "",
          "type": "uint256"
        }
      ],
      "payable": false,
      "stateMutability": "view",
      "type": "function"
    },
    {
      "constant": true,
      "inputs": [
        {
          "name": "self",
          "type": "address"
        },
        {
          "name": "",
          "type": "address"
        },
        {
          "name": "data",
          "type": "MatryxPlatform.Data storage"
        }
      ],
      "name": "getEnd",
      "outputs": [
        {
          "name": "",
          "type": "uint256"
        }
      ],
      "payable": false,
      "stateMutability": "view",
      "type": "function"
    },
    {
      "constant": true,
      "inputs": [
        {
          "name": "self",
          "type": "address"
        },
        {
          "name": "",
          "type": "address"
        },
        {
          "name": "data",
          "type": "MatryxPlatform.Data storage"
        }
      ],
      "name": "getReview",
      "outputs": [
        {
          "name": "",
          "type": "uint256"
        }
      ],
      "payable": false,
      "stateMutability": "view",
      "type": "function"
    },
    {
      "constant": true,
      "inputs": [
        {
          "name": "self",
          "type": "address"
        },
        {
          "name": "",
          "type": "address"
        },
        {
          "name": "data",
          "type": "MatryxPlatform.Data storage"
        }
      ],
      "name": "getBounty",
      "outputs": [
        {
          "name": "",
          "type": "uint256"
        }
      ],
      "payable": false,
      "stateMutability": "view",
      "type": "function"
    },
    {
      "constant": true,
      "inputs": [
        {
          "name": "self",
          "type": "address"
        },
        {
          "name": "",
          "type": "address"
        },
        {
          "name": "data",
          "type": "MatryxPlatform.Data storage"
        }
      ],
      "name": "getBalance",
      "outputs": [
        {
          "name": "",
          "type": "uint256"
        }
      ],
      "payable": false,
      "stateMutability": "view",
      "type": "function"
    },
    {
      "constant": true,
      "inputs": [
        {
          "name": "self",
          "type": "address"
        },
        {
          "name": "",
          "type": "address"
        },
        {
          "name": "info",
          "type": "MatryxPlatform.Info storage"
        },
        {
          "name": "data",
          "type": "MatryxPlatform.Data storage"
        },
        {
          "name": "startIndex",
          "type": "uint256"
        },
        {
          "name": "count",
          "type": "uint256"
        }
      ],
      "name": "getSubmissions",
      "outputs": [
        {
          "name": "",
          "type": "address[]"
        }
      ],
      "payable": false,
      "stateMutability": "view",
      "type": "function"
    },
    {
      "constant": true,
      "inputs": [
        {
          "name": "self",
          "type": "address"
        },
        {
          "name": "",
          "type": "address"
        },
        {
          "name": "data",
          "type": "MatryxPlatform.Data storage"
        }
      ],
      "name": "getData",
      "outputs": [
        {
          "components": [
            {
              "components": [
                {
                  "name": "version",
                  "type": "uint256"
                },
                {
                  "name": "tournament",
                  "type": "address"
                },
                {
                  "name": "submissions",
                  "type": "address[]"
                },
                {
                  "components": [
                    {
                      "name": "submissions",
                      "type": "address[]"
                    },
                    {
                      "name": "distribution",
                      "type": "uint256[]"
                    },
                    {
                      "name": "action",
                      "type": "uint256"
                    }
                  ],
                  "name": "winners",
                  "type": "tuple"
                },
                {
                  "name": "closed",
                  "type": "bool"
                }
              ],
              "name": "info",
              "type": "tuple"
            },
            {
              "components": [
                {
                  "name": "start",
                  "type": "uint256"
                },
                {
                  "name": "end",
                  "type": "uint256"
                },
                {
                  "name": "review",
                  "type": "uint256"
                },
                {
                  "name": "bounty",
                  "type": "uint256"
                }
              ],
              "name": "details",
              "type": "tuple"
            }
          ],
          "name": "",
          "type": "tuple"
        }
      ],
      "payable": false,
      "stateMutability": "view",
      "type": "function"
    },
    {
      "constant": true,
      "inputs": [
        {
          "name": "self",
          "type": "address"
        },
        {
          "name": "",
          "type": "address"
        },
        {
          "name": "data",
          "type": "MatryxPlatform.Data storage"
        }
      ],
      "name": "getSubmissionCount",
      "outputs": [
        {
          "name": "",
          "type": "uint256"
        }
      ],
      "payable": false,
      "stateMutability": "view",
      "type": "function"
    },
    {
      "constant": true,
      "inputs": [
        {
          "name": "self",
          "type": "address"
        },
        {
          "name": "",
          "type": "address"
        },
        {
          "name": "data",
          "type": "MatryxPlatform.Data storage"
        }
      ],
      "name": "getWinningSubmissions",
      "outputs": [
        {
          "name": "",
          "type": "address[]"
        }
      ],
      "payable": false,
      "stateMutability": "view",
      "type": "function"
    },
    {
      "constant": false,
      "inputs": [
        {
          "name": "self",
          "type": "address"
        },
        {
          "name": "",
          "type": "address"
        },
        {
          "name": "data",
          "type": "MatryxPlatform.Data storage"
        }
      ],
      "name": "getState",
      "outputs": [
        {
          "name": "",
          "type": "uint256"
        }
      ],
      "payable": false,
      "stateMutability": "nonpayable",
      "type": "function"
    }
  ],
  "bytecode": "0x610e82610030600b82828239805160001a6073146000811461002057610022565bfe5b5030600052607381538281f30073000000000000000000000000000000000000000030146080604052600436106100d05763ffffffff7c010000000000000000000000000000000000000000000000000000000060003504166315bd7b0181146100d557806315c8e3bc146100fe57806319820bce1461011e578063412559e11461013e57806356b3e2ff1461015e5780636ff732f9146101715780637cc0c3b9146101845780638a1250dd14610197578063af8c54e5146101aa578063b5413d67146101bd578063c73d4968146101dd578063ed7c9de9146101f0575b600080fd5b6100e86100e3366004610a68565b610203565b6040516100f59190610df5565b60405180910390f35b61011161010c366004610a68565b610232565b6040516100f59190610dd3565b61013161012c366004610a68565b6102ca565b6040516100f59190610dbf565b61015161014c366004610a68565b6102fe565b6040516100f59190610de4565b61011161016c366004610ab5565b610519565b6100e861017f366004610a68565b610710565b6100e8610192366004610a68565b610742565b6100e86101a5366004610a68565b610774565b6100e86101b8366004610a68565b6107a3565b8180156101c957600080fd5b506100e86101d8366004610a68565b6107d5565b6100e86101eb366004610a68565b6108da565b6100e86101fe366004610a68565b61090c565b73ffffffffffffffffffffffffffffffffffffffff831660009081526003820160205260409020549392505050565b73ffffffffffffffffffffffffffffffffffffffff83166000908152600380830160209081526040928390209091018054835181840281018401909452808452606093928301828280156102bc57602002820191906000526020600020905b815473ffffffffffffffffffffffffffffffffffffffff168152600190910190602001808311610291575b505050505090509392505050565b73ffffffffffffffffffffffffffffffffffffffff8084166000908152600383016020526040902060010154169392505050565b610306610954565b61030e610954565b73ffffffffffffffffffffffffffffffffffffffff8086166000908152600385016020908152604091829020825160a08101845281548152600182015490941684830152600281018054845181850281018501865281815292948601938301828280156103b157602002820191906000526020600020905b815473ffffffffffffffffffffffffffffffffffffffff168152600190910190602001808311610386575b5050505050815260200160038201606060405190810160405290816000820180548060200260200160405190810160405280929190818152602001828054801561043157602002820191906000526020600020905b815473ffffffffffffffffffffffffffffffffffffffff168152600190910190602001808311610406575b505050505081526020016001820180548060200260200160405190810160405280929190818152602001828054801561048957602002820191906000526020600020905b815481526020019060010190808311610475575b5050509183525050600291909101546020918201529082526006929092015460ff1615159082015290825273ffffffffffffffffffffffffffffffffffffffff86166000908152600385018252604090819020815160808101835260078201548152600882015481850152600982015492810192909252600a01546060820152908201529050805b509392505050565b8354604080517f0d8e6e2c00000000000000000000000000000000000000000000000000000000815290516060926000928392839273ffffffffffffffffffffffffffffffffffffffff1691630d8e6e2c91600480830192602092919082900301818787803b15801561058b57600080fd5b505af115801561059f573d6000803e3d6000fd5b505050506040513d601f19601f820116820180604052506105c39190810190610b3c565b88546040517fc53cfd9a00000000000000000000000000000000000000000000000000000000815291945073ffffffffffffffffffffffffffffffffffffffff169063c53cfd9a90610619908690600401610e03565b602060405180830381600087803b15801561063357600080fd5b505af1158015610647573d6000803e3d6000fd5b505050506040513d601f19601f8201168201806040525061066b9190810190610a42565b91508660030160008b73ffffffffffffffffffffffffffffffffffffffff1673ffffffffffffffffffffffffffffffffffffffff16815260200190815260200160002060000160020190507c01000000000000000000000000000000000000000000000000000000006040518163e79eda2c028152826004820152876024820152866044820152600080606483875af480151561070757600080fd5b3d6000833e3d82f35b73ffffffffffffffffffffffffffffffffffffffff831660009081526003820160205260409020600801549392505050565b73ffffffffffffffffffffffffffffffffffffffff831660009081526003820160205260409020600a01549392505050565b73ffffffffffffffffffffffffffffffffffffffff831660009081526001820160205260409020549392505050565b73ffffffffffffffffffffffffffffffffffffffff831660009081526003820160205260409020600701549392505050565b73ffffffffffffffffffffffffffffffffffffffff83166000908152600382016020526040812060078101544210156108125760005b9150610511565b600881015442101561085a5773ffffffffffffffffffffffffffffffffffffffff85166000908152600184016020526040902054151561085357600161080b565b600261080b565b600981015460088201546108739163ffffffff61093e16565b4210156108bb57600681015460ff161561088e57600561080b565b600281015415156108a057600661080b565b6003810154600010156108b457600461080b565b600361080b565b6003810154600010156108cf57600561080b565b600695945050505050565b73ffffffffffffffffffffffffffffffffffffffff831660009081526003820160205260409020600901549392505050565b73ffffffffffffffffffffffffffffffffffffffff831660009081526003820160205260409020600201549392505050565b60008282018381101561094d57fe5b9392505050565b6101606040519081016040528061096961097b565b81526020016109766109c7565b905290565b60e06040519081016040528060008152602001600073ffffffffffffffffffffffffffffffffffffffff168152602001606081526020016109ba6109f0565b8152600060209091015290565b608060405190810160405280600081526020016000815260200160008152602001600081525090565b6060604051908101604052806060815260200160608152602001600081525090565b600061094d8235610e27565b600061094d8251610e27565b600061094d8235610e45565b600061094d8251610e45565b600060208284031215610a5457600080fd5b6000610a608484610a1e565b949350505050565b600080600060608486031215610a7d57600080fd5b6000610a898686610a12565b9350506020610a9a86828701610a12565b9250506040610aab86828701610a2a565b9150509250925092565b60008060008060008060c08789031215610ace57600080fd5b6000610ada8989610a12565b9650506020610aeb89828a01610a12565b9550506040610afc89828a01610a2a565b9450506060610b0d89828a01610a2a565b9350506080610b1e89828a01610a2a565b92505060a0610b2f89828a01610a2a565b9150509295509295509295565b600060208284031215610b4e57600080fd5b6000610a608484610a36565b610b6381610e27565b82525050565b6000610b7482610e23565b808452602084019350610b8683610e1d565b60005b82811015610bb657610b9c868351610b5a565b610ba582610e1d565b602096909601959150600101610b89565b5093949350505050565b6000610bcb82610e23565b808452602084019350610bdd83610e1d565b60005b82811015610bb657610bf3868351610b5a565b610bfc82610e1d565b602096909601959150600101610be0565b6000610c1882610e23565b808452602084019350610c2a83610e1d565b60005b82811015610bb657610c40868351610db6565b610c4982610e1d565b602096909601959150600101610c2d565b610b6381610e40565b7f4c69625574696c730000000000000000000000000000000000000000000000009052565b80516080830190610c998482610db6565b506020820151610cac6020850182610db6565b506040820151610cbf6040850182610db6565b506060820151610cd26060850182610db6565b50505050565b805160009060a0840190610cec8582610db6565b506020830151610cff6020860182610b5a565b5060408301518482036040860152610d178282610bc0565b91505060608301518482036060860152610d318282610d73565b91505060808301516105116080860182610c5a565b805160a080845260009190840190610d5e8282610cd8565b91505060208301516105116020860182610c88565b8051606080845260009190840190610d8b8282610bc0565b91505060208301518482036020860152610da58282610c0d565b915050604083015161051160408601825b610b6381610e45565b60208101610dcd8284610b5a565b92915050565b6020808252810161094d8184610b69565b6020808252810161094d8184610d46565b60208101610dcd8284610db6565b60408101610e118284610db6565b610dcd60208301610c63565b60200190565b5190565b73ffffffffffffffffffffffffffffffffffffffff1690565b151590565b905600a265627a7a7230582023d63a65195f64078713d46666ab3298d1d8980a9d562d6dbd3781a4ffc198066c6578706572696d656e74616cf50037",
  "source": "pragma solidity ^0.4.24;\npragma experimental ABIEncoderV2;\n\nimport \"./SafeMath.sol\";\nimport \"./LibGlobals.sol\";\n\nimport \"./MatryxSystem.sol\";\nimport \"./MatryxPlatform.sol\";\nimport \"./MatryxTrinity.sol\";\nimport \"./MatryxTournament.sol\";\n\ncontract MatryxRound is MatryxTrinity {\n    constructor (uint256 _version, address _system) MatryxTrinity(_version, _system) public {}\n}\n\ninterface IMatryxRound {\n    function getVersion() external view returns (uint256);\n    function getTournament() external view returns (address);\n    function getStart() external view returns (uint256);\n    function getEnd() external view returns (uint256);\n    function getReview() external view returns (uint256);\n    function getBounty() external view returns (uint256);\n    function getBalance() external view returns (uint256);\n    function getSubmissions(uint256, uint256) external view returns (address[]);\n    function getData() external view returns (LibRound.RoundReturnData);\n\n    function getSubmissionCount() external view returns (uint256);\n    function getWinningSubmissions() external view returns (address[]);\n\n    function getState() external view returns (uint256);\n}\n\nlibrary LibRound {\n    using SafeMath for uint256;\n\n    struct RoundInfo {\n        uint256 version;\n        address tournament;\n        address[] submissions;\n        WinnersData winners;\n        bool closed;\n    }\n\n    // All information needed for creation of Round\n    struct RoundDetails {\n        // bytes32[2] pKHash;\n        uint256 start;\n        uint256 end;\n        uint256 review;\n        uint256 bounty;\n    }\n\n    // All information needed to choose winning submissions\n    struct WinnersData {\n        // bytes32[2] sKHash;\n        address[] submissions;\n        uint256[] distribution;\n        uint256 action;\n    }\n\n    struct RoundData {\n        RoundInfo info;\n        RoundDetails details;\n\n        mapping(address=>bool) isSubmission;\n        address[] judgedSubmissions;\n        mapping(address=>bool) judgedSubmission;\n        mapping(address=>bool) judgedRound;\n    }\n\n    // All state data and details of Round\n    struct RoundReturnData {\n        RoundInfo info;\n        RoundDetails details;\n    }\n\n    /// @dev Returns the version of this Round\n    function getVersion(address self, address, MatryxPlatform.Data storage data) public view returns (uint256) {\n        return data.rounds[self].info.version;\n    }\n\n    /// @dev Returns the Tournament address of this Round\n    function getTournament(address self, address, MatryxPlatform.Data storage data) public view returns (address) {\n        return data.rounds[self].info.tournament;\n    }\n\n    /// @dev Returns the start time of this Round (unix epoch time in seconds)\n    function getStart(address self, address, MatryxPlatform.Data storage data) public view returns (uint256) {\n        return data.rounds[self].details.start;\n    }\n\n    /// @dev Returns the end time of this Round (unix epoch time in seconds)\n    function getEnd(address self, address, MatryxPlatform.Data storage data) public view returns (uint256) {\n        return data.rounds[self].details.end;\n    }\n\n    /// @dev Returns the duration of the review period of this Round\n    function getReview(address self, address, MatryxPlatform.Data storage data) public view returns (uint256) {\n        return data.rounds[self].details.review;\n    }\n\n    /// @dev Returns the bounty of this Round\n    function getBounty(address self, address, MatryxPlatform.Data storage data) public view returns (uint256) {\n        return data.rounds[self].details.bounty;\n    }\n\n    /// @dev Returns the MTX balance of this Round\n    function getBalance(address self, address, MatryxPlatform.Data storage data) public view returns (uint256) {\n        return data.balanceOf[self];\n    }\n\n    /// @dev Returns all Submissions of this Round or a given subset of them\n    /// @param self        Address of this Round\n    /// @param info        Info struct on Platform\n    /// @param data        Data struct on Platform\n    /// @param startIndex  Starting index of subset of Submissions to return\n    /// @param count       Number of Submissions to return from startIndex\n    function getSubmissions(address self, address, MatryxPlatform.Info storage info, MatryxPlatform.Data storage data, uint256 startIndex, uint256 count) public view returns (address[]) {\n        uint256 version = IMatryxSystem(info.system).getVersion();\n        address LibUtils = IMatryxSystem(info.system).getContract(version, \"LibUtils\");\n        address[] storage submissions = data.rounds[self].info.submissions;\n\n        assembly {\n            let offset := 0x100000000000000000000000000000000000000000000000000000000\n            let ptr := mload(0x40)\n\n            mstore(ptr, mul(0xe79eda2c, offset))                                // getSubArray(bytes32[] storage,uint256,uint256)\n            mstore(add(ptr, 0x04), submissions_slot)                            // data.rounds[self].info.submissions\n            mstore(add(ptr, 0x24), startIndex)                                  // arg 0 - startIndex\n            mstore(add(ptr, 0x44), count)                                       // arg 1 - count\n\n            let res := delegatecall(gas, LibUtils, ptr, 0x64, 0, 0)             // call LibUtils.getSubArray\n            if iszero(res) { revert(0, 0) }                                     // safety check\n\n            returndatacopy(ptr, 0, returndatasize)                              // copy result into mem\n            return(ptr, returndatasize)                                         // return result\n        }\n    }\n\n    /// @dev Returns the data struct of this Round\n    function getData(address self, address, MatryxPlatform.Data storage data) public view returns (LibRound.RoundReturnData) {\n        RoundReturnData memory round;\n        round.info = data.rounds[self].info;\n        round.details = data.rounds[self].details;\n        return round;\n    }\n\n    /// @dev Returns the total number of Submissions in this Round\n    function getSubmissionCount(address self, address, MatryxPlatform.Data storage data) public view returns (uint256) {\n        return data.rounds[self].info.submissions.length;\n    }\n\n    /// @dev Returns the addresses of all winning Submissions of this Round\n    function getWinningSubmissions(address self, address, MatryxPlatform.Data storage data) public view returns (address[]) {\n        return data.rounds[self].info.winners.submissions;\n    }\n\n    /// @dev Returns the current state of this Round\n    function getState(address self, address, MatryxPlatform.Data storage data) public returns (uint256) {\n        LibRound.RoundData storage round = data.rounds[self];\n\n        if (now < round.details.start) {\n            return uint256(LibGlobals.RoundState.NotYetOpen);\n        }\n        else if (now < round.details.end) {\n            if (data.balanceOf[self] == 0) {\n                return uint256(LibGlobals.RoundState.Unfunded);\n            }\n            return uint256(LibGlobals.RoundState.Open);\n        }\n        else if (now < round.details.end.add(round.details.review)) {\n            if (round.info.closed) {\n                return uint256(LibGlobals.RoundState.Closed);\n            }\n            else if (round.info.submissions.length == 0) {\n                return uint256(LibGlobals.RoundState.Abandoned);\n            }\n            else if (round.info.winners.submissions.length > 0) {\n                return uint256(LibGlobals.RoundState.HasWinners);\n            }\n            return uint256(LibGlobals.RoundState.InReview);\n        }\n        else if (round.info.winners.submissions.length > 0) {\n            return uint256(LibGlobals.RoundState.Closed);\n        }\n        return uint256(LibGlobals.RoundState.Abandoned);\n    }\n}\n",
  "sourcePath": "/Users/maxhoward/Desktop/Ethereum/MatryxPlatform/contracts/MatryxRound.sol",
  "compiler": {
    "name": "solc",
    "version": "0.4.24+commit.e67f0147.Emscripten.clang"
  },
  "schemaVersion": "2.0.1",
  "updatedAt": "2018-12-07T21:05:41.728Z"
}