{
  "contractName": "LibSubmission",
  "abi": [
    {
      "constant": true,
      "inputs": [
        {
          "name": "self",
          "type": "address"
        },
        {
          "name": "",
          "type": "address"
        },
        {
          "name": "data",
          "type": "MatryxPlatform.Data storage"
        }
      ],
      "name": "getVersion",
      "outputs": [
        {
          "name": "",
          "type": "uint256"
        }
      ],
      "payable": false,
      "stateMutability": "view",
      "type": "function"
    },
    {
      "constant": true,
      "inputs": [
        {
          "name": "self",
          "type": "address"
        },
        {
          "name": "",
          "type": "address"
        },
        {
          "name": "data",
          "type": "MatryxPlatform.Data storage"
        }
      ],
      "name": "getTournament",
      "outputs": [
        {
          "name": "",
          "type": "address"
        }
      ],
      "payable": false,
      "stateMutability": "view",
      "type": "function"
    },
    {
      "constant": true,
      "inputs": [
        {
          "name": "self",
          "type": "address"
        },
        {
          "name": "",
          "type": "address"
        },
        {
          "name": "data",
          "type": "MatryxPlatform.Data storage"
        }
      ],
      "name": "getRound",
      "outputs": [
        {
          "name": "",
          "type": "address"
        }
      ],
      "payable": false,
      "stateMutability": "view",
      "type": "function"
    },
    {
      "constant": true,
      "inputs": [
        {
          "name": "self",
          "type": "address"
        },
        {
          "name": "",
          "type": "address"
        },
        {
          "name": "data",
          "type": "MatryxPlatform.Data storage"
        }
      ],
      "name": "getOwner",
      "outputs": [
        {
          "name": "",
          "type": "address"
        }
      ],
      "payable": false,
      "stateMutability": "view",
      "type": "function"
    },
    {
      "constant": true,
      "inputs": [
        {
          "name": "self",
          "type": "address"
        },
        {
          "name": "",
          "type": "address"
        },
        {
          "name": "data",
          "type": "MatryxPlatform.Data storage"
        }
      ],
      "name": "getTitle",
      "outputs": [
        {
          "name": "",
          "type": "bytes32[3]"
        }
      ],
      "payable": false,
      "stateMutability": "view",
      "type": "function"
    },
    {
      "constant": true,
      "inputs": [
        {
          "name": "self",
          "type": "address"
        },
        {
          "name": "",
          "type": "address"
        },
        {
          "name": "data",
          "type": "MatryxPlatform.Data storage"
        }
      ],
      "name": "getDescriptionHash",
      "outputs": [
        {
          "name": "",
          "type": "bytes32[2]"
        }
      ],
      "payable": false,
      "stateMutability": "view",
      "type": "function"
    },
    {
      "constant": true,
      "inputs": [
        {
          "name": "self",
          "type": "address"
        },
        {
          "name": "sender",
          "type": "address"
        },
        {
          "name": "data",
          "type": "MatryxPlatform.Data storage"
        }
      ],
      "name": "getFileHash",
      "outputs": [
        {
          "name": "",
          "type": "bytes32[2]"
        }
      ],
      "payable": false,
      "stateMutability": "view",
      "type": "function"
    },
    {
      "constant": true,
      "inputs": [
        {
          "name": "self",
          "type": "address"
        },
        {
          "name": "",
          "type": "address"
        },
        {
          "name": "data",
          "type": "MatryxPlatform.Data storage"
        }
      ],
      "name": "getDistribution",
      "outputs": [
        {
          "name": "",
          "type": "uint256[]"
        }
      ],
      "payable": false,
      "stateMutability": "view",
      "type": "function"
    },
    {
      "constant": true,
      "inputs": [
        {
          "name": "self",
          "type": "address"
        },
        {
          "name": "",
          "type": "address"
        },
        {
          "name": "data",
          "type": "MatryxPlatform.Data storage"
        }
      ],
      "name": "getContributors",
      "outputs": [
        {
          "name": "",
          "type": "address[]"
        }
      ],
      "payable": false,
      "stateMutability": "view",
      "type": "function"
    },
    {
      "constant": true,
      "inputs": [
        {
          "name": "self",
          "type": "address"
        },
        {
          "name": "",
          "type": "address"
        },
        {
          "name": "data",
          "type": "MatryxPlatform.Data storage"
        }
      ],
      "name": "getReferences",
      "outputs": [
        {
          "name": "",
          "type": "address[]"
        }
      ],
      "payable": false,
      "stateMutability": "view",
      "type": "function"
    },
    {
      "constant": true,
      "inputs": [
        {
          "name": "self",
          "type": "address"
        },
        {
          "name": "",
          "type": "address"
        },
        {
          "name": "data",
          "type": "MatryxPlatform.Data storage"
        }
      ],
      "name": "getTimeSubmitted",
      "outputs": [
        {
          "name": "",
          "type": "uint256"
        }
      ],
      "payable": false,
      "stateMutability": "view",
      "type": "function"
    },
    {
      "constant": true,
      "inputs": [
        {
          "name": "self",
          "type": "address"
        },
        {
          "name": "",
          "type": "address"
        },
        {
          "name": "data",
          "type": "MatryxPlatform.Data storage"
        }
      ],
      "name": "getTimeUpdated",
      "outputs": [
        {
          "name": "",
          "type": "uint256"
        }
      ],
      "payable": false,
      "stateMutability": "view",
      "type": "function"
    },
    {
      "constant": true,
      "inputs": [
        {
          "name": "self",
          "type": "address"
        },
        {
          "name": "",
          "type": "address"
        },
        {
          "name": "data",
          "type": "MatryxPlatform.Data storage"
        }
      ],
      "name": "getReward",
      "outputs": [
        {
          "name": "",
          "type": "uint256"
        }
      ],
      "payable": false,
      "stateMutability": "view",
      "type": "function"
    },
    {
      "constant": true,
      "inputs": [
        {
          "name": "self",
          "type": "address"
        },
        {
          "name": "",
          "type": "address"
        },
        {
          "name": "data",
          "type": "MatryxPlatform.Data storage"
        }
      ],
      "name": "getReferencedIn",
      "outputs": [
        {
          "name": "",
          "type": "address[]"
        }
      ],
      "payable": false,
      "stateMutability": "view",
      "type": "function"
    },
    {
      "constant": true,
      "inputs": [
        {
          "name": "self",
          "type": "address"
        },
        {
          "name": "",
          "type": "address"
        },
        {
          "name": "data",
          "type": "MatryxPlatform.Data storage"
        }
      ],
      "name": "getVotes",
      "outputs": [
        {
          "name": "",
          "type": "uint256"
        },
        {
          "name": "",
          "type": "uint256"
        }
      ],
      "payable": false,
      "stateMutability": "view",
      "type": "function"
    },
    {
      "constant": true,
      "inputs": [
        {
          "name": "self",
          "type": "address"
        },
        {
          "name": "",
          "type": "address"
        },
        {
          "name": "data",
          "type": "MatryxPlatform.Data storage"
        }
      ],
      "name": "getViewers",
      "outputs": [
        {
          "name": "",
          "type": "address[]"
        }
      ],
      "payable": false,
      "stateMutability": "view",
      "type": "function"
    },
    {
      "constant": true,
      "inputs": [
        {
          "name": "self",
          "type": "address"
        },
        {
          "name": "",
          "type": "address"
        },
        {
          "name": "data",
          "type": "MatryxPlatform.Data storage"
        }
      ],
      "name": "getBalance",
      "outputs": [
        {
          "name": "",
          "type": "uint256"
        }
      ],
      "payable": false,
      "stateMutability": "view",
      "type": "function"
    },
    {
      "constant": true,
      "inputs": [
        {
          "name": "self",
          "type": "address"
        },
        {
          "name": "",
          "type": "address"
        },
        {
          "name": "data",
          "type": "MatryxPlatform.Data storage"
        }
      ],
      "name": "getTotalWinnings",
      "outputs": [
        {
          "name": "",
          "type": "uint256"
        }
      ],
      "payable": false,
      "stateMutability": "view",
      "type": "function"
    },
    {
      "constant": true,
      "inputs": [
        {
          "name": "self",
          "type": "address"
        },
        {
          "name": "sender",
          "type": "address"
        },
        {
          "name": "data",
          "type": "MatryxPlatform.Data storage"
        }
      ],
      "name": "getData",
      "outputs": [
        {
          "components": [
            {
              "components": [
                {
                  "name": "version",
                  "type": "uint256"
                },
                {
                  "name": "owner",
                  "type": "address"
                },
                {
                  "name": "tournament",
                  "type": "address"
                },
                {
                  "name": "round",
                  "type": "address"
                },
                {
                  "name": "timeSubmitted",
                  "type": "uint256"
                },
                {
                  "name": "timeUpdated",
                  "type": "uint256"
                },
                {
                  "name": "reward",
                  "type": "uint256"
                },
                {
                  "name": "referencedIn",
                  "type": "address[]"
                },
                {
                  "name": "positiveVotes",
                  "type": "uint256"
                },
                {
                  "name": "negativeVotes",
                  "type": "uint256"
                }
              ],
              "name": "info",
              "type": "tuple"
            },
            {
              "components": [
                {
                  "name": "title",
                  "type": "bytes32[3]"
                },
                {
                  "name": "descHash",
                  "type": "bytes32[2]"
                },
                {
                  "name": "fileHash",
                  "type": "bytes32[2]"
                },
                {
                  "name": "distribution",
                  "type": "uint256[]"
                },
                {
                  "name": "contributors",
                  "type": "address[]"
                },
                {
                  "name": "references",
                  "type": "address[]"
                }
              ],
              "name": "details",
              "type": "tuple"
            }
          ],
          "name": "",
          "type": "tuple"
        }
      ],
      "payable": false,
      "stateMutability": "view",
      "type": "function"
    },
    {
      "constant": false,
      "inputs": [
        {
          "name": "self",
          "type": "address"
        },
        {
          "name": "sender",
          "type": "address"
        },
        {
          "name": "info",
          "type": "MatryxPlatform.Info storage"
        },
        {
          "name": "data",
          "type": "MatryxPlatform.Data storage"
        },
        {
          "name": "amount",
          "type": "uint256"
        }
      ],
      "name": "addFunds",
      "outputs": [],
      "payable": false,
      "stateMutability": "nonpayable",
      "type": "function"
    },
    {
      "constant": false,
      "inputs": [
        {
          "name": "self",
          "type": "address"
        },
        {
          "name": "sender",
          "type": "address"
        },
        {
          "name": "data",
          "type": "MatryxPlatform.Data storage"
        }
      ],
      "name": "unlockFile",
      "outputs": [],
      "payable": false,
      "stateMutability": "nonpayable",
      "type": "function"
    },
    {
      "constant": false,
      "inputs": [
        {
          "name": "self",
          "type": "address"
        },
        {
          "name": "sender",
          "type": "address"
        },
        {
          "name": "data",
          "type": "MatryxPlatform.Data storage"
        },
        {
          "components": [
            {
              "name": "title",
              "type": "bytes32[3]"
            },
            {
              "name": "descHash",
              "type": "bytes32[2]"
            },
            {
              "name": "fileHash",
              "type": "bytes32[2]"
            }
          ],
          "name": "updates",
          "type": "tuple"
        }
      ],
      "name": "updateDetails",
      "outputs": [],
      "payable": false,
      "stateMutability": "nonpayable",
      "type": "function"
    },
    {
      "constant": false,
      "inputs": [
        {
          "name": "self",
          "type": "address"
        },
        {
          "name": "sender",
          "type": "address"
        },
        {
          "name": "data",
          "type": "MatryxPlatform.Data storage"
        },
        {
          "name": "contribs",
          "type": "address[]"
        },
        {
          "name": "dist",
          "type": "uint256[]"
        },
        {
          "name": "refs",
          "type": "address[]"
        }
      ],
      "name": "addContributorsAndReferences",
      "outputs": [],
      "payable": false,
      "stateMutability": "nonpayable",
      "type": "function"
    },
    {
      "constant": false,
      "inputs": [
        {
          "name": "self",
          "type": "address"
        },
        {
          "name": "sender",
          "type": "address"
        },
        {
          "name": "info",
          "type": "MatryxPlatform.Info storage"
        },
        {
          "name": "data",
          "type": "MatryxPlatform.Data storage"
        },
        {
          "name": "contribs",
          "type": "address[]"
        },
        {
          "name": "refs",
          "type": "address[]"
        }
      ],
      "name": "removeContributorsAndReferences",
      "outputs": [],
      "payable": false,
      "stateMutability": "nonpayable",
      "type": "function"
    },
    {
      "constant": false,
      "inputs": [
        {
          "name": "self",
          "type": "address"
        },
        {
          "name": "sender",
          "type": "address"
        },
        {
          "name": "data",
          "type": "MatryxPlatform.Data storage"
        },
        {
          "name": "ref",
          "type": "address"
        }
      ],
      "name": "flagMissingReference",
      "outputs": [],
      "payable": false,
      "stateMutability": "nonpayable",
      "type": "function"
    },
    {
      "constant": true,
      "inputs": [
        {
          "name": "self",
          "type": "address"
        },
        {
          "name": "sender",
          "type": "address"
        },
        {
          "name": "data",
          "type": "MatryxPlatform.Data storage"
        }
      ],
      "name": "getAvailableReward",
      "outputs": [
        {
          "name": "",
          "type": "uint256"
        }
      ],
      "payable": false,
      "stateMutability": "view",
      "type": "function"
    },
    {
      "constant": false,
      "inputs": [
        {
          "name": "self",
          "type": "address"
        },
        {
          "name": "sender",
          "type": "address"
        },
        {
          "name": "info",
          "type": "MatryxPlatform.Info storage"
        },
        {
          "name": "data",
          "type": "MatryxPlatform.Data storage"
        }
      ],
      "name": "withdrawReward",
      "outputs": [],
      "payable": false,
      "stateMutability": "nonpayable",
      "type": "function"
    }
  ],
  "bytecode": "0x613f9e610030600b82828239805160001a6073146000811461002057610022565bfe5b5030600052607381538281f30073000000000000000000000000000000000000000030146080604052600436106101755763ffffffff7c010000000000000000000000000000000000000000000000000000000060003504166315bd7b01811461017a57806319820bce146101a357806330c28253146101c357806338236dcf146101e35780633af0c3e4146102055780633eb302a014610225578063412559e1146102385780634fbc639014610258578063504e60411461026b57806353ea28fd1461027e5780635e7b31511461029e57806361f08a3d146102b15780636872d25b146102d15780636e6661aa146102e45780637adb7b471461030457806381f8ff6d146103245780638a1250dd146103445780638f1fc0be146103575780639c02f9dd1461036a578063a1b8f5241461037d578063a35d9e781461039d578063bad474b614610225578063c40c4371146103bd578063eb292bf4146103d0578063ece7bcc7146103e3578063f0d6e0bd146103f6578063f9d683b814610417575b600080fd5b61018d6101883660046131ed565b610437565b60405161019a9190613e89565b60405180910390f35b6101b66101b13660046131ed565b610467565b60405161019a9190613cee565b6101d66101d13660046131ed565b6104ae565b60405161019a9190613d5a565b8180156101ef57600080fd5b506102036101fe36600461323a565b610545565b005b6102186102133660046131ed565b610911565b60405161019a9190613d87565b61018d6102333660046131ed565b610990565b61024b6102463660046131ed565b6109c2565b60405161019a9190613e78565b61018d6102663660046131ed565b610d4e565b61018d6102793660046131ed565b610d80565b81801561028a57600080fd5b50610203610299366004613415565b610ff3565b61018d6102ac3660046131ed565b6115c2565b6102c46102bf3660046131ed565b6115f4565b60405161019a9190613d6b565b6101d66102df3660046131ed565b61165e565b8180156102f057600080fd5b506102036102ff366004613496565b6116f3565b81801561031057600080fd5b5061020361031f36600461336a565b61197a565b81801561033057600080fd5b5061020361033f3660046131ed565b611a51565b61018d6103523660046131ed565b611d45565b6101d66103653660046131ed565b611d74565b6101d66103783660046131ed565b611e09565b81801561038957600080fd5b506102036103983660046133c0565b611e9e565b6103b06103ab3660046131ed565b6122a7565b60405161019a9190613d79565b6101b66103cb3660046131ed565b61230e565b6102c46103de3660046131ed565b612342565b6101b66103f13660046131ed565b612401565b6104096104043660046131ed565b612435565b60405161019a929190613eb1565b81801561042357600080fd5b5061020361043236600461329b565b61246f565b73ffffffffffffffffffffffffffffffffffffffff831660009081526004820160205260409020545b9392505050565b73ffffffffffffffffffffffffffffffffffffffff928316600090815260048201602090815260408083206003908101548716845290930190522060010154909116919050565b73ffffffffffffffffffffffffffffffffffffffff8316600090815260048201602090815260409182902060140180548351818402810184019094528084526060939283018282801561053757602002820191906000526020600020905b815473ffffffffffffffffffffffffffffffffffffffff16815260019091019060200180831161050c575b505050505090509392505050565b73ffffffffffffffffffffffffffffffffffffffff8085166000908152600484016020526040808220600190810154858516845291832001549083169282918782169116146105c9576040517f08c379a00000000000000000000000000000000000000000000000000000000081526004016105c090613d98565b60405180910390fd5b73ffffffffffffffffffffffffffffffffffffffff80851660009081526004870160209081526040808320938716835260159093019052205460ff16151561063d576040517f08c379a00000000000000000000000000000000000000000000000000000000081526004016105c090613dd8565b5060009050805b73ffffffffffffffffffffffffffffffffffffffff871660009081526004860160205260409020601801548110156106f05781806106db575073ffffffffffffffffffffffffffffffffffffffff8716600090815260048601602052604090206018018054829081106106b357fe5b60009182526020909120015473ffffffffffffffffffffffffffffffffffffffff8581169116145b915081156106e8576106f0565b600101610644565b8115610728576040517f08c379a00000000000000000000000000000000000000000000000000000000081526004016105c090613e68565b5060005b73ffffffffffffffffffffffffffffffffffffffff871660009081526004860160205260409020601301548110156107d85781806107c3575073ffffffffffffffffffffffffffffffffffffffff87166000908152600486016020526040902060130180548290811061079b57fe5b60009182526020909120015473ffffffffffffffffffffffffffffffffffffffff8581169116145b915081156107d0576107d8565b60010161072c565b8115610810576040517f08c379a00000000000000000000000000000000000000000000000000000000081526004016105c090613e38565b73ffffffffffffffffffffffffffffffffffffffff87811660008181526004880160209081526040822060188101805460018082018355918552928420909201805473ffffffffffffffffffffffffffffffffffffffff1916958a1695909517909455919052600990910154610885916128d2565b73ffffffffffffffffffffffffffffffffffffffff808916600090815260048801602090815260408083206009019490945591861681526005880190915220600301546108d990600163ffffffff6128d216565b73ffffffffffffffffffffffffffffffffffffffff909316600090815260059095016020525050604090922060030191909155505050565b73ffffffffffffffffffffffffffffffffffffffff8316600090815260048201602090815260409182902060110180548351818402810184019094528084526060939283018282801561053757602002820191906000526020600020905b81548152602001906001019080831161096f57505050505090509392505050565b73ffffffffffffffffffffffffffffffffffffffff831660009081526004820160205260409020600601549392505050565b6109ca612dba565b6109d2612dba565b73ffffffffffffffffffffffffffffffffffffffff808616600090815260048086016020908152604092839020835161014081018552815481526001820154861681840152600282015486168186015260038201549095166060860152918201546080850152600582015460a0850152600682015460c0850152600782018054845181840281018401909552808552929360e08601939092830182828015610ab057602002820191906000526020600020905b815473ffffffffffffffffffffffffffffffffffffffff168152600190910190602001808311610a85575b5050509183525050600882015460208083019190915260099092015460409182015291835273ffffffffffffffffffffffffffffffffffffffff871660009081526004860190915281902081516101208101909252600a018160c081018260038282826020028201915b81548152600190910190602001808311610b1a575050509183525050604080518082019182905260209092019190600384019060029082845b81548152600190910190602001808311610b53575050509183525050604080518082019182905260209092019190600584019060029082845b81548152600190910190602001808311610b8c575050505050815260200160078201805480602002602001604051908101604052809291908181526020018280548015610bf857602002820191906000526020600020905b815481526020019060010190808311610be4575b5050505050815260200160088201805480602002602001604051908101604052809291908181526020018280548015610c6757602002820191906000526020600020905b815473ffffffffffffffffffffffffffffffffffffffff168152600190910190602001808311610c3c575b5050505050815260200160098201805480602002602001604051908101604052809291908181526020018280548015610cd657602002820191906000526020600020905b815473ffffffffffffffffffffffffffffffffffffffff168152600190910190602001808311610cab575b5050509190925250505060208083019190915273ffffffffffffffffffffffffffffffffffffffff808716600090815260048601835260408082209288168252601590920190925290205460ff161515610d46576020818101805160409081015160009081905291510151909101525b949350505050565b73ffffffffffffffffffffffffffffffffffffffff831660009081526004820160205260409020600501549392505050565b73ffffffffffffffffffffffffffffffffffffffff8316600090815260048201602090815260408083206001850190925282205460178201548390819081908190819081908190610dd890899063ffffffff6128e116565b73ffffffffffffffffffffffffffffffffffffffff8d16600090815260168b016020526040812054919850909650871115610fdf5760118901805490955085906000908110610e2357fe5b9060005260206000200154935060009250600191505b8454821015610ef157610e6d8583815481101515610e5357fe5b9060005260206000200154856128d290919063ffffffff16565b60128a01805491955073ffffffffffffffffffffffffffffffffffffffff8e16917fffffffffffffffffffffffffffffffffffffffffffffffffffffffffffffffff8501908110610eba57fe5b60009182526020909120015473ffffffffffffffffffffffffffffffffffffffff161415610ee6578192505b600190910190610e39565b82158015610f1c5750600189015473ffffffffffffffffffffffffffffffffffffffff8d8116911614155b15610f2957859950610fe3565b601389015460001015610f7b57610f66678ac7230489e80000610f5a89670de0b6b3a764000063ffffffff6128f816565b9063ffffffff61291c16565b9050610f78878263ffffffff6128e116565b96505b610fdc610fcf670de0b6b3a7640000610f5a87610f5a8a89815481101515610f9f57fe5b600091825260209091200154610fc38e670de0b6b3a764000063ffffffff6128f816565b9063ffffffff6128f816565b879063ffffffff6128d216565b95505b8599505b5050505050505050509392505050565b60008060008060008060008061100a8e8e8d612933565b8b54604080517f0d8e6e2c000000000000000000000000000000000000000000000000000000008152905173ffffffffffffffffffffffffffffffffffffffff90921691630d8e6e2c916004808201926020929091908290030181600087803b15801561107657600080fd5b505af115801561108a573d6000803e3d6000fd5b505050506040513d601f19601f820116820180604052506110ae9190810190613529565b8c546040517fc53cfd9a00000000000000000000000000000000000000000000000000000000815291995073ffffffffffffffffffffffffffffffffffffffff169063c53cfd9a90611104908b90600401613e97565b602060405180830381600087803b15801561111e57600080fd5b505af1158015611132573d6000803e3d6000fd5b505050506040513d601f19601f8201168201806040525061115691908101906131cf565b73ffffffffffffffffffffffffffffffffffffffff8f16600090815260048d0160205260408120919850600a909101965094505b89518510156113b857600093505b600886015484101561129757600886018054859081106111b457fe5b6000918252602090912001548a5173ffffffffffffffffffffffffffffffffffffffff909116908b90879081106111e757fe5b9060200190602002015173ffffffffffffffffffffffffffffffffffffffff16141561128c577c010000000000000000000000000000000000000000000000000000000060405181634a71ede80281526008880160048201528560248201526000806044838c5af480151561125b57600080fd5b6007890160048301526001870160248301526000806044848d5af4905080151561128457600080fd5b505050611297565b600190930192611198565b8a60050160008b878151811015156112ab57fe5b9060200190602002015173ffffffffffffffffffffffffffffffffffffffff1673ffffffffffffffffffffffffffffffffffffffff1681526020019081526020016000206009019250600091505b82548210156113ad578d73ffffffffffffffffffffffffffffffffffffffff16838381548110151561132757fe5b60009182526020909120015473ffffffffffffffffffffffffffffffffffffffff1614156113a2577c010000000000000000000000000000000000000000000000000000000060405181634a71ede80281528460048201528360248201526000806044838c5af480151561139a57600080fd5b5050506113ad565b6001909101906112f9565b60019094019361118a565b600094505b88518510156115b257600093505b60098601548410156114a157600986018054859081106113e757fe5b600091825260209091200154895173ffffffffffffffffffffffffffffffffffffffff909116908a908790811061141a57fe5b9060200190602002015173ffffffffffffffffffffffffffffffffffffffff161415611496577c010000000000000000000000000000000000000000000000000000000060405181634a71ede80281526009880160048201528560248201526000806044838c5af480151561148e57600080fd5b5050506114a1565b6001909301926113cb565b8a60040160008a878151811015156114b557fe5b9060200190602002015173ffffffffffffffffffffffffffffffffffffffff1673ffffffffffffffffffffffffffffffffffffffff1681526020019081526020016000206000016007019050600091505b80548210156115a757808281548110151561151d57fe5b60009182526020909120015473ffffffffffffffffffffffffffffffffffffffff8f81169116141561159c577c010000000000000000000000000000000000000000000000000000000060405181634a71ede80281528260048201528360248201526000806044838c5af480151561159457600080fd5b5050506115a7565b600190910190611506565b6001909401936113bd565b5050505050505050505050505050565b73ffffffffffffffffffffffffffffffffffffffff831660009081526004808301602052604090912001549392505050565b6115fc612de1565b73ffffffffffffffffffffffffffffffffffffffff84166000908152600483016020526040908190208151808301909252600d0160028282826020028201915b8154815260019091019060200180831161163c57505050505090509392505050565b73ffffffffffffffffffffffffffffffffffffffff831660009081526004820160209081526040918290206012018054835181840281018401909452808452606093928301828280156105375760200282019190600052602060002090815473ffffffffffffffffffffffffffffffffffffffff16815260019091019060200180831161050c57505050505090509392505050565b60018301546040517fdd62ed3e000000000000000000000000000000000000000000000000000000008152829173ffffffffffffffffffffffffffffffffffffffff169063dd62ed3e9061174d9088903090600401613cfc565b602060405180830381600087803b15801561176757600080fd5b505af115801561177b573d6000803e3d6000fd5b505050506040513d601f19601f8201168201806040525061179f9190810190613529565b10156117d7576040517f08c379a00000000000000000000000000000000000000000000000000000000081526004016105c090613dc8565b81546117e9908263ffffffff6128d216565b825573ffffffffffffffffffffffffffffffffffffffff85166000908152600183016020526040902054611823908263ffffffff6128d216565b73ffffffffffffffffffffffffffffffffffffffff80871660009081526001850160209081526040808320949094559187168152600585019091522060040154611873908263ffffffff6128d216565b73ffffffffffffffffffffffffffffffffffffffff808616600090815260058501602052604090819020600490810193909355600186015490517f23b872dd0000000000000000000000000000000000000000000000000000000081529116916323b872dd916118e99188913091879101613d17565b602060405180830381600087803b15801561190357600080fd5b505af1158015611917573d6000803e3d6000fd5b505050506040513d601f19601f8201168201806040525061193b919081019061350b565b1515611973576040517f08c379a00000000000000000000000000000000000000000000000000000000081526004016105c090613db8565b5050505050565b6000611987858585612933565b61199185846129a0565b5073ffffffffffffffffffffffffffffffffffffffff841660009081526004830160205260409020815151600a90910190156119d85781516119d69082906003612dfc565b505b602082015151156119fa5760208201516119f89060038301906002612e3c565b505b60408201515115611a1c576040820151611a1a9060058301906002612e3c565b505b505073ffffffffffffffffffffffffffffffffffffffff90921660009081526004909201602052506040902042600590910155565b73ffffffffffffffffffffffffffffffffffffffff821660009081526005820160205260408120548190819060ff161515611ab8576040517f08c379a00000000000000000000000000000000000000000000000000000000081526004016105c090613e18565b73ffffffffffffffffffffffffffffffffffffffff8087166000908152600486016020908152604080832093891683526015840190915290205490935060ff1615611b2f576040517f08c379a00000000000000000000000000000000000000000000000000000000081526004016105c090613e48565b600380840154604080517f1865c57d000000000000000000000000000000000000000000000000000000008152905173ffffffffffffffffffffffffffffffffffffffff90921691631865c57d916004808201926020929091908290030181600087803b158015611b9f57600080fd5b505af1158015611bb3573d6000803e3d6000fd5b505050506040513d601f19601f82011682018060405250611bd79190810190613529565b1015611c8b575060009050805b6012830154811015611c525760128301805473ffffffffffffffffffffffffffffffffffffffff8716919083908110611c1957fe5b60009182526020909120015473ffffffffffffffffffffffffffffffffffffffff161415611c4a5760019150611c52565b600101611be4565b811515611c8b576040517f08c379a00000000000000000000000000000000000000000000000000000000081526004016105c090613e58565b505073ffffffffffffffffffffffffffffffffffffffff9283166000818152601583016020908152604080832080547fffffffffffffffffffffffffffffffffffffffffffffffffffffffffffffff0016600190811790915560149095018054808701825590845282842001805473ffffffffffffffffffffffffffffffffffffffff19908116861790915593835260059095018152938120600a0180549384018155815292909220018054939092169216919091179055565b73ffffffffffffffffffffffffffffffffffffffff831660009081526001820160205260409020549392505050565b73ffffffffffffffffffffffffffffffffffffffff831660009081526004820160209081526040918290206013018054835181840281018401909452808452606093928301828280156105375760200282019190600052602060002090815473ffffffffffffffffffffffffffffffffffffffff16815260019091019060200180831161050c57505050505090509392505050565b73ffffffffffffffffffffffffffffffffffffffff831660009081526004820160209081526040918290206007018054835181840281018401909452808452606093928301828280156105375760200282019190600052602060002090815473ffffffffffffffffffffffffffffffffffffffff16815260019091019060200180831161050c57505050505090509392505050565b73ffffffffffffffffffffffffffffffffffffffff841660009081526004820160205260408120908080611ed3888887612aa2565b73ffffffffffffffffffffffffffffffffffffffff8716600090815260168501602052604081205493508311611f35576040517f08c379a00000000000000000000000000000000000000000000000000000000081526004016105c090613de8565b73ffffffffffffffffffffffffffffffffffffffff87166000908152601685016020908152604080832083905560058089019092529091200154611f7f908463ffffffff6128d216565b73ffffffffffffffffffffffffffffffffffffffff881660009081526005808801602052604090912001556017840154611fbf908463ffffffff6128e116565b60178501558454611fd6908463ffffffff6128e116565b855573ffffffffffffffffffffffffffffffffffffffff88166000908152600186016020526040902054612010908463ffffffff6128e116565b73ffffffffffffffffffffffffffffffffffffffff808a1660009081526001808901602052604091829020939093559188015491517fa9059cbb00000000000000000000000000000000000000000000000000000000815291169063a9059cbb90612081908a908790600401613d3f565b602060405180830381600087803b15801561209b57600080fd5b505af11580156120af573d6000803e3d6000fd5b505050506040513d601f19601f820116820180604052506120d3919081019061350b565b50600184015473ffffffffffffffffffffffffffffffffffffffff8881169116141561229d57600091505b601384015482101561229d576013840180548390811061211a57fe5b600091825260208083209091015473ffffffffffffffffffffffffffffffffffffffff16808352601687019091526040909120549350905082151561215e57612292565b73ffffffffffffffffffffffffffffffffffffffff811660009081526016850160209081526040808320839055600488019091529020600601546121a8908463ffffffff6128d216565b73ffffffffffffffffffffffffffffffffffffffff8216600090815260048701602052604090206006015560178401546121e8908463ffffffff6128e116565b601785015573ffffffffffffffffffffffffffffffffffffffff88166000908152600186016020526040902054612225908463ffffffff6128e116565b73ffffffffffffffffffffffffffffffffffffffff808a1660009081526001880160205260408082209390935590831681522054612269908463ffffffff6128d216565b73ffffffffffffffffffffffffffffffffffffffff821660009081526001870160205260409020555b6001909101906120fe565b5050505050505050565b6122af612e6b565b73ffffffffffffffffffffffffffffffffffffffff8416600090815260048301602090815260409182902082516060810193849052600a82018054825290939092600392600b0190850180831161163c57505050505090509392505050565b73ffffffffffffffffffffffffffffffffffffffff8084166000908152600483016020526040902060010154169392505050565b61234a612de1565b6000612354612de1565b73ffffffffffffffffffffffffffffffffffffffff80871660009081526004860160209081526040808320938916835260159093019052205460ff1691508161239d57806123f7565b73ffffffffffffffffffffffffffffffffffffffff86166000908152600485016020526040908190208151808301909252600f0160028282826020028201915b815481526001909101906020018083116123dd5750505050505b9695505050505050565b73ffffffffffffffffffffffffffffffffffffffff8084166000908152600483016020526040902060030154169392505050565b73ffffffffffffffffffffffffffffffffffffffff8316600090815260048201602052604090206008810154600990910154935093915050565b6000806000806124808a8a8a612933565b85518751146124bb576040517f08c379a00000000000000000000000000000000000000000000000000000000081526004016105c090613da8565b73ffffffffffffffffffffffffffffffffffffffff8a1660009081526004890160205260408120600a01945092508291505b86518210156126ae575060009150815b6008840154811015612583576008840180548290811061251957fe5b600091825260209091200154875173ffffffffffffffffffffffffffffffffffffffff9091169088908490811061254c57fe5b9060200190602002015173ffffffffffffffffffffffffffffffffffffffff16141561257b5760019250612583565b6001016124fd565b8215156126a35783600801878381518110151561259c57fe5b602090810291909101810151825460018101845560009384529190922001805473ffffffffffffffffffffffffffffffffffffffff191673ffffffffffffffffffffffffffffffffffffffff9092169190911790558551600785019087908490811061260457fe5b60209081029091018101518254600181018455600093845291832090910155875160058a01919089908590811061263757fe5b60209081029190910181015173ffffffffffffffffffffffffffffffffffffffff90811683528282019390935260409091016000908120600901805460018101825590825291902001805473ffffffffffffffffffffffffffffffffffffffff1916918c169190911790555b6001909101906124ed565b600091505b84518210156128c65787600401600086848151811015156126d057fe5b602090810290910181015173ffffffffffffffffffffffffffffffffffffffff9081168352908201929092526040016000206001015416151561273f576040517f08c379a00000000000000000000000000000000000000000000000000000000081526004016105c090613e28565b5060009150815b60098401548110156127cc576009840180548290811061276257fe5b600091825260209091200154855173ffffffffffffffffffffffffffffffffffffffff9091169086908490811061279557fe5b9060200190602002015173ffffffffffffffffffffffffffffffffffffffff1614156127c457600192506127cc565b600101612746565b8215156128bb578360090185838151811015156127e557fe5b60209081029190910181015182546001810184556000938452918320909101805473ffffffffffffffffffffffffffffffffffffffff191673ffffffffffffffffffffffffffffffffffffffff909216919091179055855160048a01919087908590811061284f57fe5b60209081029190910181015173ffffffffffffffffffffffffffffffffffffffff90811683528282019390935260409091016000908120600701805460018101825590825291902001805473ffffffffffffffffffffffffffffffffffffffff1916918c169190911790555b6001909101906126b3565b50505050505050505050565b60008282018381101561046057fe5b6000828211156128ed57fe5b508082035b92915050565b6000828202831580612914575082848281151561291157fe5b04145b151561046057fe5b600080828481151561292a57fe5b04949350505050565b73ffffffffffffffffffffffffffffffffffffffff838116600090815260048301602052604090206001015481169083161461299b576040517f08c379a00000000000000000000000000000000000000000000000000000000081526004016105c090613df8565b505050565b73ffffffffffffffffffffffffffffffffffffffff80831660009081526004830160205260409020600301541660028173ffffffffffffffffffffffffffffffffffffffff16631865c57d6040518163ffffffff167c0100000000000000000000000000000000000000000000000000000000028152600401602060405180830381600087803b158015612a3357600080fd5b505af1158015612a47573d6000803e3d6000fd5b505050506040513d601f19601f82011682018060405250612a6b9190810190613529565b1461299b576040517f08c379a00000000000000000000000000000000000000000000000000000000081526004016105c090613e08565b73ffffffffffffffffffffffffffffffffffffffff831660009081526004820160209081526040808320600185019092528220546017820154919290918190819081908190819081908190612afe908a9063ffffffff6128e116565b9750871515612b0c57612dab565b60178a0154612b21908963ffffffff6128d216565b60178b015560118a019650600095508594505b8654851015612b7557612b688786815481101515612b4e57fe5b9060005260206000200154876128d290919063ffffffff16565b9550600190940193612b34565b60138a015460001015612c9457612ba6678ac7230489e80000610f5a8a670de0b6b3a764000063ffffffff6128f816565b9350612bb8888563ffffffff6128e116565b9750600094505b60138a0154851015612c945760138a01805486908110612bdb57fe5b60009182526020909120015460138b015473ffffffffffffffffffffffffffffffffffffffff9091169350612c2690670de0b6b3a764000090610f5a9081888463ffffffff6128f816565b73ffffffffffffffffffffffffffffffffffffffff8416600090815260168c016020526040902054909250612c61908363ffffffff6128d216565b73ffffffffffffffffffffffffffffffffffffffff8416600090815260168c016020526040902055600190940193612bbf565b600094505b8654851015612dab57612cc3670de0b6b3a7640000610f5a88610f5a8b8a815481101515610f9f57fe5b60018b015490925073ffffffffffffffffffffffffffffffffffffffff1690508415612d405760128a0180547fffffffffffffffffffffffffffffffffffffffffffffffffffffffffffffffff8701908110612d1b57fe5b60009182526020909120015473ffffffffffffffffffffffffffffffffffffffff1690505b73ffffffffffffffffffffffffffffffffffffffff8116600090815260168b016020526040902054612d78908363ffffffff6128d216565b73ffffffffffffffffffffffffffffffffffffffff8216600090815260168c016020526040902055600190940193612c99565b50505050505050505050505050565b61028060405190810160405280612dcf612e8a565b8152602001612ddc612f20565b905290565b60408051808201825290600290829080388339509192915050565b8260038101928215612e2c579160200282015b82811115612e2c5782518255602090920191600190910190612e0f565b50612e38929150612f6a565b5090565b8260028101928215612e2c5791602002820182811115612e2c5782518255602090920191600190910190612e0f565b6060604051908101604052806003906020820280388339509192915050565b6101406040519081016040528060008152602001600073ffffffffffffffffffffffffffffffffffffffff168152602001600073ffffffffffffffffffffffffffffffffffffffff168152602001600073ffffffffffffffffffffffffffffffffffffffff1681526020016000815260200160008152602001600081526020016060815260200160008152602001600081525090565b61014060405190810160405280612f35612e6b565b8152602001612f42612de1565b8152602001612f4f612de1565b81526020016060815260200160608152602001606081525090565b612f8491905b80821115612e385760008155600101612f70565b90565b60006104608235613f3b565b60006104608251613f3b565b6000601f82018313612fb057600080fd5b8135612fc3612fbe82613ee6565b613ebf565b91508181835260208401935060208101905083856020840282011115612fe857600080fd5b60005b838110156130145781612ffe8882612f87565b8452506020928301929190910190600101612feb565b5050505092915050565b6000601f8201831361302f57600080fd5b600261303d612fbe82613f07565b9150818385602084028201111561305357600080fd5b60005b838110156130145781613069888261315c565b8452506020928301929190910190600101613056565b6000601f8201831361309057600080fd5b600361309e612fbe82613f07565b915081838560208402820111156130b457600080fd5b60005b8381101561301457816130ca888261315c565b84525060209283019291909101906001016130b7565b6000601f820183136130f157600080fd5b81356130ff612fbe82613ee6565b9150818183526020840193506020810190508385602084028201111561312457600080fd5b60005b83811015613014578161313a888261315c565b8452506020928301929190910190600101613127565b60006104608251613f54565b60006104608235612f84565b600060e0828403121561317a57600080fd5b6131846060613ebf565b90506000613192848461307f565b82525060606131a38484830161301e565b60208301525060a06131b78482850161301e565b60408301525092915050565b60006104608251612f84565b6000602082840312156131e157600080fd5b6000610d468484612f93565b60008060006060848603121561320257600080fd5b600061320e8686612f87565b935050602061321f86828701612f87565b92505060406132308682870161315c565b9150509250925092565b6000806000806080858703121561325057600080fd5b600061325c8787612f87565b945050602061326d87828801612f87565b935050604061327e8782880161315c565b925050606061328f87828801612f87565b91505092959194509250565b60008060008060008060c087890312156132b457600080fd5b60006132c08989612f87565b96505060206132d189828a01612f87565b95505060406132e289828a0161315c565b945050606087013567ffffffffffffffff8111156132ff57600080fd5b61330b89828a01612f9f565b935050608087013567ffffffffffffffff81111561332857600080fd5b61333489828a016130e0565b92505060a087013567ffffffffffffffff81111561335157600080fd5b61335d89828a01612f9f565b9150509295509295509295565b600080600080610140858703121561338157600080fd5b600061338d8787612f87565b945050602061339e87828801612f87565b93505060406133af8782880161315c565b925050606061328f87828801613168565b600080600080608085870312156133d657600080fd5b60006133e28787612f87565b94505060206133f387828801612f87565b93505060406134048782880161315c565b925050606061328f8782880161315c565b60008060008060008060c0878903121561342e57600080fd5b600061343a8989612f87565b965050602061344b89828a01612f87565b955050604061345c89828a0161315c565b945050606061346d89828a0161315c565b935050608087013567ffffffffffffffff81111561348a57600080fd5b61333489828a01612f9f565b600080600080600060a086880312156134ae57600080fd5b60006134ba8888612f87565b95505060206134cb88828901612f87565b94505060406134dc8882890161315c565b93505060606134ed8882890161315c565b92505060806134fe8882890161315c565b9150509295509295909350565b60006020828403121561351d57600080fd5b6000610d468484613150565b60006020828403121561353b57600080fd5b6000610d4684846131c3565b61355081613f3b565b82525050565b600061356182613f2b565b80845260208401935061357383613f25565b60005b828110156135a357613589868351613547565b61359282613f25565b602096909601959150600101613576565b5093949350505050565b60006135b882613f2b565b8084526020840193506135ca83613f25565b60005b828110156135a3576135e0868351613547565b6135e982613f25565b6020969096019591506001016135cd565b61360381613f2f565b61360c82612f84565b60005b828110156119735761362285835161379c565b61362b82613f25565b60209590950194915060010161360f565b61364581613f2f565b61364e82612f84565b60005b828110156119735761366485835161379c565b61366d82613f25565b602095909501949150600101613651565b61368781613f35565b61369082612f84565b60005b82811015611973576136a685835161379c565b6136af82613f25565b602095909501949150600101613693565b6136c981613f35565b6136d282612f84565b60005b82811015611973576136e885835161379c565b6136f182613f25565b6020959095019491506001016136d5565b600061370d82613f2b565b80845260208401935061371f83613f25565b60005b828110156135a35761373586835161379c565b61373e82613f25565b602096909601959150600101613722565b600061375a82613f2b565b80845260208401935061376c83613f25565b60005b828110156135a35761378286835161379c565b61378b82613f25565b60209690960195915060010161376f565b61355081612f84565b61355081613f59565b7f4c69625574696c730000000000000000000000000000000000000000000000009052565b601d81527f43616c6c6572206d757374206f776e20746865207265666572656e6365000000602082015260400190565b602e81527f4d75737420696e636c75646520646973747269627574696f6e20666f7220656160208201527f636820636f6e7472696275746f72000000000000000000000000000000000000604082015260600190565b600f81527f5472616e73666572206661696c65640000000000000000000000000000000000602082015260400190565b601881527f4d75737420617070726f76652066756e64732066697273740000000000000000602082015260400190565b603581527f5375626d697373696f6e206f776e6572206d7573742068617665207365656e2060208201527f746865207265666572656e636527732066696c65730000000000000000000000604082015260600190565b601d81527f416c72656164792077697468647261776e2066756c6c20616d6f756e74000000602082015260400190565b600d81527f4d757374206265206f776e657200000000000000000000000000000000000000602082015260400190565b601281527f4d757374206265206f70656e20526f756e640000000000000000000000000000602082015260400190565b601881527f4d757374206861766520656e7465726564204d61747279780000000000000000602082015260400190565b602881527f5265666572656e6365206d75737420626520616e206578697374696e6720737560208201527f626d697373696f6e000000000000000000000000000000000000000000000000604082015260600190565b602181527f5375626d697373696f6e20697320616c72656164792061207265666572656e6360208201527f6500000000000000000000000000000000000000000000000000000000000000604082015260600190565b601981527f416c7265616479207065726d697474656420746f207669657700000000000000602082015260400190565b602b81527f4d75737420626520636f6e7472696275746f7220746f20756e6c6f636b20626560208201527f666f726520726576696577000000000000000000000000000000000000000000604082015260600190565b603081527f43616e6e6f7420666c616720666f72207468652073616d65206d697373696e6760208201527f207265666572656e636520747769636500000000000000000000000000000000604082015260600190565b8051600090610140840190613b6c85826136c0565b506020830151613b7f606086018261363c565b506040830151613b9260a086018261363c565b50606083015184820360e0860152613baa828261374f565b9150506080830151848203610100860152613bc582826135ad565b91505060a0830151848203610120860152613be082826135ad565b95945050505050565b8051600090610140840190613bfe858261379c565b506020830151613c116020860182613547565b506040830151613c246040860182613547565b506060830151613c376060860182613547565b506080830151613c4a608086018261379c565b5060a0830151613c5d60a086018261379c565b5060c0830151613c7060c086018261379c565b5060e083015184820360e0860152613c8882826135ad565b915050610100830151613c9f61010086018261379c565b50610120830151613cb461012086018261379c565b509392505050565b8051604080845260009190840190613cd48282613be9565b91505060208301518482036020860152613be08282613b57565b602081016128f28284613547565b60408101613d0a8285613547565b61046060208301846137a5565b60608101613d258286613547565b613d3260208301856137a5565b610d46604083018461379c565b60408101613d4d8285613547565b610460602083018461379c565b602080825281016104608184613556565b604081016128f282846135fa565b606081016128f2828461367e565b602080825281016104608184613702565b602080825281016128f2816137d3565b602080825281016128f281613803565b602080825281016128f281613859565b602080825281016128f281613889565b602080825281016128f2816138b9565b602080825281016128f28161390f565b602080825281016128f28161393f565b602080825281016128f28161396f565b602080825281016128f28161399f565b602080825281016128f2816139cf565b602080825281016128f281613a25565b602080825281016128f281613a7b565b602080825281016128f281613aab565b602080825281016128f281613b01565b602080825281016104608184613cbc565b602081016128f2828461379c565b60408101613ea5828461379c565b6128f2602083016137ae565b60408101613d4d828561379c565b60405181810167ffffffffffffffff81118282101715613ede57600080fd5b604052919050565b600067ffffffffffffffff821115613efd57600080fd5b5060209081020190565b600067ffffffffffffffff821115613f1e57600080fd5b5060200290565b60200190565b5190565b50600290565b50600390565b73ffffffffffffffffffffffffffffffffffffffff1690565b151590565b60006128f282613f3b5600a265627a7a7230582048e073779054456292a9414dcb282d2d2db0becc2c34612438080ae95bfcf69a6c6578706572696d656e74616cf50037",
  "source": "pragma solidity ^0.4.24;\npragma experimental ABIEncoderV2;\n\nimport \"./SafeMath.sol\";\nimport \"./LibGlobals.sol\";\nimport \"./IToken.sol\";\n\nimport \"./MatryxSystem.sol\";\nimport \"./MatryxPlatform.sol\";\nimport \"./MatryxTrinity.sol\";\nimport \"./MatryxRound.sol\";\n\ncontract MatryxSubmission is MatryxTrinity {\n    constructor (uint256 _version, address _system) MatryxTrinity(_version, _system) public {}\n}\n\ninterface IMatryxSubmission {\n    function getVersion() external view returns (uint256);\n    function getTournament() external view returns (address);\n    function getRound() external view returns (address);\n\n    function getOwner() external view returns (address);\n    function getTitle() external view returns (bytes32[3]);\n    function getDescriptionHash() external view returns (bytes32[2]);\n    function getFileHash() external view returns (bytes32[2]);\n    function getDistribution() external view returns(uint256[]);\n    function getContributors() external view returns (address[]);\n    function getReferences() external view returns (address[]);\n    function getTimeSubmitted() external view returns (uint256);\n    function getTimeUpdated() external view returns (uint256);\n    function getReward() external view returns (uint256);\n    function getReferencedIn() external view returns (address[]);\n    function getVotes() external view returns (uint256, uint256);\n    function getViewers() external view returns (address[]);\n    function getBalance() external view returns (uint256);\n    function getTotalWinnings() external view returns (uint256);\n    function getData() external view returns (LibSubmission.SubmissionReturnData);\n\n    function addFunds(uint256) external;\n    function unlockFile() external;\n    function updateDetails(LibSubmission.DetailsUpdates) external;\n    function addContributorsAndReferences(address[], uint256[], address[]) external;\n    function removeContributorsAndReferences(address[], address[]) external;\n    function flagMissingReference(address) external;\n\n    function getAvailableReward() external view returns (uint256);\n    function withdrawReward() external;\n}\n\nlibrary LibSubmission {\n    using SafeMath for uint256;\n\n    struct SubmissionInfo {\n        uint256 version;\n        address owner;\n        address tournament;\n        address round;\n        uint256 timeSubmitted;\n        uint256 timeUpdated;\n        uint256 reward;\n        address[] referencedIn;\n        uint256 positiveVotes;\n        uint256 negativeVotes;\n    }\n\n    // All information needed for creation of Submission\n    struct SubmissionDetails {\n        bytes32[3] title;\n        bytes32[2] descHash;\n        bytes32[2] fileHash;\n        uint256[] distribution;\n        address[] contributors;\n        address[] references;\n    }\n\n    // bytes32[2] publicKey;\n    // bytes32    privateKey;\n\n    struct DetailsUpdates {\n        bytes32[3] title;\n        bytes32[2] descHash;\n        bytes32[2] fileHash;\n    }\n\n    // All state data and details of Submission\n    struct SubmissionData {\n        SubmissionInfo info;\n        SubmissionDetails details;\n\n        address[] allPermittedToView;\n        mapping(address=>bool) permittedToView;\n        mapping(address=>uint256) availableReward;\n        uint256 totalAllocated;\n        address[] missingReferences;\n    }\n\n    // everything but the mappings\n    struct SubmissionReturnData {\n        SubmissionInfo info;\n        SubmissionDetails details;\n    }\n\n    function onlyOwner(address self, address sender, MatryxPlatform.Data storage data) internal view {\n        require(data.submissions[self].info.owner == sender, \"Must be owner\");\n    }\n\n    function duringOpenSubmission(address self, MatryxPlatform.Data storage data) internal view {\n        address round = data.submissions[self].info.round;\n        require(IMatryxRound(round).getState() == uint256(LibGlobals.RoundState.Open), \"Must be open Round\");\n    }\n\n    /// @dev Returns the version of this Submission\n    function getVersion(address self, address, MatryxPlatform.Data storage data) external view returns (uint256) {\n        return data.submissions[self].info.version;\n    }\n\n    /// @dev Returns the Tournament address of this Submission\n    function getTournament(address self, address, MatryxPlatform.Data storage data) public view returns (address) {\n        address round = data.submissions[self].info.round;\n        return data.rounds[round].info.tournament;\n    }\n\n    /// @dev Returns the Round address of this Submission\n    function getRound(address self, address, MatryxPlatform.Data storage data) public view returns (address) {\n        return data.submissions[self].info.round;\n    }\n\n    /// @dev Returns the owner of this Submission\n    function getOwner(address self, address, MatryxPlatform.Data storage data) public view returns (address) {\n        return data.submissions[self].info.owner;\n    }\n\n    /// @dev Returns the title of this Submission\n    function getTitle(address self, address, MatryxPlatform.Data storage data) public view returns (bytes32[3]) {\n        return data.submissions[self].details.title;\n    }\n\n    /// @dev Returns the description hash of this Submission\n    function getDescriptionHash(address self, address, MatryxPlatform.Data storage data) public view returns (bytes32[2]) {\n        return data.submissions[self].details.descHash;\n    }\n\n    /// @dev Returns the file hash of this Submission if the sender has file viewing permissions, and an empty array otherwise\n    function getFileHash(address self, address sender, MatryxPlatform.Data storage data) public view returns (bytes32[2]) {\n        bool canView = data.submissions[self].permittedToView[sender];\n        bytes32[2] memory empty;\n\n        return canView ? data.submissions[self].details.fileHash : empty;\n    }\n\n    /// @dev Returns the reward distribution of this Submission\n    function getDistribution(address self, address, MatryxPlatform.Data storage data) external view returns (uint256[]) {\n        return data.submissions[self].details.distribution;\n    }\n\n    /// @dev Returns the contributors of this Submission\n    function getContributors(address self, address, MatryxPlatform.Data storage data) public view returns (address[]) {\n        return data.submissions[self].details.contributors;\n    }\n\n    /// @dev Returns the references of this Submission\n    function getReferences(address self, address, MatryxPlatform.Data storage data) public view returns (address[]) {\n        return data.submissions[self].details.references;\n    }\n\n    /// @dev Returns the time this Submission was submitted\n    function getTimeSubmitted(address self, address, MatryxPlatform.Data storage data) public view returns (uint256) {\n        return data.submissions[self].info.timeSubmitted;\n    }\n\n    /// @dev Returns the time this Submission was last updated\n    function getTimeUpdated(address self, address, MatryxPlatform.Data storage data) public view returns (uint256) {\n        return data.submissions[self].info.timeUpdated;\n    }\n\n    /// @dev Returns this Submission's reward\n    function getReward(address self, address, MatryxPlatform.Data storage data) public view returns (uint256) {\n        return data.submissions[self].info.reward;\n    }\n\n    /// @dev Returns the list of submissions that have added this Submission as a reference\n    function getReferencedIn(address self, address, MatryxPlatform.Data storage data) public view returns (address[]) {\n        return data.submissions[self].info.referencedIn;\n    }\n\n    /// @dev Returns the number of positive and negative votes for this submission\n    function getVotes(address self, address, MatryxPlatform.Data storage data) public view returns (uint256, uint256) {\n        return (data.submissions[self].info.positiveVotes, data.submissions[self].info.negativeVotes);\n    }\n\n    /// @dev Returns the list of addresses that are permitted to view the files for this submission\n    function getViewers(address self, address, MatryxPlatform.Data storage data) public view returns (address[]) {\n        return data.submissions[self].allPermittedToView;\n    }\n\n    /// @dev Returns the MTX balance of this Submission\n    function getBalance(address self, address, MatryxPlatform.Data storage data) public view returns (uint256) {\n        return data.balanceOf[self];\n    }\n\n    /// @dev Returns the total winnings of this Submission\n    function getTotalWinnings(address self, address, MatryxPlatform.Data storage data) public view returns (uint256) {\n        return data.submissions[self].info.reward;\n    }\n\n    // /// @dev Returns the data struct of this Submission\n    // function getDetails(address self, address, MatryxPlatform.Data storage data) public view returns (LibSubmission.SubmissionDetails) {\n    //     return data.submissions[self].details;\n    // }\n\n    /// @dev Returns all information of this Submission\n    function getData(address self, address sender, MatryxPlatform.Data storage data) public view returns (LibSubmission.SubmissionReturnData) {\n        SubmissionReturnData memory sub;\n        sub.info = data.submissions[self].info;\n        sub.details = data.submissions[self].details;\n\n        if (!data.submissions[self].permittedToView[sender]) {\n            sub.details.fileHash[0] = 0x0;\n            sub.details.fileHash[1] = 0x0;\n        }\n\n        return sub;\n    }\n\n    /// @dev Adds funds to the Submission\n    /// @param self      Address of this Submission\n    /// @param sender    msg.sender to the Submission\n    /// @param info      Info struct on Platform\n    /// @param data      Data struct on Platform\n    /// @param amount    Amount of MTX to add\n    function addFunds(address self, address sender, MatryxPlatform.Info storage info, MatryxPlatform.Data storage data, uint256 amount) public {\n        require(IToken(info.token).allowance(sender, this) >= amount, \"Must approve funds first\");\n\n        data.totalBalance = data.totalBalance.add(amount);\n        data.balanceOf[self] = data.balanceOf[self].add(amount);\n        data.users[sender].totalSpent = data.users[sender].totalSpent.add(amount);\n        require(IToken(info.token).transferFrom(sender, this, amount), \"Transfer failed\");\n    }\n\n    /// @dev Unlocks the fileHash of this Submission if allowed for this sender\n    /// @param self    Address of this Submission\n    /// @param sender  msg.sender to this Submission\n    /// @param data    Data struct on Platform\n    function unlockFile(address self, address sender, MatryxPlatform.Data storage data) public {\n        require(data.users[sender].exists, \"Must have entered Matryx\");\n        LibSubmission.SubmissionData storage submission = data.submissions[self];\n\n        require(!submission.permittedToView[sender], \"Already permitted to view\");\n\n        if (IMatryxRound(submission.info.round).getState() < uint256(LibGlobals.RoundState.InReview)) {\n            bool isContributor = false;\n            for (uint256 i = 0; i < submission.details.contributors.length; i++) {\n                if (submission.details.contributors[i] == sender) {\n                    isContributor = true;\n                    break;\n                }\n            }\n            require(isContributor, \"Must be contributor to unlock before review\");\n        }\n\n        submission.permittedToView[sender] = true;\n        submission.allPermittedToView.push(sender);\n        data.users[sender].unlockedFiles.push(self);\n    }\n\n    /// @dev Updates the details of this Submission\n    /// @param self     Address of this Submission\n    /// @param sender  msg.sender to this Submission\n    /// @param data     Data struct on Platform\n    /// @param updates  Details updates (title, descHash, fileHash)\n    function updateDetails(address self, address sender, MatryxPlatform.Data storage data, LibSubmission.DetailsUpdates updates) public {\n        onlyOwner(self, sender, data);\n        duringOpenSubmission(self, data);\n\n        LibSubmission.SubmissionDetails storage details = data.submissions[self].details;\n\n        if (updates.title[0] != 0) details.title = updates.title;\n        if (updates.descHash[0] != 0) details.descHash = updates.descHash;\n        if (updates.fileHash[0] != 0) details.fileHash = updates.fileHash;\n\n        data.submissions[self].info.timeUpdated = now;\n    }\n\n    /// @dev Adds contributors and references on this Submission\n    /// @param self          Address of this Submission\n    /// @param sender        msg.sender to this Submission\n    /// @param data          Data struct on Platform\n    /// @param contribs      Array of contributor addresses\n    /// @param dist          Array of contributor distribution values\n    /// @param refs          Array of reference addresses\n    function addContributorsAndReferences(address self, address sender, MatryxPlatform.Data storage data, address[] contribs, uint256[] dist, address[] refs) public {\n        onlyOwner(self, sender, data);\n        require(contribs.length == dist.length, \"Must include distribution for each contributor\");\n\n        LibSubmission.SubmissionDetails storage details = data.submissions[self].details;\n        bool flag = false;\n\n        // Add contributors\n        for (uint256 i = 0; i < contribs.length; i++) {\n\n            flag = false;\n            // Check to avoid duplicates\n            for (uint256 j = 0; j < details.contributors.length; j++) {\n                if (contribs[i] == details.contributors[j]) {\n                    flag = true;\n                    break;\n                }\n            }\n\n            if (!flag) {\n                details.contributors.push(contribs[i]);\n                details.distribution.push(dist[i]);\n                data.users[contribs[i]].contributedTo.push(self);\n            }\n        }\n\n        // Add references\n        for (i = 0; i < refs.length; i++) {\n            require(data.submissions[refs[i]].info.owner != 0x0, \"Reference must be an existing submission\");\n\n            flag = false;\n            // Check to avoid duplicates\n            for (j = 0; j < details.references.length; j++) {\n                if (refs[i] == details.references[j]) {\n                    flag = true;\n                    break;\n                }\n            }\n\n            if (!flag) {\n                details.references.push(refs[i]);\n                data.submissions[refs[i]].info.referencedIn.push(self);\n            }\n        }\n    }\n\n    /// @dev Removes contributors and references on this Submission\n    /// @param self          Address of this Submission\n    /// @param sender        msg.sender to this Submission\n    /// @param info          Info struct on Platform\n    /// @param data          Data struct on Platform\n    /// @param contribs      Contributor addresses to remove\n    /// @param refs          Reference addresses ro remove\n    function removeContributorsAndReferences(address self, address sender, MatryxPlatform.Info storage info, MatryxPlatform.Data storage data, address[] contribs, address[] refs) public {\n        onlyOwner(self, sender, data);\n\n        uint256 version = IMatryxSystem(info.system).getVersion();\n        address LibUtils = IMatryxSystem(info.system).getContract(version, \"LibUtils\");\n        LibSubmission.SubmissionDetails storage details = data.submissions[self].details;\n\n        // Remove contributors and corresponding reward distribution values from submission data\n        for (uint256 i = 0; i < contribs.length; i++) {\n            for (uint256 j = 0; j < details.contributors.length; j++) {\n                if (contribs[i] == details.contributors[j]) {\n                    assembly {\n                        let offset := 0x100000000000000000000000000000000000000000000000000000000\n                        let ptr := mload(0x40)\n\n                        mstore(ptr, mul(0x4a71ede8, offset))                        // removeArrayElement(bytes32[] storage,uint256)\n                        mstore(add(ptr, 0x04), add(details_slot, 8))                // arg 0 - details.contributors\n                        mstore(add(ptr, 0x24), j)                                   // arg 1 - index\n\n                        let res := delegatecall(gas, LibUtils, ptr, 0x44, 0, 0)     // call LibUtils.removeArrayElement\n                        if iszero(res) { revert(0, 0) }                             // safety check\n\n                        mstore(add(ptr, 0x04), add(details_slot, 7))                // arg 0 - details.distribution\n                        mstore(add(ptr, 0x24), add(j, 1))                           // arg 1 - index\n\n                        res := delegatecall(gas, LibUtils, ptr, 0x44, 0, 0)         // call LibUtils.removeArrayElement\n                        if iszero(res) { revert(0, 0) }                             // safety check\n                    }\n                    break;\n                }\n            }\n\n            // Remove submission from user contributedTo data\n            address[] storage contributedTo = data.users[contribs[i]].contributedTo;\n            for (uint256 k = 0; k < contributedTo.length; k++) {\n                if (contributedTo[k] == self) {\n                    assembly {\n                        let offset := 0x100000000000000000000000000000000000000000000000000000000\n                        let ptr := mload(0x40)\n\n                        mstore(ptr, mul(0x4a71ede8, offset))                        // removeArrayElement(bytes32[] storage,uint256)\n                        mstore(add(ptr, 0x04), contributedTo_slot)                  // arg 0 - users.contributedTo\n                        mstore(add(ptr, 0x24), k)                                   // arg 1 - index\n\n                        let res := delegatecall(gas, LibUtils, ptr, 0x44, 0, 0)     // call LibUtils.removeArrayElement\n                        if iszero(res) { revert(0, 0) }                             // safety check\n                    }\n                    break;\n                }\n            }\n        }\n\n        // Remove references from submission data\n        for (i = 0; i < refs.length; i++) {\n            for (j = 0; j < details.references.length; j++) {\n                if (refs[i] == details.references[j]) {\n                    assembly {\n                        let offset := 0x100000000000000000000000000000000000000000000000000000000\n                        let ptr := mload(0x40)\n\n                        mstore(ptr, mul(0x4a71ede8, offset))                        // removeArrayElement(bytes32[] storage,uint256)\n                        mstore(add(ptr, 0x04), add(details_slot, 9))                // arg 0 - details.references\n                        mstore(add(ptr, 0x24), j)                                   // arg 1 - index\n\n                        let res := delegatecall(gas, LibUtils, ptr, 0x44, 0, 0)     // call LibUtils.removeArrayElement\n                        if iszero(res) { revert(0, 0) }                             // safety check\n                    }\n                    break;\n                }\n            }\n\n            address[] storage referencedIn = data.submissions[refs[i]].info.referencedIn;\n            // Remove referencedIn from reference data\n            for (k = 0; k < referencedIn.length; k++) {\n                if (self == referencedIn[k]) {\n                    assembly {\n                        let offset := 0x100000000000000000000000000000000000000000000000000000000\n                        let ptr := mload(0x40)\n\n                        mstore(ptr, mul(0x4a71ede8, offset))                        // removeArrayElement(bytes32[] storage,uint256)\n                        mstore(add(ptr, 0x04), referencedIn_slot)                   // arg 0 - info.referencedIn\n                        mstore(add(ptr, 0x24), k)                                   // arg 1 - index\n\n                        let res := delegatecall(gas, LibUtils, ptr, 0x44, 0, 0)     // call LibUtils.removeArrayElement\n                        if iszero(res) { revert(0, 0) }                             // safety check\n                    }\n                    break;\n                }\n            }\n        }\n    }\n\n    /// @dev Flags this Submission as missing a reference\n    /// @param self    Address of this Submission\n    /// @param sender  msg.sender to this Submission\n    /// @param data    Data struct on Platform\n    /// @param ref     Address of the missing reference\n    function flagMissingReference(address self, address sender, MatryxPlatform.Data storage data, address ref) public {\n        address owner = data.submissions[self].info.owner;\n        require(sender == data.submissions[ref].info.owner, \"Caller must own the reference\");\n        require(data.submissions[ref].permittedToView[owner], \"Submission owner must have seen the reference's files\");\n\n        bool flag = false;\n        // Check all missing references\n        for (uint256 i = 0; i < data.submissions[self].missingReferences.length; i++) {\n            flag = flag || ref == data.submissions[self].missingReferences[i];\n            if (flag) break;\n        }\n        require(!flag, \"Cannot flag for the same missing reference twice\");\n\n        // Check all submissions already referenced\n        for (i = 0; i < data.submissions[self].details.references.length; i++) {\n            flag = flag || ref == data.submissions[self].details.references[i];\n            if (flag) break;\n        }\n        require(!flag, \"Submission is already a reference\");\n\n        // Flag the missing reference\n        data.submissions[self].missingReferences.push(ref);\n\n        // Update submission and user votes\n        data.submissions[self].info.negativeVotes = data.submissions[self].info.negativeVotes.add(1);\n        data.users[owner].negativeVotes = data.users[owner].negativeVotes.add(1);\n    }\n\n    /// @dev Get the reward available to the caller on this Submission\n    /// @param self    Address of this Submission\n    /// @param sender  msg.sender to this Submission\n    /// @param data    Data struct on Platform\n    /// @return        Amount of MTX available to msg.sender\n     function getAvailableReward(address self, address sender, MatryxPlatform.Data storage data) public view returns (uint256) {\n        LibSubmission.SubmissionData storage submission = data.submissions[self];\n\n        uint256 balance = data.balanceOf[self];\n        uint256 remainingReward = balance.sub(submission.totalAllocated);\n        uint256 share = submission.availableReward[sender];\n\n        if (remainingReward > 0) {\n            uint256[] storage distribution = submission.details.distribution;\n            uint256 distTotal = distribution[0];\n            uint256 contributorIndex = 0;\n\n            for (uint256 i = 1; i < distribution.length; i++) {\n                distTotal = distTotal.add(distribution[i]);\n\n                if (submission.details.contributors[i - 1] == sender) {\n                    contributorIndex = i;\n                }\n            }\n\n            if (contributorIndex == 0 && sender != submission.info.owner) {\n                return share;\n            }\n\n            if (submission.details.references.length > 0) {\n                uint256 totalRefShare = remainingReward.mul(10**18).div(10**19); // 10% for references\n                remainingReward = remainingReward.sub(totalRefShare);    // remaining 90% for owner and contribs\n            }\n\n            share = share.add(remainingReward.mul(10**18).mul(distribution[contributorIndex]).div(distTotal).div(10**18));\n        }\n\n        return share;\n    }\n\n    /// @dev Sets the reward allocation for each contributor and reference to this submission when someone withdraws\n    /// @param self    Address of this Submission\n    /// @param sender  msg.sender to this Submission\n    /// @param data    Data struct on Platform\n    function calculateRewardAllocation(address self, address sender, MatryxPlatform.Data storage data) internal {\n        LibSubmission.SubmissionData storage submission = data.submissions[self];\n\n        uint256 balance = data.balanceOf[self];\n        uint256 remainingReward = balance.sub(submission.totalAllocated);\n\n        // if no new reward to allocate, return early\n        if (remainingReward == 0) return;\n        submission.totalAllocated = submission.totalAllocated.add(remainingReward);\n\n        uint256[] storage distribution = submission.details.distribution;\n        uint256 distTotal = 0;\n\n        for (uint256 i = 0; i < distribution.length; i++) {\n            distTotal = distTotal.add(distribution[i]);\n        }\n\n        if (submission.details.references.length > 0) {\n            uint256 totalRefShare = remainingReward.mul(10**18).div(10**19); // 10% for references\n            remainingReward = remainingReward.sub(totalRefShare);    // remaining 90% for owner and contribs\n\n            for (i = 0; i < submission.details.references.length; i++) {\n                address ref = submission.details.references[i];\n\n                uint256 share = totalRefShare.mul(10**18).div(submission.details.references.length).div(10**18);\n                submission.availableReward[ref] = submission.availableReward[ref].add(share);\n            }\n        }\n\n        for (i = 0; i < distribution.length; i++) {\n            share = remainingReward.mul(10**18).mul(distribution[i]).div(distTotal).div(10**18);\n\n            address contrib = submission.info.owner;\n            if (i != 0) contrib = submission.details.contributors[i - 1];\n\n            submission.availableReward[contrib] = submission.availableReward[contrib].add(share);\n        }\n    }\n\n    /// @dev Allows the owner and contributors to this Submission to withdraw from this Submission\n    /// @param self    Address of this Submission\n    /// @param sender  msg.sender to this Submission\n    /// @param info    Info struct on Platform\n    /// @param data    Data struct on Platform\n    function withdrawReward(address self, address sender, MatryxPlatform.Info storage info, MatryxPlatform.Data storage data) public {\n        LibSubmission.SubmissionData storage submission = data.submissions[self];\n        calculateRewardAllocation(self, sender, data);\n\n        uint256 share = submission.availableReward[sender];\n        require(share > 0, \"Already withdrawn full amount\");\n\n        submission.availableReward[sender] = 0;\n        data.users[sender].totalWinnings = data.users[sender].totalWinnings.add(share);\n        submission.totalAllocated = submission.totalAllocated.sub(share);\n\n        data.totalBalance = data.totalBalance.sub(share);\n        data.balanceOf[self] = data.balanceOf[self].sub(share);\n        IToken(info.token).transfer(sender, share);\n\n        // if owner, transfer references their shares\n        if (sender == submission.info.owner) {\n            for (uint256 i = 0; i < submission.details.references.length; i++) {\n                address ref = submission.details.references[i];\n                share = submission.availableReward[ref];\n                if (share == uint256(0)) continue;\n\n                submission.availableReward[ref] = 0;\n                data.submissions[ref].info.reward = data.submissions[ref].info.reward.add(share);\n                submission.totalAllocated = submission.totalAllocated.sub(share);\n\n                data.balanceOf[self] = data.balanceOf[self].sub(share);\n                data.balanceOf[ref] = data.balanceOf[ref].add(share);\n            }\n        }\n    }\n}\n",
  "sourcePath": "/Users/ajm13/Desktop/matryx/MatryxPlatform/contracts/MatryxSubmission.sol",
  "compiler": {
    "name": "solc",
    "version": "0.4.24+commit.e67f0147.Emscripten.clang"
  },
  "schemaVersion": "2.0.1",
  "updatedAt": "2018-12-08T00:27:11.153Z"
}