{
  "contractName": "LibSubmission",
  "abi": [
    {
      "constant": true,
      "inputs": [
        {
          "name": "self",
          "type": "address"
        },
        {
          "name": "",
          "type": "address"
        },
        {
          "name": "data",
          "type": "MatryxPlatform.Data storage"
        }
      ],
      "name": "getVersion",
      "outputs": [
        {
          "name": "",
          "type": "uint256"
        }
      ],
      "payable": false,
      "stateMutability": "view",
      "type": "function"
    },
    {
      "constant": true,
      "inputs": [
        {
          "name": "self",
          "type": "address"
        },
        {
          "name": "",
          "type": "address"
        },
        {
          "name": "data",
          "type": "MatryxPlatform.Data storage"
        }
      ],
      "name": "getTournament",
      "outputs": [
        {
          "name": "",
          "type": "address"
        }
      ],
      "payable": false,
      "stateMutability": "view",
      "type": "function"
    },
    {
      "constant": true,
      "inputs": [
        {
          "name": "self",
          "type": "address"
        },
        {
          "name": "",
          "type": "address"
        },
        {
          "name": "data",
          "type": "MatryxPlatform.Data storage"
        }
      ],
      "name": "getRound",
      "outputs": [
        {
          "name": "",
          "type": "address"
        }
      ],
      "payable": false,
      "stateMutability": "view",
      "type": "function"
    },
    {
      "constant": true,
      "inputs": [
        {
          "name": "self",
          "type": "address"
        },
        {
          "name": "",
          "type": "address"
        },
        {
          "name": "data",
          "type": "MatryxPlatform.Data storage"
        }
      ],
      "name": "getOwner",
      "outputs": [
        {
          "name": "",
          "type": "address"
        }
      ],
      "payable": false,
      "stateMutability": "view",
      "type": "function"
    },
    {
      "constant": true,
      "inputs": [
        {
          "name": "self",
          "type": "address"
        },
        {
          "name": "",
          "type": "address"
        },
        {
          "name": "data",
          "type": "MatryxPlatform.Data storage"
        }
      ],
      "name": "getTitle",
      "outputs": [
        {
          "name": "",
          "type": "bytes32[3]"
        }
      ],
      "payable": false,
      "stateMutability": "view",
      "type": "function"
    },
    {
      "constant": true,
      "inputs": [
        {
          "name": "self",
          "type": "address"
        },
        {
          "name": "",
          "type": "address"
        },
        {
          "name": "data",
          "type": "MatryxPlatform.Data storage"
        }
      ],
      "name": "getDescriptionHash",
      "outputs": [
        {
          "name": "",
          "type": "bytes32[2]"
        }
      ],
      "payable": false,
      "stateMutability": "view",
      "type": "function"
    },
    {
      "constant": true,
      "inputs": [
        {
          "name": "self",
          "type": "address"
        },
        {
          "name": "sender",
          "type": "address"
        },
        {
          "name": "data",
          "type": "MatryxPlatform.Data storage"
        }
      ],
      "name": "getFileHash",
      "outputs": [
        {
          "name": "",
          "type": "bytes32[2]"
        }
      ],
      "payable": false,
      "stateMutability": "view",
      "type": "function"
    },
    {
      "constant": true,
      "inputs": [
        {
          "name": "self",
          "type": "address"
        },
        {
          "name": "",
          "type": "address"
        },
        {
          "name": "data",
          "type": "MatryxPlatform.Data storage"
        }
      ],
      "name": "getDistribution",
      "outputs": [
        {
          "name": "",
          "type": "uint256[]"
        }
      ],
      "payable": false,
      "stateMutability": "view",
      "type": "function"
    },
    {
      "constant": true,
      "inputs": [
        {
          "name": "self",
          "type": "address"
        },
        {
          "name": "",
          "type": "address"
        },
        {
          "name": "data",
          "type": "MatryxPlatform.Data storage"
        }
      ],
      "name": "getContributors",
      "outputs": [
        {
          "name": "",
          "type": "address[]"
        }
      ],
      "payable": false,
      "stateMutability": "view",
      "type": "function"
    },
    {
      "constant": true,
      "inputs": [
        {
          "name": "self",
          "type": "address"
        },
        {
          "name": "",
          "type": "address"
        },
        {
          "name": "data",
          "type": "MatryxPlatform.Data storage"
        }
      ],
      "name": "getReferences",
      "outputs": [
        {
          "name": "",
          "type": "address[]"
        }
      ],
      "payable": false,
      "stateMutability": "view",
      "type": "function"
    },
    {
      "constant": true,
      "inputs": [
        {
          "name": "self",
          "type": "address"
        },
        {
          "name": "",
          "type": "address"
        },
        {
          "name": "data",
          "type": "MatryxPlatform.Data storage"
        }
      ],
      "name": "getTimeSubmitted",
      "outputs": [
        {
          "name": "",
          "type": "uint256"
        }
      ],
      "payable": false,
      "stateMutability": "view",
      "type": "function"
    },
    {
      "constant": true,
      "inputs": [
        {
          "name": "self",
          "type": "address"
        },
        {
          "name": "",
          "type": "address"
        },
        {
          "name": "data",
          "type": "MatryxPlatform.Data storage"
        }
      ],
      "name": "getTimeUpdated",
      "outputs": [
        {
          "name": "",
          "type": "uint256"
        }
      ],
      "payable": false,
      "stateMutability": "view",
      "type": "function"
    },
    {
      "constant": true,
      "inputs": [
        {
          "name": "self",
          "type": "address"
        },
        {
          "name": "",
          "type": "address"
        },
        {
          "name": "data",
          "type": "MatryxPlatform.Data storage"
        }
      ],
      "name": "getReward",
      "outputs": [
        {
          "name": "",
          "type": "uint256"
        }
      ],
      "payable": false,
      "stateMutability": "view",
      "type": "function"
    },
    {
      "constant": true,
      "inputs": [
        {
          "name": "self",
          "type": "address"
        },
        {
          "name": "",
          "type": "address"
        },
        {
          "name": "data",
          "type": "MatryxPlatform.Data storage"
        }
      ],
      "name": "getReferencedIn",
      "outputs": [
        {
          "name": "",
          "type": "address[]"
        }
      ],
      "payable": false,
      "stateMutability": "view",
      "type": "function"
    },
    {
      "constant": true,
      "inputs": [
        {
          "name": "self",
          "type": "address"
        },
        {
          "name": "",
          "type": "address"
        },
        {
          "name": "data",
          "type": "MatryxPlatform.Data storage"
        }
      ],
      "name": "getVotes",
      "outputs": [
        {
          "name": "",
          "type": "uint256"
        },
        {
          "name": "",
          "type": "uint256"
        }
      ],
      "payable": false,
      "stateMutability": "view",
      "type": "function"
    },
    {
      "constant": true,
      "inputs": [
        {
          "name": "self",
          "type": "address"
        },
        {
          "name": "",
          "type": "address"
        },
        {
          "name": "data",
          "type": "MatryxPlatform.Data storage"
        }
      ],
      "name": "getViewers",
      "outputs": [
        {
          "name": "",
          "type": "address[]"
        }
      ],
      "payable": false,
      "stateMutability": "view",
      "type": "function"
    },
    {
      "constant": true,
      "inputs": [
        {
          "name": "self",
          "type": "address"
        },
        {
          "name": "",
          "type": "address"
        },
        {
          "name": "info",
          "type": "MatryxPlatform.Info storage"
        }
      ],
      "name": "getBalance",
      "outputs": [
        {
          "name": "",
          "type": "uint256"
        }
      ],
      "payable": false,
      "stateMutability": "view",
      "type": "function"
    },
    {
      "constant": true,
      "inputs": [
        {
          "name": "self",
          "type": "address"
        },
        {
          "name": "",
          "type": "address"
        },
        {
          "name": "data",
          "type": "MatryxPlatform.Data storage"
        }
      ],
      "name": "getTotalWinnings",
      "outputs": [
        {
          "name": "",
          "type": "uint256"
        }
      ],
      "payable": false,
      "stateMutability": "view",
      "type": "function"
    },
    {
      "constant": true,
      "inputs": [
        {
          "name": "self",
          "type": "address"
        },
        {
          "name": "sender",
          "type": "address"
        },
        {
          "name": "data",
          "type": "MatryxPlatform.Data storage"
        }
      ],
      "name": "getData",
      "outputs": [
        {
          "components": [
            {
              "components": [
                {
                  "name": "version",
                  "type": "uint256"
                },
                {
                  "name": "owner",
                  "type": "address"
                },
                {
                  "name": "tournament",
                  "type": "address"
                },
                {
                  "name": "round",
                  "type": "address"
                },
                {
                  "name": "timeSubmitted",
                  "type": "uint256"
                },
                {
                  "name": "timeUpdated",
                  "type": "uint256"
                },
                {
                  "name": "reward",
                  "type": "uint256"
                },
                {
                  "name": "referencedIn",
                  "type": "address[]"
                },
                {
                  "name": "positiveVotes",
                  "type": "uint256"
                },
                {
                  "name": "negativeVotes",
                  "type": "uint256"
                }
              ],
              "name": "info",
              "type": "tuple"
            },
            {
              "components": [
                {
                  "name": "title",
                  "type": "bytes32[3]"
                },
                {
                  "name": "descHash",
                  "type": "bytes32[2]"
                },
                {
                  "name": "fileHash",
                  "type": "bytes32[2]"
                },
                {
                  "name": "distribution",
                  "type": "uint256[]"
                },
                {
                  "name": "contributors",
                  "type": "address[]"
                },
                {
                  "name": "references",
                  "type": "address[]"
                }
              ],
              "name": "details",
              "type": "tuple"
            }
          ],
          "name": "",
          "type": "tuple"
        }
      ],
      "payable": false,
      "stateMutability": "view",
      "type": "function"
    },
    {
      "constant": false,
      "inputs": [
        {
          "name": "self",
          "type": "address"
        },
        {
          "name": "sender",
          "type": "address"
        },
        {
          "name": "data",
          "type": "MatryxPlatform.Data storage"
        }
      ],
      "name": "unlockFile",
      "outputs": [],
      "payable": false,
      "stateMutability": "nonpayable",
      "type": "function"
    },
    {
      "constant": false,
      "inputs": [
        {
          "name": "self",
          "type": "address"
        },
        {
          "name": "sender",
          "type": "address"
        },
        {
          "name": "data",
          "type": "MatryxPlatform.Data storage"
        },
        {
          "components": [
            {
              "name": "title",
              "type": "bytes32[3]"
            },
            {
              "name": "descHash",
              "type": "bytes32[2]"
            },
            {
              "name": "fileHash",
              "type": "bytes32[2]"
            }
          ],
          "name": "updates",
          "type": "tuple"
        }
      ],
      "name": "updateDetails",
      "outputs": [],
      "payable": false,
      "stateMutability": "nonpayable",
      "type": "function"
    },
    {
      "constant": false,
      "inputs": [
        {
          "name": "self",
          "type": "address"
        },
        {
          "name": "sender",
          "type": "address"
        },
        {
          "name": "info",
          "type": "MatryxPlatform.Info storage"
        },
        {
          "name": "data",
          "type": "MatryxPlatform.Data storage"
        },
        {
          "name": "contribs",
          "type": "address[]"
        },
        {
          "name": "dist",
          "type": "uint256[]"
        },
        {
          "name": "refs",
          "type": "address[]"
        }
      ],
      "name": "addContributorsAndReferences",
      "outputs": [],
      "payable": false,
      "stateMutability": "nonpayable",
      "type": "function"
    },
    {
      "constant": false,
      "inputs": [
        {
          "name": "self",
          "type": "address"
        },
        {
          "name": "sender",
          "type": "address"
        },
        {
          "name": "info",
          "type": "MatryxPlatform.Info storage"
        },
        {
          "name": "data",
          "type": "MatryxPlatform.Data storage"
        },
        {
          "name": "contribs",
          "type": "address[]"
        },
        {
          "name": "refs",
          "type": "address[]"
        }
      ],
      "name": "removeContributorsAndReferences",
      "outputs": [],
      "payable": false,
      "stateMutability": "nonpayable",
      "type": "function"
    },
    {
      "constant": false,
      "inputs": [
        {
          "name": "self",
          "type": "address"
        },
        {
          "name": "sender",
          "type": "address"
        },
        {
          "name": "data",
          "type": "MatryxPlatform.Data storage"
        },
        {
          "name": "ref",
          "type": "address"
        }
      ],
      "name": "flagMissingReference",
      "outputs": [],
      "payable": false,
      "stateMutability": "nonpayable",
      "type": "function"
    },
    {
      "constant": true,
      "inputs": [
        {
          "name": "self",
          "type": "address"
        },
        {
          "name": "sender",
          "type": "address"
        },
        {
          "name": "info",
          "type": "MatryxPlatform.Info storage"
        },
        {
          "name": "data",
          "type": "MatryxPlatform.Data storage"
        }
      ],
      "name": "getAvailableReward",
      "outputs": [
        {
          "name": "",
          "type": "uint256"
        }
      ],
      "payable": false,
      "stateMutability": "view",
      "type": "function"
    },
    {
      "constant": false,
      "inputs": [
        {
          "name": "self",
          "type": "address"
        },
        {
          "name": "sender",
          "type": "address"
        },
        {
          "name": "info",
          "type": "MatryxPlatform.Info storage"
        },
        {
          "name": "data",
          "type": "MatryxPlatform.Data storage"
        }
      ],
      "name": "withdrawReward",
      "outputs": [],
      "payable": false,
      "stateMutability": "nonpayable",
      "type": "function"
    }
  ],
  "bytecode": "0x613b1a610030600b82828239805160001a6073146000811461002057610022565bfe5b5030600052607381538281f300730000000000000000000000000000000000000000301460806040526004361061016a5763ffffffff7c010000000000000000000000000000000000000000000000000000000060003504166315bd7b01811461016f57806319820bce1461019857806330c28253146101b857806338236dcf146101d85780633af0c3e4146101fa5780633eb302a01461021a578063412559e11461022d5780634fbc63901461024d57806353ea28fd146102605780635e7b31511461028057806361f08a3d146102935780636872d25b146102b35780637adb7b47146102c657806381f8ff6d146102e65780638f1fc0be1461030657806395ad27ad146103195780639c02f9dd1461032c578063a1b8f5241461033f578063a35d9e781461035f578063b725ea231461037f578063bad474b61461021a578063c40c43711461039f578063e2f390c2146103b2578063eb292bf4146103c5578063ece7bcc7146103d8578063f0d6e0bd146103eb575b600080fd5b61018261017d366004612e6c565b61040c565b60405161018f9190613a08565b60405180910390f35b6101ab6101a6366004612e6c565b61043c565b60405161018f91906138c3565b6101cb6101c6366004612e6c565b610483565b60405161018f91906138f9565b8180156101e457600080fd5b506101f86101f3366004612eb9565b61051a565b005b61020d610208366004612e6c565b6108e7565b60405161018f9190613926565b610182610228366004612e6c565b610966565b61024061023b366004612e6c565b610998565b60405161018f91906139f7565b61018261025b366004612e6c565b610d25565b81801561026c57600080fd5b506101f861027b366004612fc5565b610d57565b61018261028e366004612e6c565b611282565b6102a66102a1366004612e6c565b6112b4565b60405161018f919061390a565b6101cb6102c1366004612e6c565b61131c565b8180156102d257600080fd5b506101f86102e1366004612f1a565b6113b1565b8180156102f257600080fd5b506101f8610301366004612e6c565b611488565b6101cb610314366004612e6c565b61177c565b610182610327366004612f70565b611811565b6101cb61033a366004612e6c565b611a80565b81801561034b57600080fd5b506101f861035a366004612f70565b611b15565b61037261036d366004612e6c565b611e8c565b60405161018f9190613918565b81801561038b57600080fd5b506101f861039a36600461307c565b611ef3565b6101ab6103ad366004612e6c565b612357565b6101826103c0366004612e6c565b61238b565b6102a66103d3366004612e6c565b612436565b6101ab6103e6366004612e6c565b6124f3565b6103fe6103f9366004612e6c565b612527565b60405161018f929190613a30565b73ffffffffffffffffffffffffffffffffffffffff831660009081526002820160205260409020545b9392505050565b73ffffffffffffffffffffffffffffffffffffffff928316600090815260028201602090815260408083206003015486168352600193840190915290200154909116919050565b73ffffffffffffffffffffffffffffffffffffffff8316600090815260028201602090815260409182902060140180548351818402810184019094528084526060939283018282801561050c57602002820191906000526020600020905b815473ffffffffffffffffffffffffffffffffffffffff1681526001909101906020018083116104e1575b505050505090509392505050565b73ffffffffffffffffffffffffffffffffffffffff80851660009081526002840160205260408082206001908101548585168452918320015490831692829187821691161461059e576040517f08c379a000000000000000000000000000000000000000000000000000000000815260040161059590613937565b60405180910390fd5b73ffffffffffffffffffffffffffffffffffffffff80851660009081526002870160209081526040808320938716835260159093019052205460ff161515610612576040517f08c379a000000000000000000000000000000000000000000000000000000000815260040161059590613957565b5060009050805b73ffffffffffffffffffffffffffffffffffffffff871660009081526002860160205260409020601801548110156106c55781806106b0575073ffffffffffffffffffffffffffffffffffffffff87166000908152600286016020526040902060180180548290811061068857fe5b60009182526020909120015473ffffffffffffffffffffffffffffffffffffffff8581169116145b915081156106bd576106c5565b600101610619565b81156106fd576040517f08c379a0000000000000000000000000000000000000000000000000000000008152600401610595906139e7565b5060005b73ffffffffffffffffffffffffffffffffffffffff871660009081526002860160205260409020601301548110156107ad578180610798575073ffffffffffffffffffffffffffffffffffffffff87166000908152600286016020526040902060130180548290811061077057fe5b60009182526020909120015473ffffffffffffffffffffffffffffffffffffffff8581169116145b915081156107a5576107ad565b600101610701565b81156107e5576040517f08c379a0000000000000000000000000000000000000000000000000000000008152600401610595906139b7565b73ffffffffffffffffffffffffffffffffffffffff87811660008181526002880160209081526040822060188101805460018082018355918552928420909201805473ffffffffffffffffffffffffffffffffffffffff1916958a169590951790945591905260099091015461085a91612561565b73ffffffffffffffffffffffffffffffffffffffff8089166000908152600288016020908152604080832060090194909455918616815260038089019092529190912001546108b090600163ffffffff61256116565b73ffffffffffffffffffffffffffffffffffffffff9093166000908152600395860160205260409020909401919091555050505050565b73ffffffffffffffffffffffffffffffffffffffff8316600090815260028201602090815260409182902060110180548351818402810184019094528084526060939283018282801561050c57602002820191906000526020600020905b81548152602001906001019080831161094557505050505090509392505050565b73ffffffffffffffffffffffffffffffffffffffff831660009081526002820160205260409020600601549392505050565b6109a0612a45565b6109a8612a45565b73ffffffffffffffffffffffffffffffffffffffff808616600090815260028086016020908152604092839020835161014081018552815481526001820154861681840152928101548516838501526003810154909416606083015260048401546080830152600584015460a0830152600684015460c083015260078401805484518184028101840190955280855292949360e08601939092830182828015610a8757602002820191906000526020600020905b815473ffffffffffffffffffffffffffffffffffffffff168152600190910190602001808311610a5c575b5050509183525050600882015460208083019190915260099092015460409182015291835273ffffffffffffffffffffffffffffffffffffffff871660009081526002860190915281902081516101208101909252600a018160c081018260038282826020028201915b81548152600190910190602001808311610af1575050509183525050604080518082019182905260209092019190600384019060029082845b81548152600190910190602001808311610b2a575050509183525050604080518082019182905260209092019190600584019060029082845b81548152600190910190602001808311610b63575050505050815260200160078201805480602002602001604051908101604052809291908181526020018280548015610bcf57602002820191906000526020600020905b815481526020019060010190808311610bbb575b5050505050815260200160088201805480602002602001604051908101604052809291908181526020018280548015610c3e57602002820191906000526020600020905b815473ffffffffffffffffffffffffffffffffffffffff168152600190910190602001808311610c13575b5050505050815260200160098201805480602002602001604051908101604052809291908181526020018280548015610cad57602002820191906000526020600020905b815473ffffffffffffffffffffffffffffffffffffffff168152600190910190602001808311610c82575b5050509190925250505060208083019190915273ffffffffffffffffffffffffffffffffffffffff808716600090815260028601835260408082209288168252601590920190925290205460ff161515610d1d576020818101805160409081015160009081905291510151909101525b949350505050565b73ffffffffffffffffffffffffffffffffffffffff831660009081526002820160205260409020600501549392505050565b6000806000806000806000610d6d8d8d8c612570565b8a5460018c01546040517fc53cfd9a00000000000000000000000000000000000000000000000000000000815273ffffffffffffffffffffffffffffffffffffffff9092169163c53cfd9a91610dc591600401613a16565b602060405180830381600087803b158015610ddf57600080fd5b505af1158015610df3573d6000803e3d6000fd5b505050506040513d601f19601f82011682018060405250610e179190810190612e4e565b73ffffffffffffffffffffffffffffffffffffffff8e16600090815260028c0160205260408120919850600a909101965094505b885185101561107957600093505b6008860154841015610f585760088601805485908110610e7557fe5b600091825260209091200154895173ffffffffffffffffffffffffffffffffffffffff909116908a9087908110610ea857fe5b9060200190602002015173ffffffffffffffffffffffffffffffffffffffff161415610f4d577c010000000000000000000000000000000000000000000000000000000060405181634a71ede80281526008880160048201528560248201526000806044838c5af4801515610f1c57600080fd5b6007890160048301526001870160248301526000806044848d5af49050801515610f4557600080fd5b505050610f58565b600190930192610e59565b8960030160008a87815181101515610f6c57fe5b9060200190602002015173ffffffffffffffffffffffffffffffffffffffff1673ffffffffffffffffffffffffffffffffffffffff1681526020019081526020016000206009019250600091505b825482101561106e578c73ffffffffffffffffffffffffffffffffffffffff168383815481101515610fe857fe5b60009182526020909120015473ffffffffffffffffffffffffffffffffffffffff161415611063577c010000000000000000000000000000000000000000000000000000000060405181634a71ede80281528460048201528360248201526000806044838c5af480151561105b57600080fd5b50505061106e565b600190910190610fba565b600190940193610e4b565b600094505b875185101561127357600093505b600986015484101561116257600986018054859081106110a857fe5b600091825260209091200154885173ffffffffffffffffffffffffffffffffffffffff909116908990879081106110db57fe5b9060200190602002015173ffffffffffffffffffffffffffffffffffffffff161415611157577c010000000000000000000000000000000000000000000000000000000060405181634a71ede80281526009880160048201528560248201526000806044838c5af480151561114f57600080fd5b505050611162565b60019093019261108c565b896002016000898781518110151561117657fe5b9060200190602002015173ffffffffffffffffffffffffffffffffffffffff1673ffffffffffffffffffffffffffffffffffffffff1681526020019081526020016000206000016007019050600091505b80548210156112685780828154811015156111de57fe5b60009182526020909120015473ffffffffffffffffffffffffffffffffffffffff8e81169116141561125d577c010000000000000000000000000000000000000000000000000000000060405181634a71ede80281528260048201528360248201526000806044838c5af480151561125557600080fd5b505050611268565b6001909101906111c7565b60019094019361107e565b50505050505050505050505050565b73ffffffffffffffffffffffffffffffffffffffff831660009081526002820160205260409020600401549392505050565b6112bc612a6c565b73ffffffffffffffffffffffffffffffffffffffff84166000908152600283810160205260409182902082518084019384905292600d909101919082845b815481526001909101906020018083116112fa57505050505090509392505050565b73ffffffffffffffffffffffffffffffffffffffff8316600090815260028201602090815260409182902060120180548351818402810184019094528084526060939283018282801561050c5760200282019190600052602060002090815473ffffffffffffffffffffffffffffffffffffffff1681526001909101906020018083116104e157505050505090509392505050565b60006113be858585612570565b6113c885846125dd565b5073ffffffffffffffffffffffffffffffffffffffff841660009081526002830160205260409020815151600a909101901561140f57815161140d9082906003612a87565b505b6020820151511561143157602082015161142f9060038301906002612ac7565b505b604082015151156114535760408201516114519060058301906002612ac7565b505b505073ffffffffffffffffffffffffffffffffffffffff90921660009081526002909201602052506040902042600590910155565b73ffffffffffffffffffffffffffffffffffffffff821660009081526003820160205260408120548190819060ff1615156114ef576040517f08c379a000000000000000000000000000000000000000000000000000000000815260040161059590613997565b73ffffffffffffffffffffffffffffffffffffffff8087166000908152600286016020908152604080832093891683526015840190915290205490935060ff1615611566576040517f08c379a0000000000000000000000000000000000000000000000000000000008152600401610595906139c7565b600380840154604080517f1865c57d000000000000000000000000000000000000000000000000000000008152905173ffffffffffffffffffffffffffffffffffffffff90921691631865c57d916004808201926020929091908290030181600087803b1580156115d657600080fd5b505af11580156115ea573d6000803e3d6000fd5b505050506040513d601f19601f8201168201806040525061160e9190810190613160565b10156116c2575060009050805b60128301548110156116895760128301805473ffffffffffffffffffffffffffffffffffffffff871691908390811061165057fe5b60009182526020909120015473ffffffffffffffffffffffffffffffffffffffff1614156116815760019150611689565b60010161161b565b8115156116c2576040517f08c379a0000000000000000000000000000000000000000000000000000000008152600401610595906139d7565b505073ffffffffffffffffffffffffffffffffffffffff9283166000818152601583016020908152604080832080547fffffffffffffffffffffffffffffffffffffffffffffffffffffffffffffff0016600190811790915560149095018054808701825590845282842001805473ffffffffffffffffffffffffffffffffffffffff19908116861790915593835260039095018152938120600a0180549384018155815292909220018054939092169216919091179055565b73ffffffffffffffffffffffffffffffffffffffff8316600090815260028201602090815260409182902060130180548351818402810184019094528084526060939283018282801561050c5760200282019190600052602060002090815473ffffffffffffffffffffffffffffffffffffffff1681526001909101906020018083116104e157505050505090509392505050565b73ffffffffffffffffffffffffffffffffffffffff841660009081526002820160205260408120818080808080808061184b8e8e8e61238b565b97506118648960170154896126e290919063ffffffff16565b73ffffffffffffffffffffffffffffffffffffffff8e16600090815260168b016020526040812054919850909650871115611a6b57601189018054909550859060009081106118af57fe5b9060005260206000200154935060009250600191505b845482101561197d576118f985838154811015156118df57fe5b90600052602060002001548561256190919063ffffffff16565b60128a01805491955073ffffffffffffffffffffffffffffffffffffffff8f16917fffffffffffffffffffffffffffffffffffffffffffffffffffffffffffffffff850190811061194657fe5b60009182526020909120015473ffffffffffffffffffffffffffffffffffffffff161415611972578192505b6001909101906118c5565b821580156119a85750600189015473ffffffffffffffffffffffffffffffffffffffff8e8116911614155b156119b557859950611a6f565b601389015460001015611a07576119f2678ac7230489e800006119e689670de0b6b3a764000063ffffffff6126f916565b9063ffffffff61271d16565b9050611a04878263ffffffff6126e216565b96505b611a68611a5b670de0b6b3a76400006119e6876119e68a89815481101515611a2b57fe5b600091825260209091200154611a4f8e670de0b6b3a764000063ffffffff6126f916565b9063ffffffff6126f916565b879063ffffffff61256116565b95505b8599505b505050505050505050949350505050565b73ffffffffffffffffffffffffffffffffffffffff8316600090815260028201602090815260409182902060070180548351818402810184019094528084526060939283018282801561050c5760200282019190600052602060002090815473ffffffffffffffffffffffffffffffffffffffff1681526001909101906020018083116104e157505050505090509392505050565b73ffffffffffffffffffffffffffffffffffffffff841660009081526002820160205260408120908080611b4b88888888612734565b73ffffffffffffffffffffffffffffffffffffffff8716600090815260168501602052604081205493508311611bad576040517f08c379a000000000000000000000000000000000000000000000000000000000815260040161059590613967565b73ffffffffffffffffffffffffffffffffffffffff87166000908152601685016020908152604080832083905560038801909152902060050154611bf7908463ffffffff61256116565b73ffffffffffffffffffffffffffffffffffffffff881660009081526003870160205260409020600501556017840154611c37908463ffffffff6126e216565b601785015560028601546040517fa5f2a15200000000000000000000000000000000000000000000000000000000815273ffffffffffffffffffffffffffffffffffffffff8a81169263a5f2a15292611c9a92909116908b9088906004016138d1565b600060405180830381600087803b158015611cb457600080fd5b505af1158015611cc8573d6000803e3d6000fd5b505050600185015473ffffffffffffffffffffffffffffffffffffffff898116911614159050611e8257600091505b6013840154821015611e825760138401805483908110611d1357fe5b600091825260208083209091015473ffffffffffffffffffffffffffffffffffffffff168083526016870190915260409091205493509050821515611d5757611e77565b73ffffffffffffffffffffffffffffffffffffffff81166000908152601685016020908152604080832083905560028801909152902060060154611da1908463ffffffff61256116565b73ffffffffffffffffffffffffffffffffffffffff821660009081526002870160205260409020600601556017840154611de1908463ffffffff6126e216565b601785015560028601546040517fa5f2a15200000000000000000000000000000000000000000000000000000000815273ffffffffffffffffffffffffffffffffffffffff8a81169263a5f2a15292611e449290911690859088906004016138d1565b600060405180830381600087803b158015611e5e57600080fd5b505af1158015611e72573d6000803e3d6000fd5b505050505b600190910190611cf7565b5050505050505050565b611e94612af6565b73ffffffffffffffffffffffffffffffffffffffff8416600090815260028301602090815260409182902082516060810193849052600a82018054825290939092600392600b019085018083116112fa57505050505090509392505050565b600080600080611f048b8b8a612570565b8551875114611f3f576040517f08c379a000000000000000000000000000000000000000000000000000000000815260040161059590613947565b73ffffffffffffffffffffffffffffffffffffffff8b1660009081526002890160205260408120600a01945092508291505b8651821015612132575060009150815b60088401548110156120075760088401805482908110611f9d57fe5b600091825260209091200154875173ffffffffffffffffffffffffffffffffffffffff90911690889084908110611fd057fe5b9060200190602002015173ffffffffffffffffffffffffffffffffffffffff161415611fff5760019250612007565b600101611f81565b8215156121275783600801878381518110151561202057fe5b602090810291909101810151825460018101845560009384529190922001805473ffffffffffffffffffffffffffffffffffffffff191673ffffffffffffffffffffffffffffffffffffffff9092169190911790558551600785019087908490811061208857fe5b60209081029091018101518254600181018455600093845291832090910155875160038a0191908990859081106120bb57fe5b60209081029190910181015173ffffffffffffffffffffffffffffffffffffffff90811683528282019390935260409091016000908120600901805460018101825590825291902001805473ffffffffffffffffffffffffffffffffffffffff1916918d169190911790555b600190910190611f71565b600091505b845182101561234a57876002016000868481518110151561215457fe5b602090810290910181015173ffffffffffffffffffffffffffffffffffffffff908116835290820192909252604001600020600101541615156121c3576040517f08c379a0000000000000000000000000000000000000000000000000000000008152600401610595906139a7565b5060009150815b600984015481101561225057600984018054829081106121e657fe5b600091825260209091200154855173ffffffffffffffffffffffffffffffffffffffff9091169086908490811061221957fe5b9060200190602002015173ffffffffffffffffffffffffffffffffffffffff1614156122485760019250612250565b6001016121ca565b82151561233f5783600901858381518110151561226957fe5b60209081029190910181015182546001810184556000938452918320909101805473ffffffffffffffffffffffffffffffffffffffff191673ffffffffffffffffffffffffffffffffffffffff909216919091179055855160028a0191908790859081106122d357fe5b60209081029190910181015173ffffffffffffffffffffffffffffffffffffffff90811683528282019390935260409091016000908120600701805460018101825590825291902001805473ffffffffffffffffffffffffffffffffffffffff1916918d169190911790555b600190910190612137565b5050505050505050505050565b73ffffffffffffffffffffffffffffffffffffffff8084166000908152600283016020526040902060010154169392505050565b60028101546040517f70a0823100000000000000000000000000000000000000000000000000000000815260009173ffffffffffffffffffffffffffffffffffffffff16906370a08231906123e49087906004016138c3565b602060405180830381600087803b1580156123fe57600080fd5b505af1158015612412573d6000803e3d6000fd5b505050506040513d601f19601f82011682018060405250610d1d9190810190613160565b61243e612a6c565b6000612448612a6c565b73ffffffffffffffffffffffffffffffffffffffff80871660009081526002860160209081526040808320938916835260159093019052205460ff1691508161249157806124e9565b73ffffffffffffffffffffffffffffffffffffffff86166000908152600285810160205260409182902082518084019384905292600f909101919082845b815481526001909101906020018083116124cf5750505050505b9695505050505050565b73ffffffffffffffffffffffffffffffffffffffff8084166000908152600283016020526040902060030154169392505050565b73ffffffffffffffffffffffffffffffffffffffff8316600090815260028201602052604090206008810154600990910154935093915050565b60008282018381101561043557fe5b73ffffffffffffffffffffffffffffffffffffffff83811660009081526002830160205260409020600101548116908316146125d8576040517f08c379a000000000000000000000000000000000000000000000000000000000815260040161059590613977565b505050565b73ffffffffffffffffffffffffffffffffffffffff80831660009081526002808401602052604090912060030154909116908173ffffffffffffffffffffffffffffffffffffffff16631865c57d6040518163ffffffff167c0100000000000000000000000000000000000000000000000000000000028152600401602060405180830381600087803b15801561267357600080fd5b505af1158015612687573d6000803e3d6000fd5b505050506040513d601f19601f820116820180604052506126ab9190810190613160565b146125d8576040517f08c379a000000000000000000000000000000000000000000000000000000000815260040161059590613987565b6000828211156126ee57fe5b508082035b92915050565b6000828202831580612715575082848281151561271257fe5b04145b151561043557fe5b600080828481151561272b57fe5b04949350505050565b73ffffffffffffffffffffffffffffffffffffffff84166000908152600282016020526040812090808080808080808061276f8e8e8e61238b565b98506127888a601701548a6126e290919063ffffffff16565b975087151561279657612a35565b60178a01546127ab908963ffffffff61256116565b60178b015560118a019650600095508594505b86548510156127ff576127f287868154811015156127d857fe5b90600052602060002001548761256190919063ffffffff16565b95506001909401936127be565b60138a01546000101561291e57612830678ac7230489e800006119e68a670de0b6b3a764000063ffffffff6126f916565b9350612842888563ffffffff6126e216565b9750600094505b60138a015485101561291e5760138a0180548690811061286557fe5b60009182526020909120015460138b015473ffffffffffffffffffffffffffffffffffffffff90911693506128b090670de0b6b3a7640000906119e69081888463ffffffff6126f916565b73ffffffffffffffffffffffffffffffffffffffff8416600090815260168c0160205260409020549092506128eb908363ffffffff61256116565b73ffffffffffffffffffffffffffffffffffffffff8416600090815260168c016020526040902055600190940193612849565b600094505b8654851015612a355761294d670de0b6b3a76400006119e6886119e68b8a815481101515611a2b57fe5b60018b015490925073ffffffffffffffffffffffffffffffffffffffff16905084156129ca5760128a0180547fffffffffffffffffffffffffffffffffffffffffffffffffffffffffffffffff87019081106129a557fe5b60009182526020909120015473ffffffffffffffffffffffffffffffffffffffff1690505b73ffffffffffffffffffffffffffffffffffffffff8116600090815260168b016020526040902054612a02908363ffffffff61256116565b73ffffffffffffffffffffffffffffffffffffffff8216600090815260168c016020526040902055600190940193612923565b5050505050505050505050505050565b61028060405190810160405280612a5a612b15565b8152602001612a67612bab565b905290565b60408051808201825290600290829080388339509192915050565b8260038101928215612ab7579160200282015b82811115612ab75782518255602090920191600190910190612a9a565b50612ac3929150612bf5565b5090565b8260028101928215612ab75791602002820182811115612ab75782518255602090920191600190910190612a9a565b6060604051908101604052806003906020820280388339509192915050565b6101406040519081016040528060008152602001600073ffffffffffffffffffffffffffffffffffffffff168152602001600073ffffffffffffffffffffffffffffffffffffffff168152602001600073ffffffffffffffffffffffffffffffffffffffff1681526020016000815260200160008152602001600081526020016060815260200160008152602001600081525090565b61014060405190810160405280612bc0612af6565b8152602001612bcd612a6c565b8152602001612bda612a6c565b81526020016060815260200160608152602001606081525090565b612c0f91905b80821115612ac35760008155600101612bfb565b90565b60006104358235613ac7565b60006104358251613ac7565b6000601f82018313612c3b57600080fd5b8135612c4e612c4982613a72565b613a4b565b91508181835260208401935060208101905083856020840282011115612c7357600080fd5b60005b83811015612c9f5781612c898882612c12565b8452506020928301929190910190600101612c76565b5050505092915050565b6000601f82018313612cba57600080fd5b6002612cc8612c4982613a93565b91508183856020840282011115612cde57600080fd5b60005b83811015612c9f5781612cf48882612ddb565b8452506020928301929190910190600101612ce1565b6000601f82018313612d1b57600080fd5b6003612d29612c4982613a93565b91508183856020840282011115612d3f57600080fd5b60005b83811015612c9f5781612d558882612ddb565b8452506020928301929190910190600101612d42565b6000601f82018313612d7c57600080fd5b8135612d8a612c4982613a72565b91508181835260208401935060208101905083856020840282011115612daf57600080fd5b60005b83811015612c9f5781612dc58882612ddb565b8452506020928301929190910190600101612db2565b60006104358235612c0f565b600060e08284031215612df957600080fd5b612e036060613a4b565b90506000612e118484612d0a565b8252506060612e2284848301612ca9565b60208301525060a0612e3684828501612ca9565b60408301525092915050565b60006104358251612c0f565b600060208284031215612e6057600080fd5b6000610d1d8484612c1e565b600080600060608486031215612e8157600080fd5b6000612e8d8686612c12565b9350506020612e9e86828701612c12565b9250506040612eaf86828701612ddb565b9150509250925092565b60008060008060808587031215612ecf57600080fd5b6000612edb8787612c12565b9450506020612eec87828801612c12565b9350506040612efd87828801612ddb565b9250506060612f0e87828801612c12565b91505092959194509250565b6000806000806101408587031215612f3157600080fd5b6000612f3d8787612c12565b9450506020612f4e87828801612c12565b9350506040612f5f87828801612ddb565b9250506060612f0e87828801612de7565b60008060008060808587031215612f8657600080fd5b6000612f928787612c12565b9450506020612fa387828801612c12565b9350506040612fb487828801612ddb565b9250506060612f0e87828801612ddb565b60008060008060008060c08789031215612fde57600080fd5b6000612fea8989612c12565b9650506020612ffb89828a01612c12565b955050604061300c89828a01612ddb565b945050606061301d89828a01612ddb565b935050608087013567ffffffffffffffff81111561303a57600080fd5b61304689828a01612c2a565b92505060a087013567ffffffffffffffff81111561306357600080fd5b61306f89828a01612c2a565b9150509295509295509295565b600080600080600080600060e0888a03121561309757600080fd5b60006130a38a8a612c12565b97505060206130b48a828b01612c12565b96505060406130c58a828b01612ddb565b95505060606130d68a828b01612ddb565b945050608088013567ffffffffffffffff8111156130f357600080fd5b6130ff8a828b01612c2a565b93505060a088013567ffffffffffffffff81111561311c57600080fd5b6131288a828b01612d6b565b92505060c088013567ffffffffffffffff81111561314557600080fd5b6131518a828b01612c2a565b91505092959891949750929550565b60006020828403121561317257600080fd5b6000610d1d8484612e42565b61318781613ac7565b82525050565b600061319882613ab7565b8084526020840193506131aa83613ab1565b60005b828110156131da576131c086835161317e565b6131c982613ab1565b6020969096019591506001016131ad565b5093949350505050565b60006131ef82613ab7565b80845260208401935061320183613ab1565b60005b828110156131da5761321786835161317e565b61322082613ab1565b602096909601959150600101613204565b61323a81613abb565b61324382612c0f565b60005b82811015613273576132598583516133da565b61326282613ab1565b602095909501949150600101613246565b5050505050565b61328381613abb565b61328c82612c0f565b60005b82811015613273576132a28583516133da565b6132ab82613ab1565b60209590950194915060010161328f565b6132c581613ac1565b6132ce82612c0f565b60005b82811015613273576132e48583516133da565b6132ed82613ab1565b6020959095019491506001016132d1565b61330781613ac1565b61331082612c0f565b60005b82811015613273576133268583516133da565b61332f82613ab1565b602095909501949150600101613313565b600061334b82613ab7565b80845260208401935061335d83613ab1565b60005b828110156131da576133738683516133da565b61337c82613ab1565b602096909601959150600101613360565b600061339882613ab7565b8084526020840193506133aa83613ab1565b60005b828110156131da576133c08683516133da565b6133c982613ab1565b6020969096019591506001016133ad565b61318781612c0f565b7f4c69625574696c730000000000000000000000000000000000000000000000009052565b601d81527f43616c6c6572206d757374206f776e20746865207265666572656e6365000000602082015260400190565b602e81527f4d75737420696e636c75646520646973747269627574696f6e20666f7220656160208201527f636820636f6e7472696275746f72000000000000000000000000000000000000604082015260600190565b603581527f5375626d697373696f6e206f776e6572206d7573742068617665207365656e2060208201527f746865207265666572656e636527732066696c65730000000000000000000000604082015260600190565b601d81527f416c72656164792077697468647261776e2066756c6c20616d6f756e74000000602082015260400190565b600d81527f4d757374206265206f776e657200000000000000000000000000000000000000602082015260400190565b601281527f4d757374206265206f70656e20526f756e640000000000000000000000000000602082015260400190565b601881527f4d757374206861766520656e7465726564204d61747279780000000000000000602082015260400190565b602881527f5265666572656e6365206d75737420626520616e206578697374696e6720737560208201527f626d697373696f6e000000000000000000000000000000000000000000000000604082015260600190565b602181527f5375626d697373696f6e20697320616c72656164792061207265666572656e6360208201527f6500000000000000000000000000000000000000000000000000000000000000604082015260600190565b601981527f416c7265616479207065726d697474656420746f207669657700000000000000602082015260400190565b602b81527f4d75737420626520636f6e7472696275746f7220746f20756e6c6f636b20626560208201527f666f726520726576696577000000000000000000000000000000000000000000604082015260600190565b603081527f43616e6e6f7420666c616720666f72207468652073616d65206d697373696e6760208201527f207265666572656e636520747769636500000000000000000000000000000000604082015260600190565b805160009061014084019061374185826132fe565b506020830151613754606086018261327a565b50604083015161376760a086018261327a565b50606083015184820360e086015261377f828261338d565b915050608083015184820361010086015261379a82826131e4565b91505060a08301518482036101208601526137b582826131e4565b95945050505050565b80516000906101408401906137d385826133da565b5060208301516137e6602086018261317e565b5060408301516137f9604086018261317e565b50606083015161380c606086018261317e565b50608083015161381f60808601826133da565b5060a083015161383260a08601826133da565b5060c083015161384560c08601826133da565b5060e083015184820360e086015261385d82826131e4565b9150506101008301516138746101008601826133da565b506101208301516138896101208601826133da565b509392505050565b80516040808452600091908401906138a982826137be565b915050602083015184820360208601526137b5828261372c565b602081016126f3828461317e565b606081016138df828661317e565b6138ec602083018561317e565b610d1d60408301846133da565b60208082528101610435818461318d565b604081016126f38284613231565b606081016126f382846132bc565b602080825281016104358184613340565b602080825281016126f381613408565b602080825281016126f381613438565b602080825281016126f38161348e565b602080825281016126f3816134e4565b602080825281016126f381613514565b602080825281016126f381613544565b602080825281016126f381613574565b602080825281016126f3816135a4565b602080825281016126f3816135fa565b602080825281016126f381613650565b602080825281016126f381613680565b602080825281016126f3816136d6565b602080825281016104358184613891565b602081016126f382846133da565b60408101613a2482846133da565b6126f3602083016133e3565b60408101613a3e82856133da565b61043560208301846133da565b60405181810167ffffffffffffffff81118282101715613a6a57600080fd5b604052919050565b600067ffffffffffffffff821115613a8957600080fd5b5060209081020190565b600067ffffffffffffffff821115613aaa57600080fd5b5060200290565b60200190565b5190565b50600290565b50600390565b73ffffffffffffffffffffffffffffffffffffffff16905600a265627a7a72305820e94955353888469300594fd7d4594b17c3a52e18e186889cc8efc586ab3f89186c6578706572696d656e74616cf50037",
  "source": "pragma solidity ^0.4.24;\npragma experimental ABIEncoderV2;\n\nimport \"./SafeMath.sol\";\nimport \"./LibGlobals.sol\";\n\nimport \"./MatryxSystem.sol\";\nimport \"./MatryxPlatform.sol\";\nimport \"./MatryxTrinity.sol\";\nimport \"./MatryxRound.sol\";\n\ncontract MatryxSubmission is MatryxTrinity {\n    constructor (uint256 _version, address _system) MatryxTrinity(_version, _system) public {}\n}\n\ninterface IMatryxSubmission {\n    function transferFrom(address, address, uint256) external;\n    function transferTo(address, address, uint256) external;\n\n    function getVersion() external view returns (uint256);\n    function getTournament() external view returns (address);\n    function getRound() external view returns (address);\n\n    function getOwner() external view returns (address);\n    function getTitle() external view returns (bytes32[3]);\n    function getDescriptionHash() external view returns (bytes32[2]);\n    function getFileHash() external view returns (bytes32[2]);\n    function getDistribution() external view returns(uint256[]);\n    function getContributors() external view returns (address[]);\n    function getReferences() external view returns (address[]);\n    function getTimeSubmitted() external view returns (uint256);\n    function getTimeUpdated() external view returns (uint256);\n    function getReward() external view returns (uint256);\n    function getReferencedIn() external view returns (address[]);\n    function getVotes() external view returns (uint256, uint256);\n    function getViewers() external view returns (address[]);\n    function getBalance() external view returns (uint256);\n    function getTotalWinnings() external view returns (uint256);\n    function getData() external view returns (LibSubmission.SubmissionReturnData);\n\n    function unlockFile() external;\n    function updateDetails(LibSubmission.DetailsUpdates) external;\n    function addContributorsAndReferences(address[], uint256[], address[]) external;\n    function removeContributorsAndReferences(address[], address[]) external;\n    function flagMissingReference(address) external;\n\n    function getAvailableReward() external view returns (uint256);\n    function withdrawReward() external;\n}\n\nlibrary LibSubmission {\n    using SafeMath for uint256;\n\n    struct SubmissionInfo {\n        uint256 version;\n        address owner;\n        address tournament;\n        address round;\n        uint256 timeSubmitted;\n        uint256 timeUpdated;\n        uint256 reward;\n        address[] referencedIn;\n        uint256 positiveVotes;\n        uint256 negativeVotes;\n    }\n\n    // All information needed for creation of Submission\n    struct SubmissionDetails {\n        bytes32[3] title;\n        bytes32[2] descHash;\n        bytes32[2] fileHash;\n        uint256[] distribution;\n        address[] contributors;\n        address[] references;\n    }\n\n    // bytes32[2] publicKey;\n    // bytes32    privateKey;\n\n    struct DetailsUpdates {\n        bytes32[3] title;\n        bytes32[2] descHash;\n        bytes32[2] fileHash;\n    }\n\n    // All state data and details of Submission\n    struct SubmissionData {\n        SubmissionInfo info;\n        SubmissionDetails details;\n\n        address[] allPermittedToView;\n        mapping(address=>bool) permittedToView;\n        mapping(address=>uint256) availableReward;\n        uint256 totalAllocated;\n        address[] missingReferences;\n    }\n\n    // everything but the mappings\n    struct SubmissionReturnData {\n        SubmissionInfo info;\n        SubmissionDetails details;\n    }\n\n    function onlyOwner(address self, address sender, MatryxPlatform.Data storage data) internal view {\n        require(data.submissions[self].info.owner == sender, \"Must be owner\");\n    }\n\n    function duringOpenSubmission(address self, MatryxPlatform.Data storage data) internal view {\n        address round = data.submissions[self].info.round;\n        require(IMatryxRound(round).getState() == uint256(LibGlobals.RoundState.Open), \"Must be open Round\");\n    }\n\n    /// @dev Returns the version of this Submission\n    function getVersion(address self, address, MatryxPlatform.Data storage data) external view returns (uint256) {\n        return data.submissions[self].info.version;\n    }\n\n    /// @dev Returns the Tournament address of this Submission\n    function getTournament(address self, address, MatryxPlatform.Data storage data) public view returns (address) {\n        address round = data.submissions[self].info.round;\n        return data.rounds[round].info.tournament;\n    }\n\n    /// @dev Returns the Round address of this Submission\n    function getRound(address self, address, MatryxPlatform.Data storage data) public view returns (address) {\n        return data.submissions[self].info.round;\n    }\n\n    /// @dev Returns the owner of this Submission\n    function getOwner(address self, address, MatryxPlatform.Data storage data) public view returns (address) {\n        return data.submissions[self].info.owner;\n    }\n\n    /// @dev Returns the title of this Submission\n    function getTitle(address self, address, MatryxPlatform.Data storage data) public view returns (bytes32[3]) {\n        return data.submissions[self].details.title;\n    }\n\n    /// @dev Returns the description hash of this Submission\n    function getDescriptionHash(address self, address, MatryxPlatform.Data storage data) public view returns (bytes32[2]) {\n        return data.submissions[self].details.descHash;\n    }\n\n    /// @dev Returns the file hash of this Submission\n    function getFileHash(address self, address sender, MatryxPlatform.Data storage data) public view returns (bytes32[2]) {\n        bool canView = data.submissions[self].permittedToView[sender];\n        bytes32[2] memory empty;\n\n        return canView ? data.submissions[self].details.fileHash : empty;\n    }\n\n    /// @dev Returns the reward distribution of this Submission\n    function getDistribution(address self, address, MatryxPlatform.Data storage data) external view returns (uint256[]) {\n        return data.submissions[self].details.distribution;\n    }\n\n    /// @dev Returns the contributors of this Submission\n    function getContributors(address self, address, MatryxPlatform.Data storage data) public view returns (address[]) {\n        return data.submissions[self].details.contributors;\n    }\n\n    /// @dev Returns the references of this Submission\n    function getReferences(address self, address, MatryxPlatform.Data storage data) public view returns (address[]) {\n        return data.submissions[self].details.references;\n    }\n\n    /// @dev Returns the time this Submission was submitted\n    function getTimeSubmitted(address self, address, MatryxPlatform.Data storage data) public view returns (uint256) {\n        return data.submissions[self].info.timeSubmitted;\n    }\n\n    /// @dev Returns the time this Submission was last updated\n    function getTimeUpdated(address self, address, MatryxPlatform.Data storage data) public view returns (uint256) {\n        return data.submissions[self].info.timeUpdated;\n    }\n\n    /// @dev Returns this Submission's reward\n    function getReward(address self, address, MatryxPlatform.Data storage data) public view returns (uint256) {\n        return data.submissions[self].info.reward;\n    }\n\n    /// @dev Returns the list of submissions that have added this Submission as a reference\n    function getReferencedIn(address self, address, MatryxPlatform.Data storage data) public view returns (address[]) {\n        return data.submissions[self].info.referencedIn;\n    }\n\n    /// @dev Returns the number of positive and negative votes for this submission\n    function getVotes(address self, address, MatryxPlatform.Data storage data) public view returns (uint256, uint256) {\n        return (data.submissions[self].info.positiveVotes, data.submissions[self].info.negativeVotes);\n    }\n\n    /// @dev Returns the list of addresses that are permitted to view the files for this submission\n    function getViewers(address self, address, MatryxPlatform.Data storage data) public view returns (address[]) {\n        return data.submissions[self].allPermittedToView;\n    }\n\n    /// @dev Returns the MTX balance of this Submission\n    function getBalance(address self, address, MatryxPlatform.Info storage info) public view returns (uint256) {\n        return IMatryxToken(info.token).balanceOf(self);\n    }\n\n    /// @dev Returns the total winnings of this Submission\n    function getTotalWinnings(address self, address, MatryxPlatform.Data storage data) public view returns (uint256) {\n        return data.submissions[self].info.reward;\n    }\n\n    // /// @dev Returns the data struct of this Submission\n    // function getDetails(address self, address, MatryxPlatform.Data storage data) public view returns (LibSubmission.SubmissionDetails) {\n    //     return data.submissions[self].details;\n    // }\n\n    /// @dev Returns all information of this Submission\n    function getData(address self, address sender, MatryxPlatform.Data storage data) public view returns (LibSubmission.SubmissionReturnData) {\n        SubmissionReturnData memory sub;\n        sub.info = data.submissions[self].info;\n        sub.details = data.submissions[self].details;\n\n        if (!data.submissions[self].permittedToView[sender]) {\n            sub.details.fileHash[0] = 0x0;\n            sub.details.fileHash[1] = 0x0;\n        }\n\n        return sub;\n    }\n\n    /// @dev Unlocks the descHash and fileHash for sender\n    /// @param self    Address of this Submission\n    /// @param sender  msg.sender to this Submission\n    /// @param data    Data struct on Platform\n    function unlockFile(address self, address sender, MatryxPlatform.Data storage data) public {\n        require(data.users[sender].exists, \"Must have entered Matryx\");\n        LibSubmission.SubmissionData storage submission = data.submissions[self];\n\n        require(!submission.permittedToView[sender], \"Already permitted to view\");\n\n        if (IMatryxRound(submission.info.round).getState() < uint256(LibGlobals.RoundState.InReview)) {\n            bool isContributor = false;\n            for (uint256 i = 0; i < submission.details.contributors.length; i++) {\n                if (submission.details.contributors[i] == sender) {\n                    isContributor = true;\n                    break;\n                }\n            }\n            require(isContributor, \"Must be contributor to unlock before review\");\n        }\n\n        submission.permittedToView[sender] = true;\n        submission.allPermittedToView.push(sender);\n        data.users[sender].unlockedFiles.push(self);\n    }\n\n    /// @dev Updates the details of this Submission\n    /// @param self     Address of this Submission\n    /// @param sender  msg.sender to this Submission\n    /// @param data     Data struct on Platform\n    /// @param updates  Details updates (title, descHash, fileHash)\n    function updateDetails(address self, address sender, MatryxPlatform.Data storage data, LibSubmission.DetailsUpdates updates) public {\n        onlyOwner(self, sender, data);\n        duringOpenSubmission(self, data);\n\n        LibSubmission.SubmissionDetails storage details = data.submissions[self].details;\n\n        if (updates.title[0] != 0) details.title = updates.title;\n        if (updates.descHash[0] != 0) details.descHash = updates.descHash;\n        if (updates.fileHash[0] != 0) details.fileHash = updates.fileHash;\n\n        data.submissions[self].info.timeUpdated = now;\n    }\n\n    /// @dev Adds contributors and references on this Submission\n    /// @param self          Address of this Submission\n    /// @param sender        msg.sender to this Submission\n    /// @param info          Info struct on Platform\n    /// @param data          Data struct on Platform\n    /// @param contribs      Array of contributor addresses\n    /// @param dist          Array of contributor distribution values\n    /// @param refs          Array of reference addresses\n    function addContributorsAndReferences(address self, address sender, MatryxPlatform.Info storage info, MatryxPlatform.Data storage data, address[] contribs, uint256[] dist, address[] refs) public {\n        onlyOwner(self, sender, data);\n        require(contribs.length == dist.length, \"Must include distribution for each contributor\");\n\n        LibSubmission.SubmissionDetails storage details = data.submissions[self].details;\n        bool flag = false;\n\n        // Add contributors\n        for (uint256 i = 0; i < contribs.length; i++) {\n\n            flag = false;\n            // Check to avoid duplicates\n            for (uint256 j = 0; j < details.contributors.length; j++) {\n                if (contribs[i] == details.contributors[j]) {\n                    flag = true;\n                    break;\n                }\n            }\n\n            if (!flag) {\n                details.contributors.push(contribs[i]);\n                details.distribution.push(dist[i]);\n                data.users[contribs[i]].contributedTo.push(self);\n            }\n        }\n\n        // Add references\n        for (i = 0; i < refs.length; i++) {\n            require(data.submissions[refs[i]].info.owner != 0x0, \"Reference must be an existing submission\");\n\n            flag = false;\n            // Check to avoid duplicates\n            for (j = 0; j < details.references.length; j++) {\n                if (refs[i] == details.references[j]) {\n                    flag = true;\n                    break;\n                }\n            }\n\n            if (!flag) {\n                details.references.push(refs[i]);\n                data.submissions[refs[i]].info.referencedIn.push(self);\n            }\n        }\n    }\n\n    /// @dev Removes contributors and references on this Submission\n    /// @param self          Address of this Submission\n    /// @param sender        msg.sender to this Submission\n    /// @param info          Info struct on Platform\n    /// @param data          Data struct on Platform\n    /// @param contribs      Contributor addresses to remove\n    /// @param refs          Reference addresses ro remove\n    function removeContributorsAndReferences(address self, address sender, MatryxPlatform.Info storage info, MatryxPlatform.Data storage data, address[] contribs, address[] refs) public {\n        onlyOwner(self, sender, data);\n\n        address LibUtils = IMatryxSystem(info.system).getContract(info.version, \"LibUtils\");\n        LibSubmission.SubmissionDetails storage details = data.submissions[self].details;\n\n        // Remove contributors and corresponding reward distribution values from submission data\n        for (uint256 i = 0; i < contribs.length; i++) {\n            for (uint256 j = 0; j < details.contributors.length; j++) {\n                if (contribs[i] == details.contributors[j]) {\n                    assembly {\n                        let offset := 0x100000000000000000000000000000000000000000000000000000000\n                        let ptr := mload(0x40)\n\n                        mstore(ptr, mul(0x4a71ede8, offset))                        // removeArrayElement(bytes32[] storage,uint256)\n                        mstore(add(ptr, 0x04), add(details_slot, 8))                // arg 0 - details.contributors\n                        mstore(add(ptr, 0x24), j)                                   // arg 1 - index\n\n                        let res := delegatecall(gas, LibUtils, ptr, 0x44, 0, 0)     // call LibUtils.removeArrayElement\n                        if iszero(res) { revert(0, 0) }                             // safety check\n\n                        mstore(add(ptr, 0x04), add(details_slot, 7))                // arg 0 - details.distribution\n                        mstore(add(ptr, 0x24), add(j, 1))                           // arg 1 - index\n\n                        res := delegatecall(gas, LibUtils, ptr, 0x44, 0, 0)         // call LibUtils.removeArrayElement\n                        if iszero(res) { revert(0, 0) }                             // safety check\n                    }\n                    break;\n                }\n            }\n\n            // Remove submission from user contributedTo data\n            address[] storage contributedTo = data.users[contribs[i]].contributedTo;\n            for (uint256 k = 0; k < contributedTo.length; k++) {\n                if (contributedTo[k] == self) {\n                    assembly {\n                        let offset := 0x100000000000000000000000000000000000000000000000000000000\n                        let ptr := mload(0x40)\n\n                        mstore(ptr, mul(0x4a71ede8, offset))                        // removeArrayElement(bytes32[] storage,uint256)\n                        mstore(add(ptr, 0x04), contributedTo_slot)                  // arg 0 - users.contributedTo\n                        mstore(add(ptr, 0x24), k)                                   // arg 1 - index\n\n                        let res := delegatecall(gas, LibUtils, ptr, 0x44, 0, 0)     // call LibUtils.removeArrayElement\n                        if iszero(res) { revert(0, 0) }                             // safety check\n                    }\n                    break;\n                }\n            }\n        }\n\n        // Remove references from submission data\n        for (i = 0; i < refs.length; i++) {\n            for (j = 0; j < details.references.length; j++) {\n                if (refs[i] == details.references[j]) {\n                    assembly {\n                        let offset := 0x100000000000000000000000000000000000000000000000000000000\n                        let ptr := mload(0x40)\n\n                        mstore(ptr, mul(0x4a71ede8, offset))                        // removeArrayElement(bytes32[] storage,uint256)\n                        mstore(add(ptr, 0x04), add(details_slot, 9))                // arg 0 - details.references\n                        mstore(add(ptr, 0x24), j)                                   // arg 1 - index\n\n                        let res := delegatecall(gas, LibUtils, ptr, 0x44, 0, 0)     // call LibUtils.removeArrayElement\n                        if iszero(res) { revert(0, 0) }                             // safety check\n                    }\n                    break;\n                }\n            }\n\n            address[] storage referencedIn = data.submissions[refs[i]].info.referencedIn;\n            // Remove referencedIn from reference data\n            for (k = 0; k < referencedIn.length; k++) {\n                if (self == referencedIn[k]) {\n                    assembly {\n                        let offset := 0x100000000000000000000000000000000000000000000000000000000\n                        let ptr := mload(0x40)\n\n                        mstore(ptr, mul(0x4a71ede8, offset))                        // removeArrayElement(bytes32[] storage,uint256)\n                        mstore(add(ptr, 0x04), referencedIn_slot)                   // arg 0 - info.referencedIn\n                        mstore(add(ptr, 0x24), k)                                   // arg 1 - index\n\n                        let res := delegatecall(gas, LibUtils, ptr, 0x44, 0, 0)     // call LibUtils.removeArrayElement\n                        if iszero(res) { revert(0, 0) }                             // safety check\n                    }\n                    break;\n                }\n            }\n        }\n    }\n\n    /// @dev Flags this Submission as missing a reference\n    /// @param self    Address of this Submission\n    /// @param sender  msg.sender to this Submission\n    /// @param data    Data struct on Platform\n    /// @param ref     Address of the missing reference\n    function flagMissingReference(address self, address sender, MatryxPlatform.Data storage data, address ref) public {\n        address owner = data.submissions[self].info.owner;\n        require(sender == data.submissions[ref].info.owner, \"Caller must own the reference\");\n        require(data.submissions[ref].permittedToView[owner], \"Submission owner must have seen the reference's files\");\n\n        bool flag = false;\n        // Check all missing references\n        for (uint256 i = 0; i < data.submissions[self].missingReferences.length; i++) {\n            flag = flag || ref == data.submissions[self].missingReferences[i];\n            if (flag) break;\n        }\n        require(!flag, \"Cannot flag for the same missing reference twice\");\n\n        // Check all submissions already referenced\n        for (i = 0; i < data.submissions[self].details.references.length; i++) {\n            flag = flag || ref == data.submissions[self].details.references[i];\n            if (flag) break;\n        }\n        require(!flag, \"Submission is already a reference\");\n\n        // Flag the missing reference\n        data.submissions[self].missingReferences.push(ref);\n\n        // Update submission and user votes\n        data.submissions[self].info.negativeVotes = data.submissions[self].info.negativeVotes.add(1);\n        data.users[owner].negativeVotes = data.users[owner].negativeVotes.add(1);\n    }\n\n    /// @dev Get the reward available to the caller on this Submission\n    /// @param self    Address of this Submission\n    /// @param sender  msg.sender to this Submission\n    /// @param data    Data struct on Platform\n    /// @return        Amount of MTX available to msg.sender\n     function getAvailableReward(address self, address sender, MatryxPlatform.Info storage info, MatryxPlatform.Data storage data) public view returns (uint256) {\n        LibSubmission.SubmissionData storage submission = data.submissions[self];\n\n        uint256 balance = getBalance(self, sender, info);\n        uint256 remainingReward = balance.sub(submission.totalAllocated);\n        uint256 share = submission.availableReward[sender];\n\n        if (remainingReward > 0) {\n            uint256[] storage distribution = submission.details.distribution;\n            uint256 distTotal = distribution[0];\n            uint256 contributorIndex = 0;\n\n            for (uint256 i = 1; i < distribution.length; i++) {\n                distTotal = distTotal.add(distribution[i]);\n\n                if (submission.details.contributors[i - 1] == sender) {\n                    contributorIndex = i;\n                }\n            }\n\n            if (contributorIndex == 0 && sender != submission.info.owner) {\n                return share;\n            }\n\n            if (submission.details.references.length > 0) {\n                uint256 totalRefShare = remainingReward.mul(10**18).div(10**19); // 10% for references\n                remainingReward = remainingReward.sub(totalRefShare);    // remaining 90% for owner and contribs\n            }\n\n            share = share.add(remainingReward.mul(10**18).mul(distribution[contributorIndex]).div(distTotal).div(10**18));\n        }\n\n        return share;\n    }\n\n    /// @dev Sets the reward allocation for each contributor and reference to this submission when someone withdraws\n    /// @param self    Address of this Submission\n    /// @param sender  msg.sender to this Submission\n    /// @param data    Data struct on Platform\n    function calculateRewardAllocation(address self, address sender, MatryxPlatform.Info storage info, MatryxPlatform.Data storage data) internal {\n        LibSubmission.SubmissionData storage submission = data.submissions[self];\n\n        uint256 balance = getBalance(self, sender, info);\n        uint256 remainingReward = balance.sub(submission.totalAllocated);\n\n        // if no new reward to allocate, return early\n        if (remainingReward == 0) return;\n        submission.totalAllocated = submission.totalAllocated.add(remainingReward);\n\n        uint256[] storage distribution = submission.details.distribution;\n        uint256 distTotal = 0;\n\n        for (uint256 i = 0; i < distribution.length; i++) {\n            distTotal = distTotal.add(distribution[i]);\n        }\n\n        if (submission.details.references.length > 0) {\n            uint256 totalRefShare = remainingReward.mul(10**18).div(10**19); // 10% for references\n            remainingReward = remainingReward.sub(totalRefShare);    // remaining 90% for owner and contribs\n\n            for (i = 0; i < submission.details.references.length; i++) {\n                address ref = submission.details.references[i];\n\n                uint256 share = totalRefShare.mul(10**18).div(submission.details.references.length).div(10**18);\n                submission.availableReward[ref] = submission.availableReward[ref].add(share);\n            }\n        }\n\n        for (i = 0; i < distribution.length; i++) {\n            share = remainingReward.mul(10**18).mul(distribution[i]).div(distTotal).div(10**18);\n\n            address contrib = submission.info.owner;\n            if (i != 0) contrib = submission.details.contributors[i - 1];\n\n            submission.availableReward[contrib] = submission.availableReward[contrib].add(share);\n        }\n    }\n\n    /// @dev Allows the owner and contributors to this Submission to withdraw from this Submission\n    /// @param self    Address of this Submission\n    /// @param sender  msg.sender to this Submission\n    /// @param info    Info struct on Platform\n    /// @param data    Data struct on Platform\n    function withdrawReward(address self, address sender, MatryxPlatform.Info storage info, MatryxPlatform.Data storage data) public {\n        LibSubmission.SubmissionData storage submission = data.submissions[self];\n        calculateRewardAllocation(self, sender, info, data);\n\n        uint256 share = submission.availableReward[sender];\n        require(share > 0, \"Already withdrawn full amount\");\n\n        submission.availableReward[sender] = 0;\n        data.users[sender].totalWinnings = data.users[sender].totalWinnings.add(share);\n        submission.totalAllocated = submission.totalAllocated.sub(share);\n        IMatryxSubmission(self).transferTo(info.token, sender, share);\n\n        // if owner, transfer references their shares\n        if (sender == submission.info.owner) {\n            for (uint256 i = 0; i < submission.details.references.length; i++) {\n                address ref = submission.details.references[i];\n                share = submission.availableReward[ref];\n                if (share == uint256(0)) continue;\n\n                submission.availableReward[ref] = 0;\n                data.submissions[ref].info.reward = data.submissions[ref].info.reward.add(share);\n                submission.totalAllocated = submission.totalAllocated.sub(share);\n                IMatryxSubmission(self).transferTo(info.token, ref, share);\n            }\n        }\n    }\n}\n",
  "sourcePath": "/Users/ajm/Desktop/matryx/MatryxPlatform/contracts/MatryxSubmission.sol",
  "compiler": {
    "name": "solc",
    "version": "0.4.25+commit.59dbf8f1.Emscripten.clang"
  },
  "schemaVersion": "2.0.0",
  "updatedAt": "2018-11-15T20:06:01.179Z"
}