{
  "contractName": "LibTrinity",
  "abi": [
    {
      "constant": false,
      "inputs": [
        {
          "name": "token",
          "type": "address"
        },
        {
          "name": "sender",
          "type": "address"
        },
        {
          "name": "amount",
          "type": "uint256"
        }
      ],
      "name": "transferFrom",
      "outputs": [],
      "payable": false,
      "stateMutability": "nonpayable",
      "type": "function"
    },
    {
      "constant": false,
      "inputs": [
        {
          "name": "token",
          "type": "address"
        },
        {
          "name": "recipient",
          "type": "address"
        },
        {
          "name": "amount",
          "type": "uint256"
        }
      ],
      "name": "transferTo",
      "outputs": [],
      "payable": false,
      "stateMutability": "nonpayable",
      "type": "function"
    }
  ],
  "bytecode": "0x610399610030600b82828239805160001a6073146000811461002057610022565bfe5b5030600052607381538281f30073000000000000000000000000000000000000000030146080604052600436106100625763ffffffff7c010000000000000000000000000000000000000000000000000000000060003504166323b872dd8114610067578063a5f2a15214610089575b600080fd5b81801561007357600080fd5b50610087610082366004610216565b6100a9565b005b81801561009557600080fd5b506100876100a4366004610216565b610197565b6040517f23b872dd00000000000000000000000000000000000000000000000000000000815273ffffffffffffffffffffffffffffffffffffffff8416906323b872dd906100ff908590309086906004016102da565b602060405180830381600087803b15801561011957600080fd5b505af115801561012d573d6000803e3d6000fd5b505050506040513d601f19601f820116820180604052506101519190810190610263565b1515610192576040517f08c379a00000000000000000000000000000000000000000000000000000000081526004016101899061031d565b60405180910390fd5b505050565b6040517fa9059cbb00000000000000000000000000000000000000000000000000000000815273ffffffffffffffffffffffffffffffffffffffff84169063a9059cbb906100ff9085908590600401610302565b60006101f78235610333565b9392505050565b60006101f7825161034f565b60006101f7823561034c565b60008060006060848603121561022b57600080fd5b600061023786866101eb565b9350506020610248868287016101eb565b92505060406102598682870161020a565b9150509250925092565b60006020828403121561027557600080fd5b600061028184846101fe565b949350505050565b61029281610333565b82525050565b61029281610354565b600f81527f5472616e73666572206661696c65640000000000000000000000000000000000602082015260400190565b6102928161034c565b606081016102e88286610289565b6102f56020830185610298565b61028160408301846102d1565b604081016103108285610289565b6101f760208301846102d1565b6020808252810161032d816102a1565b92915050565b73ffffffffffffffffffffffffffffffffffffffff1690565b90565b151590565b600061032d826103335600a265627a7a723058204765cb9688335223d97995f12f8696160db02ce5d43b9a15e07fffb64be12f276c6578706572696d656e74616cf50037",
  "source": "pragma solidity ^0.4.24;\npragma experimental ABIEncoderV2;\n\nimport \"./IMatryxToken.sol\";\n\ncontract MatryxTrinity {\n    struct Info {\n        uint256 version;\n        address system;\n    }\n\n    Info info;\n\n    constructor(uint256 _version, address _system) public {\n        info.version = _version;\n        info.system = _system;\n    }\n\n    /// @dev\n    /// Gets the address of the current version of Platform and forwards the\n    /// received calldata to this address. Injects msg.sender at the front so\n    /// Platform and libraries can know calling address\n    function () public {\n        assembly {\n            let ptr := mload(0x40)\n            let offset := 0x100000000000000000000000000000000000000000000000000000000\n            let platform := 0x4d6174727978506c6174666f726d000000000000000000000000000000000000\n            let version := sload(info_slot)\n            let system := sload(add(info_slot, 1))\n\n            // prepare for lookup platform from MSC\n            mstore(ptr, mul(0xc53cfd9a, offset))                                // getContract(uint256,bytes32)\n            mstore(add(ptr, 0x04), version)                                     // arg 0 - version of this forwarder\n            mstore(add(ptr, 0x24), platform)                                    // arg 1 - 'MatryxPlatform'\n\n            // call getContract to get MatryxPlatform from MSC\n            let res := call(gas, system, 0, ptr, 0x44, 0, 0x20)                 // call MatryxSystem.getContract\n            if iszero(res) { revert(0, 0) }                                     // safety check\n            platform := mload(0)                                                // load platform address\n\n            calldatacopy(ptr, 0, 0x04)                                          // copy signature\n            let sig := div(mload(ptr), offset)                                  // shrink signature to 4 relevant bytes\n\n            if or(eq(sig, 0x23b872dd), eq(sig, 0xa5f2a152)) {                   // if transferFrom or transferTo\n                if iszero(eq(caller, platform)) { revert(0, 0) }                // require caller is Platform\n                calldatacopy(ptr, 0, calldatasize)                              // copy calldata for forwarding\n                res := delegatecall(gas, LibTrinity, ptr, calldatasize, 0, 0)   // forward method to LibTrinity\n                if iszero(res) { revert(0, 0) }                                 // safety check\n                return(0, 0)                                                    // return early (skip rest)\n            }\n\n            // forward method to MatryxPlatform, injecting msg.sender\n            mstore(add(ptr, 0x04), caller)                                      // inject msg.sender\n            mstore(add(ptr, 0x24), version)                                     // inject version\n            calldatacopy(add(ptr, 0x44), 0x04, sub(calldatasize, 0x04))         // copy calldata for forwarding\n            res := call(gas, platform, 0, ptr, add(calldatasize, 0x40), 0, 0)   // forward method to MatryxPlatform\n            if iszero(res) { revert(0, 0) }                                     // safety check\n\n            // forward returndata to caller\n            returndatacopy(ptr, 0, returndatasize)                              // copy returndata into ptr\n            return(ptr, returndatasize)                                         // return returndata from forwarded call\n        }\n    }\n}\n\nlibrary LibTrinity {\n    /// @dev Transfers MTX from sender to MatryxTrinity\n    /// @param token   Token address\n    /// @param sender  Sender of tokens\n    /// @param amount  Amount of tokens\n    function transferFrom(address token, address sender, uint256 amount) public {\n        require(IMatryxToken(token).transferFrom(sender, this, amount), \"Transfer failed\");\n    }\n\n    /// @dev Transfers MTX from MatryxTrinity to recipient\n    /// @param token      Token address\n    /// @param recipient  Recipient of tokens\n    /// @param amount     Amount of tokens\n    function transferTo(address token, address recipient, uint256 amount) public {\n        require(IMatryxToken(token).transfer(recipient, amount), \"Transfer failed\");\n    }\n}\n",
  "sourcePath": "/Users/ajm13/Desktop/matryx/MatryxPlatform/contracts/MatryxTrinity.sol",
  "compiler": {
    "name": "solc",
    "version": "0.4.24+commit.e67f0147.Emscripten.clang"
  },
  "schemaVersion": "2.0.1",
  "updatedAt": "2018-11-07T00:18:14.900Z"
}