{
  "contractName": "LibTournament2",
  "abi": [
    {
      "constant": true,
      "inputs": [
        {
          "name": "self",
          "type": "address"
        },
        {
          "name": "",
          "type": "address"
        },
        {
          "name": "data",
          "type": "MatryxPlatform.Data storage"
        }
      ],
      "name": "getInfo",
      "outputs": [
        {
          "components": [
            {
              "name": "version",
              "type": "uint256"
            },
            {
              "name": "owner",
              "type": "address"
            }
          ],
          "name": "",
          "type": "tuple"
        }
      ],
      "payable": false,
      "stateMutability": "view",
      "type": "function"
    },
    {
      "constant": true,
      "inputs": [
        {
          "name": "self",
          "type": "address"
        },
        {
          "name": "",
          "type": "address"
        },
        {
          "name": "data",
          "type": "MatryxPlatform.Data storage"
        }
      ],
      "name": "getRounds",
      "outputs": [
        {
          "components": [
            {
              "name": "start",
              "type": "uint256"
            },
            {
              "name": "duration",
              "type": "uint256"
            },
            {
              "name": "review",
              "type": "uint256"
            },
            {
              "name": "bounty",
              "type": "uint256"
            }
          ],
          "name": "",
          "type": "tuple"
        }
      ],
      "payable": false,
      "stateMutability": "view",
      "type": "function"
    },
    {
      "constant": true,
      "inputs": [
        {
          "name": "self",
          "type": "address"
        },
        {
          "name": "",
          "type": "address"
        },
        {
          "name": "",
          "type": "MatryxPlatform.Data storage"
        }
      ],
      "name": "getBalance",
      "outputs": [
        {
          "name": "",
          "type": "uint256"
        }
      ],
      "payable": false,
      "stateMutability": "pure",
      "type": "function"
    },
    {
      "constant": false,
      "inputs": [
        {
          "name": "self",
          "type": "address"
        },
        {
          "name": "sender",
          "type": "address"
        },
        {
          "name": "info",
          "type": "MatryxPlatform.Info storage"
        },
        {
          "name": "data",
          "type": "MatryxPlatform.Data storage"
        }
      ],
      "name": "createRound",
      "outputs": [
        {
          "name": "",
          "type": "uint256"
        }
      ],
      "payable": false,
      "stateMutability": "nonpayable",
      "type": "function"
    }
  ],
  "bytecode": "0x610625610030600b82828239805160001a6073146000811461002057610022565bfe5b5030600052607381538281f3fe73000000000000000000000000000000000000000030146080604052600436106100785763ffffffff7c010000000000000000000000000000000000000000000000000000000060003504166336359f2e811461007d5780636852c33e146100b35780638a1250dd146100d3578063d8bf2551146100e6575b600080fd5b81801561008957600080fd5b5061009d6100983660046104b0565b610106565b6040516100aa91906105bf565b60405180910390f35b6100c66100c1366004610463565b610231565b6040516100aa919061059d565b61009d6100e1366004610463565b6102be565b6100f96100f4366004610463565b6102cf565b6040516100aa91906105b1565b6000610110610324565b6020808201805161303990819052815183018190528151604090810182905291516060015273ffffffffffffffffffffffffffffffffffffffff881660009081526003860183529081206005018054600181018083559183529183902084518051805193958795600b02909301939192849261018f928492019061034b565b506020828101516001830155604083015180518051919260028501926101b8928492019061034b565b5060208281015180516101d1926001850192019061034b565b5060409182015160029190910155606092830151600592909201805460ff19169215159290921790915560209384015180516006850155938401516007840155830151600883015591909101516009909101555060009695505050505050565b610239610396565b73ffffffffffffffffffffffffffffffffffffffff8416600090815260038301602052604081206005018054909190811061027057fe5b90600052602060002090600b02016006016080604051908101604052908160008201548152602001600182015481526020016002820154815260200160038201548152505090509392505050565b68055de6a779bbac00009392505050565b6102d76103bf565b5073ffffffffffffffffffffffffffffffffffffffff9283166000908152600391909101602090815260409182902082518084019093528054835260010154909316928101929092525090565b610140604051908101604052806103396103d6565b8152602001610346610396565b905290565b828054828255906000526020600020908101928215610386579160200282015b8281111561038657825182559160200191906001019061036b565b50610392929150610405565b5090565b608060405190810160405280600081526020016000815260200160008152602001600081525090565b604080518082019091526000808252602082015290565b60c06040519081016040528060608152602001600081526020016103f8610422565b8152600060209091015290565b61041f91905b80821115610392576000815560010161040b565b90565b6060604051908101604052806060815260200160608152602001600081525090565b600061045082356105cd565b9392505050565b6000610450823561041f565b60008060006060848603121561047857600080fd5b60006104848686610444565b935050602061049586828701610444565b92505060406104a686828701610457565b9150509250925092565b600080600080608085870312156104c657600080fd5b60006104d28787610444565b94505060206104e387828801610444565b93505060406104f487828801610457565b925050606061050587828801610457565b91505092959194509250565b61051a816105cd565b82525050565b805160808301906105318482610594565b5060208201516105446020850182610594565b5060408201516105576040850182610594565b50606082015161056a6060850182610594565b50505050565b805160408301906105818482610594565b50602082015161056a6020850182610511565b61051a8161041f565b608081016105ab8284610520565b92915050565b604081016105ab8284610570565b602081016105ab8284610594565b600073ffffffffffffffffffffffffffffffffffffffff82166105ab56fea265627a7a72305820bcb4cbdef95ea64942d3f6262b5eb788bc55cbcf09c004ab5a4b560ce4a7407d6c6578706572696d656e74616cf50037",
  "source": "pragma solidity ^0.5.0;\npragma experimental ABIEncoderV2;\n\nimport \"../MatryxPlatform.sol\";\nimport \"../LibTournament.sol\";\n\ninterface ITournament2 {\n    function getInfo() external pure returns (LibTournament.TournamentInfo memory);\n    function getRounds() external view returns (LibTournament.RoundDetails memory);\n    function getBalance() external pure returns (uint256);\n    function createRound() external returns (uint256);\n}\n\nlibrary LibTournament2 {\n\n    function getInfo(address self, address, MatryxPlatform.Data storage data) public view returns (LibTournament.TournamentInfo memory) {\n        return data.tournaments[self].info;\n    }\n\n    function getRounds(address self, address, MatryxPlatform.Data storage data) public view returns (LibTournament.RoundDetails memory) {\n        return data.tournaments[self].rounds[0].details;\n    }\n\n    function getBalance(address self, address, MatryxPlatform.Data storage) public pure returns (uint256) {\n        return 99000000000000000000;\n    }\n\n    function createRound(address self, address sender, MatryxPlatform.Info storage info, MatryxPlatform.Data storage data) public returns (uint256) {\n        LibTournament.RoundData memory round;\n        round.details.start = 12345;\n        round.details.duration = 12345;\n        round.details.review = 12345;\n        round.details.bounty = 12345;\n        data.tournaments[self].rounds.push(round);\n        return 0;\n    }\n\n}",
  "sourcePath": "/Users/maxhoward/Desktop/Ethereum/MatryxPlatform/contracts/test-contracts/LibTournament2.sol",
  "compiler": {
    "name": "solc",
    "version": "0.5.0+commit.1d4f565a.Emscripten.clang"
  },
  "schemaVersion": "3.0.2",
  "updatedAt": "2019-03-15T16:49:03.061Z",
  "devdoc": {
    "methods": {}
  },
  "userdoc": {
    "methods": {}
  }
}