{
  "contractName": "LibTournament",
  "abi": [
    {
      "anonymous": false,
      "inputs": [
        {
          "indexed": false,
          "name": "tournament",
          "type": "address"
        }
      ],
      "name": "TournamentUpdated",
      "type": "event",
      "signature": "0x08ee0271cd352aea7e1b49af1cb7fc59087a18e6fcdc1c7ec01ede6ff2ca14c4"
    },
    {
      "anonymous": false,
      "inputs": [
        {
          "indexed": false,
          "name": "tournament",
          "type": "address"
        },
        {
          "indexed": false,
          "name": "donor",
          "type": "address"
        },
        {
          "indexed": false,
          "name": "amount",
          "type": "uint256"
        }
      ],
      "name": "TournamentBountyAdded",
      "type": "event",
      "signature": "0x0905fbfc309b9c5448ff0529c791d83591ad457d5b85ce1cad0e301bacaf575b"
    },
    {
      "anonymous": false,
      "inputs": [
        {
          "indexed": false,
          "name": "tournament",
          "type": "address"
        },
        {
          "indexed": false,
          "name": "roundIndex",
          "type": "uint256"
        }
      ],
      "name": "RoundCreated",
      "type": "event",
      "signature": "0xeab460c3c93e539eae1f40ce5dda73260499a0d82b7bd14c01dabb8147a756df"
    },
    {
      "anonymous": false,
      "inputs": [
        {
          "indexed": false,
          "name": "tournament",
          "type": "address"
        },
        {
          "indexed": false,
          "name": "roundIndex",
          "type": "uint256"
        }
      ],
      "name": "RoundUpdated",
      "type": "event",
      "signature": "0x7669571f2367c4d23bd5f4df590b2e7b462986d677c511e94f29dccd57c6f8ea"
    },
    {
      "anonymous": false,
      "inputs": [
        {
          "indexed": false,
          "name": "tournament",
          "type": "address"
        },
        {
          "indexed": false,
          "name": "submissionHash",
          "type": "bytes32"
        },
        {
          "indexed": false,
          "name": "creator",
          "type": "address"
        }
      ],
      "name": "SubmissionCreated",
      "type": "event",
      "signature": "0xd09e534974ee833e206ddee8a23eff5593affc236e5017d44fcdc19e70c19ac8"
    },
    {
      "anonymous": false,
      "inputs": [
        {
          "indexed": false,
          "name": "tournament",
          "type": "address"
        },
        {
          "indexed": false,
          "name": "submissionHash",
          "type": "bytes32"
        }
      ],
      "name": "SubmissionRewarded",
      "type": "event",
      "signature": "0x0d62057396adc1c0cfa94cab16b5d0300bed8545b2c58f1aaa13a8f6d8d86b0a"
    },
    {
      "constant": true,
      "inputs": [
        {
          "name": "self",
          "type": "address"
        },
        {
          "name": "",
          "type": "address"
        },
        {
          "name": "data",
          "type": "MatryxPlatform.Data storage"
        }
      ],
      "name": "getInfo",
      "outputs": [
        {
          "components": [
            {
              "name": "version",
              "type": "uint256"
            },
            {
              "name": "owner",
              "type": "address"
            }
          ],
          "name": "",
          "type": "tuple"
        }
      ],
      "payable": false,
      "stateMutability": "view",
      "type": "function",
      "signature": "0xd8bf2551"
    },
    {
      "constant": true,
      "inputs": [
        {
          "name": "self",
          "type": "address"
        },
        {
          "name": "",
          "type": "address"
        },
        {
          "name": "data",
          "type": "MatryxPlatform.Data storage"
        }
      ],
      "name": "getDetails",
      "outputs": [
        {
          "components": [
            {
              "name": "content",
              "type": "string"
            },
            {
              "name": "bounty",
              "type": "uint256"
            },
            {
              "name": "entryFee",
              "type": "uint256"
            }
          ],
          "name": "",
          "type": "tuple"
        }
      ],
      "payable": false,
      "stateMutability": "view",
      "type": "function",
      "signature": "0xba90b857"
    },
    {
      "constant": true,
      "inputs": [
        {
          "name": "self",
          "type": "address"
        },
        {
          "name": "",
          "type": "address"
        },
        {
          "name": "data",
          "type": "MatryxPlatform.Data storage"
        }
      ],
      "name": "getBalance",
      "outputs": [
        {
          "name": "",
          "type": "uint256"
        }
      ],
      "payable": false,
      "stateMutability": "view",
      "type": "function",
      "signature": "0x8a1250dd"
    },
    {
      "constant": true,
      "inputs": [
        {
          "name": "self",
          "type": "address"
        },
        {
          "name": "sender",
          "type": "address"
        },
        {
          "name": "data",
          "type": "MatryxPlatform.Data storage"
        }
      ],
      "name": "getState",
      "outputs": [
        {
          "name": "",
          "type": "uint256"
        }
      ],
      "payable": false,
      "stateMutability": "view",
      "type": "function",
      "signature": "0xb5413d67"
    },
    {
      "constant": true,
      "inputs": [
        {
          "name": "self",
          "type": "address"
        },
        {
          "name": "sender",
          "type": "address"
        },
        {
          "name": "data",
          "type": "MatryxPlatform.Data storage"
        },
        {
          "name": "roundIndex",
          "type": "uint256"
        }
      ],
      "name": "getRoundState",
      "outputs": [
        {
          "name": "",
          "type": "uint256"
        }
      ],
      "payable": false,
      "stateMutability": "view",
      "type": "function",
      "signature": "0x98093da0"
    },
    {
      "constant": true,
      "inputs": [
        {
          "name": "self",
          "type": "address"
        },
        {
          "name": "sender",
          "type": "address"
        },
        {
          "name": "data",
          "type": "MatryxPlatform.Data storage"
        }
      ],
      "name": "getCurrentRoundIndex",
      "outputs": [
        {
          "name": "",
          "type": "uint256"
        }
      ],
      "payable": false,
      "stateMutability": "view",
      "type": "function",
      "signature": "0xf064d1ae"
    },
    {
      "constant": true,
      "inputs": [
        {
          "name": "self",
          "type": "address"
        },
        {
          "name": "sender",
          "type": "address"
        },
        {
          "name": "data",
          "type": "MatryxPlatform.Data storage"
        },
        {
          "name": "roundIndex",
          "type": "uint256"
        }
      ],
      "name": "getRoundInfo",
      "outputs": [
        {
          "components": [
            {
              "name": "submissions",
              "type": "bytes32[]"
            },
            {
              "name": "submitterCount",
              "type": "uint256"
            },
            {
              "components": [
                {
                  "name": "submissions",
                  "type": "bytes32[]"
                },
                {
                  "name": "distribution",
                  "type": "uint256[]"
                },
                {
                  "name": "action",
                  "type": "uint256"
                }
              ],
              "name": "winners",
              "type": "tuple"
            },
            {
              "name": "closed",
              "type": "bool"
            }
          ],
          "name": "",
          "type": "tuple"
        }
      ],
      "payable": false,
      "stateMutability": "view",
      "type": "function",
      "signature": "0xbf98435e"
    },
    {
      "constant": true,
      "inputs": [
        {
          "name": "self",
          "type": "address"
        },
        {
          "name": "sender",
          "type": "address"
        },
        {
          "name": "data",
          "type": "MatryxPlatform.Data storage"
        },
        {
          "name": "roundIndex",
          "type": "uint256"
        }
      ],
      "name": "getRoundDetails",
      "outputs": [
        {
          "components": [
            {
              "name": "start",
              "type": "uint256"
            },
            {
              "name": "duration",
              "type": "uint256"
            },
            {
              "name": "review",
              "type": "uint256"
            },
            {
              "name": "bounty",
              "type": "uint256"
            }
          ],
          "name": "",
          "type": "tuple"
        }
      ],
      "payable": false,
      "stateMutability": "view",
      "type": "function",
      "signature": "0x457ec7c4"
    },
    {
      "constant": true,
      "inputs": [
        {
          "name": "self",
          "type": "address"
        },
        {
          "name": "sender",
          "type": "address"
        },
        {
          "name": "data",
          "type": "MatryxPlatform.Data storage"
        }
      ],
      "name": "getSubmissionCount",
      "outputs": [
        {
          "name": "",
          "type": "uint256"
        }
      ],
      "payable": false,
      "stateMutability": "view",
      "type": "function",
      "signature": "0xed7c9de9"
    },
    {
      "constant": true,
      "inputs": [
        {
          "name": "self",
          "type": "address"
        },
        {
          "name": "",
          "type": "address"
        },
        {
          "name": "data",
          "type": "MatryxPlatform.Data storage"
        },
        {
          "name": "user",
          "type": "address"
        }
      ],
      "name": "getEntryFeePaid",
      "outputs": [
        {
          "name": "",
          "type": "uint256"
        }
      ],
      "payable": false,
      "stateMutability": "view",
      "type": "function",
      "signature": "0x8a57f372"
    },
    {
      "constant": true,
      "inputs": [
        {
          "name": "self",
          "type": "address"
        },
        {
          "name": "",
          "type": "address"
        },
        {
          "name": "data",
          "type": "MatryxPlatform.Data storage"
        },
        {
          "name": "user",
          "type": "address"
        }
      ],
      "name": "isEntrant",
      "outputs": [
        {
          "name": "",
          "type": "bool"
        }
      ],
      "payable": false,
      "stateMutability": "view",
      "type": "function",
      "signature": "0xb419874a"
    },
    {
      "constant": false,
      "inputs": [
        {
          "name": "self",
          "type": "address"
        },
        {
          "name": "sender",
          "type": "address"
        },
        {
          "name": "info",
          "type": "MatryxPlatform.Info storage"
        },
        {
          "name": "data",
          "type": "MatryxPlatform.Data storage"
        }
      ],
      "name": "enter",
      "outputs": [],
      "payable": false,
      "stateMutability": "nonpayable",
      "type": "function",
      "signature": "0x19fe07db"
    },
    {
      "constant": false,
      "inputs": [
        {
          "name": "self",
          "type": "address"
        },
        {
          "name": "sender",
          "type": "address"
        },
        {
          "name": "info",
          "type": "MatryxPlatform.Info storage"
        },
        {
          "name": "data",
          "type": "MatryxPlatform.Data storage"
        }
      ],
      "name": "exit",
      "outputs": [],
      "payable": false,
      "stateMutability": "nonpayable",
      "type": "function",
      "signature": "0x22fb9c1e"
    },
    {
      "constant": false,
      "inputs": [
        {
          "name": "self",
          "type": "address"
        },
        {
          "name": "sender",
          "type": "address"
        },
        {
          "name": "info",
          "type": "MatryxPlatform.Info storage"
        },
        {
          "name": "data",
          "type": "MatryxPlatform.Data storage"
        },
        {
          "components": [
            {
              "name": "start",
              "type": "uint256"
            },
            {
              "name": "duration",
              "type": "uint256"
            },
            {
              "name": "review",
              "type": "uint256"
            },
            {
              "name": "bounty",
              "type": "uint256"
            }
          ],
          "name": "rDetails",
          "type": "tuple"
        }
      ],
      "name": "createRound",
      "outputs": [
        {
          "name": "",
          "type": "uint256"
        }
      ],
      "payable": false,
      "stateMutability": "nonpayable",
      "type": "function",
      "signature": "0xfcf1e106"
    },
    {
      "constant": false,
      "inputs": [
        {
          "name": "self",
          "type": "address"
        },
        {
          "name": "sender",
          "type": "address"
        },
        {
          "name": "info",
          "type": "MatryxPlatform.Info storage"
        },
        {
          "name": "data",
          "type": "MatryxPlatform.Data storage"
        },
        {
          "name": "content",
          "type": "string"
        },
        {
          "name": "commitHash",
          "type": "bytes32"
        }
      ],
      "name": "createSubmission",
      "outputs": [],
      "payable": false,
      "stateMutability": "nonpayable",
      "type": "function",
      "signature": "0x9a0a9b66"
    },
    {
      "constant": false,
      "inputs": [
        {
          "name": "self",
          "type": "address"
        },
        {
          "name": "sender",
          "type": "address"
        },
        {
          "name": "data",
          "type": "MatryxPlatform.Data storage"
        },
        {
          "components": [
            {
              "name": "content",
              "type": "string"
            },
            {
              "name": "bounty",
              "type": "uint256"
            },
            {
              "name": "entryFee",
              "type": "uint256"
            }
          ],
          "name": "tDetails",
          "type": "tuple"
        }
      ],
      "name": "updateDetails",
      "outputs": [],
      "payable": false,
      "stateMutability": "nonpayable",
      "type": "function",
      "signature": "0xd71fd44e"
    },
    {
      "constant": false,
      "inputs": [
        {
          "name": "self",
          "type": "address"
        },
        {
          "name": "sender",
          "type": "address"
        },
        {
          "name": "info",
          "type": "MatryxPlatform.Info storage"
        },
        {
          "name": "data",
          "type": "MatryxPlatform.Data storage"
        },
        {
          "name": "amount",
          "type": "uint256"
        }
      ],
      "name": "addToBounty",
      "outputs": [],
      "payable": false,
      "stateMutability": "nonpayable",
      "type": "function",
      "signature": "0x32bbc3ae"
    },
    {
      "constant": false,
      "inputs": [
        {
          "name": "self",
          "type": "address"
        },
        {
          "name": "sender",
          "type": "address"
        },
        {
          "name": "data",
          "type": "MatryxPlatform.Data storage"
        },
        {
          "name": "amount",
          "type": "uint256"
        }
      ],
      "name": "transferToRound",
      "outputs": [],
      "payable": false,
      "stateMutability": "nonpayable",
      "type": "function",
      "signature": "0xc40137b1"
    },
    {
      "constant": false,
      "inputs": [
        {
          "name": "self",
          "type": "address"
        },
        {
          "name": "sender",
          "type": "address"
        },
        {
          "name": "info",
          "type": "MatryxPlatform.Info storage"
        },
        {
          "name": "data",
          "type": "MatryxPlatform.Data storage"
        },
        {
          "components": [
            {
              "name": "submissions",
              "type": "bytes32[]"
            },
            {
              "name": "distribution",
              "type": "uint256[]"
            },
            {
              "name": "action",
              "type": "uint256"
            }
          ],
          "name": "wData",
          "type": "tuple"
        },
        {
          "components": [
            {
              "name": "start",
              "type": "uint256"
            },
            {
              "name": "duration",
              "type": "uint256"
            },
            {
              "name": "review",
              "type": "uint256"
            },
            {
              "name": "bounty",
              "type": "uint256"
            }
          ],
          "name": "rDetails",
          "type": "tuple"
        }
      ],
      "name": "selectWinners",
      "outputs": [],
      "payable": false,
      "stateMutability": "nonpayable",
      "type": "function",
      "signature": "0xc8cc654f"
    },
    {
      "constant": false,
      "inputs": [
        {
          "name": "self",
          "type": "address"
        },
        {
          "name": "sender",
          "type": "address"
        },
        {
          "name": "data",
          "type": "MatryxPlatform.Data storage"
        },
        {
          "components": [
            {
              "name": "start",
              "type": "uint256"
            },
            {
              "name": "duration",
              "type": "uint256"
            },
            {
              "name": "review",
              "type": "uint256"
            },
            {
              "name": "bounty",
              "type": "uint256"
            }
          ],
          "name": "rDetails",
          "type": "tuple"
        }
      ],
      "name": "updateNextRound",
      "outputs": [],
      "payable": false,
      "stateMutability": "nonpayable",
      "type": "function",
      "signature": "0x8d1a4d53"
    },
    {
      "constant": false,
      "inputs": [
        {
          "name": "self",
          "type": "address"
        },
        {
          "name": "sender",
          "type": "address"
        },
        {
          "name": "data",
          "type": "MatryxPlatform.Data storage"
        }
      ],
      "name": "startNextRound",
      "outputs": [],
      "payable": false,
      "stateMutability": "nonpayable",
      "type": "function",
      "signature": "0xfab2d488"
    },
    {
      "constant": false,
      "inputs": [
        {
          "name": "self",
          "type": "address"
        },
        {
          "name": "sender",
          "type": "address"
        },
        {
          "name": "info",
          "type": "MatryxPlatform.Info storage"
        },
        {
          "name": "data",
          "type": "MatryxPlatform.Data storage"
        }
      ],
      "name": "withdrawFromAbandoned",
      "outputs": [],
      "payable": false,
      "stateMutability": "nonpayable",
      "type": "function",
      "signature": "0xf7230424"
    },
    {
      "constant": false,
      "inputs": [
        {
          "name": "self",
          "type": "address"
        },
        {
          "name": "sender",
          "type": "address"
        },
        {
          "name": "data",
          "type": "MatryxPlatform.Data storage"
        }
      ],
      "name": "closeTournament",
      "outputs": [],
      "payable": false,
      "stateMutability": "nonpayable",
      "type": "function",
      "signature": "0xc28cd1fb"
    },
    {
      "constant": false,
      "inputs": [
        {
          "name": "self",
          "type": "address"
        },
        {
          "name": "sender",
          "type": "address"
        },
        {
          "name": "info",
          "type": "MatryxPlatform.Info storage"
        },
        {
          "name": "data",
          "type": "MatryxPlatform.Data storage"
        }
      ],
      "name": "recoverBounty",
      "outputs": [],
      "payable": false,
      "stateMutability": "nonpayable",
      "type": "function",
      "signature": "0xcb80ac36"
    }
  ],
  "bytecode": "0x613fe1610030600b82828239805160001a6073146000811461002057610022565bfe5b5030600052607381538281f3fe73000000000000000000000000000000000000000030146080604052600436106101545763ffffffff7c0100000000000000000000000000000000000000000000000000000000600035041663125ab97d811461015957806313f957a01461017b57806319fe07db146101b157806322fb9c1e146101d157806332bbc3ae146101f1578063429f6bc514610211578063457ec7c4146102315780634f18a63e146102515780638a1250dd146102715780638a57f3721461028457806398093da0146102975780639a0a9b66146102aa578063b419874a146102ca578063b5413d67146102ea578063ba90b857146102fd578063bf98435e1461031d578063c28cd1fb1461033d578063c40137b11461035d578063cb80ac361461037d578063d8bf25511461039d578063ed7c9de9146103bd578063f064d1ae146103d0578063f7230424146103e3578063fab2d48814610403575b600080fd5b81801561016557600080fd5b50610179610174366004612e91565b610423565b005b81801561018757600080fd5b5061019b610196366004613047565b6106a1565b6040516101a89190613ec1565b60405180910390f35b8180156101bd57600080fd5b506101796101cc366004612f53565b6108b8565b8180156101dd57600080fd5b506101796101ec366004612f53565b610b01565b8180156101fd57600080fd5b5061017961020c366004613150565b610cae565b81801561021d57600080fd5b5061017961022c3660046130bd565b610f6a565b61024461023f366004612f53565b6112b0565b6040516101a89190613e83565b81801561025d57600080fd5b5061017961026c366004612ee6565b611331565b61019b61027f366004612de3565b61140e565b61019b610292366004612e30565b611431565b61019b6102a5366004612f53565b611468565b8180156102b657600080fd5b506101796102c5366004612fa8565b611580565b6102dd6102d8366004612e30565b61186b565b6040516101a89190613c65565b61019b6102f8366004612de3565b6118a2565b61031061030b366004612de3565b61191c565b6040516101a89190613ea2565b61033061032b366004612f53565b6119f8565b6040516101a89190613e91565b81801561034957600080fd5b50610179610358366004612de3565b611b90565b81801561036957600080fd5b50610179610378366004612f53565b611cba565b81801561038957600080fd5b50610179610398366004612f53565b611e0b565b6103b06103ab366004612de3565b612013565b6040516101a89190613eb3565b61019b6103cb366004612de3565b61205b565b61019b6103de366004612de3565b6120be565b8180156103ef57600080fd5b506101796103fe366004612f53565b61211a565b81801561040f57600080fd5b5061017961041e366004612de3565b6123b5565b600160a060020a0380851660009081526003840160205260409020600181015490918581169116146104735760405160e560020a62461bcd02815260040161046a90613de3565b60405180910390fd5b600581015460001901600061048a87878785611468565b146104aa5760405160e560020a62461bcd02815260040161046a90613e03565b600082600501828154811015156104bd57fe5b90600052602060002090600b020160060190506000846000015111156105835760058301546001101561056f576000836005016001840381548110151561050057fe5b90600052602060002090600b020160060190506105428160020154610536836001015484600001546124cf90919063ffffffff16565b9063ffffffff6124cf16565b855110156105655760405160e560020a62461bcd02815260040161046a90613d03565b5083518155610583565b8351421161057e578351610580565b425b81555b6000846020015111156105ee576020840151600111156105b85760405160e560020a62461bcd02815260040161046a90613e53565b60208401516301e1338010156105e35760405160e560020a62461bcd02815260040161046a90613d53565b602084015160018201555b60008460400151111561060657604084015160028201555b60008460600151111561065f57600160a060020a0387166000908152600186016020526040902054606085015111156106545760405160e560020a62461bcd02815260040161046a90613db3565b606084015160038201555b7f7669571f2367c4d23bd5f4df590b2e7b462986d677c511e94f29dccd57c6f8ea8783604051610690929190613c22565b60405180910390a150505050505050565b600160a060020a03808616600090815260038401602052604081209091861630146106e15760405160e560020a62461bcd02815260040161046a90613c93565b6060830151600160a060020a038816600090815260018601602052604090205410156107225760405160e560020a62461bcd02815260040161046a90613d43565b60208301516001111561074a5760405160e560020a62461bcd02815260040161046a90613e53565b60208301516301e1338010156107755760405160e560020a62461bcd02815260040161046a90613d53565b61077d6128a9565b6020810184905283514211156107965760208101514290525b60058201805460018101808355600092835260209283902084518051805193958795600b0290930193919284926107d092849201906128d0565b506020828101516001830155604083015180518051919260028501926107f992849201906128d0565b50602082810151805161081292600185019201906128d0565b50604091820151600291909101556060928301516005928301805460ff191691151591909117905560209485015180516006860155948501516007850155848101516008850155939091015160099092019190915584015490516000199190910191507feab460c3c93e539eae1f40ce5dda73260499a0d82b7bd14c01dabb8147a756df906108a4908b908490613c22565b60405180910390a198975050505050505050565b6108c38282856124e7565b15156108e45760405160e560020a62461bcd02815260040161046a90613d33565b600160a060020a03808516600090815260038301602052604090206004810154600182015491929091868216911614156109335760405160e560020a62461bcd02815260040161046a90613e23565b600160a060020a038516600090815260068301602052604090205460ff16156109715760405160e560020a62461bcd02815260040161046a90613c73565b600361097e8787866118a2565b1061099e5760405160e560020a62461bcd02815260040161046a90613cc3565b82546109b0908263ffffffff6124cf16565b835560018401546040517f23b872dd000000000000000000000000000000000000000000000000000000008152600160a060020a03909116906323b872dd90610a0190889030908690600401613bfa565b602060405180830381600087803b158015610a1b57600080fd5b505af1158015610a2f573d6000803e3d6000fd5b505050506040513d601f19601f82011682018060405250610a5391908101906131b8565b1515610a745760405160e560020a62461bcd02815260040161046a90613ce3565b600160a060020a03851660009081526006830160205260409020805460ff191660019081178255018190556008820154610ab4908263ffffffff6124cf16565b60088301555060070180546001810182556000918252602090912001805473ffffffffffffffffffffffffffffffffffffffff1916600160a060020a039490941693909317909255505050565b600160a060020a038085166000908152600383016020908152604080832093871683526006840190915290205460ff161515610b525760405160e560020a62461bcd02815260040161046a90613cd3565b600160a060020a038416600090815260068201602052604081206001015490811115610c84576008820154610b8d908263ffffffff61261716565b6008830155600160a060020a03851660009081526006830160205260408120600101558254610bc2908263ffffffff61261716565b835560018401546040517fa9059cbb000000000000000000000000000000000000000000000000000000008152600160a060020a039091169063a9059cbb90610c119088908590600401613c22565b602060405180830381600087803b158015610c2b57600080fd5b505af1158015610c3f573d6000803e3d6000fd5b505050506040513d601f19601f82011682018060405250610c6391908101906131b8565b1515610c845760405160e560020a62461bcd02815260040161046a90613ce3565b50600160a060020a0390931660009081526006909301602052505060409020805460ff1916905550565b60018301546040517fdd62ed3e0000000000000000000000000000000000000000000000000000000081528291600160a060020a03169063dd62ed3e90610cfb9088903090600401613bdf565b60206040518083038186803b158015610d1357600080fd5b505afa158015610d27573d6000803e3d6000fd5b505050506040513d601f19601f82011682018060405250610d4b91908101906131d6565b1015610d6c5760405160e560020a62461bcd02815260040161046a90613d13565b6003610d798686856118a2565b10610d995760405160e560020a62461bcd02815260040161046a90613cf3565b8154610dab908263ffffffff6124cf16565b8255600160a060020a0385166000908152600183016020526040902054610dd8908263ffffffff6124cf16565b600160a060020a038616600090815260018401602090815260408083209390935560038086019091529190200154610e16908263ffffffff6124cf16565b600160a060020a03808716600090815260038086016020526040918290200192909255600185015491517f23b872dd0000000000000000000000000000000000000000000000000000000081529116906323b872dd90610e7e90879030908690600401613bfa565b602060405180830381600087803b158015610e9857600080fd5b505af1158015610eac573d6000803e3d6000fd5b505050506040513d601f19601f82011682018060405250610ed091908101906131b8565b1515610ef15760405160e560020a62461bcd02815260040161046a90613ce3565b7f08ee0271cd352aea7e1b49af1cb7fc59087a18e6fcdc1c7ec01ede6ff2ca14c485604051610f209190613bd1565b60405180910390a17f0905fbfc309b9c5448ff0529c791d83591ad457d5b85ce1cad0e301bacaf575b858583604051610f5b93929190613bfa565b60405180910390a15050505050565b815151600010610f8f5760405160e560020a62461bcd02815260040161046a90613df3565b60208201515182515114610fb85760405160e560020a62461bcd02815260040161046a90613d93565b6040820151600311610fdf5760405160e560020a62461bcd02815260040161046a90613d23565b600160a060020a0380871660009081526003850160205260409020600181015490918781169116146110265760405160e560020a62461bcd02815260040161046a90613de3565b60006110338888876120be565b9050600361104389898885611468565b146110635760405160e560020a62461bcd02815260040161046a90613ca3565b60005b8451518110156110f657600086600401600087600001518481518110151561108a57fe5b6020908102909101810151825281019190915260400160009081208054909250600160a060020a03908116908c161480156110c85750838260010154145b90508015156110ec5760405160e560020a62461bcd02815260040161046a90613e73565b5050600101611066565b506000826005018281548110151561110a57fe5b90600052602060002090600b0201905061112261291b565b855180518791600285019161113e9183916020909101906128d0565b50602082810151805161115792600185019201906128d0565b506040918201516002918201559087015114156111af5760058201805460ff19166001908117909155600160a060020a038b166000908152908801602052604090205460098301556111aa8a8885612629565b6112a4565b6040860151151561124d576111c58a8885612629565b600160a060020a038a166000908152600188016020526040902054600983015481106111f55760098301546111f7565b805b60088401546007850154600686015492935061121c926105369163ffffffff6124cf16565b82526007830154602083015260088301546040830152606082018190526112468b308b8b866106a1565b50506112a4565b6001866040015114156112a4576112658a8885612629565b60058201805460ff191660011790554281526020808601519082015260408086015190820152606080860151908201526112a28a308a8a856106a1565b505b50505050505050505050565b6112b861291b565b600160a060020a038516600090815260038401602052604090206005018054839081106112e157fe5b90600052602060002090600b02016006016080604051908101604052908160008201548152602001600182015481526020016002820154815260200160038201548152505090505b949350505050565b600160a060020a0380851660009081526003840160205260409020600181015490918581169116146113785760405160e560020a62461bcd02815260040161046a90613de3565b60036113858686866118a2565b106113a55760405160e560020a62461bcd02815260040161046a90613cf3565b815151600010156113ca57815180516113c8916002840191602090910190612944565b505b6040820151156113df57604082015160048201555b7f08ee0271cd352aea7e1b49af1cb7fc59087a18e6fcdc1c7ec01ede6ff2ca14c485604051610f5b9190613bd1565b600160a060020a03831660009081526001820160205260409020545b9392505050565b600160a060020a03808516600090815260038401602090815260408083209385168352600690930190522060010154949350505050565b600160a060020a0384166000908152600383016020526040812060050180548291908490811061149457fe5b90600052602060002090600b0201905080600601600001544210156114be5760005b915050611329565b600781015460068201546114d79163ffffffff6124cf16565b4210156114f757600981015415156114f05760016114b6565b60026114b6565b60088101546007820154600683015461151b9291610536919063ffffffff6124cf16565b42101561156057600581015460ff16156115365760056114b6565b805415156115455760066114b6565b6002810154600010156115595760046114b6565b60036114b6565b6002810154600010156115745760056114b6565b60069695505050505050565b600160a060020a03861660009081526003840160209081526040808320848452600687019092529091206115b58686896124e7565b15156115d65760405160e560020a62461bcd02815260040161046a90613d33565b600160a060020a038716600090815260068301602052604090205460ff1615156116155760405160e560020a62461bcd02815260040161046a90613e63565b8054600160a060020a038881169116146116445760405160e560020a62461bcd02815260040161046a90613e33565b60006116518989886120be565b905060026116618a8a8985611468565b146116815760405160e560020a62461bcd02815260040161046a90613e13565b604080516c01000000000000000000000000600160a060020a038c16026020808301919091526034820187905260548083018590528351808403909101815260749092018352815191810191909120600081815260048a0190925291902060050154156117035760405160e560020a62461bcd02815260040161046a90613cb3565b6000846005018381548110151561171657fe5b90600052602060002090600b02019050600088600401600084815260200190815260200160002090508b8160000160006101000a815481600160a060020a030219169083600160a060020a0316021790555083816001018190555086816002018190555087816003019080519060200190611792929190612944565b50426005820155600087815260098a0160209081526040808320805460018181018355918552838520018790558554908101865585845282842001869055600160a060020a038e168352600a850190915290205460ff16151561182257600160a060020a038b166000908152600a830160205260409020805460ff19166001908117909155828101805490910190555b7fd09e534974ee833e206ddee8a23eff5593affc236e5017d44fcdc19e70c19ac88c848d60405161185593929190613c3d565b60405180910390a1505050505050505050505050565b600160a060020a0380851660009081526003840160209081526040808320938516835260069093019052205460ff16949350505050565b6000806118b08586856120be565b905060006118c086868685611468565b9050600181101580156118d4575060048111155b156118e55760025b9250505061142a565b8015156119005781156118f95760016118dc565b60006118dc565b60058114156119105760036118dc565b60049695505050505050565b6119246129b1565b600160a060020a0384166000908152600383016020908152604091829020825160029182018054600181161561010002600019011692909204601f810184900490930281016080908101909452606081018381529093919284928491908401828280156119d25780601f106119a7576101008083540402835291602001916119d2565b820191906000526020600020905b8154815290600101906020018083116119b557829003601f168201915b505050505081526020016001820154815260200160028201548152505090509392505050565b611a006129d3565b600160a060020a03851660009081526003840160205260409020600501805483908110611a2957fe5b90600052602060002090600b02016000016080604051908101604052908160008201805480602002602001604051908101604052809291908181526020018280548015611a9557602002820191906000526020600020905b815481526020019060010190808311611a81575b5050505050815260200160018201548152602001600282016060604051908101604052908160008201805480602002602001604051908101604052809291908181526020018280548015611b0857602002820191906000526020600020905b815481526020019060010190808311611af4575b5050505050815260200160018201805480602002602001604051908101604052809291908181526020018280548015611b6057602002820191906000526020600020905b815481526020019060010190808311611b4c575b5050509183525050600291909101546020918201529082526005929092015460ff16151591015295945050505050565b600160a060020a038084166000908152600383016020526040902060018101549091848116911614611bd75760405160e560020a62461bcd02815260040161046a90613de3565b6005810154600110611bfe5760405160e560020a62461bcd02815260040161046a90613c83565b6000611c0b8585856120be565b905060008260050182815481101515611c2057fe5b60009182526020909120600b9091020190506004611c4087878786611468565b14611c605760405160e560020a62461bcd02815260040161046a90613da3565b60058101805460ff19166001908117909155600160a060020a038716600090815290850160205260409020546009820155611c9c868584612629565b60058301805490611cb1906000198301612a02565b50505050505050565b600160a060020a038085166000908152600384016020526040902060018101549091858116911614611d015760405160e560020a62461bcd02815260040161046a90613de3565b6000611d0e8686866120be565b905060008260050182815481101515611d2357fe5b90600052602060002090600b020190506000611d4188888886611468565b90506003811115611d675760405160e560020a62461bcd02815260040161046a90613d73565b6009820154600090611d7f908763ffffffff6124cf16565b600160a060020a038a166000908152600189016020526040902054909150811115611dbf5760405160e560020a62461bcd02815260040161046a90613db3565b600983018190556040517f7669571f2367c4d23bd5f4df590b2e7b462986d677c511e94f29dccd57c6f8ea90611df8908b908790613c22565b60405180910390a1505050505050505050565b600160a060020a038085166000908152600383016020526040902060018101549091858116911614611e525760405160e560020a62461bcd02815260040161046a90613de3565b600a81015415611e775760405160e560020a62461bcd02815260040161046a90613dc3565b6000611e848686856120be565b905060008260050182815481101515611e9957fe5b60009182526020909120600b9091020190506006611eb988888786611468565b14611ed95760405160e560020a62461bcd02815260040161046a90613e43565b805415611efb5760405160e560020a62461bcd02815260040161046a90613d63565b600160a060020a03871660009081526001808601602052604090912054600a8501919091558454611f32908263ffffffff61261716565b8555600160a060020a038089166000908152600180880160205260408083209290925588015490517fa9059cbb00000000000000000000000000000000000000000000000000000000815291169063a9059cbb90611f96908a908590600401613c22565b602060405180830381600087803b158015611fb057600080fd5b505af1158015611fc4573d6000803e3d6000fd5b505050506040513d601f19601f82011682018060405250611fe891908101906131b8565b15156120095760405160e560020a62461bcd02815260040161046a90613ce3565b5050505050505050565b61201b612a33565b50600160a060020a039283166000908152600391909101602090815260409182902082518084019093528054835260010154909316928101929092525090565b600160a060020a038316600090815260038201602052604081206005810182805b82548110156120b3576005840180548290811061209557fe5b60009182526020909120600b9091020154919091019060010161207c565b509695505050505050565b600160a060020a0383166000908152600382016020526040812060050180546001811180156120fb575060046120f987878760028603611468565b145b1561210d5760011901915061142a9050565b60001901915061142a9050565b600160a060020a03841660009081526003820160205260408120906121408686856120be565b90506000826005018281548110151561215557fe5b60009182526020909120600b90910201905060046121748888876118a2565b146121945760405160e560020a62461bcd02815260040161046a90613e43565b600160a060020a0386166000908152600a8201602052604090205460ff1615156121d35760405160e560020a62461bcd02815260040161046a90613dd3565b600160a060020a038616600090815260098401602052604090205460ff16156122115760405160e560020a62461bcd02815260040161046a90613dc3565b600160a060020a038716600090815260018086016020526040822054600a86015491840154909291612249919063ffffffff61261716565b9050600061225d838363ffffffff61286e16565b600160a060020a038a1660009081526009880160205260409020805460ff19166001908117909155600a88018054909101905587549091506122a5908263ffffffff61261716565b8755600160a060020a038a1660009081526001880160205260409020546122d2908263ffffffff61261716565b600160a060020a03808c1660009081526001808b0160205260409182902093909355918a015491517fa9059cbb00000000000000000000000000000000000000000000000000000000815291169063a9059cbb90612336908c908590600401613c22565b602060405180830381600087803b15801561235057600080fd5b505af1158015612364573d6000803e3d6000fd5b505050506040513d601f19601f8201168201806040525061238891908101906131b8565b15156123a95760405160e560020a62461bcd02815260040161046a90613ce3565b6112a48a8a8a8a610b01565b600160a060020a0380841660009081526003830160205260409020600181015490918481169116146123fc5760405160e560020a62461bcd02815260040161046a90613de3565b60058101546001106124235760405160e560020a62461bcd02815260040161046a90613d83565b60006124308585856120be565b9050600461244086868685611468565b146124605760405160e560020a62461bcd02815260040161046a90613da3565b6001826005018281548110151561247357fe5b60009182526020909120600b90910201600501805460ff19169115159190911790556124a08160016124cf565b90504282600501828154811015156124b457fe5b600091825260209091206006600b9092020101555050505050565b6000828201838110156124de57fe5b90505b92915050565b600160a060020a0381166000908152600e8301602052604081205460ff16156125125750600061142a565b600160a060020a0382166000908152600d8401602052604090205460ff161561253d5750600161142a565b60018401546040517f70a08231000000000000000000000000000000000000000000000000000000008152600091600160a060020a0316906370a0823190612589908690600401613bd1565b60206040518083038186803b1580156125a157600080fd5b505afa1580156125b5573d6000803e3d6000fd5b505050506040513d601f19601f820116820180604052506125d991908101906131d6565b111561260d5750600160a060020a0381166000908152600d830160205260409020805460ff1916600190811790915561142a565b5060009392505050565b60008282111561262357fe5b50900390565b600160a060020a038316600090815260038301602052604081206005810180549192918490811061265657fe5b600091825260208220600b9091020191506002820190805b82548110156126af576126a5836001018281548110151561268b57fe5b9060005260206000200154836124cf90919063ffffffff16565b915060010161266e565b50600983015460005b83548110156128155783546000908590839081106126d257fe5b600091825260208083209091015480835260048c0190915260409091206002015486549192509084906000190184101561274e5761274b8661273f8a600601600301548a6001018881548110151561272657fe5b906000526020600020015461288590919063ffffffff16565b9063ffffffff61286e16565b90505b600082815260028c01602052604090205461276f908263ffffffff6124cf16565b600083815260028d016020526040902055612790858263ffffffff61261716565b60008481526004808e01602052604090912001549095506127b890829063ffffffff6124cf16565b60008481526004808e0160205260409182902001829055519091507f0d62057396adc1c0cfa94cab16b5d0300bed8545b2c58f1aaa13a8f6d8d86b0a90612802908e908690613c22565b60405180910390a15050506001016126b8565b506009840154600160a060020a03891660009081526001890160205260409020546128459163ffffffff61261716565b600160a060020a0390981660009081526001909701602052505060409094209490945550505050565b600080828481151561287c57fe5b04949350505050565b60008282028315806128a1575082848281151561289e57fe5b04145b15156124de57fe5b610140604051908101604052806128be6129d3565b81526020016128cb61291b565b905290565b82805482825590600052602060002090810192821561290b579160200282015b8281111561290b5782518255916020019190600101906128f0565b50612917929150612a4a565b5090565b608060405190810160405280600081526020016000815260200160008152602001600081525090565b828054600181600116156101000203166002900490600052602060002090601f016020900481019282601f1061298557805160ff191683800117855561290b565b8280016001018555821561290b579182018281111561290b5782518255916020019190600101906128f0565b6060604051908101604052806060815260200160008152602001600081525090565b60c06040519081016040528060608152602001600081526020016129f5612a67565b8152600060209091015290565b815481835581811115612a2e57600b0281600b028360005260206000209182019101612a2e9190612a89565b505050565b604080518082019091526000808252602082015290565b612a6491905b808211156129175760008155600101612a50565b90565b6060604051908101604052806060815260200160608152602001600081525090565b612a6491905b808211156129175760008181612aa58282612b09565b6000600183018190556002830190612abd8282612b09565b612acb600183016000612b09565b506000600291909101819055600592909201805460ff1916905550600683018190556007830181905560088301819055600983015550600b01612a8f565b5080546000825590600052602060002090810190612b279190612a4a565b50565b600061142a8235613f49565b6000601f82018313612b4757600080fd5b8135612b5a612b5582613ef6565b613ecf565b91508181835260208401935060208101905083856020840282011115612b7f57600080fd5b60005b83811015612bab5781612b958882612c31565b8452506020928301929190910190600101612b82565b5050505092915050565b6000601f82018313612bc657600080fd5b8135612bd4612b5582613ef6565b91508181835260208401935060208101905083856020840282011115612bf957600080fd5b60005b83811015612bab5781612c0f8882612c31565b8452506020928301929190910190600101612bfc565b600061142a8251613f54565b600061142a8235612a64565b6000601f82018313612c4e57600080fd5b8135612c5c612b5582613f17565b91508082526020830160208301858383011115612c7857600080fd5b612c83838284613f65565b50505092915050565b600060808284031215612c9e57600080fd5b612ca86080613ecf565b90506000612cb68484612c31565b8252506020612cc784848301612c31565b6020830152506040612cdb84828501612c31565b6040830152506060612cef84828501612c31565b60608301525092915050565b600060608284031215612d0d57600080fd5b612d176060613ecf565b9050813567ffffffffffffffff811115612d3057600080fd5b612d3c84828501612c3d565b8252506020612d4d84848301612c31565b6020830152506040612d6184828501612c31565b60408301525092915050565b600060608284031215612d7f57600080fd5b612d896060613ecf565b9050813567ffffffffffffffff811115612da257600080fd5b612dae84828501612b36565b825250602082013567ffffffffffffffff811115612dcb57600080fd5b612d4d84828501612bb5565b600061142a8251612a64565b600080600060608486031215612df857600080fd5b6000612e048686612b2a565b9350506020612e1586828701612b2a565b9250506040612e2686828701612c31565b9150509250925092565b60008060008060808587031215612e4657600080fd5b6000612e528787612b2a565b9450506020612e6387828801612b2a565b9350506040612e7487828801612c31565b9250506060612e8587828801612b2a565b91505092959194509250565b60008060008060e08587031215612ea757600080fd5b6000612eb38787612b2a565b9450506020612ec487828801612b2a565b9350506040612ed587828801612c31565b9250506060612e8587828801612c8c565b60008060008060808587031215612efc57600080fd5b6000612f088787612b2a565b9450506020612f1987828801612b2a565b9350506040612f2a87828801612c31565b925050606085013567ffffffffffffffff811115612f4757600080fd5b612e8587828801612cfb565b60008060008060808587031215612f6957600080fd5b6000612f758787612b2a565b9450506020612f8687828801612b2a565b9350506040612f9787828801612c31565b9250506060612e8587828801612c31565b60008060008060008060c08789031215612fc157600080fd5b6000612fcd8989612b2a565b9650506020612fde89828a01612b2a565b9550506040612fef89828a01612c31565b945050606061300089828a01612c31565b935050608087013567ffffffffffffffff81111561301d57600080fd5b61302989828a01612c3d565b92505060a061303a89828a01612c31565b9150509295509295509295565b6000806000806000610100868803121561306057600080fd5b600061306c8888612b2a565b955050602061307d88828901612b2a565b945050604061308e88828901612c31565b935050606061309f88828901612c31565b92505060806130b088828901612c8c565b9150509295509295909350565b60008060008060008061012087890312156130d757600080fd5b60006130e38989612b2a565b96505060206130f489828a01612b2a565b955050604061310589828a01612c31565b945050606061311689828a01612c31565b935050608087013567ffffffffffffffff81111561313357600080fd5b61313f89828a01612d6d565b92505060a061303a89828a01612c8c565b600080600080600060a0868803121561316857600080fd5b60006131748888612b2a565b955050602061318588828901612b2a565b945050604061319688828901612c31565b93505060606131a788828901612c31565b92505060806130b088828901612c31565b6000602082840312156131ca57600080fd5b60006113298484612c25565b6000602082840312156131e857600080fd5b60006113298484612dd7565b6131fd81613f49565b82525050565b600061320e82613f45565b80845260208401935061322083613f3f565b60005b82811015613250576132368683516132b0565b61323f82613f3f565b602096909601959150600101613223565b5093949350505050565b600061326582613f45565b80845260208401935061327783613f3f565b60005b828110156132505761328d8683516132b0565b61329682613f3f565b60209690960195915060010161327a565b6131fd81613f54565b6131fd81612a64565b60006132c482613f45565b8084526132d8816020860160208601613f71565b6132e181613f9d565b9093016020019392505050565b602681527f43616e6e6f7420656e74657220546f75726e616d656e74206d6f72652074686160208201527f6e206f6e63650000000000000000000000000000000000000000000000000000604082015260600190565b601681527f4d75737420626520696e20526f756e64206c696d626f00000000000000000000602082015260400190565b601a81527f4d7573742062652063616c6c656420627920706c6174666f726d000000000000602082015260400190565b601181527f4d75737420626520696e20726576696577000000000000000000000000000000602082015260400190565b602f81527f436f6d6d69742068617320616c7265616479206265656e207375626d6974746560208201527f6420746f207468697320726f756e640000000000000000000000000000000000604082015260600190565b602b81527f43616e6e6f7420656e74657220636c6f736564206f72206162616e646f6e656460208201527f20546f75726e616d656e74000000000000000000000000000000000000000000604082015260600190565b600f81527f4d75737420626520656e7472616e740000000000000000000000000000000000602082015260400190565b600f81527f5472616e73666572206661696c65640000000000000000000000000000000000602082015260400190565b601981527f546f75726e616d656e74206d7573742062652061637469766500000000000000602082015260400190565b602781527f526f756e642063616e6e6f74207374617274206265666f726520656e64206f6660208201527f2072657669657700000000000000000000000000000000000000000000000000604082015260600190565b601881527f4d75737420617070726f76652066756e64732066697273740000000000000000602082015260400190565b601a81527f496e76616c69642053656c65637457696e6e6572416374696f6e000000000000602082015260400190565b601d81527f4d75737420626520616c6c6f77656420746f20757365204d6174727978000000602082015260400190565b601c81527f496e73756666696369656e742066756e647320666f7220526f756e6400000000602082015260400190565b600e81527f526f756e6420746f6f206c6f6e67000000000000000000000000000000000000602082015260400190565b601781527f4d75737420686176652030207375626d697373696f6e73000000000000000000602082015260400190565b602681527f43616e6e6f74207472616e736665722061667465722077696e6e65727320736560208201527f6c65637465640000000000000000000000000000000000000000000000000000604082015260600190565b601181527f4e6f20726f756e6420746f207374617274000000000000000000000000000000602082015260400190565b602981527f4d75737420696e636c75646520646973747269627574696f6e20666f7220656160208201527f63682077696e6e65720000000000000000000000000000000000000000000000604082015260600190565b601a81527f4d75737420686176652073656c65637465642077696e6e657273000000000000602082015260400190565b602281527f546f75726e616d656e7420646f6573206e6f742068617665207468652066756e60208201527f6473000000000000000000000000000000000000000000000000000000000000604082015260600190565b601181527f416c72656164792077697468647261776e000000000000000000000000000000602082015260400190565b602881527f4d757374206265207375626d697373696f6e206f776e657220696e206c61746560208201527f737420726f756e64000000000000000000000000000000000000000000000000604082015260600190565b600d81527f4d757374206265206f776e657200000000000000000000000000000000000000602082015260400190565b601481527f4d75737420737065636966792077696e6e657273000000000000000000000000602082015260400190565b601681527f43616e6e6f742065646974206f70656e20526f756e6400000000000000000000602082015260400190565b601281527f526f756e64206d757374206265204f70656e0000000000000000000000000000602082015260400190565b601b81527f43616e6e6f7420656e746572206f776e20546f75726e616d656e740000000000602082015260400190565b601781527f4d757374206265206f776e6572206f6620636f6d6d6974000000000000000000602082015260400190565b601c81527f546f75726e616d656e74206d757374206265206162616e646f6e656400000000602082015260400190565b600f81527f526f756e6420746f6f2073686f72740000000000000000000000000000000000602082015260400190565b601881527f4d7573742068617665207061696420656e747279206665650000000000000000602082015260400190565b602681527f4d7573742073656c6563742077696e6e6572732066726f6d2063757272656e7460208201527f20726f756e640000000000000000000000000000000000000000000000000000604082015260600190565b80516080830190613a8584826132b0565b506020820151613a9860208501826132b0565b506040820151613aab60408501826132b0565b506060820151613abe60608501826132b0565b50505050565b8051608080845260009190840190613adc8282613203565b9150506020830151613af160208601826132b0565b5060408301518482036040860152613b098282613b8a565b9150506060830151613b1e60608601826132a7565b509392505050565b8051606080845260009190840190613b3e82826132b9565b9150506020830151613b5360208601826132b0565b506040830151613b1e60408601826132b0565b80516040830190613b7784826132b0565b506020820151613abe60208501826131f4565b8051606080845260009190840190613ba28282613203565b91505060208301518482036020860152613bbc828261325a565b9150506040830151613b1e60408601826132b0565b602081016124e182846131f4565b60408101613bed82856131f4565b61142a60208301846131f4565b60608101613c0882866131f4565b613c1560208301856131f4565b61132960408301846132b0565b60408101613c3082856131f4565b61142a60208301846132b0565b60608101613c4b82866131f4565b613c5860208301856132b0565b61132960408301846131f4565b602081016124e182846132a7565b602080825281016124e1816132ee565b602080825281016124e181613344565b602080825281016124e181613374565b602080825281016124e1816133a4565b602080825281016124e1816133d4565b602080825281016124e18161342a565b602080825281016124e181613480565b602080825281016124e1816134b0565b602080825281016124e1816134e0565b602080825281016124e181613510565b602080825281016124e181613566565b602080825281016124e181613596565b602080825281016124e1816135c6565b602080825281016124e1816135f6565b602080825281016124e181613626565b602080825281016124e181613656565b602080825281016124e181613686565b602080825281016124e1816136dc565b602080825281016124e18161370c565b602080825281016124e181613762565b602080825281016124e181613792565b602080825281016124e1816137e8565b602080825281016124e181613818565b602080825281016124e18161386e565b602080825281016124e18161389e565b602080825281016124e1816138ce565b602080825281016124e1816138fe565b602080825281016124e18161392e565b602080825281016124e18161395e565b602080825281016124e18161398e565b602080825281016124e1816139be565b602080825281016124e1816139ee565b602080825281016124e181613a1e565b608081016124e18284613a74565b6020808252810161142a8184613ac4565b6020808252810161142a8184613b26565b604081016124e18284613b66565b602081016124e182846132b0565b60405181810167ffffffffffffffff81118282101715613eee57600080fd5b604052919050565b600067ffffffffffffffff821115613f0d57600080fd5b5060209081020190565b600067ffffffffffffffff821115613f2e57600080fd5b506020601f91909101601f19160190565b60200190565b5190565b60006124e182613f59565b151590565b600160a060020a031690565b82818337506000910152565b60005b83811015613f8c578181015183820152602001613f74565b83811115613abe5750506000910152565b601f01601f19169056fea265627a7a723058206a8f1a08c3d6fe39e8a6bf40589881cb347f6efef53a0670bc02e4dc7fa350896c6578706572696d656e74616cf50037",
  "source": "pragma solidity ^0.5.0;\npragma experimental ABIEncoderV2;\n\nimport \"./SafeMath.sol\";\nimport \"./LibGlobals.sol\";\n\nimport \"./MatryxSystem.sol\";\nimport \"./MatryxPlatform.sol\";\nimport \"./MatryxForwarder.sol\";\nimport \"./IToken.sol\";\nimport \"./MatryxCommit.sol\";\n\nlibrary LibTournament {\n    using SafeMath for uint256;\n\n    // TODO: change to 1 hours\n    uint256 constant MIN_ROUND_LENGTH = 1 seconds;\n    uint256 constant MAX_ROUND_LENGTH = 365 days;\n\n    event TournamentUpdated(address tournament);\n    event TournamentBountyAdded(address tournament, address donor, uint256 amount);\n    event RoundCreated(address tournament, uint256 roundIndex);\n    event RoundUpdated(address tournament, uint256 roundIndex);\n    event SubmissionCreated(address tournament, bytes32 submissionHash, address creator);\n    event SubmissionRewarded(address tournament, bytes32 submissionHash);\n\n    struct TournamentInfo {\n        uint256 version;\n        address owner;\n    }\n\n    // All information needed for creation of Tournament\n    struct TournamentDetails {\n        string content;\n        uint256 bounty;\n        uint256 entryFee;\n    }\n\n    // All state data and details of Tournament\n    struct TournamentData {\n        LibTournament.TournamentInfo info;\n        LibTournament.TournamentDetails details;\n\n        LibTournament.RoundData[] rounds;\n\n        mapping(address=>LibGlobals.o_uint256) entryFeePaid;\n        address[] allEntrants;\n        uint256 totalEntryFees;\n\n        mapping(address=>bool) hasWithdrawn;\n        uint256 numWithdrawn;\n    }\n\n    struct RoundInfo {\n        bytes32[] submissions;\n        uint256 submitterCount;\n        LibTournament.WinnersData winners;\n        bool closed;\n    }\n\n    struct RoundDetails {\n        uint256 start;\n        uint256 duration;\n        uint256 review;\n        uint256 bounty;\n    }\n\n    // All information needed to choose winning submissions\n    struct WinnersData {\n        bytes32[] submissions;\n        uint256[] distribution;\n        uint256 action;\n    }\n\n    struct RoundData {\n        LibTournament.RoundInfo info;\n        LibTournament.RoundDetails details;\n\n        mapping(address=>bool) hasSubmitted;\n    }\n\n    struct SubmissionData {\n        address tournament;\n        uint256 roundIndex;\n        bytes32 commitHash;\n        string content;\n        uint256 reward;\n        uint256 timestamp;\n    }\n\n    /// @dev Returns Tournament Info\n    function getInfo(address self, address, MatryxPlatform.Data storage data) public view returns (LibTournament.TournamentInfo memory) {\n        return data.tournaments[self].info;\n    }\n\n    /// @dev Returns the details struct of this Tournament\n    function getDetails(address self, address, MatryxPlatform.Data storage data) public view returns (LibTournament.TournamentDetails memory) {\n        return data.tournaments[self].details;\n    }\n\n    /// @dev Returns the MTX balance of the Tournament\n    function getBalance(address self, address, MatryxPlatform.Data storage data) public view returns (uint256) {\n        return data.tournamentBalance[self];\n    }\n\n    /// @dev Returns the state of this Tournament\n    function getState(address self, address sender, MatryxPlatform.Data storage data) public view returns (uint256) {\n        uint256 currentRoundIndex = getCurrentRoundIndex(self, self, data);\n        uint256 roundState = getRoundState(self, sender, data, currentRoundIndex);\n\n        if (roundState >= uint256(LibGlobals.RoundState.Unfunded) &&\n            roundState <= uint256(LibGlobals.RoundState.HasWinners)\n        ) {\n            return uint256(LibGlobals.TournamentState.Open);\n        }\n        else if (roundState == uint256(LibGlobals.RoundState.NotYetOpen)) {\n            if (currentRoundIndex != 0) {\n                return uint256(LibGlobals.TournamentState.OnHold);\n            }\n            return uint256(LibGlobals.TournamentState.NotYetOpen);\n        }\n        else if (roundState == uint256(LibGlobals.RoundState.Closed)) {\n            return uint256(LibGlobals.TournamentState.Closed);\n        }\n        return uint256(LibGlobals.TournamentState.Abandoned);\n    }\n\n    /// @dev Returns the state of this Tournament\n    /// @param roundIndex   Round index\n    function getRoundState(address self, address sender, MatryxPlatform.Data storage data, uint256 roundIndex) public view returns (uint256) {\n        LibTournament.RoundData storage round = data.tournaments[self].rounds[roundIndex];\n\n        if (now < round.details.start) {\n            return uint256(LibGlobals.RoundState.NotYetOpen);\n        }\n        else if (now < round.details.start.add(round.details.duration)) {\n            if (round.details.bounty == 0) {\n                return uint256(LibGlobals.RoundState.Unfunded);\n            }\n            return uint256(LibGlobals.RoundState.Open);\n        }\n        else if (now < round.details.start.add(round.details.duration).add(round.details.review)) {\n            if (round.info.closed) {\n                return uint256(LibGlobals.RoundState.Closed);\n            }\n            else if (round.info.submissions.length == 0) {\n                return uint256(LibGlobals.RoundState.Abandoned);\n            }\n            else if (round.info.winners.submissions.length > 0) {\n                return uint256(LibGlobals.RoundState.HasWinners);\n            }\n            return uint256(LibGlobals.RoundState.InReview);\n        }\n        else if (round.info.winners.submissions.length > 0) {\n            return uint256(LibGlobals.RoundState.Closed);\n        }\n        return uint256(LibGlobals.RoundState.Abandoned);\n    }\n\n    /// @dev Returns the current round number and address of this Tournament\n    function getCurrentRoundIndex(address self, address sender, MatryxPlatform.Data storage data) public view returns (uint256) {\n        LibTournament.RoundData[] storage rounds = data.tournaments[self].rounds;\n        uint256 numRounds = rounds.length;\n\n        if (numRounds > 1 && getRoundState(self, sender, data, numRounds-2) == uint256(LibGlobals.RoundState.HasWinners)) {\n            return numRounds - 2;\n        } else {\n            return numRounds - 1;\n        }\n    }\n\n    /// @dev Returns the Round Info\n    /// @param roundIndex   Round index\n    function getRoundInfo(address self, address sender, MatryxPlatform.Data storage data, uint256 roundIndex) public view returns (LibTournament.RoundInfo memory) {\n        return data.tournaments[self].rounds[roundIndex].info;\n    }\n\n    /// @dev Returns the Round Details\n    /// @param roundIndex   Round index\n    function getRoundDetails(address self, address sender, MatryxPlatform.Data storage data, uint256 roundIndex) public view returns (LibTournament.RoundDetails memory) {\n        return data.tournaments[self].rounds[roundIndex].details;\n    }\n\n    /// @dev Returns the total number of Submissions made in all rounds of this Tournament\n    /// @param self  Address of this Tournament\n    /// @param data  Data struct on Platform\n    /// @return      Number of all Submissions in this Tournament\n    function getSubmissionCount(address self, address sender, MatryxPlatform.Data storage data) public view returns (uint256) {\n        LibTournament.TournamentData storage tournament = data.tournaments[self];\n        LibTournament.RoundData[] storage rounds = data.tournaments[self].rounds;\n        uint256 count = 0;\n\n        for (uint256 i = 0; i < rounds.length; i++) {\n            count += tournament.rounds[i].info.submissions.length;\n        }\n\n        return count;\n    }\n\n    /// @dev Returns the entry fee that an entrant has paid\n    /// @param self  Address of this Tournament\n    /// @param data  Data struct on Platform\n    /// @param user  Address of the tournament entrant\n    /// @return      Entry fee uAddress has paid\n    function getEntryFeePaid(address self, address, MatryxPlatform.Data storage data, address user) public view returns (uint256) {\n        return data.tournaments[self].entryFeePaid[user].value;\n    }\n\n    /// @dev Returns true if address passed has entered the Tournament\n    /// @param self  Address of this Tournament\n    /// @param data  Data struct on Platform\n    /// @param user  Address of some user\n    /// @return      If user has entered tournament\n    function isEntrant(address self, address, MatryxPlatform.Data storage data, address user) public view returns (bool) {\n        return data.tournaments[self].entryFeePaid[user].exists;\n    }\n\n    /// @dev Returns true if the user is allowed to use Matryx\n    function _canUseMatryx(MatryxPlatform.Info storage info, MatryxPlatform.Data storage data, address user) internal returns (bool) {\n        if (data.blacklist[user]) return false;\n        if (data.whitelist[user]) return true;\n\n        if (IToken(info.token).balanceOf(user) > 0) {\n            data.whitelist[user] = true;\n            return true;\n        }\n\n        return false;\n    }\n\n    /// @dev Enter Tournament and pay entry fee\n    /// @param self    Address of this Tournament\n    /// @param sender  msg.sender to the Tournament\n    /// @param info    Info struct on Platform\n    /// @param data    Data struct on Platform\n    function enter(address self, address sender, MatryxPlatform.Info storage info, MatryxPlatform.Data storage data) public {\n        require(_canUseMatryx(info, data, sender), \"Must be allowed to use Matryx\");\n        LibTournament.TournamentData storage tournament = data.tournaments[self];\n        uint256 entryFee = tournament.details.entryFee;\n\n        require(sender != tournament.info.owner, \"Cannot enter own Tournament\");\n        require(!tournament.entryFeePaid[sender].exists, \"Cannot enter Tournament more than once\");\n        require(getState(self, sender, data) < uint256(LibGlobals.TournamentState.Closed), \"Cannot enter closed or abandoned Tournament\");\n\n        data.totalBalance = data.totalBalance.add(entryFee);\n        require(IToken(info.token).transferFrom(sender, address(this), entryFee), \"Transfer failed\");\n\n        tournament.entryFeePaid[sender].exists = true;\n        tournament.entryFeePaid[sender].value = entryFee;\n        tournament.totalEntryFees = tournament.totalEntryFees.add(entryFee);\n        tournament.allEntrants.push(sender);\n    }\n\n    /// @dev Exit Tournament and recover entry fee\n    /// @param self    Address of this Tournament\n    /// @param sender  msg.sender to the Tournament\n    /// @param info    Info struct on Platform\n    /// @param data    Data struct on Platform\n    function exit(address self, address sender, MatryxPlatform.Info storage info, MatryxPlatform.Data storage data) public {\n        LibTournament.TournamentData storage tournament = data.tournaments[self];\n        require(tournament.entryFeePaid[sender].exists, \"Must be entrant\");\n        uint256 entryFeePaid = tournament.entryFeePaid[sender].value;\n\n        if (entryFeePaid > 0) {\n            tournament.totalEntryFees = tournament.totalEntryFees.sub(entryFeePaid);\n            tournament.entryFeePaid[sender].value = 0;\n\n            data.totalBalance = data.totalBalance.sub(entryFeePaid);\n            require(IToken(info.token).transfer(sender, entryFeePaid), \"Transfer failed\");\n        }\n\n        tournament.entryFeePaid[sender].exists = false;\n    }\n\n    /// @dev Creates a new Round on this Tournament\n    /// @param self      Address of this Tournament\n    /// @param info      Info struct on Platform\n    /// @param data      Data struct on Platform\n    /// @param rDetails  Details of the Round being created\n    /// @return          Address of the created Round\n    function createRound(address self, address sender, MatryxPlatform.Info storage info, MatryxPlatform.Data storage data, LibTournament.RoundDetails memory rDetails) public returns (uint256) {\n        LibTournament.TournamentData storage tournament = data.tournaments[self];\n\n        require(sender == address(this), \"Must be called by platform\");\n        require(data.tournamentBalance[self] >= rDetails.bounty, \"Insufficient funds for Round\");\n\n        require(rDetails.duration >= MIN_ROUND_LENGTH, \"Round too short\");\n        require(rDetails.duration <= MAX_ROUND_LENGTH, \"Round too long\");\n\n        // TODO: add review time restrictions or auto review?\n\n        LibTournament.RoundData memory round;\n        round.details = rDetails;\n\n        // if round started in the past, start now instead\n        if (rDetails.start < now) {\n            round.details.start = now;\n        }\n\n        tournament.rounds.push(round);\n        uint256 roundIndex = tournament.rounds.length - 1;\n\n        emit RoundCreated(self, roundIndex);\n        return roundIndex;\n    }\n\n    /// @dev Creates a new Submission\n    /// @param self        Address of this Tournament\n    /// @param sender      msg.sender to the Tournament\n    /// @param data        Data struct on Platform\n    /// @param content     Submission title and description IPFS hash\n    /// @param commitHash  Commit hash to submit\n    /// @return            Address of the created Submission\n    function createSubmission(address self, address sender, MatryxPlatform.Info storage info, MatryxPlatform.Data storage data, string memory content, bytes32 commitHash) public {\n        LibTournament.TournamentData storage tournament = data.tournaments[self];\n        LibCommit.Commit storage commit = data.commits[commitHash];\n\n        require(_canUseMatryx(info, data, sender), \"Must be allowed to use Matryx\");\n        require(tournament.entryFeePaid[sender].exists, \"Must have paid entry fee\");\n        require(commit.owner == sender, \"Must be owner of commit\");\n\n        uint256 index = getCurrentRoundIndex(self, sender, data);\n        require(getRoundState(self, sender, data, index) == uint256(LibGlobals.RoundState.Open), \"Round must be Open\");\n\n        bytes32 submissionHash = keccak256(abi.encodePacked(self, commitHash, index));\n        require(data.submissions[submissionHash].timestamp == 0, \"Commit has already been submitted to this round\");\n\n        LibTournament.RoundData storage round = tournament.rounds[index];\n\n        LibTournament.SubmissionData storage submission = data.submissions[submissionHash];\n        submission.tournament = self;\n        submission.roundIndex = index;\n        submission.commitHash = commitHash;\n        submission.content = content;\n        submission.timestamp = now;\n\n        data.commitToSubmissions[commitHash].push(submissionHash);\n        round.info.submissions.push(submissionHash);\n\n        if (!round.hasSubmitted[sender]) {\n            round.hasSubmitted[sender] = true;\n            round.info.submitterCount += 1;\n        }\n\n        emit SubmissionCreated(self, submissionHash, sender);\n    }\n\n    /// @dev Updates the details of this tournament\n    /// @param self      Address of this Tournament\n    /// @param sender    msg.sender to the Tournament\n    /// @param data      Data struct on Platform\n    /// @param tDetails  New tournament details\n    function updateDetails(address self, address sender, MatryxPlatform.Data storage data, LibTournament.TournamentDetails memory tDetails) public {\n        LibTournament.TournamentData storage tournament = data.tournaments[self];\n        require(sender == tournament.info.owner, \"Must be owner\");\n        require(getState(self, sender, data) < uint256(LibGlobals.TournamentState.Closed), \"Tournament must be active\");\n\n        if (bytes(tDetails.content).length > 0) {\n            tournament.details.content = tDetails.content;\n        }\n        if (tDetails.entryFee != 0) {\n            tournament.details.entryFee = tDetails.entryFee;\n        }\n\n        emit TournamentUpdated(self);\n    }\n\n    /// @dev Adds funds to the Tournament\n    /// @param self      Address of this Tournament\n    /// @param sender    msg.sender to the Tournament\n    /// @param info      Info struct on Platform\n    /// @param data      Data struct on Platform\n    /// @param amount    Amount of MTX to add\n    function addToBounty(address self, address sender, MatryxPlatform.Info storage info, MatryxPlatform.Data storage data, uint256 amount) public {\n        require(IToken(info.token).allowance(sender, address(this)) >= amount, \"Must approve funds first\");\n        require(getState(self, sender, data) < uint256(LibGlobals.TournamentState.Closed), \"Tournament must be active\");\n\n        data.totalBalance = data.totalBalance.add(amount);\n        data.tournamentBalance[self] = data.tournamentBalance[self].add(amount);\n        data.tournaments[self].details.bounty = data.tournaments[self].details.bounty.add(amount);\n        require(IToken(info.token).transferFrom(sender, address(this), amount), \"Transfer failed\");\n\n        emit TournamentUpdated(self);\n        emit TournamentBountyAdded(self, sender, amount);\n    }\n\n    /// @dev Transfers some of Tournament MTX to current Round\n    /// @param self    Address of this Tournament\n    /// @param sender  msg.sender to the Tournament\n    /// @param data    Data struct on Platform\n    /// @param amount  Amount of MTX to transfer\n    function transferToRound(address self, address sender, MatryxPlatform.Data storage data, uint256 amount) public {\n        LibTournament.TournamentData storage tournament = data.tournaments[self];\n        require(sender == tournament.info.owner, \"Must be owner\");\n\n        uint256 roundIndex = getCurrentRoundIndex(self, sender, data);\n        LibTournament.RoundData storage round = tournament.rounds[roundIndex];\n\n        uint256 rState = getRoundState(self, sender, data, roundIndex);\n        require(rState <= uint256(LibGlobals.RoundState.InReview), \"Cannot transfer after winners selected\");\n\n        uint256 newBounty = round.details.bounty.add(amount);\n        require(newBounty <= data.tournamentBalance[self], \"Tournament does not have the funds\");\n\n        round.details.bounty = newBounty;\n        emit RoundUpdated(self, roundIndex);\n    }\n\n    /// @dev Transfers the round reward to its winning submissions during the winner selection process\n    /// @param data        Data struct on Platform\n    /// @param roundIndex  Index of the current round\n    function _transferToWinners(address self, MatryxPlatform.Data storage data, uint256 roundIndex) internal {\n        LibTournament.TournamentData storage tournament = data.tournaments[self];\n        LibTournament.RoundData storage round = tournament.rounds[roundIndex];\n        LibTournament.WinnersData storage wData = round.info.winners;\n\n        uint256 distTotal = 0;\n        for (uint256 i = 0; i < wData.submissions.length; i++) {\n            distTotal = distTotal.add(wData.distribution[i]);\n        }\n\n        uint256 rewardLeft = round.details.bounty;\n        for (uint256 i = 0; i < wData.submissions.length; i++) {\n            bytes32 winner = wData.submissions[i];\n            bytes32 commit = data.submissions[winner].commitHash;\n\n            // when distribution is fractional (e.g. thirds), give leftover wei to last winner\n            uint256 reward = rewardLeft;\n            if (i < wData.submissions.length - 1) {\n                reward = wData.distribution[i].mul(round.details.bounty).div(distTotal);\n            }\n\n            data.commitBalance[commit] = data.commitBalance[commit].add(reward);\n            rewardLeft = rewardLeft.sub(reward);\n\n            // only case subs get rewarded twice: selectWinners with doNothing, then closeTournament\n            reward = reward.add(data.submissions[winner].reward);\n            data.submissions[winner].reward = reward;\n\n            emit SubmissionRewarded(self, winner);\n        }\n\n        data.tournamentBalance[self] = data.tournamentBalance[self].sub(round.details.bounty);\n    }\n\n    /// @dev Select winners of the current round\n    /// @param self      Address of this Tournament\n    /// @param sender    msg.sender to the Tournament\n    /// @param info      Info struct on Platform\n    /// @param data      Data struct on Platform\n    /// @param wData     Winners data struct\n    /// @param rDetails  New round details struct\n    function selectWinners(address self, address sender, MatryxPlatform.Info storage info, MatryxPlatform.Data storage data, LibTournament.WinnersData memory wData, LibTournament.RoundDetails memory rDetails) public {\n        require(wData.submissions.length > 0, \"Must specify winners\");\n        require(wData.submissions.length == wData.distribution.length, \"Must include distribution for each winner\");\n        require(wData.action < 3, \"Invalid SelectWinnerAction\");\n\n        LibTournament.TournamentData storage tournament = data.tournaments[self];\n        require(sender == tournament.info.owner, \"Must be owner\");\n\n        uint256 roundIndex = getCurrentRoundIndex(self, sender, data);\n        require(getRoundState(self, sender, data, roundIndex) == uint256(LibGlobals.RoundState.InReview), \"Must be in review\");\n\n        for (uint256 i = 0; i < wData.submissions.length; i++) {\n            LibTournament.SubmissionData storage submission = data.submissions[wData.submissions[i]];\n            bool submissionInRound = submission.tournament == self && submission.roundIndex == roundIndex;\n            require(submissionInRound, \"Must select winners from current round\");\n        }\n\n        LibTournament.RoundData storage round = tournament.rounds[roundIndex];\n        LibTournament.RoundDetails memory newRound;\n\n        round.info.winners = wData;\n\n        if (wData.action == uint256(LibGlobals.SelectWinnerAction.CloseTournament)) {\n            // transfer rest of tournament balance to round and close tournament\n            round.info.closed = true;\n            round.details.bounty = data.tournamentBalance[self];\n            _transferToWinners(self, data, roundIndex);\n        }\n\n        else if (wData.action == uint256(LibGlobals.SelectWinnerAction.DoNothing)) {\n            _transferToWinners(self, data, roundIndex);\n\n            // create new round but don't start\n            uint256 bounty = data.tournamentBalance[self];\n            bounty = bounty < round.details.bounty ? bounty : round.details.bounty;\n\n            newRound.start = round.details.start.add(round.details.duration).add(round.details.review);\n            newRound.duration = round.details.duration;\n            newRound.review = round.details.review;\n            newRound.bounty = bounty;\n\n            createRound(self, address(this), info, data, newRound);\n        }\n\n        else if (wData.action == uint256(LibGlobals.SelectWinnerAction.StartNextRound)) {\n            _transferToWinners(self, data, roundIndex);\n\n            // create new round and start immediately\n            round.info.closed = true;\n\n            newRound.start = now;\n            newRound.duration = rDetails.duration;\n            newRound.review = rDetails.review;\n            newRound.bounty = rDetails.bounty;\n\n            createRound(self, address(this), info, data, newRound);\n        }\n    }\n\n    /// @dev Updates the details of an upcoming round that has not yet started\n    /// @param self      Address of this Tournament\n    /// @param sender    msg.sender to the Tournament\n    /// @param data      Data struct on Platform\n    /// @param rDetails  New round details\n    function updateNextRound(address self, address sender, MatryxPlatform.Data storage data, LibTournament.RoundDetails memory rDetails) public {\n        LibTournament.TournamentData storage tournament = data.tournaments[self];\n        require(sender == tournament.info.owner, \"Must be owner\");\n\n        uint256 roundIndex = tournament.rounds.length - 1;\n        require(getRoundState(self, sender, data, roundIndex) == uint256(LibGlobals.RoundState.NotYetOpen), \"Cannot edit open Round\");\n\n        LibTournament.RoundDetails storage details = tournament.rounds[roundIndex].details;\n\n        if (rDetails.start > 0) {\n            if (tournament.rounds.length > 1) {\n                LibTournament.RoundDetails storage currentDetails = tournament.rounds[roundIndex - 1].details;\n                require(rDetails.start >= currentDetails.start.add(currentDetails.duration).add(currentDetails.review), \"Round cannot start before end of review\");\n                details.start = rDetails.start;\n            }\n            else {\n                details.start = rDetails.start < now ? now : rDetails.start;\n            }\n        }\n\n        if (rDetails.duration > 0) {\n            // ensure duration is valid\n            require(rDetails.duration >= MIN_ROUND_LENGTH, \"Round too short\");\n            require(rDetails.duration <= MAX_ROUND_LENGTH, \"Round too long\");\n            details.duration = rDetails.duration;\n        }\n\n        if (rDetails.review > 0) { // TODO: review length restriction\n            details.review = rDetails.review;\n        }\n\n        if (rDetails.bounty > 0) {\n            require(rDetails.bounty <= data.tournamentBalance[self], \"Tournament does not have the funds\");\n            details.bounty = rDetails.bounty;\n        }\n\n        emit RoundUpdated(self, roundIndex);\n    }\n\n    /// @dev Starts the next Round after a SelectWinnersAction.DoNothing\n    /// @param self    Address of this Tournament\n    /// @param sender  msg.sender to the Tournament\n    /// @param data    Data struct on Platform\n    function startNextRound(address self, address sender, MatryxPlatform.Data storage data) public {\n        LibTournament.TournamentData storage tournament = data.tournaments[self];\n        require(sender == tournament.info.owner, \"Must be owner\");\n        require(tournament.rounds.length > 1, \"No round to start\");\n\n        uint256 roundIndex = getCurrentRoundIndex(self, sender, data);\n        require(getRoundState(self, sender, data, roundIndex) == uint256(LibGlobals.RoundState.HasWinners), \"Must have selected winners\");\n\n        tournament.rounds[roundIndex].info.closed = true;\n\n        roundIndex = roundIndex.add(1);\n        tournament.rounds[roundIndex].details.start = now;\n    }\n\n    /// @dev Entrant can withdraw an even share of remaining balance from abandoned Tournament\n    /// @param self    Address of this Tournament\n    /// @param sender  msg.sender to the Tournament\n    /// @param info    Info struct on Platform\n    /// @param data    Data struct on Platform\n    function withdrawFromAbandoned(address self, address sender, MatryxPlatform.Info storage info, MatryxPlatform.Data storage data) public {\n        LibTournament.TournamentData storage tournament = data.tournaments[self];\n\n        uint256 roundIndex = getCurrentRoundIndex(self, sender, data);\n        LibTournament.RoundData storage round = tournament.rounds[roundIndex];\n\n        require(getState(self, sender, data) == uint256(LibGlobals.TournamentState.Abandoned), \"Tournament must be abandoned\");\n        require(round.hasSubmitted[sender], \"Must be submission owner in latest round\");\n        require(!tournament.hasWithdrawn[sender], \"Already withdrawn\");\n\n        uint256 tBalance = data.tournamentBalance[self];\n        uint256 submitterCount = round.info.submitterCount.sub(tournament.numWithdrawn);\n        uint256 share = tBalance.div(submitterCount);\n\n        tournament.hasWithdrawn[sender] = true;\n        tournament.numWithdrawn++;\n\n        data.totalBalance = data.totalBalance.sub(share);\n        data.tournamentBalance[self] = data.tournamentBalance[self].sub(share);\n        require(IToken(info.token).transfer(sender, share), \"Transfer failed\");\n\n        exit(self, sender, info, data);\n    }\n\n    /// @dev Closes Tournament after a SelectWinnersAction.DoNothing and transfers all funds to winners\n    /// @param self    Address of this Tournament\n    /// @param sender  msg.sender to the Tournament\n    /// @param data    Data struct on Platform\n    function closeTournament(address self, address sender, MatryxPlatform.Data storage data) public {\n        LibTournament.TournamentData storage tournament = data.tournaments[self];\n        require(sender == tournament.info.owner, \"Must be owner\");\n        require(tournament.rounds.length > 1, \"Must be in Round limbo\");\n\n        uint256 roundIndex = getCurrentRoundIndex(self, sender, data);\n        LibTournament.RoundData storage round = tournament.rounds[roundIndex];\n        require(getRoundState(self, sender, data, roundIndex) == uint256(LibGlobals.RoundState.HasWinners), \"Must have selected winners\");\n\n        // close round\n        round.info.closed = true;\n        round.details.bounty = data.tournamentBalance[self];\n\n        // then transfer all to winners of that Round\n        _transferToWinners(self, data, roundIndex);\n\n        // delete ghost round\n        tournament.rounds.length--;\n    }\n\n    /// @dev Tournament owner can recover tournament funds if the round ends with no submissions\n    /// @param self    Address of this Tournament\n    /// @param sender  msg.sender to the Tournament\n    /// @param info    Info struct on Platform\n    /// @param data    Data struct on Platform\n    function recoverBounty(address self, address sender, MatryxPlatform.Info storage info, MatryxPlatform.Data storage data) public {\n        LibTournament.TournamentData storage tournament = data.tournaments[self];\n        require(sender == tournament.info.owner, \"Must be owner\");\n        require(tournament.numWithdrawn == 0, \"Already withdrawn\");\n\n        uint256 roundIndex = getCurrentRoundIndex(self, sender, data);\n        LibTournament.RoundData storage round = tournament.rounds[roundIndex];\n\n        require(getRoundState(self, sender, data, roundIndex) == uint256(LibGlobals.RoundState.Abandoned), \"Tournament must be abandoned\");\n        require(round.info.submissions.length == 0, \"Must have 0 submissions\");\n\n        uint256 funds = data.tournamentBalance[self];\n\n        tournament.numWithdrawn = 1;\n\n        // recover remaining tournament and round funds\n        data.totalBalance = data.totalBalance.sub(funds);\n        data.tournamentBalance[self] = 0;\n        require(IToken(info.token).transfer(sender, funds), \"Transfer failed\");\n    }\n}\n",
  "sourcePath": "/Users/maxhoward/Desktop/Ethereum/MatryxPlatform/contracts/LibTournament.sol",
  "compiler": {
    "name": "solc",
    "version": "0.5.0+commit.1d4f565a.Emscripten.clang"
  },
  "schemaVersion": "3.0.2",
  "updatedAt": "2019-03-21T17:57:45.731Z",
  "devdoc": {
    "methods": {
      "addToBounty(address,address,MatryxPlatform.Info storage,MatryxPlatform.Data storage,uint256)": {
        "details": "Adds funds to the Tournament",
        "params": {
          "amount": "Amount of MTX to add",
          "data": "Data struct on Platform",
          "info": "Info struct on Platform",
          "self": "Address of this Tournament",
          "sender": "msg.sender to the Tournament"
        }
      },
      "closeTournament(address,address,MatryxPlatform.Data storage)": {
        "details": "Closes Tournament after a SelectWinnersAction.DoNothing and transfers all funds to winners",
        "params": {
          "data": "Data struct on Platform",
          "self": "Address of this Tournament",
          "sender": "msg.sender to the Tournament"
        }
      },
      "createRound(address,address,MatryxPlatform.Info storage,MatryxPlatform.Data storage,LibTournament.RoundDetails)": {
        "details": "Creates a new Round on this Tournament",
        "params": {
          "data": "Data struct on Platform",
          "info": "Info struct on Platform",
          "rDetails": "Details of the Round being created",
          "self": "Address of this Tournament"
        },
        "return": "Address of the created Round"
      },
      "createSubmission(address,address,MatryxPlatform.Info storage,MatryxPlatform.Data storage,string,bytes32)": {
        "details": "Creates a new Submission",
        "params": {
          "commitHash": "Commit hash to submit",
          "content": "Submission title and description IPFS hash",
          "data": "Data struct on Platform",
          "self": "Address of this Tournament",
          "sender": "msg.sender to the Tournament"
        },
        "return": "Address of the created Submission"
      },
      "enter(address,address,MatryxPlatform.Info storage,MatryxPlatform.Data storage)": {
        "details": "Enter Tournament and pay entry fee",
        "params": {
          "data": "Data struct on Platform",
          "info": "Info struct on Platform",
          "self": "Address of this Tournament",
          "sender": "msg.sender to the Tournament"
        }
      },
      "exit(address,address,MatryxPlatform.Info storage,MatryxPlatform.Data storage)": {
        "details": "Exit Tournament and recover entry fee",
        "params": {
          "data": "Data struct on Platform",
          "info": "Info struct on Platform",
          "self": "Address of this Tournament",
          "sender": "msg.sender to the Tournament"
        }
      },
      "getBalance(address,address,MatryxPlatform.Data storage)": {
        "details": "Returns the MTX balance of the Tournament"
      },
      "getCurrentRoundIndex(address,address,MatryxPlatform.Data storage)": {
        "details": "Returns the current round number and address of this Tournament"
      },
      "getDetails(address,address,MatryxPlatform.Data storage)": {
        "details": "Returns the details struct of this Tournament"
      },
      "getEntryFeePaid(address,address,MatryxPlatform.Data storage,address)": {
        "details": "Returns the entry fee that an entrant has paid",
        "params": {
          "data": "Data struct on Platform",
          "self": "Address of this Tournament",
          "user": "Address of the tournament entrant"
        },
        "return": "Entry fee uAddress has paid"
      },
      "getInfo(address,address,MatryxPlatform.Data storage)": {
        "details": "Returns Tournament Info"
      },
      "getRoundDetails(address,address,MatryxPlatform.Data storage,uint256)": {
        "details": "Returns the Round Details",
        "params": {
          "roundIndex": "Round index"
        }
      },
      "getRoundInfo(address,address,MatryxPlatform.Data storage,uint256)": {
        "details": "Returns the Round Info",
        "params": {
          "roundIndex": "Round index"
        }
      },
      "getRoundState(address,address,MatryxPlatform.Data storage,uint256)": {
        "details": "Returns the state of this Tournament",
        "params": {
          "roundIndex": "Round index"
        }
      },
      "getState(address,address,MatryxPlatform.Data storage)": {
        "details": "Returns the state of this Tournament"
      },
      "getSubmissionCount(address,address,MatryxPlatform.Data storage)": {
        "details": "Returns the total number of Submissions made in all rounds of this Tournament",
        "params": {
          "data": "Data struct on Platform",
          "self": "Address of this Tournament"
        },
        "return": "Number of all Submissions in this Tournament"
      },
      "isEntrant(address,address,MatryxPlatform.Data storage,address)": {
        "details": "Returns true if address passed has entered the Tournament",
        "params": {
          "data": "Data struct on Platform",
          "self": "Address of this Tournament",
          "user": "Address of some user"
        },
        "return": "If user has entered tournament"
      },
      "recoverBounty(address,address,MatryxPlatform.Info storage,MatryxPlatform.Data storage)": {
        "details": "Tournament owner can recover tournament funds if the round ends with no submissions",
        "params": {
          "data": "Data struct on Platform",
          "info": "Info struct on Platform",
          "self": "Address of this Tournament",
          "sender": "msg.sender to the Tournament"
        }
      },
      "selectWinners(address,address,MatryxPlatform.Info storage,MatryxPlatform.Data storage,LibTournament.WinnersData,LibTournament.RoundDetails)": {
        "details": "Select winners of the current round",
        "params": {
          "data": "Data struct on Platform",
          "info": "Info struct on Platform",
          "rDetails": "New round details struct",
          "self": "Address of this Tournament",
          "sender": "msg.sender to the Tournament",
          "wData": "Winners data struct"
        }
      },
      "startNextRound(address,address,MatryxPlatform.Data storage)": {
        "details": "Starts the next Round after a SelectWinnersAction.DoNothing",
        "params": {
          "data": "Data struct on Platform",
          "self": "Address of this Tournament",
          "sender": "msg.sender to the Tournament"
        }
      },
      "transferToRound(address,address,MatryxPlatform.Data storage,uint256)": {
        "details": "Transfers some of Tournament MTX to current Round",
        "params": {
          "amount": "Amount of MTX to transfer",
          "data": "Data struct on Platform",
          "self": "Address of this Tournament",
          "sender": "msg.sender to the Tournament"
        }
      },
      "updateDetails(address,address,MatryxPlatform.Data storage,LibTournament.TournamentDetails)": {
        "details": "Updates the details of this tournament",
        "params": {
          "data": "Data struct on Platform",
          "self": "Address of this Tournament",
          "sender": "msg.sender to the Tournament",
          "tDetails": "New tournament details"
        }
      },
      "updateNextRound(address,address,MatryxPlatform.Data storage,LibTournament.RoundDetails)": {
        "details": "Updates the details of an upcoming round that has not yet started",
        "params": {
          "data": "Data struct on Platform",
          "rDetails": "New round details",
          "self": "Address of this Tournament",
          "sender": "msg.sender to the Tournament"
        }
      },
      "withdrawFromAbandoned(address,address,MatryxPlatform.Info storage,MatryxPlatform.Data storage)": {
        "details": "Entrant can withdraw an even share of remaining balance from abandoned Tournament",
        "params": {
          "data": "Data struct on Platform",
          "info": "Info struct on Platform",
          "self": "Address of this Tournament",
          "sender": "msg.sender to the Tournament"
        }
      }
    }
  },
  "userdoc": {
    "methods": {}
  }
}