{
  "contractName": "LibUser",
  "abi": [
    {
      "constant": true,
      "inputs": [
        {
          "name": "",
          "type": "address"
        },
        {
          "name": "",
          "type": "address"
        },
        {
          "name": "data",
          "type": "MatryxPlatform.Data storage"
        },
        {
          "name": "user",
          "type": "address"
        }
      ],
      "name": "getData",
      "outputs": [
        {
          "components": [
            {
              "name": "exists",
              "type": "bool"
            },
            {
              "name": "timeEntered",
              "type": "uint256"
            },
            {
              "name": "positiveVotes",
              "type": "uint256"
            },
            {
              "name": "negativeVotes",
              "type": "uint256"
            },
            {
              "name": "totalSpent",
              "type": "uint256"
            },
            {
              "name": "totalWinnings",
              "type": "uint256"
            },
            {
              "name": "tournaments",
              "type": "address[]"
            },
            {
              "name": "tournamentsEntered",
              "type": "address[]"
            },
            {
              "name": "submissions",
              "type": "address[]"
            },
            {
              "name": "contributedTo",
              "type": "address[]"
            },
            {
              "name": "unlockedFiles",
              "type": "address[]"
            }
          ],
          "name": "",
          "type": "tuple"
        }
      ],
      "payable": false,
      "stateMutability": "view",
      "type": "function"
    },
    {
      "constant": true,
      "inputs": [
        {
          "name": "",
          "type": "address"
        },
        {
          "name": "",
          "type": "address"
        },
        {
          "name": "data",
          "type": "MatryxPlatform.Data storage"
        },
        {
          "name": "user",
          "type": "address"
        }
      ],
      "name": "getTimeInMatryx",
      "outputs": [
        {
          "name": "",
          "type": "uint256"
        }
      ],
      "payable": false,
      "stateMutability": "view",
      "type": "function"
    },
    {
      "constant": true,
      "inputs": [
        {
          "name": "",
          "type": "address"
        },
        {
          "name": "",
          "type": "address"
        },
        {
          "name": "data",
          "type": "MatryxPlatform.Data storage"
        },
        {
          "name": "user",
          "type": "address"
        }
      ],
      "name": "getVotes",
      "outputs": [
        {
          "name": "",
          "type": "uint256"
        },
        {
          "name": "",
          "type": "uint256"
        }
      ],
      "payable": false,
      "stateMutability": "view",
      "type": "function"
    },
    {
      "constant": true,
      "inputs": [
        {
          "name": "",
          "type": "address"
        },
        {
          "name": "",
          "type": "address"
        },
        {
          "name": "data",
          "type": "MatryxPlatform.Data storage"
        },
        {
          "name": "user",
          "type": "address"
        }
      ],
      "name": "getTotalSpent",
      "outputs": [
        {
          "name": "",
          "type": "uint256"
        }
      ],
      "payable": false,
      "stateMutability": "view",
      "type": "function"
    },
    {
      "constant": true,
      "inputs": [
        {
          "name": "",
          "type": "address"
        },
        {
          "name": "",
          "type": "address"
        },
        {
          "name": "data",
          "type": "MatryxPlatform.Data storage"
        },
        {
          "name": "user",
          "type": "address"
        }
      ],
      "name": "getTotalWinnings",
      "outputs": [
        {
          "name": "",
          "type": "uint256"
        }
      ],
      "payable": false,
      "stateMutability": "view",
      "type": "function"
    },
    {
      "constant": true,
      "inputs": [
        {
          "name": "",
          "type": "address"
        },
        {
          "name": "",
          "type": "address"
        },
        {
          "name": "data",
          "type": "MatryxPlatform.Data storage"
        },
        {
          "name": "user",
          "type": "address"
        }
      ],
      "name": "getTournaments",
      "outputs": [
        {
          "name": "",
          "type": "address[]"
        }
      ],
      "payable": false,
      "stateMutability": "view",
      "type": "function"
    },
    {
      "constant": true,
      "inputs": [
        {
          "name": "",
          "type": "address"
        },
        {
          "name": "",
          "type": "address"
        },
        {
          "name": "data",
          "type": "MatryxPlatform.Data storage"
        },
        {
          "name": "user",
          "type": "address"
        }
      ],
      "name": "getTournamentsEntered",
      "outputs": [
        {
          "name": "",
          "type": "address[]"
        }
      ],
      "payable": false,
      "stateMutability": "view",
      "type": "function"
    },
    {
      "constant": true,
      "inputs": [
        {
          "name": "",
          "type": "address"
        },
        {
          "name": "",
          "type": "address"
        },
        {
          "name": "data",
          "type": "MatryxPlatform.Data storage"
        },
        {
          "name": "user",
          "type": "address"
        }
      ],
      "name": "getSubmissions",
      "outputs": [
        {
          "name": "",
          "type": "address[]"
        }
      ],
      "payable": false,
      "stateMutability": "view",
      "type": "function"
    },
    {
      "constant": true,
      "inputs": [
        {
          "name": "",
          "type": "address"
        },
        {
          "name": "",
          "type": "address"
        },
        {
          "name": "data",
          "type": "MatryxPlatform.Data storage"
        },
        {
          "name": "user",
          "type": "address"
        }
      ],
      "name": "getContributedTo",
      "outputs": [
        {
          "name": "",
          "type": "address[]"
        }
      ],
      "payable": false,
      "stateMutability": "view",
      "type": "function"
    },
    {
      "constant": true,
      "inputs": [
        {
          "name": "",
          "type": "address"
        },
        {
          "name": "",
          "type": "address"
        },
        {
          "name": "data",
          "type": "MatryxPlatform.Data storage"
        },
        {
          "name": "user",
          "type": "address"
        }
      ],
      "name": "getUnlockedFiles",
      "outputs": [
        {
          "name": "",
          "type": "address[]"
        }
      ],
      "payable": false,
      "stateMutability": "view",
      "type": "function"
    }
  ],
  "bytecode": "0x610b7e610030600b82828239805160001a6073146000811461002057610022565bfe5b5030600052607381538281f30073000000000000000000000000000000000000000030146080604052600436106100ba5763ffffffff7c01000000000000000000000000000000000000000000000000000000006000350416632feb3e4281146100bf578063374c9653146100e85780633ca308ac146101085780635c6995dd1461011b578063760316da1461013c57806378f78cac1461014f57806380a762ca14610162578063923c77e714610175578063c7ef5c1614610188578063d0509905146101a8575b600080fd5b6100d26100cd36600461089f565b6101bb565b6040516100df9190610aea565b60405180910390f35b6100fb6100f636600461089f565b6101ed565b6040516100df9190610ac8565b6100fb61011636600461089f565b610285565b61012e61012936600461089f565b61031b565b6040516100df929190610afe565b6100fb61014a36600461089f565b610353565b6100fb61015d36600461089f565b6103e9565b6100fb61017036600461089f565b61047f565b6100d261018336600461089f565b610515565b61019b61019636600461089f565b610549565b6040516100df9190610ad9565b6100d26101b636600461089f565b6107f1565b73ffffffffffffffffffffffffffffffffffffffff166000908152600391909101602052604090206005015492915050565b73ffffffffffffffffffffffffffffffffffffffff8116600090815260038301602090815260409182902060070180548351818402810184019094528084526060939283018282801561027657602002820191906000526020600020905b815473ffffffffffffffffffffffffffffffffffffffff16815260019091019060200180831161024b575b50505050509050949350505050565b73ffffffffffffffffffffffffffffffffffffffff81166000908152600383016020908152604091829020600a018054835181840281018401909452808452606093928301828280156102765760200282019190600052602060002090815473ffffffffffffffffffffffffffffffffffffffff16815260019091019060200180831161024b5750505050509050949350505050565b73ffffffffffffffffffffffffffffffffffffffff166000908152600391820160205260409020600281015491015490939092509050565b73ffffffffffffffffffffffffffffffffffffffff811660009081526003830160209081526040918290206009018054835181840281018401909452808452606093928301828280156102765760200282019190600052602060002090815473ffffffffffffffffffffffffffffffffffffffff16815260019091019060200180831161024b5750505050509050949350505050565b73ffffffffffffffffffffffffffffffffffffffff811660009081526003830160209081526040918290206006018054835181840281018401909452808452606093928301828280156102765760200282019190600052602060002090815473ffffffffffffffffffffffffffffffffffffffff16815260019091019060200180831161024b5750505050509050949350505050565b73ffffffffffffffffffffffffffffffffffffffff811660009081526003830160209081526040918290206008018054835181840281018401909452808452606093928301828280156102765760200282019190600052602060002090815473ffffffffffffffffffffffffffffffffffffffff16815260019091019060200180831161024b5750505050509050949350505050565b73ffffffffffffffffffffffffffffffffffffffff1660009081526003919091016020526040902060010154420392915050565b610551610823565b73ffffffffffffffffffffffffffffffffffffffff8216600090815260038085016020908152604092839020835161016081018552815460ff161515815260018201548184015260028201548186015292810154606084015260048101546080840152600581015460a08401526006810180548551818502810185019096528086529394919360c086019383018282801561062257602002820191906000526020600020905b815473ffffffffffffffffffffffffffffffffffffffff1681526001909101906020018083116105f7575b505050505081526020016007820180548060200260200160405190810160405280929190818152602001828054801561069157602002820191906000526020600020905b815473ffffffffffffffffffffffffffffffffffffffff168152600190910190602001808311610666575b505050505081526020016008820180548060200260200160405190810160405280929190818152602001828054801561070057602002820191906000526020600020905b815473ffffffffffffffffffffffffffffffffffffffff1681526001909101906020018083116106d5575b505050505081526020016009820180548060200260200160405190810160405280929190818152602001828054801561076f57602002820191906000526020600020905b815473ffffffffffffffffffffffffffffffffffffffff168152600190910190602001808311610744575b50505050508152602001600a82018054806020026020016040519081016040528092919081815260200182805480156107de57602002820191906000526020600020905b815473ffffffffffffffffffffffffffffffffffffffff1681526001909101906020018083116107b3575b5050505050815250509050949350505050565b73ffffffffffffffffffffffffffffffffffffffff166000908152600391909101602052604090206004015492915050565b61016060405190810160405280600015158152602001600081526020016000815260200160008152602001600081526020016000815260200160608152602001606081526020016060815260200160608152602001606081525090565b600061088c8235610b23565b9392505050565b600061088c8235610b41565b600080600080608085870312156108b557600080fd5b60006108c18787610880565b94505060206108d287828801610880565b93505060406108e387828801610893565b92505060606108f487828801610880565b91505092959194509250565b61090981610b23565b82525050565b600061091a82610b1f565b80845260208401935061092c83610b19565b60005b8281101561095c57610942868351610900565b61094b82610b19565b60209690960195915060010161092f565b5093949350505050565b600061097182610b1f565b80845260208401935061098383610b19565b60005b8281101561095c57610999868351610900565b6109a282610b19565b602096909601959150600101610986565b61090981610b3c565b80516000906101608401906109d185826109b3565b5060208301516109e46020860182610abf565b5060408301516109f76040860182610abf565b506060830151610a0a6060860182610abf565b506080830151610a1d6080860182610abf565b5060a0830151610a3060a0860182610abf565b5060c083015184820360c0860152610a488282610966565b91505060e083015184820360e0860152610a628282610966565b915050610100830151848203610100860152610a7e8282610966565b915050610120830151848203610120860152610a9a8282610966565b915050610140830151848203610140860152610ab68282610966565b95945050505050565b61090981610b41565b6020808252810161088c818461090f565b6020808252810161088c81846109bc565b60208101610af88284610abf565b92915050565b60408101610b0c8285610abf565b61088c6020830184610abf565b60200190565b5190565b73ffffffffffffffffffffffffffffffffffffffff1690565b151590565b905600a265627a7a72305820dd089d756c15129975026991de8940fba70d0dc7b92679b9e30c9e69c66b796d6c6578706572696d656e74616cf50037",
  "source": "pragma solidity ^0.4.24;\npragma experimental ABIEncoderV2;\n\nimport \"./MatryxPlatform.sol\";\n\ncontract MatryxUser {\n    uint256 version;\n    address system;\n\n    constructor(uint256 _version, address _system) public {\n        version = _version;\n        system = _system;\n    }\n\n    /// @dev\n    /// Gets the address of the current version of Platform and forwards the\n    /// received calldata to this address. Injects msg.sender at the front so\n    /// Platform and libraries can know calling address\n    function () public {\n        assembly {\n            let ptr := mload(0x40)\n            let offset := 0x100000000000000000000000000000000000000000000000000000000\n            let platform := 0x4d6174727978506c6174666f726d000000000000000000000000000000000000\n\n            // prepare for lookup platform from MSC\n            mstore(ptr, mul(0xc53cfd9a, offset))                                // getContract(uint256,bytes32)\n            mstore(add(ptr, 0x04), sload(version_slot))                         // arg 0 - version of this forwarder\n            mstore(add(ptr, 0x24), platform)                                    // arg 1 - 'MatryxPlatform'\n\n            // call getContract to get MatryxPlatform from MSC\n            let res := call(gas, sload(system_slot), 0, ptr, 0x44, 0, 0x20)     // call MatryxSystem.getContract\n            if iszero(res) { revert(0, 0) }                                     // safety check\n            platform := mload(0)                                                // load platform address\n\n            // forward method to MatryxPlatform, injecting msg.sender and version\n            calldatacopy(ptr, 0, 0x04)                                          // copy signature\n            mstore(add(ptr, 0x04), caller)                                      // inject msg.sender\n            mstore(add(ptr, 0x24), sload(version_slot))                         // inject version\n            calldatacopy(add(ptr, 0x44), 0x04, sub(calldatasize, 0x04))         // copy calldata for forwarding\n            res := call(gas, platform, 0, ptr, add(calldatasize, 0x40), 0, 0)   // forward method to MatryxPlatform\n            if iszero(res) { revert(0, 0) }                                     // safety check\n\n            // forward returndata to caller\n            returndatacopy(ptr, 0, returndatasize)                              // copy returndata into ptr\n            return(ptr, returndatasize)                                         // return returndata from forwarded call\n        }\n    }\n}\n\ninterface IMatryxUser {\n    function getData(address user) external view returns (LibUser.UserData);\n    function getTimeInMatryx(address user) external view returns (uint256);\n    function getVotes(address user) external view returns (uint256, uint256);\n    function getTotalSpent(address user) external view returns (uint256);\n    function getTotalWinnings(address user) external view returns (uint256);\n    function getTournaments(address user) external view returns (address[]);\n    function getTournamentsEntered(address user) external view returns (address[]);\n    function getSubmissions(address user) external view returns (address[]);\n    function getContributedTo(address user) external view returns (address[]);\n    function getUnlockedFiles(address user) external view returns (address[]);\n}\n\nlibrary LibUser {\n    struct UserData {\n        bool      exists;\n        uint256   timeEntered;\n        uint256   positiveVotes;\n        uint256   negativeVotes;\n        uint256   totalSpent;\n        uint256   totalWinnings;\n        address[] tournaments;\n        address[] tournamentsEntered;\n        address[] submissions;\n        address[] contributedTo;\n        address[] unlockedFiles;\n    }\n\n    function getData(address, address, MatryxPlatform.Data storage data, address user) public view returns (LibUser.UserData) {\n        return data.users[user];\n    }\n\n    function getTimeInMatryx(address, address, MatryxPlatform.Data storage data, address user) public view returns (uint256) {\n        return now - data.users[user].timeEntered;\n    }\n\n    function getVotes(address, address, MatryxPlatform.Data storage data, address user) public view returns (uint256, uint256) {\n        return (data.users[user].positiveVotes, data.users[user].negativeVotes);\n    }\n\n    function getTotalSpent(address, address, MatryxPlatform.Data storage data, address user) public view returns (uint256) {\n        return data.users[user].totalSpent;\n    }\n\n    function getTotalWinnings(address, address, MatryxPlatform.Data storage data, address user) public view returns (uint256) {\n        return data.users[user].totalWinnings;\n    }\n\n    function getTournaments(address, address, MatryxPlatform.Data storage data, address user) public view returns (address[]) {\n        return data.users[user].tournaments;\n    }\n\n    function getTournamentsEntered(address, address, MatryxPlatform.Data storage data, address user) public view returns (address[]) {\n        return data.users[user].tournamentsEntered;\n    }\n\n    function getSubmissions(address, address, MatryxPlatform.Data storage data, address user) public view returns (address[]) {\n        return data.users[user].submissions;\n    }\n\n    function getContributedTo(address, address, MatryxPlatform.Data storage data, address user) public view returns (address[]) {\n        return data.users[user].contributedTo;\n    }\n\n    function getUnlockedFiles(address, address, MatryxPlatform.Data storage data, address user) public view returns (address[]) {\n        return data.users[user].unlockedFiles;\n    }\n\n}\n",
  "sourcePath": "/Users/ajm13/Desktop/matryx/MatryxPlatform/contracts/MatryxUser.sol",
  "compiler": {
    "name": "solc",
    "version": "0.4.24+commit.e67f0147.Emscripten.clang"
  },
  "schemaVersion": "2.0.1",
  "updatedAt": "2018-11-07T00:18:14.875Z"
}