{
  "contractName": "LibUtils",
  "abi": [
    {
      "constant": true,
      "inputs": [
        {
          "name": "array",
          "type": "bytes32[] storage"
        },
        {
          "name": "index",
          "type": "uint256"
        },
        {
          "name": "count",
          "type": "uint256"
        }
      ],
      "name": "getSubArray",
      "outputs": [
        {
          "name": "",
          "type": "bytes32[]"
        }
      ],
      "payable": false,
      "stateMutability": "view",
      "type": "function"
    },
    {
      "constant": false,
      "inputs": [
        {
          "name": "array",
          "type": "bytes32[] storage"
        },
        {
          "name": "index",
          "type": "uint256"
        }
      ],
      "name": "removeArrayElement",
      "outputs": [],
      "payable": false,
      "stateMutability": "nonpayable",
      "type": "function"
    }
  ],
  "bytecode": "0x6104bc610030600b82828239805160001a6073146000811461002057610022565bfe5b5030600052607381538281f30073000000000000000000000000000000000000000030146080604052600436106100625763ffffffff7c01000000000000000000000000000000000000000000000000000000006000350416634a71ede88114610067578063e79eda2c14610089575b600080fd5b81801561007357600080fd5b50610087610082366004610334565b6100b2565b005b61009c61009736600461036e565b61014f565b6040516100a99190610451565b60405180910390f35b815481106100f5576040517f08c379a00000000000000000000000000000000000000000000000000000000081526004016100ec90610462565b60405180910390fd5b81546000190181101561013a5781548290600019810190811061011457fe5b9060005260206000200154828281548110151561012d57fe5b6000918252602090912001555b81546000190161014a83826102e8565b505050565b60606000606060008680549050600014156101b8578654604080516020808402820181019092528281529189918301828280156101ac57602002820191906000526020600020905b81548152600190910190602001808311610197575b505050505093506102b6565b600086101580156101c95750865486105b1515610201576040517f08c379a00000000000000000000000000000000000000000000000000000000081526004016100ec90610462565b84925060008511158061022357508654610221878763ffffffff6102c016565b115b1561023d57865461023a908763ffffffff6102d616565b92505b82604051908082528060200260200182016040528015610267578160200160208202803883390190505b509150600090505b828110156102b2578681870181548110151561028757fe5b906000526020600020015482828151811015156102a057fe5b6020908102909101015260010161026f565b8193505b5050509392505050565b6000828201838110156102cf57fe5b9392505050565b6000828211156102e257fe5b50900390565b81548183558181111561014a5760008381526020902061014a91810190830161032591905b80821115610321576000815560010161030d565b5090565b90565b60006102cf8235610325565b6000806040838503121561034757600080fd5b60006103538585610328565b925050602061036485828601610328565b9150509250929050565b60008060006060848603121561038357600080fd5b600061038f8686610328565b93505060206103a086828701610328565b92505060406103b186828701610328565b9150509250925092565b60006103c68261047e565b8084526020840193506103d883610478565b60005b82811015610408576103ee868351610412565b6103f782610478565b6020969096019591506001016103db565b5093949350505050565b61041b81610325565b82525050565b601381527f496e646578206f7574206f6620626f756e647300000000000000000000000000602082015260400190565b602080825281016102cf81846103bb565b6020808252810161047281610421565b92915050565b60200190565b51905600a265627a7a7230582099e0589690106e4b04ea771d5aa944d1de38d0fca962047541a81526452b41fa6c6578706572696d656e74616cf50037",
  "source": "pragma solidity ^0.4.24;\npragma experimental ABIEncoderV2;\n\nimport \"./SafeMath.sol\";\n\nlibrary LibUtils {\n    using SafeMath for uint256;\n\n    /// @dev Returns subarray\n    /// @param array  Array to get subarray of\n    /// @param index  Index to start at\n    /// @param count  Number elements to return\n    /// @return       Returns a subarray of array with count elements starting at index\n    function getSubArray(bytes32[] storage array, uint256 index, uint256 count) public view returns (bytes32[]) {\n        if (array.length == 0) return array;\n\n        require(index >= 0 && index < array.length, \"Index out of bounds\");\n\n        uint256 length = count;\n        if (count <= 0 || index.add(count) > array.length) {\n            length = array.length.sub(index);\n        }\n\n        bytes32[] memory subArray = new bytes32[](length);\n        for (uint256 i = 0; i < length; i++) {\n            subArray[i] = array[index + i];\n        }\n\n        return subArray;\n    }\n\n    /// @dev Removes array element and replaces with last element\n    /// @param array  Array to remove from\n    /// @param index  Element to remove\n    function removeArrayElement(bytes32[] storage array, uint256 index) public {\n        require(index < array.length, \"Index out of bounds\");\n\n        if (index < array.length - 1) {\n            array[index] = array[array.length - 1];\n        }\n\n        array.length = array.length - 1;\n    }\n}\n",
  "sourcePath": "/Users/ajm13/Desktop/matryx/MatryxPlatform/contracts/LibUtils.sol",
  "compiler": {
    "name": "solc",
    "version": "0.4.24+commit.e67f0147.Emscripten.clang"
  },
  "schemaVersion": "2.0.1",
  "updatedAt": "2018-12-08T00:27:11.111Z"
}