{
  "contractName": "LibUser",
  "abi": [
    {
      "constant": true,
      "inputs": [
        {
          "name": "",
          "type": "address"
        },
        {
          "name": "",
          "type": "address"
        },
        {
          "name": "data",
          "type": "MatryxPlatform.Data storage"
        },
        {
          "name": "user",
          "type": "address"
        }
      ],
      "name": "getData",
      "outputs": [
        {
          "components": [
            {
              "name": "exists",
              "type": "bool"
            },
            {
              "name": "timeEntered",
              "type": "uint256"
            },
            {
              "name": "positiveVotes",
              "type": "uint256"
            },
            {
              "name": "negativeVotes",
              "type": "uint256"
            },
            {
              "name": "totalSpent",
              "type": "uint256"
            },
            {
              "name": "totalWinnings",
              "type": "uint256"
            },
            {
              "name": "tournaments",
              "type": "address[]"
            },
            {
              "name": "tournamentsEntered",
              "type": "address[]"
            },
            {
              "name": "submissions",
              "type": "address[]"
            },
            {
              "name": "contributedTo",
              "type": "address[]"
            },
            {
              "name": "unlockedFiles",
              "type": "address[]"
            }
          ],
          "name": "",
          "type": "tuple"
        }
      ],
      "payable": false,
      "stateMutability": "view",
      "type": "function"
    },
    {
      "constant": true,
      "inputs": [
        {
          "name": "",
          "type": "address"
        },
        {
          "name": "",
          "type": "address"
        },
        {
          "name": "data",
          "type": "MatryxPlatform.Data storage"
        },
        {
          "name": "user",
          "type": "address"
        }
      ],
      "name": "getTimeInMatryx",
      "outputs": [
        {
          "name": "",
          "type": "uint256"
        }
      ],
      "payable": false,
      "stateMutability": "view",
      "type": "function"
    },
    {
      "constant": true,
      "inputs": [
        {
          "name": "",
          "type": "address"
        },
        {
          "name": "",
          "type": "address"
        },
        {
          "name": "data",
          "type": "MatryxPlatform.Data storage"
        },
        {
          "name": "user",
          "type": "address"
        }
      ],
      "name": "getVotes",
      "outputs": [
        {
          "name": "",
          "type": "uint256"
        },
        {
          "name": "",
          "type": "uint256"
        }
      ],
      "payable": false,
      "stateMutability": "view",
      "type": "function"
    },
    {
      "constant": true,
      "inputs": [
        {
          "name": "",
          "type": "address"
        },
        {
          "name": "",
          "type": "address"
        },
        {
          "name": "data",
          "type": "MatryxPlatform.Data storage"
        },
        {
          "name": "user",
          "type": "address"
        }
      ],
      "name": "getTotalSpent",
      "outputs": [
        {
          "name": "",
          "type": "uint256"
        }
      ],
      "payable": false,
      "stateMutability": "view",
      "type": "function"
    },
    {
      "constant": true,
      "inputs": [
        {
          "name": "",
          "type": "address"
        },
        {
          "name": "",
          "type": "address"
        },
        {
          "name": "data",
          "type": "MatryxPlatform.Data storage"
        },
        {
          "name": "user",
          "type": "address"
        }
      ],
      "name": "getTotalWinnings",
      "outputs": [
        {
          "name": "",
          "type": "uint256"
        }
      ],
      "payable": false,
      "stateMutability": "view",
      "type": "function"
    },
    {
      "constant": true,
      "inputs": [
        {
          "name": "",
          "type": "address"
        },
        {
          "name": "",
          "type": "address"
        },
        {
          "name": "data",
          "type": "MatryxPlatform.Data storage"
        },
        {
          "name": "user",
          "type": "address"
        }
      ],
      "name": "getTournaments",
      "outputs": [
        {
          "name": "",
          "type": "address[]"
        }
      ],
      "payable": false,
      "stateMutability": "view",
      "type": "function"
    },
    {
      "constant": true,
      "inputs": [
        {
          "name": "",
          "type": "address"
        },
        {
          "name": "",
          "type": "address"
        },
        {
          "name": "data",
          "type": "MatryxPlatform.Data storage"
        },
        {
          "name": "user",
          "type": "address"
        }
      ],
      "name": "getTournamentsEntered",
      "outputs": [
        {
          "name": "",
          "type": "address[]"
        }
      ],
      "payable": false,
      "stateMutability": "view",
      "type": "function"
    },
    {
      "constant": true,
      "inputs": [
        {
          "name": "",
          "type": "address"
        },
        {
          "name": "",
          "type": "address"
        },
        {
          "name": "data",
          "type": "MatryxPlatform.Data storage"
        },
        {
          "name": "user",
          "type": "address"
        }
      ],
      "name": "getSubmissions",
      "outputs": [
        {
          "name": "",
          "type": "address[]"
        }
      ],
      "payable": false,
      "stateMutability": "view",
      "type": "function"
    },
    {
      "constant": true,
      "inputs": [
        {
          "name": "",
          "type": "address"
        },
        {
          "name": "",
          "type": "address"
        },
        {
          "name": "data",
          "type": "MatryxPlatform.Data storage"
        },
        {
          "name": "user",
          "type": "address"
        },
        {
          "name": "tAddress",
          "type": "address"
        }
      ],
      "name": "getSubmissionsByTournament",
      "outputs": [
        {
          "name": "",
          "type": "address[]"
        }
      ],
      "payable": false,
      "stateMutability": "view",
      "type": "function"
    },
    {
      "constant": true,
      "inputs": [
        {
          "name": "",
          "type": "address"
        },
        {
          "name": "",
          "type": "address"
        },
        {
          "name": "data",
          "type": "MatryxPlatform.Data storage"
        },
        {
          "name": "user",
          "type": "address"
        }
      ],
      "name": "getContributedTo",
      "outputs": [
        {
          "name": "",
          "type": "address[]"
        }
      ],
      "payable": false,
      "stateMutability": "view",
      "type": "function"
    },
    {
      "constant": true,
      "inputs": [
        {
          "name": "",
          "type": "address"
        },
        {
          "name": "",
          "type": "address"
        },
        {
          "name": "data",
          "type": "MatryxPlatform.Data storage"
        },
        {
          "name": "user",
          "type": "address"
        }
      ],
      "name": "getUnlockedFiles",
      "outputs": [
        {
          "name": "",
          "type": "address[]"
        }
      ],
      "payable": false,
      "stateMutability": "view",
      "type": "function"
    }
  ],
  "bytecode": "0x610df9610030600b82828239805160001a6073146000811461002057610022565bfe5b5030600052607381538281f30073000000000000000000000000000000000000000030146080604052600436106100c55763ffffffff7c010000000000000000000000000000000000000000000000000000000060003504166325c1ca0681146100ca5780632feb3e42146100f3578063374c9653146101135780633ca308ac146101265780635c6995dd14610139578063760316da1461015a57806378f78cac1461016d57806380a762ca14610180578063923c77e714610193578063c7ef5c16146101a6578063d0509905146101c6575b600080fd5b6100dd6100d8366004610b06565b6101d9565b6040516100ea9190610d43565b60405180910390f35b610106610101366004610aa5565b6103c1565b6040516100ea9190610d65565b6100dd610121366004610aa5565b6103f0565b6100dd610134366004610aa5565b610488565b61014c610147366004610aa5565b61051e565b6040516100ea929190610d79565b6100dd610168366004610aa5565b610559565b6100dd61017b366004610aa5565b6105ef565b6100dd61018e366004610aa5565b610685565b6101066101a1366004610aa5565b61071b565b6101b96101b4366004610aa5565b61074f565b6040516100ea9190610d54565b6101066101d4366004610aa5565b6109f7565b73ffffffffffffffffffffffffffffffffffffffff8216600090815260058401602052604081206060916008909101908080845b8454831015610294578673ffffffffffffffffffffffffffffffffffffffff16896004016000878681548110151561024157fe5b600091825260208083209091015473ffffffffffffffffffffffffffffffffffffffff9081168452908301939093526040909101902060020154161415610289576001909301925b60019092019161020d565b60009150836040519080825280602002602001820160405280156102c2578160200160208202803883390190505b509050600092505b84548310156103b3578673ffffffffffffffffffffffffffffffffffffffff1689600401600087868154811015156102fe57fe5b600091825260208083209091015473ffffffffffffffffffffffffffffffffffffffff90811684529083019390935260409091019020600201541614156103a857848381548110151561034d57fe5b6000918252602090912001548151600184019373ffffffffffffffffffffffffffffffffffffffff909216918391811061038357fe5b73ffffffffffffffffffffffffffffffffffffffff9092166020928302909101909101525b6001909201916102ca565b9a9950505050505050505050565b73ffffffffffffffffffffffffffffffffffffffff166000908152600591820160205260409020015492915050565b73ffffffffffffffffffffffffffffffffffffffff8116600090815260058301602090815260409182902060070180548351818402810184019094528084526060939283018282801561047957602002820191906000526020600020905b815473ffffffffffffffffffffffffffffffffffffffff16815260019091019060200180831161044e575b50505050509050949350505050565b73ffffffffffffffffffffffffffffffffffffffff81166000908152600583016020908152604091829020600a018054835181840281018401909452808452606093928301828280156104795760200282019190600052602060002090815473ffffffffffffffffffffffffffffffffffffffff16815260019091019060200180831161044e5750505050509050949350505050565b73ffffffffffffffffffffffffffffffffffffffff811660009081526005830160205260409020600281015460039091015494509492505050565b73ffffffffffffffffffffffffffffffffffffffff811660009081526005830160209081526040918290206009018054835181840281018401909452808452606093928301828280156104795760200282019190600052602060002090815473ffffffffffffffffffffffffffffffffffffffff16815260019091019060200180831161044e5750505050509050949350505050565b73ffffffffffffffffffffffffffffffffffffffff811660009081526005830160209081526040918290206006018054835181840281018401909452808452606093928301828280156104795760200282019190600052602060002090815473ffffffffffffffffffffffffffffffffffffffff16815260019091019060200180831161044e5750505050509050949350505050565b73ffffffffffffffffffffffffffffffffffffffff811660009081526005830160209081526040918290206008018054835181840281018401909452808452606093928301828280156104795760200282019190600052602060002090815473ffffffffffffffffffffffffffffffffffffffff16815260019091019060200180831161044e5750505050509050949350505050565b73ffffffffffffffffffffffffffffffffffffffff1660009081526005919091016020526040902060010154420392915050565b610757610a29565b73ffffffffffffffffffffffffffffffffffffffff8216600090815260058085016020908152604092839020835161016081018552815460ff161515815260018201548184015260028201548186015260038201546060820152600482015460808201529281015460a08401526006810180548551818502810185019096528086529394919360c086019383018282801561082857602002820191906000526020600020905b815473ffffffffffffffffffffffffffffffffffffffff1681526001909101906020018083116107fd575b505050505081526020016007820180548060200260200160405190810160405280929190818152602001828054801561089757602002820191906000526020600020905b815473ffffffffffffffffffffffffffffffffffffffff16815260019091019060200180831161086c575b505050505081526020016008820180548060200260200160405190810160405280929190818152602001828054801561090657602002820191906000526020600020905b815473ffffffffffffffffffffffffffffffffffffffff1681526001909101906020018083116108db575b505050505081526020016009820180548060200260200160405190810160405280929190818152602001828054801561097557602002820191906000526020600020905b815473ffffffffffffffffffffffffffffffffffffffff16815260019091019060200180831161094a575b50505050508152602001600a82018054806020026020016040519081016040528092919081815260200182805480156109e457602002820191906000526020600020905b815473ffffffffffffffffffffffffffffffffffffffff1681526001909101906020018083116109b9575b5050505050815250509050949350505050565b73ffffffffffffffffffffffffffffffffffffffff166000908152600591909101602052604090206004015492915050565b61016060405190810160405280600015158152602001600081526020016000815260200160008152602001600081526020016000815260200160608152602001606081526020016060815260200160608152602001606081525090565b6000610a928235610d9e565b9392505050565b6000610a928235610dbc565b60008060008060808587031215610abb57600080fd5b6000610ac78787610a86565b9450506020610ad887828801610a86565b9350506040610ae987828801610a99565b9250506060610afa87828801610a86565b91505092959194509250565b600080600080600060a08688031215610b1e57600080fd5b6000610b2a8888610a86565b9550506020610b3b88828901610a86565b9450506040610b4c88828901610a99565b9350506060610b5d88828901610a86565b9250506080610b6e88828901610a86565b9150509295509295909350565b610b8481610d9e565b82525050565b6000610b9582610d9a565b808452602084019350610ba783610d94565b60005b82811015610bd757610bbd868351610b7b565b610bc682610d94565b602096909601959150600101610baa565b5093949350505050565b6000610bec82610d9a565b808452602084019350610bfe83610d94565b60005b82811015610bd757610c14868351610b7b565b610c1d82610d94565b602096909601959150600101610c01565b610b8481610db7565b8051600090610160840190610c4c8582610c2e565b506020830151610c5f6020860182610d3a565b506040830151610c726040860182610d3a565b506060830151610c856060860182610d3a565b506080830151610c986080860182610d3a565b5060a0830151610cab60a0860182610d3a565b5060c083015184820360c0860152610cc38282610be1565b91505060e083015184820360e0860152610cdd8282610be1565b915050610100830151848203610100860152610cf98282610be1565b915050610120830151848203610120860152610d158282610be1565b915050610140830151848203610140860152610d318282610be1565b95945050505050565b610b8481610dbc565b60208082528101610a928184610b8a565b60208082528101610a928184610c37565b60208101610d738284610d3a565b92915050565b60408101610d878285610d3a565b610a926020830184610d3a565b60200190565b5190565b73ffffffffffffffffffffffffffffffffffffffff1690565b151590565b905600a265627a7a72305820f86f5d7b0a87b78a6cac2350a8982ba5c5557d5232df93c0d107a088c81118a36c6578706572696d656e74616cf50037",
  "source": "pragma solidity ^0.4.24;\npragma experimental ABIEncoderV2;\n\nimport \"./MatryxPlatform.sol\";\n\ncontract MatryxUser {\n    struct Info {\n        uint256 version;\n        address system;\n    }\n\n    Info info;\n\n    constructor(uint256 _version, address _system) public {\n        info.version = _version;\n        info.system = _system;\n    }\n\n    /// @dev\n    /// Gets the address of the current version of Platform and forwards the\n    /// received calldata to this address. Injects msg.sender at the front so\n    /// Platform and libraries can know calling address\n    function () public {\n        assembly {\n            let ptr := mload(0x40)\n            let offset := 0x100000000000000000000000000000000000000000000000000000000\n            let platform := 0x4d6174727978506c6174666f726d000000000000000000000000000000000000\n            let version := sload(info_slot)\n            let system := sload(add(info_slot, 1))\n\n            // prepare for lookup platform from MSC\n            mstore(ptr, mul(0xc53cfd9a, offset))                                // getContract(uint256,bytes32)\n            mstore(add(ptr, 0x04), version)                                     // arg 0 - version of this forwarder\n            mstore(add(ptr, 0x24), platform)                                    // arg 1 - 'MatryxPlatform'\n\n            // call getContract to get MatryxPlatform from MSC\n            let res := call(gas, system, 0, ptr, 0x44, 0, 0x20)                 // call MatryxSystem.getContract\n            if iszero(res) { revert(0, 0) }                                     // safety check\n            platform := mload(0)                                                // load platform address\n\n            // forward method to MatryxPlatform, injecting msg.sender\n            calldatacopy(ptr, 0, 0x04)                                          // copy signature\n            mstore(add(ptr, 0x04), caller)                                      // inject msg.sender\n            mstore(add(ptr, 0x24), version)                                     // inject version\n            calldatacopy(add(ptr, 0x44), 0x04, sub(calldatasize, 0x04))         // copy calldata for forwarding\n            res := call(gas, platform, 0, ptr, add(calldatasize, 0x40), 0, 0)   // forward method to MatryxPlatform\n            if iszero(res) { revert(0, 0) }                                     // safety check\n\n            // forward returndata to caller\n            returndatacopy(ptr, 0, returndatasize)                              // copy returndata into ptr\n            return(ptr, returndatasize)                                         // return returndata from forwarded call\n        }\n    }\n}\n\ninterface IMatryxUser {\n    function getData(address user) external view returns (LibUser.UserData);\n    function getTimeInMatryx(address user) external view returns (uint256);\n    function getVotes(address user) external view returns (uint256, uint256);\n    function getTotalSpent(address user) external view returns (uint256);\n    function getTotalWinnings(address user) external view returns (uint256);\n    function getTournaments(address user) external view returns (address[]);\n    function getTournamentsEntered(address user) external view returns (address[]);\n    function getSubmissions(address user) external view returns (address[]);\n    function getSubmissionsByTournament(address user, address tAddress) external view returns (address[]);\n    function getContributedTo(address user) external view returns (address[]);\n    function getUnlockedFiles(address user) external view returns (address[]);\n}\n\nlibrary LibUser {\n    struct UserData {\n        bool      exists;\n        uint256   timeEntered;\n        uint256   positiveVotes;\n        uint256   negativeVotes;\n        uint256   totalSpent;\n        uint256   totalWinnings;\n        address[] tournaments;\n        address[] tournamentsEntered;\n        address[] submissions;\n        address[] contributedTo;\n        address[] unlockedFiles;\n    }\n\n    function getData(address, address, MatryxPlatform.Data storage data, address user) public view returns (LibUser.UserData) {\n        return data.users[user];\n    }\n\n    function getTimeInMatryx(address, address, MatryxPlatform.Data storage data, address user) public view returns (uint256) {\n        return now - data.users[user].timeEntered;\n    }\n\n    function getVotes(address, address, MatryxPlatform.Data storage data, address user) public view returns (uint256, uint256) {\n        return (data.users[user].positiveVotes, data.users[user].negativeVotes);\n    }\n\n    function getTotalSpent(address, address, MatryxPlatform.Data storage data, address user) public view returns (uint256) {\n        return data.users[user].totalSpent;\n    }\n\n    function getTotalWinnings(address, address, MatryxPlatform.Data storage data, address user) public view returns (uint256) {\n        return data.users[user].totalWinnings;\n    }\n\n    function getTournaments(address, address, MatryxPlatform.Data storage data, address user) public view returns (address[]) {\n        return data.users[user].tournaments;\n    }\n\n    function getTournamentsEntered(address, address, MatryxPlatform.Data storage data, address user) public view returns (address[]) {\n        return data.users[user].tournamentsEntered;\n    }\n\n    function getSubmissions(address, address, MatryxPlatform.Data storage data, address user) public view returns (address[]) {\n        return data.users[user].submissions;\n    }\n\n    function getSubmissionsByTournament(address, address, MatryxPlatform.Data storage data, address user, address tAddress) public view returns (address[]) {\n        address[] storage submissions = data.users[user].submissions;\n\n        uint256 tSubCount = 0;\n        for (uint256 i = 0; i < submissions.length; i++) {\n            if (data.submissions[submissions[i]].info.tournament == tAddress) {\n                tSubCount++;\n            }\n        }\n\n        uint256 j = 0;\n        address[] memory tSubs = new address[](tSubCount);\n\n        for (i = 0; i < submissions.length; i++) {\n            if (data.submissions[submissions[i]].info.tournament == tAddress) {\n                tSubs[j++] = submissions[i];\n            }\n        }\n\n        return tSubs;\n    }\n\n    function getContributedTo(address, address, MatryxPlatform.Data storage data, address user) public view returns (address[]) {\n        return data.users[user].contributedTo;\n    }\n\n    function getUnlockedFiles(address, address, MatryxPlatform.Data storage data, address user) public view returns (address[]) {\n        return data.users[user].unlockedFiles;\n    }\n\n}\n",
  "sourcePath": "/Users/ajm13/Desktop/matryx/MatryxPlatform/contracts/MatryxUser.sol",
  "compiler": {
    "name": "solc",
    "version": "0.4.24+commit.e67f0147.Emscripten.clang"
  },
  "schemaVersion": "2.0.1",
  "updatedAt": "2018-12-08T00:27:11.115Z"
}