{
  "contractName": "LibUser",
  "abi": [
    {
      "constant": true,
      "inputs": [
        {
          "name": "",
          "type": "address"
        },
        {
          "name": "",
          "type": "address"
        },
        {
          "name": "data",
          "type": "MatryxPlatform.Data storage"
        },
        {
          "name": "user",
          "type": "address"
        }
      ],
      "name": "getData",
      "outputs": [
        {
          "components": [
            {
              "name": "exists",
              "type": "bool"
            },
            {
              "name": "timeEntered",
              "type": "uint256"
            },
            {
              "name": "totalSpent",
              "type": "uint256"
            },
            {
              "name": "totalWithdrawn",
              "type": "uint256"
            },
            {
              "name": "tournaments",
              "type": "address[]"
            },
            {
              "name": "tournamentsEntered",
              "type": "address[]"
            },
            {
              "name": "submissions",
              "type": "bytes32[]"
            }
          ],
          "name": "",
          "type": "tuple"
        }
      ],
      "payable": false,
      "stateMutability": "view",
      "type": "function",
      "signature": "0xc7ef5c16"
    },
    {
      "constant": true,
      "inputs": [
        {
          "name": "",
          "type": "address"
        },
        {
          "name": "",
          "type": "address"
        },
        {
          "name": "data",
          "type": "MatryxPlatform.Data storage"
        },
        {
          "name": "user",
          "type": "address"
        }
      ],
      "name": "getTimeInMatryx",
      "outputs": [
        {
          "name": "",
          "type": "uint256"
        }
      ],
      "payable": false,
      "stateMutability": "view",
      "type": "function",
      "signature": "0x923c77e7"
    },
    {
      "constant": true,
      "inputs": [
        {
          "name": "",
          "type": "address"
        },
        {
          "name": "",
          "type": "address"
        },
        {
          "name": "data",
          "type": "MatryxPlatform.Data storage"
        },
        {
          "name": "user",
          "type": "address"
        }
      ],
      "name": "getTotalSpent",
      "outputs": [
        {
          "name": "",
          "type": "uint256"
        }
      ],
      "payable": false,
      "stateMutability": "view",
      "type": "function",
      "signature": "0xd0509905"
    },
    {
      "constant": true,
      "inputs": [
        {
          "name": "",
          "type": "address"
        },
        {
          "name": "",
          "type": "address"
        },
        {
          "name": "data",
          "type": "MatryxPlatform.Data storage"
        },
        {
          "name": "user",
          "type": "address"
        }
      ],
      "name": "getTotalWithdrawn",
      "outputs": [
        {
          "name": "",
          "type": "uint256"
        }
      ],
      "payable": false,
      "stateMutability": "view",
      "type": "function",
      "signature": "0x8f3906ed"
    },
    {
      "constant": true,
      "inputs": [
        {
          "name": "",
          "type": "address"
        },
        {
          "name": "",
          "type": "address"
        },
        {
          "name": "data",
          "type": "MatryxPlatform.Data storage"
        },
        {
          "name": "user",
          "type": "address"
        }
      ],
      "name": "getTournaments",
      "outputs": [
        {
          "name": "",
          "type": "address[]"
        }
      ],
      "payable": false,
      "stateMutability": "view",
      "type": "function",
      "signature": "0x78f78cac"
    },
    {
      "constant": true,
      "inputs": [
        {
          "name": "",
          "type": "address"
        },
        {
          "name": "",
          "type": "address"
        },
        {
          "name": "data",
          "type": "MatryxPlatform.Data storage"
        },
        {
          "name": "user",
          "type": "address"
        }
      ],
      "name": "getTournamentsEntered",
      "outputs": [
        {
          "name": "",
          "type": "address[]"
        }
      ],
      "payable": false,
      "stateMutability": "view",
      "type": "function",
      "signature": "0x374c9653"
    },
    {
      "constant": true,
      "inputs": [
        {
          "name": "",
          "type": "address"
        },
        {
          "name": "",
          "type": "address"
        },
        {
          "name": "data",
          "type": "MatryxPlatform.Data storage"
        },
        {
          "name": "user",
          "type": "address"
        }
      ],
      "name": "getSubmissions",
      "outputs": [
        {
          "name": "",
          "type": "bytes32[]"
        }
      ],
      "payable": false,
      "stateMutability": "view",
      "type": "function",
      "signature": "0x80a762ca"
    }
  ],
  "bytecode": "0x6108bf610030600b82828239805160001a6073146000811461002057610022565bfe5b5030600052607381538281f3fe73000000000000000000000000000000000000000030146080604052600436106100995763ffffffff7c0100000000000000000000000000000000000000000000000000000000600035041663374c9653811461009e57806378f78cac146100c757806380a762ca146100da5780638f3906ed146100fa578063923c77e71461011a578063c7ef5c161461012d578063d05099051461014d575b600080fd5b6100b16100ac3660046105a6565b610160565b6040516100be9190610808565b60405180910390f35b6100b16100d53660046105a6565b6101f9565b6100ed6100e83660046105a6565b61028f565b6040516100be9190610819565b61010d6101083660046105a6565b61030f565b6040516100be919061083b565b61010d6101283660046105a6565b610341565b61014061013b3660046105a6565b610375565b6040516100be919061082a565b61010d61015b3660046105a6565b610515565b73ffffffffffffffffffffffffffffffffffffffff81166000908152600580840160209081526040928390209091018054835181840281018401909452808452606093928301828280156101ea57602002820191906000526020600020905b815473ffffffffffffffffffffffffffffffffffffffff1681526001909101906020018083116101bf575b50505050509050949350505050565b73ffffffffffffffffffffffffffffffffffffffff811660009081526005830160209081526040918290206004018054835181840281018401909452808452606093928301828280156101ea5760200282019190600052602060002090815473ffffffffffffffffffffffffffffffffffffffff1681526001909101906020018083116101bf5750505050509050949350505050565b73ffffffffffffffffffffffffffffffffffffffff811660009081526005830160209081526040918290206006018054835181840281018401909452808452606093928301828280156101ea57602002820191906000526020600020905b8154815260200190600101908083116102ed5750505050509050949350505050565b73ffffffffffffffffffffffffffffffffffffffff166000908152600591909101602052604090206003015492915050565b73ffffffffffffffffffffffffffffffffffffffff1660009081526005919091016020526040902060010154420392915050565b61037d610547565b73ffffffffffffffffffffffffffffffffffffffff82166000908152600584016020908152604091829020825160e081018452815460ff161515815260018201548184015260028201548185015260038201546060820152600482018054855181860281018601909652808652919492936080860193929083018282801561043b57602002820191906000526020600020905b815473ffffffffffffffffffffffffffffffffffffffff168152600190910190602001808311610410575b50505050508152602001600582018054806020026020016040519081016040528092919081815260200182805480156104aa57602002820191906000526020600020905b815473ffffffffffffffffffffffffffffffffffffffff16815260019091019060200180831161047f575b505050505081526020016006820180548060200260200160405190810160405280929190818152602001828054801561050257602002820191906000526020600020905b8154815260200190600101908083116104ee575b5050505050815250509050949350505050565b73ffffffffffffffffffffffffffffffffffffffff166000908152600591909101602052604090206002015492915050565b60e0604051908101604052806000151581526020016000815260200160008152602001600081526020016060815260200160608152602001606081525090565b60006105938235610859565b9392505050565b60006105938235610869565b600080600080608085870312156105bc57600080fd5b60006105c88787610587565b94505060206105d987828801610587565b93505060406105ea8782880161059a565b92505060606105fb87828801610587565b91505092959194509250565b61061081610859565b82525050565b600061062182610855565b8084526020840193506106338361084f565b60005b8281101561066357610649868351610607565b6106528261084f565b602096909601959150600101610636565b5093949350505050565b600061067882610855565b80845260208401935061068a8361084f565b60005b82811015610663576106a0868351610607565b6106a98261084f565b60209690960195915060010161068d565b60006106c582610855565b8084526020840193506106d78361084f565b60005b82811015610663576106ed86835161075d565b6106f68261084f565b6020969096019591506001016106da565b600061071282610855565b8084526020840193506107248361084f565b60005b828110156106635761073a86835161075d565b6107438261084f565b602096909601959150600101610727565b61061081610864565b61061081610869565b805160009060e084019061077a8582610754565b50602083015161078d602086018261075d565b5060408301516107a0604086018261075d565b5060608301516107b3606086018261075d565b50608083015184820360808601526107cb828261066d565b91505060a083015184820360a08601526107e5828261066d565b91505060c083015184820360c08601526107ff8282610707565b95945050505050565b602080825281016105938184610616565b6020808252810161059381846106ba565b602080825281016105938184610766565b60208101610849828461075d565b92915050565b60200190565b5190565b60006108498261086c565b151590565b90565b73ffffffffffffffffffffffffffffffffffffffff169056fea265627a7a723058208ca98d3dc6c14356a32459e8299734229ea994266b445b34e4b8b40bb485eb166c6578706572696d656e74616cf50037",
  "source": "pragma solidity ^0.5.0;\npragma experimental ABIEncoderV2;\n\nimport \"./MatryxPlatform.sol\";\nimport \"./MatryxForwarder.sol\";\n\ncontract MatryxUser is MatryxForwarder {\n    constructor(uint256 _version, address _system) MatryxForwarder(_version, _system) public {}\n}\n\ninterface IMatryxUser {\n    function getData(address user) external view returns (LibUser.UserData memory);\n    function getTimeInMatryx(address user) external view returns (uint256);\n    function getTotalSpent(address user) external view returns (uint256);\n    function getTotalWithdrawn(address user) external view returns (uint256);\n    function getTournaments(address user) external view returns (address[] memory);\n    function getTournamentsEntered(address user) external view returns (address[] memory);\n    function getSubmissions(address user) external view returns (bytes32[] memory);\n}\n\nlibrary LibUser {\n    struct UserData {\n        bool      exists;\n        uint256   timeEntered;\n        uint256   totalSpent;\n        uint256   totalWithdrawn;\n        address[] tournaments;\n        address[] tournamentsEntered;\n        bytes32[] submissions;\n    }\n\n    function getData(address, address, MatryxPlatform.Data storage data, address user) public view returns (LibUser.UserData memory) {\n        return data.users[user];\n    }\n\n    function getTimeInMatryx(address, address, MatryxPlatform.Data storage data, address user) public view returns (uint256) {\n        return now - data.users[user].timeEntered;\n    }\n\n    function getTotalSpent(address, address, MatryxPlatform.Data storage data, address user) public view returns (uint256) {\n        return data.users[user].totalSpent;\n    }\n\n    function getTotalWithdrawn(address, address, MatryxPlatform.Data storage data, address user) public view returns (uint256) {\n        return data.users[user].totalWithdrawn;\n    }\n\n    function getTournaments(address, address, MatryxPlatform.Data storage data, address user) public view returns (address[] memory) {\n        return data.users[user].tournaments;\n    }\n\n    function getTournamentsEntered(address, address, MatryxPlatform.Data storage data, address user) public view returns (address[] memory) {\n        return data.users[user].tournamentsEntered;\n    }\n\n    function getSubmissions(address, address, MatryxPlatform.Data storage data, address user) public view returns (bytes32[] memory) {\n        return data.users[user].submissions;\n    }\n}\n",
  "sourcePath": "/Users/maxhoward/Desktop/Ethereum/MatryxPlatform/contracts/MatryxUser.sol",
  "compiler": {
    "name": "solc",
    "version": "0.5.0+commit.1d4f565a.Emscripten.clang"
  },
  "schemaVersion": "3.0.1",
  "updatedAt": "2019-02-02T23:20:23.514Z",
  "devdoc": {
    "methods": {}
  },
  "userdoc": {
    "methods": {}
  }
}