{
  "contractName": "MatryxPlatform",
  "abi": [
    {
      "inputs": [
        {
          "name": "system",
          "type": "address"
        },
        {
          "name": "token",
          "type": "address"
        }
      ],
      "payable": false,
      "stateMutability": "nonpayable",
      "type": "constructor",
      "signature": "constructor"
    },
    {
      "payable": false,
      "stateMutability": "nonpayable",
      "type": "fallback"
    },
    {
      "constant": false,
      "inputs": [
        {
          "name": "newOwner",
          "type": "address"
        }
      ],
      "name": "setPlatformOwner",
      "outputs": [],
      "payable": false,
      "stateMutability": "nonpayable",
      "type": "function",
      "signature": "0x54daabc3"
    },
    {
      "constant": false,
      "inputs": [
        {
          "name": "token",
          "type": "address"
        }
      ],
      "name": "upgradeToken",
      "outputs": [],
      "payable": false,
      "stateMutability": "nonpayable",
      "type": "function",
      "signature": "0x6ee31a18"
    },
    {
      "constant": false,
      "inputs": [
        {
          "name": "token",
          "type": "address"
        }
      ],
      "name": "withdrawTokens",
      "outputs": [],
      "payable": false,
      "stateMutability": "nonpayable",
      "type": "function",
      "signature": "0x49df728c"
    }
  ],
  "bytecode": "0x608060405234801561001057600080fd5b50604051604080610b4a833981018060405261002f9190810190610083565b60008054600160a060020a03938416600160a060020a03199182161790915560018054929093169181169190911790915560028054909116331790556100da565b600061007c82516100c9565b9392505050565b6000806040838503121561009657600080fd5b60006100a28585610070565b92505060206100b385828601610070565b9150509250929050565b600160a060020a031690565b60006100d4826100bd565b92915050565b610a61806100e96000396000f3fe6080604052600436106100565763ffffffff7c010000000000000000000000000000000000000000000000000000000060003504166349df728c81146103ae57806354daabc3146103d05780636ee31a18146103f0575b34801561006257600080fd5b5060008054604080517f0d8e6e2c0000000000000000000000000000000000000000000000000000000081529051600160a060020a0390921691630d8e6e2c91600480820192602092909190829003018186803b1580156100c257600080fd5b505afa1580156100d6573d6000803e3d6000fd5b505050506040513d601f19601f820116820180604052506100fa919081019061087f565b600080546040517fa8bc39270000000000000000000000000000000000000000000000000000000081529293509091600160a060020a039091169063a8bc392790610149903390600401610982565b60206040518083038186803b15801561016157600080fd5b505afa158015610175573d6000803e3d6000fd5b505050506040513d601f19601f82011682018060405250610199919081019061087f565b90507f4c6962506c6174666f726d00000000000000000000000000000000000000000081148015906101d2576020602460003760005192505b600080546040517fc53cfd9a000000000000000000000000000000000000000000000000000000008152600160a060020a039091169063c53cfd9a9061021e90879087906004016109e9565b60206040518083038186803b15801561023657600080fd5b505afa15801561024a573d6000803e3d6000fd5b505050506040513d601f19601f8201168201806040525061026e9190810190610843565b90507c0100000000000000000000000000000000000000000000000000000000600060405160005483633b15aabf0282528760048301528660248301526004600060448401376000806064846000855af192508215156102cd57600080fd5b3d6000833e815182016020810151810180516020820191506040830151830180516020820191503d870196508451875260048701945030855233602086015260048b15610324573386526020600460208801376040015b60408601955060005b8481101561034c5760208181028701518852969096019560010161032d565b5080360381873760005b82811015610380576020818102850151810288018051600288019092029091019052600101610356565b50600284016020023682900301600401600080828b8f5af499503d60008a3e8915156103aa573d89fd5b3d89f35b3480156103ba57600080fd5b506103ce6103c936600461081d565b610410565b005b3480156103dc57600080fd5b506103ce6103eb36600461081d565b6105cc565b3480156103fc57600080fd5b506103ce61040b36600461081d565b61063d565b600254600160a060020a031633146104465760405160e560020a62461bcd02815260040161043d906109cb565b60405180910390fd5b6040517f70a08231000000000000000000000000000000000000000000000000000000008152600090600160a060020a038316906370a082319061048e903090600401610974565b60206040518083038186803b1580156104a657600080fd5b505afa1580156104ba573d6000803e3d6000fd5b505050506040513d601f19601f820116820180604052506104de919081019061087f565b600154909150600160a060020a038381169116141561050e5760035461050b90829063ffffffff6107cf16565b90505b6040517fa9059cbb000000000000000000000000000000000000000000000000000000008152600160a060020a0383169063a9059cbb906105559033908590600401610990565b602060405180830381600087803b15801561056f57600080fd5b505af1158015610583573d6000803e3d6000fd5b505050506040513d601f19601f820116820180604052506105a79190810190610861565b15156105c85760405160e560020a62461bcd02815260040161043d906109bb565b5050565b600254600160a060020a031633146105f95760405160e560020a62461bcd02815260040161043d906109cb565b600160a060020a038116151561060e57600080fd5b6002805473ffffffffffffffffffffffffffffffffffffffff1916600160a060020a0392909216919091179055565b600254600160a060020a0316331461066a5760405160e560020a62461bcd02815260040161043d906109cb565b6001546003546040517f45977d03000000000000000000000000000000000000000000000000000000008152600160a060020a03909216916345977d03916106b4916004016109db565b600060405180830381600087803b1580156106ce57600080fd5b505af11580156106e2573d6000803e3d6000fd5b50506003546040517f70a08231000000000000000000000000000000000000000000000000000000008152909250600160a060020a03841691506370a0823190610730903090600401610974565b60206040518083038186803b15801561074857600080fd5b505afa15801561075c573d6000803e3d6000fd5b505050506040513d601f19601f82011682018060405250610780919081019061087f565b146107a05760405160e560020a62461bcd02815260040161043d906109ab565b6001805473ffffffffffffffffffffffffffffffffffffffff1916600160a060020a0392909216919091179055565b6000828211156107db57fe5b508082035b92915050565b60006107f282356109f7565b9392505050565b60006107f282516109f7565b60006107f28251610a11565b60006107f28251610a02565b60006020828403121561082f57600080fd5b600061083b84846107e6565b949350505050565b60006020828403121561085557600080fd5b600061083b84846107f9565b60006020828403121561087357600080fd5b600061083b8484610805565b60006020828403121561089157600080fd5b600061083b8484610811565b6108a681610a16565b82525050565b6108a6816109f7565b6108a681610a02565b602781527f546f6b656e2061646472657373206d757374206d61746368207570677261646560208201527f6420746f6b656e00000000000000000000000000000000000000000000000000604082015260600190565b600f81527f5472616e73666572206661696c65640000000000000000000000000000000000602082015260400190565b601681527f4d75737420626520506c6174666f726d206f776e657200000000000000000000602082015260400190565b602081016107e082846108ac565b602081016107e0828461089d565b6040810161099e828561089d565b6107f260208301846108b5565b602080825281016107e0816108be565b602080825281016107e081610914565b602080825281016107e081610944565b602081016107e082846108b5565b6040810161099e82856108b5565b60006107e082610a05565b90565b600160a060020a031690565b151590565b60006107e08260006107e0826109f756fea265627a7a72305820f479d8f0d8bc3947ef7c38131d3e62628d2a478bc37556f02525aae79216e9cc6c6578706572696d656e74616cf50037",
  "source": "pragma solidity ^0.5.0;\npragma experimental ABIEncoderV2;\n\nimport \"./SafeMath.sol\";\nimport \"./IToken.sol\";\nimport \"./MatryxSystem.sol\";\nimport \"./LibTournament.sol\";\n\ncontract MatryxPlatform {\n    using SafeMath for uint256;\n\n    struct Info {\n        address system;\n        address token;\n        address owner;\n    }\n\n    struct Data {\n        uint256 totalBalance;                                        // total allocated mtx balance of the platform\n        mapping(address=>uint256) tournamentBalance;                 // maps tournament addresses to tournament balances\n        mapping(bytes32=>uint256) commitBalance;                     // maps commit hashes to commit mtx balances\n\n        mapping(address=>LibTournament.TournamentData) tournaments;  // maps tournament addresses to tournament structs\n        mapping(bytes32=>LibTournament.SubmissionData) submissions;  // maps submission identifier to submission struct\n\n        address[] allTournaments;                                    // all matryx tournament addresses\n\n        mapping(bytes32=>LibCommit.Commit) commits;                  // maps commit hashes to commits\n        mapping(bytes32=>LibCommit.Group) groups;                    // maps group hashes to group structs\n        mapping(bytes32=>bytes32) commitHashes;                      // maps content hashes to commit hashes\n        mapping(bytes32=>bytes32[]) commitToSubmissions;             // maps commits to submission created from them\n        mapping(bytes32=>LibCommit.CommitWithdrawalStats) commitWithdrawalStats; // maps commit hash to withdrawal stats\n\n        bytes32[] initialCommits;                                    // all commits without parents\n        mapping(bytes32=>uint256) commitClaims;                      // timestamp of content hash claim\n\n        mapping(address=>bool) whitelist;                            // user whitelist\n        mapping(address=>bool) blacklist;                            // user blacklist\n    }\n\n    Info info;                                                       // slot 0\n    Data data;                                                       // slot 3\n\n    constructor(address system, address token) public {\n        info.system = system;\n        info.token = token;\n        info.owner = msg.sender;\n    }\n\n    /// @dev\n    /// 1) Uses msg.sender to ask MatryxSystem for the type of library this call should be forwarded to\n    /// 2) Uses this library type to lookup (in its own storage) the name of the library\n    /// 3) Uses this name to ask MatryxSystem for the address of the contract (under this platform's version)\n    /// 4) Uses name and signature to ask MatryxSystem for the data necessary to modify the incoming calldata\n    ///    so as to be appropriate for the associated library call\n    /// 5) Makes a delegatecall to the library address given by MatryxSystem with the library-appropriate calldata\n    function () external {\n        uint256 version = IMatryxSystem(info.system).getVersion();\n        bytes32 libName = IMatryxSystem(info.system).getLibraryName(msg.sender);\n        bool isForwarded = libName != bytes32(\"LibPlatform\");\n\n        assembly {\n            if isForwarded {\n                calldatacopy(0, 0x24, 0x20)                                     // get injected version from calldata\n                version := mload(0)                                             // overwrite version var\n            }\n        }\n\n        address libAddress = IMatryxSystem(info.system).getContract(version, libName);\n\n        assembly {\n            // constants\n            let offset := 0x100000000000000000000000000000000000000000000000000000000\n\n            let res\n            let ptr := mload(0x40)                                              // scratch space for calldata\n            let system := sload(info_slot)                                      // load info.system address\n\n            // get fnData from system\n            mstore(ptr, mul(0x3b15aabf, offset))                                // getContractMethod(uint256,bytes32,bytes32)\n            mstore(add(ptr, 0x04), version)                                     // arg 0 - version\n            mstore(add(ptr, 0x24), libName)                                     // arg 1 - library name\n            calldatacopy(add(ptr, 0x44), 0, 0x04)                               // arg 2 - fn selector\n            res := call(gas, system, 0, ptr, 0x64, 0, 0)                        // call system.getContractMethod\n            if iszero(res) { revert(0, 0) }                                     // safety check\n\n            returndatacopy(ptr, 0, returndatasize)                              // copy fnData into ptr\n            let ptr2 := add(ptr, mload(ptr))                                    // ptr2 is pointer to start of fnData\n\n            let m_injParams := add(ptr2, mload(add(ptr2, 0x20)))                // mem loc injected params\n            let injParams_len := mload(m_injParams)                             // num injected params\n            m_injParams := add(m_injParams, 0x20)                               // first injected param\n\n            let m_dynParams := add(ptr2, mload(add(ptr2, 0x40)))                // memory location of start of dynamic params\n            let dynParams_len := mload(m_dynParams)                             // num dynamic params\n            m_dynParams := add(m_dynParams, 0x20)                               // first dynamic param\n\n            // forward calldata to library\n            ptr := add(ptr, returndatasize)                                     // shift ptr to new scratch space\n            mstore(ptr, mload(ptr2))                                            // forward call with modified selector\n\n            ptr2 := add(ptr, 0x04)                                              // copy of ptr for keeping track of injected params\n\n            mstore(ptr2, address)                                               // inject platform\n            mstore(add(ptr2, 0x20), caller)                                     // inject msg.sender\n\n            let cdOffset := 0x04                                                // calldata offset, after signature\n\n            if isForwarded {\n                mstore(ptr2, caller)                                            // overwrite injected platform with sender\n                calldatacopy(add(ptr2, 0x20), 0x04, 0x20)                       // overwrite injected sender with address from forwarder\n                cdOffset := add(cdOffset, 0x40)                                 // shift calldata offset for injected address and version\n            }\n            ptr2 := add(ptr2, 0x40)                                             // shift ptr2 to account for injected addresses\n\n            for { let i := 0 } lt(i, injParams_len) { i := add(i, 1) } {        // loop through injected params and insert\n                let injParam := mload(add(m_injParams, mul(i, 0x20)))           // get injected param slot\n                mstore(ptr2, injParam)                                          // store injected params into next slot\n                ptr2 := add(ptr2, 0x20)                                         // shift ptr2 by a word for each injected\n            }\n\n            calldatacopy(ptr2, cdOffset, sub(calldatasize, cdOffset))           // copy calldata after injected data storage\n\n            for { let i := 0 } lt(i, dynParams_len) { i := add(i, 1) } {        // loop through params and update dynamic param locations\n                let idx := mload(add(m_dynParams, mul(i, 0x20)))                // get dynParam index in parameters\n                let loc := add(ptr2, mul(idx, 0x20))                            // get location in memory of dynParam\n                mstore(loc, add(mload(loc), mul(add(injParams_len, 2), 0x20)))  // shift dynParam location by num injected\n            }\n\n            // calculate size of forwarded call\n            let size := add(0x04, sub(calldatasize, cdOffset))                  // calldatasize minus injected\n            size := add(size, mul(add(injParams_len, 2), 0x20))                 // add size of injected\n\n            res := delegatecall(gas, libAddress, ptr, size, 0, 0)               // delegatecall to library\n            returndatacopy(ptr, 0, returndatasize)                              // copy return data into ptr for returning\n\n            if iszero(res) { revert(ptr, returndatasize) }                        // safety check\n            return(ptr, returndatasize)                                         // return forwarded call returndata\n        }\n    }\n\n    modifier onlyOwner() {\n        require(msg.sender == info.owner, \"Must be Platform owner\");\n        _;\n    }\n\n    /// @dev Sets the owner of the platform\n    /// @param newOwner  New owner address\n    function setPlatformOwner(address newOwner) external onlyOwner {\n        require(newOwner != address(0));\n        info.owner = newOwner;\n    }\n\n    /// @dev Sets the Token address\n    /// @param token  New token address\n    function upgradeToken(address token) external onlyOwner {\n        IToken(info.token).upgrade(data.totalBalance);\n\n        require(IToken(token).balanceOf(address(this)) == data.totalBalance, \"Token address must match upgraded token\");\n        info.token = token;\n    }\n\n    /// @dev Withdraws any unallocated ERC20 tokens from Platform\n    /// @param token  ERC20 token address to use\n    function withdrawTokens(address token) external onlyOwner {\n        uint256 balance = IToken(token).balanceOf(address(this));\n\n        // if current token, check if any extraneous tokens\n        if (token == info.token) {\n            balance = balance.sub(data.totalBalance);\n        }\n\n        require(IToken(token).transfer(msg.sender, balance), \"Transfer failed\");\n    }\n}\n\ninterface IMatryxPlatform {\n    event TournamentCreated(address tournament, address creator);\n    event TournamentUpdated(address tournament);\n\n    event RoundCreated(address tournament, uint256 roundIndex);\n    event RoundUpdated(address tournament, uint256 roundIndex);\n\n    event SubmissionCreated(address tournament, bytes32 submissionHash, address creator);\n    event SubmissionRewarded(address tournament, bytes32 submissionHash);\n\n    event GroupMemberAdded(bytes32 commitHash, address user);\n\n    event CommitClaimed(bytes32 commitHash);\n    event CommitCreated(bytes32 parentHash, bytes32 commitHash, address creator, bool isFork);\n\n    function setPlatformOwner(address newOwner) external;\n    function upgradeToken(address token) external;\n    function withdrawTokens(address token) external;\n\n    function getInfo() external view returns (MatryxPlatform.Info memory);\n    function isTournament(address tournament) external view returns (bool);\n    function isCommit(bytes32 commitHash) external view returns (bool);\n    function isSubmission(bytes32 submissionHash) external view returns (bool);\n\n    function getTotalBalance() external view returns (uint256);\n\n    function getTournamentCount() external view returns (uint256);\n    function getTournaments() external view returns (address[] memory);\n    function getSubmission(bytes32 submissionHash) external view returns (LibTournament.SubmissionData memory);\n\n    function blacklist(address user) external;\n    function createTournament(LibTournament.TournamentDetails calldata, LibTournament.RoundDetails calldata) external returns (address);\n}\n",
  "sourcePath": "/Users/maxhoward/Desktop/Ethereum/MatryxPlatform/contracts/MatryxPlatform.sol",
  "compiler": {
    "name": "solc",
    "version": "0.5.0+commit.1d4f565a.Emscripten.clang"
  },
  "schemaVersion": "3.0.2",
  "updatedAt": "2019-02-26T19:56:15.392Z",
  "devdoc": {
    "methods": {
      "setPlatformOwner(address)": {
        "details": "Sets the owner of the platform",
        "params": {
          "newOwner": "New owner address"
        }
      },
      "upgradeToken(address)": {
        "details": "Sets the Token address",
        "params": {
          "token": "New token address"
        }
      },
      "withdrawTokens(address)": {
        "details": "Withdraws any unallocated ERC20 tokens from Platform",
        "params": {
          "token": "ERC20 token address to use"
        }
      }
    }
  },
  "userdoc": {
    "methods": {}
  }
}