{
  "contractName": "MatryxPlatform",
  "abi": [
    {
      "inputs": [
        {
          "name": "system",
          "type": "address"
        },
        {
          "name": "token",
          "type": "address"
        }
      ],
      "payable": false,
      "stateMutability": "nonpayable",
      "type": "constructor",
      "signature": "constructor"
    },
    {
      "payable": false,
      "stateMutability": "nonpayable",
      "type": "fallback"
    },
    {
      "constant": true,
      "inputs": [],
      "name": "getInfo",
      "outputs": [
        {
          "components": [
            {
              "name": "system",
              "type": "address"
            },
            {
              "name": "token",
              "type": "address"
            },
            {
              "name": "owner",
              "type": "address"
            }
          ],
          "name": "",
          "type": "tuple"
        }
      ],
      "payable": false,
      "stateMutability": "view",
      "type": "function",
      "signature": "0x5a9b0b89"
    },
    {
      "constant": false,
      "inputs": [
        {
          "name": "newOwner",
          "type": "address"
        }
      ],
      "name": "setOwner",
      "outputs": [],
      "payable": false,
      "stateMutability": "nonpayable",
      "type": "function",
      "signature": "0x13af4035"
    },
    {
      "constant": false,
      "inputs": [
        {
          "name": "token",
          "type": "address"
        }
      ],
      "name": "upgradeToken",
      "outputs": [],
      "payable": false,
      "stateMutability": "nonpayable",
      "type": "function",
      "signature": "0x6ee31a18"
    },
    {
      "constant": false,
      "inputs": [],
      "name": "withdrawEther",
      "outputs": [],
      "payable": false,
      "stateMutability": "nonpayable",
      "type": "function",
      "signature": "0x7362377b"
    },
    {
      "constant": false,
      "inputs": [
        {
          "name": "token",
          "type": "address"
        }
      ],
      "name": "withdrawTokens",
      "outputs": [],
      "payable": false,
      "stateMutability": "nonpayable",
      "type": "function",
      "signature": "0x49df728c"
    }
  ],
  "bytecode": "0x608060405234801561001057600080fd5b50604051604080610bf1833981018060405261002f9190810190610088565b60008054600160a060020a03938416600160a060020a031991821617909155600180549290931691811691909117909155600280549091163317905560146012556100df565b600061008182516100ce565b9392505050565b6000806040838503121561009b57600080fd5b60006100a78585610075565b92505060206100b885828601610075565b9150509250929050565b600160a060020a031690565b60006100d9826100c2565b92915050565b610b03806100ee6000396000f3fe60806040526004361061006c5763ffffffff7c010000000000000000000000000000000000000000000000000000000060003504166313af4035811461027057806349df728c146102925780635a9b0b89146102b25780636ee31a18146102dd5780637362377b146102fd575b34801561007857600080fd5b507c01000000000000000000000000000000000000000000000000000000007f4c6962506c6174666f726d00000000000000000000000000000000000000000060405160005483630d8e6e2c02600052602060006004600080855af18015156100e057600080fd5b6000518563a8bc39270260005233600452602060006024600080875af1915081151561010b57600080fd5b600051858114610122576020602460003760005191505b8663c53cfd9a028552816004860152806024860152602060006044876000885af1925082151561015157600080fd5b60005187633b15aabf0286528260048701528160248701526004600060448801376000806064886000895af1935083151561018b57600080fd5b3d6000873e855186016020810151810180516020820191506040830151830180516020820191503d8b019a5084518b5260048b01945030855233602086015260048c881415156101e5573386526020600460208801376040015b60408601955060005b8481101561020d576020818102870151885296909601956001016101ee565b5080360381873760005b82811015610241576020818102850151810288018051600288019092029091019052600101610217565b50600284016020023682900301600401600080828f8b5af49a508a151561026757600080fd5b3d60008e3e3d8df35b34801561027c57600080fd5b5061029061028b3660046108e7565b610312565b005b34801561029e57600080fd5b506102906102ad3660046108e7565b6103d5565b3480156102be57600080fd5b506102c76105bd565b6040516102d49190610a76565b60405180910390f35b3480156102e957600080fd5b506102906102f83660046108e7565b610605565b34801561030957600080fd5b50610290610804565b60025473ffffffffffffffffffffffffffffffffffffffff16331461036c576040517f08c379a000000000000000000000000000000000000000000000000000000000815260040161036390610a66565b60405180910390fd5b73ffffffffffffffffffffffffffffffffffffffff8116151561038e57600080fd5b600280547fffffffffffffffffffffffff00000000000000000000000000000000000000001673ffffffffffffffffffffffffffffffffffffffff92909216919091179055565b60025473ffffffffffffffffffffffffffffffffffffffff163314610426576040517f08c379a000000000000000000000000000000000000000000000000000000000815260040161036390610a66565b6040517f70a0823100000000000000000000000000000000000000000000000000000000815260009073ffffffffffffffffffffffffffffffffffffffff8316906370a082319061047b903090600401610a2d565b60206040518083038186803b15801561049357600080fd5b505afa1580156104a7573d6000803e3d6000fd5b505050506040513d601f19601f820116820180604052506104cb919081019061092b565b60015490915073ffffffffffffffffffffffffffffffffffffffff838116911614156105085760035461050590829063ffffffff61088516565b90505b6040517fa9059cbb00000000000000000000000000000000000000000000000000000000815273ffffffffffffffffffffffffffffffffffffffff83169063a9059cbb9061055c9033908590600401610a3b565b602060405180830381600087803b15801561057657600080fd5b505af115801561058a573d6000803e3d6000fd5b505050506040513d601f19601f820116820180604052506105ae919081019061090d565b15156105b957600080fd5b5050565b6105c561089c565b506040805160608101825260005473ffffffffffffffffffffffffffffffffffffffff908116825260015481166020830152600254169181019190915290565b60025473ffffffffffffffffffffffffffffffffffffffff163314610656576040517f08c379a000000000000000000000000000000000000000000000000000000000815260040161036390610a66565b6001546003546040517f45977d0300000000000000000000000000000000000000000000000000000000815273ffffffffffffffffffffffffffffffffffffffff909216916345977d03916106ad91600401610a84565b600060405180830381600087803b1580156106c757600080fd5b505af11580156106db573d6000803e3d6000fd5b50506003546040517f70a0823100000000000000000000000000000000000000000000000000000000815290925073ffffffffffffffffffffffffffffffffffffffff841691506370a0823190610736903090600401610a2d565b60206040518083038186803b15801561074e57600080fd5b505afa158015610762573d6000803e3d6000fd5b505050506040513d601f19601f82011682018060405250610786919081019061092b565b146107bd576040517f08c379a000000000000000000000000000000000000000000000000000000000815260040161036390610a56565b600180547fffffffffffffffffffffffff00000000000000000000000000000000000000001673ffffffffffffffffffffffffffffffffffffffff92909216919091179055565b60025473ffffffffffffffffffffffffffffffffffffffff163314610855576040517f08c379a000000000000000000000000000000000000000000000000000000000815260040161036390610a66565b6040513390303180156108fc02916000818181858888f19350505050158015610882573d6000803e3d6000fd5b50565b60008282111561089157fe5b508082035b92915050565b604080516060810182526000808252602082018190529181019190915290565b60006108c88235610a92565b9392505050565b60006108c88251610ab3565b60006108c88251610ab0565b6000602082840312156108f957600080fd5b600061090584846108bc565b949350505050565b60006020828403121561091f57600080fd5b600061090584846108cf565b60006020828403121561093d57600080fd5b600061090584846108db565b61095281610ab8565b82525050565b61095281610a92565b602781527f546f6b656e2061646472657373206d757374206d61746368207570677261646560208201527f6420746f6b656e00000000000000000000000000000000000000000000000000604082015260600190565b601681527f4d75737420626520506c6174666f726d206f776e657200000000000000000000602082015260400190565b805160608301906109f88482610958565b506020820151610a0b6020850182610958565b506040820151610a1e6040850182610958565b50505050565b61095281610ab0565b602081016108968284610958565b60408101610a498285610949565b6108c86020830184610a24565b6020808252810161089681610961565b60208082528101610896816109b7565b6060810161089682846109e7565b602081016108968284610a24565b600073ffffffffffffffffffffffffffffffffffffffff8216610896565b90565b151590565b600061089682600061089682610a9256fea265627a7a72305820a36bbb25a3537f00ec5536bf54548d41b70570b7f98b06c35bb1e3d18f6a710f6c6578706572696d656e74616cf50037",
  "source": "pragma solidity ^0.5.0;\npragma experimental ABIEncoderV2;\n\nimport \"./SafeMath.sol\";\nimport \"./LibGlobals.sol\";\nimport \"./IToken.sol\";\n\nimport \"./MatryxSystem.sol\";\nimport \"./MatryxCommit.sol\";\nimport \"./MatryxUser.sol\";\nimport \"./MatryxTournament.sol\";\nimport \"./MatryxRound.sol\";\n\ncontract MatryxPlatform {\n    using SafeMath for uint256;\n\n    struct Info {\n        address system;\n        address token;\n        address owner;\n    }\n\n    struct Data {\n        uint256 totalBalance;                                        // total allocated mtx balance of the platform\n        mapping(address=>uint256) balanceOf;                         // maps user addresses to user balances\n        mapping(bytes32=>uint256) commitBalance;                     // maps commit hashes to commit mtx balances\n\n        mapping(address=>LibTournament.TournamentData) tournaments;  // maps tournament addresses to tournament structs\n        mapping(address=>LibRound.RoundData) rounds;                 // maps round addresses to round structs\n        mapping(address=>LibUser.UserData) users;                    // maps user addresses to user structs\n\n        address[] allTournaments;                                    // all matryx tournament addresses\n        address[] allRounds;                                         // all matryx round addresses\n        address[] allUsers;                                          // all matryx user addresses\n\n        mapping(bytes32=>LibCommit.Commit) commits;                  // maps commit hashes to commits\n        mapping(bytes32=>LibCommit.Group) groups;                    // maps group hashes to group structs\n        mapping(bytes32=>bytes32) commitHashes;                      // maps content hashes to commit hashes\n        mapping(bytes32=>address[]) commitToRounds;                  // maps commits to rounds they've been submitted to\n\n        bytes32[] allGroups;                                         // all group hashes; length is new group number\n        bytes32[] initialCommits;                                    // all commits without parents\n        uint256 commitDistributionDepth;                             // max depth to traverse to distribute commit funds\n    }\n\n    Info info;                                                       // slot 0\n    Data data;                                                       // slot 3\n\n    constructor(address system, address token) public {\n        info.system = system;\n        info.token = token;\n        info.owner = msg.sender;\n        data.commitDistributionDepth = 20;\n    }\n\n    /// @dev\n    /// 1) Uses msg.sender to ask MatryxSystem for the type of library this call should be forwarded to\n    /// 2) Uses this library type to lookup (in its own storage) the name of the library\n    /// 3) Uses this name to ask MatryxSystem for the address of the contract (under this platform's version)\n    /// 4) Uses name and signature to ask MatryxSystem for the data necessary to modify the incoming calldata\n    ///    so as to be appropriate for the associated library call\n    /// 5) Makes a delegatecall to the library address given by MatryxSystem with the library-appropriate calldata\n    function () external {\n        assembly {\n            // constants\n            let offset := 0x100000000000000000000000000000000000000000000000000000000\n            let libPlatform := 0x4c6962506c6174666f726d000000000000000000000000000000000000000000\n\n            let ptr := mload(0x40)                                              // scratch space for calldata\n            let system := sload(info_slot)                                      // load info.system address\n\n            mstore(0, mul(0x0d8e6e2c, offset))                                  // getVersion()\n            let res := call(gas, system, 0, 0, 0x04, 0, 0x20)                   // call system getVersion\n            if iszero(res) { revert(0, 0) }                                     // safety check\n            let version := mload(0)                                             // store version from response\n\n            mstore(0, mul(0xa8bc3927, offset))                                  // getLibraryName(address)\n            mstore(0x04, caller)                                                // arg 0 - contract\n            res := call(gas, system, 0, 0, 0x24, 0, 0x20)                       // call system getLibraryName\n            if iszero(res) { revert(0, 0) }                                     // safety check\n            let libName := mload(0)                                             // store libName from response\n\n            if iszero(eq(libName, libPlatform)) {                               // if coming from MatryxForwarder or MatryxUser\n                calldatacopy(0, 0x24, 0x20)                                     // get injected version from calldata\n                version := mload(0)                                             // overwrite version var\n            }\n\n            // call system and get library address\n            mstore(ptr, mul(0xc53cfd9a, offset))                                // getContract(uint256,bytes32)\n            mstore(add(ptr, 0x04), version)                                     // arg 0 - version\n            mstore(add(ptr, 0x24), libName)                                     // arg 1 - library name\n            res := call(gas, system, 0, ptr, 0x44, 0, 0x20)                     // call system.getContract\n            if iszero(res) { revert(0, 0) }                                     // safety check\n            let libAddress := mload(0)                                          // store libAddress from response\n\n            // get fnData from system\n            mstore(ptr, mul(0x3b15aabf, offset))                                // getContractMethod(uint256,bytes32,bytes32)\n            mstore(add(ptr, 0x04), version)                                     // arg 0 - version\n            mstore(add(ptr, 0x24), libName)                                     // arg 1 - library name\n            calldatacopy(add(ptr, 0x44), 0, 0x04)                               // arg 2 - fn selector\n            res := call(gas, system, 0, ptr, 0x64, 0, 0)                        // call system.getContractMethod\n            if iszero(res) { revert(0, 0) }                                     // safety check\n\n            returndatacopy(ptr, 0, returndatasize)                              // copy fnData into ptr\n            let ptr2 := add(ptr, mload(ptr))                                    // ptr2 is pointer to start of fnData\n\n            let m_injParams := add(ptr2, mload(add(ptr2, 0x20)))                // mem loc injected params\n            let injParams_len := mload(m_injParams)                             // num injected params\n            m_injParams := add(m_injParams, 0x20)                               // first injected param\n\n            let m_dynParams := add(ptr2, mload(add(ptr2, 0x40)))                // memory location of start of dynamic params\n            let dynParams_len := mload(m_dynParams)                             // num dynamic params\n            m_dynParams := add(m_dynParams, 0x20)                               // first dynamic param\n\n            // forward calldata to library\n            ptr := add(ptr, returndatasize)                                     // shift ptr to new scratch space\n            mstore(ptr, mload(ptr2))                                            // forward call with modified selector\n\n            ptr2 := add(ptr, 0x04)                                              // copy of ptr for keeping track of injected params\n\n            mstore(ptr2, address)                                               // inject platform\n            mstore(add(ptr2, 0x20), caller)                                     // inject msg.sender\n\n            let cdOffset := 0x04                                                // calldata offset, after signature\n\n            if iszero(eq(libName, libPlatform)) {                               // if coming from MatryxForwarder or MatryxUser\n                mstore(ptr2, caller)                                            // overwrite injected platform with sender\n                calldatacopy(add(ptr2, 0x20), 0x04, 0x20)                       // overwrite injected sender with address from forwarder\n                cdOffset := add(cdOffset, 0x40)                                 // shift calldata offset for injected address and version\n            }\n            ptr2 := add(ptr2, 0x40)                                             // shift ptr2 to account for injected addresses\n\n            for { let i := 0 } lt(i, injParams_len) { i := add(i, 1) } {        // loop through injected params and insert\n                let injParam := mload(add(m_injParams, mul(i, 0x20)))           // get injected param slot\n                mstore(ptr2, injParam)                                          // store injected params into next slot\n                ptr2 := add(ptr2, 0x20)                                         // shift ptr2 by a word for each injected\n            }\n\n            calldatacopy(ptr2, cdOffset, sub(calldatasize, cdOffset))           // copy calldata after injected data storage\n\n            for { let i := 0 } lt(i, dynParams_len) { i := add(i, 1) } {        // loop through params and update dynamic param locations\n                let idx := mload(add(m_dynParams, mul(i, 0x20)))                // get dynParam index in parameters\n                let loc := add(ptr2, mul(idx, 0x20))                            // get location in memory of dynParam\n                mstore(loc, add(mload(loc), mul(add(injParams_len, 2), 0x20)))  // shift dynParam location by num injected\n            }\n\n            // calculate size of forwarded call\n            let size := add(0x04, sub(calldatasize, cdOffset))                  // calldatasize minus injected\n            size := add(size, mul(add(injParams_len, 2), 0x20))                 // add size of injected\n\n            res := delegatecall(gas, libAddress, ptr, size, 0, 0)               // delegatecall to library\n            if iszero(res) { revert(0, 0) }                                     // safety check\n\n            returndatacopy(ptr, 0, returndatasize)                              // copy return data into ptr for returning\n            return(ptr, returndatasize)                                         // return forwarded call returndata\n        }\n    }\n\n    modifier onlyOwner() {\n        require(msg.sender == info.owner, \"Must be Platform owner\");\n        _;\n    }\n\n    /// @dev Gets information about the Platform\n    /// @return  Info Struct that contains system, token, and owner\n    function getInfo() public view returns (MatryxPlatform.Info memory) {\n        return info;\n    }\n\n    /// @dev Sets the owner of the platform\n    /// @param newOwner  New owner address\n    function setOwner(address newOwner) external onlyOwner {\n        require(newOwner != address(0));\n        info.owner = newOwner;\n    }\n\n    /// @dev Sets the Token address\n    /// @param token  New token address\n    function upgradeToken(address token) external onlyOwner {\n        IToken(info.token).upgrade(data.totalBalance);\n\n        require(IToken(token).balanceOf(address(this)) == data.totalBalance, \"Token address must match upgraded token\");\n        info.token = token;\n    }\n\n    /// @dev Withdraws any Ether from Platform\n    function withdrawEther() external onlyOwner {\n        msg.sender.transfer(address(this).balance);\n    }\n\n    /// @dev Withdraws any unallocated ERC20 tokens from Platform\n    /// @param token  ERC20 token address to use\n    function withdrawTokens(address token) external onlyOwner {\n        uint256 balance = IToken(token).balanceOf(address(this));\n\n        // if current token, check if any extraneous tokens\n        if (token == info.token) {\n            balance = balance.sub(data.totalBalance);\n        }\n\n        require(IToken(token).transfer(msg.sender, balance));\n    }\n}\n\ninterface IMatryxPlatform {\n    function getInfo() external view returns (MatryxPlatform.Info memory);\n    function setOwner(address) external;\n    function upgradeToken(address) external;\n    function withdrawEther() external;\n    function withdrawTokens(address) external;\n    function withdrawBalance() external;\n\n    function isTournament(address) external view returns (bool);\n    function isRound(address) external view returns (bool);\n    function isSubmission(bytes32) external view returns (bool);\n    function hasEnteredMatryx(address) external view returns (bool);\n\n    function getTotalBalance() external view returns (uint256);\n    function getBalanceOf(address) external view returns (uint256);\n    function getCommitBalance(bytes32) external view returns (uint256);\n\n    function getTournamentCount() external view returns (uint256);\n    function getUserCount() external view returns (uint256);\n    function getTournaments() external view returns (address[] memory);\n    function getUsers() external view returns (address[] memory);\n\n    function enterMatryx() external;\n    function createTournament(LibTournament.TournamentDetails calldata, LibRound.RoundDetails calldata) external returns (address);\n    \n    function setCommitDistributionDepth(uint256 depth) external;\n}\n\nlibrary LibPlatform {\n    using SafeMath for uint256;\n\n    event TournamentCreated(address _tournamentAddress);\n\n    /// @dev Return if a Tournament exists\n    /// @param data      Platform data struct\n    /// @param tAddress  Tournament address\n    /// @return          true if Tournament exists\n    function isTournament(address, address, MatryxPlatform.Data storage data, address tAddress) public view returns (bool) {\n        return data.tournaments[tAddress].info.owner != address(0);\n    }\n\n    /// @dev Return if a Round exists\n    /// @param data      Platform data struct\n    /// @param rAddress  Round address\n    /// @return          true if Round exists\n    function isRound(address, address, MatryxPlatform.Data storage data, address rAddress) public view returns (bool) {\n        return data.rounds[rAddress].info.tournament != address(0);\n    }\n\n    /// @dev Return if user has entered Matryx\n    /// @param data      Platform data struct\n    /// @param uAddress  User address\n    /// @return          true if user has entered Matryx\n    function hasEnteredMatryx(address, address, MatryxPlatform.Data storage data, address uAddress) public view returns (bool) {\n        return data.users[uAddress].exists;\n    }\n\n    /// @dev Return total allocated MTX in Platform\n    /// @param data  Platform data struct\n    /// @return      Total allocated MTX in Platform\n    function getTotalBalance(address, address, MatryxPlatform.Data storage data) public view returns (uint256) {\n        return data.totalBalance;\n    }\n\n    /// @dev Return balance of a Tournament, Round, or user address\n    /// @param data      Platform data struct\n    /// @param cAddress  Address to get the balance of\n    /// @return          Address balance on Platform\n    function getBalanceOf(address, address, MatryxPlatform.Data storage data, address cAddress) public view returns (uint256) {\n        return data.balanceOf[cAddress];\n    }\n\n    /// @dev Return balance of a Commit\n    /// @param data        Platform data struct\n    /// @param commitHash  Commit hash to get the balance of\n    /// @return            Balance of the commit on Platform\n    function getCommitBalance(address, address, MatryxPlatform.Data storage data, bytes32 commitHash) public view returns (uint256) {\n        return data.commitBalance[commitHash];\n    }\n\n    /// @dev Return total number of Tournaments\n    /// @param data  Platform data struct\n    /// @return      Number of Tournaments on Platform\n    function getTournamentCount(address, address, MatryxPlatform.Data storage data) public view returns (uint256) {\n        return data.allTournaments.length;\n    }\n\n    /// @dev Return total number of Users\n    /// @param data  Platform data struct\n    /// @return      Number of Users on Platform\n    function getUserCount(address, address, MatryxPlatform.Data storage data) public view returns (uint256) {\n        return data.allUsers.length;\n    }\n\n    /// @dev Return all Tournaments addresses\n    /// @param data  Platform data struct\n    /// @return      Array of Tournament addresses\n    function getTournaments(address, address, MatryxPlatform.Data storage data) public view returns (address[] memory) {\n        return data.allTournaments;\n    }\n\n    /// @dev Return all Users addresses\n    /// @param data  Platform data struct\n    /// @return      Array of User addresses\n    function getUsers(address, address, MatryxPlatform.Data storage data) public view returns (address[] memory) {\n        return data.allUsers;\n    }\n\n    /// @dev Withdraw available MTX balance\n    /// @param sender  msg.sender to Platform\n    /// @param info    Platform info struct\n    /// @param data    Platform data struct\n    function withdrawBalance(address, address sender, MatryxPlatform.Info storage info, MatryxPlatform.Data storage data) public {\n        uint256 amount = data.balanceOf[sender];\n        data.balanceOf[sender] = 0;\n        data.totalBalance = data.totalBalance.sub(amount);\n        data.users[sender].totalWithdrawn = data.users[sender].totalWithdrawn.add(amount);\n        require(IToken(info.token).transfer(sender, amount));\n    }\n\n    /// @dev Enter Matryx\n    /// @param sender  msg.sender to Platform\n    /// @param info    Platform info struct\n    /// @param data    Platform data struct\n    function enterMatryx(address, address sender, MatryxPlatform.Info storage info, MatryxPlatform.Data storage data) public {\n        require(!data.users[sender].exists, \"Already entered Matryx\");\n        require(IToken(info.token).balanceOf(sender) > 0, \"Must have MTX\");\n\n        data.users[sender].exists = true;\n        data.users[sender].timeEntered = now;\n        data.allUsers.push(sender);\n    }\n\n    /// @dev Creates a Tournament\n    /// @param sender    msg.sender to Platform\n    /// @param info      Platform info struct\n    /// @param data      Platform data struct\n    /// @param tDetails  Tournament details (title, descHash, fileHash, bounty, entryFee)\n    /// @param rDetails  Round details (start, end, review, bounty)\n    /// @return          Address of the created Tournament\n    function createTournament(address, address sender, MatryxPlatform.Info storage info, MatryxPlatform.Data storage data, LibTournament.TournamentDetails memory tDetails, LibRound.RoundDetails memory rDetails) public returns (address) {\n        require(data.users[sender].exists, \"Must have entered Matryx\");\n        require(tDetails.bounty > 0, \"Tournament bounty must be greater than 0\");\n        require(rDetails.bounty <= tDetails.bounty, \"Round bounty cannot exceed Tournament bounty\");\n        require(IToken(info.token).allowance(sender, address(this)) >= tDetails.bounty, \"Insufficient MTX\");\n\n        uint256 version = IMatryxSystem(info.system).getVersion();\n        address tAddress = address(new MatryxTournament(version, info.system));\n\n        IMatryxSystem(info.system).setContractType(tAddress, uint256(LibSystem.ContractType.Tournament));\n        data.allTournaments.push(tAddress);\n\n        LibUser.UserData storage user = data.users[sender];\n        user.tournaments.push(tAddress);\n        user.totalSpent = user.totalSpent.add(tDetails.bounty);\n\n        LibTournament.TournamentData storage tournament = data.tournaments[tAddress];\n        tournament.info.version = version;\n        tournament.info.owner = sender;\n        tournament.details = tDetails;\n\n        data.totalBalance = data.totalBalance.add(tDetails.bounty);\n        data.balanceOf[tAddress] = tDetails.bounty;\n        require(IToken(info.token).transferFrom(sender, address(this), tDetails.bounty), \"Transfer failed\");\n\n        address libTournament = IMatryxSystem(info.system).getContract(version, \"LibTournament\");\n        assembly {\n            let offset := 0x100000000000000000000000000000000000000000000000000000000\n            let ptr := mload(0x40)\n\n            mstore(ptr, mul(0xca0ba8b4, offset))                            // createRound(address,address,MatryxPlatform.Info storage,MatryxPlatform.Data storage,LibRound.RoundDetails)\n            mstore(add(ptr, 0x04), tAddress)                                // arg 0 - self\n            mstore(add(ptr, 0x24), sender)                                  // arg 1 - sender\n            mstore(add(ptr, 0x44), info_slot)                               // arg 2 - info\n            mstore(add(ptr, 0x64), data_slot)                               // arg 3 - data\n            calldatacopy(add(ptr, 0x84), sub(calldatasize, 0x80), 0x80)     // arg 4 - rDetails\n\n            let res := delegatecall(gas, libTournament, ptr, 0x104, 0, 0)   // call LibTournament.createRound\n            if iszero(res) { revert(0, 0) }                                 // safety check\n        }\n        // LibTournament.createRound(tAddress, this, info, data, rDetails);\n\n        emit TournamentCreated(tAddress);\n        return tAddress;\n    }\n\n    /// @dev Sets commitDistributionDepth for how many ancestor commits value propagates to\n    /// @param sender  msg.sender to Platform \n    /// @param info    Platform info struct\n    /// @param data    Platform data struct\n    /// @param depth   New commitDistributionDepth\n    function setCommitDistributionDepth(address, address sender, MatryxPlatform.Info storage info, MatryxPlatform.Data storage data, uint256 depth) public {\n        require(sender == info.owner, \"Must be Platform owner\");\n        data.commitDistributionDepth = depth;\n    }\n}\n",
  "sourcePath": "/Users/maxhoward/Desktop/Ethereum/MatryxPlatform/contracts/MatryxPlatform.sol",
  "compiler": {
    "name": "solc",
    "version": "0.5.0+commit.1d4f565a.Emscripten.clang"
  },
  "schemaVersion": "3.0.1",
  "updatedAt": "2019-02-02T23:11:44.719Z",
  "devdoc": {
    "methods": {
      "getInfo()": {
        "details": "Gets information about the Platform",
        "return": "Info Struct that contains system, token, and owner"
      },
      "setOwner(address)": {
        "details": "Sets the owner of the platform",
        "params": {
          "newOwner": "New owner address"
        }
      },
      "upgradeToken(address)": {
        "details": "Sets the Token address",
        "params": {
          "token": "New token address"
        }
      },
      "withdrawEther()": {
        "details": "Withdraws any Ether from Platform"
      },
      "withdrawTokens(address)": {
        "details": "Withdraws any unallocated ERC20 tokens from Platform",
        "params": {
          "token": "ERC20 token address to use"
        }
      }
    }
  },
  "userdoc": {
    "methods": {}
  }
}