{
  "contractName": "MatryxSystem",
  "abi": [
    {
      "constant": true,
      "inputs": [
        {
          "name": "_sender",
          "type": "address"
        }
      ],
      "name": "isOwner",
      "outputs": [
        {
          "name": "_isOwner",
          "type": "bool"
        }
      ],
      "payable": false,
      "stateMutability": "view",
      "type": "function",
      "signature": "0x2f54bf6e"
    },
    {
      "constant": true,
      "inputs": [],
      "name": "getOwner",
      "outputs": [
        {
          "name": "_owner",
          "type": "address"
        }
      ],
      "payable": false,
      "stateMutability": "view",
      "type": "function",
      "signature": "0x893d20e8"
    },
    {
      "constant": true,
      "inputs": [],
      "name": "owner",
      "outputs": [
        {
          "name": "",
          "type": "address"
        }
      ],
      "payable": false,
      "stateMutability": "view",
      "type": "function",
      "signature": "0x8da5cb5b"
    },
    {
      "constant": false,
      "inputs": [
        {
          "name": "newOwner",
          "type": "address"
        }
      ],
      "name": "transferOwnership",
      "outputs": [],
      "payable": false,
      "stateMutability": "nonpayable",
      "type": "function",
      "signature": "0xf2fde38b"
    },
    {
      "constant": false,
      "inputs": [
        {
          "name": "version",
          "type": "uint256"
        }
      ],
      "name": "createVersion",
      "outputs": [],
      "payable": false,
      "stateMutability": "nonpayable",
      "type": "function",
      "signature": "0xc9c743c7"
    },
    {
      "constant": false,
      "inputs": [
        {
          "name": "version",
          "type": "uint256"
        }
      ],
      "name": "setVersion",
      "outputs": [],
      "payable": false,
      "stateMutability": "nonpayable",
      "type": "function",
      "signature": "0x408def1e"
    },
    {
      "constant": true,
      "inputs": [],
      "name": "getVersion",
      "outputs": [
        {
          "name": "",
          "type": "uint256"
        }
      ],
      "payable": false,
      "stateMutability": "view",
      "type": "function",
      "signature": "0x0d8e6e2c"
    },
    {
      "constant": true,
      "inputs": [],
      "name": "getAllVersions",
      "outputs": [
        {
          "name": "",
          "type": "uint256[]"
        }
      ],
      "payable": false,
      "stateMutability": "view",
      "type": "function",
      "signature": "0x43c2a4d7"
    },
    {
      "constant": true,
      "inputs": [
        {
          "name": "version",
          "type": "uint256"
        }
      ],
      "name": "getPlatformContracts",
      "outputs": [
        {
          "name": "",
          "type": "bytes32[]"
        }
      ],
      "payable": false,
      "stateMutability": "view",
      "type": "function",
      "signature": "0x8126d4ac"
    },
    {
      "constant": false,
      "inputs": [
        {
          "name": "version",
          "type": "uint256"
        },
        {
          "name": "cName",
          "type": "bytes32"
        },
        {
          "name": "cAddress",
          "type": "address"
        }
      ],
      "name": "setContract",
      "outputs": [],
      "payable": false,
      "stateMutability": "nonpayable",
      "type": "function",
      "signature": "0xd7c94d28"
    },
    {
      "constant": true,
      "inputs": [
        {
          "name": "version",
          "type": "uint256"
        },
        {
          "name": "cName",
          "type": "bytes32"
        }
      ],
      "name": "getContract",
      "outputs": [
        {
          "name": "",
          "type": "address"
        }
      ],
      "payable": false,
      "stateMutability": "view",
      "type": "function",
      "signature": "0xc53cfd9a"
    },
    {
      "constant": false,
      "inputs": [
        {
          "name": "version",
          "type": "uint256"
        },
        {
          "name": "cName",
          "type": "bytes32"
        },
        {
          "name": "selector",
          "type": "bytes32"
        },
        {
          "components": [
            {
              "name": "modifiedSelector",
              "type": "bytes32"
            },
            {
              "name": "injectedParams",
              "type": "uint256[]"
            },
            {
              "name": "dynamicParams",
              "type": "uint256[]"
            }
          ],
          "name": "fnData",
          "type": "tuple"
        }
      ],
      "name": "addContractMethod",
      "outputs": [],
      "payable": false,
      "stateMutability": "nonpayable",
      "type": "function",
      "signature": "0x6167b31e"
    },
    {
      "constant": false,
      "inputs": [
        {
          "name": "version",
          "type": "uint256"
        },
        {
          "name": "cName",
          "type": "bytes32"
        },
        {
          "name": "selectors",
          "type": "bytes32[]"
        },
        {
          "name": "modifiedSelectors",
          "type": "bytes32[]"
        },
        {
          "components": [
            {
              "name": "modifiedSelector",
              "type": "bytes32"
            },
            {
              "name": "injectedParams",
              "type": "uint256[]"
            },
            {
              "name": "dynamicParams",
              "type": "uint256[]"
            }
          ],
          "name": "fnData",
          "type": "tuple"
        }
      ],
      "name": "addContractMethods",
      "outputs": [],
      "payable": false,
      "stateMutability": "nonpayable",
      "type": "function",
      "signature": "0x73c02863"
    },
    {
      "constant": true,
      "inputs": [
        {
          "name": "version",
          "type": "uint256"
        },
        {
          "name": "cName",
          "type": "bytes32"
        },
        {
          "name": "selector",
          "type": "bytes32"
        }
      ],
      "name": "getContractMethod",
      "outputs": [
        {
          "components": [
            {
              "name": "modifiedSelector",
              "type": "bytes32"
            },
            {
              "name": "injectedParams",
              "type": "uint256[]"
            },
            {
              "name": "dynamicParams",
              "type": "uint256[]"
            }
          ],
          "name": "",
          "type": "tuple"
        }
      ],
      "payable": false,
      "stateMutability": "view",
      "type": "function",
      "signature": "0x3b15aabf"
    },
    {
      "constant": false,
      "inputs": [
        {
          "name": "cAddress",
          "type": "address"
        },
        {
          "name": "cType",
          "type": "uint256"
        }
      ],
      "name": "setContractType",
      "outputs": [],
      "payable": false,
      "stateMutability": "nonpayable",
      "type": "function",
      "signature": "0x6226d738"
    },
    {
      "constant": true,
      "inputs": [
        {
          "name": "cAddress",
          "type": "address"
        }
      ],
      "name": "getContractType",
      "outputs": [
        {
          "name": "",
          "type": "uint256"
        }
      ],
      "payable": false,
      "stateMutability": "view",
      "type": "function",
      "signature": "0xe11aa6a2"
    },
    {
      "constant": false,
      "inputs": [
        {
          "name": "cType",
          "type": "uint256"
        },
        {
          "name": "lName",
          "type": "bytes32"
        }
      ],
      "name": "setLibraryName",
      "outputs": [],
      "payable": false,
      "stateMutability": "nonpayable",
      "type": "function",
      "signature": "0x2f922de4"
    },
    {
      "constant": true,
      "inputs": [
        {
          "name": "cAddress",
          "type": "address"
        }
      ],
      "name": "getLibraryName",
      "outputs": [
        {
          "name": "",
          "type": "bytes32"
        }
      ],
      "payable": false,
      "stateMutability": "view",
      "type": "function",
      "signature": "0xa8bc3927"
    }
  ],
  "bytecode": "0x608060405260008054600160a060020a03191633179055611454806100256000396000f3fe6080604052600436106100fb5763ffffffff7c01000000000000000000000000000000000000000000000000000000006000350416630d8e6e2c81146101005780632f54bf6e1461012b5780632f922de4146101585780633b15aabf1461017a578063408def1e146101a757806343c2a4d7146101c75780636167b31e146101e95780636226d7381461020957806373c02863146102295780638126d4ac14610249578063893d20e8146102765780638da5cb5b14610298578063a8bc3927146102ad578063c53cfd9a146102cd578063c9c743c7146102ed578063d7c94d281461030d578063e11aa6a21461032d578063f2fde38b1461034d575b600080fd5b34801561010c57600080fd5b5061011561036d565b604051610122919061132d565b60405180910390f35b34801561013757600080fd5b5061014b610146366004610de5565b610374565b604051610122919061131f565b34801561016457600080fd5b50610178610173366004610e63565b610388565b005b34801561018657600080fd5b5061019a610195366004610f8c565b6103f4565b604051610122919061139b565b3480156101b357600080fd5b506101786101c2366004610e45565b610537565b3480156101d357600080fd5b506101dc610586565b604051610122919061130e565b3480156101f557600080fd5b50610178610204366004610fcf565b6105de565b34801561021557600080fd5b50610178610224366004610e0b565b610690565b34801561023557600080fd5b50610178610244366004610ecf565b610727565b34801561025557600080fd5b50610269610264366004610e45565b6108a1565b60405161012291906112fd565b34801561028257600080fd5b5061028b610906565b60405161012291906112ef565b3480156102a457600080fd5b5061028b610915565b3480156102b957600080fd5b506101156102c8366004610de5565b610924565b3480156102d957600080fd5b5061028b6102e8366004610e63565b61094c565b3480156102f957600080fd5b50610178610308366004610e45565b6109a5565b34801561031957600080fd5b50610178610328366004610e82565b610a3b565b34801561033957600080fd5b50610115610348366004610de5565b610b49565b34801561035957600080fd5b50610178610368366004610de5565b610b64565b6005545b90565b600054600160a060020a0391821691161490565b60008054600160a060020a031633149060013360009081526001602052604090205414905081806103b65750805b15156103e05760405160e560020a62461bcd0281526004016103d79061137b565b60405180910390fd5b505060009182526002602052604090912055565b6103fc610bc7565b6000848152600360209081526040808320868452600101909152902054600160a060020a031661042b81610bbf565b151561044c5760405160e560020a62461bcd0281526004016103d79061133b565b6000858152600360209081526040808320878452600190810183528184208785528101835292819020815160608101835281548152938101805483518186028101860190945280845291938581019392908301828280156104cc57602002820191906000526020600020905b8154815260200190600101908083116104b8575b505050505081526020016002820180548060200260200160405190810160405280929190818152602001828054801561052457602002820191906000526020600020905b815481526020019060010190808311610510575b5050505050815250509150509392505050565b600054600160a060020a0316331461054e57600080fd5b60008181526003602052604090205460ff1615156105815760405160e560020a62461bcd0281526004016103d79061138b565b600555565b606060048054806020026020016040519081016040528092919081815260200182805480156105d457602002820191906000526020600020905b8154815260200190600101908083116105c0575b5050505050905090565b600054600160a060020a031633146105f557600080fd5b60008481526003602052604090205460ff1615156106285760405160e560020a62461bcd0281526004016103d79061134b565b600084815260036020908152604080832086845260019081018352818420868552810183529220835181558184015180518594929361066b938501920190610be7565b5060408201518051610687916002840191602090910190610be7565b50505050505050565b60008054600160a060020a031633149060013360009081526001602052604090205414905081806106be5750805b15156106df5760405160e560020a62461bcd0281526004016103d79061137b565b6106e884610bbf565b15156107095760405160e560020a62461bcd0281526004016103d79061133b565b5050600160a060020a03909116600090815260016020526040902055565b600054600160a060020a0316331461073e57600080fd5b60008581526003602052604090205460ff1615156107715760405160e560020a62461bcd0281526004016103d79061134b565b81518351146107955760405160e560020a62461bcd0281526004016103d79061135b565b60005b8351811015610899576000868152600360209081526040808320888452600190810190925282208651859391909201918790859081106107d457fe5b906020019060200201518152602001908152602001600020600082015181600001556020820151816001019080519060200190610812929190610be7565b506040820151805161082e916002840191602090910190610be7565b505083518491508290811061083f57fe5b602090810290910181015160008881526003835260408082208983526001908101909452812087519293019187908590811061087757fe5b6020908102909101810151825281019190915260400160002055600101610798565b505050505050565b6000818152600360209081526040918290206002018054835181840281018401909452808452606093928301828280156108fa57602002820191906000526020600020905b8154815260200190600101908083116108e6575b50505050509050919050565b600054600160a060020a031690565b600054600160a060020a031681565b600160a060020a03166000908152600160209081526040808320548352600290915290205490565b6000828152600360209081526040808320848452600101909152812054600160a060020a031661097b81610bbf565b151561099c5760405160e560020a62461bcd0281526004016103d79061133b565b90505b92915050565b600054600160a060020a031633146109bc57600080fd5b60008181526003602052604090205460ff16156109ee5760405160e560020a62461bcd0281526004016103d79061136b565b6000818152600360205260408120805460ff191660019081179091556004805491820181559091527f8a35acfbc15ff81a39ae7d344fd709f28e8600b4aa8c65c6b64bfe7fe36bd19b0155565b600054600160a060020a03163314610a5257600080fd5b60008381526003602052604090205460ff161515610a855760405160e560020a62461bcd0281526004016103d79061134b565b610a8e81610bbf565b1515610aaf5760405160e560020a62461bcd0281526004016103d79061133b565b6000838152600360209081526040808320858452600101909152902054600160a060020a03161515610b00576000838152600360209081526040822060020180546001810182559083529120018290555b6000928352600360209081526040808520938552600190930190529120805473ffffffffffffffffffffffffffffffffffffffff1916600160a060020a03909216919091179055565b600160a060020a031660009081526001602052604090205490565b600054600160a060020a03163314610b7b57600080fd5b600160a060020a0381161515610b9057600080fd5b6000805473ffffffffffffffffffffffffffffffffffffffff1916600160a060020a0392909216919091179055565b6000903b1190565b604080516060818101835260008252602082018190529181019190915290565b828054828255906000526020600020908101928215610c22579160200282015b82811115610c22578251825591602001919060010190610c07565b50610c2e929150610c32565b5090565b61037191905b80821115610c2e5760008155600101610c38565b6000610c5882356113fe565b9392505050565b6000601f82018313610c7057600080fd5b8135610c83610c7e826113d3565b6113ac565b91508181835260208401935060208101905083856020840282011115610ca857600080fd5b60005b83811015610cd45781610cbe8882610d4e565b8452506020928301929190910190600101610cab565b5050505092915050565b6000601f82018313610cef57600080fd5b8135610cfd610c7e826113d3565b91508181835260208401935060208101905083856020840282011115610d2257600080fd5b60005b83811015610cd45781610d388882610d4e565b8452506020928301929190910190600101610d25565b6000610c588235610371565b600060608284031215610d6c57600080fd5b610d7660606113ac565b90506000610d848484610d4e565b825250602082013567ffffffffffffffff811115610da157600080fd5b610dad84828501610cde565b602083015250604082013567ffffffffffffffff811115610dcd57600080fd5b610dd984828501610cde565b60408301525092915050565b600060208284031215610df757600080fd5b6000610e038484610c4c565b949350505050565b60008060408385031215610e1e57600080fd5b6000610e2a8585610c4c565b9250506020610e3b85828601610d4e565b9150509250929050565b600060208284031215610e5757600080fd5b6000610e038484610d4e565b60008060408385031215610e7657600080fd5b6000610e2a8585610d4e565b600080600060608486031215610e9757600080fd5b6000610ea38686610d4e565b9350506020610eb486828701610d4e565b9250506040610ec586828701610c4c565b9150509250925092565b600080600080600060a08688031215610ee757600080fd5b6000610ef38888610d4e565b9550506020610f0488828901610d4e565b945050604086013567ffffffffffffffff811115610f2157600080fd5b610f2d88828901610c5f565b935050606086013567ffffffffffffffff811115610f4a57600080fd5b610f5688828901610c5f565b925050608086013567ffffffffffffffff811115610f7357600080fd5b610f7f88828901610d5a565b9150509295509295909350565b600080600060608486031215610fa157600080fd5b6000610fad8686610d4e565b9350506020610fbe86828701610d4e565b9250506040610ec586828701610d4e565b60008060008060808587031215610fe557600080fd5b6000610ff18787610d4e565b945050602061100287828801610d4e565b935050604061101387828801610d4e565b925050606085013567ffffffffffffffff81111561103057600080fd5b61103c87828801610d5a565b91505092959194509250565b611051816113fe565b82525050565b6000611062826113fa565b808452602084019350611074836113f4565b60005b828110156110a45761108a868351611151565b611093826113f4565b602096909601959150600101611077565b5093949350505050565b60006110b9826113fa565b8084526020840193506110cb836113f4565b60005b828110156110a4576110e1868351611151565b6110ea826113f4565b6020969096019591506001016110ce565b6000611106826113fa565b808452602084019350611118836113f4565b60005b828110156110a45761112e868351611151565b611137826113f4565b60209690960195915060010161111b565b61105181611409565b61105181610371565b601881527f496e76616c696420636f6e747261637420616464726573730000000000000000602082015260400190565b600f81527f4e6f20737563682076657273696f6e0000000000000000000000000000000000602082015260400190565b602681527f4c697374206f662073656c6563746f7273206d757374206d6174636820696e2060208201527f6c656e6774680000000000000000000000000000000000000000000000000000604082015260600190565b601681527f56657273696f6e20616c72656164792065786973747300000000000000000000602082015260400190565b601981527f4d757374206265206f776e6572206f7220506c6174666f726d00000000000000602082015260400190565b601281527f56657273696f6e206d7573742065786973740000000000000000000000000000602082015260400190565b805160009060608401906112b48582611151565b50602083015184820360208601526112cc82826110fb565b915050604083015184820360408601526112e682826110fb565b95945050505050565b6020810161099f8284611048565b60208082528101610c588184611057565b60208082528101610c5881846110ae565b6020810161099f8284611148565b6020810161099f8284611151565b6020808252810161099f8161115a565b6020808252810161099f8161118a565b6020808252810161099f816111ba565b6020808252810161099f81611210565b6020808252810161099f81611240565b6020808252810161099f81611270565b60208082528101610c5881846112a0565b60405181810167ffffffffffffffff811182821017156113cb57600080fd5b604052919050565b600067ffffffffffffffff8211156113ea57600080fd5b5060209081020190565b60200190565b5190565b600061099f8261140e565b151590565b600160a060020a03169056fea265627a7a723058200413374604ed422e68292dc213c2e177cd9e59f47fa043e6a86b120a731cd2296c6578706572696d656e74616cf50037",
  "source": "pragma solidity ^0.5.0;\npragma experimental ABIEncoderV2;\n\nimport \"./Ownable.sol\";\n\ncontract MatryxSystem is Ownable() {\n    // Contains info for a version of Platform\n    struct Platform {\n        bool exists;\n        mapping(bytes32=>ContractData) contracts;\n        bytes32[] allContracts;\n    }\n\n    // Used to transform calls on a MatryxForwarder to its relevant library\n    struct FnData {\n        bytes32 modifiedSelector; // modified fn selector\n        uint256[] injectedParams; // what storage slots to insert\n        uint256[] dynamicParams;  // what params are dynamic\n    }\n\n    // Stores information about a currently deployed contract or library\n    struct ContractData {\n        address location;\n        mapping(bytes32=>FnData) fnData;\n    }\n\n    mapping(address=>uint256) contractType;\n    mapping(uint256=>bytes32) contractTypeToLibraryName;\n\n    mapping(uint256=>Platform) platformByVersion;\n    uint256[] allVersions;\n    uint256 currentVersion;\n\n    modifier onlyOwnerOrPlatform {\n        bool isOwner = msg.sender == owner;\n        bool isPlatform = contractType[msg.sender] == uint256(LibSystem.ContractType.Platform);\n        require(isOwner || isPlatform, \"Must be owner or Platform\");\n        _;\n    }\n\n    /// @dev Checks the validity of a contract address\n    function isContract(address _address) private view returns (bool) {\n        uint256 _size;\n        assembly { _size := extcodesize(_address) }\n        return _size > 0;\n    }\n\n    /// @dev Create a new version of Platform\n    function createVersion(uint256 version) public onlyOwner {\n        require(!platformByVersion[version].exists, \"Version already exists\");\n        platformByVersion[version].exists = true;\n        allVersions.push(version);\n    }\n\n    /// @dev Set the current version of Platform\n    function setVersion(uint256 version) public onlyOwner {\n        require(platformByVersion[version].exists, \"Version must exist\");\n        currentVersion = version;\n    }\n\n    /// @dev Get the current version of Platform\n    function getVersion() public view returns (uint256) {\n        return currentVersion;\n    }\n\n    /// @dev Get all versions of Platform\n    function getAllVersions() public view returns (uint256[] memory) {\n        return allVersions;\n    }\n\n    function getPlatformContracts(uint256 version) public view returns (bytes32[] memory) {\n        return platformByVersion[version].allContracts;\n    }\n\n    /// @dev Set a contract address for a contract by a given name\n    /// @param version   Version of Platform this contract belongs to\n    /// @param cName     Name of the contract we want to set an address for\n    /// @param cAddress  Address of the contract\n    function setContract(uint256 version, bytes32 cName, address cAddress) public onlyOwner {\n        require(platformByVersion[version].exists, \"No such version\");\n        require(isContract(cAddress), \"Invalid contract address\");\n\n        if (platformByVersion[version].contracts[cName].location == address(0)) {\n            platformByVersion[version].allContracts.push(cName);\n        }\n\n        platformByVersion[version].contracts[cName].location = cAddress;\n    }\n\n    /// @dev Returns the address of a contract given its name\n    /// @param version  Version of Platform to lookup the address on\n    /// @param cName    Name of the contract we want an address for\n    /// @return         Address of the contract\n    function getContract(uint256 version, bytes32 cName) public view returns (address) {\n        address cAddress = platformByVersion[version].contracts[cName].location;\n        require(isContract(cAddress), \"Invalid contract address\");\n\n        return cAddress;\n    }\n\n    /// @dev Register a contract method for a contract by its name\n    /// @param version   Version of Platform for contract method association\n    /// @param cName     Name of the contract we want an address for\n    /// @param selector  Hash of the method signature to register to the contract (keccak256)\n    /// @param fnData    Calldata transformation information for library delegatecall\n    function addContractMethod(uint256 version, bytes32 cName, bytes32 selector, FnData memory fnData) public onlyOwner {\n        require(platformByVersion[version].exists, \"No such version\");\n        platformByVersion[version].contracts[cName].fnData[selector] = fnData;\n    }\n\n    /// @dev Batch register contract methods for a contract by its name, that share the same injected and dynamic params\n    /// @param version            Version of Platform for contract method association\n    /// @param cName              Name of the contract we want an address for\n    /// @param selectors          Hashes of the method signatures to register to the contract (keccak256)\n    /// @param modifiedSelectors  Hashes of the library-specific method signatures to register to the contract (keccak256)\n    /// @param fnData             Calldata transformation information for library delegatecall\n    function addContractMethods(uint256 version, bytes32 cName, bytes32[] memory selectors, bytes32[] memory modifiedSelectors, FnData memory fnData) public onlyOwner {\n        require(platformByVersion[version].exists, \"No such version\");\n        require(selectors.length == modifiedSelectors.length, \"List of selectors must match in length\");\n\n        for (uint256 i = 0; i < selectors.length; i++) {\n            platformByVersion[version].contracts[cName].fnData[selectors[i]] = fnData;\n            platformByVersion[version].contracts[cName].fnData[selectors[i]].modifiedSelector = modifiedSelectors[i];\n        }\n    }\n\n    /// @dev Gets calldata transformation information for a library name and function selector\n    /// @param version   Version of Platform for the method request\n    /// @param cName     Name of the contract we want an address for\n    /// @param selector  Hash of the method signature to register to the contract (keccak256)\n    /// @return          Calldata transformation information for library delegatecall\n    function getContractMethod(uint256 version, bytes32 cName, bytes32 selector) public view returns (FnData memory) {\n        address cAddress = platformByVersion[version].contracts[cName].location;\n        require(isContract(cAddress), \"Invalid contract address\");\n\n        return platformByVersion[version].contracts[cName].fnData[selector];\n    }\n\n    /// @dev Associates a contract address with a type\n    /// @param cAddress  Address of the contract we want to set the type\n    /// @param cType     Type we want to associate the contract address with\n    function setContractType(address cAddress, uint256 cType) public onlyOwnerOrPlatform {\n        require(isContract(cAddress), \"Invalid contract address\");\n        contractType[cAddress] = cType;\n    }\n\n    /// @dev Gets the associated type for a contract address\n    /// @param cAddress  Address of the contract we want to get the type for\n    function getContractType(address cAddress) public view returns (uint256) {\n        return contractType[cAddress];\n    }\n\n    /// @dev Associates a contract type with a library name\n    /// @param cType  Contract type\n    /// @param lName  Library name\n    function setLibraryName(uint256 cType, bytes32 lName) public onlyOwnerOrPlatform {\n        contractTypeToLibraryName[cType] = lName;\n    }\n\n    /// @dev Returns the library name for a given contract address\n    /// @param cAddress  Contract address\n    /// @return          Library name\n    function getLibraryName(address cAddress) public view returns (bytes32) {\n        uint256 cType = contractType[cAddress];\n        return contractTypeToLibraryName[cType];\n    }\n}\n\ninterface IMatryxSystem {\n    function createVersion(uint256 version) external;\n    function setVersion(uint256 version) external;\n    function getVersion() external view returns (uint256);\n    function getAllVersions() external view returns (uint256[] memory);\n    function getPlatformContracts(uint256 version) external view returns (bytes32[] memory);\n    function setContract(uint256 version, bytes32 cName, address cAddress) external;\n    function getContract(uint256 version, bytes32 cName) external view returns (address);\n    function addContractMethod(uint256 version, bytes32 cName, bytes32 selector, MatryxSystem.FnData calldata fnData) external;\n    function addContractMethods(uint256 version, bytes32 cName, bytes32[] calldata selectors, bytes32[] calldata modifiedSelectors, MatryxSystem.FnData calldata fnData) external;\n    function getContractMethod(uint256 version, bytes32 cName, bytes32 selector) external view returns (MatryxSystem.FnData memory);\n    function setContractType(address cAddress, uint256 cType) external;\n    function getContractType(address cAddress) external view returns (uint256);\n    function setLibraryName(uint256 cType, bytes32 lName) external;\n    function getLibraryName(address cAddress) external view returns (bytes32);\n}\n\nlibrary LibSystem {\n    enum ContractType { Unknown, Platform, Commit, Tournament }\n}\n",
  "sourcePath": "/Users/maxhoward/Desktop/Ethereum/MatryxPlatform/contracts/MatryxSystem.sol",
  "compiler": {
    "name": "solc",
    "version": "0.5.0+commit.1d4f565a.Emscripten.clang"
  },
  "schemaVersion": "3.0.2",
  "updatedAt": "2019-03-15T16:46:01.960Z",
  "devdoc": {
    "methods": {
      "addContractMethod(uint256,bytes32,bytes32,(bytes32,uint256[],uint256[]))": {
        "details": "Register a contract method for a contract by its name",
        "params": {
          "cName": "Name of the contract we want an address for",
          "fnData": "Calldata transformation information for library delegatecall",
          "selector": "Hash of the method signature to register to the contract (keccak256)",
          "version": "Version of Platform for contract method association"
        }
      },
      "addContractMethods(uint256,bytes32,bytes32[],bytes32[],(bytes32,uint256[],uint256[]))": {
        "details": "Batch register contract methods for a contract by its name, that share the same injected and dynamic params",
        "params": {
          "cName": "Name of the contract we want an address for",
          "fnData": "Calldata transformation information for library delegatecall",
          "modifiedSelectors": "Hashes of the library-specific method signatures to register to the contract (keccak256)",
          "selectors": "Hashes of the method signatures to register to the contract (keccak256)",
          "version": "Version of Platform for contract method association"
        }
      },
      "createVersion(uint256)": {
        "details": "Create a new version of Platform"
      },
      "getAllVersions()": {
        "details": "Get all versions of Platform"
      },
      "getContract(uint256,bytes32)": {
        "details": "Returns the address of a contract given its name",
        "params": {
          "cName": "Name of the contract we want an address for",
          "version": "Version of Platform to lookup the address on"
        },
        "return": "Address of the contract"
      },
      "getContractMethod(uint256,bytes32,bytes32)": {
        "details": "Gets calldata transformation information for a library name and function selector",
        "params": {
          "cName": "Name of the contract we want an address for",
          "selector": "Hash of the method signature to register to the contract (keccak256)",
          "version": "Version of Platform for the method request"
        },
        "return": "Calldata transformation information for library delegatecall"
      },
      "getContractType(address)": {
        "details": "Gets the associated type for a contract address",
        "params": {
          "cAddress": "Address of the contract we want to get the type for"
        }
      },
      "getLibraryName(address)": {
        "details": "Returns the library name for a given contract address",
        "params": {
          "cAddress": "Contract address"
        },
        "return": "Library name"
      },
      "getVersion()": {
        "details": "Get the current version of Platform"
      },
      "setContract(uint256,bytes32,address)": {
        "details": "Set a contract address for a contract by a given name",
        "params": {
          "cAddress": "Address of the contract",
          "cName": "Name of the contract we want to set an address for",
          "version": "Version of Platform this contract belongs to"
        }
      },
      "setContractType(address,uint256)": {
        "details": "Associates a contract address with a type",
        "params": {
          "cAddress": "Address of the contract we want to set the type",
          "cType": "Type we want to associate the contract address with"
        }
      },
      "setLibraryName(uint256,bytes32)": {
        "details": "Associates a contract type with a library name",
        "params": {
          "cType": "Contract type",
          "lName": "Library name"
        }
      },
      "setVersion(uint256)": {
        "details": "Set the current version of Platform"
      },
      "transferOwnership(address)": {
        "details": "Allows the current owner to transfer control of the contract to a newOwner.",
        "params": {
          "newOwner": "The address to transfer ownership to."
        }
      }
    }
  },
  "userdoc": {
    "methods": {}
  }
}