{
  "contractName": "MatryxPlatform",
  "abi": [
    {
      "inputs": [
        {
          "name": "system",
          "type": "address"
        },
        {
          "name": "token",
          "type": "address"
        }
      ],
      "payable": false,
      "stateMutability": "nonpayable",
      "type": "constructor",
      "signature": "constructor"
    },
    {
      "payable": false,
      "stateMutability": "nonpayable",
      "type": "fallback"
    },
    {
      "constant": false,
      "inputs": [
        {
          "name": "newOwner",
          "type": "address"
        }
      ],
      "name": "transferOwnership",
      "outputs": [],
      "payable": false,
      "stateMutability": "nonpayable",
      "type": "function",
      "signature": "0xf2fde38b"
    },
    {
      "constant": false,
      "inputs": [],
      "name": "acceptOwnership",
      "outputs": [],
      "payable": false,
      "stateMutability": "nonpayable",
      "type": "function",
      "signature": "0x79ba5097"
    },
    {
      "constant": false,
      "inputs": [
        {
          "name": "token",
          "type": "address"
        }
      ],
      "name": "upgradeToken",
      "outputs": [],
      "payable": false,
      "stateMutability": "nonpayable",
      "type": "function",
      "signature": "0x6ee31a18"
    },
    {
      "constant": false,
      "inputs": [
        {
          "name": "token",
          "type": "address"
        }
      ],
      "name": "withdrawTokens",
      "outputs": [],
      "payable": false,
      "stateMutability": "nonpayable",
      "type": "function",
      "signature": "0x49df728c"
    }
  ],
  "bytecode": "0x608060405234801561001057600080fd5b50604051604080610a88833981018060405261002f9190810190610083565b600080546001600160a01b039384166001600160a01b03199182161790915560018054929093169181169190911790915560028054909116331790556100da565b600061007c82516100bd565b9392505050565b6000806040838503121561009657600080fd5b60006100a28585610070565b92505060206100b385828601610070565b9150509250929050565b60006100c8826100ce565b92915050565b6001600160a01b031690565b61099f806100e96000396000f3fe608060405234801561001057600080fd5b506004361061004c5760003560e01c806349df728c1461032f5780636ee31a181461034457806379ba509714610357578063f2fde38b1461035f575b6000805460408051600160e21b6303639b8b02815290516001600160a01b0390921691630d8e6e2c91600480820192602092909190829003018186803b15801561009557600080fd5b505afa1580156100a9573d6000803e3d6000fd5b505050506040513d601f19601f820116820180604052506100cd91908101906107ac565b60008054604051600160e01b63a8bc392702815292935090916001600160a01b039091169063a8bc3927906101069033906004016108b7565b60206040518083038186803b15801561011e57600080fd5b505afa158015610132573d6000803e3d6000fd5b505050506040513d601f19601f8201168201806040525061015691908101906107ac565b9050600160a81b6a4c6962506c6174666f726d028114801590610180576020602460003760005192505b60008054604051600160e11b63629e7ecd0281526001600160a01b039091169063c53cfd9a906101b6908790879060040161091e565b60206040518083038186803b1580156101ce57600080fd5b505afa1580156101e2573d6000803e3d6000fd5b505050506040513d601f19601f820116820180604052506102069190810190610770565b9050600160e01b600060405160005483633b15aabf028252876004830152866024830152600060448301526004600060448401376000806064846000855af192503d6000833e82610255573d82fd5b815182016020810151810180516020820191506040830151830180516020820191503d870196508451875260048701945030855233602086015260048b156102a7573386526020600460208801376040015b60408601955060005b848110156102cf576020818102870151885296909601956001016102b0565b5080360381873760005b828110156103035760208181028501518102880180516002880190920290910190526001016102d9565b50600284016020023682900301600401600080828b8f5af499503d60008a3e8961032b573d89fd5b3d89f35b61034261033d36600461074a565b610372565b005b61034261035236600461074a565b610500565b610342610659565b61034261036d36600461074a565b610697565b6002546001600160a01b031633146103a857604051600160e51b62461bcd02815260040161039f90610900565b60405180910390fd5b604051600160e01b6370a082310281526000906001600160a01b038316906370a08231906103da9030906004016108a9565b60206040518083038186803b1580156103f257600080fd5b505afa158015610406573d6000803e3d6000fd5b505050506040513d601f19601f8201168201806040525061042a91908101906107ac565b6001549091506001600160a01b038381169116141561045a5760035461045790829063ffffffff6106f916565b90505b604051600160e01b63a9059cbb0281526001600160a01b0383169063a9059cbb9061048b90339085906004016108c5565b602060405180830381600087803b1580156104a557600080fd5b505af11580156104b9573d6000803e3d6000fd5b505050506040513d601f19601f820116820180604052506104dd919081019061078e565b6104fc57604051600160e51b62461bcd02815260040161039f906108f0565b5050565b6002546001600160a01b0316331461052d57604051600160e51b62461bcd02815260040161039f90610900565b600154600354604051600160e01b6345977d030281526001600160a01b03909216916345977d039161056191600401610910565b600060405180830381600087803b15801561057b57600080fd5b505af115801561058f573d6000803e3d6000fd5b5050600354604051600160e01b6370a082310281529092506001600160a01b03841691506370a08231906105c79030906004016108a9565b60206040518083038186803b1580156105df57600080fd5b505afa1580156105f3573d6000803e3d6000fd5b505050506040513d601f19601f8201168201806040525061061791908101906107ac565b1461063757604051600160e51b62461bcd02815260040161039f906108e0565b600180546001600160a01b0319166001600160a01b0392909216919091179055565b6011546001600160a01b0316331461067057600080fd5b60118054600280546001600160a01b03199081166001600160a01b03841617909155169055565b6002546001600160a01b031633146106c457604051600160e51b62461bcd02815260040161039f90610900565b6001600160a01b0381166106d757600080fd5b601180546001600160a01b0319166001600160a01b0392909216919091179055565b60008282111561070857600080fd5b508082035b92915050565b600061071f8235610935565b9392505050565b600061071f8251610935565b600061071f825161094f565b600061071f8251610940565b60006020828403121561075c57600080fd5b60006107688484610713565b949350505050565b60006020828403121561078257600080fd5b60006107688484610726565b6000602082840312156107a057600080fd5b60006107688484610732565b6000602082840312156107be57600080fd5b6000610768848461073e565b6107d381610954565b82525050565b6107d381610935565b6107d381610940565b60006107f860278361092c565b7f546f6b656e2061646472657373206d757374206d6174636820757067726164658152600160c91b6632103a37b5b2b702602082015260400192915050565b6000610844600f8361092c565b7f5472616e73666572206661696c65640000000000000000000000000000000000815260200192915050565b600061087d60168361092c565b7f4d75737420626520506c6174666f726d206f776e657200000000000000000000815260200192915050565b6020810161070d82846107d9565b6020810161070d82846107ca565b604081016108d382856107ca565b61071f60208301846107e2565b6020808252810161070d816107eb565b6020808252810161070d81610837565b6020808252810161070d81610870565b6020810161070d82846107e2565b604081016108d382856107e2565b90815260200190565b600061070d82610943565b90565b6001600160a01b031690565b151590565b600061070d82600061070d8261093556fea265627a7a7230582023ca30848909a2aa08504cdc93da42082d4e5b93d62bf15b701a0eb837ecf3c16c6578706572696d656e74616cf50037",
  "source": "pragma solidity ^0.5.7;\npragma experimental ABIEncoderV2;\n\nimport \"./SafeMath.sol\";\nimport \"./IToken.sol\";\nimport \"./MatryxSystem.sol\";\nimport \"./LibTournament.sol\";\n\ncontract MatryxPlatform {\n    using SafeMath for uint256;\n\n    struct Info {\n        address system;\n        address token;\n        address owner;\n    }\n\n    struct Data {\n        uint256 totalBalance;                                        // total allocated mtx balance of the platform\n        mapping(address=>uint256) tournamentBalance;                 // maps tournament addresses to tournament balances\n        mapping(bytes32=>uint256) commitBalance;                     // maps commit hashes to commit mtx balances\n\n        mapping(address=>LibTournament.TournamentData) tournaments;  // maps tournament addresses to tournament structs\n        mapping(bytes32=>LibTournament.SubmissionData) submissions;  // maps submission identifier to submission struct\n\n        address[] allTournaments;                                    // all matryx tournament addresses\n\n        mapping(bytes32=>LibCommit.Commit) commits;                  // maps commit hashes to commits\n        mapping(bytes32=>LibCommit.Group) groups;                    // maps group hashes to group structs\n        mapping(bytes32=>bytes32) commitHashes;                      // maps content hashes to commit hashes\n        mapping(bytes32=>bytes32[]) commitToSubmissions;             // maps commits to submission created from them\n        mapping(bytes32=>LibCommit.CommitWithdrawalStats) commitWithdrawalStats; // maps commit hash to withdrawal stats\n\n        mapping(bytes32=>uint256) commitClaims;                      // timestamp of content hash claim\n\n        mapping(address=>bool) whitelist;                            // user whitelist\n        mapping(address=>bool) blacklist;                            // user blacklist\n    }\n\n    Info info;                                                       // slot 0\n    Data data;                                                       // slot 3\n    address pendingOwner;\n\n    constructor(address system, address token) public {\n        info.system = system;\n        info.token = token;\n        info.owner = msg.sender;\n    }\n\n    /// @dev\n    /// 1) Uses msg.sender to ask MatryxSystem for the type of library this call should be forwarded to\n    /// 2) Uses this library type to lookup (in its own storage) the name of the library\n    /// 3) Uses this name to ask MatryxSystem for the address of the contract (under this platform's version)\n    /// 4) Uses name and signature to ask MatryxSystem for the data necessary to modify the incoming calldata\n    ///    so as to be appropriate for the associated library call\n    /// 5) Makes a delegatecall to the library address given by MatryxSystem with the library-appropriate calldata\n    function () external {\n        uint256 version = IMatryxSystem(info.system).getVersion();\n        bytes32 libName = IMatryxSystem(info.system).getLibraryName(msg.sender);\n        bool isForwarded = libName != bytes32(\"LibPlatform\");\n\n        assembly {\n            if isForwarded {\n                calldatacopy(0, 0x24, 0x20)                                     // get injected version from calldata\n                version := mload(0)                                             // overwrite version var\n            }\n        }\n\n        address libAddress = IMatryxSystem(info.system).getContract(version, libName);\n\n        assembly {\n            // constants\n            let offset := 0x100000000000000000000000000000000000000000000000000000000\n\n            let res\n            let ptr := mload(0x40)                                              // scratch space for calldata\n            let system := sload(info_slot)                                      // load info.system address\n\n            // get fnData from system\n            mstore(ptr, mul(0x3b15aabf, offset))                                // getContractMethod(uint256,bytes32,bytes32)\n            mstore(add(ptr, 0x04), version)                                     // arg 0 - version\n            mstore(add(ptr, 0x24), libName)                                     // arg 1 - library name\n            mstore(add(ptr, 0x44), 0)                                           // zero out uninitialized data\n            calldatacopy(add(ptr, 0x44), 0, 0x04)                               // arg 2 - fn selector\n            res := call(gas, system, 0, ptr, 0x64, 0, 0)                        // call system.getContractMethod\n            returndatacopy(ptr, 0, returndatasize)                              // copy fnData into ptr\n            if iszero(res) { revert(ptr, returndatasize) }                      // safety check\n            let ptr2 := add(ptr, mload(ptr))                                    // ptr2 is pointer to start of fnData\n\n            let m_injParams := add(ptr2, mload(add(ptr2, 0x20)))                // mem loc injected params\n            let injParams_len := mload(m_injParams)                             // num injected params\n            m_injParams := add(m_injParams, 0x20)                               // first injected param\n\n            let m_dynParams := add(ptr2, mload(add(ptr2, 0x40)))                // memory location of start of dynamic params\n            let dynParams_len := mload(m_dynParams)                             // num dynamic params\n            m_dynParams := add(m_dynParams, 0x20)                               // first dynamic param\n\n            // forward calldata to library\n            ptr := add(ptr, returndatasize)                                     // shift ptr to new scratch space\n            mstore(ptr, mload(ptr2))                                            // forward call with modified selector\n\n            ptr2 := add(ptr, 0x04)                                              // copy of ptr for keeping track of injected params\n\n            mstore(ptr2, address)                                               // inject platform\n            mstore(add(ptr2, 0x20), caller)                                     // inject msg.sender\n\n            let cdOffset := 0x04                                                // calldata offset, after signature\n\n            if isForwarded {\n                mstore(ptr2, caller)                                            // overwrite injected platform with sender\n                calldatacopy(add(ptr2, 0x20), 0x04, 0x20)                       // overwrite injected sender with address from forwarder\n                cdOffset := add(cdOffset, 0x40)                                 // shift calldata offset for injected address and version\n            }\n            ptr2 := add(ptr2, 0x40)                                             // shift ptr2 to account for injected addresses\n\n            for { let i := 0 } lt(i, injParams_len) { i := add(i, 1) } {        // loop through injected params and insert\n                let injParam := mload(add(m_injParams, mul(i, 0x20)))           // get injected param slot\n                mstore(ptr2, injParam)                                          // store injected params into next slot\n                ptr2 := add(ptr2, 0x20)                                         // shift ptr2 by a word for each injected\n            }\n\n            calldatacopy(ptr2, cdOffset, sub(calldatasize, cdOffset))           // copy calldata after injected data storage\n\n            for { let i := 0 } lt(i, dynParams_len) { i := add(i, 1) } {        // loop through params and update dynamic param locations\n                let idx := mload(add(m_dynParams, mul(i, 0x20)))                // get dynParam index in parameters\n                let loc := add(ptr2, mul(idx, 0x20))                            // get location in memory of dynParam\n                mstore(loc, add(mload(loc), mul(add(injParams_len, 2), 0x20)))  // shift dynParam location by num injected\n            }\n\n            // calculate size of forwarded call\n            let size := add(0x04, sub(calldatasize, cdOffset))                  // calldatasize minus injected\n            size := add(size, mul(add(injParams_len, 2), 0x20))                 // add size of injected\n\n            res := delegatecall(gas, libAddress, ptr, size, 0, 0)               // delegatecall to library\n            returndatacopy(ptr, 0, returndatasize)                              // copy return data into ptr for returning\n\n            if iszero(res) { revert(ptr, returndatasize) }                        // safety check\n            return(ptr, returndatasize)                                         // return forwarded call returndata\n        }\n    }\n\n    modifier onlyOwner() {\n        require(msg.sender == info.owner, \"Must be Platform owner\");\n        _;\n    }\n\n    /// @dev Enables address to accept ownership of the platform\n    /// @param newOwner  New owner address\n    function transferOwnership(address newOwner) external onlyOwner {\n        require(newOwner != address(0));\n        pendingOwner = newOwner;\n    }\n\n    /// @dev Accepts ownership transfer\n    function acceptOwnership() external {\n        require(msg.sender == pendingOwner);\n        info.owner = pendingOwner;\n        pendingOwner = address(0);\n    }\n\n    /// @dev Sets the Token address\n    /// @param token  New token address\n    function upgradeToken(address token) external onlyOwner {\n        IToken(info.token).upgrade(data.totalBalance);\n\n        require(IToken(token).balanceOf(address(this)) == data.totalBalance, \"Token address must match upgraded token\");\n        info.token = token;\n    }\n\n    /// @dev Withdraws any unallocated ERC20 tokens from Platform\n    /// @param token  ERC20 token address to use\n    function withdrawTokens(address token) external onlyOwner {\n        uint256 balance = IToken(token).balanceOf(address(this));\n\n        // if current token, check if any extraneous tokens\n        if (token == info.token) {\n            balance = balance.sub(data.totalBalance);\n        }\n\n        require(IToken(token).transfer(msg.sender, balance), \"Transfer failed\");\n    }\n}\n\ninterface IMatryxPlatform {\n    event TournamentCreated(address indexed tournament, address indexed creator);\n    event TournamentUpdated(address indexed tournament);\n    event TournamentBountyAdded(address indexed tournament, address indexed donor, uint256 amount);\n\n    event RoundCreated(address indexed tournament, uint256 roundIndex);\n    event RoundUpdated(address indexed tournament, uint256 roundIndex);\n\n    event SubmissionCreated(address indexed tournament, bytes32 submissionHash, address indexed creator);\n    event SubmissionRewarded(address indexed tournament, bytes32 submissionHash);\n\n    event GroupMemberAdded(bytes32 indexed commitHash, address indexed user);\n    event CommitClaimed(bytes32 commitHash);\n    event CommitCreated(bytes32 indexed parentHash, bytes32 commitHash, address indexed creator, bool indexed isFork);\n\n    function transferOwnership(address newOwner) external;\n    function acceptOwnership() external;\n    function upgradeToken(address token) external;\n    function withdrawTokens(address token) external;\n\n    function getInfo() external view returns (MatryxPlatform.Info memory);\n    function isTournament(address tournament) external view returns (bool);\n    function isCommit(bytes32 commitHash) external view returns (bool);\n    function isSubmission(bytes32 submissionHash) external view returns (bool);\n\n    function getTotalBalance() external view returns (uint256);\n\n    function getTournamentCount() external view returns (uint256);\n    function getTournaments() external view returns (address[] memory);\n    function getSubmission(bytes32 submissionHash) external view returns (LibTournament.SubmissionData memory);\n\n    function setUserBlacklisted(address user, bool isBlacklisted) external;\n    function createTournament(LibTournament.TournamentDetails calldata, LibTournament.RoundDetails calldata) external returns (address);\n}\n",
  "sourcePath": "/Users/ajm13/Desktop/matryx/MatryxPlatform/contracts/MatryxPlatform.sol",
  "compiler": {
    "name": "solc",
    "version": "0.5.7+commit.6da8b019.Emscripten.clang"
  },
  "schemaVersion": "3.0.2",
  "updatedAt": "2019-05-03T00:11:42.834Z",
  "devdoc": {
    "methods": {
      "acceptOwnership()": {
        "details": "Accepts ownership transfer"
      },
      "transferOwnership(address)": {
        "details": "Enables address to accept ownership of the platform",
        "params": {
          "newOwner": "New owner address"
        }
      },
      "upgradeToken(address)": {
        "details": "Sets the Token address",
        "params": {
          "token": "New token address"
        }
      },
      "withdrawTokens(address)": {
        "details": "Withdraws any unallocated ERC20 tokens from Platform",
        "params": {
          "token": "ERC20 token address to use"
        }
      }
    }
  },
  "userdoc": {
    "methods": {}
  }
}