{
  "contractName": "MatryxToken",
  "abi": [
    {
      "constant": false,
      "inputs": [
        {
          "name": "addr",
          "type": "address"
        },
        {
          "name": "state",
          "type": "bool"
        }
      ],
      "name": "setTransferAgent",
      "outputs": [],
      "payable": false,
      "stateMutability": "nonpayable",
      "type": "function"
    },
    {
      "constant": true,
      "inputs": [],
      "name": "mintingFinished",
      "outputs": [
        {
          "name": "",
          "type": "bool"
        }
      ],
      "payable": false,
      "stateMutability": "view",
      "type": "function"
    },
    {
      "constant": true,
      "inputs": [],
      "name": "name",
      "outputs": [
        {
          "name": "",
          "type": "string"
        }
      ],
      "payable": false,
      "stateMutability": "view",
      "type": "function"
    },
    {
      "constant": false,
      "inputs": [
        {
          "name": "_spender",
          "type": "address"
        },
        {
          "name": "_value",
          "type": "uint256"
        }
      ],
      "name": "approve",
      "outputs": [
        {
          "name": "",
          "type": "bool"
        }
      ],
      "payable": false,
      "stateMutability": "nonpayable",
      "type": "function"
    },
    {
      "constant": true,
      "inputs": [],
      "name": "totalSupply",
      "outputs": [
        {
          "name": "",
          "type": "uint256"
        }
      ],
      "payable": false,
      "stateMutability": "view",
      "type": "function"
    },
    {
      "constant": false,
      "inputs": [
        {
          "name": "_from",
          "type": "address"
        },
        {
          "name": "_to",
          "type": "address"
        },
        {
          "name": "_value",
          "type": "uint256"
        }
      ],
      "name": "transferFrom",
      "outputs": [
        {
          "name": "success",
          "type": "bool"
        }
      ],
      "payable": false,
      "stateMutability": "nonpayable",
      "type": "function"
    },
    {
      "constant": false,
      "inputs": [
        {
          "name": "addr",
          "type": "address"
        }
      ],
      "name": "setReleaseAgent",
      "outputs": [],
      "payable": false,
      "stateMutability": "nonpayable",
      "type": "function"
    },
    {
      "constant": true,
      "inputs": [],
      "name": "decimals",
      "outputs": [
        {
          "name": "",
          "type": "uint256"
        }
      ],
      "payable": false,
      "stateMutability": "view",
      "type": "function"
    },
    {
      "constant": false,
      "inputs": [
        {
          "name": "_to",
          "type": "address"
        },
        {
          "name": "_amount",
          "type": "uint256"
        }
      ],
      "name": "mint",
      "outputs": [
        {
          "name": "",
          "type": "bool"
        }
      ],
      "payable": false,
      "stateMutability": "nonpayable",
      "type": "function"
    },
    {
      "constant": false,
      "inputs": [
        {
          "name": "value",
          "type": "uint256"
        }
      ],
      "name": "upgrade",
      "outputs": [],
      "payable": false,
      "stateMutability": "nonpayable",
      "type": "function"
    },
    {
      "constant": true,
      "inputs": [],
      "name": "upgradeAgent",
      "outputs": [
        {
          "name": "",
          "type": "address"
        }
      ],
      "payable": false,
      "stateMutability": "view",
      "type": "function"
    },
    {
      "constant": false,
      "inputs": [],
      "name": "releaseTokenTransfer",
      "outputs": [],
      "payable": false,
      "stateMutability": "nonpayable",
      "type": "function"
    },
    {
      "constant": true,
      "inputs": [],
      "name": "upgradeMaster",
      "outputs": [
        {
          "name": "",
          "type": "address"
        }
      ],
      "payable": false,
      "stateMutability": "view",
      "type": "function"
    },
    {
      "constant": true,
      "inputs": [
        {
          "name": "_owner",
          "type": "address"
        }
      ],
      "name": "balanceOf",
      "outputs": [
        {
          "name": "balance",
          "type": "uint256"
        }
      ],
      "payable": false,
      "stateMutability": "view",
      "type": "function"
    },
    {
      "constant": false,
      "inputs": [],
      "name": "finishMinting",
      "outputs": [
        {
          "name": "",
          "type": "bool"
        }
      ],
      "payable": false,
      "stateMutability": "nonpayable",
      "type": "function"
    },
    {
      "constant": true,
      "inputs": [],
      "name": "getUpgradeState",
      "outputs": [
        {
          "name": "",
          "type": "uint8"
        }
      ],
      "payable": false,
      "stateMutability": "view",
      "type": "function"
    },
    {
      "constant": true,
      "inputs": [
        {
          "name": "",
          "type": "address"
        }
      ],
      "name": "transferAgents",
      "outputs": [
        {
          "name": "",
          "type": "bool"
        }
      ],
      "payable": false,
      "stateMutability": "view",
      "type": "function"
    },
    {
      "constant": true,
      "inputs": [],
      "name": "owner",
      "outputs": [
        {
          "name": "",
          "type": "address"
        }
      ],
      "payable": false,
      "stateMutability": "view",
      "type": "function"
    },
    {
      "constant": true,
      "inputs": [],
      "name": "symbol",
      "outputs": [
        {
          "name": "",
          "type": "string"
        }
      ],
      "payable": false,
      "stateMutability": "view",
      "type": "function"
    },
    {
      "constant": true,
      "inputs": [],
      "name": "released",
      "outputs": [
        {
          "name": "",
          "type": "bool"
        }
      ],
      "payable": false,
      "stateMutability": "view",
      "type": "function"
    },
    {
      "constant": false,
      "inputs": [
        {
          "name": "_to",
          "type": "address"
        },
        {
          "name": "_value",
          "type": "uint256"
        }
      ],
      "name": "transfer",
      "outputs": [
        {
          "name": "success",
          "type": "bool"
        }
      ],
      "payable": false,
      "stateMutability": "nonpayable",
      "type": "function"
    },
    {
      "constant": true,
      "inputs": [],
      "name": "totalUpgraded",
      "outputs": [
        {
          "name": "",
          "type": "uint256"
        }
      ],
      "payable": false,
      "stateMutability": "view",
      "type": "function"
    },
    {
      "constant": true,
      "inputs": [],
      "name": "releaseAgent",
      "outputs": [
        {
          "name": "",
          "type": "address"
        }
      ],
      "payable": false,
      "stateMutability": "view",
      "type": "function"
    },
    {
      "constant": false,
      "inputs": [
        {
          "name": "agent",
          "type": "address"
        }
      ],
      "name": "setUpgradeAgent",
      "outputs": [],
      "payable": false,
      "stateMutability": "nonpayable",
      "type": "function"
    },
    {
      "constant": true,
      "inputs": [
        {
          "name": "_owner",
          "type": "address"
        },
        {
          "name": "_spender",
          "type": "address"
        }
      ],
      "name": "allowance",
      "outputs": [
        {
          "name": "remaining",
          "type": "uint256"
        }
      ],
      "payable": false,
      "stateMutability": "view",
      "type": "function"
    },
    {
      "constant": false,
      "inputs": [
        {
          "name": "newOwner",
          "type": "address"
        }
      ],
      "name": "transferOwnership",
      "outputs": [],
      "payable": false,
      "stateMutability": "nonpayable",
      "type": "function"
    },
    {
      "constant": false,
      "inputs": [
        {
          "name": "master",
          "type": "address"
        }
      ],
      "name": "setUpgradeMaster",
      "outputs": [],
      "payable": false,
      "stateMutability": "nonpayable",
      "type": "function"
    },
    {
      "inputs": [],
      "payable": false,
      "stateMutability": "nonpayable",
      "type": "constructor"
    },
    {
      "anonymous": false,
      "inputs": [
        {
          "indexed": true,
          "name": "_from",
          "type": "address"
        },
        {
          "indexed": true,
          "name": "_to",
          "type": "address"
        },
        {
          "indexed": false,
          "name": "_value",
          "type": "uint256"
        }
      ],
      "name": "Upgrade",
      "type": "event"
    },
    {
      "anonymous": false,
      "inputs": [
        {
          "indexed": false,
          "name": "agent",
          "type": "address"
        }
      ],
      "name": "UpgradeAgentSet",
      "type": "event"
    },
    {
      "anonymous": false,
      "inputs": [
        {
          "indexed": true,
          "name": "to",
          "type": "address"
        },
        {
          "indexed": false,
          "name": "amount",
          "type": "uint256"
        }
      ],
      "name": "Mint",
      "type": "event"
    },
    {
      "anonymous": false,
      "inputs": [],
      "name": "MintFinished",
      "type": "event"
    },
    {
      "anonymous": false,
      "inputs": [
        {
          "indexed": true,
          "name": "from",
          "type": "address"
        },
        {
          "indexed": true,
          "name": "to",
          "type": "address"
        },
        {
          "indexed": false,
          "name": "value",
          "type": "uint256"
        }
      ],
      "name": "Transfer",
      "type": "event"
    },
    {
      "anonymous": false,
      "inputs": [
        {
          "indexed": true,
          "name": "owner",
          "type": "address"
        },
        {
          "indexed": true,
          "name": "spender",
          "type": "address"
        },
        {
          "indexed": false,
          "name": "value",
          "type": "uint256"
        }
      ],
      "name": "Approval",
      "type": "event"
    }
  ],
  "bytecode": "0x6004805460a060020a60ff02191690556006805460ff1916905560c0604052600b60808190527f4d6174727978546f6b656e00000000000000000000000000000000000000000060a09081526200005a9160099190620000ec565b506040805180820190915260038082527f4d545800000000000000000000000000000000000000000000000000000000006020909201918252620000a191600a91620000ec565b506012600b55348015620000b457600080fd5b506000805433600160a060020a031990911681179091556006805461010060a860020a03191661010090920291909117905562000191565b828054600181600116156101000203166002900490600052602060002090601f016020900481019282601f106200012f57805160ff19168380011785556200015f565b828001600101855582156200015f579182015b828111156200015f57825182559160200191906001019062000142565b506200016d92915062000171565b5090565b6200018e91905b808211156200016d576000815560010162000178565b90565b6115ac80620001a16000396000f3fe60806040526004361061015e5763ffffffff7c010000000000000000000000000000000000000000000000000000000060003504166302f652a3811461016357806305d2035b146101ad57806306fdde03146101d6578063095ea7b31461026057806318160ddd146102a657806323b872dd146102cd57806329ff4f531461031d578063313ce5671461035d57806340c10f191461037257806345977d03146103b85780635de4ccb0146103e25780635f412d4f14610420578063600440cb1461043557806370a082311461044a5780637d64bcb41461048a5780638444b3911461049f578063867c2857146104d85780638da5cb5b1461051857806395d89b411461052d5780639613252114610542578063a9059cbb14610557578063c752ff621461059d578063d1f276d3146105b2578063d7e7088a146105c7578063dd62ed3e14610607578063f2fde38b1461064f578063ffeb7d751461068f575b600080fd5b34801561016f57600080fd5b506101ab6004803603604081101561018657600080fd5b5073ffffffffffffffffffffffffffffffffffffffff813516906020013515156106cf565b005b3480156101b957600080fd5b506101c2610775565b604080519115158252519081900360200190f35b3480156101e257600080fd5b506101eb61077e565b6040805160208082528351818301528351919283929083019185019080838360005b8381101561022557818101518382015260200161020d565b50505050905090810190601f1680156102525780820380516001836020036101000a031916815260200191505b509250505060405180910390f35b34801561026c57600080fd5b506101c26004803603604081101561028357600080fd5b5073ffffffffffffffffffffffffffffffffffffffff813516906020013561082a565b3480156102b257600080fd5b506102bb6108e6565b60408051918252519081900360200190f35b3480156102d957600080fd5b506101c2600480360360608110156102f057600080fd5b5073ffffffffffffffffffffffffffffffffffffffff8135811691602081013590911690604001356108ec565b34801561032957600080fd5b506101ab6004803603602081101561034057600080fd5b503573ffffffffffffffffffffffffffffffffffffffff1661095e565b34801561036957600080fd5b506102bb6109f5565b34801561037e57600080fd5b506101c26004803603604081101561039557600080fd5b5073ffffffffffffffffffffffffffffffffffffffff81351690602001356109fb565b3480156103c457600080fd5b506101ab600480360360208110156103db57600080fd5b5035610b32565b3480156103ee57600080fd5b506103f7610cbd565b6040805173ffffffffffffffffffffffffffffffffffffffff9092168252519081900360200190f35b34801561042c57600080fd5b506101ab610cd9565b34801561044157600080fd5b506103f7610d3e565b34801561045657600080fd5b506102bb6004803603602081101561046d57600080fd5b503573ffffffffffffffffffffffffffffffffffffffff16610d5f565b34801561049657600080fd5b506101c2610d87565b3480156104ab57600080fd5b506104b4610e07565b604051808260048111156104c457fe5b60ff16815260200191505060405180910390f35b3480156104e457600080fd5b506101c2600480360360208110156104fb57600080fd5b503573ffffffffffffffffffffffffffffffffffffffff16610e4a565b34801561052457600080fd5b506103f7610e5f565b34801561053957600080fd5b506101eb610e7b565b34801561054e57600080fd5b506101c2610ef4565b34801561056357600080fd5b506101c26004803603604081101561057a57600080fd5b5073ffffffffffffffffffffffffffffffffffffffff8135169060200135610f15565b3480156105a957600080fd5b506102bb610f85565b3480156105be57600080fd5b506103f7610f8b565b3480156105d357600080fd5b506101ab600480360360208110156105ea57600080fd5b503573ffffffffffffffffffffffffffffffffffffffff16610fa7565b34801561061357600080fd5b506102bb6004803603604081101561062a57600080fd5b5073ffffffffffffffffffffffffffffffffffffffff813581169160200135166111ef565b34801561065b57600080fd5b506101ab6004803603602081101561067257600080fd5b503573ffffffffffffffffffffffffffffffffffffffff16611227565b34801561069b57600080fd5b506101ab600480360360208110156106b257600080fd5b503573ffffffffffffffffffffffffffffffffffffffff166112b4565b60005473ffffffffffffffffffffffffffffffffffffffff1633146106f357600080fd5b60045460009074010000000000000000000000000000000000000000900460ff161561071e57600080fd5b5073ffffffffffffffffffffffffffffffffffffffff91909116600090815260056020526040902080547fffffffffffffffffffffffffffffffffffffffffffffffffffffffffffffff0016911515919091179055565b60065460ff1681565b6009805460408051602060026001851615610100027fffffffffffffffffffffffffffffffffffffffffffffffffffffffffffffffff0190941693909304601f810184900484028201840190925281815292918301828280156108225780601f106107f757610100808354040283529160200191610822565b820191906000526020600020905b81548152906001019060200180831161080557829003601f168201915b505050505081565b6000811580610867575033600090815260036020908152604080832073ffffffffffffffffffffffffffffffffffffffff87168452909152902054155b151561087257600080fd5b33600081815260036020908152604080832073ffffffffffffffffffffffffffffffffffffffff881680855290835292819020869055805186815290519293927f8c5be1e5ebec7d5bd14f71427d1e84f3dd0314c0f7b2291e5b200ac8c7c3b925929181900390910190a350600192915050565b60015481565b600454600090849074010000000000000000000000000000000000000000900460ff168061093f575073ffffffffffffffffffffffffffffffffffffffff811660009081526005602052604090205460ff165b151561094a57600080fd5b61095585858561134b565b95945050505050565b60005473ffffffffffffffffffffffffffffffffffffffff16331461098257600080fd5b60045460009074010000000000000000000000000000000000000000900460ff16156109ad57600080fd5b50600480547fffffffffffffffffffffffff00000000000000000000000000000000000000001673ffffffffffffffffffffffffffffffffffffffff92909216919091179055565b600b5481565b6000805473ffffffffffffffffffffffffffffffffffffffff163314610a2057600080fd5b60065460ff1615610a3057600080fd5b600154610a43908363ffffffff61148e16565b60015573ffffffffffffffffffffffffffffffffffffffff8316600090815260026020526040902054610a7c908363ffffffff61148e16565b73ffffffffffffffffffffffffffffffffffffffff8416600081815260026020908152604091829020939093558051858152905191927f0f6798a560793a54c3bcfe86a93cde1e73087d944c0ea20544137d412139688592918290030190a260408051838152905173ffffffffffffffffffffffffffffffffffffffff8516916000917fddf252ad1be2c89b69c2b068fc378daa952ba7f163c4a11628f55a4df523b3ef9181900360200190a350600192915050565b6000610b3c610e07565b90506003816004811115610b4c57fe5b1480610b6357506004816004811115610b6157fe5b145b1515610b6e57600080fd5b811515610b7a57600080fd5b33600090815260026020526040902054610b9a908363ffffffff6114a416565b33600090815260026020526040902055600154610bbd908363ffffffff6114a416565b600155600854610bd3908363ffffffff61148e16565b600855600754604080517f753e88e500000000000000000000000000000000000000000000000000000000815233600482015260248101859052905173ffffffffffffffffffffffffffffffffffffffff9092169163753e88e59160448082019260009290919082900301818387803b158015610c4f57600080fd5b505af1158015610c63573d6000803e3d6000fd5b505060075460408051868152905173ffffffffffffffffffffffffffffffffffffffff90921693503392507f7e5c344a8141a805725cb476f76c6953b842222b967edd1f78ddb6e8b3f397ac919081900360200190a35050565b60075473ffffffffffffffffffffffffffffffffffffffff1681565b60045473ffffffffffffffffffffffffffffffffffffffff163314610cfd57600080fd5b600480547fffffffffffffffffffffff00ffffffffffffffffffffffffffffffffffffffff1674010000000000000000000000000000000000000000179055565b600654610100900473ffffffffffffffffffffffffffffffffffffffff1681565b73ffffffffffffffffffffffffffffffffffffffff1660009081526002602052604090205490565b6000805473ffffffffffffffffffffffffffffffffffffffff163314610dac57600080fd5b600680547fffffffffffffffffffffffffffffffffffffffffffffffffffffffffffffff001660011790556040517fae5184fba832cb2b1f702aca6117b8d265eaf03ad33eb133f19dde0f5920fa0890600090a15060015b90565b60075460009073ffffffffffffffffffffffffffffffffffffffff161515610e3157506002610e04565b6008541515610e4257506003610e04565b506004610e04565b60056020526000908152604090205460ff1681565b60005473ffffffffffffffffffffffffffffffffffffffff1681565b600a805460408051602060026001851615610100027fffffffffffffffffffffffffffffffffffffffffffffffffffffffffffffffff0190941693909304601f810184900484028201840190925281815292918301828280156108225780601f106107f757610100808354040283529160200191610822565b60045474010000000000000000000000000000000000000000900460ff1681565b600454600090339074010000000000000000000000000000000000000000900460ff1680610f68575073ffffffffffffffffffffffffffffffffffffffff811660009081526005602052604090205460ff165b1515610f7357600080fd5b610f7d84846114b6565b949350505050565b60085481565b60045473ffffffffffffffffffffffffffffffffffffffff1681565b73ffffffffffffffffffffffffffffffffffffffff81161515610fc957600080fd5b600654610100900473ffffffffffffffffffffffffffffffffffffffff163314610ff257600080fd5b6004610ffc610e07565b600481111561100757fe5b141561101257600080fd5b600780547fffffffffffffffffffffffff00000000000000000000000000000000000000001673ffffffffffffffffffffffffffffffffffffffff8381169190911791829055604080517f61d3d7a6000000000000000000000000000000000000000000000000000000008152905192909116916361d3d7a691600480820192602092909190829003018186803b1580156110ac57600080fd5b505afa1580156110c0573d6000803e3d6000fd5b505050506040513d60208110156110d657600080fd5b505115156110e357600080fd5b600154600760009054906101000a900473ffffffffffffffffffffffffffffffffffffffff1673ffffffffffffffffffffffffffffffffffffffff16634b2ba0dd6040518163ffffffff167c010000000000000000000000000000000000000000000000000000000002815260040160206040518083038186803b15801561116a57600080fd5b505afa15801561117e573d6000803e3d6000fd5b505050506040513d602081101561119457600080fd5b5051146111a057600080fd5b6007546040805173ffffffffffffffffffffffffffffffffffffffff9092168252517f7845d5aa74cc410e35571258d954f23b82276e160fe8c188fa80566580f279cc9181900360200190a150565b73ffffffffffffffffffffffffffffffffffffffff918216600090815260036020908152604080832093909416825291909152205490565b60005473ffffffffffffffffffffffffffffffffffffffff16331461124b57600080fd5b73ffffffffffffffffffffffffffffffffffffffff8116151561126d57600080fd5b600080547fffffffffffffffffffffffff00000000000000000000000000000000000000001673ffffffffffffffffffffffffffffffffffffffff92909216919091179055565b73ffffffffffffffffffffffffffffffffffffffff811615156112d657600080fd5b600654610100900473ffffffffffffffffffffffffffffffffffffffff1633146112ff57600080fd5b6006805473ffffffffffffffffffffffffffffffffffffffff909216610100027fffffffffffffffffffffff0000000000000000000000000000000000000000ff909216919091179055565b73ffffffffffffffffffffffffffffffffffffffff80841660009081526003602090815260408083203384528252808320549386168352600290915281205490919061139d908463ffffffff61148e16565b73ffffffffffffffffffffffffffffffffffffffff80861660009081526002602052604080822093909355908716815220546113df908463ffffffff6114a416565b73ffffffffffffffffffffffffffffffffffffffff8616600090815260026020526040902055611415818463ffffffff6114a416565b73ffffffffffffffffffffffffffffffffffffffff808716600081815260036020908152604080832033845282529182902094909455805187815290519288169391927fddf252ad1be2c89b69c2b068fc378daa952ba7f163c4a11628f55a4df523b3ef929181900390910190a3506001949350505050565b60008282018381101561149d57fe5b9392505050565b6000828211156114b057fe5b50900390565b336000908152600260205260408120546114d6908363ffffffff6114a416565b336000908152600260205260408082209290925573ffffffffffffffffffffffffffffffffffffffff851681522054611515908363ffffffff61148e16565b73ffffffffffffffffffffffffffffffffffffffff84166000818152600260209081526040918290209390935580518581529051919233927fddf252ad1be2c89b69c2b068fc378daa952ba7f163c4a11628f55a4df523b3ef9281900390910190a35060019291505056fea165627a7a7230582066be8591607199849ffc552e6d826b76157c0d137ee6b9a38a883c2382ef53380029",
  "source": "pragma solidity ^0.5.0;\n\nimport \"./MintableToken.sol\";\nimport \"./UpgradeableToken.sol\";\n\n/**\n * Matryx Ethereum token.\n */\ncontract MatryxToken is MintableToken, UpgradeableToken{\n\n  string public name = \"MatryxToken\";\n  string public symbol = \"MTX\";\n  uint public decimals = 18;\n\n  // supply upgrade owner as the contract creation account\n  constructor() public UpgradeableToken(msg.sender) {\n\n  }\n}\n",
  "sourcePath": "/Users/maxhoward/Desktop/Ethereum/MatryxPlatform/contracts/MatryxToken/MatryxToken.sol",
  "compiler": {
    "name": "solc",
    "version": "0.5.0+commit.1d4f565a.Emscripten.clang"
  },
  "schemaVersion": "3.0.1",
  "updatedAt": "2019-02-02T22:56:01.877Z",
  "devdoc": {
    "methods": {
      "allowance(address,address)": {
        "details": "Function to check the amount of tokens that an owner allowed to a spender.",
        "params": {
          "_owner": "address The address which owns the funds.",
          "_spender": "address The address which will spend the funds."
        },
        "return": "A uint256 specifing the amount of tokens still available for the spender."
      },
      "approve(address,uint256)": {
        "details": "Aprove the passed address to spend the specified amount of tokens on behalf of msg.sender.",
        "params": {
          "_spender": "The address which will spend the funds.",
          "_value": "The amount of tokens to be spent."
        }
      },
      "balanceOf(address)": {
        "details": "Gets the balance of the specified address.",
        "params": {
          "_owner": "The address to query the the balance of."
        },
        "return": "An uint256 representing the amount owned by the passed address."
      },
      "finishMinting()": {
        "details": "Function to stop minting new tokens.",
        "return": "True if the operation was successful."
      },
      "mint(address,uint256)": {
        "details": "Function to mint tokens",
        "params": {
          "_amount": "The amount of tokens to mint.",
          "_to": "The address that will recieve the minted tokens."
        },
        "return": "A boolean that indicates if the operation was successful."
      },
      "transferOwnership(address)": {
        "details": "Allows the current owner to transfer control of the contract to a newOwner.",
        "params": {
          "newOwner": "The address to transfer ownership to."
        }
      }
    }
  },
  "userdoc": {
    "methods": {
      "getUpgradeState()": {
        "notice": "Get the state of the token upgrade."
      },
      "releaseTokenTransfer()": {
        "notice": "One way function to release the tokens to the wild.   * Can be called only from the release agent that is the final ICO contract. It is only called if the crowdsale has been success (first milestone reached)."
      },
      "setReleaseAgent(address)": {
        "notice": "Set the contract that can call release and make the token transferable.   * Design choice. Allow reset the release agent to fix fat finger mistakes."
      },
      "setTransferAgent(address,bool)": {
        "notice": "Owner can allow a particular address (a crowdsale contract) to transfer tokens despite the lock up period."
      },
      "setUpgradeAgent(address)": {
        "notice": "Set an upgrade agent that handles"
      },
      "setUpgradeMaster(address)": {
        "notice": "Change the upgrade master.   * This allows us to set a new owner for the upgrade mechanism."
      },
      "upgrade(uint256)": {
        "notice": "Allow the token holder to upgrade some of their tokens to a new contract."
      }
    },
    "notice": "Matryx Ethereum token."
  }
}