{
  "contractName": "MatryxSystem",
  "abi": [
    {
      "constant": true,
      "inputs": [
        {
          "name": "_sender",
          "type": "address"
        }
      ],
      "name": "isOwner",
      "outputs": [
        {
          "name": "_isOwner",
          "type": "bool"
        }
      ],
      "payable": false,
      "stateMutability": "view",
      "type": "function",
      "signature": "0x2f54bf6e"
    },
    {
      "constant": true,
      "inputs": [],
      "name": "getOwner",
      "outputs": [
        {
          "name": "_owner",
          "type": "address"
        }
      ],
      "payable": false,
      "stateMutability": "view",
      "type": "function",
      "signature": "0x893d20e8"
    },
    {
      "constant": true,
      "inputs": [],
      "name": "owner",
      "outputs": [
        {
          "name": "",
          "type": "address"
        }
      ],
      "payable": false,
      "stateMutability": "view",
      "type": "function",
      "signature": "0x8da5cb5b"
    },
    {
      "constant": false,
      "inputs": [
        {
          "name": "newOwner",
          "type": "address"
        }
      ],
      "name": "transferOwnership",
      "outputs": [],
      "payable": false,
      "stateMutability": "nonpayable",
      "type": "function",
      "signature": "0xf2fde38b"
    },
    {
      "constant": false,
      "inputs": [
        {
          "name": "version",
          "type": "uint256"
        }
      ],
      "name": "createVersion",
      "outputs": [],
      "payable": false,
      "stateMutability": "nonpayable",
      "type": "function",
      "signature": "0xc9c743c7"
    },
    {
      "constant": false,
      "inputs": [
        {
          "name": "version",
          "type": "uint256"
        }
      ],
      "name": "setVersion",
      "outputs": [],
      "payable": false,
      "stateMutability": "nonpayable",
      "type": "function",
      "signature": "0x408def1e"
    },
    {
      "constant": true,
      "inputs": [],
      "name": "getVersion",
      "outputs": [
        {
          "name": "",
          "type": "uint256"
        }
      ],
      "payable": false,
      "stateMutability": "view",
      "type": "function",
      "signature": "0x0d8e6e2c"
    },
    {
      "constant": true,
      "inputs": [],
      "name": "getAllVersions",
      "outputs": [
        {
          "name": "",
          "type": "uint256[]"
        }
      ],
      "payable": false,
      "stateMutability": "view",
      "type": "function",
      "signature": "0x43c2a4d7"
    },
    {
      "constant": false,
      "inputs": [
        {
          "name": "version",
          "type": "uint256"
        },
        {
          "name": "cName",
          "type": "bytes32"
        },
        {
          "name": "cAddress",
          "type": "address"
        }
      ],
      "name": "setContract",
      "outputs": [],
      "payable": false,
      "stateMutability": "nonpayable",
      "type": "function",
      "signature": "0xd7c94d28"
    },
    {
      "constant": true,
      "inputs": [
        {
          "name": "version",
          "type": "uint256"
        },
        {
          "name": "cName",
          "type": "bytes32"
        }
      ],
      "name": "getContract",
      "outputs": [
        {
          "name": "",
          "type": "address"
        }
      ],
      "payable": false,
      "stateMutability": "view",
      "type": "function",
      "signature": "0xc53cfd9a"
    },
    {
      "constant": false,
      "inputs": [
        {
          "name": "version",
          "type": "uint256"
        },
        {
          "name": "cName",
          "type": "bytes32"
        },
        {
          "name": "selector",
          "type": "bytes32"
        },
        {
          "components": [
            {
              "name": "modifiedSelector",
              "type": "bytes32"
            },
            {
              "name": "injectedParams",
              "type": "uint256[]"
            },
            {
              "name": "dynamicParams",
              "type": "uint256[]"
            }
          ],
          "name": "fnData",
          "type": "tuple"
        }
      ],
      "name": "addContractMethod",
      "outputs": [],
      "payable": false,
      "stateMutability": "nonpayable",
      "type": "function",
      "signature": "0x6167b31e"
    },
    {
      "constant": false,
      "inputs": [
        {
          "name": "version",
          "type": "uint256"
        },
        {
          "name": "cName",
          "type": "bytes32"
        },
        {
          "name": "selectors",
          "type": "bytes32[]"
        },
        {
          "name": "modifiedSelectors",
          "type": "bytes32[]"
        },
        {
          "components": [
            {
              "name": "modifiedSelector",
              "type": "bytes32"
            },
            {
              "name": "injectedParams",
              "type": "uint256[]"
            },
            {
              "name": "dynamicParams",
              "type": "uint256[]"
            }
          ],
          "name": "fnData",
          "type": "tuple"
        }
      ],
      "name": "addContractMethods",
      "outputs": [],
      "payable": false,
      "stateMutability": "nonpayable",
      "type": "function",
      "signature": "0x73c02863"
    },
    {
      "constant": true,
      "inputs": [
        {
          "name": "version",
          "type": "uint256"
        },
        {
          "name": "cName",
          "type": "bytes32"
        },
        {
          "name": "selector",
          "type": "bytes32"
        }
      ],
      "name": "getContractMethod",
      "outputs": [
        {
          "components": [
            {
              "name": "modifiedSelector",
              "type": "bytes32"
            },
            {
              "name": "injectedParams",
              "type": "uint256[]"
            },
            {
              "name": "dynamicParams",
              "type": "uint256[]"
            }
          ],
          "name": "",
          "type": "tuple"
        }
      ],
      "payable": false,
      "stateMutability": "view",
      "type": "function",
      "signature": "0x3b15aabf"
    },
    {
      "constant": false,
      "inputs": [
        {
          "name": "cAddress",
          "type": "address"
        },
        {
          "name": "cType",
          "type": "uint256"
        }
      ],
      "name": "setContractType",
      "outputs": [],
      "payable": false,
      "stateMutability": "nonpayable",
      "type": "function",
      "signature": "0x6226d738"
    },
    {
      "constant": true,
      "inputs": [
        {
          "name": "cAddress",
          "type": "address"
        }
      ],
      "name": "getContractType",
      "outputs": [
        {
          "name": "",
          "type": "uint256"
        }
      ],
      "payable": false,
      "stateMutability": "view",
      "type": "function",
      "signature": "0xe11aa6a2"
    },
    {
      "constant": false,
      "inputs": [
        {
          "name": "cType",
          "type": "uint256"
        },
        {
          "name": "lName",
          "type": "bytes32"
        }
      ],
      "name": "setLibraryName",
      "outputs": [],
      "payable": false,
      "stateMutability": "nonpayable",
      "type": "function",
      "signature": "0x2f922de4"
    },
    {
      "constant": true,
      "inputs": [
        {
          "name": "cAddress",
          "type": "address"
        }
      ],
      "name": "getLibraryName",
      "outputs": [
        {
          "name": "",
          "type": "bytes32"
        }
      ],
      "payable": false,
      "stateMutability": "view",
      "type": "function",
      "signature": "0xa8bc3927"
    }
  ],
  "bytecode": "0x608060405260008054600160a060020a03191633179055611359806100256000396000f3fe6080604052600436106100f05763ffffffff7c01000000000000000000000000000000000000000000000000000000006000350416630d8e6e2c81146100f55780632f54bf6e146101205780632f922de41461014d5780633b15aabf1461016f578063408def1e1461019c57806343c2a4d7146101bc5780636167b31e146101de5780636226d738146101fe57806373c028631461021e578063893d20e81461023e5780638da5cb5b14610260578063a8bc392714610275578063c53cfd9a14610295578063c9c743c7146102b5578063d7c94d28146102d5578063e11aa6a2146102f5578063f2fde38b14610315575b600080fd5b34801561010157600080fd5b5061010a610335565b6040516101179190611232565b60405180910390f35b34801561012c57600080fd5b5061014061013b366004610d48565b61033c565b6040516101179190611224565b34801561015957600080fd5b5061016d610168366004610dc6565b610350565b005b34801561017b57600080fd5b5061018f61018a366004610eef565b6103bc565b60405161011791906112a0565b3480156101a857600080fd5b5061016d6101b7366004610da8565b6104ff565b3480156101c857600080fd5b506101d161054e565b6040516101179190611213565b3480156101ea57600080fd5b5061016d6101f9366004610f32565b6105a6565b34801561020a57600080fd5b5061016d610219366004610d6e565b610658565b34801561022a57600080fd5b5061016d610239366004610e32565b6106ef565b34801561024a57600080fd5b50610253610869565b6040516101179190611205565b34801561026c57600080fd5b50610253610878565b34801561028157600080fd5b5061010a610290366004610d48565b610887565b3480156102a157600080fd5b506102536102b0366004610dc6565b6108af565b3480156102c157600080fd5b5061016d6102d0366004610da8565b610908565b3480156102e157600080fd5b5061016d6102f0366004610de5565b61099e565b34801561030157600080fd5b5061010a610310366004610d48565b610aac565b34801561032157600080fd5b5061016d610330366004610d48565b610ac7565b6005545b90565b600054600160a060020a0391821691161490565b60008054600160a060020a0316331490600133600090815260016020526040902054149050818061037e5750805b15156103a85760405160e560020a62461bcd02815260040161039f90611280565b60405180910390fd5b505060009182526002602052604090912055565b6103c4610b2a565b6000848152600360209081526040808320868452600101909152902054600160a060020a03166103f381610b22565b15156104145760405160e560020a62461bcd02815260040161039f90611240565b60008581526003602090815260408083208784526001908101835281842087855281018352928190208151606081018352815481529381018054835181860281018601909452808452919385810193929083018282801561049457602002820191906000526020600020905b815481526020019060010190808311610480575b50505050508152602001600282018054806020026020016040519081016040528092919081815260200182805480156104ec57602002820191906000526020600020905b8154815260200190600101908083116104d8575b5050505050815250509150509392505050565b600054600160a060020a0316331461051657600080fd5b60008181526003602052604090205460ff1615156105495760405160e560020a62461bcd02815260040161039f90611290565b600555565b6060600480548060200260200160405190810160405280929190818152602001828054801561059c57602002820191906000526020600020905b815481526020019060010190808311610588575b5050505050905090565b600054600160a060020a031633146105bd57600080fd5b60008481526003602052604090205460ff1615156105f05760405160e560020a62461bcd02815260040161039f90611250565b6000848152600360209081526040808320868452600190810183528184208685528101835292208351815581840151805185949293610633938501920190610b4a565b506040820151805161064f916002840191602090910190610b4a565b50505050505050565b60008054600160a060020a031633149060013360009081526001602052604090205414905081806106865750805b15156106a75760405160e560020a62461bcd02815260040161039f90611280565b6106b084610b22565b15156106d15760405160e560020a62461bcd02815260040161039f90611240565b5050600160a060020a03909116600090815260016020526040902055565b600054600160a060020a0316331461070657600080fd5b60008581526003602052604090205460ff1615156107395760405160e560020a62461bcd02815260040161039f90611250565b815183511461075d5760405160e560020a62461bcd02815260040161039f90611260565b60005b83518110156108615760008681526003602090815260408083208884526001908101909252822086518593919092019187908590811061079c57fe5b9060200190602002015181526020019081526020016000206000820151816000015560208201518160010190805190602001906107da929190610b4a565b50604082015180516107f6916002840191602090910190610b4a565b505083518491508290811061080757fe5b602090810290910181015160008881526003835260408082208983526001908101909452812087519293019187908590811061083f57fe5b6020908102909101810151825281019190915260400160002055600101610760565b505050505050565b600054600160a060020a031690565b600054600160a060020a031681565b600160a060020a03166000908152600160209081526040808320548352600290915290205490565b6000828152600360209081526040808320848452600101909152812054600160a060020a03166108de81610b22565b15156108ff5760405160e560020a62461bcd02815260040161039f90611240565b90505b92915050565b600054600160a060020a0316331461091f57600080fd5b60008181526003602052604090205460ff16156109515760405160e560020a62461bcd02815260040161039f90611270565b6000818152600360205260408120805460ff191660019081179091556004805491820181559091527f8a35acfbc15ff81a39ae7d344fd709f28e8600b4aa8c65c6b64bfe7fe36bd19b0155565b600054600160a060020a031633146109b557600080fd5b60008381526003602052604090205460ff1615156109e85760405160e560020a62461bcd02815260040161039f90611250565b6109f181610b22565b1515610a125760405160e560020a62461bcd02815260040161039f90611240565b6000838152600360209081526040808320858452600101909152902054600160a060020a03161515610a63576000838152600360209081526040822060020180546001810182559083529120018290555b6000928352600360209081526040808520938552600190930190529120805473ffffffffffffffffffffffffffffffffffffffff1916600160a060020a03909216919091179055565b600160a060020a031660009081526001602052604090205490565b600054600160a060020a03163314610ade57600080fd5b600160a060020a0381161515610af357600080fd5b6000805473ffffffffffffffffffffffffffffffffffffffff1916600160a060020a0392909216919091179055565b6000903b1190565b604080516060818101835260008252602082018190529181019190915290565b828054828255906000526020600020908101928215610b85579160200282015b82811115610b85578251825591602001919060010190610b6a565b50610b91929150610b95565b5090565b61033991905b80821115610b915760008155600101610b9b565b6000610bbb8235611303565b9392505050565b6000601f82018313610bd357600080fd5b8135610be6610be1826112d8565b6112b1565b91508181835260208401935060208101905083856020840282011115610c0b57600080fd5b60005b83811015610c375781610c218882610cb1565b8452506020928301929190910190600101610c0e565b5050505092915050565b6000601f82018313610c5257600080fd5b8135610c60610be1826112d8565b91508181835260208401935060208101905083856020840282011115610c8557600080fd5b60005b83811015610c375781610c9b8882610cb1565b8452506020928301929190910190600101610c88565b6000610bbb8235610339565b600060608284031215610ccf57600080fd5b610cd960606112b1565b90506000610ce78484610cb1565b825250602082013567ffffffffffffffff811115610d0457600080fd5b610d1084828501610c41565b602083015250604082013567ffffffffffffffff811115610d3057600080fd5b610d3c84828501610c41565b60408301525092915050565b600060208284031215610d5a57600080fd5b6000610d668484610baf565b949350505050565b60008060408385031215610d8157600080fd5b6000610d8d8585610baf565b9250506020610d9e85828601610cb1565b9150509250929050565b600060208284031215610dba57600080fd5b6000610d668484610cb1565b60008060408385031215610dd957600080fd5b6000610d8d8585610cb1565b600080600060608486031215610dfa57600080fd5b6000610e068686610cb1565b9350506020610e1786828701610cb1565b9250506040610e2886828701610baf565b9150509250925092565b600080600080600060a08688031215610e4a57600080fd5b6000610e568888610cb1565b9550506020610e6788828901610cb1565b945050604086013567ffffffffffffffff811115610e8457600080fd5b610e9088828901610bc2565b935050606086013567ffffffffffffffff811115610ead57600080fd5b610eb988828901610bc2565b925050608086013567ffffffffffffffff811115610ed657600080fd5b610ee288828901610cbd565b9150509295509295909350565b600080600060608486031215610f0457600080fd5b6000610f108686610cb1565b9350506020610f2186828701610cb1565b9250506040610e2886828701610cb1565b60008060008060808587031215610f4857600080fd5b6000610f548787610cb1565b9450506020610f6587828801610cb1565b9350506040610f7687828801610cb1565b925050606085013567ffffffffffffffff811115610f9357600080fd5b610f9f87828801610cbd565b91505092959194509250565b610fb481611303565b82525050565b6000610fc5826112ff565b808452602084019350610fd7836112f9565b60005b8281101561100757610fed868351611067565b610ff6826112f9565b602096909601959150600101610fda565b5093949350505050565b600061101c826112ff565b80845260208401935061102e836112f9565b60005b8281101561100757611044868351611067565b61104d826112f9565b602096909601959150600101611031565b610fb48161130e565b610fb481610339565b601881527f496e76616c696420636f6e747261637420616464726573730000000000000000602082015260400190565b600f81527f4e6f20737563682076657273696f6e0000000000000000000000000000000000602082015260400190565b602681527f4c697374206f662073656c6563746f7273206d757374206d6174636820696e2060208201527f6c656e6774680000000000000000000000000000000000000000000000000000604082015260600190565b601681527f56657273696f6e20616c72656164792065786973747300000000000000000000602082015260400190565b601981527f4d757374206265206f776e6572206f7220506c6174666f726d00000000000000602082015260400190565b601281527f56657273696f6e206d7573742065786973740000000000000000000000000000602082015260400190565b805160009060608401906111ca8582611067565b50602083015184820360208601526111e28282611011565b915050604083015184820360408601526111fc8282611011565b95945050505050565b602081016109028284610fab565b60208082528101610bbb8184610fba565b60208101610902828461105e565b602081016109028284611067565b6020808252810161090281611070565b60208082528101610902816110a0565b60208082528101610902816110d0565b6020808252810161090281611126565b6020808252810161090281611156565b6020808252810161090281611186565b60208082528101610bbb81846111b6565b60405181810167ffffffffffffffff811182821017156112d057600080fd5b604052919050565b600067ffffffffffffffff8211156112ef57600080fd5b5060209081020190565b60200190565b5190565b600061090282611313565b151590565b600160a060020a03169056fea265627a7a7230582097686230cd9f1026e844e4337dafc8eda3c46bcc00c4a52f10a3c8697a0986c26c6578706572696d656e74616cf50037",
  "source": "pragma solidity ^0.5.0;\npragma experimental ABIEncoderV2;\n\nimport \"./Ownable.sol\";\n\ncontract MatryxSystem is Ownable() {\n    // Contains info for a version of Platform\n    struct Platform {\n        bool exists;\n        mapping(bytes32=>ContractData) contracts;\n        bytes32[] allContracts;\n    }\n\n    // Used to transform calls on a MatryxForwarder to its relevant library\n    struct FnData {\n        bytes32 modifiedSelector; // modified fn selector\n        uint256[] injectedParams; // what storage slots to insert\n        uint256[] dynamicParams;  // what params are dynamic\n    }\n\n    // Stores information about a currently deployed contract or library\n    struct ContractData {\n        address location;\n        mapping(bytes32=>FnData) fnData;\n    }\n\n    mapping(address=>uint256) contractType;\n    mapping(uint256=>bytes32) contractTypeToLibraryName;\n\n    mapping(uint256=>Platform) platformByVersion;\n    uint256[] allVersions;\n    uint256 currentVersion;\n\n    modifier onlyOwnerOrPlatform {\n        bool isOwner = msg.sender == owner;\n        bool isPlatform = contractType[msg.sender] == uint256(LibSystem.ContractType.Platform);\n        require(isOwner || isPlatform, \"Must be owner or Platform\");\n        _;\n    }\n\n    /// @dev Checks the validity of a contract address\n    function isContract(address _address) private view returns (bool) {\n        uint256 _size;\n        assembly { _size := extcodesize(_address) }\n        return _size > 0;\n    }\n\n    /// @dev Create a new version of Platform\n    function createVersion(uint256 version) public onlyOwner {\n        require(!platformByVersion[version].exists, \"Version already exists\");\n        platformByVersion[version].exists = true;\n        allVersions.push(version);\n    }\n\n    /// @dev Set the current version of Platform\n    function setVersion(uint256 version) public onlyOwner {\n        require(platformByVersion[version].exists, \"Version must exist\");\n        currentVersion = version;\n    }\n\n    /// @dev Get the current version of Platform\n    function getVersion() public view returns (uint256) {\n        return currentVersion;\n    }\n\n    /// @dev Get all versions of Platform\n    function getAllVersions() public view returns (uint256[] memory) {\n        return allVersions;\n    }\n\n    /// @dev Set a contract address for a contract by a given name\n    /// @param version   Version of Platform this contract belongs to\n    /// @param cName     Name of the contract we want to set an address for\n    /// @param cAddress  Address of the contract\n    function setContract(uint256 version, bytes32 cName, address cAddress) public onlyOwner {\n        require(platformByVersion[version].exists, \"No such version\");\n        require(isContract(cAddress), \"Invalid contract address\");\n\n        if (platformByVersion[version].contracts[cName].location == address(0)) {\n            platformByVersion[version].allContracts.push(cName);\n        }\n\n        platformByVersion[version].contracts[cName].location = cAddress;\n    }\n\n    /// @dev Returns the address of a contract given its name\n    /// @param version  Version of Platform to lookup the address on\n    /// @param cName    Name of the contract we want an address for\n    /// @return         Address of the contract\n    function getContract(uint256 version, bytes32 cName) public view returns (address) {\n        address cAddress = platformByVersion[version].contracts[cName].location;\n        require(isContract(cAddress), \"Invalid contract address\");\n\n        return cAddress;\n    }\n\n    /// @dev Register a contract method for a contract by its name\n    /// @param version   Version of Platform for contract method association\n    /// @param cName     Name of the contract we want an address for\n    /// @param selector  Hash of the method signature to register to the contract (keccak256)\n    /// @param fnData    Calldata transformation information for library delegatecall\n    function addContractMethod(uint256 version, bytes32 cName, bytes32 selector, FnData memory fnData) public onlyOwner {\n        require(platformByVersion[version].exists, \"No such version\");\n        platformByVersion[version].contracts[cName].fnData[selector] = fnData;\n    }\n\n    /// @dev Batch register contract methods for a contract by its name, that share the same injected and dynamic params\n    /// @param version            Version of Platform for contract method association\n    /// @param cName              Name of the contract we want an address for\n    /// @param selectors          Hashes of the method signatures to register to the contract (keccak256)\n    /// @param modifiedSelectors  Hashes of the library-specific method signatures to register to the contract (keccak256)\n    /// @param fnData             Calldata transformation information for library delegatecall\n    function addContractMethods(uint256 version, bytes32 cName, bytes32[] memory selectors, bytes32[] memory modifiedSelectors, FnData memory fnData) public onlyOwner {\n        require(platformByVersion[version].exists, \"No such version\");\n        require(selectors.length == modifiedSelectors.length, \"List of selectors must match in length\");\n\n        for (uint256 i = 0; i < selectors.length; i++) {\n            platformByVersion[version].contracts[cName].fnData[selectors[i]] = fnData;\n            platformByVersion[version].contracts[cName].fnData[selectors[i]].modifiedSelector = modifiedSelectors[i];\n        }\n    }\n\n    /// @dev Gets calldata transformation information for a library name and function selector\n    /// @param version   Version of Platform for the method request\n    /// @param cName     Name of the contract we want an address for\n    /// @param selector  Hash of the method signature to register to the contract (keccak256)\n    /// @return          Calldata transformation information for library delegatecall\n    function getContractMethod(uint256 version, bytes32 cName, bytes32 selector) public view returns (FnData memory) {\n        address cAddress = platformByVersion[version].contracts[cName].location;\n        require(isContract(cAddress), \"Invalid contract address\");\n\n        return platformByVersion[version].contracts[cName].fnData[selector];\n    }\n\n    /// @dev Associates a contract address with a type\n    /// @param cAddress  Address of the contract we want to set the type\n    /// @param cType     Type we want to associate the contract address with\n    function setContractType(address cAddress, uint256 cType) public onlyOwnerOrPlatform {\n        require(isContract(cAddress), \"Invalid contract address\");\n        contractType[cAddress] = cType;\n    }\n\n    /// @dev Gets the associated type for a contract address\n    /// @param cAddress  Address of the contract we want to get the type for\n    function getContractType(address cAddress) public view returns (uint256) {\n        return contractType[cAddress];\n    }\n\n    /// @dev Associates a contract type with a library name\n    /// @param cType  Contract type\n    /// @param lName  Library name\n    function setLibraryName(uint256 cType, bytes32 lName) public onlyOwnerOrPlatform {\n        contractTypeToLibraryName[cType] = lName;\n    }\n\n    /// @dev Returns the library name for a given contract address\n    /// @param cAddress  Contract address\n    /// @return          Library name\n    function getLibraryName(address cAddress) public view returns (bytes32) {\n        uint256 cType = contractType[cAddress];\n        return contractTypeToLibraryName[cType];\n    }\n}\n\ninterface IMatryxSystem {\n    function createVersion(uint256 version) external;\n    function setVersion(uint256 version) external;\n    function getVersion() external view returns (uint256);\n    function getAllVersions() external view returns (uint256[] memory);\n    function setContract(uint256 version, bytes32 cName, address cAddress) external;\n    function getContract(uint256 version, bytes32 cName) external view returns (address);\n    function addContractMethod(uint256 version, bytes32 cName, bytes32 selector, MatryxSystem.FnData calldata fnData) external;\n    function addContractMethods(uint256 version, bytes32 cName, bytes32[] calldata selectors, bytes32[] calldata modifiedSelectors, MatryxSystem.FnData calldata fnData) external;\n    function getContractMethod(uint256 version, bytes32 cName, bytes32 selector) external view returns (MatryxSystem.FnData memory);\n    function setContractType(address cAddress, uint256 cType) external;\n    function getContractType(address cAddress) external view returns (uint256);\n    function setLibraryName(uint256 cType, bytes32 lName) external;\n    function getLibraryName(address cAddress) external view returns (bytes32);\n}\n\nlibrary LibSystem {\n    enum ContractType { Unknown, Platform, Commit, Tournament }\n}\n",
  "sourcePath": "/Users/maxhoward/Desktop/Ethereum/MatryxPlatform/contracts/MatryxSystem.sol",
  "compiler": {
    "name": "solc",
    "version": "0.5.0+commit.1d4f565a.Emscripten.clang"
  },
  "schemaVersion": "3.0.2",
  "updatedAt": "2019-02-26T19:56:15.399Z",
  "devdoc": {
    "methods": {
      "addContractMethod(uint256,bytes32,bytes32,(bytes32,uint256[],uint256[]))": {
        "details": "Register a contract method for a contract by its name",
        "params": {
          "cName": "Name of the contract we want an address for",
          "fnData": "Calldata transformation information for library delegatecall",
          "selector": "Hash of the method signature to register to the contract (keccak256)",
          "version": "Version of Platform for contract method association"
        }
      },
      "addContractMethods(uint256,bytes32,bytes32[],bytes32[],(bytes32,uint256[],uint256[]))": {
        "details": "Batch register contract methods for a contract by its name, that share the same injected and dynamic params",
        "params": {
          "cName": "Name of the contract we want an address for",
          "fnData": "Calldata transformation information for library delegatecall",
          "modifiedSelectors": "Hashes of the library-specific method signatures to register to the contract (keccak256)",
          "selectors": "Hashes of the method signatures to register to the contract (keccak256)",
          "version": "Version of Platform for contract method association"
        }
      },
      "createVersion(uint256)": {
        "details": "Create a new version of Platform"
      },
      "getAllVersions()": {
        "details": "Get all versions of Platform"
      },
      "getContract(uint256,bytes32)": {
        "details": "Returns the address of a contract given its name",
        "params": {
          "cName": "Name of the contract we want an address for",
          "version": "Version of Platform to lookup the address on"
        },
        "return": "Address of the contract"
      },
      "getContractMethod(uint256,bytes32,bytes32)": {
        "details": "Gets calldata transformation information for a library name and function selector",
        "params": {
          "cName": "Name of the contract we want an address for",
          "selector": "Hash of the method signature to register to the contract (keccak256)",
          "version": "Version of Platform for the method request"
        },
        "return": "Calldata transformation information for library delegatecall"
      },
      "getContractType(address)": {
        "details": "Gets the associated type for a contract address",
        "params": {
          "cAddress": "Address of the contract we want to get the type for"
        }
      },
      "getLibraryName(address)": {
        "details": "Returns the library name for a given contract address",
        "params": {
          "cAddress": "Contract address"
        },
        "return": "Library name"
      },
      "getVersion()": {
        "details": "Get the current version of Platform"
      },
      "setContract(uint256,bytes32,address)": {
        "details": "Set a contract address for a contract by a given name",
        "params": {
          "cAddress": "Address of the contract",
          "cName": "Name of the contract we want to set an address for",
          "version": "Version of Platform this contract belongs to"
        }
      },
      "setContractType(address,uint256)": {
        "details": "Associates a contract address with a type",
        "params": {
          "cAddress": "Address of the contract we want to set the type",
          "cType": "Type we want to associate the contract address with"
        }
      },
      "setLibraryName(uint256,bytes32)": {
        "details": "Associates a contract type with a library name",
        "params": {
          "cType": "Contract type",
          "lName": "Library name"
        }
      },
      "setVersion(uint256)": {
        "details": "Set the current version of Platform"
      },
      "transferOwnership(address)": {
        "details": "Allows the current owner to transfer control of the contract to a newOwner.",
        "params": {
          "newOwner": "The address to transfer ownership to."
        }
      }
    }
  },
  "userdoc": {
    "methods": {}
  }
}