{
  "contractName": "MatryxSystem",
  "abi": [
    {
      "constant": true,
      "inputs": [
        {
          "name": "_sender",
          "type": "address"
        }
      ],
      "name": "isOwner",
      "outputs": [
        {
          "name": "_isOwner",
          "type": "bool"
        }
      ],
      "payable": false,
      "stateMutability": "view",
      "type": "function",
      "signature": "0x2f54bf6e"
    },
    {
      "constant": false,
      "inputs": [],
      "name": "acceptOwnership",
      "outputs": [],
      "payable": false,
      "stateMutability": "nonpayable",
      "type": "function",
      "signature": "0x79ba5097"
    },
    {
      "constant": true,
      "inputs": [],
      "name": "getOwner",
      "outputs": [
        {
          "name": "_owner",
          "type": "address"
        }
      ],
      "payable": false,
      "stateMutability": "view",
      "type": "function",
      "signature": "0x893d20e8"
    },
    {
      "constant": true,
      "inputs": [],
      "name": "owner",
      "outputs": [
        {
          "name": "",
          "type": "address"
        }
      ],
      "payable": false,
      "stateMutability": "view",
      "type": "function",
      "signature": "0x8da5cb5b"
    },
    {
      "constant": false,
      "inputs": [
        {
          "name": "newOwner",
          "type": "address"
        }
      ],
      "name": "transferOwnership",
      "outputs": [],
      "payable": false,
      "stateMutability": "nonpayable",
      "type": "function",
      "signature": "0xf2fde38b"
    },
    {
      "constant": false,
      "inputs": [
        {
          "name": "version",
          "type": "uint256"
        }
      ],
      "name": "createVersion",
      "outputs": [],
      "payable": false,
      "stateMutability": "nonpayable",
      "type": "function",
      "signature": "0xc9c743c7"
    },
    {
      "constant": false,
      "inputs": [
        {
          "name": "version",
          "type": "uint256"
        }
      ],
      "name": "setVersion",
      "outputs": [],
      "payable": false,
      "stateMutability": "nonpayable",
      "type": "function",
      "signature": "0x408def1e"
    },
    {
      "constant": true,
      "inputs": [],
      "name": "getVersion",
      "outputs": [
        {
          "name": "",
          "type": "uint256"
        }
      ],
      "payable": false,
      "stateMutability": "view",
      "type": "function",
      "signature": "0x0d8e6e2c"
    },
    {
      "constant": true,
      "inputs": [],
      "name": "getAllVersions",
      "outputs": [
        {
          "name": "",
          "type": "uint256[]"
        }
      ],
      "payable": false,
      "stateMutability": "view",
      "type": "function",
      "signature": "0x43c2a4d7"
    },
    {
      "constant": true,
      "inputs": [
        {
          "name": "version",
          "type": "uint256"
        }
      ],
      "name": "getPlatformContracts",
      "outputs": [
        {
          "name": "",
          "type": "bytes32[]"
        }
      ],
      "payable": false,
      "stateMutability": "view",
      "type": "function",
      "signature": "0x8126d4ac"
    },
    {
      "constant": false,
      "inputs": [
        {
          "name": "version",
          "type": "uint256"
        },
        {
          "name": "cName",
          "type": "bytes32"
        },
        {
          "name": "cAddress",
          "type": "address"
        }
      ],
      "name": "setContract",
      "outputs": [],
      "payable": false,
      "stateMutability": "nonpayable",
      "type": "function",
      "signature": "0xd7c94d28"
    },
    {
      "constant": true,
      "inputs": [
        {
          "name": "version",
          "type": "uint256"
        },
        {
          "name": "cName",
          "type": "bytes32"
        }
      ],
      "name": "getContract",
      "outputs": [
        {
          "name": "",
          "type": "address"
        }
      ],
      "payable": false,
      "stateMutability": "view",
      "type": "function",
      "signature": "0xc53cfd9a"
    },
    {
      "constant": false,
      "inputs": [
        {
          "name": "version",
          "type": "uint256"
        },
        {
          "name": "cName",
          "type": "bytes32"
        },
        {
          "name": "selector",
          "type": "bytes32"
        },
        {
          "components": [
            {
              "name": "modifiedSelector",
              "type": "bytes32"
            },
            {
              "name": "injectedParams",
              "type": "uint256[]"
            },
            {
              "name": "dynamicParams",
              "type": "uint256[]"
            }
          ],
          "name": "fnData",
          "type": "tuple"
        }
      ],
      "name": "addContractMethod",
      "outputs": [],
      "payable": false,
      "stateMutability": "nonpayable",
      "type": "function",
      "signature": "0x6167b31e"
    },
    {
      "constant": false,
      "inputs": [
        {
          "name": "version",
          "type": "uint256"
        },
        {
          "name": "cName",
          "type": "bytes32"
        },
        {
          "name": "selectors",
          "type": "bytes32[]"
        },
        {
          "name": "modifiedSelectors",
          "type": "bytes32[]"
        },
        {
          "components": [
            {
              "name": "modifiedSelector",
              "type": "bytes32"
            },
            {
              "name": "injectedParams",
              "type": "uint256[]"
            },
            {
              "name": "dynamicParams",
              "type": "uint256[]"
            }
          ],
          "name": "fnData",
          "type": "tuple"
        }
      ],
      "name": "addContractMethods",
      "outputs": [],
      "payable": false,
      "stateMutability": "nonpayable",
      "type": "function",
      "signature": "0x73c02863"
    },
    {
      "constant": true,
      "inputs": [
        {
          "name": "version",
          "type": "uint256"
        },
        {
          "name": "cName",
          "type": "bytes32"
        },
        {
          "name": "selector",
          "type": "bytes32"
        }
      ],
      "name": "getContractMethod",
      "outputs": [
        {
          "components": [
            {
              "name": "modifiedSelector",
              "type": "bytes32"
            },
            {
              "name": "injectedParams",
              "type": "uint256[]"
            },
            {
              "name": "dynamicParams",
              "type": "uint256[]"
            }
          ],
          "name": "",
          "type": "tuple"
        }
      ],
      "payable": false,
      "stateMutability": "view",
      "type": "function",
      "signature": "0x3b15aabf"
    },
    {
      "constant": false,
      "inputs": [
        {
          "name": "cAddress",
          "type": "address"
        },
        {
          "name": "cType",
          "type": "uint256"
        }
      ],
      "name": "setContractType",
      "outputs": [],
      "payable": false,
      "stateMutability": "nonpayable",
      "type": "function",
      "signature": "0x6226d738"
    },
    {
      "constant": true,
      "inputs": [
        {
          "name": "cAddress",
          "type": "address"
        }
      ],
      "name": "getContractType",
      "outputs": [
        {
          "name": "",
          "type": "uint256"
        }
      ],
      "payable": false,
      "stateMutability": "view",
      "type": "function",
      "signature": "0xe11aa6a2"
    },
    {
      "constant": false,
      "inputs": [
        {
          "name": "cType",
          "type": "uint256"
        },
        {
          "name": "lName",
          "type": "bytes32"
        }
      ],
      "name": "setLibraryName",
      "outputs": [],
      "payable": false,
      "stateMutability": "nonpayable",
      "type": "function",
      "signature": "0x2f922de4"
    },
    {
      "constant": true,
      "inputs": [
        {
          "name": "cAddress",
          "type": "address"
        }
      ],
      "name": "getLibraryName",
      "outputs": [
        {
          "name": "",
          "type": "bytes32"
        }
      ],
      "payable": false,
      "stateMutability": "view",
      "type": "function",
      "signature": "0xa8bc3927"
    }
  ],
  "bytecode": "0x6080604052600080546001600160a01b0319163317905561147e806100256000396000f3fe608060405234801561001057600080fd5b50600436106101215760003560e01c806379ba5097116100ad578063c53cfd9a11610071578063c53cfd9a14610252578063c9c743c714610265578063d7c94d2814610278578063e11aa6a21461028b578063f2fde38b1461029e57610121565b806379ba5097146101fa5780638126d4ac14610202578063893d20e8146102225780638da5cb5b14610237578063a8bc39271461023f57610121565b8063408def1e116100f4578063408def1e1461019957806343c2a4d7146101ac5780636167b31e146101c15780636226d738146101d457806373c02863146101e757610121565b80630d8e6e2c146101265780632f54bf6e146101445780632f922de4146101645780633b15aabf14610179575b600080fd5b61012e6102b1565b60405161013b919061132e565b60405180910390f35b610157610152366004610d4d565b6102b8565b60405161013b9190611320565b610177610172366004610dcb565b6102cc565b005b61018c610187366004610ef4565b6102f5565b60405161013b91906113bc565b6101776101a7366004610dad565b61046b565b6101b46104b8565b60405161013b919061130f565b6101776101cf366004610f37565b610510565b6101776101e2366004610d73565b6105c0565b6101776101f5366004610e37565b610653565b6101776107d7565b610215610210366004610dad565b61082b565b60405161013b91906112fe565b61022a610890565b60405161013b91906112f0565b61022a61089f565b61012e61024d366004610d4d565b6108ae565b61022a610260366004610dcb565b6108d6565b610177610273366004610dad565b61092d565b610177610286366004610dea565b6109c3565b61012e610299366004610d4d565b610abe565b6101776102ac366004610d4d565b610ad9565b6006545b90565b6000546001600160a01b0391821691161490565b6000546001600160a01b031633146102e357600080fd5b60009182526003602052604090912055565b6102fd610b2b565b60008481526004602090815260408083208684526001019091529020546001600160a01b031661032c81610b25565b61035457604051600160e51b62461bcd02815260040161034b9061134c565b60405180910390fd5b61035c610b2b565b6000868152600460209081526040808320888452600190810183528184208885528101835292819020815160608101835281548152938101805483518186028101860190945280845291938581019392908301828280156103dc57602002820191906000526020600020905b8154815260200190600101908083116103c8575b505050505081526020016002820180548060200260200160405190810160405280929190818152602001828054801561043457602002820191906000526020600020905b815481526020019060010190808311610420575b50505091909252505081519192505061046257604051600160e51b62461bcd02815260040161034b9061139c565b95945050505050565b6000546001600160a01b0316331461048257600080fd5b60008181526004602052604090205460ff166104b357604051600160e51b62461bcd02815260040161034b906113ac565b600655565b6060600580548060200260200160405190810160405280929190818152602001828054801561050657602002820191906000526020600020905b8154815260200190600101908083116104f2575b5050505050905090565b6000546001600160a01b0316331461052757600080fd5b60008481526004602052604090205460ff1661055857604051600160e51b62461bcd02815260040161034b9061135c565b600084815260046020908152604080832086845260019081018352818420868552810183529220835181558184015180518594929361059b938501920190610b4f565b50604082015180516105b7916002840191602090910190610b4f565b50505050505050565b600080546001600160a01b031633149060013360009081526002602052604090205414905081806105ee5750805b61060d57604051600160e51b62461bcd02815260040161034b9061138c565b61061684610b25565b61063557604051600160e51b62461bcd02815260040161034b9061134c565b50506001600160a01b03909116600090815260026020526040902055565b6000546001600160a01b0316331461066a57600080fd5b60008581526004602052604090205460ff1661069b57604051600160e51b62461bcd02815260040161034b9061135c565b81518351146106bf57604051600160e51b62461bcd02815260040161034b9061136c565b60005b83518110156107cf5781600460008881526020019081526020016000206001016000878152602001908152602001600020600101600086848151811061070457fe5b60200260200101518152602001908152602001600020600082015181600001556020820151816001019080519060200190610740929190610b4f565b506040820151805161075c916002840191602090910190610b4f565b5090505082818151811061076c57fe5b602002602001015160046000888152602001908152602001600020600101600087815260200190815260200160002060010160008684815181106107ac57fe5b6020908102919091018101518252810191909152604001600020556001016106c2565b505050505050565b6001546001600160a01b0316331461080457604051600160e51b62461bcd02815260040161034b9061133c565b60018054600080546001600160a01b03199081166001600160a01b03841617909155169055565b60008181526004602090815260409182902060020180548351818402810184019094528084526060939283018282801561088457602002820191906000526020600020905b815481526020019060010190808311610870575b50505050509050919050565b6000546001600160a01b031690565b6000546001600160a01b031681565b6001600160a01b03166000908152600260209081526040808320548352600390915290205490565b60008281526004602090815260408083208484526001019091528120546001600160a01b031661090581610b25565b61092457604051600160e51b62461bcd02815260040161034b9061134c565b90505b92915050565b6000546001600160a01b0316331461094457600080fd5b60008181526004602052604090205460ff161561097657604051600160e51b62461bcd02815260040161034b9061137c565b6000818152600460205260408120805460ff191660019081179091556005805491820181559091527f036b6384b5eca791c62761152d0c79bb0604c104a5fb6f4eb0703f3154bb3db00155565b6000546001600160a01b031633146109da57600080fd5b60008381526004602052604090205460ff16610a0b57604051600160e51b62461bcd02815260040161034b9061135c565b610a1481610b25565b610a3357604051600160e51b62461bcd02815260040161034b9061134c565b60008381526004602090815260408083208584526001019091529020546001600160a01b0316610a82576000838152600460209081526040822060020180546001810182559083529120018290555b600092835260046020908152604080852093855260019093019052912080546001600160a01b0319166001600160a01b03909216919091179055565b6001600160a01b031660009081526002602052604090205490565b6000546001600160a01b03163314610af057600080fd5b6001600160a01b038116610b0357600080fd5b600180546001600160a01b0319166001600160a01b0392909216919091179055565b3b151590565b60405180606001604052806000801916815260200160608152602001606081525090565b828054828255906000526020600020908101928215610b8a579160200282015b82811115610b8a578251825591602001919060010190610b6f565b50610b96929150610b9a565b5090565b6102b591905b80821115610b965760008155600101610ba0565b6000610bc08235611428565b9392505050565b600082601f830112610bd857600080fd5b8135610beb610be6826113f4565b6113cd565b91508181835260208401935060208101905083856020840282011115610c1057600080fd5b60005b83811015610c3c5781610c268882610cb6565b8452506020928301929190910190600101610c13565b5050505092915050565b600082601f830112610c5757600080fd5b8135610c65610be6826113f4565b91508181835260208401935060208101905083856020840282011115610c8a57600080fd5b60005b83811015610c3c5781610ca08882610cb6565b8452506020928301929190910190600101610c8d565b6000610bc082356102b5565b600060608284031215610cd457600080fd5b610cde60606113cd565b90506000610cec8484610cb6565b825250602082013567ffffffffffffffff811115610d0957600080fd5b610d1584828501610c46565b602083015250604082013567ffffffffffffffff811115610d3557600080fd5b610d4184828501610c46565b60408301525092915050565b600060208284031215610d5f57600080fd5b6000610d6b8484610bb4565b949350505050565b60008060408385031215610d8657600080fd5b6000610d928585610bb4565b9250506020610da385828601610cb6565b9150509250929050565b600060208284031215610dbf57600080fd5b6000610d6b8484610cb6565b60008060408385031215610dde57600080fd5b6000610d928585610cb6565b600080600060608486031215610dff57600080fd5b6000610e0b8686610cb6565b9350506020610e1c86828701610cb6565b9250506040610e2d86828701610bb4565b9150509250925092565b600080600080600060a08688031215610e4f57600080fd5b6000610e5b8888610cb6565b9550506020610e6c88828901610cb6565b945050604086013567ffffffffffffffff811115610e8957600080fd5b610e9588828901610bc7565b935050606086013567ffffffffffffffff811115610eb257600080fd5b610ebe88828901610bc7565b925050608086013567ffffffffffffffff811115610edb57600080fd5b610ee788828901610cc2565b9150509295509295909350565b600080600060608486031215610f0957600080fd5b6000610f158686610cb6565b9350506020610f2686828701610cb6565b9250506040610e2d86828701610cb6565b60008060008060808587031215610f4d57600080fd5b6000610f598787610cb6565b9450506020610f6a87828801610cb6565b9350506040610f7b87828801610cb6565b925050606085013567ffffffffffffffff811115610f9857600080fd5b610fa487828801610cc2565b91505092959194509250565b6000610fbc83836110c7565b505060200190565b610fcd81611428565b82525050565b6000610fde8261141b565b610fe8818561141f565b9350610ff383611415565b60005b8281101561101e57611009868351610fb0565b955061101482611415565b9150600101610ff6565b5093949350505050565b60006110338261141b565b61103d818561141f565b935061104883611415565b60005b8281101561101e5761105e868351610fb0565b955061106982611415565b915060010161104b565b600061107e8261141b565b611088818561141f565b935061109383611415565b60005b8281101561101e576110a9868351610fb0565b95506110b482611415565b9150600101611096565b610fcd81611433565b610fcd816102b5565b60006110dd60198361141f565b7f4d757374206265207468652070656e64696e67206f776e657200000000000000815260200192915050565b600061111660188361141f565b7f496e76616c696420636f6e747261637420616464726573730000000000000000815260200192915050565b600061114f600f8361141f565b7f4e6f20737563682076657273696f6e0000000000000000000000000000000000815260200192915050565b600061118860268361141f565b7f4c697374206f662073656c6563746f7273206d757374206d6174636820696e208152600160d31b650d8cadccee8d02602082015260400192915050565b60006111d360168361141f565b7f56657273696f6e20616c72656164792065786973747300000000000000000000815260200192915050565b600061120c60198361141f565b7f4d757374206265206f776e6572206f7220506c6174666f726d00000000000000815260200192915050565b600061124560138361141f565b7f46756e6374696f6e206d75737420657869737400000000000000000000000000815260200192915050565b600061127e60128361141f565b7f56657273696f6e206d7573742065786973740000000000000000000000000000815260200192915050565b805160009060608401906112be85826110c7565b50602083015184820360208601526112d68282611073565b915050604083015184820360408601526104628282611073565b602081016109278284610fc4565b60208082528101610bc08184610fd3565b60208082528101610bc08184611028565b6020810161092782846110be565b6020810161092782846110c7565b60208082528101610927816110d0565b6020808252810161092781611109565b6020808252810161092781611142565b602080825281016109278161117b565b60208082528101610927816111c6565b60208082528101610927816111ff565b6020808252810161092781611238565b6020808252810161092781611271565b60208082528101610bc081846112aa565b60405181810167ffffffffffffffff811182821017156113ec57600080fd5b604052919050565b600067ffffffffffffffff82111561140b57600080fd5b5060209081020190565b60200190565b5190565b90815260200190565b600061092782611438565b151590565b6001600160a01b03169056fea265627a7a7230582025c500a9846bd18f3e2e70ade64525245e5417c751d69737d09c81c8693ebfb86c6578706572696d656e74616cf50037",
  "source": "pragma solidity ^0.5.7;\npragma experimental ABIEncoderV2;\n\nimport \"./Ownable.sol\";\n\ninterface IMatryxSystem {\n    function createVersion(uint256 version) external;\n    function setVersion(uint256 version) external;\n    function getVersion() external view returns (uint256);\n    function getAllVersions() external view returns (uint256[] memory);\n    function getPlatformContracts(uint256 version) external view returns (bytes32[] memory);\n    function setContract(uint256 version, bytes32 cName, address cAddress) external;\n    function getContract(uint256 version, bytes32 cName) external view returns (address);\n    function addContractMethod(uint256 version, bytes32 cName, bytes32 selector, MatryxSystem.FnData calldata fnData) external;\n    function addContractMethods(uint256 version, bytes32 cName, bytes32[] calldata selectors, bytes32[] calldata modifiedSelectors, MatryxSystem.FnData calldata fnData) external;\n    function getContractMethod(uint256 version, bytes32 cName, bytes32 selector) external view returns (MatryxSystem.FnData memory);\n    function setContractType(address cAddress, uint256 cType) external;\n    function getContractType(address cAddress) external view returns (uint256);\n    function setLibraryName(uint256 cType, bytes32 lName) external;\n    function getLibraryName(address cAddress) external view returns (bytes32);\n}\n\nlibrary LibSystem {\n    enum ContractType { Unknown, Platform, Commit, Tournament }\n}\n\ncontract MatryxSystem is IMatryxSystem, Ownable {\n    // Contains info for a version of Platform\n    struct Platform {\n        bool exists;\n        mapping(bytes32=>ContractData) contracts;\n        bytes32[] allContracts;\n    }\n\n    // Used to transform calls on a MatryxForwarder to its relevant library\n    struct FnData {\n        bytes32 modifiedSelector; // modified fn selector\n        uint256[] injectedParams; // what storage slots to insert\n        uint256[] dynamicParams;  // what params are dynamic\n    }\n\n    // Stores information about a currently deployed contract or library\n    struct ContractData {\n        address location;\n        mapping(bytes32=>FnData) fnData;\n    }\n\n    mapping(address=>uint256) contractType;\n    mapping(uint256=>bytes32) contractTypeToLibraryName;\n\n    mapping(uint256=>Platform) platformByVersion;\n    uint256[] allVersions;\n    uint256 currentVersion;\n\n    modifier onlyOwnerOrPlatform {\n        bool isOwner = msg.sender == owner;\n        bool isPlatform = contractType[msg.sender] == uint256(LibSystem.ContractType.Platform);\n        require(isOwner || isPlatform, \"Must be owner or Platform\");\n        _;\n    }\n\n    /// @dev Checks the validity of a contract address\n    function isContract(address _address) private view returns (bool) {\n        uint256 _size;\n        assembly { _size := extcodesize(_address) }\n        return _size > 0;\n    }\n\n    /// @dev Create a new version of Platform\n    function createVersion(uint256 version) public onlyOwner {\n        require(!platformByVersion[version].exists, \"Version already exists\");\n        platformByVersion[version].exists = true;\n        allVersions.push(version);\n    }\n\n    /// @dev Set the current version of Platform\n    function setVersion(uint256 version) public onlyOwner {\n        require(platformByVersion[version].exists, \"Version must exist\");\n        currentVersion = version;\n    }\n\n    /// @dev Get the current version of Platform\n    function getVersion() public view returns (uint256) {\n        return currentVersion;\n    }\n\n    /// @dev Get all versions of Platform\n    function getAllVersions() public view returns (uint256[] memory) {\n        return allVersions;\n    }\n\n    function getPlatformContracts(uint256 version) public view returns (bytes32[] memory) {\n        return platformByVersion[version].allContracts;\n    }\n\n    /// @dev Set a contract address for a contract by a given name\n    /// @param version   Version of Platform this contract belongs to\n    /// @param cName     Name of the contract we want to set an address for\n    /// @param cAddress  Address of the contract\n    function setContract(uint256 version, bytes32 cName, address cAddress) public onlyOwner {\n        require(platformByVersion[version].exists, \"No such version\");\n        require(isContract(cAddress), \"Invalid contract address\");\n\n        if (platformByVersion[version].contracts[cName].location == address(0)) {\n            platformByVersion[version].allContracts.push(cName);\n        }\n\n        platformByVersion[version].contracts[cName].location = cAddress;\n    }\n\n    /// @dev Returns the address of a contract given its name\n    /// @param version  Version of Platform to lookup the address on\n    /// @param cName    Name of the contract we want an address for\n    /// @return         Address of the contract\n    function getContract(uint256 version, bytes32 cName) public view returns (address) {\n        address cAddress = platformByVersion[version].contracts[cName].location;\n        require(isContract(cAddress), \"Invalid contract address\");\n\n        return cAddress;\n    }\n\n    /// @dev Register a contract method for a contract by its name\n    /// @param version   Version of Platform for contract method association\n    /// @param cName     Name of the contract we want an address for\n    /// @param selector  Hash of the method signature to register to the contract (keccak256)\n    /// @param fnData    Calldata transformation information for library delegatecall\n    function addContractMethod(\n        uint256 version,\n        bytes32 cName,\n        bytes32 selector,\n        FnData memory fnData\n    )\n        public\n        onlyOwner\n    {\n        require(platformByVersion[version].exists, \"No such version\");\n        platformByVersion[version].contracts[cName].fnData[selector] = fnData;\n    }\n\n    /// @dev Batch register contract methods for a contract by its name, that share the same injected and dynamic params\n    /// @param version            Version of Platform for contract method association\n    /// @param cName              Name of the contract we want an address for\n    /// @param selectors          Hashes of the method signatures to register to the contract (keccak256)\n    /// @param modifiedSelectors  Hashes of the library-specific method signatures to register to the contract (keccak256)\n    /// @param fnData             Calldata transformation information for library delegatecall\n    function addContractMethods(\n        uint256 version,\n        bytes32 cName,\n        bytes32[] memory selectors,\n        bytes32[] memory modifiedSelectors,\n        FnData memory fnData\n    )\n        public\n        onlyOwner\n    {\n        require(platformByVersion[version].exists, \"No such version\");\n        require(selectors.length == modifiedSelectors.length, \"List of selectors must match in length\");\n\n        for (uint256 i = 0; i < selectors.length; i++) {\n            platformByVersion[version].contracts[cName].fnData[selectors[i]] = fnData;\n            platformByVersion[version].contracts[cName].fnData[selectors[i]].modifiedSelector = modifiedSelectors[i];\n        }\n    }\n\n    /// @dev Gets calldata transformation information for a library name and function selector\n    /// @param version   Version of Platform for the method request\n    /// @param cName     Name of the contract we want an address for\n    /// @param selector  Hash of the method signature to lookup fnData for\n    /// @return          Calldata transformation information for library delegatecall\n    function getContractMethod(\n        uint256 version,\n        bytes32 cName,\n        bytes32 selector\n    )\n        public\n        view\n        returns (FnData memory)\n    {\n        address cAddress = platformByVersion[version].contracts[cName].location;\n        require(isContract(cAddress), \"Invalid contract address\");\n\n        FnData memory fnData = platformByVersion[version].contracts[cName].fnData[selector];\n        require(fnData.modifiedSelector != bytes32(0), \"Function must exist\");\n        return fnData;\n    }\n\n    /// @dev Associates a contract address with a type\n    /// @param cAddress  Address of the contract we want to set the type\n    /// @param cType     Type we want to associate the contract address with\n    function setContractType(address cAddress, uint256 cType) public onlyOwnerOrPlatform {\n        require(isContract(cAddress), \"Invalid contract address\");\n        contractType[cAddress] = cType;\n    }\n\n    /// @dev Gets the associated type for a contract address\n    /// @param cAddress  Address of the contract we want to get the type for\n    function getContractType(address cAddress) public view returns (uint256) {\n        return contractType[cAddress];\n    }\n\n    /// @dev Associates a contract type with a library name\n    /// @param cType  Contract type\n    /// @param lName  Library name\n    function setLibraryName(uint256 cType, bytes32 lName) public onlyOwner {\n        contractTypeToLibraryName[cType] = lName;\n    }\n\n    /// @dev Returns the library name for a given contract address\n    /// @param cAddress  Contract address\n    /// @return          Library name\n    function getLibraryName(address cAddress) public view returns (bytes32) {\n        uint256 cType = contractType[cAddress];\n        return contractTypeToLibraryName[cType];\n    }\n}\n",
  "sourcePath": "/Users/ajm13/Desktop/matryx/MatryxPlatform/contracts/MatryxSystem.sol",
  "compiler": {
    "name": "solc",
    "version": "0.5.7+commit.6da8b019.Emscripten.clang"
  },
  "schemaVersion": "3.0.2",
  "updatedAt": "2019-05-03T00:11:42.833Z",
  "devdoc": {
    "methods": {
      "acceptOwnership()": {
        "details": "Allows the pending owner to accept ownership transfer"
      },
      "addContractMethod(uint256,bytes32,bytes32,(bytes32,uint256[],uint256[]))": {
        "details": "Register a contract method for a contract by its name",
        "params": {
          "cName": "Name of the contract we want an address for",
          "fnData": "Calldata transformation information for library delegatecall",
          "selector": "Hash of the method signature to register to the contract (keccak256)",
          "version": "Version of Platform for contract method association"
        }
      },
      "addContractMethods(uint256,bytes32,bytes32[],bytes32[],(bytes32,uint256[],uint256[]))": {
        "details": "Batch register contract methods for a contract by its name, that share the same injected and dynamic params",
        "params": {
          "cName": "Name of the contract we want an address for",
          "fnData": "Calldata transformation information for library delegatecall",
          "modifiedSelectors": "Hashes of the library-specific method signatures to register to the contract (keccak256)",
          "selectors": "Hashes of the method signatures to register to the contract (keccak256)",
          "version": "Version of Platform for contract method association"
        }
      },
      "createVersion(uint256)": {
        "details": "Create a new version of Platform"
      },
      "getAllVersions()": {
        "details": "Get all versions of Platform"
      },
      "getContract(uint256,bytes32)": {
        "details": "Returns the address of a contract given its name",
        "params": {
          "cName": "Name of the contract we want an address for",
          "version": "Version of Platform to lookup the address on"
        },
        "return": "Address of the contract"
      },
      "getContractMethod(uint256,bytes32,bytes32)": {
        "details": "Gets calldata transformation information for a library name and function selector",
        "params": {
          "cName": "Name of the contract we want an address for",
          "selector": "Hash of the method signature to lookup fnData for",
          "version": "Version of Platform for the method request"
        },
        "return": "Calldata transformation information for library delegatecall"
      },
      "getContractType(address)": {
        "details": "Gets the associated type for a contract address",
        "params": {
          "cAddress": "Address of the contract we want to get the type for"
        }
      },
      "getLibraryName(address)": {
        "details": "Returns the library name for a given contract address",
        "params": {
          "cAddress": "Contract address"
        },
        "return": "Library name"
      },
      "getVersion()": {
        "details": "Get the current version of Platform"
      },
      "setContract(uint256,bytes32,address)": {
        "details": "Set a contract address for a contract by a given name",
        "params": {
          "cAddress": "Address of the contract",
          "cName": "Name of the contract we want to set an address for",
          "version": "Version of Platform this contract belongs to"
        }
      },
      "setContractType(address,uint256)": {
        "details": "Associates a contract address with a type",
        "params": {
          "cAddress": "Address of the contract we want to set the type",
          "cType": "Type we want to associate the contract address with"
        }
      },
      "setLibraryName(uint256,bytes32)": {
        "details": "Associates a contract type with a library name",
        "params": {
          "cType": "Contract type",
          "lName": "Library name"
        }
      },
      "setVersion(uint256)": {
        "details": "Set the current version of Platform"
      },
      "transferOwnership(address)": {
        "details": "Allows the current owner to transfer control of the contract to a newOwner.",
        "params": {
          "newOwner": "The address to transfer ownership to."
        }
      }
    }
  },
  "userdoc": {
    "methods": {}
  }
}