{
  "contractName": "MatryxSystem",
  "abi": [
    {
      "constant": true,
      "inputs": [
        {
          "name": "_sender",
          "type": "address"
        }
      ],
      "name": "isOwner",
      "outputs": [
        {
          "name": "_isOwner",
          "type": "bool"
        }
      ],
      "payable": false,
      "stateMutability": "view",
      "type": "function"
    },
    {
      "constant": true,
      "inputs": [],
      "name": "getOwner",
      "outputs": [
        {
          "name": "_owner",
          "type": "address"
        }
      ],
      "payable": false,
      "stateMutability": "view",
      "type": "function"
    },
    {
      "constant": true,
      "inputs": [],
      "name": "owner",
      "outputs": [
        {
          "name": "",
          "type": "address"
        }
      ],
      "payable": false,
      "stateMutability": "view",
      "type": "function"
    },
    {
      "constant": false,
      "inputs": [
        {
          "name": "newOwner",
          "type": "address"
        }
      ],
      "name": "transferOwnership",
      "outputs": [],
      "payable": false,
      "stateMutability": "nonpayable",
      "type": "function"
    },
    {
      "constant": false,
      "inputs": [
        {
          "name": "version",
          "type": "uint256"
        }
      ],
      "name": "createVersion",
      "outputs": [],
      "payable": false,
      "stateMutability": "nonpayable",
      "type": "function"
    },
    {
      "constant": false,
      "inputs": [
        {
          "name": "version",
          "type": "uint256"
        }
      ],
      "name": "setVersion",
      "outputs": [],
      "payable": false,
      "stateMutability": "nonpayable",
      "type": "function"
    },
    {
      "constant": true,
      "inputs": [],
      "name": "getVersion",
      "outputs": [
        {
          "name": "",
          "type": "uint256"
        }
      ],
      "payable": false,
      "stateMutability": "view",
      "type": "function"
    },
    {
      "constant": true,
      "inputs": [],
      "name": "getAllVersions",
      "outputs": [
        {
          "name": "",
          "type": "uint256[]"
        }
      ],
      "payable": false,
      "stateMutability": "view",
      "type": "function"
    },
    {
      "constant": false,
      "inputs": [
        {
          "name": "version",
          "type": "uint256"
        },
        {
          "name": "cName",
          "type": "bytes32"
        },
        {
          "name": "cAddress",
          "type": "address"
        }
      ],
      "name": "setContract",
      "outputs": [],
      "payable": false,
      "stateMutability": "nonpayable",
      "type": "function"
    },
    {
      "constant": true,
      "inputs": [
        {
          "name": "version",
          "type": "uint256"
        },
        {
          "name": "cName",
          "type": "bytes32"
        }
      ],
      "name": "getContract",
      "outputs": [
        {
          "name": "",
          "type": "address"
        }
      ],
      "payable": false,
      "stateMutability": "view",
      "type": "function"
    },
    {
      "constant": false,
      "inputs": [
        {
          "name": "version",
          "type": "uint256"
        },
        {
          "name": "cName",
          "type": "bytes32"
        },
        {
          "name": "selector",
          "type": "bytes32"
        },
        {
          "components": [
            {
              "name": "modifiedSelector",
              "type": "bytes32"
            },
            {
              "name": "injectedParams",
              "type": "uint256[]"
            },
            {
              "name": "dynamicParams",
              "type": "uint256[]"
            }
          ],
          "name": "fnData",
          "type": "tuple"
        }
      ],
      "name": "addContractMethod",
      "outputs": [],
      "payable": false,
      "stateMutability": "nonpayable",
      "type": "function"
    },
    {
      "constant": false,
      "inputs": [
        {
          "name": "version",
          "type": "uint256"
        },
        {
          "name": "cName",
          "type": "bytes32"
        },
        {
          "name": "selectors",
          "type": "bytes32[]"
        },
        {
          "name": "modifiedSelectors",
          "type": "bytes32[]"
        },
        {
          "components": [
            {
              "name": "modifiedSelector",
              "type": "bytes32"
            },
            {
              "name": "injectedParams",
              "type": "uint256[]"
            },
            {
              "name": "dynamicParams",
              "type": "uint256[]"
            }
          ],
          "name": "fnData",
          "type": "tuple"
        }
      ],
      "name": "addContractMethods",
      "outputs": [],
      "payable": false,
      "stateMutability": "nonpayable",
      "type": "function"
    },
    {
      "constant": true,
      "inputs": [
        {
          "name": "version",
          "type": "uint256"
        },
        {
          "name": "cName",
          "type": "bytes32"
        },
        {
          "name": "selector",
          "type": "bytes32"
        }
      ],
      "name": "getContractMethod",
      "outputs": [
        {
          "components": [
            {
              "name": "modifiedSelector",
              "type": "bytes32"
            },
            {
              "name": "injectedParams",
              "type": "uint256[]"
            },
            {
              "name": "dynamicParams",
              "type": "uint256[]"
            }
          ],
          "name": "",
          "type": "tuple"
        }
      ],
      "payable": false,
      "stateMutability": "view",
      "type": "function"
    },
    {
      "constant": false,
      "inputs": [
        {
          "name": "cAddress",
          "type": "address"
        },
        {
          "name": "cType",
          "type": "uint256"
        }
      ],
      "name": "setContractType",
      "outputs": [],
      "payable": false,
      "stateMutability": "nonpayable",
      "type": "function"
    },
    {
      "constant": true,
      "inputs": [
        {
          "name": "cAddress",
          "type": "address"
        }
      ],
      "name": "getContractType",
      "outputs": [
        {
          "name": "",
          "type": "uint256"
        }
      ],
      "payable": false,
      "stateMutability": "view",
      "type": "function"
    },
    {
      "constant": false,
      "inputs": [
        {
          "name": "cType",
          "type": "uint256"
        },
        {
          "name": "lName",
          "type": "bytes32"
        }
      ],
      "name": "setLibraryName",
      "outputs": [],
      "payable": false,
      "stateMutability": "nonpayable",
      "type": "function"
    },
    {
      "constant": true,
      "inputs": [
        {
          "name": "cAddress",
          "type": "address"
        }
      ],
      "name": "getLibraryName",
      "outputs": [
        {
          "name": "",
          "type": "bytes32"
        }
      ],
      "payable": false,
      "stateMutability": "view",
      "type": "function"
    }
  ],
  "bytecode": "0x608060405260008054600160a060020a031916331790556115a0806100256000396000f3006080604052600436106100f05763ffffffff7c01000000000000000000000000000000000000000000000000000000006000350416630d8e6e2c81146100f55780632f54bf6e146101205780632f922de41461014d5780633b15aabf1461016f578063408def1e1461019c57806343c2a4d7146101bc5780636167b31e146101de5780636226d738146101fe57806373c028631461021e578063893d20e81461023e5780638da5cb5b14610260578063a8bc392714610275578063c53cfd9a14610295578063c9c743c7146102b5578063d7c94d28146102d5578063e11aa6a2146102f5578063f2fde38b14610315575b600080fd5b34801561010157600080fd5b5061010a610335565b6040516101179190611477565b60405180910390f35b34801561012c57600080fd5b5061014061013b366004610f87565b61033c565b6040516101179190611469565b34801561015957600080fd5b5061016d610168366004611005565b61035d565b005b34801561017b57600080fd5b5061018f61018a36600461112e565b6103ed565b60405161011791906114e5565b3480156101a857600080fd5b5061016d6101b7366004610fe7565b610554565b3480156101c857600080fd5b506101d16105c7565b6040516101179190611458565b3480156101ea57600080fd5b5061016d6101f9366004611171565b61061f565b34801561020a57600080fd5b5061016d610219366004610fad565b6106f5565b34801561022a57600080fd5b5061016d610239366004611071565b6107d4565b34801561024a57600080fd5b50610253610985565b6040516101179190611444565b34801561026c57600080fd5b506102536109a1565b34801561028157600080fd5b5061010a610290366004610f87565b6109bd565b3480156102a157600080fd5b506102536102b0366004611005565b6109f2565b3480156102c157600080fd5b5061016d6102d0366004610fe7565b610a6d565b3480156102e157600080fd5b5061016d6102f0366004611024565b610b45565b34801561030157600080fd5b5061010a610310366004610f87565b610cb3565b34801561032157600080fd5b5061016d610330366004610f87565b610cdb565b6005545b90565b60005473ffffffffffffffffffffffffffffffffffffffff91821691161490565b6000805473ffffffffffffffffffffffffffffffffffffffff1633149060023360009081526001602052604090205414905081806103985750805b15156103d9576040517f08c379a00000000000000000000000000000000000000000000000000000000081526004016103d0906114c5565b60405180910390fd5b505060009182526002602052604090912055565b6103f5610d70565b600084815260036020908152604080832086845260010190915290205473ffffffffffffffffffffffffffffffffffffffff1661043181610d68565b1515610469576040517f08c379a00000000000000000000000000000000000000000000000000000000081526004016103d090611485565b6000858152600360209081526040808320878452600190810183528184208785528101835292819020815160608101835281548152938101805483518186028101860190945280845291938581019392908301828280156104e957602002820191906000526020600020905b8154815260200190600101908083116104d5575b505050505081526020016002820180548060200260200160405190810160405280929190818152602001828054801561054157602002820191906000526020600020905b81548152602001906001019080831161052d575b5050505050815250509150509392505050565b60005473ffffffffffffffffffffffffffffffffffffffff16331461057857600080fd5b60008181526003602052604090205460ff1615156105c2576040517f08c379a00000000000000000000000000000000000000000000000000000000081526004016103d0906114d5565b600555565b6060600480548060200260200160405190810160405280929190818152602001828054801561061557602002820191906000526020600020905b815481526020019060010190808311610601575b5050505050905090565b60005473ffffffffffffffffffffffffffffffffffffffff16331461064357600080fd5b60008481526003602052604090205460ff16151561068d576040517f08c379a00000000000000000000000000000000000000000000000000000000081526004016103d090611495565b60008481526003602090815260408083208684526001908101835281842086855281018352922083518155818401518051859492936106d0938501920190610d90565b50604082015180516106ec916002840191602090910190610d90565b50505050505050565b6000805473ffffffffffffffffffffffffffffffffffffffff1633149060023360009081526001602052604090205414905081806107305750805b1515610768576040517f08c379a00000000000000000000000000000000000000000000000000000000081526004016103d0906114c5565b61077184610d68565b15156107a9576040517f08c379a00000000000000000000000000000000000000000000000000000000081526004016103d090611485565b505073ffffffffffffffffffffffffffffffffffffffff909116600090815260016020526040902055565b6000805473ffffffffffffffffffffffffffffffffffffffff1633146107f957600080fd5b60008681526003602052604090205460ff161515610843576040517f08c379a00000000000000000000000000000000000000000000000000000000081526004016103d090611495565b825184511461087e576040517f08c379a00000000000000000000000000000000000000000000000000000000081526004016103d0906114a5565b5060005b835181101561097d576000868152600360209081526040808320888452600190810190925282208651859391909201918790859081106108be57fe5b60209081029091018101518252818101929092526040016000208251815582820151805191926108f692600185019290910190610d90565b5060408201518051610912916002840191602090910190610d90565b505083518491508290811061092357fe5b602090810290910181015160008881526003835260408082208983526001908101909452812087519293019187908590811061095b57fe5b6020908102909101810151825281019190915260400160002055600101610882565b505050505050565b60005473ffffffffffffffffffffffffffffffffffffffff1690565b60005473ffffffffffffffffffffffffffffffffffffffff1681565b73ffffffffffffffffffffffffffffffffffffffff166000908152600160209081526040808320548352600290915290205490565b600082815260036020908152604080832084845260010190915281205473ffffffffffffffffffffffffffffffffffffffff16610a2e81610d68565b1515610a66576040517f08c379a00000000000000000000000000000000000000000000000000000000081526004016103d090611485565b9392505050565b60005473ffffffffffffffffffffffffffffffffffffffff163314610a9157600080fd5b60008181526003602052604090205460ff1615610ada576040517f08c379a00000000000000000000000000000000000000000000000000000000081526004016103d0906114b5565b600081815260036020526040812080547fffffffffffffffffffffffffffffffffffffffffffffffffffffffffffffff001660019081179091556004805491820181559091527f8a35acfbc15ff81a39ae7d344fd709f28e8600b4aa8c65c6b64bfe7fe36bd19b0155565b60005473ffffffffffffffffffffffffffffffffffffffff163314610b6957600080fd5b60008381526003602052604090205460ff161515610bb3576040517f08c379a00000000000000000000000000000000000000000000000000000000081526004016103d090611495565b610bbc81610d68565b1515610bf4576040517f08c379a00000000000000000000000000000000000000000000000000000000081526004016103d090611485565b600083815260036020908152604080832085845260010190915290205473ffffffffffffffffffffffffffffffffffffffff161515610c52576000838152600360209081526040822060020180546001810182559083529120018290555b600092835260036020908152604080852093855260019093019052912080547fffffffffffffffffffffffff00000000000000000000000000000000000000001673ffffffffffffffffffffffffffffffffffffffff909216919091179055565b73ffffffffffffffffffffffffffffffffffffffff1660009081526001602052604090205490565b60005473ffffffffffffffffffffffffffffffffffffffff163314610cff57600080fd5b73ffffffffffffffffffffffffffffffffffffffff81161515610d2157600080fd5b600080547fffffffffffffffffffffffff00000000000000000000000000000000000000001673ffffffffffffffffffffffffffffffffffffffff92909216919091179055565b6000903b1190565b604080516060818101835260008252602082018190529181019190915290565b828054828255906000526020600020908101928215610dcb579160200282015b82811115610dcb578251825591602001919060010190610db0565b50610dd7929150610ddb565b5090565b61033991905b80821115610dd75760008155600101610de1565b6000610a668235611548565b6000601f82018313610e1257600080fd5b8135610e25610e208261151d565b6114f6565b91508181835260208401935060208101905083856020840282011115610e4a57600080fd5b60005b83811015610e765781610e608882610ef0565b8452506020928301929190910190600101610e4d565b5050505092915050565b6000601f82018313610e9157600080fd5b8135610e9f610e208261151d565b91508181835260208401935060208101905083856020840282011115610ec457600080fd5b60005b83811015610e765781610eda8882610ef0565b8452506020928301929190910190600101610ec7565b6000610a668235610339565b600060608284031215610f0e57600080fd5b610f1860606114f6565b90506000610f268484610ef0565b825250602082013567ffffffffffffffff811115610f4357600080fd5b610f4f84828501610e80565b602083015250604082013567ffffffffffffffff811115610f6f57600080fd5b610f7b84828501610e80565b60408301525092915050565b600060208284031215610f9957600080fd5b6000610fa58484610df5565b949350505050565b60008060408385031215610fc057600080fd5b6000610fcc8585610df5565b9250506020610fdd85828601610ef0565b9150509250929050565b600060208284031215610ff957600080fd5b6000610fa58484610ef0565b6000806040838503121561101857600080fd5b6000610fcc8585610ef0565b60008060006060848603121561103957600080fd5b60006110458686610ef0565b935050602061105686828701610ef0565b925050604061106786828701610df5565b9150509250925092565b600080600080600060a0868803121561108957600080fd5b60006110958888610ef0565b95505060206110a688828901610ef0565b945050604086013567ffffffffffffffff8111156110c357600080fd5b6110cf88828901610e01565b935050606086013567ffffffffffffffff8111156110ec57600080fd5b6110f888828901610e01565b925050608086013567ffffffffffffffff81111561111557600080fd5b61112188828901610efc565b9150509295509295909350565b60008060006060848603121561114357600080fd5b600061114f8686610ef0565b935050602061116086828701610ef0565b925050604061106786828701610ef0565b6000806000806080858703121561118757600080fd5b60006111938787610ef0565b94505060206111a487828801610ef0565b93505060406111b587828801610ef0565b925050606085013567ffffffffffffffff8111156111d257600080fd5b6111de87828801610efc565b91505092959194509250565b6111f381611548565b82525050565b600061120482611544565b8084526020840193506112168361153e565b60005b828110156112465761122c8683516112a6565b6112358261153e565b602096909601959150600101611219565b5093949350505050565b600061125b82611544565b80845260208401935061126d8361153e565b60005b82811015611246576112838683516112a6565b61128c8261153e565b602096909601959150600101611270565b6111f381611561565b6111f381610339565b601881527f496e76616c696420636f6e747261637420616464726573730000000000000000602082015260400190565b600f81527f4e6f20737563682076657273696f6e0000000000000000000000000000000000602082015260400190565b602681527f4c697374206f662073656c6563746f7273206d757374206d6174636820696e2060208201527f6c656e6774680000000000000000000000000000000000000000000000000000604082015260600190565b601681527f56657273696f6e20616c72656164792065786973747300000000000000000000602082015260400190565b601981527f4d757374206265206f776e6572206f7220506c6174666f726d00000000000000602082015260400190565b601281527f56657273696f6e206d7573742065786973740000000000000000000000000000602082015260400190565b8051600090606084019061140985826112a6565b50602083015184820360208601526114218282611250565b9150506040830151848203604086015261143b8282611250565b95945050505050565b6020810161145282846111ea565b92915050565b60208082528101610a6681846111f9565b60208101611452828461129d565b6020810161145282846112a6565b60208082528101611452816112af565b60208082528101611452816112df565b602080825281016114528161130f565b6020808252810161145281611365565b6020808252810161145281611395565b60208082528101611452816113c5565b60208082528101610a6681846113f5565b60405181810167ffffffffffffffff8111828210171561151557600080fd5b604052919050565b600067ffffffffffffffff82111561153457600080fd5b5060209081020190565b60200190565b5190565b73ffffffffffffffffffffffffffffffffffffffff1690565b1515905600a265627a7a72305820e82247a134c97279b318cd44db46f7304825825fe3eff04040ef017423cb0da16c6578706572696d656e74616cf50037",
  "source": "pragma solidity ^0.4.24;\npragma experimental ABIEncoderV2;\n\nimport \"./Ownable.sol\";\n\ncontract MatryxSystem is Ownable() {\n    // Contains info for a version of Platform\n    struct Platform {\n        bool exists;\n        mapping(bytes32=>ContractData) contracts;\n        bytes32[] allContracts;\n    }\n\n    // Used to transform calls on a MatryxTrinity to its relevant library\n    struct FnData {\n        bytes32 modifiedSelector; // modified fn selector\n        uint256[] injectedParams; // what storage slots to insert\n        uint256[] dynamicParams;  // what params are dynamic\n    }\n\n    // Stores information about a currently deployed contract or library\n    struct ContractData {\n        address location;\n        mapping(bytes32=>FnData) fnData;\n    }\n\n    mapping(address=>uint256) contractType;\n    mapping(uint256=>bytes32) contractTypeToLibraryName;\n\n    mapping(uint256=>Platform) platformByVersion;\n    uint256[] allVersions;\n    uint256 currentVersion;\n\n    modifier onlyOwnerOrPlatform {\n        bool isOwner = msg.sender == owner;\n        bool isPlatform = contractType[msg.sender] == uint256(LibSystem.ContractType.Platform);\n        require(isOwner || isPlatform, \"Must be owner or Platform\");\n        _;\n    }\n\n    /// @dev Checks the validity of a contract address\n    function isContract(address _address) private view returns (bool) {\n        uint256 _size;\n        assembly { _size := extcodesize(_address) }\n        return _size > 0;\n    }\n\n    /// @dev Create a new version of Platform\n    function createVersion(uint256 version) public onlyOwner {\n        require(!platformByVersion[version].exists, \"Version already exists\");\n        platformByVersion[version].exists = true;\n        allVersions.push(version);\n    }\n\n    /// @dev Set the current version of Platform\n    function setVersion(uint256 version) public onlyOwner {\n        require(platformByVersion[version].exists, \"Version must exist\");\n        currentVersion = version;\n    }\n\n    /// @dev Get the current version of Platform\n    function getVersion() public view returns (uint256) {\n        return currentVersion;\n    }\n\n    /// @dev Get all versions of Platform\n    function getAllVersions() public view returns (uint256[]) {\n        return allVersions;\n    }\n\n    /// @dev Set a contract address for a contract by a given name\n    /// @param version   Version of Platform this contract belongs to\n    /// @param cName     Name of the contract we want to set an address for\n    /// @param cAddress  Address of the contract\n    function setContract(uint256 version, bytes32 cName, address cAddress) public onlyOwner {\n        require(platformByVersion[version].exists, \"No such version\");\n        require(isContract(cAddress), \"Invalid contract address\");\n\n        if (platformByVersion[version].contracts[cName].location == 0x0) {\n            platformByVersion[version].allContracts.push(cName);\n        }\n\n        platformByVersion[version].contracts[cName].location = cAddress;\n    }\n\n    /// @dev Returns the address of a contract given its name\n    /// @param version  Version of Platform to lookup the address on\n    /// @param cName    Name of the contract we want an address for\n    /// @return         Address of the contract\n    function getContract(uint256 version, bytes32 cName) public view returns (address) {\n        address cAddress = platformByVersion[version].contracts[cName].location;\n        require(isContract(cAddress), \"Invalid contract address\");\n\n        return cAddress;\n    }\n\n    /// @dev Register a contract method for a contract by its name\n    /// @param version   Version of Platform for contract method association\n    /// @param cName     Name of the contract we want an address for\n    /// @param selector  Hash of the method signature to register to the contract (keccak256)\n    /// @param fnData    Calldata transformation information for library delegatecall\n    function addContractMethod(uint256 version, bytes32 cName, bytes32 selector, FnData fnData) public onlyOwner {\n        require(platformByVersion[version].exists, \"No such version\");\n        platformByVersion[version].contracts[cName].fnData[selector] = fnData;\n    }\n\n    /// @dev Batch register contract methods for a contract by its name, that share the same injected and dynamic params\n    /// @param version            Version of Platform for contract method association\n    /// @param cName              Name of the contract we want an address for\n    /// @param selectors          Hashes of the method signatures to register to the contract (keccak256)\n    /// @param modifiedSelectors  Hashes of the library-specific method signatures to register to the contract (keccak256)\n    /// @param fnData             Calldata transformation information for library delegatecall\n    function addContractMethods(uint256 version, bytes32 cName, bytes32[] selectors, bytes32[] modifiedSelectors, FnData fnData) public onlyOwner {\n        require(platformByVersion[version].exists, \"No such version\");\n        require(selectors.length == modifiedSelectors.length, \"List of selectors must match in length\");\n\n        for (uint256 i = 0; i < selectors.length; i++) {\n            platformByVersion[version].contracts[cName].fnData[selectors[i]] = fnData;\n            platformByVersion[version].contracts[cName].fnData[selectors[i]].modifiedSelector = modifiedSelectors[i];\n        }\n    }\n\n    /// @dev Gets calldata transformation information for a library name and function selector\n    /// @param version   Version of Platform for the method request\n    /// @param cName     Name of the contract we want an address for\n    /// @param selector  Hash of the method signature to register to the contract (keccak256)\n    /// @return          Calldata transformation information for library delegatecall\n    function getContractMethod(uint256 version, bytes32 cName, bytes32 selector) public view returns (FnData) {\n        address cAddress = platformByVersion[version].contracts[cName].location;\n        require(isContract(cAddress), \"Invalid contract address\");\n\n        return platformByVersion[version].contracts[cName].fnData[selector];\n    }\n\n    /// @dev Associates a contract address with a type\n    /// @param cAddress  Address of the contract we want to set the type\n    /// @param cType     Type we want to associate the contract address with\n    function setContractType(address cAddress, uint256 cType) public onlyOwnerOrPlatform {\n        require(isContract(cAddress), \"Invalid contract address\");\n        contractType[cAddress] = cType;\n    }\n\n    /// @dev Gets the associated type for a contract address\n    /// @param cAddress  Address of the contract we want to get the type for\n    function getContractType(address cAddress) public view returns (uint256) {\n        return contractType[cAddress];\n    }\n\n    /// @dev Associates a contract type with a library name\n    /// @param cType  Contract type\n    /// @param lName  Library name\n    function setLibraryName(uint256 cType, bytes32 lName) public onlyOwnerOrPlatform {\n        contractTypeToLibraryName[cType] = lName;\n    }\n\n    /// @dev Returns the library name for a given contract address\n    /// @param cAddress  Contract address\n    /// @return          Library name\n    function getLibraryName(address cAddress) public view returns (bytes32) {\n        uint256 cType = contractType[cAddress];\n        return contractTypeToLibraryName[cType];\n    }\n}\n\ninterface IMatryxSystem {\n    function createVersion(uint256 version) external;\n    function setVersion(uint256 version) external;\n    function getVersion() external view returns (uint256);\n    function getAllVersions() external view returns (uint256[]);\n    function setContract(uint256 version, bytes32 cName, address cAddress) external;\n    function getContract(uint256 version, bytes32 cName) external view returns (address);\n    function addContractMethod(uint256 version, bytes32 cName, bytes32 selector, MatryxSystem.FnData fnData) external;\n    function addContractMethods(uint256 version, bytes32 cName, bytes32[] selectors, bytes32[] modifiedSelectors, MatryxSystem.FnData fnData) external;\n    function getContractMethod(uint256 version, bytes32 cName, bytes32 selector) external view returns (MatryxSystem.FnData);\n    function setContractType(address cAddress, uint256 cType) external;\n    function getContractType(address cAddress) external view returns (uint256);\n    function setLibraryName(uint256 cType, bytes32 lName) external;\n    function getLibraryName(address cAddress) external view returns (bytes32);\n}\n\nlibrary LibSystem {\n    enum ContractType { Unknown, User, Platform, Tournament, Round, Submission }\n}\n",
  "sourcePath": "/Users/ajm13/Desktop/matryx/MatryxPlatform/contracts/MatryxSystem.sol",
  "compiler": {
    "name": "solc",
    "version": "0.4.24+commit.e67f0147.Emscripten.clang"
  },
  "schemaVersion": "2.0.1",
  "updatedAt": "2018-12-08T00:24:55.539Z"
}