{
  "contractName": "MatryxToken",
  "abi": [
    {
      "constant": false,
      "inputs": [
        {
          "name": "addr",
          "type": "address"
        },
        {
          "name": "state",
          "type": "bool"
        }
      ],
      "name": "setTransferAgent",
      "outputs": [],
      "payable": false,
      "stateMutability": "nonpayable",
      "type": "function"
    },
    {
      "constant": true,
      "inputs": [],
      "name": "mintingFinished",
      "outputs": [
        {
          "name": "",
          "type": "bool"
        }
      ],
      "payable": false,
      "stateMutability": "view",
      "type": "function"
    },
    {
      "constant": true,
      "inputs": [],
      "name": "name",
      "outputs": [
        {
          "name": "",
          "type": "string"
        }
      ],
      "payable": false,
      "stateMutability": "view",
      "type": "function"
    },
    {
      "constant": false,
      "inputs": [
        {
          "name": "_spender",
          "type": "address"
        },
        {
          "name": "_value",
          "type": "uint256"
        }
      ],
      "name": "approve",
      "outputs": [
        {
          "name": "",
          "type": "bool"
        }
      ],
      "payable": false,
      "stateMutability": "nonpayable",
      "type": "function"
    },
    {
      "constant": true,
      "inputs": [],
      "name": "totalSupply",
      "outputs": [
        {
          "name": "",
          "type": "uint256"
        }
      ],
      "payable": false,
      "stateMutability": "view",
      "type": "function"
    },
    {
      "constant": false,
      "inputs": [
        {
          "name": "_from",
          "type": "address"
        },
        {
          "name": "_to",
          "type": "address"
        },
        {
          "name": "_value",
          "type": "uint256"
        }
      ],
      "name": "transferFrom",
      "outputs": [
        {
          "name": "success",
          "type": "bool"
        }
      ],
      "payable": false,
      "stateMutability": "nonpayable",
      "type": "function"
    },
    {
      "constant": false,
      "inputs": [
        {
          "name": "addr",
          "type": "address"
        }
      ],
      "name": "setReleaseAgent",
      "outputs": [],
      "payable": false,
      "stateMutability": "nonpayable",
      "type": "function"
    },
    {
      "constant": true,
      "inputs": [],
      "name": "decimals",
      "outputs": [
        {
          "name": "",
          "type": "uint256"
        }
      ],
      "payable": false,
      "stateMutability": "view",
      "type": "function"
    },
    {
      "constant": false,
      "inputs": [
        {
          "name": "_to",
          "type": "address"
        },
        {
          "name": "_amount",
          "type": "uint256"
        }
      ],
      "name": "mint",
      "outputs": [
        {
          "name": "",
          "type": "bool"
        }
      ],
      "payable": false,
      "stateMutability": "nonpayable",
      "type": "function"
    },
    {
      "constant": false,
      "inputs": [
        {
          "name": "value",
          "type": "uint256"
        }
      ],
      "name": "upgrade",
      "outputs": [],
      "payable": false,
      "stateMutability": "nonpayable",
      "type": "function"
    },
    {
      "constant": true,
      "inputs": [],
      "name": "upgradeAgent",
      "outputs": [
        {
          "name": "",
          "type": "address"
        }
      ],
      "payable": false,
      "stateMutability": "view",
      "type": "function"
    },
    {
      "constant": false,
      "inputs": [],
      "name": "releaseTokenTransfer",
      "outputs": [],
      "payable": false,
      "stateMutability": "nonpayable",
      "type": "function"
    },
    {
      "constant": true,
      "inputs": [],
      "name": "upgradeMaster",
      "outputs": [
        {
          "name": "",
          "type": "address"
        }
      ],
      "payable": false,
      "stateMutability": "view",
      "type": "function"
    },
    {
      "constant": true,
      "inputs": [
        {
          "name": "_owner",
          "type": "address"
        }
      ],
      "name": "balanceOf",
      "outputs": [
        {
          "name": "balance",
          "type": "uint256"
        }
      ],
      "payable": false,
      "stateMutability": "view",
      "type": "function"
    },
    {
      "constant": false,
      "inputs": [],
      "name": "finishMinting",
      "outputs": [
        {
          "name": "",
          "type": "bool"
        }
      ],
      "payable": false,
      "stateMutability": "nonpayable",
      "type": "function"
    },
    {
      "constant": true,
      "inputs": [],
      "name": "getUpgradeState",
      "outputs": [
        {
          "name": "",
          "type": "uint8"
        }
      ],
      "payable": false,
      "stateMutability": "view",
      "type": "function"
    },
    {
      "constant": true,
      "inputs": [
        {
          "name": "",
          "type": "address"
        }
      ],
      "name": "transferAgents",
      "outputs": [
        {
          "name": "",
          "type": "bool"
        }
      ],
      "payable": false,
      "stateMutability": "view",
      "type": "function"
    },
    {
      "constant": true,
      "inputs": [],
      "name": "owner",
      "outputs": [
        {
          "name": "",
          "type": "address"
        }
      ],
      "payable": false,
      "stateMutability": "view",
      "type": "function"
    },
    {
      "constant": true,
      "inputs": [],
      "name": "symbol",
      "outputs": [
        {
          "name": "",
          "type": "string"
        }
      ],
      "payable": false,
      "stateMutability": "view",
      "type": "function"
    },
    {
      "constant": true,
      "inputs": [],
      "name": "released",
      "outputs": [
        {
          "name": "",
          "type": "bool"
        }
      ],
      "payable": false,
      "stateMutability": "view",
      "type": "function"
    },
    {
      "constant": false,
      "inputs": [
        {
          "name": "_to",
          "type": "address"
        },
        {
          "name": "_value",
          "type": "uint256"
        }
      ],
      "name": "transfer",
      "outputs": [
        {
          "name": "success",
          "type": "bool"
        }
      ],
      "payable": false,
      "stateMutability": "nonpayable",
      "type": "function"
    },
    {
      "constant": true,
      "inputs": [],
      "name": "totalUpgraded",
      "outputs": [
        {
          "name": "",
          "type": "uint256"
        }
      ],
      "payable": false,
      "stateMutability": "view",
      "type": "function"
    },
    {
      "constant": true,
      "inputs": [],
      "name": "releaseAgent",
      "outputs": [
        {
          "name": "",
          "type": "address"
        }
      ],
      "payable": false,
      "stateMutability": "view",
      "type": "function"
    },
    {
      "constant": false,
      "inputs": [
        {
          "name": "agent",
          "type": "address"
        }
      ],
      "name": "setUpgradeAgent",
      "outputs": [],
      "payable": false,
      "stateMutability": "nonpayable",
      "type": "function"
    },
    {
      "constant": true,
      "inputs": [
        {
          "name": "_owner",
          "type": "address"
        },
        {
          "name": "_spender",
          "type": "address"
        }
      ],
      "name": "allowance",
      "outputs": [
        {
          "name": "remaining",
          "type": "uint256"
        }
      ],
      "payable": false,
      "stateMutability": "view",
      "type": "function"
    },
    {
      "constant": false,
      "inputs": [
        {
          "name": "newOwner",
          "type": "address"
        }
      ],
      "name": "transferOwnership",
      "outputs": [],
      "payable": false,
      "stateMutability": "nonpayable",
      "type": "function"
    },
    {
      "constant": false,
      "inputs": [
        {
          "name": "master",
          "type": "address"
        }
      ],
      "name": "setUpgradeMaster",
      "outputs": [],
      "payable": false,
      "stateMutability": "nonpayable",
      "type": "function"
    },
    {
      "inputs": [],
      "payable": false,
      "stateMutability": "nonpayable",
      "type": "constructor"
    },
    {
      "anonymous": false,
      "inputs": [
        {
          "indexed": true,
          "name": "_from",
          "type": "address"
        },
        {
          "indexed": true,
          "name": "_to",
          "type": "address"
        },
        {
          "indexed": false,
          "name": "_value",
          "type": "uint256"
        }
      ],
      "name": "Upgrade",
      "type": "event"
    },
    {
      "anonymous": false,
      "inputs": [
        {
          "indexed": false,
          "name": "agent",
          "type": "address"
        }
      ],
      "name": "UpgradeAgentSet",
      "type": "event"
    },
    {
      "anonymous": false,
      "inputs": [
        {
          "indexed": true,
          "name": "to",
          "type": "address"
        },
        {
          "indexed": false,
          "name": "amount",
          "type": "uint256"
        }
      ],
      "name": "Mint",
      "type": "event"
    },
    {
      "anonymous": false,
      "inputs": [],
      "name": "MintFinished",
      "type": "event"
    },
    {
      "anonymous": false,
      "inputs": [
        {
          "indexed": true,
          "name": "from",
          "type": "address"
        },
        {
          "indexed": true,
          "name": "to",
          "type": "address"
        },
        {
          "indexed": false,
          "name": "value",
          "type": "uint256"
        }
      ],
      "name": "Transfer",
      "type": "event"
    },
    {
      "anonymous": false,
      "inputs": [
        {
          "indexed": true,
          "name": "owner",
          "type": "address"
        },
        {
          "indexed": true,
          "name": "spender",
          "type": "address"
        },
        {
          "indexed": false,
          "name": "value",
          "type": "uint256"
        }
      ],
      "name": "Approval",
      "type": "event"
    }
  ],
  "bytecode": "0x6004805460a060020a60ff02191690556006805460ff1916905560c0604052600b60808190527f4d6174727978546f6b656e00000000000000000000000000000000000000000060a09081526200005a9160099190620000ec565b506040805180820190915260038082527f4d545800000000000000000000000000000000000000000000000000000000006020909201918252620000a191600a91620000ec565b506012600b55348015620000b457600080fd5b506000805433600160a060020a031990911681179091556006805461010060a860020a03191661010090920291909117905562000191565b828054600181600116156101000203166002900490600052602060002090601f016020900481019282601f106200012f57805160ff19168380011785556200015f565b828001600101855582156200015f579182015b828111156200015f57825182559160200191906001019062000142565b506200016d92915062000171565b5090565b6200018e91905b808211156200016d576000815560010162000178565b90565b6111db80620001a16000396000f3fe60806040526004361061015e5763ffffffff7c010000000000000000000000000000000000000000000000000000000060003504166302f652a3811461016357806305d2035b146101a057806306fdde03146101c9578063095ea7b31461025357806318160ddd1461028c57806323b872dd146102b357806329ff4f53146102f6578063313ce5671461032957806340c10f191461033e57806345977d03146103775780635de4ccb0146103a15780635f412d4f146103d2578063600440cb146103e757806370a08231146103fc5780637d64bcb41461042f5780638444b39114610444578063867c28571461047d5780638da5cb5b146104b057806395d89b41146104c557806396132521146104da578063a9059cbb146104ef578063c752ff6214610528578063d1f276d31461053d578063d7e7088a14610552578063dd62ed3e14610585578063f2fde38b146105c0578063ffeb7d75146105f3575b600080fd5b34801561016f57600080fd5b5061019e6004803603604081101561018657600080fd5b50600160a060020a0381351690602001351515610626565b005b3480156101ac57600080fd5b506101b5610683565b604080519115158252519081900360200190f35b3480156101d557600080fd5b506101de61068c565b6040805160208082528351818301528351919283929083019185019080838360005b83811015610218578181015183820152602001610200565b50505050905090810190601f1680156102455780820380516001836020036101000a031916815260200191505b509250505060405180910390f35b34801561025f57600080fd5b506101b56004803603604081101561027657600080fd5b50600160a060020a03813516906020013561071a565b34801561029857600080fd5b506102a16107bc565b60408051918252519081900360200190f35b3480156102bf57600080fd5b506101b5600480360360608110156102d657600080fd5b50600160a060020a038135811691602081013590911690604001356107c2565b34801561030257600080fd5b5061019e6004803603602081101561031957600080fd5b5035600160a060020a0316610816565b34801561033557600080fd5b506102a1610877565b34801561034a57600080fd5b506101b56004803603604081101561036157600080fd5b50600160a060020a03813516906020013561087d565b34801561038357600080fd5b5061019e6004803603602081101561039a57600080fd5b5035610980565b3480156103ad57600080fd5b506103b6610af1565b60408051600160a060020a039092168252519081900360200190f35b3480156103de57600080fd5b5061019e610b00565b3480156103f357600080fd5b506103b6610b3d565b34801561040857600080fd5b506102a16004803603602081101561041f57600080fd5b5035600160a060020a0316610b51565b34801561043b57600080fd5b506101b5610b6c565b34801561045057600080fd5b50610459610bc1565b6040518082600481111561046957fe5b60ff16815260200191505060405180910390f35b34801561048957600080fd5b506101b5600480360360208110156104a057600080fd5b5035600160a060020a0316610bf7565b3480156104bc57600080fd5b506103b6610c0c565b3480156104d157600080fd5b506101de610c1b565b3480156104e657600080fd5b506101b5610c76565b3480156104fb57600080fd5b506101b56004803603604081101561051257600080fd5b50600160a060020a038135169060200135610c86565b34801561053457600080fd5b506102a1610cd8565b34801561054957600080fd5b506103b6610cde565b34801561055e57600080fd5b5061019e6004803603602081101561057557600080fd5b5035600160a060020a0316610ced565b34801561059157600080fd5b506102a1600480360360408110156105a857600080fd5b50600160a060020a0381358116916020013516610edc565b3480156105cc57600080fd5b5061019e600480360360208110156105e357600080fd5b5035600160a060020a0316610f07565b3480156105ff57600080fd5b5061019e6004803603602081101561061657600080fd5b5035600160a060020a0316610f62565b600054600160a060020a0316331461063d57600080fd5b60045460009060a060020a900460ff161561065757600080fd5b50600160a060020a03919091166000908152600560205260409020805460ff1916911515919091179055565b60065460ff1681565b6009805460408051602060026001851615610100026000190190941693909304601f810184900484028201840190925281815292918301828280156107125780601f106106e757610100808354040283529160200191610712565b820191906000526020600020905b8154815290600101906020018083116106f557829003601f168201915b505050505081565b600081158061074a5750336000908152600360209081526040808320600160a060020a0387168452909152902054155b151561075557600080fd5b336000818152600360209081526040808320600160a060020a03881680855290835292819020869055805186815290519293927f8c5be1e5ebec7d5bd14f71427d1e84f3dd0314c0f7b2291e5b200ac8c7c3b925929181900390910190a350600192915050565b60015481565b600454600090849060a060020a900460ff16806107f75750600160a060020a03811660009081526005602052604090205460ff165b151561080257600080fd5b61080d858585610fc8565b95945050505050565b600054600160a060020a0316331461082d57600080fd5b60045460009060a060020a900460ff161561084757600080fd5b506004805473ffffffffffffffffffffffffffffffffffffffff1916600160a060020a0392909216919091179055565b600b5481565b60008054600160a060020a0316331461089557600080fd5b60065460ff16156108a557600080fd5b6001546108b8908363ffffffff6110d716565b600155600160a060020a0383166000908152600260205260409020546108e4908363ffffffff6110d716565b600160a060020a038416600081815260026020908152604091829020939093558051858152905191927f0f6798a560793a54c3bcfe86a93cde1e73087d944c0ea20544137d412139688592918290030190a2604080518381529051600160a060020a038516916000917fddf252ad1be2c89b69c2b068fc378daa952ba7f163c4a11628f55a4df523b3ef9181900360200190a350600192915050565b600061098a610bc1565b9050600381600481111561099a57fe5b14806109b1575060048160048111156109af57fe5b145b15156109bc57600080fd5b8115156109c857600080fd5b336000908152600260205260409020546109e8908363ffffffff6110ed16565b33600090815260026020526040902055600154610a0b908363ffffffff6110ed16565b600155600854610a21908363ffffffff6110d716565b600855600754604080517f753e88e5000000000000000000000000000000000000000000000000000000008152336004820152602481018590529051600160a060020a039092169163753e88e59160448082019260009290919082900301818387803b158015610a9057600080fd5b505af1158015610aa4573d6000803e3d6000fd5b5050600754604080518681529051600160a060020a0390921693503392507f7e5c344a8141a805725cb476f76c6953b842222b967edd1f78ddb6e8b3f397ac919081900360200190a35050565b600754600160a060020a031681565b600454600160a060020a03163314610b1757600080fd5b6004805474ff0000000000000000000000000000000000000000191660a060020a179055565b6006546101009004600160a060020a031681565b600160a060020a031660009081526002602052604090205490565b60008054600160a060020a03163314610b8457600080fd5b6006805460ff191660011790556040517fae5184fba832cb2b1f702aca6117b8d265eaf03ad33eb133f19dde0f5920fa0890600090a15060015b90565b600754600090600160a060020a03161515610bde57506002610bbe565b6008541515610bef57506003610bbe565b506004610bbe565b60056020526000908152604090205460ff1681565b600054600160a060020a031681565b600a805460408051602060026001851615610100026000190190941693909304601f810184900484028201840190925281815292918301828280156107125780601f106106e757610100808354040283529160200191610712565b60045460a060020a900460ff1681565b600454600090339060a060020a900460ff1680610cbb5750600160a060020a03811660009081526005602052604090205460ff165b1515610cc657600080fd5b610cd084846110ff565b949350505050565b60085481565b600454600160a060020a031681565b600160a060020a0381161515610d0257600080fd5b6006546101009004600160a060020a03163314610d1e57600080fd5b6004610d28610bc1565b6004811115610d3357fe5b1415610d3e57600080fd5b6007805473ffffffffffffffffffffffffffffffffffffffff1916600160a060020a038381169190911791829055604080517f61d3d7a6000000000000000000000000000000000000000000000000000000008152905192909116916361d3d7a691600480820192602092909190829003018186803b158015610dc057600080fd5b505afa158015610dd4573d6000803e3d6000fd5b505050506040513d6020811015610dea57600080fd5b50511515610df757600080fd5b600154600760009054906101000a9004600160a060020a0316600160a060020a0316634b2ba0dd6040518163ffffffff167c010000000000000000000000000000000000000000000000000000000002815260040160206040518083038186803b158015610e6457600080fd5b505afa158015610e78573d6000803e3d6000fd5b505050506040513d6020811015610e8e57600080fd5b505114610e9a57600080fd5b60075460408051600160a060020a039092168252517f7845d5aa74cc410e35571258d954f23b82276e160fe8c188fa80566580f279cc9181900360200190a150565b600160a060020a03918216600090815260036020908152604080832093909416825291909152205490565b600054600160a060020a03163314610f1e57600080fd5b600160a060020a0381161515610f3357600080fd5b6000805473ffffffffffffffffffffffffffffffffffffffff1916600160a060020a0392909216919091179055565b600160a060020a0381161515610f7757600080fd5b6006546101009004600160a060020a03163314610f9357600080fd5b60068054600160a060020a039092166101000274ffffffffffffffffffffffffffffffffffffffff0019909216919091179055565b600160a060020a0380841660009081526003602090815260408083203384528252808320549386168352600290915281205490919061100d908463ffffffff6110d716565b600160a060020a038086166000908152600260205260408082209390935590871681522054611042908463ffffffff6110ed16565b600160a060020a03861660009081526002602052604090205561106b818463ffffffff6110ed16565b600160a060020a03808716600081815260036020908152604080832033845282529182902094909455805187815290519288169391927fddf252ad1be2c89b69c2b068fc378daa952ba7f163c4a11628f55a4df523b3ef929181900390910190a3506001949350505050565b6000828201838110156110e657fe5b9392505050565b6000828211156110f957fe5b50900390565b3360009081526002602052604081205461111f908363ffffffff6110ed16565b3360009081526002602052604080822092909255600160a060020a03851681522054611151908363ffffffff6110d716565b600160a060020a0384166000818152600260209081526040918290209390935580518581529051919233927fddf252ad1be2c89b69c2b068fc378daa952ba7f163c4a11628f55a4df523b3ef9281900390910190a35060019291505056fea165627a7a72305820fc506f4df880dddd87c5df298b903ab141fd246ec377ac101c71011af6080e720029",
  "source": "pragma solidity ^0.5.0;\n\nimport \"./MintableToken.sol\";\nimport \"./UpgradeableToken.sol\";\n\n/**\n * Matryx Ethereum token.\n */\ncontract MatryxToken is MintableToken, UpgradeableToken{\n\n  string public name = \"MatryxToken\";\n  string public symbol = \"MTX\";\n  uint public decimals = 18;\n\n  // supply upgrade owner as the contract creation account\n  constructor() public UpgradeableToken(msg.sender) {\n\n  }\n}\n",
  "sourcePath": "/Users/maxhoward/Desktop/Ethereum/MatryxPlatform/contracts/MatryxToken/MatryxToken.sol",
  "compiler": {
    "name": "solc",
    "version": "0.5.0+commit.1d4f565a.Emscripten.clang"
  },
  "schemaVersion": "3.0.2",
  "updatedAt": "2019-02-26T19:51:38.032Z",
  "devdoc": {
    "methods": {
      "allowance(address,address)": {
        "details": "Function to check the amount of tokens that an owner allowed to a spender.",
        "params": {
          "_owner": "address The address which owns the funds.",
          "_spender": "address The address which will spend the funds."
        },
        "return": "A uint256 specifing the amount of tokens still available for the spender."
      },
      "approve(address,uint256)": {
        "details": "Aprove the passed address to spend the specified amount of tokens on behalf of msg.sender.",
        "params": {
          "_spender": "The address which will spend the funds.",
          "_value": "The amount of tokens to be spent."
        }
      },
      "balanceOf(address)": {
        "details": "Gets the balance of the specified address.",
        "params": {
          "_owner": "The address to query the the balance of."
        },
        "return": "An uint256 representing the amount owned by the passed address."
      },
      "finishMinting()": {
        "details": "Function to stop minting new tokens.",
        "return": "True if the operation was successful."
      },
      "mint(address,uint256)": {
        "details": "Function to mint tokens",
        "params": {
          "_amount": "The amount of tokens to mint.",
          "_to": "The address that will recieve the minted tokens."
        },
        "return": "A boolean that indicates if the operation was successful."
      },
      "transferOwnership(address)": {
        "details": "Allows the current owner to transfer control of the contract to a newOwner.",
        "params": {
          "newOwner": "The address to transfer ownership to."
        }
      }
    }
  },
  "userdoc": {
    "methods": {
      "getUpgradeState()": {
        "notice": "Get the state of the token upgrade."
      },
      "releaseTokenTransfer()": {
        "notice": "One way function to release the tokens to the wild.   * Can be called only from the release agent that is the final ICO contract. It is only called if the crowdsale has been success (first milestone reached)."
      },
      "setReleaseAgent(address)": {
        "notice": "Set the contract that can call release and make the token transferable.   * Design choice. Allow reset the release agent to fix fat finger mistakes."
      },
      "setTransferAgent(address,bool)": {
        "notice": "Owner can allow a particular address (a crowdsale contract) to transfer tokens despite the lock up period."
      },
      "setUpgradeAgent(address)": {
        "notice": "Set an upgrade agent that handles"
      },
      "setUpgradeMaster(address)": {
        "notice": "Change the upgrade master.   * This allows us to set a new owner for the upgrade mechanism."
      },
      "upgrade(uint256)": {
        "notice": "Allow the token holder to upgrade some of their tokens to a new contract."
      }
    },
    "notice": "Matryx Ethereum token."
  }
}