{
  "contractName": "MintableToken",
  "abi": [
    {
      "constant": false,
      "inputs": [
        {
          "name": "addr",
          "type": "address"
        },
        {
          "name": "state",
          "type": "bool"
        }
      ],
      "name": "setTransferAgent",
      "outputs": [],
      "payable": false,
      "stateMutability": "nonpayable",
      "type": "function"
    },
    {
      "constant": true,
      "inputs": [],
      "name": "mintingFinished",
      "outputs": [
        {
          "name": "",
          "type": "bool"
        }
      ],
      "payable": false,
      "stateMutability": "view",
      "type": "function"
    },
    {
      "constant": false,
      "inputs": [
        {
          "name": "_spender",
          "type": "address"
        },
        {
          "name": "_value",
          "type": "uint256"
        }
      ],
      "name": "approve",
      "outputs": [
        {
          "name": "",
          "type": "bool"
        }
      ],
      "payable": false,
      "stateMutability": "nonpayable",
      "type": "function"
    },
    {
      "constant": true,
      "inputs": [],
      "name": "totalSupply",
      "outputs": [
        {
          "name": "",
          "type": "uint256"
        }
      ],
      "payable": false,
      "stateMutability": "view",
      "type": "function"
    },
    {
      "constant": false,
      "inputs": [
        {
          "name": "_from",
          "type": "address"
        },
        {
          "name": "_to",
          "type": "address"
        },
        {
          "name": "_value",
          "type": "uint256"
        }
      ],
      "name": "transferFrom",
      "outputs": [
        {
          "name": "success",
          "type": "bool"
        }
      ],
      "payable": false,
      "stateMutability": "nonpayable",
      "type": "function"
    },
    {
      "constant": false,
      "inputs": [
        {
          "name": "addr",
          "type": "address"
        }
      ],
      "name": "setReleaseAgent",
      "outputs": [],
      "payable": false,
      "stateMutability": "nonpayable",
      "type": "function"
    },
    {
      "constant": false,
      "inputs": [],
      "name": "releaseTokenTransfer",
      "outputs": [],
      "payable": false,
      "stateMutability": "nonpayable",
      "type": "function"
    },
    {
      "constant": true,
      "inputs": [
        {
          "name": "_owner",
          "type": "address"
        }
      ],
      "name": "balanceOf",
      "outputs": [
        {
          "name": "balance",
          "type": "uint256"
        }
      ],
      "payable": false,
      "stateMutability": "view",
      "type": "function"
    },
    {
      "constant": true,
      "inputs": [
        {
          "name": "",
          "type": "address"
        }
      ],
      "name": "transferAgents",
      "outputs": [
        {
          "name": "",
          "type": "bool"
        }
      ],
      "payable": false,
      "stateMutability": "view",
      "type": "function"
    },
    {
      "constant": true,
      "inputs": [],
      "name": "owner",
      "outputs": [
        {
          "name": "",
          "type": "address"
        }
      ],
      "payable": false,
      "stateMutability": "view",
      "type": "function"
    },
    {
      "constant": true,
      "inputs": [],
      "name": "released",
      "outputs": [
        {
          "name": "",
          "type": "bool"
        }
      ],
      "payable": false,
      "stateMutability": "view",
      "type": "function"
    },
    {
      "constant": false,
      "inputs": [
        {
          "name": "_to",
          "type": "address"
        },
        {
          "name": "_value",
          "type": "uint256"
        }
      ],
      "name": "transfer",
      "outputs": [
        {
          "name": "success",
          "type": "bool"
        }
      ],
      "payable": false,
      "stateMutability": "nonpayable",
      "type": "function"
    },
    {
      "constant": true,
      "inputs": [],
      "name": "releaseAgent",
      "outputs": [
        {
          "name": "",
          "type": "address"
        }
      ],
      "payable": false,
      "stateMutability": "view",
      "type": "function"
    },
    {
      "constant": true,
      "inputs": [
        {
          "name": "_owner",
          "type": "address"
        },
        {
          "name": "_spender",
          "type": "address"
        }
      ],
      "name": "allowance",
      "outputs": [
        {
          "name": "remaining",
          "type": "uint256"
        }
      ],
      "payable": false,
      "stateMutability": "view",
      "type": "function"
    },
    {
      "constant": false,
      "inputs": [
        {
          "name": "newOwner",
          "type": "address"
        }
      ],
      "name": "transferOwnership",
      "outputs": [],
      "payable": false,
      "stateMutability": "nonpayable",
      "type": "function"
    },
    {
      "anonymous": false,
      "inputs": [
        {
          "indexed": true,
          "name": "to",
          "type": "address"
        },
        {
          "indexed": false,
          "name": "amount",
          "type": "uint256"
        }
      ],
      "name": "Mint",
      "type": "event"
    },
    {
      "anonymous": false,
      "inputs": [],
      "name": "MintFinished",
      "type": "event"
    },
    {
      "anonymous": false,
      "inputs": [
        {
          "indexed": true,
          "name": "from",
          "type": "address"
        },
        {
          "indexed": true,
          "name": "to",
          "type": "address"
        },
        {
          "indexed": false,
          "name": "value",
          "type": "uint256"
        }
      ],
      "name": "Transfer",
      "type": "event"
    },
    {
      "anonymous": false,
      "inputs": [
        {
          "indexed": true,
          "name": "owner",
          "type": "address"
        },
        {
          "indexed": true,
          "name": "spender",
          "type": "address"
        },
        {
          "indexed": false,
          "name": "value",
          "type": "uint256"
        }
      ],
      "name": "Approval",
      "type": "event"
    },
    {
      "constant": false,
      "inputs": [
        {
          "name": "_to",
          "type": "address"
        },
        {
          "name": "_amount",
          "type": "uint256"
        }
      ],
      "name": "mint",
      "outputs": [
        {
          "name": "",
          "type": "bool"
        }
      ],
      "payable": false,
      "stateMutability": "nonpayable",
      "type": "function"
    },
    {
      "constant": false,
      "inputs": [],
      "name": "finishMinting",
      "outputs": [
        {
          "name": "",
          "type": "bool"
        }
      ],
      "payable": false,
      "stateMutability": "nonpayable",
      "type": "function"
    }
  ],
  "bytecode": "0x60806040526004805460a060020a60ff02191690556006805460ff1916905560008054600160a060020a03191633179055610d4c8061003f6000396000f3fe6080604052600436106100f05763ffffffff7c010000000000000000000000000000000000000000000000000000000060003504166302f652a381146100f557806305d2035b1461013f578063095ea7b31461016857806318160ddd146101ae57806323b872dd146101d557806329ff4f531461022557806340c10f19146102655780635f412d4f146102ab57806370a08231146102c05780637d64bcb414610300578063867c2857146103155780638da5cb5b146103555780639613252114610393578063a9059cbb146103a8578063d1f276d3146103ee578063dd62ed3e14610403578063f2fde38b1461044b575b600080fd5b34801561010157600080fd5b5061013d6004803603604081101561011857600080fd5b5073ffffffffffffffffffffffffffffffffffffffff8135169060200135151561048b565b005b34801561014b57600080fd5b50610154610531565b604080519115158252519081900360200190f35b34801561017457600080fd5b506101546004803603604081101561018b57600080fd5b5073ffffffffffffffffffffffffffffffffffffffff813516906020013561053a565b3480156101ba57600080fd5b506101c36105f6565b60408051918252519081900360200190f35b3480156101e157600080fd5b50610154600480360360608110156101f857600080fd5b5073ffffffffffffffffffffffffffffffffffffffff8135811691602081013590911690604001356105fc565b34801561023157600080fd5b5061013d6004803603602081101561024857600080fd5b503573ffffffffffffffffffffffffffffffffffffffff1661066e565b34801561027157600080fd5b506101546004803603604081101561028857600080fd5b5073ffffffffffffffffffffffffffffffffffffffff8135169060200135610705565b3480156102b757600080fd5b5061013d61083c565b3480156102cc57600080fd5b506101c3600480360360208110156102e357600080fd5b503573ffffffffffffffffffffffffffffffffffffffff166108a1565b34801561030c57600080fd5b506101546108c9565b34801561032157600080fd5b506101546004803603602081101561033857600080fd5b503573ffffffffffffffffffffffffffffffffffffffff16610948565b34801561036157600080fd5b5061036a61095d565b6040805173ffffffffffffffffffffffffffffffffffffffff9092168252519081900360200190f35b34801561039f57600080fd5b50610154610979565b3480156103b457600080fd5b50610154600480360360408110156103cb57600080fd5b5073ffffffffffffffffffffffffffffffffffffffff813516906020013561099a565b3480156103fa57600080fd5b5061036a610a0a565b34801561040f57600080fd5b506101c36004803603604081101561042657600080fd5b5073ffffffffffffffffffffffffffffffffffffffff81358116916020013516610a26565b34801561045757600080fd5b5061013d6004803603602081101561046e57600080fd5b503573ffffffffffffffffffffffffffffffffffffffff16610a5e565b60005473ffffffffffffffffffffffffffffffffffffffff1633146104af57600080fd5b60045460009074010000000000000000000000000000000000000000900460ff16156104da57600080fd5b5073ffffffffffffffffffffffffffffffffffffffff91909116600090815260056020526040902080547fffffffffffffffffffffffffffffffffffffffffffffffffffffffffffffff0016911515919091179055565b60065460ff1681565b6000811580610577575033600090815260036020908152604080832073ffffffffffffffffffffffffffffffffffffffff87168452909152902054155b151561058257600080fd5b33600081815260036020908152604080832073ffffffffffffffffffffffffffffffffffffffff881680855290835292819020869055805186815290519293927f8c5be1e5ebec7d5bd14f71427d1e84f3dd0314c0f7b2291e5b200ac8c7c3b925929181900390910190a350600192915050565b60015481565b600454600090849074010000000000000000000000000000000000000000900460ff168061064f575073ffffffffffffffffffffffffffffffffffffffff811660009081526005602052604090205460ff165b151561065a57600080fd5b610665858585610aeb565b95945050505050565b60005473ffffffffffffffffffffffffffffffffffffffff16331461069257600080fd5b60045460009074010000000000000000000000000000000000000000900460ff16156106bd57600080fd5b50600480547fffffffffffffffffffffffff00000000000000000000000000000000000000001673ffffffffffffffffffffffffffffffffffffffff92909216919091179055565b6000805473ffffffffffffffffffffffffffffffffffffffff16331461072a57600080fd5b60065460ff161561073a57600080fd5b60015461074d908363ffffffff610c2e16565b60015573ffffffffffffffffffffffffffffffffffffffff8316600090815260026020526040902054610786908363ffffffff610c2e16565b73ffffffffffffffffffffffffffffffffffffffff8416600081815260026020908152604091829020939093558051858152905191927f0f6798a560793a54c3bcfe86a93cde1e73087d944c0ea20544137d412139688592918290030190a260408051838152905173ffffffffffffffffffffffffffffffffffffffff8516916000917fddf252ad1be2c89b69c2b068fc378daa952ba7f163c4a11628f55a4df523b3ef9181900360200190a350600192915050565b60045473ffffffffffffffffffffffffffffffffffffffff16331461086057600080fd5b600480547fffffffffffffffffffffff00ffffffffffffffffffffffffffffffffffffffff1674010000000000000000000000000000000000000000179055565b73ffffffffffffffffffffffffffffffffffffffff1660009081526002602052604090205490565b6000805473ffffffffffffffffffffffffffffffffffffffff1633146108ee57600080fd5b600680547fffffffffffffffffffffffffffffffffffffffffffffffffffffffffffffff001660011790556040517fae5184fba832cb2b1f702aca6117b8d265eaf03ad33eb133f19dde0f5920fa0890600090a150600190565b60056020526000908152604090205460ff1681565b60005473ffffffffffffffffffffffffffffffffffffffff1681565b60045474010000000000000000000000000000000000000000900460ff1681565b600454600090339074010000000000000000000000000000000000000000900460ff16806109ed575073ffffffffffffffffffffffffffffffffffffffff811660009081526005602052604090205460ff165b15156109f857600080fd5b610a028484610c44565b949350505050565b60045473ffffffffffffffffffffffffffffffffffffffff1681565b73ffffffffffffffffffffffffffffffffffffffff918216600090815260036020908152604080832093909416825291909152205490565b60005473ffffffffffffffffffffffffffffffffffffffff163314610a8257600080fd5b73ffffffffffffffffffffffffffffffffffffffff81161515610aa457600080fd5b600080547fffffffffffffffffffffffff00000000000000000000000000000000000000001673ffffffffffffffffffffffffffffffffffffffff92909216919091179055565b73ffffffffffffffffffffffffffffffffffffffff808416600090815260036020908152604080832033845282528083205493861683526002909152812054909190610b3d908463ffffffff610c2e16565b73ffffffffffffffffffffffffffffffffffffffff8086166000908152600260205260408082209390935590871681522054610b7f908463ffffffff610d0e16565b73ffffffffffffffffffffffffffffffffffffffff8616600090815260026020526040902055610bb5818463ffffffff610d0e16565b73ffffffffffffffffffffffffffffffffffffffff808716600081815260036020908152604080832033845282529182902094909455805187815290519288169391927fddf252ad1be2c89b69c2b068fc378daa952ba7f163c4a11628f55a4df523b3ef929181900390910190a3506001949350505050565b600082820183811015610c3d57fe5b9392505050565b33600090815260026020526040812054610c64908363ffffffff610d0e16565b336000908152600260205260408082209290925573ffffffffffffffffffffffffffffffffffffffff851681522054610ca3908363ffffffff610c2e16565b73ffffffffffffffffffffffffffffffffffffffff84166000818152600260209081526040918290209390935580518581529051919233927fddf252ad1be2c89b69c2b068fc378daa952ba7f163c4a11628f55a4df523b3ef9281900390910190a350600192915050565b600082821115610d1a57fe5b5090039056fea165627a7a72305820992f0610cbc042677baf898cda241ddbd8b3421c18bc9af5449ead0d630b6d1e0029",
  "source": "pragma solidity ^0.5.0;\n\n\nimport './ReleasableToken.sol';\n\n\n/**\n * @title Mintable token\n * @dev Simple ERC20 Token example, with mintable token creation\n * @dev Issue: * https://github.com/OpenZeppelin/zeppelin-solidity/issues/120\n * Based on code by TokenMarketNet: https://github.com/TokenMarketNet/ico/blob/master/contracts/MintableToken.sol\n */\n\ncontract MintableToken is ReleasableToken {\n  event Mint(address indexed to, uint256 amount);\n  event MintFinished();\n\n  bool public mintingFinished = false;\n\n  modifier canMint() {\n    require(!mintingFinished);\n    _;\n  }\n\n  /**\n   * @dev Function to mint tokens\n   * @param _to The address that will recieve the minted tokens.\n   * @param _amount The amount of tokens to mint.\n   * @return A boolean that indicates if the operation was successful.\n   */\n  function mint(address _to, uint256 _amount) public onlyOwner canMint returns (bool) {\n    totalSupply = totalSupply.add(_amount);\n    balances[_to] = balances[_to].add(_amount);\n    emit Mint(_to, _amount);\n    emit Transfer(address(0), _to, _amount);\n    return true;\n  }\n\n  /**\n   * @dev Function to stop minting new tokens.\n   * @return True if the operation was successful.\n   */\n  function finishMinting() public onlyOwner returns (bool) {\n    mintingFinished = true;\n    emit MintFinished();\n    return true;\n  }\n}\n",
  "sourcePath": "/Users/maxhoward/Desktop/Ethereum/MatryxPlatform/contracts/MatryxToken/MintableToken.sol",
  "compiler": {
    "name": "solc",
    "version": "0.5.0+commit.1d4f565a.Emscripten.clang"
  },
  "schemaVersion": "3.0.1",
  "updatedAt": "2019-02-02T22:53:51.561Z",
  "devdoc": {
    "details": "Simple ERC20 Token example, with mintable token creationIssue: * https://github.com/OpenZeppelin/zeppelin-solidity/issues/120 Based on code by TokenMarketNet: https://github.com/TokenMarketNet/ico/blob/master/contracts/MintableToken.sol",
    "methods": {
      "allowance(address,address)": {
        "details": "Function to check the amount of tokens that an owner allowed to a spender.",
        "params": {
          "_owner": "address The address which owns the funds.",
          "_spender": "address The address which will spend the funds."
        },
        "return": "A uint256 specifing the amount of tokens still available for the spender."
      },
      "approve(address,uint256)": {
        "details": "Aprove the passed address to spend the specified amount of tokens on behalf of msg.sender.",
        "params": {
          "_spender": "The address which will spend the funds.",
          "_value": "The amount of tokens to be spent."
        }
      },
      "balanceOf(address)": {
        "details": "Gets the balance of the specified address.",
        "params": {
          "_owner": "The address to query the the balance of."
        },
        "return": "An uint256 representing the amount owned by the passed address."
      },
      "finishMinting()": {
        "details": "Function to stop minting new tokens.",
        "return": "True if the operation was successful."
      },
      "mint(address,uint256)": {
        "details": "Function to mint tokens",
        "params": {
          "_amount": "The amount of tokens to mint.",
          "_to": "The address that will recieve the minted tokens."
        },
        "return": "A boolean that indicates if the operation was successful."
      },
      "transferOwnership(address)": {
        "details": "Allows the current owner to transfer control of the contract to a newOwner.",
        "params": {
          "newOwner": "The address to transfer ownership to."
        }
      }
    },
    "title": "Mintable token"
  },
  "userdoc": {
    "methods": {
      "releaseTokenTransfer()": {
        "notice": "One way function to release the tokens to the wild.   * Can be called only from the release agent that is the final ICO contract. It is only called if the crowdsale has been success (first milestone reached)."
      },
      "setReleaseAgent(address)": {
        "notice": "Set the contract that can call release and make the token transferable.   * Design choice. Allow reset the release agent to fix fat finger mistakes."
      },
      "setTransferAgent(address,bool)": {
        "notice": "Owner can allow a particular address (a crowdsale contract) to transfer tokens despite the lock up period."
      }
    }
  }
}