{
  "contractName": "ReleasableToken",
  "abi": [
    {
      "constant": false,
      "inputs": [
        {
          "name": "_spender",
          "type": "address"
        },
        {
          "name": "_value",
          "type": "uint256"
        }
      ],
      "name": "approve",
      "outputs": [
        {
          "name": "",
          "type": "bool"
        }
      ],
      "payable": false,
      "stateMutability": "nonpayable",
      "type": "function"
    },
    {
      "constant": true,
      "inputs": [],
      "name": "totalSupply",
      "outputs": [
        {
          "name": "",
          "type": "uint256"
        }
      ],
      "payable": false,
      "stateMutability": "view",
      "type": "function"
    },
    {
      "constant": true,
      "inputs": [
        {
          "name": "_owner",
          "type": "address"
        }
      ],
      "name": "balanceOf",
      "outputs": [
        {
          "name": "balance",
          "type": "uint256"
        }
      ],
      "payable": false,
      "stateMutability": "view",
      "type": "function"
    },
    {
      "constant": true,
      "inputs": [
        {
          "name": "",
          "type": "address"
        }
      ],
      "name": "transferAgents",
      "outputs": [
        {
          "name": "",
          "type": "bool"
        }
      ],
      "payable": false,
      "stateMutability": "view",
      "type": "function"
    },
    {
      "constant": true,
      "inputs": [],
      "name": "owner",
      "outputs": [
        {
          "name": "",
          "type": "address"
        }
      ],
      "payable": false,
      "stateMutability": "view",
      "type": "function"
    },
    {
      "constant": true,
      "inputs": [],
      "name": "released",
      "outputs": [
        {
          "name": "",
          "type": "bool"
        }
      ],
      "payable": false,
      "stateMutability": "view",
      "type": "function"
    },
    {
      "constant": true,
      "inputs": [],
      "name": "releaseAgent",
      "outputs": [
        {
          "name": "",
          "type": "address"
        }
      ],
      "payable": false,
      "stateMutability": "view",
      "type": "function"
    },
    {
      "constant": true,
      "inputs": [
        {
          "name": "_owner",
          "type": "address"
        },
        {
          "name": "_spender",
          "type": "address"
        }
      ],
      "name": "allowance",
      "outputs": [
        {
          "name": "remaining",
          "type": "uint256"
        }
      ],
      "payable": false,
      "stateMutability": "view",
      "type": "function"
    },
    {
      "constant": false,
      "inputs": [
        {
          "name": "newOwner",
          "type": "address"
        }
      ],
      "name": "transferOwnership",
      "outputs": [],
      "payable": false,
      "stateMutability": "nonpayable",
      "type": "function"
    },
    {
      "anonymous": false,
      "inputs": [
        {
          "indexed": true,
          "name": "from",
          "type": "address"
        },
        {
          "indexed": true,
          "name": "to",
          "type": "address"
        },
        {
          "indexed": false,
          "name": "value",
          "type": "uint256"
        }
      ],
      "name": "Transfer",
      "type": "event"
    },
    {
      "anonymous": false,
      "inputs": [
        {
          "indexed": true,
          "name": "owner",
          "type": "address"
        },
        {
          "indexed": true,
          "name": "spender",
          "type": "address"
        },
        {
          "indexed": false,
          "name": "value",
          "type": "uint256"
        }
      ],
      "name": "Approval",
      "type": "event"
    },
    {
      "constant": false,
      "inputs": [
        {
          "name": "addr",
          "type": "address"
        }
      ],
      "name": "setReleaseAgent",
      "outputs": [],
      "payable": false,
      "stateMutability": "nonpayable",
      "type": "function"
    },
    {
      "constant": false,
      "inputs": [
        {
          "name": "addr",
          "type": "address"
        },
        {
          "name": "state",
          "type": "bool"
        }
      ],
      "name": "setTransferAgent",
      "outputs": [],
      "payable": false,
      "stateMutability": "nonpayable",
      "type": "function"
    },
    {
      "constant": false,
      "inputs": [],
      "name": "releaseTokenTransfer",
      "outputs": [],
      "payable": false,
      "stateMutability": "nonpayable",
      "type": "function"
    },
    {
      "constant": false,
      "inputs": [
        {
          "name": "_to",
          "type": "address"
        },
        {
          "name": "_value",
          "type": "uint256"
        }
      ],
      "name": "transfer",
      "outputs": [
        {
          "name": "success",
          "type": "bool"
        }
      ],
      "payable": false,
      "stateMutability": "nonpayable",
      "type": "function"
    },
    {
      "constant": false,
      "inputs": [
        {
          "name": "_from",
          "type": "address"
        },
        {
          "name": "_to",
          "type": "address"
        },
        {
          "name": "_value",
          "type": "uint256"
        }
      ],
      "name": "transferFrom",
      "outputs": [
        {
          "name": "success",
          "type": "bool"
        }
      ],
      "payable": false,
      "stateMutability": "nonpayable",
      "type": "function"
    }
  ],
  "bytecode": "0x60806040526004805460a060020a60ff021916905560008054600160a060020a03191633179055610afc806100356000396000f3fe6080604052600436106100cf5763ffffffff7c010000000000000000000000000000000000000000000000000000000060003504166302f652a381146100d4578063095ea7b31461011e57806318160ddd1461017857806323b872dd1461019f57806329ff4f53146101ef5780635f412d4f1461022f57806370a0823114610244578063867c2857146102845780638da5cb5b146102c45780639613252114610302578063a9059cbb14610317578063d1f276d31461035d578063dd62ed3e14610372578063f2fde38b146103ba575b600080fd5b3480156100e057600080fd5b5061011c600480360360408110156100f757600080fd5b5073ffffffffffffffffffffffffffffffffffffffff813516906020013515156103fa565b005b34801561012a57600080fd5b506101646004803603604081101561014157600080fd5b5073ffffffffffffffffffffffffffffffffffffffff81351690602001356104a0565b604080519115158252519081900360200190f35b34801561018457600080fd5b5061018d61055c565b60408051918252519081900360200190f35b3480156101ab57600080fd5b50610164600480360360608110156101c257600080fd5b5073ffffffffffffffffffffffffffffffffffffffff813581169160208101359091169060400135610562565b3480156101fb57600080fd5b5061011c6004803603602081101561021257600080fd5b503573ffffffffffffffffffffffffffffffffffffffff166105d4565b34801561023b57600080fd5b5061011c61066b565b34801561025057600080fd5b5061018d6004803603602081101561026757600080fd5b503573ffffffffffffffffffffffffffffffffffffffff166106d0565b34801561029057600080fd5b50610164600480360360208110156102a757600080fd5b503573ffffffffffffffffffffffffffffffffffffffff166106f8565b3480156102d057600080fd5b506102d961070d565b6040805173ffffffffffffffffffffffffffffffffffffffff9092168252519081900360200190f35b34801561030e57600080fd5b50610164610729565b34801561032357600080fd5b506101646004803603604081101561033a57600080fd5b5073ffffffffffffffffffffffffffffffffffffffff813516906020013561074a565b34801561036957600080fd5b506102d96107ba565b34801561037e57600080fd5b5061018d6004803603604081101561039557600080fd5b5073ffffffffffffffffffffffffffffffffffffffff813581169160200135166107d6565b3480156103c657600080fd5b5061011c600480360360208110156103dd57600080fd5b503573ffffffffffffffffffffffffffffffffffffffff1661080e565b60005473ffffffffffffffffffffffffffffffffffffffff16331461041e57600080fd5b60045460009074010000000000000000000000000000000000000000900460ff161561044957600080fd5b5073ffffffffffffffffffffffffffffffffffffffff91909116600090815260056020526040902080547fffffffffffffffffffffffffffffffffffffffffffffffffffffffffffffff0016911515919091179055565b60008115806104dd575033600090815260036020908152604080832073ffffffffffffffffffffffffffffffffffffffff87168452909152902054155b15156104e857600080fd5b33600081815260036020908152604080832073ffffffffffffffffffffffffffffffffffffffff881680855290835292819020869055805186815290519293927f8c5be1e5ebec7d5bd14f71427d1e84f3dd0314c0f7b2291e5b200ac8c7c3b925929181900390910190a350600192915050565b60015481565b600454600090849074010000000000000000000000000000000000000000900460ff16806105b5575073ffffffffffffffffffffffffffffffffffffffff811660009081526005602052604090205460ff165b15156105c057600080fd5b6105cb85858561089b565b95945050505050565b60005473ffffffffffffffffffffffffffffffffffffffff1633146105f857600080fd5b60045460009074010000000000000000000000000000000000000000900460ff161561062357600080fd5b50600480547fffffffffffffffffffffffff00000000000000000000000000000000000000001673ffffffffffffffffffffffffffffffffffffffff92909216919091179055565b60045473ffffffffffffffffffffffffffffffffffffffff16331461068f57600080fd5b600480547fffffffffffffffffffffff00ffffffffffffffffffffffffffffffffffffffff1674010000000000000000000000000000000000000000179055565b73ffffffffffffffffffffffffffffffffffffffff1660009081526002602052604090205490565b60056020526000908152604090205460ff1681565b60005473ffffffffffffffffffffffffffffffffffffffff1681565b60045474010000000000000000000000000000000000000000900460ff1681565b600454600090339074010000000000000000000000000000000000000000900460ff168061079d575073ffffffffffffffffffffffffffffffffffffffff811660009081526005602052604090205460ff165b15156107a857600080fd5b6107b284846109de565b949350505050565b60045473ffffffffffffffffffffffffffffffffffffffff1681565b73ffffffffffffffffffffffffffffffffffffffff918216600090815260036020908152604080832093909416825291909152205490565b60005473ffffffffffffffffffffffffffffffffffffffff16331461083257600080fd5b73ffffffffffffffffffffffffffffffffffffffff8116151561085457600080fd5b600080547fffffffffffffffffffffffff00000000000000000000000000000000000000001673ffffffffffffffffffffffffffffffffffffffff92909216919091179055565b73ffffffffffffffffffffffffffffffffffffffff8084166000908152600360209081526040808320338452825280832054938616835260029091528120549091906108ed908463ffffffff610aa816565b73ffffffffffffffffffffffffffffffffffffffff808616600090815260026020526040808220939093559087168152205461092f908463ffffffff610abe16565b73ffffffffffffffffffffffffffffffffffffffff8616600090815260026020526040902055610965818463ffffffff610abe16565b73ffffffffffffffffffffffffffffffffffffffff808716600081815260036020908152604080832033845282529182902094909455805187815290519288169391927fddf252ad1be2c89b69c2b068fc378daa952ba7f163c4a11628f55a4df523b3ef929181900390910190a3506001949350505050565b336000908152600260205260408120546109fe908363ffffffff610abe16565b336000908152600260205260408082209290925573ffffffffffffffffffffffffffffffffffffffff851681522054610a3d908363ffffffff610aa816565b73ffffffffffffffffffffffffffffffffffffffff84166000818152600260209081526040918290209390935580518581529051919233927fddf252ad1be2c89b69c2b068fc378daa952ba7f163c4a11628f55a4df523b3ef9281900390910190a350600192915050565b600082820183811015610ab757fe5b9392505050565b600082821115610aca57fe5b5090039056fea165627a7a72305820b7c0d1510e0337ce273056817a2efc4aa66a19f3c52e383533e5033f5e1f582e0029",
  "source": "/**\n * This smart contract code is Copyright 2017 TokenMarket Ltd. For more information see https://tokenmarket.net\n *\n * Licensed under the Apache License, version 2.0: https://github.com/TokenMarketNet/ico/blob/master/LICENSE.txt\n */\n\npragma solidity ^0.5.0;\n\nimport \"./StandardToken.sol\";\n\n/**\n * Define interface for releasing the token transfer after a successful crowdsale.\n */\ncontract ReleasableToken is StandardToken {\n\n  /* The finalizer contract that allows unlift the transfer limits on this token */\n  address public releaseAgent;\n\n  /** A crowdsale contract can release us to the wild if ICO success. If false we are are in transfer lock up period.*/\n  bool public released = false;\n\n  /** Map of agents that are allowed to transfer tokens regardless of the lock down period. These are crowdsale contracts and possible the team multisig itself. */\n  mapping (address => bool) public transferAgents;\n\n  /**\n   * Limit token transfer until the crowdsale is over.\n   *\n   */\n  modifier canTransfer(address _sender) {\n    require(released || transferAgents[_sender]);\n    _;\n  }\n\n  /** The function can be called only before or after the tokens have been releasesd */\n  modifier inReleaseState(bool releaseState) {\n    require(releaseState == released);\n    _;\n  }\n\n  /** The function can be called only by a whitelisted release agent. */\n  modifier onlyReleaseAgent() {\n    require(msg.sender == releaseAgent);\n    _;\n  }\n\n  /**\n   * Set the contract that can call release and make the token transferable.\n   *\n   * Design choice. Allow reset the release agent to fix fat finger mistakes.\n   */\n  function setReleaseAgent(address addr) onlyOwner inReleaseState(false) public {\n\n    // We don't do interface check here as we might want to a normal wallet address to act as a release agent\n    releaseAgent = addr;\n  }\n\n  /**\n   * Owner can allow a particular address (a crowdsale contract) to transfer tokens despite the lock up period.\n   */\n  function setTransferAgent(address addr, bool state) onlyOwner inReleaseState(false) public {\n    transferAgents[addr] = state;\n  }\n\n  /**\n   * One way function to release the tokens to the wild.\n   *\n   * Can be called only from the release agent that is the final ICO contract. It is only called if the crowdsale has been success (first milestone reached).\n   */\n  function releaseTokenTransfer() public onlyReleaseAgent {\n    released = true;\n  }\n\n  function transfer(address _to, uint _value) canTransfer(msg.sender) public returns (bool success) {\n    // Call StandardToken.transfer()\n   return super.transfer(_to, _value);\n  }\n\n  function transferFrom(address _from, address _to, uint _value) canTransfer(_from) public returns (bool success) {\n    // Call StandardToken.transferForm()\n    return super.transferFrom(_from, _to, _value);\n  }\n\n}\n",
  "sourcePath": "/Users/maxhoward/Desktop/Ethereum/MatryxPlatform/contracts/MatryxToken/ReleasableToken.sol",
  "compiler": {
    "name": "solc",
    "version": "0.5.0+commit.1d4f565a.Emscripten.clang"
  },
  "schemaVersion": "3.0.1",
  "updatedAt": "2019-02-02T22:53:51.560Z",
  "devdoc": {
    "methods": {
      "allowance(address,address)": {
        "details": "Function to check the amount of tokens that an owner allowed to a spender.",
        "params": {
          "_owner": "address The address which owns the funds.",
          "_spender": "address The address which will spend the funds."
        },
        "return": "A uint256 specifing the amount of tokens still available for the spender."
      },
      "approve(address,uint256)": {
        "details": "Aprove the passed address to spend the specified amount of tokens on behalf of msg.sender.",
        "params": {
          "_spender": "The address which will spend the funds.",
          "_value": "The amount of tokens to be spent."
        }
      },
      "balanceOf(address)": {
        "details": "Gets the balance of the specified address.",
        "params": {
          "_owner": "The address to query the the balance of."
        },
        "return": "An uint256 representing the amount owned by the passed address."
      },
      "transferOwnership(address)": {
        "details": "Allows the current owner to transfer control of the contract to a newOwner.",
        "params": {
          "newOwner": "The address to transfer ownership to."
        }
      }
    }
  },
  "userdoc": {
    "methods": {
      "releaseTokenTransfer()": {
        "notice": "One way function to release the tokens to the wild.   * Can be called only from the release agent that is the final ICO contract. It is only called if the crowdsale has been success (first milestone reached)."
      },
      "setReleaseAgent(address)": {
        "notice": "Set the contract that can call release and make the token transferable.   * Design choice. Allow reset the release agent to fix fat finger mistakes."
      },
      "setTransferAgent(address,bool)": {
        "notice": "Owner can allow a particular address (a crowdsale contract) to transfer tokens despite the lock up period."
      }
    },
    "notice": "Define interface for releasing the token transfer after a successful crowdsale."
  }
}