{
  "contractName": "TestMigrationTarget",
  "abi": [
    {
      "constant": false,
      "inputs": [
        {
          "name": "_spender",
          "type": "address"
        },
        {
          "name": "_value",
          "type": "uint256"
        }
      ],
      "name": "approve",
      "outputs": [
        {
          "name": "",
          "type": "bool"
        }
      ],
      "payable": false,
      "stateMutability": "nonpayable",
      "type": "function"
    },
    {
      "constant": true,
      "inputs": [],
      "name": "totalSupply",
      "outputs": [
        {
          "name": "",
          "type": "uint256"
        }
      ],
      "payable": false,
      "stateMutability": "view",
      "type": "function"
    },
    {
      "constant": false,
      "inputs": [
        {
          "name": "_from",
          "type": "address"
        },
        {
          "name": "_to",
          "type": "address"
        },
        {
          "name": "_value",
          "type": "uint256"
        }
      ],
      "name": "transferFrom",
      "outputs": [
        {
          "name": "",
          "type": "bool"
        }
      ],
      "payable": false,
      "stateMutability": "nonpayable",
      "type": "function"
    },
    {
      "constant": true,
      "inputs": [],
      "name": "originalSupply",
      "outputs": [
        {
          "name": "",
          "type": "uint256"
        }
      ],
      "payable": false,
      "stateMutability": "view",
      "type": "function"
    },
    {
      "constant": true,
      "inputs": [],
      "name": "isUpgradeAgent",
      "outputs": [
        {
          "name": "",
          "type": "bool"
        }
      ],
      "payable": false,
      "stateMutability": "pure",
      "type": "function"
    },
    {
      "constant": true,
      "inputs": [
        {
          "name": "_owner",
          "type": "address"
        }
      ],
      "name": "balanceOf",
      "outputs": [
        {
          "name": "balance",
          "type": "uint256"
        }
      ],
      "payable": false,
      "stateMutability": "view",
      "type": "function"
    },
    {
      "constant": true,
      "inputs": [],
      "name": "owner",
      "outputs": [
        {
          "name": "",
          "type": "address"
        }
      ],
      "payable": false,
      "stateMutability": "view",
      "type": "function"
    },
    {
      "constant": false,
      "inputs": [
        {
          "name": "_to",
          "type": "address"
        },
        {
          "name": "_value",
          "type": "uint256"
        }
      ],
      "name": "transfer",
      "outputs": [
        {
          "name": "",
          "type": "bool"
        }
      ],
      "payable": false,
      "stateMutability": "nonpayable",
      "type": "function"
    },
    {
      "constant": true,
      "inputs": [],
      "name": "oldToken",
      "outputs": [
        {
          "name": "",
          "type": "address"
        }
      ],
      "payable": false,
      "stateMutability": "view",
      "type": "function"
    },
    {
      "constant": true,
      "inputs": [
        {
          "name": "_owner",
          "type": "address"
        },
        {
          "name": "_spender",
          "type": "address"
        }
      ],
      "name": "allowance",
      "outputs": [
        {
          "name": "remaining",
          "type": "uint256"
        }
      ],
      "payable": false,
      "stateMutability": "view",
      "type": "function"
    },
    {
      "constant": false,
      "inputs": [
        {
          "name": "newOwner",
          "type": "address"
        }
      ],
      "name": "transferOwnership",
      "outputs": [],
      "payable": false,
      "stateMutability": "nonpayable",
      "type": "function"
    },
    {
      "inputs": [
        {
          "name": "_oldToken",
          "type": "address"
        }
      ],
      "payable": false,
      "stateMutability": "nonpayable",
      "type": "constructor"
    },
    {
      "payable": false,
      "stateMutability": "nonpayable",
      "type": "fallback"
    },
    {
      "anonymous": false,
      "inputs": [
        {
          "indexed": true,
          "name": "from",
          "type": "address"
        },
        {
          "indexed": true,
          "name": "to",
          "type": "address"
        },
        {
          "indexed": false,
          "name": "value",
          "type": "uint256"
        }
      ],
      "name": "Transfer",
      "type": "event"
    },
    {
      "anonymous": false,
      "inputs": [
        {
          "indexed": true,
          "name": "owner",
          "type": "address"
        },
        {
          "indexed": true,
          "name": "spender",
          "type": "address"
        },
        {
          "indexed": false,
          "name": "value",
          "type": "uint256"
        }
      ],
      "name": "Approval",
      "type": "event"
    },
    {
      "constant": false,
      "inputs": [
        {
          "name": "_from",
          "type": "address"
        },
        {
          "name": "_value",
          "type": "uint256"
        }
      ],
      "name": "upgradeFrom",
      "outputs": [],
      "payable": false,
      "stateMutability": "nonpayable",
      "type": "function"
    }
  ],
  "bytecode": "0x608060405234801561001057600080fd5b506040516020806109a38339810180604052602081101561003057600080fd5b505160008054600160a060020a0319908116331790915560058054600160a060020a0380851691909316179081905516151561006b57600080fd5b80600160a060020a03166318160ddd6040518163ffffffff167c010000000000000000000000000000000000000000000000000000000002815260040160206040518083038186803b1580156100c057600080fd5b505afa1580156100d4573d6000803e3d6000fd5b505050506040513d60208110156100ea57600080fd5b5051600681905515156100fc57600080fd5b506108978061010c6000396000f3fe6080604052600436106100b95763ffffffff7c0100000000000000000000000000000000000000000000000000000000600035041663095ea7b381146100cb57806318160ddd1461012557806323b872dd1461014c5780634b2ba0dd1461019c57806361d3d7a6146101b157806370a08231146101c6578063753e88e5146102065780638da5cb5b1461024e578063a9059cbb1461028c578063b31c710a146102d2578063dd62ed3e146102e7578063f2fde38b1461032f575b3480156100c557600080fd5b50600080fd5b3480156100d757600080fd5b50610111600480360360408110156100ee57600080fd5b5073ffffffffffffffffffffffffffffffffffffffff813516906020013561036f565b604080519115158252519081900360200190f35b34801561013157600080fd5b5061013a61042b565b60408051918252519081900360200190f35b34801561015857600080fd5b506101116004803603606081101561016f57600080fd5b5073ffffffffffffffffffffffffffffffffffffffff813581169160208101359091169060400135610431565b3480156101a857600080fd5b5061013a610574565b3480156101bd57600080fd5b5061011161057a565b3480156101d257600080fd5b5061013a600480360360208110156101e957600080fd5b503573ffffffffffffffffffffffffffffffffffffffff1661057f565b34801561021257600080fd5b5061024c6004803603604081101561022957600080fd5b5073ffffffffffffffffffffffffffffffffffffffff81351690602001356105a7565b005b34801561025a57600080fd5b5061026361067c565b6040805173ffffffffffffffffffffffffffffffffffffffff9092168252519081900360200190f35b34801561029857600080fd5b50610111600480360360408110156102af57600080fd5b5073ffffffffffffffffffffffffffffffffffffffff8135169060200135610698565b3480156102de57600080fd5b50610263610762565b3480156102f357600080fd5b5061013a6004803603604081101561030a57600080fd5b5073ffffffffffffffffffffffffffffffffffffffff8135811691602001351661077e565b34801561033b57600080fd5b5061024c6004803603602081101561035257600080fd5b503573ffffffffffffffffffffffffffffffffffffffff166107b6565b60008115806103ac575033600090815260036020908152604080832073ffffffffffffffffffffffffffffffffffffffff87168452909152902054155b15156103b757600080fd5b33600081815260036020908152604080832073ffffffffffffffffffffffffffffffffffffffff881680855290835292819020869055805186815290519293927f8c5be1e5ebec7d5bd14f71427d1e84f3dd0314c0f7b2291e5b200ac8c7c3b925929181900390910190a350600192915050565b60015481565b73ffffffffffffffffffffffffffffffffffffffff808416600090815260036020908152604080832033845282528083205493861683526002909152812054909190610483908463ffffffff61084316565b73ffffffffffffffffffffffffffffffffffffffff80861660009081526002602052604080822093909355908716815220546104c5908463ffffffff61085916565b73ffffffffffffffffffffffffffffffffffffffff86166000908152600260205260409020556104fb818463ffffffff61085916565b73ffffffffffffffffffffffffffffffffffffffff808716600081815260036020908152604080832033845282529182902094909455805187815290519288169391927fddf252ad1be2c89b69c2b068fc378daa952ba7f163c4a11628f55a4df523b3ef929181900390910190a3506001949350505050565b60065481565b600190565b73ffffffffffffffffffffffffffffffffffffffff1660009081526002602052604090205490565b60055473ffffffffffffffffffffffffffffffffffffffff1633146105cb57600080fd5b6001546105de908263ffffffff61084316565b60015573ffffffffffffffffffffffffffffffffffffffff8216600090815260026020526040902054610617908263ffffffff61084316565b73ffffffffffffffffffffffffffffffffffffffff831660008181526002602090815260408083209490945583518581529351929391927fddf252ad1be2c89b69c2b068fc378daa952ba7f163c4a11628f55a4df523b3ef9281900390910190a35050565b60005473ffffffffffffffffffffffffffffffffffffffff1681565b336000908152600260205260408120546106b8908363ffffffff61085916565b336000908152600260205260408082209290925573ffffffffffffffffffffffffffffffffffffffff8516815220546106f7908363ffffffff61084316565b73ffffffffffffffffffffffffffffffffffffffff84166000818152600260209081526040918290209390935580518581529051919233927fddf252ad1be2c89b69c2b068fc378daa952ba7f163c4a11628f55a4df523b3ef9281900390910190a350600192915050565b60055473ffffffffffffffffffffffffffffffffffffffff1681565b73ffffffffffffffffffffffffffffffffffffffff918216600090815260036020908152604080832093909416825291909152205490565b60005473ffffffffffffffffffffffffffffffffffffffff1633146107da57600080fd5b73ffffffffffffffffffffffffffffffffffffffff811615156107fc57600080fd5b600080547fffffffffffffffffffffffff00000000000000000000000000000000000000001673ffffffffffffffffffffffffffffffffffffffff92909216919091179055565b60008282018381101561085257fe5b9392505050565b60008282111561086557fe5b5090039056fea165627a7a723058205efaa184a0a4196016cebbc6677ca62dc452d29e884d03c9a3fa0596cec70a030029",
  "source": "pragma solidity ^0.5.0;\n\nimport \"../UpgradeableToken.sol\";\n\n/**\n * A sample token that is used as a migration testing target.\n *\n * This is not an actual token, but just a stub used in testing.\n */\ncontract TestMigrationTarget is StandardToken, UpgradeAgent {\n\n  UpgradeableToken public oldToken;\n\n  uint public originalSupply;\n\n  constructor(UpgradeableToken _oldToken) public {\n\n    oldToken = _oldToken;\n\n    // Let's not set bad old token\n    require(address(oldToken) != address(0));\n\n    // Let's make sure we have something to migrate\n    originalSupply = _oldToken.totalSupply();\n    require(originalSupply != 0);\n  }\n\n  function upgradeFrom(address _from, uint256 _value) public {\n    require(msg.sender == address(oldToken)); // only upgrade from oldToken\n\n    // Mint new tokens to the migrator\n    totalSupply = totalSupply.add(_value);\n    balances[_from] = balances[_from].add(_value);\n    emit Transfer(address(0), _from, _value);\n  }\n\n  function() external {\n    revert();\n  }\n\n}\n",
  "sourcePath": "/Users/maxhoward/Desktop/Ethereum/MatryxPlatform/contracts/MatryxToken/test/TestMigrationTarget.sol",
  "compiler": {
    "name": "solc",
    "version": "0.5.0+commit.1d4f565a.Emscripten.clang"
  },
  "schemaVersion": "3.0.1",
  "updatedAt": "2019-02-02T22:53:51.573Z",
  "devdoc": {
    "methods": {
      "allowance(address,address)": {
        "details": "Function to check the amount of tokens that an owner allowed to a spender.",
        "params": {
          "_owner": "address The address which owns the funds.",
          "_spender": "address The address which will spend the funds."
        },
        "return": "A uint256 specifing the amount of tokens still available for the spender."
      },
      "approve(address,uint256)": {
        "details": "Aprove the passed address to spend the specified amount of tokens on behalf of msg.sender.",
        "params": {
          "_spender": "The address which will spend the funds.",
          "_value": "The amount of tokens to be spent."
        }
      },
      "balanceOf(address)": {
        "details": "Gets the balance of the specified address.",
        "params": {
          "_owner": "The address to query the the balance of."
        },
        "return": "An uint256 representing the amount owned by the passed address."
      },
      "transfer(address,uint256)": {
        "details": "transfer token for a specified address",
        "params": {
          "_to": "The address to transfer to.",
          "_value": "The amount to be transferred."
        }
      },
      "transferFrom(address,address,uint256)": {
        "details": "Transfer tokens from one address to another",
        "params": {
          "_from": "address The address which you want to send tokens from",
          "_to": "address The address which you want to transfer to",
          "_value": "uint256 the amout of tokens to be transfered"
        }
      },
      "transferOwnership(address)": {
        "details": "Allows the current owner to transfer control of the contract to a newOwner.",
        "params": {
          "newOwner": "The address to transfer ownership to."
        }
      }
    }
  },
  "userdoc": {
    "methods": {
      "isUpgradeAgent()": {
        "notice": "Interface marker "
      }
    },
    "notice": "A sample token that is used as a migration testing target. * This is not an actual token, but just a stub used in testing."
  }
}