{
  "contractName": "UpgradeableToken",
  "abi": [
    {
      "constant": false,
      "inputs": [
        {
          "name": "_spender",
          "type": "address"
        },
        {
          "name": "_value",
          "type": "uint256"
        }
      ],
      "name": "approve",
      "outputs": [
        {
          "name": "",
          "type": "bool"
        }
      ],
      "payable": false,
      "stateMutability": "nonpayable",
      "type": "function"
    },
    {
      "constant": true,
      "inputs": [],
      "name": "totalSupply",
      "outputs": [
        {
          "name": "",
          "type": "uint256"
        }
      ],
      "payable": false,
      "stateMutability": "view",
      "type": "function"
    },
    {
      "constant": false,
      "inputs": [
        {
          "name": "_from",
          "type": "address"
        },
        {
          "name": "_to",
          "type": "address"
        },
        {
          "name": "_value",
          "type": "uint256"
        }
      ],
      "name": "transferFrom",
      "outputs": [
        {
          "name": "",
          "type": "bool"
        }
      ],
      "payable": false,
      "stateMutability": "nonpayable",
      "type": "function"
    },
    {
      "constant": true,
      "inputs": [],
      "name": "upgradeAgent",
      "outputs": [
        {
          "name": "",
          "type": "address"
        }
      ],
      "payable": false,
      "stateMutability": "view",
      "type": "function"
    },
    {
      "constant": true,
      "inputs": [],
      "name": "upgradeMaster",
      "outputs": [
        {
          "name": "",
          "type": "address"
        }
      ],
      "payable": false,
      "stateMutability": "view",
      "type": "function"
    },
    {
      "constant": true,
      "inputs": [
        {
          "name": "_owner",
          "type": "address"
        }
      ],
      "name": "balanceOf",
      "outputs": [
        {
          "name": "balance",
          "type": "uint256"
        }
      ],
      "payable": false,
      "stateMutability": "view",
      "type": "function"
    },
    {
      "constant": true,
      "inputs": [],
      "name": "owner",
      "outputs": [
        {
          "name": "",
          "type": "address"
        }
      ],
      "payable": false,
      "stateMutability": "view",
      "type": "function"
    },
    {
      "constant": false,
      "inputs": [
        {
          "name": "_to",
          "type": "address"
        },
        {
          "name": "_value",
          "type": "uint256"
        }
      ],
      "name": "transfer",
      "outputs": [
        {
          "name": "",
          "type": "bool"
        }
      ],
      "payable": false,
      "stateMutability": "nonpayable",
      "type": "function"
    },
    {
      "constant": true,
      "inputs": [],
      "name": "totalUpgraded",
      "outputs": [
        {
          "name": "",
          "type": "uint256"
        }
      ],
      "payable": false,
      "stateMutability": "view",
      "type": "function"
    },
    {
      "constant": true,
      "inputs": [
        {
          "name": "_owner",
          "type": "address"
        },
        {
          "name": "_spender",
          "type": "address"
        }
      ],
      "name": "allowance",
      "outputs": [
        {
          "name": "remaining",
          "type": "uint256"
        }
      ],
      "payable": false,
      "stateMutability": "view",
      "type": "function"
    },
    {
      "constant": false,
      "inputs": [
        {
          "name": "newOwner",
          "type": "address"
        }
      ],
      "name": "transferOwnership",
      "outputs": [],
      "payable": false,
      "stateMutability": "nonpayable",
      "type": "function"
    },
    {
      "inputs": [
        {
          "name": "_upgradeMaster",
          "type": "address"
        }
      ],
      "payable": false,
      "stateMutability": "nonpayable",
      "type": "constructor"
    },
    {
      "anonymous": false,
      "inputs": [
        {
          "indexed": true,
          "name": "_from",
          "type": "address"
        },
        {
          "indexed": true,
          "name": "_to",
          "type": "address"
        },
        {
          "indexed": false,
          "name": "_value",
          "type": "uint256"
        }
      ],
      "name": "Upgrade",
      "type": "event"
    },
    {
      "anonymous": false,
      "inputs": [
        {
          "indexed": false,
          "name": "agent",
          "type": "address"
        }
      ],
      "name": "UpgradeAgentSet",
      "type": "event"
    },
    {
      "anonymous": false,
      "inputs": [
        {
          "indexed": true,
          "name": "from",
          "type": "address"
        },
        {
          "indexed": true,
          "name": "to",
          "type": "address"
        },
        {
          "indexed": false,
          "name": "value",
          "type": "uint256"
        }
      ],
      "name": "Transfer",
      "type": "event"
    },
    {
      "anonymous": false,
      "inputs": [
        {
          "indexed": true,
          "name": "owner",
          "type": "address"
        },
        {
          "indexed": true,
          "name": "spender",
          "type": "address"
        },
        {
          "indexed": false,
          "name": "value",
          "type": "uint256"
        }
      ],
      "name": "Approval",
      "type": "event"
    },
    {
      "constant": false,
      "inputs": [
        {
          "name": "value",
          "type": "uint256"
        }
      ],
      "name": "upgrade",
      "outputs": [],
      "payable": false,
      "stateMutability": "nonpayable",
      "type": "function"
    },
    {
      "constant": false,
      "inputs": [
        {
          "name": "agent",
          "type": "address"
        }
      ],
      "name": "setUpgradeAgent",
      "outputs": [],
      "payable": false,
      "stateMutability": "nonpayable",
      "type": "function"
    },
    {
      "constant": true,
      "inputs": [],
      "name": "getUpgradeState",
      "outputs": [
        {
          "name": "",
          "type": "uint8"
        }
      ],
      "payable": false,
      "stateMutability": "view",
      "type": "function"
    },
    {
      "constant": false,
      "inputs": [
        {
          "name": "master",
          "type": "address"
        }
      ],
      "name": "setUpgradeMaster",
      "outputs": [],
      "payable": false,
      "stateMutability": "nonpayable",
      "type": "function"
    }
  ],
  "bytecode": "0x608060405234801561001057600080fd5b50604051602080610d968339810180604052602081101561003057600080fd5b505160008054600160a060020a0319908116331790915560048054600160a060020a0390931692909116919091179055610d278061006f6000396000f3fe6080604052600436106100da5763ffffffff7c0100000000000000000000000000000000000000000000000000000000600035041663095ea7b381146100df57806318160ddd1461013957806323b872dd1461016057806345977d03146101b05780635de4ccb0146101dc578063600440cb1461021a57806370a082311461022f5780638444b3911461026f5780638da5cb5b146102a8578063a9059cbb146102bd578063c752ff6214610303578063d7e7088a14610318578063dd62ed3e14610358578063f2fde38b146103a0578063ffeb7d75146103e0575b600080fd5b3480156100eb57600080fd5b506101256004803603604081101561010257600080fd5b5073ffffffffffffffffffffffffffffffffffffffff8135169060200135610420565b604080519115158252519081900360200190f35b34801561014557600080fd5b5061014e6104dc565b60408051918252519081900360200190f35b34801561016c57600080fd5b506101256004803603606081101561018357600080fd5b5073ffffffffffffffffffffffffffffffffffffffff8135811691602081013590911690604001356104e2565b3480156101bc57600080fd5b506101da600480360360208110156101d357600080fd5b5035610625565b005b3480156101e857600080fd5b506101f16107b0565b6040805173ffffffffffffffffffffffffffffffffffffffff9092168252519081900360200190f35b34801561022657600080fd5b506101f16107cc565b34801561023b57600080fd5b5061014e6004803603602081101561025257600080fd5b503573ffffffffffffffffffffffffffffffffffffffff166107e8565b34801561027b57600080fd5b50610284610810565b6040518082600481111561029457fe5b60ff16815260200191505060405180910390f35b3480156102b457600080fd5b506101f1610852565b3480156102c957600080fd5b50610125600480360360408110156102e057600080fd5b5073ffffffffffffffffffffffffffffffffffffffff813516906020013561086e565b34801561030f57600080fd5b5061014e610938565b34801561032457600080fd5b506101da6004803603602081101561033b57600080fd5b503573ffffffffffffffffffffffffffffffffffffffff1661093e565b34801561036457600080fd5b5061014e6004803603604081101561037b57600080fd5b5073ffffffffffffffffffffffffffffffffffffffff81358116916020013516610b81565b3480156103ac57600080fd5b506101da600480360360208110156103c357600080fd5b503573ffffffffffffffffffffffffffffffffffffffff16610bb9565b3480156103ec57600080fd5b506101da6004803603602081101561040357600080fd5b503573ffffffffffffffffffffffffffffffffffffffff16610c46565b600081158061045d575033600090815260036020908152604080832073ffffffffffffffffffffffffffffffffffffffff87168452909152902054155b151561046857600080fd5b33600081815260036020908152604080832073ffffffffffffffffffffffffffffffffffffffff881680855290835292819020869055805186815290519293927f8c5be1e5ebec7d5bd14f71427d1e84f3dd0314c0f7b2291e5b200ac8c7c3b925929181900390910190a350600192915050565b60015481565b73ffffffffffffffffffffffffffffffffffffffff808416600090815260036020908152604080832033845282528083205493861683526002909152812054909190610534908463ffffffff610cd316565b73ffffffffffffffffffffffffffffffffffffffff8086166000908152600260205260408082209390935590871681522054610576908463ffffffff610ce916565b73ffffffffffffffffffffffffffffffffffffffff86166000908152600260205260409020556105ac818463ffffffff610ce916565b73ffffffffffffffffffffffffffffffffffffffff808716600081815260036020908152604080832033845282529182902094909455805187815290519288169391927fddf252ad1be2c89b69c2b068fc378daa952ba7f163c4a11628f55a4df523b3ef929181900390910190a3506001949350505050565b600061062f610810565b9050600381600481111561063f57fe5b14806106565750600481600481111561065457fe5b145b151561066157600080fd5b81151561066d57600080fd5b3360009081526002602052604090205461068d908363ffffffff610ce916565b336000908152600260205260409020556001546106b0908363ffffffff610ce916565b6001556006546106c6908363ffffffff610cd316565b600655600554604080517f753e88e500000000000000000000000000000000000000000000000000000000815233600482015260248101859052905173ffffffffffffffffffffffffffffffffffffffff9092169163753e88e59160448082019260009290919082900301818387803b15801561074257600080fd5b505af1158015610756573d6000803e3d6000fd5b505060055460408051868152905173ffffffffffffffffffffffffffffffffffffffff90921693503392507f7e5c344a8141a805725cb476f76c6953b842222b967edd1f78ddb6e8b3f397ac919081900360200190a35050565b60055473ffffffffffffffffffffffffffffffffffffffff1681565b60045473ffffffffffffffffffffffffffffffffffffffff1681565b73ffffffffffffffffffffffffffffffffffffffff1660009081526002602052604090205490565b60055460009073ffffffffffffffffffffffffffffffffffffffff16151561083a5750600261084f565b600654151561084b5750600361084f565b5060045b90565b60005473ffffffffffffffffffffffffffffffffffffffff1681565b3360009081526002602052604081205461088e908363ffffffff610ce916565b336000908152600260205260408082209290925573ffffffffffffffffffffffffffffffffffffffff8516815220546108cd908363ffffffff610cd316565b73ffffffffffffffffffffffffffffffffffffffff84166000818152600260209081526040918290209390935580518581529051919233927fddf252ad1be2c89b69c2b068fc378daa952ba7f163c4a11628f55a4df523b3ef9281900390910190a350600192915050565b60065481565b73ffffffffffffffffffffffffffffffffffffffff8116151561096057600080fd5b60045473ffffffffffffffffffffffffffffffffffffffff16331461098457600080fd5b600461098e610810565b600481111561099957fe5b14156109a457600080fd5b600580547fffffffffffffffffffffffff00000000000000000000000000000000000000001673ffffffffffffffffffffffffffffffffffffffff8381169190911791829055604080517f61d3d7a6000000000000000000000000000000000000000000000000000000008152905192909116916361d3d7a691600480820192602092909190829003018186803b158015610a3e57600080fd5b505afa158015610a52573d6000803e3d6000fd5b505050506040513d6020811015610a6857600080fd5b50511515610a7557600080fd5b600154600560009054906101000a900473ffffffffffffffffffffffffffffffffffffffff1673ffffffffffffffffffffffffffffffffffffffff16634b2ba0dd6040518163ffffffff167c010000000000000000000000000000000000000000000000000000000002815260040160206040518083038186803b158015610afc57600080fd5b505afa158015610b10573d6000803e3d6000fd5b505050506040513d6020811015610b2657600080fd5b505114610b3257600080fd5b6005546040805173ffffffffffffffffffffffffffffffffffffffff9092168252517f7845d5aa74cc410e35571258d954f23b82276e160fe8c188fa80566580f279cc9181900360200190a150565b73ffffffffffffffffffffffffffffffffffffffff918216600090815260036020908152604080832093909416825291909152205490565b60005473ffffffffffffffffffffffffffffffffffffffff163314610bdd57600080fd5b73ffffffffffffffffffffffffffffffffffffffff81161515610bff57600080fd5b600080547fffffffffffffffffffffffff00000000000000000000000000000000000000001673ffffffffffffffffffffffffffffffffffffffff92909216919091179055565b73ffffffffffffffffffffffffffffffffffffffff81161515610c6857600080fd5b60045473ffffffffffffffffffffffffffffffffffffffff163314610c8c57600080fd5b600480547fffffffffffffffffffffffff00000000000000000000000000000000000000001673ffffffffffffffffffffffffffffffffffffffff92909216919091179055565b600082820183811015610ce257fe5b9392505050565b600082821115610cf557fe5b5090039056fea165627a7a72305820c6a4db3c56f113bbfe6e24aa5117d506d75d018857061888dd8cb1f24f6669840029",
  "source": "/**\n * This smart contract code is Copyright 2017 TokenMarket Ltd. For more information see https://tokenmarket.net\n *\n * Licensed under the Apache License, version 2.0: https://github.com/TokenMarketNet/ico/blob/master/LICENSE.txt\n */\n\npragma solidity ^0.5.0;\n\nimport './StandardToken.sol';\nimport \"./ownership/UpgradeAgent.sol\";\n\n/**\n * A token upgrade mechanism where users can opt-in amount of tokens to the next smart contract revision.\n *\n * First envisioned by Golem and Lunyr projects.\n */\ncontract UpgradeableToken is StandardToken {\n\n  /** Contract / person who can set the upgrade path. This can be the same as team multisig wallet, as what it is with its default value. */\n  address public upgradeMaster;\n\n  /** The next contract where the tokens will be migrated. */\n  UpgradeAgent public upgradeAgent;\n\n  /** How many tokens we have upgraded by now. */\n  uint256 public totalUpgraded;\n\n  /**\n   * Upgrade states.\n   *\n   * - NotAllowed: The child contract has not reached a condition where the upgrade can bgun\n   * - WaitingForAgent: Token allows upgrade, but we don't have a new agent yet\n   * - ReadyToUpgrade: The agent is set, but not a single token has been upgraded yet\n   * - Upgrading: Upgrade agent is set and the balance holders can upgrade their tokens\n   *\n   */\n  enum UpgradeState {Unknown, NotAllowed, WaitingForAgent, ReadyToUpgrade, Upgrading}\n\n  /**\n   * Somebody has upgraded some of his tokens.\n   */\n  event Upgrade(address indexed _from, address indexed _to, uint256 _value);\n\n  /**\n   * New upgrade agent available.\n   */\n  event UpgradeAgentSet(address agent);\n\n  /**\n   * Do not allow construction without upgrade master set.\n   */\n  constructor(address _upgradeMaster) public {\n    upgradeMaster = _upgradeMaster;\n  }\n\n  /**\n   * Allow the token holder to upgrade some of their tokens to a new contract.\n   */\n  function upgrade(uint256 value) public {\n\n      UpgradeState state = getUpgradeState();\n      require(state == UpgradeState.ReadyToUpgrade || state == UpgradeState.Upgrading);\n\n      // Validate input value.\n      require(value != 0);\n\n      balances[msg.sender] = balances[msg.sender].sub(value);\n\n      // Take tokens out from circulation\n      totalSupply = totalSupply.sub(value);\n      totalUpgraded = totalUpgraded.add(value);\n\n      // Upgrade agent reissues the tokens\n      upgradeAgent.upgradeFrom(msg.sender, value);\n      emit Upgrade(msg.sender, address(upgradeAgent), value);\n  }\n\n  /**\n   * Set an upgrade agent that handles\n   */\n  function setUpgradeAgent(address agent) external {\n\n      require(agent != address(0));\n      // Only a master can designate the next agent\n      require(msg.sender == upgradeMaster);\n      // Upgrade has already begun for an agent\n      require(getUpgradeState() != UpgradeState.Upgrading);\n\n      upgradeAgent = UpgradeAgent(agent);\n\n      // Bad interface\n      require(upgradeAgent.isUpgradeAgent());\n      // Make sure that token supplies match in source and target\n      require(upgradeAgent.originalSupply() == totalSupply);\n\n      emit UpgradeAgentSet(address(upgradeAgent));\n  }\n\n  /**\n   * Get the state of the token upgrade.\n   */\n  function getUpgradeState() public view returns(UpgradeState) {\n    if(address(upgradeAgent) == address(0x00)) return UpgradeState.WaitingForAgent;\n    else if(totalUpgraded == 0) return UpgradeState.ReadyToUpgrade;\n    else return UpgradeState.Upgrading;\n  }\n\n  /**\n   * Change the upgrade master.\n   *\n   * This allows us to set a new owner for the upgrade mechanism.\n   */\n  function setUpgradeMaster(address master) public {\n      require(master != address(0));\n      require(msg.sender == upgradeMaster);\n      upgradeMaster = master;\n  }\n\n\n}\n",
  "sourcePath": "/Users/maxhoward/Desktop/Ethereum/MatryxPlatform/contracts/MatryxToken/UpgradeableToken.sol",
  "compiler": {
    "name": "solc",
    "version": "0.5.0+commit.1d4f565a.Emscripten.clang"
  },
  "schemaVersion": "3.0.1",
  "updatedAt": "2019-02-02T22:53:51.564Z",
  "devdoc": {
    "methods": {
      "allowance(address,address)": {
        "details": "Function to check the amount of tokens that an owner allowed to a spender.",
        "params": {
          "_owner": "address The address which owns the funds.",
          "_spender": "address The address which will spend the funds."
        },
        "return": "A uint256 specifing the amount of tokens still available for the spender."
      },
      "approve(address,uint256)": {
        "details": "Aprove the passed address to spend the specified amount of tokens on behalf of msg.sender.",
        "params": {
          "_spender": "The address which will spend the funds.",
          "_value": "The amount of tokens to be spent."
        }
      },
      "balanceOf(address)": {
        "details": "Gets the balance of the specified address.",
        "params": {
          "_owner": "The address to query the the balance of."
        },
        "return": "An uint256 representing the amount owned by the passed address."
      },
      "transfer(address,uint256)": {
        "details": "transfer token for a specified address",
        "params": {
          "_to": "The address to transfer to.",
          "_value": "The amount to be transferred."
        }
      },
      "transferFrom(address,address,uint256)": {
        "details": "Transfer tokens from one address to another",
        "params": {
          "_from": "address The address which you want to send tokens from",
          "_to": "address The address which you want to transfer to",
          "_value": "uint256 the amout of tokens to be transfered"
        }
      },
      "transferOwnership(address)": {
        "details": "Allows the current owner to transfer control of the contract to a newOwner.",
        "params": {
          "newOwner": "The address to transfer ownership to."
        }
      }
    }
  },
  "userdoc": {
    "methods": {
      "constructor": "Do not allow construction without upgrade master set.",
      "getUpgradeState()": {
        "notice": "Get the state of the token upgrade."
      },
      "setUpgradeAgent(address)": {
        "notice": "Set an upgrade agent that handles"
      },
      "setUpgradeMaster(address)": {
        "notice": "Change the upgrade master.   * This allows us to set a new owner for the upgrade mechanism."
      },
      "upgrade(uint256)": {
        "notice": "Allow the token holder to upgrade some of their tokens to a new contract."
      }
    },
    "notice": "A token upgrade mechanism where users can opt-in amount of tokens to the next smart contract revision. * First envisioned by Golem and Lunyr projects."
  }
}